:100000000C94C1070C94F2070C94F2070C94F207BD
:100010000C94F2070C94F2070C94F2070C94F2077C
:100020000C94F2070C94B7580C94B7580C94B7582A
:100030000C94F2070C94F2070C94F2070C94F2075C
:100040000C94F2070C94F2070C94F2070C94F2074C
:100050000C94F2070C94F2070C94F2070C946D5870
:100060000C94F2070C9443580C9419580C94F20712
:100070000C94F2070C94F2070C94F2070C94F2071C
:100080000C94F2070C94F2070C94F2070C94F2070C
:100090000C94EF570C94C5570C94F2070C94F2078C
:1000A0000C94F2070C94F2070C94F2070C94F207EC
:1000B0000C94F2070C94F2070C94F2070C94F207DC
:1000C0000C94F2070C94F2070C94F2070C949B57D3
:1000D0000C9471570C94F2070C9447570C941D57CD
:1000E0000C94F2070C94670A0C94B43C0C94A24B49
:1000F0000C940C2D0C94A4140C948D0A0C94710A7D
:100100000C94AC140C9442130C94443A0C94ED13DC
:100110000C9413560C94B0140C945D3F0C949809F5
:100120000C94830A0C94F6590C947B0A0C94AE142C
:100130000C94BF1E0C94ED270C94E8530C94891179
:100140000C94630D0C9445160C94EC2A0C94560AEE
:100150000C944F0D0C9450340C9444130C94A11136
:100160000C94854E0C94BB190C94BE290C94E22C73
:100170000C943D130C94B9190C947B160C94AA148E
:100180000C94BF3E0C9440160C949C080C94DC4DCF
:100190000C94520A0C9496300C94343F0C94B22771
:1001A0000C944E0A0C943F130C94573E0C946D0A19
:1001B0000C948B0F0C94CF550C94F0130C94523379
:1001C0000C94B6120C94BD190C94024E0C947E5AE9
:1001D0000C9420090C94F43B0C94F1120C94BF196C
:1001E0000C9415110C94E5090C94B94D0C942C54F5
:1001F0000C94604D0C94615A0C9442090C94AF1409
:100200000C94890A0C94883F0C94F9590C94750A43
:100210000C940B130C94E92B0C9426280C94895401
:100220000C94BD3F0C949C550C94CB270C94B7199F
:100230000C949D160C947D4C0C94E22D0C94FB3E7A
:100240000C9419080C9441130C9408130C944B0D46
:100250000C94262D0C94F20C0C94FD0C0C941A1496
:100260000C94D7340C94A8140C94A72E0C9432162A
:100270000C94D83F0C94140D0C94B44B0C94CE2ACF
:100280000C943E130C94530D0C942D110C94002ED1
:100290000C944C3C0C9442160C944D160C94BA12CF
:1002A0000C94A94D0C9413140C94262B0C94B52883
:1002B0000C948C3E0C94880A0C94E32A0C94361609
:1002C0000C947A1B0C94BD120C94AB190C94480A34
:1002D0000C945A0A0C94B7120C9433590C94CB0812
:1002E0000C94A6140C947B5A0C9434090C947C2E18
:1002F0000C94AE0F0C946C360C94D0130C949C3B65
:100300000C94C5330C945D0A0C943C370C94C912C0
:100310000C94684C0C94FC3F0C94C8120C949C3ABE
:100320000C94303E0C947F550C94F1130C941109ED
:100330000C94630A0C94B5190C94D1130C94C32C2F
:100340000C94A6280C94DC0C0C947F0A0C94DA3ED6
:100350000C94645A0C94143B00407A10F35A00A099
:10036000724E18090010A5D4E80000E8764817007E
:1003700000E40B54020000CA9A3B000000E1F505BE
:10038000000080969800000040420F000000A08608
:1003900001000000102700000000E803000000003A
:1003A0006400000000000A000000000001000000DE
:1003B00000002C76D888DC674F0823DFC1DFAE59F8
:1003C000E1B1B796E5E3E453C63AE651997696E88B
:1003D000E6C28426EB898C9B62ED407C6FFCEFBC0F
:1003E0009C9F40F2BAA56FA5F490055A2AF75C933A
:1003F0006B6CF9676DC11BFCE0E40D47FEF520E670
:10040000B500D0ED902E0300943577050080841E52
:10041000080000204E0A000000C80C333333330FAD
:10042000986E12831141EF8D2114893BE65516CF4A
:10043000FEE6DB18D1844B381BF77C1D901DA4BB56
:10044000E424203284725E228100C9F124ECA1E50B
:100450003D272040003B6C684F6E3A003B50696E70
:100460003A003B547970653A0049643A00204000F4
:100470003B6C684F6E3A003B50696E3A003B5479D2
:1004800070653A0049643A00526573657400230050
:100490005D3A005B004D51545420636F6E6E65638E
:1004A00074696F6E204661696C6564004D71747487
:1004B0005265636F6E6E65637400547279696E671E
:1004C00020746F207265636F6E6E656374204D518A
:1004D0005454004661696C6564206C6F6F70005DF8
:1004E0003A005075626C697368205B002040003BE5
:1004F00050696E3A003B547970653A0049643A009D
:1005000042616420636F6E76657273696F6E2074EA
:1005100079706520666F7220756E697420002040C6
:1005200020003B50696E3A003B547970653A0049AF
:10053000643A00CDCCCC3D0AD7233C17B7D13877ED
:10054000CC2B329595E6241FB14F0A0000803FCD99
:10055000CCCC3D6F12833A95BFD6337D1D9026B328
:10056000CE010C000020410000C84200401C462083
:10057000BCBE4CCA1B0E5AAEC59D74206973206167
:100580006273656E74206F6E207468652062757387
:1005900000556E69743A0043616E27742066696E77
:1005A000642062757320666F7220756E69743A20DC
:1005B0000020497320756E617661696C61626C65BB
:1005C000206F6E207468652062757300556E6974C3
:1005D0003A200054656D70206973206661696C650E
:1005E000643A2000506F7274206E6F7420666F75CD
:1005F0006E64002040003B466163746F723A003BBA
:1006000053657269616C54583A003B536572696175
:100610006C52583A003B53657269616C3A003B5426
:100620007970653A0049643A002040003B73746178
:100630007475733A003B6C684F6E3A003B50696EBC
:100640003A003B547970653A0049643A0020400012
:100650003B7374617475733A003B547970653A006A
:1006600049643A00205472756E6361746564207643
:10067000616C75652073617665642069732027005D
:1006800020202020202020002C202E2E2E292070FB
:10069000617373656420756E7465726D696E6174E3
:1006A000656420627566666572206F662073747279
:1006B0006C656E203E3D004572726F723A20637227
:1006C0006561746553616665537472696E674672DD
:1006D0006F6D436861724172726179280045727270
:1006E0006F723A2063726561746553616665537415
:1006F00072696E6746726F6D4368617250747257AB
:1007000069746853697A65280020496E6974696163
:100710006C2076616C75652061726720776173204B
:100720002700202020202020200020666F722069D2
:100730006E697469616C2076616C75652E002C2081
:100740002E2E2E29206E65656473206361706163AF
:10075000697479206F6620004572726F723A205377
:10076000616665537472696E6728002065786365F9
:1007700065647320617661696C61626C65206D658A
:100780006D6F72792E2052657475726E696E672076
:100790007A65726F20636170616369747920536157
:1007A0006665537472696E672E002C202E2E2E29DA
:1007B00020726571756573742073697A653A0045B6
:1007C00072726F723A2053616665537472696E6714
:1007D00028002C202E2E2E29207761732070617323
:1007E0007365642061204E554C4C20706F696E74A7
:1007F000657220666F7220696E697469616C20761B
:10080000616C75652E004572726F723A2053616695
:1008100065537472696E6728002C202E2E2E2920B5
:10082000776173207061737365642061204E554C4D
:100830004C20706F696E74657220666F72206974E7
:10084000732063686172206172726179004572720F
:100850006F723A2053616665537472696E6728003F
:100860002C202E2E2E292070617373656420612048
:100870007A65726F206C656E677468206172726150
:1008800079004572726F723A2063726561746553C4
:10089000616665537472696E6746726F6D43686115
:1008A00072417272617928002C202E2E2E2C20305D
:1008B000292077617320706173736564207A657293
:1008C0006F2070617373656420666F72206172724D
:1008D00061792073697A65004572726F723A20639C
:1008E000726561746553616665537472696E6746BB
:1008F000726F6D4368617241727261795769746891
:1009000053697A6528002C202E2E2E292073697AAF
:10091000656F662863686172417272617929203D52
:100920003D2073697A656F6628636861722A292E93
:10093000200A436865636B20796F752061726520BA
:1009400070617373696E67206120636861725B5DBB
:1009500020746F20637265617465536166655374BA
:1009600072696E6746726F6D43686172417272613F
:1009700079204F522075736520636861725B355D25
:10098000206F72206C617267657220636C656172A2
:100990002074686973204572726F720A2020546F48
:1009A0002077726170206120636861722A207573FC
:1009B000652065697468657220637265617465534A
:1009C000616665537472696E6746726F6D436861E4
:1009D00072507472282E2E292C2063534650282ED4
:1009E0002E29206F7220637265617465536166659C
:1009F000537472696E6746726F6D436861725074AA
:100A0000725769746853697A65282E2E292C2063E1
:100A100053465053282E2E2029004572726F723A89
:100A20002063534641202F206372656174655361D2
:100A30006665537472696E6746726F6D4368617262
:100A40004172726179280053616665537472696EF0
:100A50006720636C65616E557020646574656374AE
:100A6000656420627566666572206F766572727560
:100A70006E2062792065787465726E616C20636F98
:100A800064652E00206F66203000777269746500FF
:100A90007772697465007D2000207B200020496EFC
:100AA00070757420617267207761732000202020A8
:100AB0002020202000203E2075696E74385F742A43
:100AC00020617267207374726C656E2E00206C65F5
:100AD0006E67746820007772697465007772697454
:100AE00065002077617320706173736564206120F5
:100AF0004E554C4C20706F696E746572007072694F
:100B00006E7400636F6E63617400202700206C6553
:100B10006E3A00206361703A00202D2D2D200020B8
:100B20002020202020200053616665537472696E76
:100B300067002829004572726F723A00636F6E6316
:100B4000617400005EBCE2613FDD83C29C7E20A335
:100B5000FD1F41009D23BE46DB65F88C11AF32CAF4
:100B600057E97400002100240027002A002D0030DE
:100B700000330001010000040107010A0100002206
:100B800000250028002B002E003100340002010057
:100B900000050108010B01000020002300260029A8
:100BA000002C002F003200000100000301060109A3
:100BB0000105050505070508080808020202020AE2
:100BC0000A080804040404010101010101010103F0
:100BD00003030303030303040707070C0C0C0C0CAB
:100BE0000C0C0C0202020206060606060606060B9E
:100BF0000B0B0B0B0B0B0B01021020200808102015
:100C00004010204080020102010804020101020498
:100C10000810204080804020100804020180040257
:100C200001804020100804020108040201010204AE
:100C30000810204080010204081020408000000AB3
:100C40000B02090C0D0E0807030401000000000050
:100C50000000000000000000000000000000000094
:100C60000000000000000000001211100000000051
:100C70000000000000000000000000000000000074
:100C800000000049502041646472657373206973E9
:100C90003A00426F617264204964233A00426F61F6
:100CA00072642069732072656164790046696E69B7
:100CB00073682075706461746520636F6E66696720
:100CC00075726174696F6E004E756D626572206F2A
:100CD0006620636F6E66696720556E6974733D00A8
:100CE000204020003B746172676574547970653AE6
:100CF000003B74617267657449643A003B746172C9
:100D0000676574416374696F6E3A003B6F7269671F
:100D1000696E547970653A003B6F726967696E4914
:100D2000643A003B6576656E743A0049643A002E79
:100D3000204F726967696E206E6F7420666F756EE2
:100D40006400416374696F6E3A002E2054617267CB
:100D50006574206E6F7420666F756E6400416374F5
:100D6000696F6E3A00456E642073756273637269D1
:100D70007074696F6E3A0053756273637269626969
:100D80006E6720556E6974732E2E2E005265616455
:100D900020556E6974732066726F6D204545505200
:100DA0004F4D00546F6F206D616E792061747465D2
:100DB0006D7074206F66204D515454207265636FBE
:100DC0006E6E65637400436F6E66696720696E6955
:100DD000742069732066696E697368656400537571
:100DE0006273637269626520556E69747300436152
:100DF0006E27742063726561746520612074797058
:100E0000656420756E69743A0043616E27742063CF
:100E1000726561746520436F6E746163746F7200F4
:100E200043616E27742063726561746520506F772B
:100E30006572204D6574657220556E69740043615A
:100E40006E277420637265617465204F6E65576903
:100E5000726520546865726D6F6D6574657220559A
:100E60006E69740043616E277420637265617465F6
:100E7000204F6E65576972652062757320556E69E3
:100E8000740043616E27742063726561746520523B
:100E9000656C617920556E69740043616E2774201A
:100EA00063726561746520427574746F6E20556E4F
:100EB0006974005245534554212121007072696EB6
:100EC0007400636F6E6361740020496E70757420E6
:100ED0006172672077617320270020202020202066
:100EE0002000203E20636861722A206172672073AF
:100EF00074726C656E2E00206C656E6774682000DD
:100F000020776173207061737365642061204E5592
:100F10004C4C20706F696E74657200462822002068
:100F2000496E7075742061726720776173200020AC
:100F300020202020202000206368617273206F66CB
:100F40002074686520696E7075742E0020666F725B
:100F50002074686520666972737420005D2900281A
:100F6000692E652E20636861725B00206E65656482
:100F700073206361706163697479206F662000007B
:100F80007E5A11241FBECFEFD1E2DEBFCDBF00E0FD
:100F90000CBF16E0A0E0B2E0E4E4F7ED00E00BBF28
:100FA00002C007900D92AA39B107D9F72BE0AAE940
:100FB000B6E001C01D92A431B207E1F717E0C1EC21
:100FC000D7E000E006C021970109802FFE010E94B2
:100FD0008D67C03CD10780E00807A9F70E94685CD4
:100FE0000C94A06B0C940000CF93DF93EC01FA01FA
:100FF0003296E60FF71FDC019D012C1B3D0BCF0144
:10100000861B970B4D91442311F04193F5CFAC0112
:10101000421B530B640F751FFB01329730836150E5
:101020007109FB012083DF91CF9108958CBD9DBD97
:10103000089508950F931F93CF93DF9300D000D0AE
:101040001F92CDB7DEB78C01FB01342F498342815B
:101050004A8393819B8324812C8385818D831E8287
:10106000430F5527551F490F511D240F352F311D93
:10107000820F932F911D8F83D8018D919C91DC015C
:10108000ED91FC910084F185E02D1995F801A08186
:10109000B181ED91FC911197892B31F00284F38598
:1010A000E02DCD011995E8CF0280F381E02D47E0D6
:1010B00050E0BE016F5F7F4FCD01199527960FB6A7
:1010C000F894DEBF0FBECDBFDF91CF911F910F917E
:1010D0000895E091BB0AF091BC0A3097A9F04091C5
:1010E000BF0A5091C00A30E020E02417350764F4AD
:1010F000A191B19112966D917C9113976817790720
:1011000029F02F5F3F4FF1CFB0E0A0E0CD0108956F
:10111000CF93DF93EB010E946908009751F0DC0147
:10112000ED91FC910288F389E02DBE01DF91CF9112
:101130001994DF91CF910895FC01818D928D0895CE
:10114000DC01ED91FC910190F081E02D1994EF927A
:10115000FF920F931F93CF93DF938C017B01D0E01D
:10116000C0E0F701EC0FFD1F6491662361F0D80128
:10117000ED91FC910190F081E02DC8011995892B2A
:1011800011F02196EECFCE01DF91CF911F910F91FB
:10119000FF90EF900895AF92BF92CF92DF92EF92BF
:1011A000FF920F931F93CF93DF936C017B018B0111
:1011B000040F151FEB015E01AE18BF08C017D10761
:1011C00059F06991D601ED91FC910190F081E02DEB
:1011D000C6011995892B79F7C501DF91CF911F9130
:1011E0000F91FF90EF90DF90CF90BF90AF90089558
:1011F000FC01A089B1898C91A689B78982FD0FC0B5
:101200009C91818D8F5F8F73228D821749F0A18D04
:10121000AE0FBF2FB11D5D969C93818F08958C9169
:101220000895FC01538D448D252F30E0842F90E0EC
:10123000821B930B541710F0CF96089501970895D1
:10124000FC01918D828D981761F0A28DAE0FBF2F9A
:10125000B11D5D968C91928D9F5F9F73928F90E0F0
:1012600008958FEF9FEF0895FC01918D828D98175F
:1012700031F0828DE80FF11D858D90E008958FEF9C
:101280009FEF0895FC01918D228D892F90E0805C65
:101290009F4F821B91098F739927089580E497E0EF
:1012A0000E94420921E0892B09F420E0822F089551
:1012B0008DED97E00E94420921E0892B09F420E09E
:1012C000822F08958AE798E00E94420921E0892B45
:1012D00009F420E0822F089587E199E00E944209F5
:1012E00021E0892B09F420E0822F0895FC01A48DD0
:1012F000A80FB92FB11DA35ABF4F2C91848D90E038
:1013000001968F739927848FA689B7892C93A0891A
:10131000B1898C91837080648C93938D848D9813A4
:1013200006C00288F389E02D80818F7D8083089537
:10133000EF92FF920F931F93CF93DF93EC0181E025
:10134000888F9B8D8C8D98131AC0E889F9898081CC
:1013500085FF15C09FB7F894EE89FF896083E889FF
:10136000F98980818370806480839FBF81E090E0F1
:10137000DF91CF911F910F91FF90EF900895F62E7E
:101380000B8D10E00F5F1F4F0F731127E02E8C8D18
:101390008E110CC00FB607FCFACFE889F98980815D
:1013A00085FFF5CFCE010E947609F1CFEB8DEC0FD2
:1013B000FD2FF11DE35AFF4FF0829FB7F8940B8F7A
:1013C000EA89FB8980818062CFCFCF93DF93EC01E4
:1013D000888D8823B9F0AA89BB89E889F9898C911D
:1013E00085FD03C0808186FD0DC00FB607FCF7CFD9
:1013F0008C9185FFF2CF808185FFEDCFCE010E94D9
:101400007609E9CFDF91CF91089580E090E0892BB4
:1014100029F00E946C0981110E94000080E090E098
:10142000892B29F00E94620981110E94000080E04E
:1014300090E0892B29F00E94580981110E94000038
:1014400080E090E0892B29F00E944E0981110C94D4
:10145000000008958150823108F05AC0E82FF0E072
:101460008827EA5CF54F8F4F0C948D67560A5A0A0D
:10147000480A4E0A520A880A5D0A630A670A6D0A18
:10148000710A750A7B0A7F0A880A830A890A8D0A0B
:10149000809180008F7780938000089580918000F4
:1014A0008F7DF9CF80918000877FF5CF84B58F77CE
:1014B00084BD089584B58F7DFBCF8091B0008F7778
:1014C0008093B00008958091B0008F7DF9CF809116
:1014D00090008F77809390000895809190008F7D89
:1014E000F9CF80919000877FF5CF8091A0008F7712
:1014F0008093A00008958091A0008F7DF9CF809106
:10150000A000877FF5CF809120018F778093200105
:101510000895809120018F7DF9CF80912001877FF0
:10152000F5CFCF93DF93282F30E0F901E35CF34F41
:101530008491F901E950F44FD491F901EF54F44F3B
:10154000C491CC23A1F081110E942A0AEC2FF0E073
:10155000EE0FFF1FE956F44FA591B491EC91ED23E6
:1015600081E090E009F480E0DF91CF91089580E080
:1015700090E0FACF1F93CF93DF93282F30E0F9014B
:10158000E35CF34F8491F901E950F44FD491F901F0
:10159000EF54F44FC491CC23A9F0162F81110E946F
:1015A0002A0AEC2FF0E0EE0FFF1FE358F44FA5914D
:1015B000B4918FB7F894EC91111108C0D095DE2347
:1015C000DC938FBFDF91CF911F910895DE2BF8CF71
:1015D000CF93DF9390E0FC01E950F44F24918F54B6
:1015E000944FFC0184918823D1F090E0880F991FDB
:1015F000FC01ED59F44FA591B491FC01E358F44F6F
:10160000C591D49161110EC09FB7F8948C91E22FCF
:10161000E0958E238C932881E223E8839FBFDF919E
:10162000CF9108958FB7F894EC91E22BEC938FBF94
:10163000F6CF3FB7F8948091EF069091F006A09115
:10164000F106B091F20626B5A89B05C02F3F19F010
:101650000196A11DB11D3FBFBA2FA92F982F882732
:10166000BC01CD01620F711D811D911D42E0660F0D
:10167000771F881F991F4A95D1F708958F929F92DF
:10168000AF92BF92CF92DF92EF92FF926B017C01FB
:101690000E94190B4B015C01C114D104E104F10457
:1016A000B9F00E94190B681979098A099B09683EEB
:1016B00073408105910580F321E0C21AD108E10849
:1016C000F10888EE880E83E0981EA11CB11CE4CFBF
:1016D000FF90EF90DF90CF90BF90AF909F908F9052
:1016E00008952FB7F8946091EB067091EC06809105
:1016F000ED069091EE062FBF0895FC0120812EBDCE
:101700009B012150310941F051810DB407FEFDCFFD
:101710004EB55EBD4193F5CF61507109860F971F9D
:101720000DB407FEFDCF2EB5FC0120830895E09196
:10173000E806F091E90680819091E706892B808385
:101740000895E091E806F091E90690818091E7061E
:1017500080958923808308958EBD00000DB407FE17
:10176000FDCF8EB50895AF92BF92CF92DF92EF92E8
:10177000FF920F931F93CF93DF9300D000D01F925F
:101780001F92CDB7DEB78C017B016A0180913B07C8
:101790008333E1F45801A40EB51EA016B10609F476
:1017A0006FC00E94A10B80EF0E94AC0B812F0E94A2
:1017B000AC0B802F0E94AC0B0F5F1F4FF701819184
:1017C0007F010E94AC0B0E94970BE7CF5B01A40E38
:1017D000B51E8433C1F40E94A10B19830A838D2D99
:1017E00080688B83CC8264E070E0CE0101960E9419
:1017F0007D0BAE14BF0409F441C0F70181917F0154
:101800000E94AC0BF6CF0E94A10B0F3F110509F00F
:1018100028F419820A8384E08B830CC017FD17C05B
:1018200019820A8333E0169507953A95E1F7007E11
:101830000C600B8386E0C816D104A0F5F701DE0129
:101840001496EA15FB0599F081918D93FACFC801A2
:1018500026E0969587952A95E1F7807E19830A837D
:101860000115104C10F48461D7CF8C61D5CFB6012F
:101870006D5F7F4FCE0101960E947D0B0E94970BFA
:10188000C60128960FB6F894DEBF0FBECDBFDF911C
:10189000CF911F910F91FF90EF90DF90CF90BF906D
:1018A000AF90089563E070E0CE0101960E947D0B39
:1018B000F70181917F010E94AC0BAE14BF04C1F708
:1018C000DDCFCF93DF931F92CDB7DEB7898341E0A1
:1018D00050E0BE016F5F7F4F90E080E00E94B30B4D
:1018E0000F90DF91CF91089590E020913B07233333
:1018F00039F40C96982F990F990F990F80E008955D
:101900004896F8CFDA01E091E606F0E0FE2FEE27E8
:10191000E60FF71F90E0982F8827A901BD018E0FD1
:101920009F1F0C94B30BCF93DF931F921F92CDB7E1
:10193000DEB779836A8322E030E0AE014F5F5F4F0C
:1019400060E170E00E94820C0F900F90DF91CF91C8
:101950000895CF93DF931F921F92CDB7DEB779839F
:101960006A8322E030E0AE014F5F5F4F64E070E0D9
:101970000E94820C0F900F90DF91CF910895CF932A
:10198000DF931F92CDB7DEB72091E60630E0322F0D
:101990002227260F371F90E0982F8827498341E0A0
:1019A00050E0BE016F5F7F4F820F931F0E94B30B09
:1019B0000F90DF91CF910895CF93DF931F92CDB712
:1019C000DEB76983DC01ED91FC910280F381E02DAB
:1019D00041E050E0BE016F5F7F4F19950F90DF919E
:1019E000CF910895FC019485FB018485981303C071
:1019F00081E0983008F080E00895CF93DF931F9244
:101A0000CDB7DEB76983DC01ED91FC910280F381F3
:101A1000E02D41E050E0BE016F5F7F4F19950F90C0
:101A2000DF91CF9108950895FF920F931F93CF9365
:101A3000DF93EB01FC01178A168A2A81211109C064
:101A40002B81211106C02C81211103C02D8122235D
:101A500001F141155105E9F08A01FC01F08C80E5A6
:101A600091E00E941608AE014E5F5F4F24E030E027
:101A70006CE070E08F2D0E94820CB8018F2D0E94C7
:101A8000930C81E090E0DF91CF911F910F91FF9037
:101A9000089580E0F7CFFC01848595850895FC01C9
:101AA00084899589089528EC33E0FC0131832083F3
:101AB000FB014089518962897389FC014283538308
:101AC000648375830895DC01ED91FC91048CF58DA0
:101AD000E02D1994DC0180E0615090F09D919827F1
:101AE000E92FEF70F0E0ED5BF44F2491E92FE295E0
:101AF000EF70F0E0ED5AF44FE491822F8E27ECCF97
:101B00000895DC012C911196ED91FC91F89481815E
:101B1000822B81839281322F30959323928387E0A9
:101B200090E00197F1F781818323818383E290E044
:101B30000197F1F790817894EFECF0E03197F1F7AD
:101B4000922381E009F480E00895FC0190810180F6
:101B5000F281E02D292F209560FF14C0F894828136
:101B6000822382838181892B8183A3E2B0E0119754
:101B7000F1F78281982B9283789487ED90E001971A
:101B8000F1F70895F8948281822382838181892BE1
:101B90008183AFEFB0E01197F1F78281982B9283A8
:101BA00078948FE090E0EBCFDF92EF92FF920F936B
:101BB0001F93CF93DF93EC01D62EE42E08E010E0C4
:101BC000FF24F39461E08D2D8F2109F460E0CE01B4
:101BD0000E94A50DFF0C01501109A1F7E11010C0E2
:101BE000F894E981FA8191818881809589238183A4
:101BF000E981FA8192818881809589238283789412
:101C0000DF91CF911F910F91FF90EF90DF9008959A
:101C1000EF92FF920F931F93CF93DF938C017B0181
:101C200040E065E50E94D40DE70188E0E80EF11C74
:101C3000699140E0C8010E94D40DCE15DF05C1F7BF
:101C4000DF91CF911F910F91FF90EF900895FC01CC
:101C500090810180F281E02DF8948181292F2095D7
:101C60008223818378943DE743E050E0315029F1AD
:101C7000DA011197F1F780818923C1F3F894828109
:101C8000822382838181892B81837894ABE7B7E0BB
:101C90001197F1F7F894818182238183A3E1B1E068
:101CA0001197F1F78081982381E009F080E0789422
:101CB000E3E6F6E03197F1F7089580E008956F923A
:101CC0007F928F929F92AF92BF92CF92DF92EF92CC
:101CD000FF920F931F93CF93DF93EC017B018A0157
:101CE0008E819F810E94270E811102C090E037C033
:101CF000B7018E819F810E94080E40E06EEB8E81BD
:101D00009F810E94D40D7801680189E0C80ED11C22
:101D1000AE80BF8088E0882E912C712C662463945D
:101D2000C5010E94810D81117628660CE1E08E1AB2
:101D30009108B1F7F70171927F01EC15FD0541F7AC
:101D40008E819F810E94270E813081F668E0C80154
:101D50000E946A0D91E0F80120852813C7CF892FD2
:101D6000DF91CF911F910F91FF90EF90DF90CF9077
:101D7000BF90AF909F908F907F906F900895CF937A
:101D8000DF9300D000D000D0CDB7DEB7FB012081BB
:101D9000203199F0AE014F5F5F4F0E945F0E8823A4
:101DA00031F08D818F33A9F020F48F31A1F080E0E4
:101DB00007C08F3521F08F37D1F78CE001C08BE061
:101DC00029960FB6F894DEBF0FBECDBFDF91CF913D
:101DD00008958AE0F5CF89E0F3CFCF93DF93FC013C
:101DE000A481B581109721F480E0DF91CF9108950F
:101DF000EC01ED91FC9111970688F789E02DCD015A
:101E0000199581111EC0FE01E156FF4F808191811D
:101E1000892B51F78DEF9FEF918380838C819D817A
:101E2000DC01ED91FC910680F781E02D19958C8104
:101E30009D81DC01ED91FC910488F589E02D1995D7
:101E4000D3CF81E0D2CFCF92DF92EF92FF920F9368
:101E50001F93CF93DF9300D01F92CDB7DEB78C01D5
:101E6000F90180E0DE0111967D019E2F9F77EE0F34
:101E7000EF2FEE1FFF0BF195309709F09068D70117
:101E8000A80FB11D9C938F5F309779F790E0FA010E
:101E9000E81BF90B6483FA01E81BF90B3596D701AF
:101EA000BD016E197F09681779071CF46D91619364
:101EB000F7CFFC013196D80114968D919C917F014A
:101EC000E20EF31EBA016E1B7F0B6B5F7F4FDC01CE
:101ED000ED91FC910280F381E02DA70119956C0131
:101EE0000E94710BF801E857FF4F60837183828372
:101EF000938381E0EC14FD0409F080E00F900F90D3
:101F00000F900F90DF91CF911F910F91FF90EF9065
:101F1000DF90CF900895EF92FF920F931F93CF938E
:101F2000DF93EC018B017A010E94710BFE01E857EF
:101F3000FF4F60837183828393838C819D81DC0159
:101F4000ED91FC910280F381E02DA701B801DF91B2
:101F5000CF911F910F91FF90EF9019941F93CF9302
:101F6000DF93EC01162F0E94710BFE01E857FF4F23
:101F700060837183828393838C819D81DC01ED91E9
:101F8000FC910190F081E02D612FDF91CF911F91A5
:101F90001994CF92DF92EF92FF920F931F93CF93FA
:101FA000DF93EC018B010E94710B6B017C018C8132
:101FB0009D81DC01ED91FC910084F185E02D199566
:101FC000892B69F40E94710B6C197D098E099F0998
:101FD00068397A438105910550F380E00CC08C810B
:101FE0009D81DC01ED91FC910284F385E02D199532
:101FF000F801808381E0DF91CF911F910F91FF90D5
:10200000EF90DF90CF9008952F923F924F925F9282
:102010006F927F928F929F92AF92BF92CF92DF92F8
:10202000EF92FF920F931F93CF93DF931F921F9214
:10203000CDB7DEB78C014B016C0126E0C20ED11C7E
:10204000B6010E94C90F811118C0F12CE12CC70103
:102050000F900F90DF91CF911F910F91FF90EF9014
:10206000DF90CF90BF90AF909F908F907F906F90B8
:102070005F904F903F902F900895D8011696BC9195
:10208000BA8319821801E7E02E0E311CEE24E39486
:10209000F12CB12CA12C412C512C32014394BE01C6
:1020A0006F5F7F4FC8010E94C90F882371F2B7018B
:1020B0006F5F7F4F8981F10181931F01282F2F7757
:1020C00030E0249DA001259D500D349D500D11241C
:1020D000A40EB51E27E0440C551C661C771C2A95DF
:1020E000D1F787FD35C0FA81F07FFA838FEF860F35
:1020F000D4018C93F03309F043C06C0D7D1DC801F1
:102100000E94C90F882309F4A0CFB7016E5F7F4FEB
:102110006C0D7D1DC8010E94C90F882309F495CF5D
:10212000B7016D5F7F4FD401EC91E00FF12FF11DEE
:10213000C780D12CDC2CCC248085C80ED11CF801A2
:10214000868181FF03C0F2E0CF0ED11C82E01BC06C
:102150007B016530710509F0A2CFF801E156FF4F10
:102160008FEF9FEF91838083D80114968D919C917E
:10217000DC01ED91FC910488F589E02D199565CF7E
:1021800080E0D12CC12C482E512C7B01461A570AD5
:1021900018012DE9220E311C8EEF682E77247A94D7
:1021A000C2018E0D9F1D8A159B0588F5BE016F5FCC
:1021B0007F4FC8010E94C90F882309F446CFD1017F
:1021C0008D919C910097B1F0BA81B03399F4F401EC
:1021D0002081A301421B51099A012E0D3F1DC216F9
:1021E000D30640F4DC01ED91FC910190F081E02DEB
:1021F00069811995B0E8EB16F10428F48981F8019A
:10220000EE0DFF1D8683EFEFEE1AFE0AC9CFF8012F
:10221000E356FF4F80819181892B09F018CFF1E8B7
:10222000EF16F10408F011CF12CF2091E2063091A1
:10223000E3062817390771F49091E1068091E006D2
:10224000981741F0E091E106F0E0E056F94F808107
:1022500090E008958FEF9FEF0895EF92FF920F9314
:102260001F93CF93DF93DC015C96ED90FC905D971C
:10227000E114F10479F481E090E013969C938E933D
:10228000129790E080E0DF91CF911F910F91FF9026
:10229000EF9008955196ED91FC91529750968C9144
:1022A0005097982F90950FB75E962C915E97122FAE
:1022B000127021FD6095F8942081112319F1282BCB
:1022C0002083E7012197F1F728E0462F50E0308185
:1022D00060FF1AC0382B3083E7012197F1F7BA016C
:1022E00075956795215089F7112381F080818923A5
:1022F00080830FBF5C968D919C910197F1F781E0EF
:1023000090E0C1CF2923DCCF3923E5CF9081892B01
:10231000EFCF2091E2063091E3062817390771F4D8
:102320008091E0062091E10690E0805C9F4F821B47
:10233000910960E470E00E947967089590E080E080
:1023400008952091E2063091E30628173907B9F481
:102350009091E1068091E006981789F0E091E106FE
:10236000F0E0E056F94F80812091E10630E02F5FE8
:102370003F4F2F7333272093E10690E008958FEFAE
:102380009FEF0895CF93DF93FC01828D938D892B6E
:1023900041F1A091E206B091E306AE17BF0709F143
:1023A000109751F05396CD91DC91549798815596A2
:1023B0008C91809589238883868D8E7F868F10925D
:1023C000E0061092E106F093E306E093E206A389AB
:1023D000B4898C919589892B8C9381E0DF91CF9181
:1023E000089580E0FBCF4F925F926F927F928F9221
:1023F0009F92AF92BF92CF92DF92EF92FF920F9394
:102400001F93CF93DF9300D000D01F92CDB7DEB7DC
:102410006C01E62E8A01DC0112968C9112978823BA
:1024200021F08D919C910E94C2110E94710B4B0171
:102430005C01F12CB6E0BF1598F10E94710B681990
:1024400079098A099B09F60143805480658076806A
:10245000641575058605970530F580819181DC014D
:10246000ED91FC910084F185E02D1995181619065F
:102470000CF7F60180819181DC01ED91FC910284E1
:10248000F385E02D1995811102C0FF20B1F2E1E042
:10249000F0E0EC0FFD1FEF0DF11D8083F394CACF28
:1024A000B7E0FB1611F080E01CC049818A81840FDF
:1024B0009927991F2B81820F911D2C81280F392F6D
:1024C000311D8D81280F311D8E81820F932F911D1B
:1024D0009F819813E8CFE412E6CF01151105C1F4EE
:1024E00081E027960FB6F894DEBF0FBECDBFDF9117
:1024F000CF911F910F91FF90EF90DF90CF90BF9001
:10250000AF909F908F907F906F905F904F900895C5
:10251000DE011196F80198012B5F3F4F1196E217EB
:10252000F307F1F28C918193F9CF809100029091A1
:102530000102DC01ED91FC910680F781E02D1994F8
:102540008091000290910102DC01ED91FC910280EA
:10255000F381E02D19948091000290910102DC0139
:10256000ED91FC910190F081E02D1994089590E097
:1025700080E0089590E080E00895FB01228133819E
:10258000FC0133832283FB012481FC012483089511
:102590000895DC01FB01309711F184818235F9F453
:1025A00012962D913C9113978281938128173907B8
:1025B000B1F414968C911497823589F416969C91F7
:1025C0001697868198130BC017969C911797878151
:1025D000981305C081E015962C919581291380E010
:1025E0000895CF93DF93EC0161E08E810E94E80AA9
:1025F00061E070E08D81813011F070E060E0E88191
:10260000F9810288F389E02DCE01DF91CF911994F1
:10261000FC0115820895DC01FB01309761F1848192
:10262000803549F512962D913C91139782819381C3
:102630002817390701F514968C9114978035D9F431
:1026400017969C9117978781981315C018969C919F
:102650001897808598130FC016969C9116978681BF
:10266000981309C081E019964D915C9121853285BE
:102670004217530709F080E008950895089587E010
:102680000895089580E008958F929F92AF92BF922F
:10269000CF92DF92EF92FF920F931F93CF93DF932E
:1026A0008C01DC015296CD90DD90ED90FC90559719
:1026B000B0EDCB0EB7E0DB1EE11CF11C0E94710BEC
:1026C000C616D706E806F90608F056C0D801509697
:1026D000ED91FC91C385D4858E819F810E94270E48
:1026E00040E06CEC8E819F810E94D40D488164E4AF
:1026F0008E819F810E94D40D8A81882371F1E981A6
:10270000E9508EEEC82E82E0D82EE33038F4F0E0A7
:10271000EE0FFF1FE05DFD4FC080D1808B818823CD
:10272000C1F18881811135C00E94710B4B015C01A0
:102730000D2C000CEE08FF088E819F810E94810DF8
:10274000813059F00E94710B6C197D098E099F0927
:10275000681579058A059B0578F3D801ED91FC9100
:10276000048CF58DE02DC80119950E94710BF801BC
:10277000628B738B848B958BDF91CF911F910F911F
:10278000FF90EF90DF90CF90BF90AF909F908F9091
:102790000895B601DD0C880B990B0E943E0BDDCF2E
:1027A0000895DC01FB013097B1F08481813399F405
:1027B00012962D913C9113978281938128173907A6
:1027C00051F414968C911497813329F481E0169674
:1027D0002C919681291380E0089590E080E008957F
:1027E0000895DC01FB013097E1F084818334C9F462
:1027F00012962D913C911397828193812817390766
:1028000081F414968C911497833459F416969C9104
:1028100016978681981305C081E017962C919781B1
:10282000291380E00895FC01108611861286138614
:1028300015820895089580339CF08A3324F08F35F3
:1028400024F08B3724F481E0089581344CF08B35EB
:10285000D4F393ED980F81E09230B0F380E00895C7
:102860008B32B9F7F0CFFC01848581110AC0A185B4
:10287000B285CD010196928781878C91838781E013
:102880008487838508951F93CF93DF93EC01162FE0
:102890000E943314811306C01C8681E0DF91CF9122
:1028A0001F91089580E0FACFCF93DF93EC01CE0122
:1028B0000E9433148B303CF489304CF4882349F067
:1028C00081E0888710C08D3011F08032C9F71C86F6
:1028D000EECF888581110AC081E090E0C15BDF4FB7
:1028E0009983888380E0DF91CF91089582E090E022
:1028F000F5CFFC01892B41F094819F779450923061
:1029000018F480819181089590E080E00895FC01A1
:1029100085859F01275F3F4F85FD02C030E020E0A5
:10292000B901CF010895FC010E96918380839383B2
:102930008283805C994F95838483978386831086F6
:10294000858580788587089584E008958BE00895D3
:1029500083E0089585E0089580E00895089508953E
:1029600080E00895FC01828193810097C1F0248169
:102970003581468157812417350740F01382128232
:102980000190F081E02D81E080870895A9014F5FDB
:102990005F4F55834483820F931FFC01608308952A
:1029A0009F92AF92BF92CF92DF92EF92FF920F93DE
:1029B0001F93CF93DF9300D01F921F92CDB7DEB746
:1029C0008C010E943314D82EF8011486F12CE12CCE
:1029D00070EFC72EC8010E943314F8011486D81670
:1029E00009F4C1C0811119C0F801E15BFF4F82E019
:1029F00090E09183808380E00F900F900F900F9074
:102A00000F90DF91CF911F910F91FF90EF90DF908A
:102A1000CF90BF90AF909F9008958C3509F09EC0E5
:102A2000C8010E9433148823F9F2EAECF3E08537F9
:102A300009F088C0F801148664E0962EB12CA12C10
:102A4000C8010E943314882379F281344CF48053F6
:102A5000803148F0F801E15BFF4F83E090E0C9CF9F
:102A60008F7D8753F5CF54E0AA0CBB1C5A95E1F734
:102A7000A82AF80114869A949110E2CFC501985DB6
:102A80008115944020F4750123E0F222A3CFC50103
:102A90009C5D8115944008F5F3E0BF22C701982F93
:102AA0008827990F990F8A299B29B0E0A0E01196F9
:102AB000198280389105A105B10598F48A835E01D9
:102AC00023E0A20EB11CF50162915F01662309F4B7
:102AD00081CFC8010E94B214F6CFC501B0E0A0E0DA
:102AE000E7CF282F2F7320682A8336E0B695A79565
:102AF000979587953A95D1F78032910538F4806C97
:102B00008B835E0184E0A80EB11CDDCF282F2F73CC
:102B100020682B8326E0969587952A95E1F78031EA
:102B2000910538F4806E8C835E01E5E0AE0EB11C39
:102B3000CACF80688C83CD825E01F6E0AF0EB11CF7
:102B4000C2CF32969081992309F484CF8913F9CFAB
:102B50008181882309F47ECFF8011486682FC8018B
:102B60000E94B21437CF60E0C8010E94B214F8018D
:102B700082819381892B29F4E15BFF4F84E090E00F
:102B800038CF81E039CFEF92FF920F931F93CF930D
:102B9000DF93DC01ED90FC90E7012A813B81E88125
:102BA000F981E217F30780F4B901DF01EB014991E4
:102BB000BE018D010F5F1F4F5C91451318C0D801F6
:102BC0004111F4CF309759F4FC0184819581820F33
:102BD000931FD70113969C938E931297F901CF01FF
:102BE000DF91CF911F910F91FF90EF900895FD011C
:102BF0004191DF014111FBCFD4CFCF93DF93DC01B3
:102C0000EB01EC81FD818A819B810896E817F90729
:102C100040F481E08887F0E0E0E0CF01DF91CF91E0
:102C200008953897FD83EC833097B9F31296CD91D0
:102C3000DC911397209791F0CF018C1B9D0B23E023
:102C4000959587952A95E1F78D831396FC93EE93DE
:102C500012971582148217821682DFCF1196FC9389
:102C6000EE93F3CFFC01768765870895DC01ED9143
:102C7000FC91068CF78DE02D199591E08927089538
:102C8000862F089581E08627089521E0FC01848540
:102C9000883008F020E0822F08950895CF93FC013A
:102CA000892B91F094819F77983029F078F49923BB
:102CB00059F0963079F4C1E080819181A281B3818D
:102CC000892B8A2B8B2B39F4C0E005C09A3099F3FD
:102CD0009C3021F0C1E08C2FCF910895C1E020E01D
:102CE00030E0A90160817181828193810E944E62EE
:102CF0008111F1CFE9CFDC01FB013097E1F0848154
:102D00008234C9F412962D913C911397828193815C
:102D10002817390781F414968C911497823459F44A
:102D200016969C9116978681981305C081E0179698
:102D30002C919781291380E00895FC011386148655
:102D4000158616861086158208954F925F926F92AF
:102D50007F928F929F92AF92BF92CF92DF92EF922B
:102D6000FF920F931F93CF93DF93EC017B01888138
:102D70008B32C1F18D32B9F5219611E0888190ED49
:102D8000980F9A3018F08E3209F03AC160E070E086
:102D9000CB01FE01219100ED020F0A3030F56A39B6
:102DA00029E97207820729E1920708F045C0AAE0E5
:102DB000B0E09B01AC010E943D66802E912CB12CAD
:102DC000A12C2401350140945094609470944616CF
:102DD00057066806790680F1680D791D8A1D9B1DCE
:102DE000EF01D7CF219610E0C9CF211125C0F701FF
:102DF000248120781123C1F02A60248360837183A9
:102E000082839383812FDF91CF911F910F91FF9048
:102E1000EF90DF90CF90BF90AF909F908F907F907A
:102E20006F905F904F900895286024836083718332
:102E30008283938311E0E6CF00E0EAE08E2E912CAE
:102E4000A12CB12C61157105F0E88F07910540F0B8
:102E5000A50194010E94FC65CA01B9010F5FF2CF80
:102E6000FE01299130ED320F3A3010F40F5FF8CFA8
:102E70002E32F1F4EF012196FE012196208150EDD2
:102E8000D52ED20E29E02D1598F06C3CECEC7E0787
:102E9000ECE08E07910580F7AAE0B0E09B01AC0161
:102EA0000E943D666D0D711D811D911D0150E4CF85
:102EB00020812F7DD0E0C0E0253409F05DC0218164
:102EC0002D32D9F53296CC24C394DF01D0E0C0E096
:102ED000202F002E000C330B4AE0B42EFD01DD90B4
:102EE00040ED4D0D4A3008F042C0BC9EA001BD9E91
:102EF000500D1124CD2DDD0CDD0BE097C40FD51F37
:102F0000AE01420F531F4732510544F3F70184814C
:102F1000CC20D1F040E050E060E070E8111103C037
:102F200040E050E0BA0180788C60F70184834083F0
:102F30005183628373831C2D65CF2B3219F0319638
:102F4000C12CC3CF3296FCCF40E050E060E87FEF69
:102F5000111104C040E050E060E87FE780788C60A9
:102F6000F7018483408351836283738363CFCC20D2
:102F700019F0D195C195D1092081211141C0C00F0F
:102F8000D11D07FDDA950E9453621C161D0604F53B
:102F900000E0C0FF0CC024E0029FF0011124ED59B5
:102FA000FA4F25913591459154910E94B462D5957F
:102FB000C7950F5F209769F711119058F701248189
:102FC00020782C602483608371838283938332CF43
:102FD000D195C195D10900E0209771F3C0FF0CC0D5
:102FE00024E0029FF0011124ED5CFA4F2591359108
:102FF000459154910E94B462D595C7950F5FECCF6F
:1030000010E000CFCF92DF92EF92FF92CF93DF9349
:1030100000D01F921F92CDB7DEB7DC0114969C91B1
:1030200014979F77963071F0FD01973028F4943013
:1030300070F590E080E011C09A30D9F09C30A1F199
:103040009830B9F78D919D910D90BC91A02D81156F
:1030500020E89207A105B10560F70F900F900F903F
:103060000F900F90DF91CF91FF90EF90DF90CF9076
:10307000089580819181A281B381813020E89207F7
:10308000A105B105B0F6919581959109E6CF8081B2
:1030900091811D82BE016F5F7F4F0E94A516CE01F8
:1030A00001960E940218D9CFC080D180E280F380BF
:1030B00020E030E040E057ECC701B6010E947467A1
:1030C00087FDB7CF20E03EEF4FEF56E4C701B601D2
:1030D0000E944E6218160CF4ACCFC701B6010E94D4
:1030E0003E67CB01BACFCF92DF92EF92FF92CF93A0
:1030F000DF9300D01F921F92CDB7DEB7FC01948101
:103100009F77963039F128F49430C8F590E080E04C
:103110002AC09830F9F09C30C9F7C080D180E28095
:10312000F38020E030E0A901C701B6010E94746776
:1031300087FDECCF20E03FEF4FE757E4C701B60132
:103140000E944E62181614F3C701B6010E9445672B
:10315000CB0109C080819181A281B381009721E0D8
:10316000A207B10598F60F900F900F900F900F9057
:10317000DF91CF91FF90EF90DF90CF900895808105
:1031800091811D82BE016F5F7F4F0E94A516CE0107
:1031900001960E947318E7CFCF92DF92EF92FF92D1
:1031A000CF93DF9300D01F921F92CDB7DEB7FC0103
:1031B00094819F77963031F120F49430C8F580E007
:1031C0002BC09830F9F09C30D1F7C080D180E280DC
:1031D000F38020E030E0A901C701B6010E947467C6
:1031E00087FDEDCF20E030E04FE753E4C701B601A3
:1031F0000E944E6218161CF3C701B6010E94456773
:10320000862F0AC080819181A281B3818F3F910571
:10321000A105B10509F098F60F900F900F900F904F
:103220000F90DF91CF91FF90EF90DF90CF900895B6
:10323000808191811D82BE016F5F7F4F0E94A51624
:10324000CE0101960E94CC18E7CF009711F00C94A4
:10325000CC1880E00895BF92CF92DF92EF92FF9258
:103260000F931F93CF93DF93EC01B62EC72E8D855E
:10327000811105C0CE010E94270E81110EC01B8650
:103280001D861C8680E0DF91CF911F910F91FF90EA
:10329000EF90DF90CF90BF90089540E060EFCE01B7
:1032A0000E94D40D01E0E12CD12C11E0CE010E944E
:1032B000810DF82ECE010E94810D91E0F91218C007
:1032C000813099F51134D8F2DB86D11002C081E04B
:1032D0008D878B81882399F22396EB2DFC2DCF01CE
:1032E000089629912193E817F907D9F781E0CBCF08
:1032F000EE2DF0E0F8120FC08B851817A0F4DE0158
:10330000AE0FBF1F13968C91802379F4F12C1930E6
:1033100008F41C87D12EEC0FFD1F8381902F909510
:10332000892383830AC08113F1CFFE01EE0DF11DC5
:103330008381802B8383FF24F3946F2DCE010E9421
:10334000A50D1F5F000F11F4E39401E087E08E15D7
:1033500008F0ACCFB7CF0C94BB5FFC0180819181AA
:10336000009711F00C94BB5F08950C94BB5F0C9414
:10337000BB5F0C94BB5F0C94BB5F0C94BB5F0C9465
:10338000BB5FFF920F931F93CF93DF93F82E809133
:10339000BD0A9091BE0A0F2D10E0892BC9F0D0E034
:1033A000C0E08091BD0A9091BE0AC017D10774F4A5
:1033B0009E01220F331F820F931FFC018081918198
:1033C000009711F00E94BB5F2196EBCF0E94BB5F7C
:1033D000F11012C01092BE0A1092BD0A1093C20AD8
:1033E0000093C10A8091BD0A9091BE0ADF91CF91EE
:1033F0001F910F91FF900895C801880F991F0E9497
:103400001F5F9093BE0A8093BD0AE8CF1F93CF93AE
:10341000DF93182F8091BB0A9091BC0A892B11F180
:10342000D0E0C0E08091BB0A9091BC0A2091BF0A15
:103430003091C00AC217D3079CF49E01220F331F9C
:10344000820F931FDC018D919C91009739F0DC0174
:10345000ED91FC910688F789E02D19952196E2CF30
:103460000E94BB5FC12FD0E0111110C01092BC0AA6
:103470001092BB0AD093C00AC093BF0A8091BB0AC6
:103480009091BC0ADF91CF911F910895CE01880FD2
:10349000991F0E941F5F9093BC0A8093BB0AEACFDA
:1034A000AF92BF92CF92DF92EF92FF920F931F9352
:1034B000CF93DF93CDB7DEB7C456D1090FB6F894DA
:1034C000DEBF0FBECDBFD62EC72E5A019F938F935E
:1034D0001F9280E58F930BED13E01F930F938DEDFB
:1034E00093E09F938F9382EF93E09F938F93CE010E
:1034F00001967C019F938F930E94CA680FB6F8943F
:10350000DEBF0FBECDBF92E0A916B10489F183E002
:10351000A816B104A1F1AA94AB2819F11F930F9337
:10352000FF92EF928DEF93E09F938F93CF92DF9274
:103530000E94CA680FB6F894DEBF0FBECDBFCC594B
:10354000DF4F0FB6F894DEBF0FBECDBFDF91CF9136
:103550001F910F91FF90EF90DF90CF90BF90AF90B1
:1035600008951F930F93FF92EF9289E094E0DCCFD0
:103570001F930F93FF92EF9285E194E0D5CF1F93B5
:103580000F93FF92EF928FE194E0CECF0F931F93B2
:10359000CF93DF93EC0188819981009759F02A81BC
:1035A0003B812617370730F081E0DF91CF911F91E3
:1035B0000F9108958B016F5F7F4F0E94A96700975D
:1035C00059F0998388831B830A832C813D81232BA7
:1035D00059F7FC011082E8CF80E0E7CFEF92FF922D
:1035E0000F931F93CF93DF93EC017B018A01BA0104
:1035F0000E94C61A28813981811114C02115310514
:1036000019F0C9010E94BB5F198218821D821C82B9
:103610001B821A82CE01DF91CF911F910F91FF90F3
:10362000EF9008951D830C83B701C9010E94B5680E
:10363000F1CFFB0101900020E9F73197AF01461B64
:10364000570BDC01ED91FC910280F381E02D199480
:103650008F929F92AF92BF92EF92FF920F931F9320
:10366000CF93DF93CDB7DEB7A1970FB6F894DEBF47
:103670000FBECDBF7C01FA01CB0119A2223008F4A4
:103680002AE08E010F5D1F4F822E912CB12CA12CB0
:10369000BF01A50194010E94FC65F901CA016A30CD
:1036A0000CF5605DD8016E938D01232B242B252B07
:1036B00079F790E080E0109721F0BD01C7010E94EA
:1036C000191BA1960FB6F894DEBF0FBECDBFDF91D8
:1036D000CF911F910F91FF90EF90BF90AF909F906F
:1036E0008F900895695CDECFAB0170E060E02AE066
:1036F0000C94281B8F929F92AF92BF92CF92DF9231
:10370000EF92FF920F931F93CF93DF937C018B0176
:103710006C0182E0C80ED11C4701E5E08E0E911CC1
:10372000D0E0C0E0F60141916F0150E070E060E050
:103730002AE0C8010E94281B5C016EE2C8010E94B9
:10374000A0088A0D9B1DC80FD91FC814D90451F7B2
:10375000F701458150E070E060E02AE0C8010E9476
:10376000281B8C0F9D1FDF91CF911F910F91FF9010
:10377000EF90DF90CF90BF90AF909F908F90089583
:103780006AE274E00C94191BCF93DF93D0E0C0E0A1
:10379000009731F0BC0187E199E00E94191BEC0110
:1037A00087E199E00E94C01B8C0F9D1FDF91CF9194
:1037B00008956115710511F00C94191B90E080E0DB
:1037C0000895CF93DF93EC0180913E0790913F07DE
:1037D0000097B1F060E20E94A0086E857F8580911D
:1037E0003E0790913F076115710521F0DF91CF9160
:1037F0000C94D91B67E27BE0DF91CF910C94A70872
:10380000DF91CF9108950F931F93CF93DF938C0196
:1038100080913E0790913F07009711F1EB0165E31E
:103820007BE00E94A708C8010E94E11B6EE2809124
:103830003E0790913F070E94A008BE0180913E077D
:1038400090913F070E94A70862E37BE080913E07CA
:1038500090913F07DF91CF911F910F910C94A70892
:10386000DF91CF911F910F9108956CE37BE00C9451
:10387000031C1F93CF93DF93EC0180913E0790913F
:103880003F07009709F464C0162F69E17BE011231C
:1038900041F00E94C01B6FE17BE080913E07909158
:1038A0003F070E94A7088E859F85892B79F060E2EB
:1038B00080913E0790913F070E94A0086E857F850A
:1038C00080913E0790913F070E94D91B63E17BE006
:1038D00080913E0790913F070E94A70868857985EF
:1038E00080913E0790913F070E94741B6DE07BE042
:1038F00080913E0790913F070E94A7086A857B85CB
:1039000080913E0790913F070E94741B1123B9F0EC
:103910006AE07BE080913E0790913F070E94A708F4
:103920006E817F8180913E0790913F070E94D91B55
:1039300067E280913E0790913F070E94A008809126
:103940003E0790913F07DF91CF911F910C94C01BD0
:10395000DF91CF911F910895AF92BF92CF92DF92E6
:10396000EF92FF920F931F93CF93DF93E0913E0767
:10397000F0913F07EF2B09F4ADC059016A01EC014A
:103980000E94031C6BE67FE080913E0790913F0709
:103990000E94A708B60180913E0790913F070E94C0
:1039A000741B8C858823C9F06FE57FE080913E070A
:1039B00090913F070E94A708B6016F5F7F4F8091EB
:1039C0003E0790913F070E94741B6CE57FE0809159
:1039D0003E0790913F070E94A708E114F104B9F057
:1039E0006CE47FE080913E0790913F070E94A7081A
:1039F000B70180913E0790913F070E94741B67E3D7
:103A00007FE080913E0790913F070E94A708809138
:103A1000040260E08823B1F180913E0790913F0756
:103A20000E94C01B6FE27FE080913E0790913F07AC
:103A30000E94A708A114B10419F40115110501F1A0
:103A40006FE17FE080913E0790913F070E94A708B9
:103A5000A114B10421F167E280913E0790913F07E4
:103A60000E94A008B50180913E0790913F070E94F7
:103A7000D91B67E280913E0790913F070E94A00802
:103A800060910402CE01DF91CF911F910F91FF90C1
:103A9000EF90DF90CF90BF90AF900C94391C011540
:103AA000110571F36BE17FE080913E0790913F0734
:103AB0000E94A708B80180913E0790913F070E949D
:103AC000A7086DE274E080913E0790913F070E9445
:103AD000D91BD6CFDF91CF911F910F91FF90EF901F
:103AE000DF90CF90BF90AF900895CF93DF93FC010C
:103AF0008485882379F120853185A681B781A20F3D
:103B0000B31F232B29F19C91992311F191E0958703
:103B10001C92C681D781DE010D900020E9F7119734
:103B2000AC1BBD0BB387A2878823A1F080913E0711
:103B300090913F07009771F0EF0167E47AE00E94EF
:103B4000A70860910402CE01DF91CF910C94391C3B
:103B500080E0DECFDF91CF910895AF92BF92CF92F8
:103B6000DF92EF92FF920F931F93CF93DF93EC01BD
:103B70006B017A010E94751DC114D10421F581E009
:103B80008D8780913E0790913F07892B81F0CE0170
:103B90000E94351C60E07FE080913E0790913F07D6
:103BA0000E94A70860910402CE010E94391CCE0138
:103BB000DF91CF911F910F91FF90EF90DF90CF9009
:103BC000BF90AF900895E114F10489F3F60190E0FD
:103BD00080E02191222321F00196E816F906C8F72A
:103BE0008E159F0508F04CC081E08D8780913E07BF
:103BF00090913F07892BD9F2CE010E94351C67EFC7
:103C00007EE080913E0790913F070E94A708B70190
:103C100080913E0790913F070E94741B62EE7EE008
:103C200080913E0790913F070E94A708809104026F
:103C3000882309F4B7CF80913E0790913F070E94F7
:103C4000C01B6AED7EE080913E0790913F070E9485
:103C5000A70869EC7EE080913E0790913F070E94A3
:103C6000A708B60180913E0790913F070E94D91B9B
:103C700067E280913E0790913F070E94A00892CF93
:103C80008A859B855C01AE0CBF1C288539852A1569
:103C90003B0560F481E08D8710E000E09601A5010E
:103CA00062EC7EE0CE010E94AC1C81CF2E813F8170
:103CB000A701B601820F931F0E949368BB86AA8654
:103CC0008E819F81A80EB91EF501108270CF0F93CF
:103CD0001F93CF93DF938C01EB01CB010E94751DE5
:103CE0004A855B856E817F81C801DF91CF911F91ED
:103CF0000F910C94AD1D0F931F93CF93DF93EC01A5
:103D00008B010E94751D01151105F1F481E08D876D
:103D100080913E0790913F07892B81F0CE010E9450
:103D2000351C62EE7AE080913E0790913F070E9439
:103D3000A70860910402CE010E94391CCE01DF91D8
:103D4000CF911F910F910895F80101900020E9F79C
:103D50003197AF01401B510BB801CE01DF91CF91DC
:103D60001F910F910C94AD1DCF93DF93EC018A81CD
:103D70009B810E947B1ECE01DF91CF9108950F930E
:103D80001F93CF93DF93EC018B010E94751D6E8111
:103D90007F816115710539F0C801DF91CF911F91C5
:103DA0000F910C94191B90E080E0DF91CF911F914F
:103DB0000F9108950F931F93CF93DF938C0166307B
:103DC00071056CF4DC011296CD91DC91CE010E945C
:103DD000751D81E08C878E819F810E94C41BD80154
:103DE0001296ED91FC91138612860680F781E02DE4
:103DF0001082DF91CF911F910F9108958F929F9222
:103E0000AF92BF92CF92EF92FF920F931F93CF93F7
:103E1000DF93EC0159011D821C828CE492E09983AE
:103E2000888388E592E09B838A831D861F870E879F
:103E3000EC861C8A4115510509F4C2C121153105D2
:103E400029F0FF24F3944217530709F0F12CEE20D8
:103E5000E9F1C1103BC062307105A1F58FE996E030
:103E60009F838E8382E090E0998788871B861A86DD
:103E700010929F0681E08D8780913E0790913F07C9
:103E8000009709F4E1C06AE17AE00E94A708CE0138
:103E90000E94E11B66E079E080913E0790913F0728
:103EA0000E94A70860910402CE01DF91CF911F917B
:103EB0000F91FF90EF90CF90BF90AF909F908F9019
:103EC0000C94391C4115510509F47CC15F834E8364
:103ED000CB0101978E3F9F4F08F467C0EE2009F495
:103EE00047C0CC2009F444C0672BE9F48FE996E081
:103EF0009F838E83198618861B861A8610929F06CA
:103F000081E08D8780913E0790913F07009709F4EB
:103F10009BC068ED78E00E94A708CE010E94E11BDB
:103F200068EA78E0B9CFFA0101900020E9F731970B
:103F3000E41BF50BF987E887F11004C01B861A868D
:103F4000FA011082A114B104D9F581E08D87809126
:103F50003E0790913F07009709F476C066E078E04D
:103F60000E94A708CE010E94E11B62ED77E094CF8A
:103F70008FE996E09F838E83198618861B861A86A2
:103F800010929F0681E08D8780913E0790913F07B8
:103F9000009709F459C062E878E00E94A708CE01B2
:103FA0000E94E11B60E678E077CF6F3F8FE77807EC
:103FB00010F06EEF7FE76150710979876887BCCF99
:103FC00088849984C4010E941F5F8C010E94BB5F9A
:103FD000012B09F045C081E08D871B861A86EE8192
:103FE000FF81108280913E0790913F07009731F149
:103FF0006FEB77E00E94A708CE010E94E11B6AEAFE
:1040000077E080913E0790913F070E94A70868855E
:10401000798580913E0790913F070E94741B6BE663
:1040200077E080913E0790913F070E94A70819868C
:10403000188660910402CE010E94391C8FE996E037
:104040009F838E8319861886DF91CF911F910F91E0
:10405000FF90EF90CF90BF90AF909F908F9008957A
:10406000F50110E000E08191882309F491C00F5F11
:104070001F4F80169106B8F7FF2041F09B868A8675
:104080008E819F81880E991EF401108281E08D87B8
:1040900080913E0790913F070097B1F2F11048C020
:1040A00068E577E00E94A708CE010E94E11B6EE35D
:1040B00077E080913E0790913F070E94A708B801E2
:1040C00080913E0790913F070E94741B6AE277E05F
:1040D00080913E0790913F070E94A70880910402BB
:1040E000882309F4DFCE80913E0790913F070E941C
:1040F000C01B62E277E080913E0790913F070E94EB
:10410000A70869E077E080913E0790913F070E9401
:10411000A708B50180913E0790913F070E94D91BE7
:1041200067E280913E0790913F070E94A008BACEB7
:104130006DED76E0C11002C067EB76E00E94A70843
:10414000CE010E94E11B68E876E080913E079091E5
:104150003F070E94A708B80180913E0790913F0752
:104160000E94741B80910402882309F49BCE8091E5
:104170003E0790913F070E94C01B60E876E0809167
:104180003E0790913F070E94A70864E676E0BBCF08
:10419000F11006C0A801B5018E819F810E9493682D
:1041A0001B870A878E819F81080F191FF8011082D3
:1041B000EE81FF8188859985E80FF91F108244CF31
:1041C000E1101DC08FE996E09F838E8319861886C3
:1041D0001B861A8610929F0681E08D8780913E078C
:1041E00090913F07009709F42FCF6DE478E00E948B
:1041F000A708CE010E94E11B69E178E04DCEC11015
:10420000E1CF62307105F1F629CE4F925F926F9245
:104210007F92AF92BF92CF92EF92FF920F931F9334
:10422000CF93DF93CDB7DEB7EC970FB6F894DEBF30
:104230000FBECDBF5C012A013B010E94751DCC243D
:10424000C394E12C00E314E02AED33E0AE014F5FAC
:104250005F4F65E270E0CE0186960E94FE1E2AE066
:10426000B301A201CE0188960E94281B7C01F501B2
:1042700002851385CE0186960E94751D48A959A90D
:10428000400F511FF501808591858417950710F522
:1042900081E085872CA53DA5F12CE12C10E000E004
:1042A0006CEB7EE0C5010E94AC1CC701EC960FB61A
:1042B000F894DEBF0FBECDBFDF91CF911F910F915C
:1042C000FF90EF90CF90BF90AF907F906F905F90F6
:1042D0004F900895BE016A5D7F4FC5010E94671E21
:1042E000E4CF8F929F92AF92BF92CF92EF920F93B3
:1042F0001F93CF93DF93CDB7DEB7A0970FB6F89497
:10430000DEBF0FBECDBF5C014B01CC24C394E12CBA
:1043100000E314E02AED33E0AE01485E5F4F69E050
:1043200070E0CE0101960E94FE1EA40170E060E0E4
:10433000CE0101960E940521BE016F5F7F4FC5012E
:104340000E94671EA0960FB6F894DEBF0FBECDBFC9
:10435000DF91CF911F910F91EF90CF90BF90AF90D1
:104360009F908F900895CF93DF93EC018A819B817A
:104370000E947121CE01DF91CF9108956F927F92BB
:104380008F929F92AF92BF92CF92EF92FF920F9334
:104390001F93CF93DF93CDB7DEB7CC55D1090FB6BE
:1043A000F894DEBF0FBECDBF3C014B01CC24C394BB
:1043B000E12C00E314E02AED33E0AE014C5A5F4FEC
:1043C00069E070E0CE01CD960E94FE1E092C000C23
:1043D000AA08BB08CE01CD960E94751D2AED33E0D8
:1043E000AE014F5F5F4F65E270E0CE0186960E949E
:1043F000FE1E2AE0B501A401B7FE0DC06DE2CE019C
:1044000088960E94A00844275527BA0148195909DF
:104410006A097B092AE0CE0188960E94281B29960A
:10442000AEACBFAC2997CE0186960E94751D48A9F7
:1044300059A94A0D5B1D27968EAD9FAD279784170E
:10444000950758F581E02B968FAF2B972CA53DA5AE
:10445000F12CE12C10E000E06DEF7AE0CE01CD967A
:104460000E94AC1CBE01635C7F4FC3010E94671EAB
:10447000C45ADF4F0FB6F894DEBF0FBECDBFDF9139
:10448000CF911F910F91FF90EF90CF90BF90AF9081
:104490009F908F907F906F900895BE016A5D7F4FCF
:1044A000CE01CD960E94671EDDCFCF93DF93EC0146
:1044B0008A819B810E94BE21CE01DF91CF91089518
:1044C000AF92BF92CF92EF92FF920F931F93CF9331
:1044D000DF93CDB7DEB76D970FB6F894DEBF0FBE92
:1044E000CDBF5C01F62ECC24C394E12C00E314E094
:1044F0002AED33E0AE01485E5F4F66E070E0CE012A
:1045000001960E94FE1E4F2D50E070E060E0CE014B
:1045100001960E940521BE016F5F7F4FC5010E9479
:10452000671E6D960FB6F894DEBF0FBECDBFDF914C
:10453000CF911F910F91FF90EF90CF90BF90AF90D0
:104540000895CF92DF92EF92FF920F931F93CF9334
:10455000DF938C01DC019296ED91FC91E80FF91F3D
:1045600012826C01B2E0CB0ED11CC114D10431F126
:10457000F60101900020E9F73197EC19FD09F1F0FF
:10458000DC01ED90FC90D7011496CD91DC91CE0F1B
:10459000DF1FBE01C7010E94C61A882379F0F70108
:1045A0002081318184819581B601820F931F0E9401
:1045B000B568D7011596DC93CE931497F80113A232
:1045C00012A2DF91CF911F910F91FF90EF90DF909A
:1045D000CF900895CF93DF93EC018AA19BA19C011A
:1045E0002F5F3F4F3BA32AA3FE01E80FF91F628311
:1045F0000296809718F0CE010E94A1228CA19DA165
:1046000001969DA38CA3DF91CF910895EF92FF9225
:104610000F931F93CF93DF93EC017B0162E20E9423
:10462000EA228701F80161918F01662391F0EAEC9B
:10463000F3E0F280FF2049F0329681816813F9CFD0
:104640006CE5CE010E94EA226F2DCE010E94EA2283
:10465000E9CF62E2CE01DF91CF911F910F91FF90E0
:10466000EF900C94EA22CF92DF92EF92FF920F9399
:104670001F93CF93DF93EC016A018B017B01E40E62
:10468000F51E0E151F05A9F0F80121918F018AA1D1
:104690009BA1AC014F5F5F4F5BA34AA3FE01E80FF4
:1046A000F91F22830296809760F3CE010E94A12217
:1046B000E8CF4CA15DA14C0D5D1D5DA34CA3DF9126
:1046C000CF911F910F91FF90EF90DF90CF900895C1
:1046D000EF92FF920F931F93CF93DF93CDB7DEB787
:1046E00066970FB6F894DEBF0FBECDBF8C01CB012D
:1046F000FE0177969F014AE0E42EF12CB7010E945B
:104700007967805D8293CB010097C1F7A9014E1BA9
:104710005F0BBF01C8010E94332366960FB6F89461
:10472000DEBF0FBECDBFDF91CF911F910F91FF90E4
:10473000EF9008958F929F92AF92BF92CF92DF92A7
:10474000EF92FF920F931F93CF93DF93CDB7DEB716
:1047500066970FB6F894DEBF0FBECDBF6C018E0119
:10476000095E1F4F78018AE0882E912CA12CB12C74
:10477000CB01BA01A50194010E94FC65942F852FFD
:10478000605DF80162938F01A901692F782F4115AF
:1047900051056105710561F7A7014E1B5F0BBF0154
:1047A000C6010E94332366960FB6F894DEBF0FBE93
:1047B000CDBFDF91CF911F910F91FF90EF90DF90D0
:1047C000CF90BF90AF909F908F900895FB01019084
:1047D0000020E9F73197AF01461B570B0C943323A8
:1047E0002F923F924F925F926F927F928F929F9201
:1047F000AF92BF92CF92DF92EF92FF920F931F93EF
:10480000CF93DF93CDB7DEB766970FB6F894DEBFD0
:104810000FBECDBF8C011B01DC0114968C91149747
:104820008F77863009F470C278F48230B0F084302B
:1048300008F051C212964D915C9113976D917C9145
:10484000C1010E94332316C28C30B1F160F488306C
:1048500009F455C28A3009F444C265E374E0C10129
:104860000E94E62307C2803209F408C28034A9F707
:104870006BE5C1010E94EA22F80100811181011556
:10488000110509F4F3C1B101C8010E94F023D80158
:1048900015968C91882309F4E9C1B8E08B02C00118
:1048A0001124080F191F0115110509F4DFC16CE26D
:1048B000C1010E94EA22E3CFF801C080D180E280EA
:1048C000F380A7019601C701B6010E944E628823BA
:1048D00031F065E374E0C1010E94E6239FC120E04E
:1048E00030E0A901C701B6010E944E62882371F031
:1048F000A7019601C701B6010E9460669B01AC0149
:10490000C701B6010E944E62882319F320E030E00F
:10491000A901C701B6010E944E6287FF08C06DE27F
:10492000C1010E94EA22F7FAF094F7F8F09420E827
:1049300036E948E15BE4C701B6010E94746787FD70
:1049400081C064E1A62EB12C00E210E01A8A198A17
:10495000F501ED59FA4F2591359145915491C701D3
:10496000B6010E94746787FD13C0F501ED5CFA4F34
:104970002591359145915491C701B6010E94B462C9
:104980006B017C0129893A89200F311F3A8B298BD1
:104990001595079534E0A31AB1088CEFA8168FEF90
:1049A000B806B1F655245A9420E030E0A901C701B9
:1049B000B6010E94746718160CF04BC02CEA35EC57
:1049C00047E257E3C701B6010E944E6218160CF485
:1049D00040C0A52DB4E0AB02C0011124B12CA12C24
:1049E000FC01E55BFA4F3F019C012D593A4F49010B
:1049F0003FEF531671F1F301EA0DFB1D65917591BF
:104A000085919491A70196010E94746718169CF4F1
:104A1000F401EA0DFB1D2591359145915491C70193
:104A2000B6010E94B4626B017C0189899A89801B5E
:104A3000910B9A8B898B159507955A9494E0A91A36
:104A4000B108D6CF00E210E045E0542E1A8A198A48
:104A5000ABCFC701B6010E9445674B015C012B013A
:104A60003C0106E080E492E4AFE0B0E08B8B9C8BED
:104A7000AD8BBE8B102F01509AE049165104610492
:104A80007104C8F06B897C898D899E892AE030E0A9
:104A900040E050E00E94FC652B8B3C8B4D8B5E8B85
:104AA000C301B2012AE030E040E050E00E94FC6522
:104AB00029013A01DFCFC501B4010E9453629B0175
:104AC000AC01C701B6010E945F666B017C016B8976
:104AD0007C898D899E890E9453629B01AC01C7012C
:104AE000B6010E94B4622B013C010E9445676B0134
:104AF0007C010E9453629B01AC01C301B2010E9480
:104B00005F669B01AC010E9460660E944567C60E0D
:104B1000D71EE81EF91E8B899C89AD89BE89C816EF
:104B2000D906EA06FB06D8F09FEF891A990AA90A66
:104B3000B90AA989BA89AB2B39F1BAE08B1691046D
:104B4000A104B10408F1E989FA893196FA8BE98B5D
:104B5000C12CD12C7601812C912C540183949AE0A4
:104B6000492E512C612C712CC701B601A301920171
:104B70000E94FC65672B682B692B51F4111644F4D5
:104B800069017A011150F0CFC12CD12C7601E7CF09
:104B9000B501A401C1010E949A23112371F14E01B4
:104BA000F1E18F0E911C012F54018AE0482E512C07
:104BB000612C712C015068F0C701B601A30192016C
:104BC0000E94FC65605DD4016E934D0169017A011C
:104BD000F1CF812F90E0BC0160957095F501E81B45
:104BE000F90B31978EE2808344275527461B570BDC
:104BF0006A0D7B1DC1010E943323E989FA89F7FF01
:104C00002AC06AE374E0C1010E94E62369897A89B7
:104C1000719561957109C1010E946823D101949633
:104C20008D919C9166960FB6F894DEBF0FBECDBFF6
:104C3000DF91CF911F910F91FF90EF90DF90CF9078
:104C4000BF90AF909F908F907F906F905F904F90AC
:104C50003F902F90089529893A89232BF9F265E630
:104C6000C1010E94EA2269897A89D5CF6DE5C10127
:104C70000E94EA22F10184A195A1D4CF6BE7C10182
:104C80000E94EA22D8010D911C910115110509F12C
:104C9000F80166817781C1010E9406236AE3C101A0
:104CA0000E94EA22B101C8010E94F023D8011596A2
:104CB0008C91882371F0B8E08B02C0011124080F99
:104CC000191F0115110529F06CE2C1010E94EA22A9
:104CD000DCCF6DE7CCCF6D917C91C1010E940623A2
:104CE000C9CFCD90DD90ED90FC906DE2C1010E94A6
:104CF000EA22B701A601C1010E949A23BBCF4D91C0
:104D00005D916D917C91F7CFF80180819181A281B5
:104D1000B3816DE374E0892B8A2B8B2B09F0DBCDFB
:104D200062E474E0D8CDEF92FF920F931F93CF937C
:104D3000DF93EC018B010E94ED0E8823E1F1F80175
:104D400001900020E9F7CF01801B910B0896813874
:104D5000910588F5CE010E94ED0E882361F1FE01D8
:104D6000EA57FF4F80819181019611F191838083F1
:104D7000808191819B878C877E01F6E0EF0EF11C8C
:104D800047E050E0B701C8010E94F407FE01E80FB8
:104D9000F91F16829C0124503109A70162E8CE0157
:104DA000DF91CF911F910F91FF90EF900C94230F03
:104DB00081E090E0DBCFDF91CF911F910F91FF90C9
:104DC000EF900895AF92BF92CF92DF92EF92FF9251
:104DD0000F931F93CF93DF9300D01F92CDB7DEB711
:104DE0008C016B017A0180913B078333E9F45B010D
:104DF0006801C40ED51EC016D106A9F10E94A10BF0
:104E00008FE00E94AC0B812F0E94AC0B802F0E9480
:104E1000AC0B0F5F1F4F80E00E94AC0BF50181933C
:104E20005F010E94970BE7CF843369F50E94A10BC5
:104E300019830A838F2D8F778B83EC8264E070E077
:104E4000CE0101960E947D0BA70170E060E0C601D3
:104E50000E94A568E114F10421F0B701C6010E9487
:104E60007D0B0E94970BC7010F900F900F900F9032
:104E7000DF91CF911F910F91FF90EF90DF90CF9036
:104E8000BF90AF9008950E94A10B0F3F110509F04C
:104E900030F419820A831B8263E070E0D1CF17FDE2
:104EA0000BC019820A8333E0169507953A95E1F70E
:104EB000007E08600B83F0CFC80126E096958795A9
:104EC0002A95E1F7807E19830A830115104C18F4A6
:104ED00080618B83E1CF8861FCCFCF93DF931F92FA
:104EE000CDB7DEB72091E60630E0322F2227260F1D
:104EF000371F90E0982F882741E050E0BE016F5F98
:104F00007F4F820F931F0E94E22689810F90DF91CD
:104F1000CF910895CF93C82F462F61E070E00E9493
:104F2000BF0C61E070E08C2F0E946D278111F9CFDA
:104F3000CF910895CF93C82F80E591E00E94160885
:104F400068E070E08C2FCF910C948A27CF93C82F04
:104F500080E591E00E94160860E170E08C2FCF910F
:104F60000C948A27CF93DF93EC01888D883020F44E
:104F70000E94A62788E0888FDF91CF910895CF9374
:104F8000C82F80E591E00E94160863E070E08C2F46
:104F9000CF910C946D27CF93DF93EC018C858830F3
:104FA000D0F40E94BF27843189F0882379F08831BA
:104FB00069F021E08C3159F4E881F9810084F185B0
:104FC000E02DCE01199521E0892B09F420E0822FF4
:104FD000DF91CF91089580E0FBCFCF92DF92EF92E7
:104FE000FF92CF93DF93EC018C85883068F40E94A8
:104FF0009A270E94710B6B017C018C850E94BF2750
:10500000811109C088E08C87DF91CF91FF90EF90EC
:10501000DF90CF90089561E070E080E090E00E9422
:105020003E0B0E94710BAB01BC014C195D096E096E
:105030007F098D859E85B0E0A0E0481759076A0773
:105040007B07D8F28C850E94A627DCCFCF93FC018A
:10505000C08D80E591E00E94160860E270E08C2F20
:105060000E948A2762E070E08C2F0E946D2784FDE9
:1050700016C062E070E08C2F0E946D2783FF0AC08B
:1050800048E162E070E08C2F0E94BF0C80E090E06D
:10509000CF91089580E591E00E941608E3CF40E1AA
:1050A00062E070E08C2F0E94BF0C81E0F0CFCF93C4
:1050B000DF931F92CDB7DEB741E050E0BE016F5FD6
:1050C0007F4F90E080E00E94E22689810F90DF917F
:1050D000CF910895CF93DF93C4E1D0E00E94572889
:1050E000882361F061E070E080E090E00E943E0B78
:1050F0002197A1F780E0DF91CF91089581E0FBCF68
:105100001F93CF93DF931F92CDB7DEB7182F80E5A3
:1051100091E00E941608812F0E94740C27E0129FD4
:10512000F0011124ED5FF84F22813381377041E0A7
:1051300050E0BE016F5F7F4F820F931F0E94E226F7
:1051400089810F90DF91CF911F910895FC01808D8F
:10515000883040F4218D328D232B21F00E9480284D
:1051600090E008958FEF9FEF0895CF93DF93FC01B8
:105170002485283028F08FEF9FEFDF91CF9108959D
:10518000EC010190F081E02D0084F185E02D19956E
:10519000892B89F38C850E94802890E0EECFDA017C
:1051A000E091E606F0E0FE2FEE27E60FF71F90E015
:1051B000982F8827A901BD018E0F9F1F0C94E2260E
:1051C0008F929F92AF92BF92CF92DF92EF92FF9217
:1051D0000F931F93CF93DF93CDB7DEB760970FB6D2
:1051E000F894DEBF0FBECDBF7C0190913B079111BB
:1051F00015C018E0812F60960FB6F894DEBF0FBE81
:10520000CDBFDF91CF911F910F91FF90EF90DF9075
:10521000CF90BF90AF909F908F90089508E0933308
:1052200009F404E06B0180E591E00E9416089E01FC
:105230002F5F3F4F5901490110E063E070E0812F7B
:105240000E946D27F40181934F018823C1F01F5FF5
:105250000113F3CF00E0F50181915F018D3149F039
:10526000883139F08A51823020F00F5F1013F3CF6C
:10527000C0CF60E170E0802F0E948A27102FA12EFE
:10528000B12C83EE93E00197F1F742E870E060E023
:10529000812F0E94BF0C4FEF62E070E0812F0E94CF
:1052A000BF0CB601C114D10491F480910202909117
:1052B000030201968115F0EC9F0708F45CC09093FF
:1052C0000302809302026091020270910302812F17
:1052D0000E94A90C86E0EFE0F2E0DE011996019051
:1052E0000D928A95E1F7F70183818F778C8784810E
:1052F0008D8785818E87A7014E5F5F4F24E030E068
:105300006CE070E0812F0E94820CB601812F0E9418
:10531000930C26E030E0AE01475F5F4F66E070E03F
:10532000812F0E94820C61E070E0812F0E948A2709
:1053300027E02A9DC0012B9D900D11249C012D5F1B
:10534000384F7901F9011182108222E030E0AE017C
:10535000415F5F4F68E270E0812F0E94CF288F8508
:105360009889982789279827F70193838283168243
:10537000158214823FCF80E090ECA1CFCF92DF92D4
:10538000EF92FF920F931F93CF93DF9300D000D043
:10539000CDB7DEB78C016B017A01FC01808D8830BE
:1053A00010F40E94A62788EC93E09A838983F60183
:1053B00082819381A481B5818B839C83AD83BE83DD
:1053C000B701CE0101960E94E028F801808F883055
:1053D000A0F4F586E486128E118E81E026960FB633
:1053E000F894DEBF0FBECDBFDF91CF911F910F911B
:1053F000FF90EF90DF90CF90089580E0EFCF7F9205
:105400008F929F92AF92BF92CF92DF92EF92FF92D4
:105410000F931F93CF93DF931F921F92CDB7DEB7E9
:10542000782E8B014A01590122E030E0AE014F5F36
:105430005F4F64E270E00E94CF28E980FA80FE248A
:10544000EF24FE24E00EF11E9701377040913B07D8
:10545000072D10E0433309F042C0085F1F4F102FA3
:105460000027110F110F110FC901800F911F473332
:10547000C9F1A9014A0D5B1D4130584098F160E027
:1054800078E06B01C21AD30AA601B4010E94B30BE3
:10549000A5014C195D09B4016C0D7D1DC8010E9468
:1054A000B30BEA0CFB1CF982EA8222E030E0AE0189
:1054B0004F5F5F4F64E270E0872D0E94820C0F9077
:1054C0000F90DF91CF911F910F91FF90EF90DF90A0
:1054D000CF90BF90AF909F908F907F900895005F86
:1054E0001F4FBDCFA501B401DACFEF92FF921F93FA
:1054F000CF93DF931F921F92CDB7DEB7182F22E014
:1055000030E0AE014F5F5F4F60E270E00E94CF2855
:10551000E980FA80FE24EF24FE2422E030E0AE0190
:105520004F5F5F4F60E270E0812F0E94CF2889813A
:105530009A81982789279827E816F90689F487E041
:10554000189FF0011124ED5FF84FF582E482C70146
:105550000F900F90DF91CF911F91FF90EF900895E2
:105560007C01DBCF1F93CF93DF93182F80E591E071
:105570000E941608812F0E94752AEC0163E070E0FA
:10558000812F0E946D27873121F08C3111F0D0E0FE
:10559000C0E0CE01DF91CF911F910895CF93DF93AB
:1055A000EC018C85883060F40E94BF27873111F0B0
:1055B0008C3131F48C850E94B22A8115984088F391
:1055C000DF91CF910895FC018485883010F40C940C
:1055D000B22A90E080E008959F92AF92BF92CF925E
:1055E000DF92EF92FF920F931F93CF93DF938C0183
:1055F0005B01942EE52EFC01C688D788F08C80E5EF
:1056000091E00E9416088F2D0E94752AC92DDE2D6B
:105610008C179D0708F4EC019E01A501B6018F2DA2
:105620000E94FF29F801868997898C0F9D1F978B0F
:10563000868BCE01DF91CF911F910F91FF90EF905C
:10564000DF90CF90BF90AF909F9008958F929F92E0
:10565000AF92BF92CF92DF92EF92FF920F931F9380
:10566000CF936C015B018A01FC01C485C830F0F561
:105670007A014130584018F0E12C88E0F82E80E59E
:1056800091E00E9416088C2F0E94752A4C0163E05D
:1056900070E08C2F0E946D27873111F08C3149F515
:1056A0008E149F0460F380E591E00E941608970134
:1056B000A50170E060E08C2F0E94FF2960E270E09D
:1056C0008C2F0E948A2762E070E08C2F0E946D2749
:1056D00084FD17C063E070E08C2F0E946D2781115C
:1056E0000BC081E090E0F6019383828310E000E03C
:1056F00010C0F12CE12CD7CF80E591E00E94160874
:10570000E2CF40E162E070E08C2F0E94BF0CEF28F6
:1057100041F3C801CF911F910F91FF90EF90DF905F
:10572000CF90BF90AF909F908F900895FF920F936E
:105730001F93CF93DF931F921F92CDB7DEB7F82E42
:1057400022E030E0AE014F5F5F4F66E270E00E9402
:10575000CF2809811A8110270127102722E030E085
:10576000AE014F5F5F4F66E270E08F2D0E94CF2841
:1057700089819A819827892798270817190749F45A
:10578000C8010F900F90DF91CF911F910F91FF9063
:1057900008958C01E3CF1F93CF93DF93182F87E0F9
:1057A000189FE0011124CD5FD84F8881998100971F
:1057B00061F480E591E00E941608812F0E94962BEB
:1057C0002E81821B910999838883DF91CF911F914C
:1057D0000895FC018485883010F40C94CB2B90E064
:1057E00080E008954F925F927F928F929F92AF9246
:1057F000BF92CF92DF92EF92FF920F931F93CF93BE
:10580000DF931F921F92CDB7DEB7782E6B014A014E
:10581000A82EB12C27E0829FC0011124FC01ED5F6E
:10582000F84F7F010081118180E591E00E94160808
:105830000815190554F4872D0E94962BF70126812F
:105840008C01021B1109118300830115110529F533
:1058500063E070E0872D0E946D27843159F0882322
:1058600049F001E010E08C3111F410E000E01195F6
:1058700001951109C8010F900F90DF91CF911F91F1
:105880000F91FF90EF90DF90CF90BF90AF909F90DF
:105890008F907F905F904F900895801691060CF442
:1058A000840187E08A9DF0018B9DF00D1124ED5F4E
:1058B000F84FE280F380C114D10451F12701F7E0E1
:1058C0005F22872D0E94740C840D951D20913B074B
:1058D000273309F453C09801240D351D2130384079
:1058E00008F44CC020E038E0490184189508A40170
:1058F000B6010E94E2262601480C591C6801C8180E
:10590000D908872D0E94740CA601B2010E94E226DC
:10591000E00EF11E87E08A9DF0018B9DF00D1124B1
:10592000ED5FF84FF382E28220813181201B310B41
:10593000318320838681800F912F911D8A3F9105AD
:1059400010F4232BF1F487E08A9DF0018B9DF00D7C
:105950001124ED5FF84F1682F982EA8222E030E0EE
:10596000AE014F5F5F4F68E270E0872D0E94820CAE
:1059700060E470E0872D0E948A277CCFA801B601E1
:10598000C5CF868377CFCF93DF93FC01218D328DF6
:105990002115310529F48FEF9FEFDF91CF91089505
:1059A000EC01808D4217530708F0A9010E94F22BE9
:1059B0001816190684F7298D3A8D281B390B3A8F52
:1059C000298FEBCF0F931F93CF93DF931F92CDB708
:1059D000DEB7FC01218D328D232B41F48FEF9FEF39
:1059E0000F90DF91CF911F910F9108958C0141E0AD
:1059F00050E0BE016F5F7F4FFC01808D0E94F22B53
:105A0000181619065CF7F801818D928D0197928F17
:105A1000818F898190E0E4CFCF93DF931F92CDB740
:105A2000DEB741E050E0BE016F5F7F4FFC0184852F
:105A30000E94F22B1816190634F4898190E00F9019
:105A4000DF91CF9108958FEF9FEFF9CFFC0184850F
:105A5000883010F40C94F22B90E080E008958F923F
:105A60009F92AF92BF92CF92DF92EF92FF920F93ED
:105A70001F93CF93DF9300D000D000D01F92CDB7FB
:105A8000DEB790913B07911115C018E0812F2A963F
:105A90000FB6F894DEBF0FBECDBFDF91CF911F913F
:105AA0000F91FF90EF90DF90CF90BF90AF909F90BD
:105AB0008F90089528E0F22E933311F494E0F92E9C
:105AC0006B01082F80E591E00E9416089E012F5F70
:105AD0003F4F5901490110E063E070E0812F0E94BF
