:100000000C9410080C9441080C9441080C9441087D
:100010000C9441080C9441080C9441080C9441083C
:100020000C9441080C9457590C9457590C945759F7
:100030000C9441080C9441080C9441080C9441081C
:100040000C9441080C9441080C9441080C9441080C
:100050000C9441080C9441080C9441080C940D59DF
:100060000C9441080C94E3580C94B9580C94410832
:100070000C9441080C9441080C9441080C944108DC
:100080000C9441080C9441080C9441080C944108CC
:100090000C948F580C9465580C9441080C944108AA
:1000A0000C9441080C9441080C9441080C944108AC
:1000B0000C9441080C9441080C9441080C9441089C
:1000C0000C9441080C9441080C9441080C943B5842
:1000D0000C9411580C9441080C94E7570C94BD579C
:1000E0000C9441080C9410150C9478190C94112F51
:1000F0000C94CE0A0C940C150C94CD310C94341441
:100100000C941E5B0C94D2110C94BA110C94AD0A91
:100110000C94172A0C94864E0C94B00A0C94B93E99
:100120000C94E33A0C94A3130C94BB240C94E712A4
:100130000C94A54E0C9412150C94B05A0C94335692
:100140000C94B35A0C94A92D0C94C80A0C94153F26
:100150000C94EF080C9414150C94D60A0C94D359F3
:100160000C94CE2E0C94D72E0C9408150C941E09CA
:100170000C94BF240C9432140C94EB090C94C24ED2
:100180000C946D400C946D130C94BD240C94A1132D
:100190000C945F3E0C94BD320C94973B0C94351438
:1001A0000C9464090C941F130C94D42F0C94B92450
:1001B0000C94A50A0C94C4160C947E140C94EA5961
:1001C0000C94502A0C94A10A0C94C3240C94493C1E
:1001D0000C94874C0C94E6160C94564D0C94BD4030
:1001E0000C94CD300C945E110C941F1B0C94A02C1D
:1001F0000C9419400C949F130C94EB120C94A413C0
:100200000C9474190C94713F0C9411310C940A15D0
:100210000C9471380C94E03F0C94300F0C949509B9
:100220000C94AE300C9487090C94DC290C940E15B8
:100230000C941B5B0C94E00A0C94313B0C949C5482
:100240000C94354E0C9408110C94F90E0C94B60ACB
:100250000C94C1240C94F7300C9492320C94835675
:100260000C94340F0C94731D0C9450200C947A4E03
:100270000C94BF3F0C94B92E0C9467320C949B0ADB
:100280000C94994C0C943D550C9455140C945313A8
:100290000C9482190C94E83D0C9477140C948419F6
:1002A0000C94BA0A0C943C3F0C94D20A0C94A01300
:1002B0000C942B110C94D70E0C942A130C94C40A92
:1002C0000C94DC0A0C94EB310C94454F0C94ED59D2
:1002D0000C94380F0C94E20E0C94EC350C946808D6
:1002E0000C9446110C9477360C942B130C94C10E7D
:1002F0000C94380A0C9413150C94A2400C94E054FE
:100300000C94A43F0C94A90A0C9496160C945114C6
:100310000C94F5290C94093C0C94912C0C94480FE6
:100320000C94C00A0C94464D0C9450560C9479359C
:100330000C946A130C9473090C94C7560C94E8122D
:100340000C9487190C9454140C94113E0C94DB0AF1
:100350000C94E1400C94424000407A10F35A00A003
:10036000724E18090010A5D4E80000E8764817007E
:1003700000E40B54020000CA9A3B000000E1F505BE
:10038000000080969800000040420F000000A08608
:1003900001000000102700000000E803000000003A
:1003A0006400000000000A000000000001000000DE
:1003B00000002C76D888DC674F0823DFC1DFAE59F8
:1003C000E1B1B796E5E3E453C63AE651997696E88B
:1003D000E6C28426EB898C9B62ED407C6FFCEFBC0F
:1003E0009C9F40F2BAA56FA5F490055A2AF75C933A
:1003F0006B6CF9676DC11BFCE0E40D47FEF520E670
:10040000B500D0ED902E0300943577050080841E52
:10041000080000204E0A000000C80C333333330FAD
:10042000986E12831141EF8D2114893BE65516CF4A
:10043000FEE6DB18D1844B381BF77C1D901DA4BB56
:10044000E424203284725E228100C9F124ECA1E50B
:100450003D272040003B7375627363726970746955
:100460006F6E3A003B6C684F6E3A003B50696E3AD3
:10047000003B547970653A0049643A002040003BE3
:10048000737562736372697074696F6E3A003B6C66
:10049000684F6E3A003B50696E3A003B5479706584
:1004A0003A0049643A0052657365740023005D3A6E
:1004B000005B002040003B73756273637269707467
:1004C000696F6E3A003B50696E3A003B5479706533
:1004D0003A0049643A0020697320616273656E7462
:1004E000206F6E207468652062757300556E6974A4
:1004F0003A0043616E27742066696E6420627573EA
:1005000020666F7220756E69743A20004261642023
:10051000636F6E76657273696F6E20747970652093
:10052000666F7220756E69742000204020003B5079
:10053000696E3A003B547970653A0049643A00CDDF
:10054000CCCC3D0AD7233C17B7D13877CC2B32958A
:1005500095E6241FB14F0A0000803FCDCCCC3D6F03
:1005600012833A95BFD6337D1D9026B3CE010C0081
:100570000020410000C84200401C4620BCBE4CCABE
:100580001B0E5AAEC59D7420497320756E6176614D
:10059000696C61626C65206F6E207468652062759D
:1005A0007300556E69743A200054656D702069734C
:1005B000206661696C65643A2000506F7274206E29
:1005C0006F7420666F756E64002040003B73756227
:1005D000736372697074696F6E3A003B466163744D
:1005E0006F723A003B53657269616C54583A003B34
:1005F00053657269616C52583A003B536572696188
:100600006C3A003B547970653A0049643A002040E6
:10061000003B737562736372697074696F6E3A0040
:100620003B7374617475733A003B6C684F6E3A00AB
:100630003B50696E3A003B547970653A0049643A20
:10064000002040003B737562736372697074696F58
:100650006E3A003B7374617475733A003B54797061
:10066000653A0049643A00205472756E636174659E
:10067000642076616C7565207361766564206973AA
:1006800020270020202020202020002C202E2E2E6D
:10069000292070617373656420756E7465726D696D
:1006A0006E6174656420627566666572206F66208F
:1006B0007374726C656E203E3D004572726F723AC3
:1006C0002063726561746553616665537472696E07
:1006D0006746726F6D43686172417272617928007A
:1006E0004572726F723A2063726561746553616618
:1006F00065537472696E6746726F6D4368617250BC
:1007000074725769746853697A65280020496E6964
:100710007469616C2076616C756520617267207701
:100720006173202700202020202020200020666FD9
:100730007220696E697469616C2076616C75652ED2
:10074000002C202E2E2E29206E6565647320636197
:10075000706163697479206F6620004572726F72F0
:100760003A2053616665537472696E67280020658C
:1007700078636565647320617661696C61626C653C
:10078000206D656D6F72792E2052657475726E6979
:100790006E67207A65726F20636170616369747936
:1007A0002053616665537472696E672E002C202E8B
:1007B0002E2E2920726571756573742073697A65B0
:1007C0003A004572726F723A2053616665537472D3
:1007D000696E6728002C202E2E2E29207761732029
:1007E0007061737365642061204E554C4C20706FAE
:1007F000696E74657220666F7220696E69746961D2
:100800006C2076616C75652E004572726F723A20AD
:1008100053616665537472696E6728002C202E2E12
:100820002E292077617320706173736564206120C5
:100830004E554C4C20706F696E74657220666F72F5
:10084000206974732063686172206172726179003B
:100850004572726F723A2053616665537472696EA5
:100860006728002C202E2E2E29207061737365645A
:100870002061207A65726F206C656E6774682061F4
:1008800072726179004572726F723A2063726561AB
:10089000746553616665537472696E6746726F6DF5
:1008A00043686172417272617928002C202E2E2ECD
:1008B0002C20302920776173207061737365642068
:1008C0007A65726F2070617373656420666F722041
:1008D00061727261792073697A65004572726F7214
:1008E0003A20637265617465536166655374726919
:1008F0006E6746726F6D43686172417272617957BB
:1009000069746853697A6528002C202E2E2E2920C0
:1009100073697A656F662863686172417272617982
:1009200029203D3D2073697A656F6628636861728E
:100930002A292E200A436865636B20796F75206130
:1009400072652070617373696E67206120636861EE
:10095000725B5D20746F20637265617465536166BC
:1009600065537472696E6746726F6D436861724158
:1009700072726179204F52207573652063686172CD
:100980005B355D206F72206C617267657220636CED
:100990006561722074686973204572726F720A20F3
:1009A00020546F2077726170206120636861722A21
:1009B000207573652065697468657220637265616E
:1009C000746553616665537472696E6746726F6DC4
:1009D00043686172507472282E2E292C206353466E
:1009E00050282E2E29206F72206372656174655322
:1009F000616665537472696E6746726F6D436861B4
:100A0000725074725769746853697A65282E2E295A
:100A10002C206353465053282E2E202900457272F5
:100A20006F723A2063534641202F206372656174D0
:100A30006553616665537472696E6746726F6D4384
:100A400068617241727261792800536166655374FE
:100A500072696E6720636C65616E557020646574A1
:100A6000656374656420627566666572206F76657D
:100A70007272756E2062792065787465726E616C31
:100A800020636F64652E00206F66203000777269E6
:100A90007465007772697465007D2000207B2000FA
:100AA00020496E7075742061726720776173200031
:100AB0002020202020202000203E2075696E7438E0
:100AC0005F742A20617267207374726C656E2E00E9
:100AD000206C656E677468200077726974650077B2
:100AE0007269746500207761732070617373656447
:100AF0002061204E554C4C20706F696E74657200F9
:100B0000636F6E63617400202700206C656E3A008D
:100B1000206361703A00202D2D2D20002020202000
:100B20002020200053616665537472696E67002847
:100B300029004572726F723A00636F6E63617400D0
:100B4000005EBCE2613FDD83C29C7E20A3FD1F41AD
:100B5000009D23BE46DB65F88C11AF32CA57E9749D
:100B6000000020002300260029002C002F00320066
:100B70000001000003010601090100000A0B02093F
:100B80000C0D0E0807030401000000000000000027
:100B90000000000000000000000000000000000055
:100BA0000000000000001211100000000000000012
:100BB0000000000000000000000000000000000035
:100BC000495020416464726573732069733A00422E
:100BD0006F617264204964233A00426F617264203D
:100BE00069732072656164790046696E6973682073
:100BF00075706461746520636F6E66696775726194
:100C000074696F6E004E756D626572206F66206349
:100C10006F6E66696720556E6974733D00204020D1
:100C2000003B746172676574547970653A003B7477
:100C3000617267657449643A003B746172676574F8
:100C4000416374696F6E3A003B6F726967696E54F5
:100C50007970653A003B6F726967696E49643A0062
:100C60003B6576656E743A0049643A002E204F72F7
:100C70006967696E206E6F7420666F756E640041DF
:100C80006374696F6E3A002E205461726765742038
:100C90006E6F7420666F756E6400416374696F6E69
:100CA0003A00456E6420737562736372697074698B
:100CB0006F6E00536F6D6520756E6974732061727D
:100CC00065206E6F74207375627363726962656408
:100CD000005375627363726962696E6720556E694D
:100CE00074732E2E2E005265616420556E697473E4
:100CF0002066726F6D20454550524F4D00546F6F06
:100D0000206D616E7920617474656D7074206F66FA
:100D1000204D515454207265636F6E6E656374008C
:100D20004D71747420636F6E6E65637420617474AA
:100D3000656D70743D00436F6E66696720696E690A
:100D4000742069732066696E697368656400537501
:100D50006273637269626520556E69747300496ECF
:100D6000697469616C697A65204D51545400496E0B
:100D700069742045746865726E657400547279698F
:100D80006E6720746F207265636F6E6E656374208A
:100D90004D515454004661696C6564206C6F6F70EE
:100DA0000000002200250028002B002E0031003416
:100DB0000002010000050108010B010000210024D0
:100DC0000027002A002D003000330001010000043C
:100DD0000107010A0101021020200808102040101C
:100DE00020408002010201080402010102040810EF
:100DF000204080804020100804020180040201800D
:100E00004020100804020108040201010204081035
:100E100020408001020408102040800505050507D8
:100E20000508080808020202020A0A080804040465
:100E30000401010101010101010303030303030391
:100E400003040707070C0C0C0C0C0C0C0C02020220
:100E50000206060606060606060B0B0B0B0B0B0B13
:100E60000B43616E27742063726561746520612095
:100E7000747970656420756E69743A0043616E27F9
:100E8000742063726561746520436F6E746163746E
:100E90006F720043616E2774206372656174652010
:100EA000506F776572204D6574657220556E697458
:100EB0000043616E277420637265617465204F6E14
:100EC000655769726520546865726D6F6D657465EC
:100ED0007220556E69740043616E277420637265D9
:100EE000617465204F6E6557697265206275732065
:100EF000556E69740043616E277420637265617476
:100F0000652052656C617920556E69740043616E8D
:100F100027742063726561746520427574746F6E06
:100F200020556E6974005245534554212121004DCE
:100F300051545420636F6E6E656374696F6E204602
:100F400061696C6564004D7174745265636F6E6E97
:100F5000656374007072696E74007072696E7400FB
:100F6000636F6E6361740020496E707574206172E6
:100F70006720776173202700202020202020200078
:100F8000203E20636861722A206172672073747248
:100F90006C656E2E00206C656E677468200020778B
:100FA0006173207061737365642061204E554C4CF1
:100FB00020706F696E746572004628220020496EA9
:100FC0007075742061726720776173200020202083
:100FD0002020202000206368617273206F662074D7
:100FE000686520696E7075742E0020666F722074BB
:100FF000686520666972737420005D290028692E77
:10100000652E20636861725B00206E6565647320E5
:101010006361706163697479206F662000001E5BF4
:1010200011241FBECFEFD1E2DEBFCDBF00E00CBF69
:1010300016E0A0E0B2E0E6E1FAED00E00BBF02C08E
:1010400007900D92AA3BB107D9F72BE0AAEBB6E0C7
:1010500001C01D92A83EB207E1F718E0C0E1D8E058
:1010600000E006C021970109802FFE010E94F1686F
:10107000CF30D10780E00807A9F70E94835D0C9468
:10108000096D0C940000CF93DF93EC01FA013296C6
:10109000E60FF71FDC019D012C1B3D0BCF01861BCA
:1010A000970B4D91442311F04193F5CFAC01421BB6
:1010B000530B640F751FFB01329730836150710928
:1010C000FB012083DF91CF9108958CBD9DBD0895D4
:1010D00008950F931F93CF93DF9300D000D01F92FA
:1010E000CDB7DEB78C01FB01342F498342814A839F
:1010F00093819B8324812C8385818D831E82430F62
:101100005527551F490F511D240F352F311D820FB3
:10111000932F911D8F83D8018D919C91DC01ED91CE
:10112000FC910084F185E02D1995F801A081B18131
:10113000ED91FC911197892B31F00284F385E02D1C
:10114000CD011995E8CF0280F381E02D47E050E012
:10115000BE016F5F7F4FCD01199527960FB6F894AA
:10116000DEBF0FBECDBFDF91CF911F910F910895CC
:10117000E091970BF091980B3097A9F040919B0B61
:1011800050919C0B30E020E02417350764F4A191C6
:10119000B19112966D917C9113976817790729F098
:1011A0002F5F3F4FF1CFB0E0A0E0CD010895CF9386
:1011B000DF93EB010E94B808009771F021E0DC0199
:1011C00016962C931697ED91FC910288F389E02DE9
:1011D000BE01DF91CF911994DF91CF910895FC0169
:1011E000818D928D0895DC01ED91FC910190F0814B
:1011F000E02D1994EF92FF920F931F93CF93DF93FB
:101200008C017B01D0E0C0E0F701EC0FFD1F649181
:10121000662361F0D801ED91FC910190F081E02D01
:10122000C8011995892B11F02196EECFCE01DF91DF
:10123000CF911F910F91FF90EF900895AF92BF92C1
:10124000CF92DF92EF92FF920F931F93CF93DF9392
:101250006C017B018B01040F151FEB015E01AE18C1
:10126000BF08C017D10759F06991D601ED91FC91E3
:101270000190F081E02DC6011995892B79F7C50100
:10128000DF91CF911F910F91FF90EF90DF90CF9062
:10129000BF90AF900895FC01A089B1898C91A68977
:1012A000B78982FD0FC09C91818D8F5F8F73228DD6
:1012B000821749F0A18DAE0FBF2FB11D5D969C9393
:1012C000818F08958C910895FC01538D448D252FB5
:1012D00030E0842F90E0821B930B541710F0CF96D0
:1012E000089501970895FC01918D828D981761F002
:1012F000A28DAE0FBF2FB11D5D968C91928D9F5F19
:101300009F73928F90E008958FEF9FEF0895FC01F7
:10131000918D828D981731F0828DE80FF11D858DAA
:1013200090E008958FEF9FEF0895FC01918D228D3D
:10133000892F90E0805C9F4F821B91098F739927C2
:10134000089588E597E00E94950921E0892B09F42A
:1013500020E0822F089585EF97E00E94950921E013
:10136000892B09F420E0822F089582E998E00E94F9
:10137000950921E0892B09F420E0822F08958FE25E
:1013800099E00E94950921E0892B09F420E0822F41
:101390000895FC01A48DA80FB92FB11DA35ABF4F0A
:1013A0002C91848D90E001968F739927848FA68964
:1013B000B7892C93A089B1898C91837080648C93B8
:1013C000938D848D981306C00288F389E02D808167
:1013D0008F7D80830895EF92FF920F931F93CF9399
:1013E000DF93EC0181E0888F9B8D8C8D98131AC060
:1013F000E889F989808185FF15C09FB7F894EE8947
:10140000FF896083E889F9898081837080648083A3
:101410009FBF81E090E0DF91CF911F910F91FF90EE
:10142000EF900895F62E0B8D10E00F5F1F4F0F7396
:101430001127E02E8C8D8E110CC00FB607FCFACF51
:10144000E889F989808185FFF5CFCE010E94C9091D
:10145000F1CFEB8DEC0FFD2FF11DE35AFF4FF08222
:101460009FB7F8940B8FEA89FB8980818062CFCF88
:10147000CF93DF93EC01888D8823B9F0AA89BB89CB
:10148000E889F9898C9185FD03C0808186FD0DC0B6
:101490000FB607FCF7CF8C9185FFF2CF808185FFD7
:1014A000EDCFCE010E94C909E9CFDF91CF91089518
:1014B00080E090E0892B29F00E94BF0981110E94F1
:1014C000000080E090E0892B29F00E94B50981118D
:1014D0000E94000080E090E0892B29F00E94AB0977
:1014E00081110E94000080E090E0892B29F00E9489
:1014F000A10981110C94000008958150823108F0F7
:101500005AC0E82FF0E08827E757F54F8F4F0C942B
:10151000F168A90AAD0A9B0AA10AA50ADB0AB00A6A
:10152000B60ABA0AC00AC40AC80ACE0AD20ADB0A34
:10153000D60ADC0AE00A809180008F7780938000D1
:101540000895809180008F7DF9CF80918000877F02
:10155000F5CF84B58F7784BD089584B58F7DFBCF9B
:101560008091B0008F778093B00008958091B00093
:101570008F7DF9CF809190008F77809390000895B0
:10158000809190008F7DF9CF80919000877FF5CF7B
:101590008091A0008F778093A00008958091A00093
:1015A0008F7DF9CF8091A000877FF5CF80912001BA
:1015B0008F77809320010895809120018F7DF9CF4E
:1015C00080912001877FF5CFCF93DF93282F30E0E4
:1015D000F901E658F44F8491F901EB52F24FD4919E
:1015E000F901E55EF14FC491CC23A1F081110E9475
:1015F0007D0AEC2FF0E0EE0FFF1FE05AF44FA591AB
:10160000B491EC91ED2381E090E009F480E0DF916A
:10161000CF91089580E090E0FACF1F93CF93DF93AE
:10162000282F30E0F901E658F44F8491F901EB528C
:10163000F24FD491F901E55EF14FC491CC23A9F0AA
:10164000162F81110E947D0AEC2FF0E0EE0FFF1F94
:10165000EF55F24FA591B4918FB7F894EC91111119
:1016600008C0D095DE23DC938FBFDF91CF911F910F
:101670000895DE2BF8CFCF93DF9390E0FC01EB527F
:10168000F24F2491855E914FFC0184918823D1F023
:1016900090E0880F991FFC01E554F24FA591B49199
:1016A000FC01EF55F24FC591D49161110EC09FB767
:1016B000F8948C91E22FE0958E238C932881E2237D
:1016C000E8839FBFDF91CF9108958FB7F894EC9195
:1016D000E22BEC938FBFF6CF3FB7F89480910507CC
:1016E00090910607A0910707B091080726B5A89B1F
:1016F00005C02F3F19F00196A11DB11D3FBFBA2FA4
:10170000A92F982F8827BC01CD01620F711D811D63
:10171000911D42E0660F771F881F991F4A95D1F7E8
:1017200008958F929F92AF92BF92CF92DF92EF92E5
:10173000FF926B017C010E946C0B4B015C01C11498
:10174000D104E104F104B9F00E946C0B6819790925
:101750008A099B09683E73408105910580F321E069
:10176000C21AD108E108F10888EE880E83E0981EBD
:10177000A11CB11CE4CFFF90EF90DF90CF90BF9001
:10178000AF909F908F9008952FB7F89460910107C4
:101790007091020780910307909104072FBF08956D
:1017A000EF92FF920F931F93CF93DF9300D01F927E
:1017B000CDB7DEB7FA0120E08E010F5F1F4F9E2FDD
:1017C0009F77EE0FEF2FEE1FFF0BF195309709F08B
:1017D0009068D801A20FB11D9C932F5F309779F7C5
:1017E00030E0FB01E21BF30B8483FB01E21BF30BF4
:1017F0003596D801CD01801B910B821793071CF4FD
:101800008D918193F7CF2F5F3F4F8091A70A9091E1
:10181000A80A8901040F151F621B730B6B5F7F4FB2
:10182000DC01ED91FC910280F381E02DA801199576
:101830007C010E94C40B60932B0B70932C0B809344
:101840002D0B90932E0B81E00E151F0509F080E003
:101850000F900F900F900F90DF91CF911F910F91EC
:10186000FF90EF900895CF92DF92EF92FF92CF9387
:10187000DF93EC010E94C40B6B017C018091A70AED
:101880009091A80ADC01ED91FC910084F185E02D96
:101890001995892B69F40E94C40B6C197D098E0976
:1018A0009F0968397A438105910540F380E00DC0B6
:1018B0008091A70A9091A80ADC01ED91FC91028425
:1018C000F385E02D1995888381E0DF91CF91FF901A
:1018D000EF90DF90CF9008953F924F925F926F927A
:1018E0007F928F929F92AF92BF92CF92DF92EF92B0
:1018F000FF920F931F93CF93DF931F92CDB7DEB765
:101900005C0189EA9AE00E94330C811116C010E054
:1019100000E0C8010F90DF91CF911F910F91FF90D0
:10192000EF90DF90CF90BF90AF909F908F907F907F
:101930006F905F904F903F9008953090A90A198260
:101940003AEA832E3AE0932EEE24E394F12CD12C44
:10195000C12C412C512C32014394CE0101960E949E
:10196000330C8823A1F287010F5F1F4F8981F40197
:1019700081934F01282F2F7730E0249DA001259DD2
:10198000500D349D500D1124C40ED51E27E0440C7B
:10199000551C661C771C2A95D1F787FD31C0F32DA5
:1019A000F07F3F2E8FEF800FD5018C93B0E3FB13B8
:1019B0003EC0C8018755954F0E94330C882309F417
:1019C000A6CFC7018555954F0E94330C882309F493
:1019D0009ECF0E5F1F4FD501EC91F0E0ED55F54F16
:1019E000E780F12CFE2CEE248085E80EF11C80911E
:1019F000A90A81FF03C0B2E0EB0EF11C92E01AC00D
:101A000078010530110509F0A8CF8FEF9FEF909373
:101A1000430B8093420B8091A70A9091A80ADC01A6
:101A2000ED91FC910488F589E02D199570CF90E037
:101A3000F12CE12C692E712C601A710A8EEF882E20
:101A400099249A94C301800F911F8C159D0570F500
:101A5000CE0101960E94330C882309F458CF80915F
:101A6000400B9091410B0097B1F0E0E33E1213C0A0
:101A7000D5012C91F401E21BF1099F01200F311FC8
:101A8000E216F30640F4DC01ED91FC910190F08147
:101A9000E02D698119950038110528F48981F80134
:101AA000ED55F54F86830F5F1F4FCCCF8091400BD4
:101AB0009091410B892B09F02CCF0138110508F0CA
:101AC00026CF27CFFC0120812EBD9B01215031095B
:101AD00041F051810DB407FEFDCF4EB55EBD41937F
:101AE000F5CF61507109860F971F0DB407FEFDCF2A
:101AF0002EB5FC0120830895E0915007F091510725
:101B0000808190914F07892B80830895E091500741
:101B1000F0915107908180914F07809589238083B0
:101B200008958EBD00000DB407FEFDCF8EB508955B
:101B3000AF92BF92CF92DF92EF92FF920F931F93DB
:101B4000CF93DF9300D000D01F921F92CDB7DEB7A6
:101B50008C017B016A01809153078333E1F45801C2
:101B6000A40EB51EA016B10609F46FC00E94860D22
:101B700080EF0E94910D812F0E94910D802F0E9475
:101B8000910D0F5F1F4FF70181917F010E94910D11
:101B90000E947C0DE7CF5B01A40EB51E8433C1F417
:101BA0000E94860D19830A838D2D80688B83CC82D9
:101BB00064E070E0CE0101960E94620DAE14BF0495
:101BC00009F441C0F70181917F010E94910DF6CF88
:101BD0000E94860D0F3F110509F028F419820A832F
:101BE00084E08B830CC017FD17C019820A8333E091
:101BF000169507953A95E1F7007E0C600B8386E019
:101C0000C816D104A0F5F701DE011496EA15FB050C
:101C100099F081918D93FACFC80126E0969587952A
:101C20002A95E1F7807E19830A830115104C10F480
:101C30008461D7CF8C61D5CFB6016D5F7F4FCE0168
:101C400001960E94620D0E947C0DC60128960FB677
:101C5000F894DEBF0FBECDBFDF91CF911F910F91E2
:101C6000FF90EF90DF90CF90BF90AF90089563E02A
:101C700070E0CE0101960E94620DF70181917F0113
:101C80000E94910DAE14BF04C1F7DDCFCF93DF9357
:101C90001F92CDB7DEB7898341E050E0BE016F5F90
:101CA0007F4F90E080E00E94980D0F90DF91CF91E0
:101CB000089590E020915307233339F40C96982F20
:101CC000990F990F990F80E008954896F8CFDA019F
:101CD000E0915407F0E0FE2FEE27E60FF71F90E0AB
:101CE000982F8827A901BD018E0F9F1F0C94980D76
:101CF000CF93DF931F921F92CDB7DEB779836A83AC
:101D000022E030E0AE014F5F5F4F60E170E00E9483
:101D1000670E0F900F90DF91CF910895CF93DF93CF
:101D20001F921F92CDB7DEB779836A8322E030E03D
:101D3000AE014F5F5F4F64E070E00E94670E0F904E
:101D40000F90DF91CF910895CF93DF931F92CDB77E
:101D5000DEB72091540730E0322F2227260F371F9D
:101D600090E0982F8827498341E050E0BE016F5FE3
:101D70007F4F820F931F0E94980D0F90DF91CF919C
:101D80000895CF93DF931F92CDB7DEB76983DC014F
:101D9000ED91FC910280F381E02D41E050E0BE0125
:101DA0006F5F7F4F19950F90DF91CF910895FC01E0
:101DB0009485FB018485981303C081E0983008F076
:101DC00080E00895CF93DF931F92CDB7DEB769838C
:101DD000DC01ED91FC910280F381E02D41E050E0C7
:101DE000BE016F5F7F4F19950F90DF91CF910895DE
:101DF0000895FF920F931F93CF93DF93EB01FC01A4
:101E0000178A168A2A81211109C02B81211106C047
:101E10002C81211103C02D81222301F1411551058F
:101E2000E9F08A01FC01F08C80E591E00E946508F0
:101E3000AE014E5F5F4F24E030E06CE070E08F2D2C
:101E40000E94670EB8018F2D0E94780E81E090E00D
:101E5000DF91CF911F910F91FF90089580E0F7CF10
:101E6000FC01848595850895FC01848995890895F0
:101E700028EC33E0FC0131832083FB014089518948
:101E800062897389FC014283538364837583089557
:101E9000DC01ED91FC91048CF58DE02D1994DC01B1
:101EA00080E0615090F09D919827E92FEF70F0E06D
:101EB000E05CF44F2491E92FE295EF70F0E0E05BF5
:101EC000F44FE491822F8E27ECCF0895DC012C9102
:101ED0001196ED91FC91F8948181822B81839281FE
:101EE000322F30959323928387E090E00197F1F7AA
:101EF00081818323818383E290E00197F1F79081D0
:101F00007894EFECF0E03197F1F7922381E009F457
:101F100080E00895FC0190810180F281E02D292F5D
:101F2000209560FF14C0F89482818223828381818E
:101F3000892B8183A3E2B0E01197F1F78281982B7E
:101F40009283789487ED90E00197F1F70895F894E3
:101F50008281822382838181892B8183AFEFB0E0EC
:101F60001197F1F78281982B928378948FE090E01B
:101F7000EBCFDF92EF92FF920F931F93CF93DF93FC
:101F8000EC01D62EE42E08E010E0FF24F39461E08B
:101F90008D2D8F2109F460E0CE010E948A0FFF0C85
:101FA00001501109A1F7E11010C0F894E981FA81FC
:101FB00091818881809589238183E981FA81928149
:101FC00088818095892382837894DF91CF911F91B6
:101FD0000F91FF90EF90DF900895EF92FF920F9393
:101FE0001F93CF93DF938C017B0140E065E50E9456
:101FF000B90FE70188E0E80EF11C699140E0C801E3
:102000000E94B90FCE15DF05C1F7DF91CF911F9167
:102010000F91FF90EF900895FC0190810180F28173
:10202000E02DF8948181292F209582238183789453
:102030003DE743E050E0315029F1DA011197F1F723
:1020400080818923C1F3F8948281822382838181F4
:10205000892B81837894ABE7B7E01197F1F7F89477
:10206000818182238183A3E1B1E01197F1F780811F
:10207000982381E009F080E07894E3E6F6E0319778
:10208000F1F7089580E008956F927F928F929F926A
:10209000AF92BF92CF92DF92EF92FF920F931F9376
:1020A000CF93DF93EC017B018A018E819F810E9497
:1020B0000C10811102C090E037C0B7018E819F8162
:1020C0000E94ED0F40E06EEB8E819F810E94B90F60
:1020D0007801680189E0C80ED11CAE80BF8088E01D
:1020E000882E912C712C66246394C5010E94660F82
:1020F00081117628660CE1E08E1A9108B1F7F7019C
:1021000071927F01EC15FD0541F78E819F810E9440
:102110000C10813081F668E0C8010E944F0F91E0F9
:10212000F80120852813C7CF892FDF91CF911F9108
:102130000F91FF90EF90DF90CF90BF90AF909F9066
:102140008F907F906F900895CF93DF9300D000D051
:1021500000D0CDB7DEB7FB012081203199F0AE0170
:102160004F5F5F4F0E944410882331F08D818F3381
:10217000A9F020F48F31A1F080E007C08F3521F065
:102180008F37D1F78CE001C08BE029960FB6F89419
:10219000DEBF0FBECDBFDF91CF9108958AE0F5CFAE
:1021A00089E0F3CFCF93DF93FC01A481B581109731
:1021B00021F480E0DF91CF910895EC01ED91FC9145
:1021C00011970688F789E02DCD01199581111EC060
:1021D000FE01E156FF4F80819181892B51F78DEFF0
:1021E0009FEF918380838C819D81DC01ED91FC9137
:1021F0000680F781E02D19958C819D81DC01ED91A0
:10220000FC910488F589E02D1995D3CF81E0D2CFD8
:10221000EF92FF920F931F93CF93DF93EC018B010B
:102220007A010E94C40BFE01E857FF4F608371835F
:10223000828393838C819D81DC01ED91FC910280EE
:10224000F381E02DA701B801DF91CF911F910F918C
:10225000FF90EF9019941F93CF93DF93EC01162F0B
:102260000E94C40BFE01E857FF4F60837183828395
:1022700093838C819D81DC01ED91FC910190F08133
:10228000E02D612FDF91CF911F9119942091FE06CF
:102290003091FF062817390771F49091FD0680915F
:1022A000FC06981741F0E091FD06F0E0E454F94F88
:1022B000808190E008958FEF9FEF0895EF92FF9255
:1022C0000F931F93CF93DF93DC015C96ED90FC900E
:1022D0005D97E114F10479F481E090E013969C930A
:1022E0008E93129790E080E0DF91CF911F910F9134
:1022F000FF90EF9008955196ED91FC915297509672
:102300008C915097982F90950FB75E962C915E9771
:10231000122F127021FD6095F8942081112319F17C
:10232000282B2083E7012197F1F728E0462F50E082
:10233000308160FF1AC0382B3083E7012197F1F715
:10234000BA0175956795215089F7112381F0808135
:10235000892380830FBF5C968D919C910197F1F743
:1023600081E090E0C1CF2923DCCF3923E5CF9081F4
:10237000892BEFCF2091FE063091FF0628173907F1
:1023800071F48091FC062091FD0690E0805C9F4FE7
:10239000821B910960E470E00E94DD68089590E07E
:1023A00080E008952091FE063091FF062817390736
:1023B000B9F49091FD068091FC06981789F0E091A0
:1023C000FD06F0E0E454F94F80812091FD0630E0F5
:1023D0002F5F3F4F2F7333272093FD0690E0089522
:1023E0008FEF9FEF0895CF93DF93FC01828D938D44
:1023F000892B41F1A091FE06B091FF06AE17BF07F1
:1024000009F1109751F05396CD91DC915497988132
:1024100055968C91809589238883868D8E7F868FB3
:102420001092FC061092FD06F093FF06E093FE0664
:10243000A389B4898C919589892B8C9381E0DF9154
:10244000CF91089580E0FBCF4F925F926F927F9281
:102450008F929F92AF92BF92CF92DF92EF92FF92B4
:102460000F931F93CF93DF9300D000D01F92CDB76F
:10247000DEB76C01E62E8A01DC0112968C91129770
:10248000882321F08D919C910E94F3110E94C40B2E
:102490004B015C01F12CB6E0BF1598F10E94C40B12
:1024A000681979098A099B09F6014380548065807F
:1024B0007680641575058605970530F580819181D4
:1024C000DC01ED91FC910084F185E02D1995181641
:1024D00019060CF7F60180819181DC01ED91FC91E8
:1024E0000284F385E02D1995811102C0FF20B1F21D
:1024F000E1E0F0E0EC0FFD1FEF0DF11D8083F394A0
:10250000CACFB7E0FB1611F080E01CC049818A8178
:10251000840F9927991F2B81820F911D2C81280FE1
:10252000392F311D8D81280F311D8E81820F932F00
:10253000911D9F819813E8CFE412E6CF0115110594
:10254000C1F481E027960FB6F894DEBF0FBECDBF71
:10255000DF91CF911F910F91FF90EF90DF90CF907F
:10256000BF90AF909F908F907F906F905F904F90B3
:102570000895DE011196F80198012B5F3F4F1196E7
:10258000E217F307F1F28C918193F9CF8091000269
:1025900090910102DC01ED91FC910680F781E02D24
:1025A00019948091000290910102DC01ED91FC915F
:1025B0000280F381E02D1994809100029091010234
:1025C000DC01ED91FC910190F081E02D19940895CA
:1025D00090E080E0089590E080E00895CF93DF934D
:1025E0001F921F92CDB7DEB72091E20B3091E30B23
:1025F000CE0101962115310559F4885E9B409A83DE
:10260000898389819A810F900F90DF91CF910895EE
:10261000821B930BE091E40BF091E50B30E020E09E
:10262000309751F02E5F3F4F40815181240F351F6D
:102630000280F381E02DF4CF820F931FE0CFFB01E6
:1026400022813381FC0133832283FB012481FC013D
:10265000248308950895DC01FB01309711F18481F2
:102660008235F9F412962D913C91139782819381D2
:1026700028173907B1F414968C911497823589F490
:1026800017969C911797878198130BC018969C9169
:1026900018978085981305C081E015962C91958137
:1026A000291380E00895CF93DF93EC0161E08F81DF
:1026B0000E943B0B61E070E08D81813011F070E091
:1026C00060E0E881F9810288F389E02DCE01DF9195
:1026D000CF911994FC0115820895DC01FB0130971C
:1026E00061F18481803549F512962D913C911397C3
:1026F000828193812817390701F514968C911497DC
:102700008035D9F418969C9118978085981315C038
:1027100019969C911997818598130FC017969C91D3
:1027200017978781981309C081E01A964D915C91A3
:10273000228533854217530709F080E008950895F4
:10274000089587E00895089580E008958F929F92FC
:10275000AF92BF92CF92DF92EF92FF920F931F93AF
:10276000CF93DF938C01DC015396CD90DD90ED90FB
:10277000FC905697B0EDCB0EB7E0DB1EE11CF11CD0
:102780000E94C40BC616D706E806F90608F056C024
:10279000D8015196ED91FC91C485D5858E819F819C
:1027A0000E940C1040E06CEC8E819F810E94B90F5A
:1027B000488164E48E819F810E94B90F8A818823B9
:1027C00071F1E981E9508EEEC82E82E0D82EE33017
:1027D00038F4F0E0EE0FFF1FE05DFD4FC080D180C8
:1027E0008B818823C1F18881811135C00E94C40B7F
:1027F0004B015C010D2C000CEE08FF088E819F81BF
:102800000E94660F813059F00E94C40B6C197D093B
:102810008E099F09681579058A059B0578F3D8010B
:10282000ED91FC91048CF58DE02DC80119950E9465
:10283000C40BF801638B748B858B968BDF91CF91E2
:102840001F910F91FF90EF90DF90CF90BF90AF90CE
:102850009F908F900895B601DD0C880B990B0E9414
:10286000910BDDCF0C94A6130895DC01FB0130978A
:10287000B1F08481813399F412962D913C91139794
:10288000828193812817390751F414968C911497FB
:10289000813329F481E017962C919781291380E0E8
:1028A000089590E080E008950895DC01FB013097E1
:1028B000E1F084818334C9F412962D913C911397F1
:1028C000828193812817390781F414968C9114978B
:1028D000833459F417969C9117978781981305C0F4
:1028E00081E018962C919085291380E00895FC01D1
:1028F00011861286138614861582089508958033F2
:102900009CF08A3324F08F3524F08B3724F481E057
:10291000089581344CF08B35D4F393ED980F81E01A
:102920009230B0F380E008958B32B9F7F0CFFC011C
:10293000848581110AC0A185B285CD010196928757
:1029400081878C91838781E08487838508951F9395
:10295000CF93DF93EC01162F0E949714811306C0CA
:102960001C8681E0DF91CF911F91089580E0FACF1E
:10297000CF93DF93EC01CE010E9497148B303CF48F
:1029800089304CF4882349F081E0888710C08D306D
:1029900011F08032C9F71C86EECF888581110AC0FC
:1029A00081E090E0C15BDF4F9983888380E0DF9115
:1029B000CF91089582E090E0F5CFFC01892B41F0A2
:1029C00094819F779450923018F48081918108957A
:1029D00090E080E00895FC0185859F01275F3F4FCF
:1029E00085FD02C030E020E0B901CF010895FC016F
:1029F0000E969183808393838283805C994F958325
:102A0000848397838683108685858078858708955B
:102A100084E008958BE0089583E0089585E00895AB
:102A200080E008950895089580E00895FC01828172
:102A300093810097C1F02481358146815781241705
:102A4000350740F0138212820190F081E02D81E081
:102A500080870895A9014F5F5F4F55834483820F9C
:102A6000931FFC01608308959F92AF92BF92CF9213
:102A7000DF92EF92FF920F931F93CF93DF9300D0DB
:102A80001F921F92CDB7DEB78C010E949714D82EEB
:102A9000F8011486F12CE12C70EFC72EC8010E94BA
:102AA0009714F8011486D81609F4C1C0811119C011
:102AB000F801E15BFF4F82E090E09183808380E04A
:102AC0000F900F900F900F900F90DF91CF911F916B
:102AD0000F91FF90EF90DF90CF90BF90AF909F90BD
:102AE00008958C3509F09EC0C8010E949714882370
:102AF000F9F2EAECF3E0853709F088C0F8011486B2
:102B000064E0962EB12CA12CC8010E949714882352
:102B100079F281344CF48053803148F0F801E15B64
:102B2000FF4F83E090E0C9CF8F7D8753F5CF54E00E
:102B3000AA0CBB1C5A95E1F7A82AF80114869A94AE
:102B40009110E2CFC501985D8115944020F4750184
:102B500023E0F222A3CFC5019C5D8115944008F5C6
:102B6000F3E0BF22C701982F8827990F990F8A2970
:102B70009B29B0E0A0E01196198280389105A1054B
:102B8000B10598F48A835E0123E0A20EB11CF50121
:102B900062915F01662309F481CFC8010E94161576
:102BA000F6CFC501B0E0A0E0E7CF282F2F73206853
:102BB0002A8336E0B695A795979587953A95D1F7EC
:102BC0008032910538F4806C8B835E0184E0A80E1E
:102BD000B11CDDCF282F2F7320682B8326E096951C
:102BE00087952A95E1F78031910538F4806E8C83C2
:102BF0005E01E5E0AE0EB11CCACF80688C83CD8249
:102C00005E01F6E0AF0EB11CC2CF329690819923DF
:102C100009F484CF8913F9CF8181882309F47ECF09
:102C2000F8011486682FC8010E94161537CF60E09E
:102C3000C8010E941615F80182819381892B29F41D
:102C4000E15BFF4F84E090E038CF81E039CFEF9235
:102C5000FF920F931F93CF93DF93DC01ED90FC90D5
:102C6000E7012A813B81E881F981E217F30780F4CB
:102C7000B901DF01EB014991BE018D010F5F1F4FCB
:102C80005C91451318C0D8014111F4CF309759F425
:102C9000FC0184819581820F931FD70113969C9329
:102CA0008E931297F901CF01DF91CF911F910F9170
:102CB000FF90EF900895FD014191DF014111FBCF9D
:102CC000D4CFCF93DF93DC01EB01EC81FD818A81CE
:102CD0009B810896E817F90740F481E08887F0E0C7
:102CE000E0E0CF01DF91CF9108953897FD83EC8329
:102CF0003097B9F31296CD91DC911397209791F00C
:102D0000CF018C1B9D0B23E0959587952A95E1F7C4
:102D10008D831396FC93EE9312971582148217827B
:102D20001682DFCF1196FC93EE93F3CF0895CF93E5
:102D3000FC01892B91F094819F77983029F078F4E9
:102D4000992359F0963079F4C1E080819181A28174
:102D5000B381892B8A2B8B2B39F4C0E005C09A30C4
:102D600099F39C3021F0C1E08C2FCF910895C1E000
:102D700020E030E0A90160817181828193810E940D
:102D8000B2638111F1CFE9CFDC01FB013097E1F0B3
:102D900084818234C9F412962D913C9113978281DB
:102DA00093812817390781F414968C9114978234F3
:102DB00059F417969C9117978781981305C081E065
:102DC00018962C919085291380E00895FC011486B3
:102DD0001586168617861186158208954F925F9282
:102DE0006F927F928F929F92AF92BF92CF92DF921B
:102DF000EF92FF920F931F93CF93DF93EC017B0130
:102E000088818B32C1F18D32B9F5219611E088812C
:102E100090ED980F9A3018F08E3209F03AC160E0C8
:102E200070E0CB01FE01219100ED020F0A3030F578
:102E30006A3929E97207820729E1920708F045C03B
:102E4000AAE0B0E09B01AC010E94A167802E912C0A
:102E5000B12CA12C240135014094509460947094BD
:102E6000461657066806790680F1680D791D8A1D99
:102E70009B1DEF01D7CF219610E0C9CF211125C0AE
:102E8000F701248120781123C1F02A602483608314
:102E9000718382839383812FDF91CF911F910F9153
:102EA000FF90EF90DF90CF90BF90AF909F908F906A
:102EB0007F906F905F904F90089528602483608387
:102EC00071838283938311E0E6CF00E0EAE08E2EE7
:102ED000912CA12CB12C61157105F0E88F0791059B
:102EE00040F0A50194010E946067CA01B9010F5F1B
:102EF000F2CFFE01299130ED320F3A3010F40F5F1E
:102F0000F8CF2E32F1F4EF012196FE0121962081B7
:102F100050EDD52ED20E29E02D1598F06C3CECEC3E
:102F20007E07ECE08E07910580F7AAE0B0E09B01F8
:102F3000AC010E94A1676D0D711D811D911D015095
:102F4000E4CF20812F7DD0E0C0E0253409F05DC0C2
:102F500021812D32D9F53296CC24C394DF01D0E003
:102F6000C0E0202F002E000C330B4AE0B42EFD01F0
:102F7000DD9040ED4D0D4A3008F042C0BC9EA001EE
:102F8000BD9E500D1124CD2DDD0CDD0BE097C40F3F
:102F9000D51FAE01420F531F4732510544F3F701CD
:102FA0008481CC20D1F040E050E060E070E8111165
:102FB00003C040E050E0BA0180788C60F701848360
:102FC00040835183628373831C2D65CF2B3219F0AC
:102FD0003196C12CC3CF3296FCCF40E050E060E880
:102FE0007FEF111104C040E050E060E87FE7807897
:102FF0008C60F7018483408351836283738363CF42
:10300000CC2019F0D195C195D1092081211141C061
:10301000C00FD11D07FDDA950E94B7631C161D066F
:1030200004F500E0C0FF0CC024E0029FF001112471
:10303000E159FA4F25913591459154910E941864B8
:10304000D595C7950F5F209769F711119058F70133
:10305000248120782C60248360837183828393830E
:1030600032CFD195C195D10900E0209771F3C0FF0F
:103070000CC024E0029FF0011124E15CFA4F25917D
:103080003591459154910E941864D595C7950F5F6D
:10309000ECCF10E000CFCF92DF92EF92FF92CF9370
:1030A000DF9300D01F921F92CDB7DEB7DC011496DC
:1030B0009C9114979F77963071F0FD01973028F41A
:1030C000943070F590E080E011C09A30D9F09C30D7
:1030D000A1F19830B9F78D919D910D90BC91A02DE3
:1030E000811520E89207A105B10560F70F900F90B8
:1030F0000F900F900F90DF91CF91FF90EF90DF90A6
:10310000CF90089580819181A281B381813020E8A0
:103110009207A105B105B0F6919581959109E6CF89
:10312000808191811D82BE016F5F7F4F0E94EE16EC
:10313000CE0101960E944B18D9CFC080D180E28089
:10314000F38020E030E040E057ECC701B6010E9478
:10315000D86887FDB7CF20E03EEF4FEF56E4C701B8
:10316000B6010E94B26318160CF4ACCFC701B601C9
:103170000E94A268CB01BACFCF92DF92EF92FF926A
:10318000CF93DF9300D01F921F92CDB7DEB7FC0123
:1031900094819F77963039F128F49430C8F590E007
:1031A00080E02AC09830F9F09C30C9F7C080D18007
:1031B000E280F38020E030E0A901C701B6010E945F
:1031C000D86887FDECCF20E03FEF4FE757E4C70119
:1031D000B6010E94B263181614F3C701B6010E942B
:1031E000A968CB0109C080819181A281B381009738
:1031F00021E0A207B10598F60F900F900F900F9065
:103200000F90DF91CF91FF90EF90DF90CF900895D6
:10321000808191811D82BE016F5F7F4F0E94EE16FB
:10322000CE0101960E94BC18E7CFCF92DF92EF92B9
:10323000FF92CF93DF9300D01F921F92CDB7DEB7DE
:10324000FC0194819F77963031F120F49430C8F5D9
:1032500080E02BC09830F9F09C30D1F7C080D1804D
:10326000E280F38020E030E0A901C701B6010E94AE
:10327000D86887FDEDCF20E030E04FE753E4C70189
:10328000B6010E94B26318161CF3C701B6010E9472
:10329000A968862F0AC080819181A281B3818F3F66
:1032A0009105A105B10509F098F60F900F900F90C8
:1032B0000F900F90DF91CF91FF90EF90DF90CF9024
:1032C0000895808191811D82BE016F5F7F4F0E94B2
:1032D000EE16CE0101960E941519E7CF009711F066
:1032E0000C94151980E00895FC0176876587089590
:1032F000DC01ED91FC91068CF78DE02D199591E0A4
:1033000089270895862F089581E08627089521E072
:10331000FC018485883008F020E0822F0895BF9258
:10332000CF92DF92EF92FF920F931F93CF93DF9391
:10333000EC01B62EC72E8D85811105C0CE010E94ED
:103340000C1081110EC01B861D861C8680E0DF914B
:10335000CF911F910F91FF90EF90DF90CF90BF9092
:10336000089540E060EFCE010E94B90F01E0E12C2A
:10337000D12C11E0CE010E94660FF82ECE010E94E2
:10338000660F91E0F91218C0813099F51134D8F226
:10339000DB86D11002C081E08D878B81882399F272
:1033A0002396EB2DFC2DCF01089629912193E81748
:1033B000F907D9F781E0CBCFEE2DF0E0F8120FC07E
:1033C0008B851817A0F4DE01AE0FBF1F13968C91EA
:1033D000802379F4F12C193008F41C87D12EEC0FDE
:1033E000FD1F8381902F9095892383830AC08113C9
:1033F000F1CFFE01EE0DF11D8381802B8383FF242D
:10340000F3946F2DCE010E948A0F1F5F000F11F4FD
:10341000E39401E087E08E1508F0ACCFB7CFEF92D0
:10342000FF920F931F93CF93DF937C018B01EB01EE
:1034300009900020E9F72197C61BD70B83EA9AE091
:103440000E94D210882389F1F70101900020E9F74A
:103450003197EE19FF09CE010796E80FF91FE13801
:10346000F10518F545E050E069EA7AE0C7010E94ED
:103470004308F801DC01A755B54FA8014C0F5D1FAB
:10348000E417F50719F021912D93FACF2597AE0196
:10349000480F591F69EA7AE080E3DF91CF911F91CD
:1034A0000F91FF90EF900C94D00B80E0DF91CF91C3
:1034B0001F910F91FF90EF9008950F931F93CF935B
:1034C000DF93EC018B0183EA9AE00E94D2108823FB
:1034D00041F0B801CE01DF91CF911F910F910C9473
:1034E0000F1A80E0DF91CF911F910F910895CF9334
:1034F000DF93EC0183EA9AE00E94D2108823D9F18D
:10350000FE0101900020E9F7CF018C1B9D0B08966E
:103510008138910580F583EA9AE00E94D2108823D1
:1035200051F18091290B90912A0B019609F190930A
:103530002A0B8093290B8091290B90912A0B909351
:10354000AE0A8093AF0A47E050E069EA7AE0CE0124
:103550000E944308FC01ED55F54F1682AC01445022
:10356000510969EA7AE082E8DF91CF910C94D00B9F
:1035700081E090E0DCCFDF91CF910895FB010190D5
:103580000020E9F73197AF01461B570BDC01ED91A5
:10359000FC910280F381E02D19948F929F92AF925B
:1035A000BF92EF92FF920F931F93CF93DF93CDB70C
:1035B000DEB7A1970FB6F894DEBF0FBECDBF7C017A
:1035C000FA01CB0119A2223008F42AE08E010F5D26
:1035D0001F4F822E912CB12CA12CBF01A50194016B
:1035E0000E946067F901CA016A300CF5605DD8017C
:1035F0006E938D01232B242B252B79F790E080E00F
:10360000109721F0BD01C7010E94BE1AA1960FB606
:10361000F894DEBF0FBECDBFDF91CF911F910F9108
:10362000FF90EF90BF90AF909F908F900895695C4E
:10363000DECFAB0170E060E02AE00C94CD1A8F92EF
:103640009F92AF92BF92CF92DF92EF92FF920F9331
:103650001F93CF93DF937C018B016C0182E0C80E36
:10366000D11C4701E5E08E0E911CD0E0C0E0F601D0
:1036700041916F0150E070E060E02AE0C8010E94D3
:10368000CD1A5C016EE2C8010E94F3088A0D9B1DF1
:10369000C80FD91FC814D90451F7F701458150E06C
:1036A00070E060E02AE0C8010E94CD1A8C0F9D1FD7
:1036B000DF91CF911F910F91FF90EF90DF90CF900E
:1036C000BF90AF909F908F9008956BED73E00C9436
:1036D000BE1ACF92DF92EF92FF92CF93DF936C01ED
:1036E000990FEE08FF08F7FE21C06DE28FE299E026
:1036F0000E94F308EC0144275527BA014C195D09D3
:103700006E097F092AE08FE299E00E94CD1AC80F66
:10371000D91F8FE299E00E94651B8C0F9D1FDF91DE
:10372000CF91FF90EF90DF90CF9008952AE0B701FE
:10373000A6018FE299E00E94CD1AEC01EACF611553
:10374000710511F00C94BE1A90E080E00895CF93BB
:10375000DF93EC0180915607909157070097B1F0E5
:1037600060E20E94F3086E857F85809156079091F4
:1037700057076115710521F0DF91CF910C949F1BC4
:1037800064E27BE0DF91CF910C94FA08DF91CF9156
:1037900008950F931F93CF93DF938C018091560769
:1037A00090915707009711F1EB0162E37BE00E94D3
:1037B000FA08C8010E94A71B6EE2809156079091FB
:1037C00057070E94F308BE01809156079091570752
:1037D0000E94FA086FE27BE08091560790915707AC
:1037E000DF91CF911F910F910C94FA08DF91CF9147
:1037F0001F910F91089569E37BE00C94C91B1F93FF
:10380000CF93DF93EC018091560790915707009773
:1038100009F464C0162F66E17BE0112341F00E9499
:10382000651B6CE17BE080915607909157070E94E1
:10383000FA088E859F85892B79F060E28091560782
:10384000909157070E94F3086E857F8580915607F7
:10385000909157070E949F1B60E17BE08091560783
:10386000909157070E94FA086885798580915607DC
:10387000909157070E94191B6AE07BE080915607E0
:10388000909157070E94FA086A857B8580915607B8
:10389000909157070E94191B1123B9F067E07BE054
:1038A00080915607909157070E94FA086E817F8198
:1038B00080915607909157070E949F1B67E2809165
:1038C0005607909157070E94F308809156079091F0
:1038D0005707DF91CF911F910C94651BDF91CF911A
:1038E0001F910895AF92BF92CF92DF92EF92FF9215
:1038F0000F931F93CF93DF93E0915607F0915707F3
:10390000EF2B09F4ADC059016A01EC010E94C91BFB
:1039100069E070E180915607909157070E94FA087C
:10392000B60180915607909157070E94191B8C850C
:103930008823C9F06DEF7FE080915607909157077B
:103940000E94FA08B6016F5F7F4F809156079091F1
:1039500057070E94191B6AEF7FE0809156079091EC
:1039600057070E94FA08E114F104B9F06AEE7FE00B
:1039700080915607909157070E94FA08B7018091ED
:103980005607909157070E94191B65ED7FE08091C3
:103990005607909157070E94FA088091040260E050
:1039A0008823B1F180915607909157070E94651BBB
:1039B0006DEC7FE080915607909157070E94FA08BE
:1039C000A114B10419F40115110501F16DEB7FE0AB
:1039D00080915607909157070E94FA08A114B104EC
:1039E00021F167E280915607909157070E94F308F2
:1039F000B50180915607909157070E949F1B67E27F
:103A000080915607909157070E94F3086091040235
:103A1000CE01DF91CF911F910F91FF90EF90DF903A
:103A2000CF90BF90AF900C94FF1B0115110571F35F
:103A300069EB7FE080915607909157070E94FA0842
:103A4000B80180915607909157070E94FA086EEDD1
:103A500073E080915607909157070E949F1BD6CF25
:103A6000DF91CF911F910F91FF90EF90DF90CF905A
:103A7000BF90AF900895CF93DF93FC018485882396
:103A800079F120853185A681B781A20FB31F232B41
:103A900029F19C91992311F191E095871C92C6819F
:103AA000D781DE010D900020E9F71197AC1BBD0B0B
:103AB000B387A2878823A1F080915607909157077A
:103AC000009771F0EF016AE47AE00E94FA086091D1
:103AD0000402CE01DF91CF910C94FF1B80E0DECF7A
:103AE000DF91CF9108950F931F93CF93DF93EC0154
:103AF0008B010E943B1D6E817F816115710539F03C
:103B0000C801DF91CF911F910F910C94BE1A90E0E4
:103B100080E0DF91CF911F910F910895EF92FF9276
:103B20000F931F93CF93DF93CDB7DEB7C456D10960
:103B30000FB6F894DEBF0FBECDBF8C0161EE73E00F
:103B40008FE299E00E949F1B0E94EE120E94691B67
:103B5000063011050CF04AC0E0909F0AF090A00AD0
:103B6000C7010E943B1D81E0F70184876681778150
:103B70006115710521F08FE299E00E94BE1A8FE273
:103B800099E00E94651BE0909F0AF090A00AC7018F
:103B90000E943B1D81E0F7018487E680F78083EA7D
:103BA0009AE00E94D210882309F1000F111FF8013A
:103BB000E65BF44F81818F9380818F938091680BB6
:103BC0001F928F9385EE93E09F938F938E010F5FEB
:103BD0001F4F1F930F930E94336AB701C8010E94C1
:103BE0000F1A0FB6F894DEBF0FBECDBFE0919F0A4B
:103BF000F091A00A138612860680F781E02D1082CC
:103C000068EF73E08FE299E00E949F1B0E94EE1222
:103C10000E94691BCC59DF4F0FB6F894DEBF0FBE70
:103C2000CDBFDF91CF911F910F91FF90EF9008953D
:103C3000AF92BF92CF92DF92EF92FF920F931F93BA
:103C4000CF93DF93CDB7DEB7C456D1090FB6F89442
:103C5000DEBF0FBECDBFD62EC72E5A019F938F93C6
:103C60001F9280E58F930CEF13E01F930F938EEF5D
:103C700093E09F938F9383E194E09F938F93CE0182
:103C800001967C019F938F930E94336A0FB6F8943C
:103C9000DEBF0FBECDBF92E0A916B10489F183E06B
:103CA000A816B104A1F1AA94AB2819F11F930F93A0
:103CB000FF92EF928EE194E09F938F93CF92DF92E9
:103CC0000E94336A0FB6F894DEBF0FBECDBFCC5949
:103CD000DF4F0FB6F894DEBF0FBECDBFDF91CF919F
:103CE0001F910F91FF90EF90DF90CF90BF90AF901A
:103CF00008951F930F93FF92EF928AE294E0DCCF36
:103D00001F930F93FF92EF9286E394E0D5CF1F931A
:103D10000F93FF92EF9280E494E0CECF0F931F9326
:103D2000CF93DF93CDB7DEB7C456D1090FB6F89461
:103D3000DEBF0FBECDBF8C01000F111FE091970BAE
:103D4000F091980BE00FF11F0190F081E02D84813C
:103D5000803509F05BC050E040E0BE016F5F7F4FEF
:103D6000828193810E94181ECE0101960E94771ACB
:103D7000E091970BF091980BE00FF11F0190F0810B
:103D8000E02D41E050E0BE016F5F7F4F8281938163
:103D90000E94181ECE0101960E94771AE091970B9F
:103DA000F091980BE00FF11F0190F081E02D42E0BF
:103DB00050E0BE016F5F7F4F828193810E94181E89
:103DC000CE0101960E94771A8091970B9091980BE3
:103DD000080F191FD801ED91FC9143E050E0BE019E
:103DE0006F5F7F4F828193810E94181ECE010196E2
:103DF0000E94771ACC59DF4F0FB6F894DEBF0FBE82
:103E0000CDBFDF91CF911F910F9108958334A1F120
:103E100030F5813371F12BE434E0823459F793812A
:103E20009F9392819F931F928F938CEF93E09F9328
:103E30008F933F932F9383E194E09F938F938E0111
:103E40000F5F1F4F1F930F930E94336AC8010E9498
:103E5000771A0FB6F894DEBF0FBECDBFCBCF823539
:103E600029F024E834E08435D1F2C4CF2DE534E0E4
:103E7000D6CF2EE634E0D3CF25E934E0D0CFAF92D1
:103E8000BF92CF92DF92EF92FF920F931F93CF9347
:103E9000DF93EC016B017A010E943B1DC114D10438
:103EA00021F581E08D878091560790915707892BE6
:103EB00081F0CE010E94FB1B6EE97FE080915607E6
:103EC000909157070E94FA0860910402CE010E9467
:103ED000FF1BCE01DF91CF911F910F91FF90EF90CB
:103EE000DF90CF90BF90AF900895E114F10489F373
:103EF000F60190E080E02191222321F00196E8165E
:103F0000F906C8F78E159F0508F04CC081E08D8733
:103F10008091560790915707892BD9F2CE010E94C4
:103F2000FB1B65E97FE080915607909157070E943F
:103F3000FA08B70180915607909157070E94191B04
:103F400060E87FE080915607909157070E94FA0839
:103F500080910402882309F4B7CF8091560790918D
:103F600057070E94651B68E77FE080915607909194
:103F700057070E94FA0867E67FE080915607909104
:103F800057070E94FA08B60180915607909157078B
:103F90000E949F1B67E280915607909157070E94ED
:103FA000F30892CF8A859B855C01AE0CBF1C2885E7
:103FB00039852A153B0560F481E08D8710E000E02B
:103FC0009601A50160E67FE0CE010E94721C81CFC0
:103FD0002E813F81A701B601820F931F0E94FC69C9
:103FE000BB86AA868E819F81A80EB91EF50110821C
:103FF00070CF0F931F93CF93DF938C01EB01CB0115
:104000000E943B1D4A855B856E817F81C801DF91DF
:10401000CF911F910F910C943F1F0F931F93CF933C
:10402000DF93EC018B010E943B1D01151105F1F49A
:1040300081E08D878091560790915707892B81F0F9
:10404000CE010E94FB1B65EE7AE0809156079091AD
:1040500057070E94FA0860910402CE010E94FF1BDC
:10406000CE01DF91CF911F910F910895F80101903A
:104070000020E9F73197AF01401B510BB801CE0189
:10408000DF91CF911F910F910C943F1FBC01809144
:104090009F0A9091A00A0E940D208DE99AE0089550
:1040A0000C941F61FF920F931F93CF93DF93F82E11
:1040B0008091990B90919A0B0F2D10E0892BC9F0EC
:1040C000D0E0C0E08091990B90919A0BC017D10776
:1040D00074F49E01220F331F820F931FFC01808115
:1040E0009181009711F00E941F612196EBCF0E94F1
:1040F0001F61F11012C010929A0B1092990B10933D
:104100009E0B00939D0B8091990B90919A0BDF91E0
:10411000CF911F910F91FF900895C801880F991FAB
:104120000E94836090939A0B8093990BE8CF1F9322
:10413000CF93DF93182F8091970B9091980B892B39
:1041400011F1D0E0C0E08091970B9091980B2091F5
:104150009B0B30919C0BC217D3079CF49E01220F3E
:10416000331F820F931FDC018D919C91009739F0D2
:10417000DC01ED91FC910688F789E02D19952196D7
:10418000E2CF0E941F61C12FD0E0111110C0109228
:10419000980B1092970BD0939C0BC0939B0B809124
:1041A000970B9091980BDF91CF911F910895CE01BD
:1041B000880F991F0E9483609093980B8093970BB0
:1041C000EACFFC0180819181009711F00C941F616E
:1041D00008958F929F92AF92BF92CF92EF92FF92EB
:1041E0000F931F93CF93DF93EC0159011D821C8223
:1041F0008CE492E09983888388E592E09B838A83AC
:104200001D861F870E87EC861C8A4115510509F40F
:10421000C2C12115310529F0FF24F3944217530739
:1042200009F0F12CEE20E9F1C1103BC062307105BC
:10423000A1F58BEB96E09F838E8382E090E09987D7
:1042400088871B861A861092BB0681E08D87809135
:10425000560790915707009709F4E1C06DE17AE0A5
:104260000E94FA08CE010E94A71B69E079E08091C4
:104270005607909157070E94FA0860910402CE01F8
:10428000DF91CF911F910F91FF90EF90CF90BF9052
:10429000AF909F908F900C94FF1B4115510509F42E
:1042A0007CC15F834E83CB0101978E3F9F4F08F403
:1042B00067C0EE2009F447C0CC2009F444C0672B46
:1042C000E9F48BEB96E09F838E83198618861B8614
:1042D0001A861092BB0681E08D87809156079091D7
:1042E0005707009709F49BC06BED78E00E94FA082D
:1042F000CE010E94A71B6BEA78E0B9CFFA010190CA
:104300000020E9F73197E41BF50BF987E887F110F6
:1043100004C01B861A86FA011082A114B104D9F5D3
:1043200081E08D878091560790915707009709F497
:1043300076C069E078E00E94FA08CE010E94A71BCF
:1043400065ED77E094CF8BEB96E09F838E831986A3
:1043500018861B861A861092BB0681E08D87809195
:10436000560790915707009709F459C065E878E01F
:104370000E94FA08CE010E94A71B63E678E077CF7F
:104380006F3F8FE7780710F06EEF7FE7615071099C
:1043900079876887BCCF88849984C4010E94836030
:1043A0008C010E941F61012B09F045C081E08D87BF
:1043B0001B861A86EE81FF811082809156079091AC
:1043C0005707009731F162EC77E00E94FA08CE01BE
:1043D0000E94A71B6DEA77E08091560790915707DE
:1043E0000E94FA0868857985809156079091570751
:1043F0000E94191B6EE677E080915607909157074F
:104400000E94FA081986188660910402CE010E9463
:10441000FF1B8BEB96E09F838E8319861886DF91B6
:10442000CF911F910F91FF90EF90CF90BF90AF90E1
:104430009F908F900895F50110E000E0819188230E
:1044400009F491C00F5F1F4F80169106B8F7FF2047
:1044500041F09B868A868E819F81880E991EF40189
:10446000108281E08D8780915607909157070097C1
:10447000B1F2F11048C06BE577E00E94FA08CE0176
:104480000E94A71B61E477E080915607909157073F
:104490000E94FA08B80180915607909157070E9430
:1044A000191B6DE277E080915607909157070E94A3
:1044B000FA0880910402882309F4DFCE8091560720
:1044C000909157070E94651B65E277E0809156073F
:1044D000909157070E94FA086CE077E080915607A8
:1044E000909157070E94FA08B50180915607909164
:1044F00057070E949F1B67E28091560790915707CC
:104500000E94F308BACE60EE76E0C11002C06AEBFA
:1045100076E00E94FA08CE010E94A71B6BE876E0C5
:1045200080915607909157070E94FA08B801809130
:104530005607909157070E94191B80910402882307
:1045400009F49BCE80915607909157070E94651BF6
:1045500063E876E080915607909157070E94FA0829
:1045600067E676E0BBCFF11006C0A801B5018E81E9
:104570009F810E94FC691B870A878E819F81080F9B
:10458000191FF8011082EE81FF8188859985E80F57
:10459000F91F108244CFE1101DC08BEB96E09F8382
:1045A0008E83198618861B861A861092BB0681E0B8
:1045B0008D878091560790915707009709F42FCF68
:1045C00060E578E00E94FA08CE010E94A71B6CE12A
:1045D00078E04DCEC110E1CF62307105F1F629CE01
:1045E0004F925F926F927F92AF92BF92CF92EF9273
:1045F000FF920F931F93CF93DF93CDB7DEB7EC9766
:104600000FB6F894DEBF0FBECDBF5C012A013B019F
:104610000E943B1DCC24C394E12C0AEA14E02AED4D
:1046200033E0AE014F5F5F4F65E270E0CE018696EA
:104630000E94E92077FE47C06DE2CE0188960E9475
:10464000F3088C0144275527BA0144195509660916
:1046500077092AE0CE0188960E94CD1A080F191F0B
:10466000F50162847384CE0186960E943B1D48A9A1
:1046700059A9460D571DF501808591858417950729
:1046800058F581E085872CA53DA5F12CE12C10E0A3
:1046900000E06AE57FE0C5010E94721CC801EC964B
:1046A0000FB6F894DEBF0FBECDBFDF91CF911F9143
:1046B0000F91FF90EF90CF90BF90AF907F906F9051
:1046C0005F904F9008952AE0B301A201CE01889631
:1046D0000E94CD1A8C01C4CFBE016A5D7F4FC50117
:1046E0000E94F91FDBCF4F925F926F927F92AF9241
:1046F000BF92CF92EF92FF920F931F93CF93DF93CE
:10470000CDB7DEB7EC970FB6F894DEBF0FBECDBFC6
:104710005C012A013B010E943B1DCC24C394E12C87
:104720000AEA14E02AED33E0AE014F5F5F4F65E225
:1047300070E0CE0186960E94E9202AE0B301A20132
:10474000CE0188960E94CD1A7C01F5010285138561
:10475000CE0186960E943B1D48A959A9400F511FC2
:10476000F501808591858417950710F581E085878F
:104770002CA53DA5F12CE12C10E000E064E57FE0E4
:10478000C5010E94721CC701EC960FB6F894DEBFFB
:104790000FBECDBFDF91CF911F910F91FF90EF9092
:1047A000CF90BF90AF907F906F905F904F900895A3
:1047B000BE016A5D7F4FC5010E94F91FE4CF8F9251
:1047C0009F92AF92BF92CF92EF920F931F93CF938E
:1047D000DF93CDB7DEB7A0970FB6F894DEBF0FBE5C
:1047E000CDBF5C014B01CC24C394E12C0AEA14E058
:1047F0002AED33E0AE01485E5F4F69E070E0CE0124
:1048000001960E94E920A40170E060E0CE010196CB
:104810000E947323BE016F5F7F4FC5010E94F91F85
:10482000A0960FB6F894DEBF0FBECDBFDF91CF913B
:104830001F910F91EF90CF90BF90AF909F908F906E
:104840000895BC0180919F0A9091A00A0E94DF23E5
:104850008DE99AE008958F929F92AF92BF92CF9286
:10486000EF920F931F93CF93DF93CDB7DEB7A0974F
:104870000FB6F894DEBF0FBECDBF5C014B01CC2458
:10488000C394E12C0AEA14E02AED33E0AE01485E5D
:104890005F4F69E070E0CE0101960E94E920A4011B
:1048A000990C660B770BCE0101960E94F022BE0197
:1048B0006F5F7F4FC5010E94F91FA0960FB6F89455
:1048C000DEBF0FBECDBFDF91CF911F910F91EF9053
:1048D000CF90BF90AF909F908F900895BC01809132
:1048E0009F0A9091A00A0E942B248DE99AE00895D6
:1048F000AF92BF92CF92EF92FF920F931F93CF93FD
:10490000DF93CDB7DEB76D970FB6F894DEBF0FBE5D
:10491000CDBF5C01F62ECC24C394E12C0AEA14E04E
:104920002AED33E0AE01485E5F4F66E070E0CE01F5
:1049300001960E94E9204F2D50E070E060E0CE012A
:1049400001960E947323BE016F5F7F4FC5010E94D5
:10495000F91F6D960FB6F894DEBF0FBECDBFDF9185
:10496000CF911F910F91FF90EF90CF90BF90AF909C
:1049700008950C941F610C941F610C941F610C949A
:104980001F610C941F610C941F610F931F93CF93B1
:10499000DF93EC0188819981009759F02A813B814E
:1049A0002617370730F081E0DF91CF911F910F91EB
:1049B00008958B016F5F7F4F0E940D69009759F03A
:1049C000998388831B830A832C813D81232B59F78C
:1049D000FC011082E8CF80E0E7CFEF92FF920F93C7
:1049E0001F93CF93DF93EC017B018A01BA010E94F0
:1049F000C52428813981811114C02115310519F090
:104A0000C9010E941F61198218821D821C821B82AB
:104A10001A82CE01DF91CF911F910F91FF90EF90FD
:104A200008951D830C83B701C9010E941E6AF1CF4E
:104A3000CF92DF92EF92FF920F931F93CF93DF936A
:104A40008C01DC019296ED91FC91E80FF91F128226
:104A50006C01B2E0CB0ED11CC114D10431F1F601CE
:104A600001900020E9F73197EC19FD09F1F0DC0124
:104A7000ED90FC90D7011496CD91DC91CE0FDF1F05
:104A8000BE01C7010E94C524882379F0F701208167
:104A9000318184819581B601820F931F0E941E6A25
:104AA000D7011596DC93CE931497F80113A212A2A6
:104AB000DF91CF911F910F91FF90EF90DF90CF90FA
:104AC0000895CF93DF93EC018AA19BA19C012F5FF6
:104AD0003F4F3BA32AA3FE01E80FF91F6283029612
:104AE000809718F0CE010E9418258CA19DA10196F7
:104AF0009DA38CA3DF91CF910895EF92FF920F9326
:104B00001F93CF93DF93EC017B0162E20E9461254A
:104B10008701F80161918F01662391F0EAECF3E0DF
:104B2000F280FF2049F0329681816813F9CF6CE55D
:104B3000CE010E9461256F2DCE010E946125E9CF33
:104B400062E2CE01DF91CF911F910F91FF90EF9024
:104B50000C946125CF92DF92EF92FF920F931F93F7
:104B6000CF93DF93EC016A018B017B01E40EF51E0C
:104B70000E151F05A9F0F80121918F018AA19BA1B3
:104B8000AC014F5F5F4F5BA34AA3FE01E80FF91F23
:104B900022830296809760F3CE010E941825E8CF09
:104BA0004CA15DA14C0D5D1D5DA34CA3DF91CF9188
:104BB0001F910F91FF90EF90DF90CF900895EF92AB
:104BC000FF920F931F93CF93DF93CDB7DEB7669716
:104BD0000FB6F894DEBF0FBECDBF8C01CB01FE0136
:104BE00077969F014AE0E42EF12CB7010E94DD6820
:104BF000805D8293CB010097C1F7A9014E1B5F0B2B
:104C0000BF01C8010E94AA2566960FB6F894DEBFC0
:104C10000FBECDBFDF91CF911F910F91FF90EF900D
:104C200008958F929F92AF92BF92CF92DF92EF92B0
:104C3000FF920F931F93CF93DF93CDB7DEB76697A5
:104C40000FB6F894DEBF0FBECDBF6C018E01095EBA
:104C50001F4F78018AE0882E912CA12CB12CCB011A
:104C6000BA01A50194010E946067942F852F605DB1
:104C7000F80162938F01A901692F782F4115510521
:104C80006105710561F7A7014E1B5F0BBF01C601EE
:104C90000E94AA2566960FB6F894DEBF0FBECDBF60
:104CA000DF91CF911F910F91FF90EF90DF90CF9008
:104CB000BF90AF909F908F900895FB0101900020CE
:104CC000E9F73197AF01461B570B0C94AA252F9299
:104CD0003F924F925F926F927F928F929F92AF928C
:104CE000BF92CF92DF92EF92FF920F931F93CF93D9
:104CF000DF93CDB7DEB766970FB6F894DEBF0FBE71
:104D0000CDBF8C011B01DC0114968C9114978F7719
:104D1000863009F470C278F48230B0F0843008F044
:104D200051C212964D915C9113976D917C91C10186
:104D30000E94AA2516C28C30B1F160F4883009F4C3
:104D400055C28A3009F444C26FEA74E0C1010E947E
:104D50005D2607C2803209F408C28034A9F76BE5EA
:104D6000C1010E946125F801008111810115110521
:104D700009F4F3C1B101C8010E946726D801159654
:104D80008C91882309F4E9C1B8E08B02C001112499
:104D9000080F191F0115110509F4DFC16CE2C101EB
:104DA0000E946125E3CFF801C080D180E280F380CA
:104DB000A7019601C701B6010E94B263882331F0B2
:104DC0006FEA74E0C1010E945D269FC120E030E0DF
:104DD000A901C701B6010E94B263882371F0A7013F
:104DE0009601C701B6010E94C4679B01AC01C701CF
:104DF000B6010E94B263882319F320E030E0A901D4
:104E0000C701B6010E94B26387FF08C06DE2C1010D
:104E10000E946125F7FAF094F7F8F09420E836E95B
:104E200048E15BE4C701B6010E94D86887FD81C0F4
:104E300064E1A62EB12C00E210E01A8A198AF5016D
:104E4000E159FA4F2591359145915491C701B60129
:104E50000E94D86887FD13C0F501E15CFA4F2591E7
:104E6000359145915491C701B6010E9418646B01B8
:104E70007C0129893A89200F311F3A8B298B15959E
:104E8000079534E0A31AB1088CEFA8168FEFB80687
:104E9000B1F655245A9420E030E0A901C701B601CB
:104EA0000E94D86818160CF04BC02CEA35EC47E28B
:104EB00057E3C701B6010E94B26318160CF440C054
:104EC000A52DB4E0AB02C0011124B12CA12CFC0132
:104ED000E95AFA4F3F019C0121593A4F49013FEFEE
:104EE000531671F1F301EA0DFB1D659175918591E2
:104EF0009491A70196010E94D86818169CF4F401B9
:104F0000EA0DFB1D2591359145915491C701B601DC
:104F10000E9418646B017C0189899A89801B910B1E
:104F20009A8B898B159507955A9494E0A91AB10824
:104F3000D6CF00E210E045E0542E1A8A198AABCF92
:104F4000C701B6010E94A9684B015C012B013C011D
:104F500006E080E492E4AFE0B0E08B8B9C8BAD8BFD
:104F6000BE8B102F01509AE0491651046104710460
:104F7000C8F06B897C898D899E892AE030E040E009
:104F800050E00E9460672B8B3C8B4D8B5E8BC30186
:104F9000B2012AE030E040E050E00E946067290161
:104FA0003A01DFCFC501B4010E94B7639B01AC0198
:104FB000C701B6010E94C3676B017C016B897C89C4
:104FC0008D899E890E94B7639B01AC01C701B60120
:104FD0000E9418642B013C010E94A9686B017C01AE
:104FE0000E94B7639B01AC01C301B2010E94C36779
:104FF0009B01AC010E94C4670E94A968C60ED71E1F
:10500000E81EF91E8B899C89AD89BE89C816D90610
:10501000EA06FB06D8F09FEF891A990AA90AB90A8D
:10502000A989BA89AB2B39F1BAE08B169104A10496
:10503000B10408F1E989FA893196FA8BE98BC12C20
:10504000D12C7601812C912C540183949AE0492E25
:10505000512C612C712CC701B601A30192010E9451
:105060006067672B682B692B51F4111644F46901B2
:105070007A011150F0CFC12CD12C7601E7CFB501C8
:10508000A401C1010E941126112371F14E01F1E129
:105090008F0E911C012F54018AE0482E512C612C57
:1050A000712C015068F0C701B601A30192010E9462
:1050B0006067605DD4016E934D0169017A01F1CFA3
:1050C000812F90E0BC0160957095F501E81BF90B0C
:1050D00031978EE2808344275527461B570B6A0D74
:1050E0007B1DC1010E94AA25E989FA89F7FF2AC020
:1050F00064EB74E0C1010E945D2669897A8971952B
:1051000061957109C1010E94DF25D10194968D91AD
:105110009C9166960FB6F894DEBF0FBECDBFDF91AF
:10512000CF911F910F91FF90EF90DF90CF90BF90A4
:10513000AF909F908F907F906F905F904F903F9037
:105140002F90089529893A89232BF9F265E6C10148
:105150000E94612569897A89D5CF6DE5C1010E94D8
:105160006125F10184A195A1D4CF6BE7C1010E9413
:105170006125D8010D911C910115110509F1F80166
:1051800066817781C1010E947D256AE3C1010E9489
:105190006125B101C8010E946726D80115968C913E
:1051A000882371F0B8E08B02C0011124080F191F89
:1051B0000115110529F06CE2C1010E946125DCCFC7
:1051C0006DE7CCCF6D917C91C1010E947D25C9CF47
:1051D000CD90DD90ED90FC906DE2C1010E946125C3
:1051E000B701A601C1010E941126BBCF4D915D916F
:1051F0006D917C91F7CFF80180819181A281B3817B
:1052000067EB74E0892B8A2B8B2B09F0DBCD6CEBE1
:1052100074E0D8CD0E94EE69AF92BF92CF92DF9238
:10522000EF92FF920F931F93CF93DF9300D01F92C3
:10523000CDB7DEB78C016B017A01809153078333C0
:10524000E9F45B016801C40ED51EC016D106A9F1B0
:105250000E94860D8FE00E94910D812F0E94910D7A
:10526000802F0E94910D0F5F1F4F80E00E94910DD3
:10527000F50181935F010E947C0DE7CF843369F5CE
:105280000E94860D19830A838F2D8F778B83EC8282
:1052900064E070E0CE0101960E94620DA70170E00B
:1052A00060E0C6010E940E6AE114F10421F0B7012A
:1052B000C6010E94620D0E947C0DC7010F900F90E5
:1052C0000F900F90DF91CF911F910F91FF90EF9072
:1052D000DF90CF90BF90AF9008950E94860D0F3F52
:1052E000110509F030F419820A831B8263E070E033
:1052F000D1CF17FD0BC019820A8333E016950795AD
:105300003A95E1F7007E08600B83F0CFC80126E0F4
:10531000969587952A95E1F7807E19830A83011572
:10532000104C18F480618B83E1CF8861FCCFCF9360
:10533000DF931F92CDB7DEB72091540730E0322FB4
:105340002227260F371F90E0982F882741E050E052
:10535000BE016F5F7F4F820F931F0E940C298981CE
:105360000F90DF91CF910895CF93C82F462F61E022
:1053700070E00E94A40E61E070E08C2F0E949729DB
:105380008111F9CFCF910895CF93C82F80E591E097
:105390000E94650868E070E08C2FCF910C94B429CE
:1053A000CF93C82F80E591E00E94650860E170E02E
:1053B0008C2FCF910C94B429CF93DF93EC01888D7F
:1053C000883020F40E94D02988E0888FDF91CF9127
:1053D0000895CF93C82F80E591E00E94650863E0AF
:1053E00070E08C2FCF910C949729CF93DF93EC0131
:1053F0008C858830D0F40E94E929843189F0882393
:1054000079F0883169F021E08C3159F4E881F98133
:105410000084F185E02DCE01199521E0892B09F456
:1054200020E0822FDF91CF91089580E0FBCFCF92D3
:10543000DF92EF92FF92CF93DF93EC018C8588305F
:1054400068F40E94C4290E94C40B6B017C018C8506
:105450000E94E929811109C088E08C87DF91CF91F2
:10546000FF90EF90DF90CF90089561E070E080E0D2
:1054700090E00E94910B0E94C40BAB01BC014C193F
:105480005D096E097F098D859E85B0E0A0E0481713
:1054900059076A077B07D8F28C850E94D029DCCF98
:1054A000CF93FC01C08D80E591E00E94650860E229
:1054B00070E08C2F0E94B42962E070E08C2F0E9473
:1054C000972984FD16C062E070E08C2F0E94972916
:1054D00083FF0AC048E162E070E08C2F0E94A40EB6
:1054E00080E090E0CF91089580E591E00E9465080A
:1054F000E3CF40E162E070E08C2F0E94A40E81E0D7
:10550000F0CFCF93DF931F92CDB7DEB741E050E0ED
:10551000BE016F5F7F4F90E080E00E940C2989817F
:105520000F90DF91CF910895CF93DF93C4E1D0E046
:105530000E94812A882361F061E070E080E090E0C1
:105540000E94910B2197A1F780E0DF91CF91089500
:1055500081E0FBCFCF92DF92EF92FF920F931F93E8
:10556000CF93DF93CDB7DEB7C454D1090FB6F8940B
:10557000DEBF0FBECDBFFC0182819381A481B581C6
:1055800023968CAF9DAFAEAFBFAF239721E023969C
:105590002FAF239723964CAD5DAD6EAD7FAD2397B6
:1055A0004BAB5CAB6DAB7EAB89AF9AAFABAFBCAF77
:1055B0008DA79EA7AFA7B8AB28AB4DA55EA56FA5DD
:1055C00078A94FA358A769A77AA72EAB4BA95CA9C6
:1055D0006DA97EA949A35AA36BA37CA38B8F9C8F33
:1055E000AD8FBE8F48EC53E05C8B4B8B3FEF3D8B18
:1055F0003E8B3F8B188E5E874D872AA7CFA0D8A4FD
:10560000E9A4FAA4CF86D88AE98AFA8A2CA309A148
:105610001AA12BA13CA109871A872B873C875A83A3
:1056200049838B839C83AD83BE8380915507811111
:105630009DC060E372E080E090E00E94910B1FB794
:10564000F89480915207811127C0E0E5FEE0849133
:10565000EAE0FEE09491E82FF0E0EE0FFF1FE55442
:10566000F24FA591B491EC91E92321F461E085E337
:105670000E940D0B61E085E30E943B0B8CB58061BD
:105680008CBD8CB580648CBD61E084E30E943B0BD3
:1056900061E083E30E943B0B809152078F5F809310
:1056A00052071FBFE5E2FEE0E491F0E0EE0FFF1FBE
:1056B000EF55F24F85919491909351078093500745
:1056C000EFEDFDE0E491E0934F0761E08AE00E9496
:1056D0003B0B0E947C0D80E591E00E94650884E30D
:1056E0008093530780E80E94460E0E94942A8823E4
:1056F00009F472C088E00E94460E0E94812A883018
:1057000009F06AC080E10E94460E0E94812A803121
:1057100009F062C080E00E94460E0E94812A182F84
:1057200081115AC041E050E0BE016D5B7F4F8FE1B7
:1057300090E00E940C2924968FAD2497833009F0C5
:105740004BC080E48093540742E06EE170E0812F0B
:105750000E94A40E42E06FE170E0812F0E94A40E2F
:105760001F5F183089F781E08093550780E591E04D
:105770000E94650846E050E063E77BE089E090E046
:105780000E94980D44E050E0BE016D5F7F4F8FE0B6
:1057900090E00E94980D44E050E0BE01615F7F4FB1
:1057A00081E090E00E94980D44E050E0BE016B5E05
:1057B0007F4F85E090E00E94980D81E08C8789857D
:1057C0009A85AB85BC858093EC099093ED09A093F5
:1057D000EE09B093EF096FC087E38093530780E829
:1057E0000E94460E0E94942A882339F188E00E9484
:1057F000460E0E94812A883001F580E10E94460E03
:105800000E94812A182F8031C1F480E00E94460E48
:105810000E94812A811111C041E050E0BE016D5B00
:105820007F4F89E390E00E940C2924968FAD249746
:10583000843019F41093540796CF83E38093530771
:1058400080E80E94460E0E94942A882391F180E10C
:105850000E94460E0E94812A803159F582E10E9401
:10586000460E0E94812A823121F580E00E94460E78
:105870000E94812A81111DC084E08093540715E5A0
:1058800025961FAF259741E050E0BE016C5B7F4F2E
:105890008BE190E00E94980D24961FAF249741E081
:1058A00050E0BE016D5B7F4F8AE190E00E94980D51
:1058B0005ACF10925307CC5BDF4F0FB6F894DEBF80
:1058C0000FBECDBFDF91CF911F910F91FF90EF9051
:1058D000DF90CF9008951F93CF93DF931F92CDB7A2
:1058E000DEB7182F80E591E00E946508812F0E94A5
:1058F000590E27E0129FF0011124EF5EF84F22812C
:105900003381377041E050E0BE016F5F7F4F820FFF
:10591000931F0E940C2989810F90DF91CF911F91D5
:105920000895FC01808D883040F4218D328D232B29
:1059300021F00E946B2C90E008958FEF9FEF089567
:10594000CF93DF93FC012485283028F08FEF9FEF61
:10595000DF91CF910895EC010190F081E02D00845A
:10596000F185E02D1995892B89F38C850E946B2C8C
:1059700090E0EECFDA01E0915407F0E0FE2FEE2741
:10598000E60FF71F90E0982F8827A901BD018E0F21
:105990009F1F0C940C298F929F92AF92BF92CF922F
:1059A000DF92EF92FF920F931F93CF93DF93CDB7C8
:1059B000DEB760970FB6F894DEBF0FBECDBF7C0197
:1059C00090915307911115C018E0812F60960FB682
:1059D000F894DEBF0FBECDBFDF91CF911F910F9125
:1059E000FF90EF90DF90CF90BF90AF909F908F90FF
:1059F000089508E0933309F404E06B0180E591E039
:105A00000E9465089E012F5F3F4F5901490110E038
:105A100063E070E0812F0E949729F40181934F0188
:105A20008823C1F01F5F0113F3CF00E0F5018191DE
:105A30005F018D3149F0883139F08A51823020F090
:105A40000F5F1013F3CFC0CF60E170E0802F0E9492
:105A5000B429102FA12EB12C83EE93E00197F1F71A
:105A600042E870E060E0812F0E94A40E4FEF62E0F8
:105A700070E0812F0E94A40EB601C114D10491F4EC
:105A8000809102029091030201968115F0EC9F072C
:105A900008F45CC0909303028093020260910202BA
:105AA00070910302812F0E948E0E86E0EFE0F2E0FB
:105AB000DE01199601900D928A95E1F7F701838135
:105AC0008F778C8784818D8785818E87A7014E5F34
:105AD0005F4F24E030E06CE070E0812F0E94670EA1
