:100000001AC2000049C2000047C2000045C20000F9
:1000100043C2000041C200003FC200003DC20000D8
:100020003BC200000C94033E0C94033E0C94033E30
:1000300033C2000031C200002FC200000C94201413
:100040002BC2000029C2000027C2000025C2000008
:1000500023C2000021C200001FC200000C94B83D62
:100060001BC200000C9485240C945B2415C2000074
:1000700013C2000011C200000FC200000DC2000038
:100080000BC2000009C2000007C2000005C2000048
:100090000C9431240C940724FFC10000FDC1000022
:1000A000FBC10000F9C10000F7C10000F5C100006C
:1000B000F3C10000F1C10000EFC10000EDC100007C
:1000C000EBC10000E9C10000E7C100000C94DD2392
:1000D0000C94B323E1C100000C9489230C945F239A
:1000E000DBC10000EF03E9031704F703F403A403E3
:1000F000C1036B03CF3CD23CC13CC53CCB3C093D6A
:10010000D63CDA3CE03CE43CE83CEE3CF23CF63CDD
:10011000093DFC3C003D043D00407A10F35A00A02C
:10012000724E18090010A5D4E80000E876481700C0
:1001300000E40B54020000CA9A3B000000E1F50500
:10014000000080969800000040420F000000A0864A
:1001500001000000102700000000E803000000007C
:100160006400000000000A00000000000100000020
:1001700000002C76D888DC674F0823DFC1DFAE593A
:10018000E1B1B796E5E3E453C63AE651997696E8CD
:10019000E6C28426EB898C9B62ED407C6FFCEFBC51
:1001A0009C9F40F2BAA56FA5F490055A2AF75C937C
:1001B0006B6CF9676DC11BFCE0E40D47FEF520E6B2
:1001C000B500D0ED902E0300943577050080841E95
:1001D000080000204E0A000000C80C333333330FF0
:1001E000986E12831141EF8D2114893BE65516CF8D
:1001F000FEE6DB18D1844B381BF77C1D901DA4BB99
:10020000E424203284725E228100C9F124ECA1E54D
:100210003D2700002200250028002B002E00310081
:10022000340002010000050108010B01000021005B
:10023000240027002A002D003000330001010000B7
:10024000040107010A0101021020200808102040C3
:10025000102040800201020108040201010204088A
:100260001020408080402010080402018004020118
:100270008040201008040201080402010102040861
:10028000102040800102040810204080050505056B
:10029000070508080808020202020A0A08080404FE
:1002A000040401010101010101010303030303032C
:1002B0000303040707070C0C0C0C0C0C0C0C0202BB
:1002C000020206060606060606060B0B0B0B0B0BB8
:1002D0000B0B000020002300260029002C002F001B
:1002E000320000010000030106010901005EBCE2CA
:1002F000613FDD83C29C7E20A3FD1F419DC3217F02
:10030000FCA2401E5F01E3BD3E6082DC237D9FC1F5
:10031000421CFEA0E1BF5D0380DE3C62BEE0025CE9
:10032000DF81633D7C22C09E1D43A1FF4618FAA4D5
:1003300027799BC584DA3866E5BB5907DB856739C1
:10034000BAE406581947A5FB7826C49A653BD987B5
:10035000045AB8E6A7F91B45C6987A24F8A6441AA9
:1003600099C7257B3A6486D85B05E7B98CD2306E95
:10037000EDB3510F4E10F2AC2F7193CD114FADF381
:10038000702ECC92D38D6F31B2EC0E50AFF1134D75
:10039000CE90722C6D33D18F0C52B0EE326C8ED069
:1003A000530DEFB1F0AE4C1291CF2D73CA94762855
:1003B000ABF517490856B4EA6937D58B5709EBB541
:1003C00036688AD495CB2977F4AA4816E9B7550B35
:1003D00088D6346A2B7597C94A14F6A8742AC89629
:1003E000154BA9F7B6E80A54D7896B3500000A0BFC
:1003F00002090C0D0E0807030401000000000000B4
:1004000000000000000000000000000000000000EC
:1004100000000000000000001211100000000000A9
:1004200000000000000000000000000000000000CC
:100430000000894EE24911241FBECFEFD1E2DEBF9A
:10044000CDBF00E00CBF1BE0A0E0B2E0EAE5FAEBB4
:1004500000E00BBF02C007900D92AE3CB107D9F788
:1004600020E1AEECBBE001C01D92A338B207E1F77A
:1004700012E0CAE1D2E000E006C021970109802F16
:10048000FE010E940F59C931D10780E00807A9F782
:100490000E94E6490C941C5DB3CD0895FC012681B1
:1004A0003781620F731F848195818617970738F013
:1004B0008281938177836683820F931F089580E002
:1004C00090E008950895FC01158616861786108A17
:1004D0001286108617820895FC0176876587089535
:1004E000DC01ED91FC91068CF78DE02D199591E0E2
:1004F00089270895862F089581E08627089521E0B1
:10050000FC018485883008F020E0822F089580E087
:1005100090E008950C9434510C9434510F931F9330
:10052000CF93DF931F921F92CDB7DEB78C01DC0112
:10053000ED91FC918081918169831A8241E050E0C4
:10054000BE016F5F7F4F0E94A335F80182819381C6
:100550000196938382830F900F90DF91CF911F912B
:100560000F910895EF92FF920F931F93CF93DF9314
:10057000EC0108811981D8018D919C91FC01E480E6
:10058000F5800E94F835D801ED91FC9124813581E8
:100590008A819B81820F931F8E199F099B838A8377
:1005A000DF91CF911F910F91FF90EF9008950F93DE
:1005B0001F93CF93DF93CDB7DEB766970FB6F8944E
:1005C000DEBF0FBECDBF9C01CB011E8AFE01769619
:1005D0000AE010E0B8010E94FC58805D8293CB01D4
:1005E0000097C1F7BF01C901BDDF66960FB6F89449
:1005F000DEBF0FBECDBFDF91CF911F910F91089548
:10060000FF920F931F93CF93DF936115710541F410
:100610006AEE73E0DF91CF911F910F91FF90A2CF0F
:100620008B01EC0162E2CE0179DFF80161918F016B
:10063000662351F0EBEDF3E0F080FF20A1F3818120
:10064000681751F03296F8CF62E2CE01DF91CF9178
:100650001F910F91FF9062CF6CE5CE015FDF6F2D90
:10066000E2CFCF93DF93EC018A819B810E94032725
:1006700018861F82CE01DF91CF910C9473120895DA
:100680002F923F924F925F926F927F928F929F92A2
:10069000AF92BF92CF92DF92EF92FF920F931F9390
:1006A000CF93DF93CDB7DEB769970FB6F894DEBF6F
:1006B0000FBECDBFDC01ED91FC9111973197E83071
:1006C000F10508F031C28B017C018827EE58FF4FFD
:1006D0008F4F0C940F59FD01C280D380E480F580C8
:1006E000A7019601C701B6010E946D56882319F033
:1006F0006AEF73E0AAC020E030E0A901C701B601AB
:100700000E946D5687FF07C06DE2C80107DFF7FA48
:10071000F094F7F8F09420E030E0A901C701B601A9
:100720000E946D56882309F493C0A7019601C70162
:10073000B6010E94FB57A70196010E946D568111D8
:1007400087C061E074E081C01296ED90FC90139731
:100750006BE5C801E3DEF701E280F380E114F10408
:1007600071F0B801C70102968BDFD701ED90FC90C4
:10077000E114F10421F06CE2C801D0DEEFCF6DE5A9
:1007800025C0FD01E280F3806BE7C801C7DED70119
:100790001296ED90FC901397E114F104B1F0F7017B
:1007A00062817381C8012CDF6AE3C801B7DEB8013A
:1007B000C701049665DFD701ED90FC90E114F104C8
:1007C00021F06CE2C801AADEE7CF6DE7C801A6DE22
:1007D000ABC1FD0162817381C80112DFA5C1129610
:1007E0006D917C91139731C06DE2C80197DEF701DE
:1007F00062817381848195811E8A7E01F6E1EF0E0C
:10080000F11C3AE0832E912CA12CB12CA50194016E
:100810000E949D57605DD7016E937D01B901CA01A9
:10082000611571058105910589F7BD010EC0FD01B6
:1008300082819381A481B581892B8A2B8B2B19F41A
:1008400064EF73E002C06FEE73E0C8018BDE6CC131
:1008500020E836E948E15BE4C701B6010E94F85898
:1008600087FF2FC1F0E26F2E712CA5E09A2E212C6C
:10087000312C20E030E0A901C701B6010E94F858F0
:10088000181694F52CEA35EC47E257E3C701B60198
:100890000E946D56181644F18FEF981629F1992D84
:1008A000A4E09A0250011124F501E45FFD4FA70175
:1008B000960160817181828193810E94F858181697
:1008C0007CF4F501E45CFD4F20813181428153814C
:1008D000C701B6010E94D2566B017C012618370869
:1008E000759467949A94D8CFC701B6010E94CC58EA
:1008F0004B015C010E9471569B01AC01C701B6011E
:100900000E94FA5720E034E244E759E40E94D256AC
:100910002B013C010E94CC586B017C010E94715656
:100920009B01AC01C301B2010E94FA579B01AC01CB
:100930000E94FB570E94CC58C60ED71EE81EF91E17
:10094000B0E4CB16B2E4DB06BFE0EB06F104C8F07E
:10095000EFEF8E1A9E0AAE0ABE0A2114310471F01E
:10096000FAE08F169104A104B10478F12FEF221A56
:10097000320A812C912C5401839427C0C12CD12C94
:1009800076012401350186E08F8B9F89998FA92FED
:10099000A150AF8BBAE04B16510461047104D0F042
:1009A000C701B6012AE030E040E050E00E949D57C8
:1009B00069017A01C301B2012AE030E040E050E071
:1009C0000E949D5729013A01E0CFC12CD12C76011C
:1009D000F6E0F98F6AE0462E512C612C712CC7018C
:1009E000B601A30192010E949D57672B682B692BCA
:1009F00041F4E98D1E162CF469017A01E150E98F6A
:100A0000EECF1E8ACE014696988F8F8B5AE0452EE8
:100A1000512C612C712CC501B401A30192010E94DB
:100A20009D57605DAF89B88D6E93B88FAF8B4901CC
:100A30005A0181149104A104B10469F7BD01C801F0
:100A400091DDB98DBB2341F1188ABF8B5E01E0E1D6
:100A5000AE0EB11C45014AE0442E512C612C712C84
:100A6000FF89F150FF8BFF3F69F0C701B601A30179
:100A700092010E949D57605DD5016E935D016901F1
:100A80007A01EECFB401B98D6B1B71098EE2FB01C7
:100A90008293BF01C80166DD37FE09C06EEF73E0C7
:100AA000C80160DD662777276219730907C0211422
:100AB0003104D1F165E6C80131DDB101C80177DD4E
:100AC00033C084E5882E82E0982E94E2A92E92E02D
:100AD000B92E20E2622E712C212C312CA701960117
:100AE000D4019E918E917E916E914D010E946D5622
:100AF00018166CF0F5012489358946895789C70194
:100B0000B6010E94D2566B017C01260C371C7594ED
:100B10006794F4E0AF1AB1082CE3821622E0920643
:100B2000E9F699249A94A5CE69960FB6F894DEBF9B
:100B30000FBECDBFDF91CF911F910F91FF90EF902E
:100B4000DF90CF90BF90AF909F908F907F906F90ED
:100B50005F904F903F902F900895FC01808191818C
:100B60008330910520F4019708F440C00BC0853014
:100B7000910528F0059799F5628173812BC08281D8
:100B8000938108950280F381E02D309779F180817F
:100B9000843779F18B3229F08D3221F4319691E04E
:100BA00002C0319690E060E070E04AE0819120ED73
:100BB000280F2A3068F4469F9001479F300D11247A
:100BC000682F880F770B60537109620F731FEECF88
:100BD000992391F088279927861B970B08956281A6
:100BE0007381848195810E94C75806C080E090E09F
:100BF000089581E090E00895CB010895FC01A08163
:100C0000B1818C918D3051F024F489508230B8F547
:100C100005C0803219F08F3219F0089511962CC05A
:100C200011968C9111978A3219F08F32D1F0089574
:100C30001196B183A083A081B181CD0101969183EA
:100C4000808311968C9111978823C9F08A3299F785
:100C500012968C9112978F3271F713960DC08A30CD
:100C600071F2A081B181CD010196918380831196AB
:100C70008C918111F4CF03C0B183A083C0CF0895BC
:100C80001F93CF93DF93EC01162FB8DFE881F98132
:100C90008081181305C03196F983E88381E001C093
:100CA00080E0DF91CF911F910895EF92FF920F9313
:100CB0001F93CF93DF938C01DC011496CD91DC91CF
:100CC0001597EA80FB808E819F81E80EF91EC8018E
:100CD000029694DFD8011296ED91FC9113978081D2
:100CE000873291F1823281F190ED980F9A3060F065
:100CF000982F9F7D91549A3138F08B3229F093EDE3
:100D0000980F923008F061C0F801228133812F5F83
:100D10003F4F338322832E813F81A9014F5F5F4F75
:100D20006C817D816417750740F06A817B81FB01CE
:100D3000E20FF31F5F834E838083D8011296ED91FB
:100D4000FC9113978081D0CF3196D8011396FC93F4
:100D5000EE931297D8011296ED91FC911397908122
:100D6000992399F19F012F5F3F4F13963C932E9348
:100D70001297891751F19C35A9F49181AFEDB3E039
:100D80002C91222339F0921303C011969C9102C03A
:100D90001296F6CF9923C9F03296D8011396FC9398
:100DA000EE9312972E813F81A9014F5F5F4F6C81B7
:100DB0007D816417750770F26A817B81FB01E20F08
:100DC000F31F5F834E839083C5CF8E819F819C01EB
:100DD0002F5F3F4F4C815D814217530750F04A818E
:100DE0005B81FA01E80FF91F3F832E831082C70150
:100DF00002C080E090E0DF91CF911F910F91FF90B2
:100E0000EF9008950F931F93CF93DF938B01FC0115
:100E1000C281D381209759F06A817B81C8010E94E9
:100E2000235A892B21F00990D881C02DF3CFCE0110
:100E3000DF91CF911F910F910895E4CF0895FDDFC9
:100E4000FC01892BD9F1848195818330910518F4B7
:100E50000197A0F109C08530910520F0059739F57B
:100E6000668123C066812DC00680F781E02D309712
:100E700029F18081843721F18B3229F08D3221F4E0
:100E8000319691E002C0319690E060E0219180EDD2
:100E9000820F8A3040F4660F862F880F880F680F04
:100EA0006053620FF3CF992361F061950AC06681A8
:100EB0007781808591850E94CC5803C060E001C095
:100EC00061E0862F0895B9DFFC01892B09F448C041
:100ED000848195818330910520F4019708F440C006
:100EE0000BC08530910528F0059799F566817781CB
:100EF0002BC08681978108950680F781E02D309779
:100F000079F18081843779F18B3229F08D3221F4A7
:100F1000319691E002C0319690E060E070E04AE0E6
:100F2000819120ED280F2A3068F4469F9001479F59
:100F3000300D1124B90160537109680F711D87FDCF
:100F40007A95EECF992391F088279927861B970BE6
:100F5000089566817781808591850E94CC5806C06E
:100F600080E090E0089581E090E00895CB0108953D
:100F700064DF009711F00496F0CD80E090E00895D2
:100F80005CDF21E0892B09F420E0822F08950F9384
:100F90001F93CF93DF938C01FC01C081D181C130BD
:100FA000D10559F4628173816115710531F08AEEC2
:100FB00093E00E94235A892B39F02197229720F43D
:100FC000F8018281938102C080E090E0DF91CF91AF
:100FD0001F910F91089531DF009711F00496D7CF3C
:100FE00080E090E008958091D20B81110BC01092A7
:100FF000CF0B1092CE0B1092D10B1092D00B81E040
:101000008093D20B8EEC9BE00895DB01109749F0A2
:10101000ED91FC9111970190F081E02DBC01CD0183
:10102000199480E090E008950895CF92DF92EF92B6
:10103000FF920F931F93CF93DF93CDB7DEB7C858BE
:10104000D1090FB6F894DEBF0FBECDBF7C018B0176
:101050006A01BC01CE0183589F4F0E94D736B80168
:101060008E010F5F1F4FC8010E94D736960140E0E6
:1010700050E0B801CE018D579F4F0E94EB36C8015A
:101080000E9430366CEC7BE0CE018B599F4F0E9462
:10109000D736BE0163587F4FCE018B599F4F0E94B8
:1010A000E7356AE074E00E94D035BE016D577F4F8E
:1010B0000E94E7356DE074E00E94D035BC01C801A4
:1010C0000E94CF36C8010E940A48C8010E943036EB
:1010D000CE018B599F4F0E9430368091350F1F9261
:1010E0008F938FE094E09F938F931F930F930E94B1
:1010F000415AB801C7010E94235A0F900F900F90D8
:101100000F900F900F90892B71F4BE016D577F4F98
:10111000CE018B599F4F0E94CF36CE018B599F4FE6
:101120000E94733B25C08091350F1F928F938FE2F1
:1011300094E09F938F931F930F930E94415AB8019D
:10114000C7010E94235A0F900F900F900F900F909D
:101150000F90892B99F4BE016D577F4FCE018B59AB
:101160009F4F0E94CF36CE018B599F4F0E942E3742
:10117000CE018B599F4F0E94303658C168E474E00D
:10118000CE018B599F4F0E94D736BE016B597F4FBE
:10119000CE0183589F4F0E943437F82ECE018B59D1
:1011A0009F4F0E943036FF2089F0BE016D577F4F60
:1011B000CE018F589F4F0E94CF36CF57DF4F2881E7
:1011C0003981C158D04043E150E08FC06AE574E0F6
:1011D000CE018B599F4F0E94D736BE016B597F4F6E
:1011E000CE0183589F4F0E943437F82ECE018B5981
:1011F0009F4F0E943036F1103FC06BE674E0CE0185
:101200008B599F4F0E94D736BE016B597F4FCE013D
:1012100083589F4F0E943437F82ECE018B599F4F31
:101220000E943036FF2089F0BE016D577F4FCE01FE
:101230008F589F4F0E94CF36CF57DF4F288139817B
:10124000C158D04047E150E050C061E874E0CE01A1
:101250008B599F4F0E94D736BE016B597F4FCE01ED
:1012600083589F4F0E943437F82ECE018B599F4FE1
:101270000E943036FF2089F0BE016D577F4FCE01AE
:101280008F589F4F0E94CF36CF57DF4F288139812B
:10129000C158D04042E150E028C062E974E0CE017C
:1012A0008B599F4F0E94D736BE016B597F4FCE019D
:1012B00083589F4F0E943437F82ECE018B599F4F91
:1012C0000E943036FF2009F443C0BE016D577F4FA6
:1012D000CE018F589F4F0E94CF36CF57DF4F2881C6
:1012E0003981C158D04046E150E0BE0163587F4F7C
:1012F000CE0189589F4F0E94EB36BE016F587F4F39
:10130000CE0185599F4F0E94CF36BE0169587F4F4D
:10131000CE018B599F4F0E94CF36BE0165597F4F3A
:10132000CE018B599F4F0E944326CE018B599F4F70
:101330000E943036CE0185599F4F0E943036CE0133
:1013400089589F4F0E943036CE018F589F4F13CF40
:1013500067EA74E0CE018B599F4F0E94D736BE01D9
:101360006B597F4FCE0183589F4F0E943437F82E20
:10137000CE018B599F4F0E943036FF2009F456C092
:101380008091350F1F928F9387EA94E09F938F93FC
:101390001F930F930E94415A69EB74E0CE018B5961
:1013A0009F4F0E94D736CE018B599F4F0E940A480B
:1013B000CE018B599F4F0E943036B801CE018B5918
:1013C0009F4F0E94D736BE016B597F4FCE01835885
:1013D0009F4F0E9434370F900F900F900F900F90F7
:1013E0000F908823D9F0C957DF4F88819981C7585A
:1013F000D040892B99F0CD57DF4FE881F981C35850
:10140000D0408081882351F0309721F41092DA0B7C
:10141000EAEDFBE011E0808180330CF410E0CE01B6
:101420008B599F4F0E94303611117BD4CE018D57BE
:101430009F4F0E943036CE0183589F4F0E94303616
:10144000C857DF4F0FB6F894DEBF0FBECDBFDF9198
:10145000CF911F910F91FF90EF90DF90CF90089563
:101460004115510509F0E1CD0895AF92BF92CF9299
:10147000DF92EF92FF920F931F93CF93DF93CDB73D
:10148000DEB768970FB6F894DEBF0FBECDBF8C01F4
:101490000E94AC3D6B017C01F801258130E0F9012F
:1014A000E451FC4F8491F901EA5BFD4FB490F901DE
:1014B000E457FD4FA490AA2079F081110E94B43C1A
:1014C000EA2DF0E0EE0FFF1FEE52FD4FA591B49113
:1014D000EC91BE2221E009F420E0F80136818585F7
:1014E0009685A785B0893213FCC00097A105B10588
:1014F00091F5C586D686E786F08A628173814AE0D7
:10150000CE0107960E9435366FEB74E0CE0101964E
:101510000E94D736BE01695F7F4FCE0101960E94BF
:10152000E7356FEC74E00E94D035BC01CE010D961A
:101530000E94CF36CE010D960E940A48CE010D962C
:101540000E943036CE0101960E943036CE010796B9
:101550000E9430364AC1AC01BD014053584F6F4F15
:101560007F4FC416D506E606F706D8F1F801838545
:10157000811132C0628173814AE0CE0107960E94D8
:10158000353661ED74E0CE0101960E94D736BE017A
:10159000695F7F4FCE0101960E94E7356FEC74E0E2
:1015A0000E94D035BC01CE010D960E94CF36CE01EF
:1015B0000D960E940A48CE010D960E943036CE014B
:1015C00001960E943036CE0107960E94303664E0C4
:1015D00070E0C8010E940F2981E0F801838712861C
:1015E00004C1AC01BD0144545D4F6F4F7F4FC41621
:1015F000D506E606F706B0F1F801828581112DC007
:10160000628173814AE0CE0107960E94353667ED0C
:1016100074E0CE0101960E94D736BE01695F7F4F0C
:10162000CE0101960E94E7356FEC74E00E94D03540
:10163000BC01CE010D960E94CF36CE010D960E94C0
:101640000A48CE010D960E943036CE0101960E94C6
:101650003036CE0107960E943036F801148681E0BC
:101660008287C3C088589F4FAF4FBF4FC816D90657
:10167000EA06FB0608F4B9C0F801848581112DC083
:10168000628173814AE0CE0107960E94353666EE8C
:1016900074E0CE0101960E94D736BE01695F7F4F8C
:1016A000CE0101960E94E7356FEC74E00E94D035C0
:1016B000BC01CE010D960E94CF36CE010D960E9440
:1016C0000A48CE010D960E943036CE0101960E9446
:1016D0003036CE0107960E94303681E0F8018487CB
:1016E00084C00097A105B10509F47FC0B701A60128
:1016F000481B590B6A0B7B0BCE010D960E947E474F
:10170000F801628173814AE0CE0107960E94353666
:1017100069EF74E0CE0101960E94D736BE01695F81
:101720007F4FCE0101960E94E73562E075E00E948E
:10173000D035BE01635F7F4F0E94E735BC01CE010B
:1017400043960E94CF36CE0143960E940A48CE01AE
:1017500043960E943036CE0101960E943036CE016B
:1017600007960E943036CE010D960E943036F80161
:1017700085859685A785B0898C599F4FAF4FBF4F00
:10178000C816D906EA06FB0678F461E175E0CE01D9
:1017900001960E94D736CE0101960E940A48CE01DA
:1017A00001960E9430361CC0F801838581110BC060
:1017B0008285882319F062E070E002C061E070E089
:1017C000C8010E940F29F801158616861786108A0F
:1017D00012861486138660E070E0C8010E940F290B
:1017E000F801158616861786108A68960FB6F89443
:1017F000DEBF0FBECDBFDF91CF911F910F91FF9044
:10180000EF90DF90CF90BF90AF9008950F931F930C
:10181000CF93DF93CDB7DEB768970FB6F894DEBFEE
:101820000FBECDBF8C014AE0FC016581CE010D9653
:101830000E948B36F801628173814AE0CE010796DF
:101840000E94353664E275E0CE0101960E94D736DB
:10185000BE01695F7F4FCE0101960E94E73564E3C8
:1018600075E00E94D035BE01635F7F4F0E94E7356F
:10187000BC01CE0143960E94CF36CE0143960E9412
:101880000A48CE0143960E943036CE0101960E944E
:101890003036CE0107960E943036CE010D960E945A
:1018A000303660E0F80185810E94383DF80166819C
:1018B00081E0682785810E940A3DC80114D6689698
:1018C0000FB6F894DEBF0FBECDBFDF91CF911F9151
:1018D0000F910895CF92DF92EF92FF920F931F9393
:1018E000CF93DF93CDB7DEB7C654D1090FB6F894C6
:1018F000DEBF0FBECDBFFC0182819381A481B58183
:1019000023968CAF9DAFAEAFBFAF239721E0239658
:101910002FAF239723964CAD5DAD6EAD7FAD239772
:101920004BAB5CAB6DAB7EAB89AF9AAFABAFBCAF33
:101930008DA79EA7AFA7B8AB28AB4DA55EA56FA599
:1019400078A94FA358A769A77AA72EAB4BA95CA982
:101950006DA97EA949A35AA36BA37CA38B8F9C8FEF
:10196000AD8FBE8F45E153E05C8B4B8B3FEF3D8BE2
:101970003E8B3F8B188E5E874D872AA7CFA0D8A4B9
:10198000E9A4FAA4CF86D88AE98AFA8A2CA309A105
:101990001AA12BA13CA109871A872B873C875A8360
:1019A00049838B839C83AD83BE838091E10B81113E
:1019B0000DC160E372E080E090E00E94743D1FB7CB
:1019C000F8948091E00B811127C0E1ECF2E0849162
:1019D000EBE7F2E09491E82FF0E0EE0FFF1FE45DFB
:1019E000FD4FA591B491EC91E92321F461E085E3E9
:1019F0000E940A3D61E085E30E94383D8CB580611C
:101A00008CBD8CB580648CBD61E084E30E94383D60
:101A100061E083E30E94383D8091E00B8F5F80930B
:101A2000E00B1FBFE6E9F2E0E491F0E0EE0FFF1FEC
:101A3000EE5EFD4F859194919093DD0B8093DC0BCE
:101A4000E0E5F2E0E491E093DB0B61E08AE00E94E4
:101A5000383D0E945F1CCE018D5B9F4F0E942D453B
:101A600025968EAD9FAD25970E94204284E38093FA
:101A7000DE0B0E949A1C882319F188E00E94871CC3
:101A80000E94741C8830E1F480E10E94871C0E944F
:101A9000741C8031A9F480E00E94871C0E94741C91
:101AA00081110EC041E050E0BE016D5B7F4F8FE1C0
:101AB00090E00E94633F24968FAD24978330A1F17C
:101AC00087E38093DE0B0E949A1C882309F440C0B0
:101AD00088E00E94871C0E94741C8830C9F580E150
:101AE0000E94871C0E94741C182F803189F580E0A9
:101AF0000E94871C0E94741C81112AC041E050E0A2
:101B0000BE016D5B7F4F89E390E00E94633F2496A6
:101B10008FAD24978430E1F41093DF0B0E941F42B5
:101B200081E08093E10B52C080E48093DF0B10E0F2
:101B300042E06EE170E0812F0E94381F42E06FE1C9
:101B400070E0812F0E94381F1F5F183089F7E6CFA1
:101B500083E38093DE0B0E949A1C882391F180E13D
:101B60000E94871C0E94741C803159F582E10E94FA
:101B7000871C0E94741C823121F580E00E94871C22
:101B80000E94741C81111DC084E08093DF0B15E559
:101B900027961FAF279741E050E0BE016A5B7F4F59
:101BA0008BE190E00E94EE3F26961FAF269741E022
:101BB00050E0BE016B5B7F4F8AE190E00E94EE3FF8
:101BC000ADCF1092DE0B0E941F423EC0CE018D5B56
:101BD0009F4F0E942D4525968EAD9FAD25970E9463
:101BE000204246E050E06CE37FE089E090E00E9414
:101BF000EE3F44E050E0BE016D5F7F4F8FE090E02C
:101C00000E94EE3F44E050E0BE01615F7F4F81E003
:101C100090E00E94EE3F44E050E0BE016B5E7F4FDB
:101C200085E090E00E94EE3F0E941F4281E08C8799
:101C300089859A85AB85BC858093780E9093790EC3
:101C4000A0937A0EB0937B0ECA5BDF4F0FB6F89469
:101C5000DEBF0FBECDBFDF91CF911F910F91FF90DF
:101C6000EF90DF90CF900895EF92FF920F931F9324
:101C7000CF93DF93CDB7DEB727970FB6F894DEBFCB
:101C80000FBECDBF8C01FB01498382818A83838192
:101C90008B8384818C8385818D831E82FE013196A6
:101CA0009E01295F3F4F80E090E07F014191840FCA
:101CB000911DE217F307D1F78F83D8018D919C9185
:101CC000DC01ED91FC910084F185E02D1995F8017E
:101CD000A081B181ED91FC911197892B31F00284A3
:101CE000F385E02DCD011995E8CF0280F381E02D39
:101CF00047E050E0B701CD01199527960FB6F8944B
:101D0000DEBF0FBECDBFDF91CF911F910F91FF902E
:101D1000EF900895FB0144815581608171810C949D
:101D2000A33560E777E180E090E00E94743D98E29F
:101D300088E10FB6F894A895809360000FBE909349
:101D400060000895A0914C0FB0914D0F1097B9F01D
:101D50002091480F222399F04091500F5091510F3C
:101D600020E030E02417350754F4ED91FD916281B5
:101D700073816817790729F02F5F3F4FF3CFE0E0B9
:101D8000F0E0CF010895EF92FF920F931F93CF934E
:101D9000DF93CDB7DEB768970FB6F894DEBF0FBEFE
:101DA000CDBF8C017B01CE0107960E94D736B801CA
:101DB000CE010D960E94D7366BE375E0CE014396B7
:101DC0000E94D736BE01635F7F4FCE0143960E94CB
:101DD000E7356FEC74E00E94D035BE01695F7F4F3C
:101DE0000E94E735BC01CE0101960E94CF36CE019C
:101DF00001960E940A48CE0101960E943036CE011B
:101E000043960E943036CE010D960E943036CE01A8
:101E100007960E943036B701C8010E949F44689619
:101E20000FB6F894DEBF0FBECDBFDF91CF911F91EB
:101E30000F91FF90EF9008958F929F92AF92BF9273
:101E4000CF92DF92EF92FF920F931F93CF93DF9386
:101E5000CDB7DEB7CC57D1090FB6F894DEBF0FBEB1
:101E6000CDBF82E89EE0B3D48111A4C18091330F2D
:101E7000811133C04091E20B5091E30B6091E40B70
:101E80007091E50BCE018B599F4F0E947E4765E410
:101E900075E0CE0185599F4F0E94D736BE016B5920
:101EA0007F4FCE0185599F4F0E94E735BC01CE017F
:101EB00001960E94CF36CE0101960E942848CE019D
:101EC00001960E943036CE0185599F4F0E943036D0
:101ED000CE018B599F4F0E943036C090E20BD090BC
:101EE000E30BE090E40BF090E50BC114D104E104A6
:101EF000F104A1F080911F0F9091200FA091210F6C
:101F0000B091220FC80ED91EEA1EFB1E0E94AC3DE6
:101F1000C616D706E806F90608F04CC10E94AC3D8B
:101F2000AB01BC01CE018B599F4F0E947E4740916F
:101F30001F0F5091200F6091210F7091220F8091FF
:101F4000E20B9091E30BA091E40BB091E50B480FED
:101F5000591F6A1F7B1FCE0185599F4F0E947E47E4
:101F60004091E20B5091E30B6091E40B7091E50B13
:101F7000CE018F589F4F0E947E4765E675E0CE01E7
:101F800089589F4F0E94D736BE016F587F4FCE01B0
:101F900089589F4F0E94E7356FE075E00E94D03569
:101FA000BE0165597F4F0E94E7356FE075E00E94E2
:101FB000D035BE016B597F4F0E94E735BC018E01C1
:101FC0000F5F1F4FC8010E94CF36C8010E940A4808
:101FD000C8010E943036CE0189589F4F0E9430368A
:101FE000CE018F589F4F0E943036CE0185599F4FAA
:101FF0000E943036CE018B599F4F0E943036E090C0
:10200000360FF090370F82E89EE0E1D3811184C053
:102010006091170F7091180F8091820E9091830E2E
:102020004091190F50911A0FDC01ED91FC9161154F
:10203000710509F4CFC00088F189E02D1995813030
:10204000910509F006C19093050F8093040F87E076
:10205000E4E5F2E0D80101900D928A95E1F7F801EC
:10206000A9E8BEE0CE01089621912D938E179F0717
:10207000D9F782E08093900E1092910E8FE08093BA
:10208000920E4FE050E064E87EE0C7010E94862B8C
:10209000AC014550510964E87EE080E10E94A62B26
:1020A0000E94AC3D6093060F7093070F8093080F5A
:1020B0009093090F60930A0F70930B0F80930C0F8E
:1020C00090930D0F8091820E9091830EDC01ED9123
:1020D000FC910084F185E02D1995892B09F48FC0BE
:1020E000CE018B599F4F0E943345049709F0A5C03C
:1020F0008091870E81119CC00E94AC3D60930A0FB5
:1021000070930B0F80930C0F90930D0F10920E0F86
:1021100010921E0F10921D0F62E575E0C8010E941B
:10212000D736C8010E940A48C8010E94303680E1B3
:1021300097E2A0E0B0E080931F0F9093200FA09350
:10214000210FB093220F1092E20B1092E30B10922A
:10215000E40B1092E50B8091350F1F928F938FE067
:1021600094E09F938F931F930F930E94415AC8014D
:102170000E9446488091350F1F928F938FE294E022
:102180009F938F931F930F930E94415AC8010E94FF
:1021900046481092330F0FB6F894DEBF0FBECDBF86
:1021A0008091480F811102D182E89EE010D3811105
:1021B0000E94114681E04091E20B5091E30B609147
:1021C000E40B7091E50B452B462B472B09F4ACC073
:1021D00080E0AAC00684F785E02D25E133E03A834C
:1021E00029838090130F9090140FA090150FB0903A
:1021F000160F8B829C82AD82BE82B8011FCF0E94D7
:10220000AC3DC0900A0FD0900B0FE0900C0FF090F7
:102210000D0FDC01CB018C199D09AE09BF0988396E
:102220009A43A105B10508F44DCF8CEF9FEF01C093
:1022300090E090931E0F80931D0F8091820E9091DD
:10224000830EDC01ED91FC910488F589E02D199550
:1022500006C08EEF9FEF90931E0F80931D0F80910D
:102260001F0F9091200FA091210FB091220F880F86
:10227000991FAA1FBB1F80931F0F9093200FA0933D
:10228000210FB093220F82E89EE0A1D2682F70E068
:102290004AE0CE018B599F4F0E94603660911D0F1E
:1022A00070911E0F4AE0CE0185599F4F0E94603603
:1022B00064E775E0CE018F589F4F0E94D736BE016C
:1022C00065597F4FCE018F589F4F0E94E73560E8D8
:1022D00075E00E94D035BE016B597F4F0E94E735F3
:1022E000BC01C8010E94CF36C8010E942848C8011D
:1022F0000E943036CE018F589F4F0E943036CE015B
:1023000085599F4F0E943036CE018B599F4F0E94B6
:1023100030360E94AC3D6093E20B7093E30B8093E8
:10232000E40B9093E50B46CFC458DF4F0FB6F894FB
:10233000DEBF0FBECDBFDF91CF911F910F91FF90F8
:10234000EF90DF90CF90BF90AF909F908F900895C7
:10235000CF93DF9300D000D0CDB7DEB78091340F9C
:102360008823D9F069DD8823C1F082E89EE02FD26E
:1023700081110FC06BE875E0CE0101960E94D7363F
:10238000CE0101960E942848CE0101960E94303667
:1023900004C00E941146882369F326960FB6F8946C
:1023A000DEBF0FBECDBFDF91CF910895BF92CF9218
:1023B000DF92EF92FF920F931F93CF93DF9300D0A2
:1023C00000D0CDB7DEB767E975E0CE0101960E9477
:1023D000D736CE0101960E940A48CE0101960E948E
:1023E000303600E010E08091500F9091510F0817A7
:1023F00019073CF4C8010E94C448AADF0F5F1F4FB1
:10240000F2CF62E370E080E090E00E94743D00E073
:1024100010E0BB24B3948091500F9091510F081796
:1024200019079CF595DF6801CC0CDD1C95E0E92EC1
:10243000F12CE0914C0FF0914D0FEC0DFD1D019032
:10244000F081E02D8185882371F0E0914C0FF091AF
:102450004D0FEC0DFD1D0190F081E02D8185811166
:1024600011C0B12C0FC0C8010E94C44862E370E0E3
:1024700080E090E00E94743D6BDF81E0E81AF10893
:10248000C1F6E3CF0F5F1F4FC6CFB1100EC06CEA8D
:1024900075E0CE0101960E94D736CE0101960E94CA
:1024A0002848CE0101960E9430366AEC75E0CE01D4
:1024B00001960E94D736CE0101960E940A48CE01AD
:1024C00001960E94303626960FB6F894DEBF0FBEF6
:1024D000CDBFDF91CF911F910F91FF90EF90DF90D3
:1024E000CF90BF900895EF92FF920F931F93CF93D9
:1024F000DF93CDB7DEB7CE5CD1090FB6F894DEBF5F
:102500000FBECDBF8C01FC018185882329F180910C
:10251000340F882309F487C08481803519F4C801F9
:102520006DD281C0823509F44BC040F4813371F023
:10253000823409F078C028E434E044C0843549F09E
:10254000823609F070C02BED35E03CC02BE634E05C
:1025500039C021E834E036C0F801628173814AE075
:10256000CE018B599F4F0E94353665EF75E0CE0145
:1025700087539F4F0E94D736BE016B597F4FCE01C4
:1025800087539F4F0E94E73563E076E00E94D03585
:10259000BC01CE0101960E94CF36CE0101960E9469
:1025A0000A48CE0101960E943036CE0187539F4FD4
:1025B0000E943036CE018B599F4F0E94303633C077
:1025C0002AE534E0F80193819F9392819F931F92B3
:1025D0008F9387E196E09F938F933F932F9389E1A9
:1025E00096E09F938F937E01F5E6EF0EF11CFF922C
:1025F000EF920E94415AF80180858F9387818F93D3
:1026000084E296E09F938F938E010F5F1F4F1F937D
:102610000F930E94415AB801C701B5DB0FB6F89479
:10262000DEBF0FBECDBFC253DF4F0FB6F894DEBF83
:102630000FBECDBFDF91CF911F910F91FF90EF9013
:102640000895FC01DB0112968D919C911397938361
:10265000828314968C911497848315968C91159788
:10266000858316968C9186830895FC0110861782C7
:10267000089508950C9434510C9434510C943451B1
:102680006130710529F060F06330710519F008952B
:1026900061E007C061E0FC0127813085232B09F050
:1026A00060E00C944F37CF93DF93EC0161E08D81B4
:1026B0000E94383D61E070E08F819885019711F0AC
:1026C00060E070E0E881F9810284F385E02DCE01BD
:1026D000DF91CF9119940C94C02D8F929F92AF925D
:1026E000BF92CF92DF92EF92FF920F931F93CF93FF
:1026F000DF938C017A01FC01858196810E94E4437D
:1027000040E06EEBF801858196810E94B143E701BC
:102710005701F9E0AF0EB11CF8018580968088E082
:10272000C82ED12CF12CEE24E394C4010E945E4308
:102730008111FE28EE0CF1E0CF1AD108B1F7F99221
:10274000AC16BD0649F7F801858196810E940144C7
:1027500091E0813009F090E0892FDF91CF911F91B6
:102760000F91FF90EF90DF90CF90BF90AF909F9030
:102770008F900895EF92FF920F931F93CF93DF9363
:102780008C017B01EA01FC01858196810E94014454
:102790008823A9F0AE01B701C8019FDF882379F033
:1027A000DE0189E0E0E0815039F09D91E927F0E019
:1027B000E451FD4FE491F7CF81E098859E1380E0CE
:1027C000DF91CF911F910F91FF90EF9008951F938C
:1027D000CF93DF93FC01A081B181109759F1EC01F7
:1027E000ED91FC9111970688F789E02DCD0119959F
:1027F00011E0811120C010E0FE01E556FF4F8081FD
:102800009181892BC1F48DEF9FEF91838083888123
:102810009981DC01ED91FC910680F781E02D1995FD
:1028200088819981DC01ED91FC910488F589E02D86
:10283000199501C010E0812FDF91CF911F9108956C
:102840001F920F920FB60F9211240BB60F922F9377
:102850003F934F935F936F937F938F939F93AF9328
:10286000BF93EF93FF938091EB0B9091EC0B8093D0
:10287000B2008091E70B9091E80BA091E90BB09129
:10288000EA0B0196A11DB11D8093E70B9093E80B15
:10289000A093E90BB093EA0B8091E70B9091E80BC2
:1028A000A091E90BB091EA0B8091E60B811118C061
:1028B00081E08093E60B8091E70B9091E80BA0916B
:1028C000E90BB091EA0B8093E70B9093E80BA09390
:1028D000E90BB093EA0BE0E0F0E019951092E60BFB
:1028E000FF91EF91BF91AF919F918F917F916F91E8
:1028F0005F914F913F912F910F900BBE0F900FBEA4
:102900000F901F9018950895AF92BF92CF92DF92CB
:10291000EF92FF920F931F93CF93DF93CDB7DEB764
:10292000C456D1090FB6F894DEBF0FBECDBF7B01F0
:102930005A019F938F931F9280E58F9307E116E0D2
:102940001F930F9382E994E09F938F9389E196E020
:102950009F938F93CE0101966C019F938F930E945A
:10296000415A0FB6F894DEBF0FBECDBFF1E0AF16EF
:10297000B104B9F078F092E0A916B104C9F0E3E02F
:10298000AE16B10439F51F930F93DF92CF9289E40D
:1029900096E014C01F930F93DF92CF9287E296E0E8
:1029A0000DC01F930F93DF92CF9283E396E006C092
:1029B0001F930F93DF92CF928FE396E09F938F93B5
:1029C000FF92EF920E94415A0FB6F894DEBF0FBEFD
:1029D000CDBF02C0F7011082CC59DF4F0FB6F8947B
:1029E000DEBF0FBECDBFDF91CF911F910F91FF9042
:1029F000EF90DF90CF90BF90AF9008954F925F928D
:102A00006F927F928F929F92AF92BF92EF92FF92BE
:102A10000F931F93CF93DF93CDB7DEB7CD5CD10972
:102A20000FB6F894DEBF0FBECDBF7C01FC01078559
:102A300010890115110509F442C040EBBC016F5E1D
:102A40007F4FC80111D9AE014F5F5F4F60EAC801E7
:102A50000E94B23E882321F1698170E0762F6627BB
:102A60008A81680F711D072E000C880B990B0E943C
:102A700073564B015C016B8170E080E090E00E9436
:102A8000735620E030E040E251E40E945F589B0121
:102A9000AC01C501B4010E94FB574B015C0106C0AB
:102AA000812C912CF0E8AF2EFFEBBF2E20E030E020
:102AB000A901C501B4010E946D5618161CF0812CA5
:102AC000912C54018E010B591F4F22E046E0C501A5
:102AD000B4010E947D5040E050E0BE016F5F7F4F27
:102AE000F7018281938110DFB801CE0101964BD9A5
:102AF000F701078510890115110509F45AC065858C
:102B00007685072E000C880B990B0E9473564B019B
:102B10005C0141EBB7016F5E7F4FC801A5D8AE01E4
:102B200047535F4F61EAC8010E94B23E882381F19A
:102B3000C753DF4F6881C95CD04070E0762F6627AD
:102B4000C653DF4F8881CA5CD040680F711D072EC5
:102B5000000C880B990B0E9473562B013C01C55346
:102B6000DF4F6881CB5CD04070E080E090E00E9455
:102B7000735620E030E048EC52E40E945F589B011D
:102B8000AC01C301B2010E94FB579B01AC0104C020
:102B900020E030E040E85FEBC501B4010E94D2566E
:102BA0004B015C0120E030E0A9010E946D5618162F
:102BB0001CF0812C912C54018E010B591F4F22E0E7
:102BC00046E0C501B4010E947D5041E050E0BE01E5
:102BD0006F5F7F4FF7018281938196DEB801CE014E
:102BE0000196D1D8F701078510890115110509F45F
:102BF00042C065857685072E000C880B990B0E94D4
:102C000073564B015C0142EBB7016F5E7F4FC80109
:102C10002BD8AE0147535F4F62EAC8010E94B23E13
:102C20008823C1F0C753DF4F6881C95CD04070E092
:102C3000762F6627C653DF4F8881CA5CD040680F65
:102C4000711D072E000C880B990B0E9473569B0177
:102C5000AC0104C020E030E040E85FEBC501B40106
:102C60000E94D2564B015C0120E030E0A9010E9495
:102C70006D5618161CF0812C912C54018E010B59A5
:102C80001F4F22E046E0C501B4010E947D5042E0A2
:102C900050E0BE016F5F7F4FF7018281938134DE88
:102CA000B801CE0101966FD8F7010785108901158B
:102CB000110509F46AC065857685072E000C880B1E
:102CC000990B0E9473564B015C0143EBB7016F5E99
:102CD0007F4FC8010E94340EAE0147535F4F63EA35
:102CE000C8010E94B23E882341F1C753DF4F68817B
:102CF000C95CD040862F90E0A0E0B0E0DC019927CD
:102D00008827C553DF4F2881CB5CD040820F911DAF
:102D1000A11DB11DC653DF4F2881CA5CD04030E0F1
:102D2000322F2227BC01CD01620F731F811D911D1F
:102D30000E9471569B01AC0104C020E030E040E8E5
:102D40005FEBC501B4010E94D2564B015C0120E04B
:102D500030E0A9010E94F8581816BCF48E010B59F6
:102D60001F4F22E046E0C501B4010E947D5043E0C0
:102D700050E0BE016F5F7F4FF70182819381C4DD18
:102D8000B801CE0101960E94C30EC353DF4F0FB6A8
:102D9000F894DEBF0FBECDBFDF91CF911F910F9191
:102DA000FF90EF90BF90AF909F908F907F906F902B
:102DB0005F904F900895089508954F925F926F929B
:102DC0007F92AF92BF92CF92DF92EF92FF920F93DA
:102DD0001F93CF93DF9300D000D0CDB7DEB77C0137
:102DE000DC011A968C91882309F47DC0823099F019
:102DF0008330B9F0813091F064E576E0CE01019640
:102E00000E94D736CE0101960E940A48CE01019653
:102E10000E9430367AC10FE91CE005C00CE31DE0CA
:102E200002C002E01CE00115110509F46EC187E043
:102E300090E00E949C50FC0188EE93E0A0E0B0E09E
:102E400083839483A583B683D80150962D913C91BA
:102E5000519782E0D9018C93D8011C968D919C9159
:102E60001D97DC011C92D8011E962D913C911F9755
:102E70008FECD9018C93D80158961C925897549690
:102E80002D913C91559786E0D9018C93D8015296AB
:102E90002D913C915397D9018C9180618C93D801ED
:102EA00052962D913C915397D9018C9188608C93C7
:102EB000D80152962D913C915397D9018C918068FD
:102EC0008C93D80152962D913C915397D9018C91B6
:102ED0008F7D8C93118300831282D7015096FC93CF
:102EE000EE931F9712C1F701A484AA2009F40DC123
:102EF000B384BB2009F409C187E090E00E949C5094
:102F00006C0138EE432E33E0532E612C712CDC0122
:102F100013964D925D926D927C9216978FE190E0A0
:102F20000E949C508C01FC011382128244825582C3
:102F3000668277828FE592E091838083178A168A72
:102F4000118E108E138E128E158E148E668D6E7FDE
:102F50006D7F668F6695617081E068278A2D0E947B
:102F60000A3D61E08A2D0E94383D8A2D90E0FC01E7
:102F7000EA5BFD4FE491D8015096EC93FC01E457D5
:102F8000FD4FE491F0E0EE0FFF1FEE5EFD4F8591E7
:102F90009491F801928B818B60E08B2D0E94383DDB
:102FA000D8015E968C9181FD04C061E08B2D0E945A
:102FB0000A3DF801B4868B2D90E0FC01EA5BFD4FE1
:102FC000E491D8011D96EC93FC01E457FD4FE49188
:102FD000F0E0EE0FFF1FEE52FD4F25913491F80106
:102FE00037872687138E128E118E108E178A168AB7
:102FF0002DE931E0358F248F26EF2B0D243048F05A
:103000003EEC3B0D343028F032EC3B0D383008F00C
:103010006FC04DEB50E0D80157965C934E93569796
:103020004BE951E059965C934E9358974CE251E02E
:103030005B965C934E935A97243060F03EEC3B0DC8
:10304000343040F032EC3B0D383008F074C0A8E664
:10305000B0E073C0A8E6B0E0E8E6F0E040812430DC
:1030600020F032EC3B0D383010F031E001C034E09C
:10307000342B3C93243058F03EEC3B0D343038F088
:1030800032EC3B0D383030F040E050E005C04BE60C
:1030900050E002C04DE650E0F801548B438B2430E1
:1030A00020F49C012650310910C0F2E3BF1699F0BC
:1030B00023E3B21691F0A4E3BA1689F022EC2B0DAB
:1030C000283078F49C012E53310981E001C0880F2B
:1030D0002A95EAF707C088E005C084E003C082E0D3
:1030E00001C081E0F801858B8DE991E00197F1F74E
:1030F000C8010E94813ED60111961C930E9381E077
:1031000012968C93F701D08AC786D7011F960D912E
:103110001C91509701151105B1F0B7016F5E7F4FFB
:1031200044EBC8010E94340E40E050E064EAC8015C
:103130000E94B23E08C0A0E0B0E0383008F48CCF66
:10314000E0E0F0E08BCF26960FB6F894DEBF0FBE1E
:10315000CDBFDF91CF911F910F91FF90EF90DF9046
:10316000CF90BF90AF907F906F905F904F900895F9
:103170008F929F92AF92BF92EF92FF920F931F9305
:10318000CF93DF93CDB7DEB7AD970FB6F894DEBF20
:103190000FBECDBF7C0163E676E0CE0101960E94B2
:1031A000D736CE0101960E940A48CE0101960E94B0
:1031B0003036F7018289882309F41DC18701065F33
:1031C0001F4FA388B488AE014F5F5F4FB801F50170
:1031D00086859785CFDA882309F44FC0AE014F5F0B
:1031E0005F4FB801F50186859785C4DA882369F1B8
:1031F0002A8130E0C901982F8827990F990F990FDC
:103200006981F8E06F9FB00111249C01262B372BB8
:10321000F70182858031E1F4688570E08F81AB0130
:10322000481B5109CA019695982F8827979587952D
:103230000E94FC5860517109207F53E0220F331F18
:103240005A95E1F7620F731F04C060E874EE01C085
:10325000B901613854EE75070CF459C0072E000C03
:10326000880B990B0E94735620E030E040E05CE34D
:103270000E94D2564B015C0150C069EE73E0CE0152
:1032800082960E94D73657018AE1A80EB11CF80138
:1032900061918F0140E1CE0101960E948B36BE0103
:1032A0006F5F7F4FCE0182960E948A0ECE010196FB
:1032B0000E943036A016B10651F763E776E0CE01E2
:1032C00001960E94D736BE016E5D7F4FCE010196FA
:1032D0000E94E735BC01CE0188960E94CF36CE0110
:1032E00088960E942848CE0188960E943036CE01EA
:1032F00001960E943036CE0182960E943036812C93
:1033000090EC992E99E7A92E94ECB92E06C0812C49
:10331000912C8EEFA82E82ECB82E1BA21AA21DA211
:103320001CA21FA21EA28E010F5F1F4F22E044E0CD
:10333000C501B4010E947D50BC01CE0182960E945D
:10334000063664E876E0CE0188960E94D736BE0144
:103350006E5D7F4FCE0188960E94E735BC01C801A3
:103360000E94CF36C8010E940A48C8010E94303628
:10337000CE0188960E943036CE0182960E94303669
:1033800020E030E040E251E4C501B4010E94D25691
:103390000E94C7584B015C014AE0CE0182960E9410
:1033A000603661E976E0CE0188960E94D736BE018C
:1033B0006E5D7F4FCE0188960E94E735BC01C80143
:1033C0000E94CF36C8010E940A48C8010E943036C8
:1033D000CE0188960E943036CE0182960E94303609
:1033E000F70190868782C7017ED86AE0F701828163
:1033F00093810E940327AD960FB6F894DEBF0FBEEF
:10340000CDBFDF91CF911F910F91FF90EF90BF90B3
:10341000AF909F908F900895CF92DF92EF92FF929E
:103420000F931F93CF93DF93CDB7DEB72C970FB6D3
:10343000F894DEBF0FBECDBF8C016B017A0169EE3F
:1034400073E0CE0107960E94D736C114D10429F04B
:10345000B601CE0107960E9406366AEC77E0CE01EF
:1034600007960E94F835F801628173814AE0CE0127
:1034700001960E943536BE016F5F7F4FCE010796E1
:103480000E948A0ECE0101960E9430366BE976E0EA
:10349000CE0107960E94F835F8016481CE010196AD
:1034A0000E94B736BE016F5F7F4FCE0107960E9424
:1034B0008A0ECE0101960E94303662EA76E0CE0195
:1034C00007960E94F8354AE0F8016581CE01019621
:1034D0000E948B36BE016F5F7F4FCE0107960E9420
:1034E0008A0ECE0101960E94303668EA76E0CE015F
:1034F00007960E94F835F801668170E04AE0CE0137
:1035000001960E946036BE016F5F7F4FCE01079625
:103510000E948A0ECE0101960E9430366FEA76E054
:10352000CE0107960E94F835F801678170854AE060
:10353000CE0101960E943536BE016F5F7F4FCE01EE
:1035400007960E948A0ECE0101960E94303668EBE3
:1035500076E0CE0107960E94F835F8018185811149
:1035600003C064EF73E002C06FEE73E0CE01079614
:103570000E94F83567EC76E0CE0107960E94F83598
:10358000BE01695F7F4FCE0101960E94CF36BE011A
:103590006F5F7F4FC7010E94AB47CE0101960E942B
:1035A0003036CE0107960E9430362C960FB6F8942E
:1035B000DEBF0FBECDBFDF91CF911F910F91FF9066
:1035C000EF90DF90CF9008952091DE0B90E02333B1
:1035D00011F40C9601C04896982F990F990F990FE6
:1035E00080E00895CF93DF931F92CDB7DEB7698354
:1035F000DC01ED91FC910280F381E02D41E050E08F
:10360000BE016F5F7F4F19950F90DF91CF910895A5
:10361000FC01818D928D0895FC019485FB018485C8
:10362000981303C081E0983008F080E00895FF927D
:103630000F931F93CF93DF931F921F92CDB7DEB7E7
:10364000F82E22E030E0AE014F5F5F4F66E270E09F
:103650000E940E4209811A8110270127102722E0BB
:1036600030E0AE014F5F5F4F66E270E08F2D0E9449
:103670000E4289819A819827892798270817190768
:1036800011F08C01ECCFC8010F900F90DF91CF911A
:103690001F910F91FF9008950F931F93CF93DF9386
:1036A0001F921F92CDB7DEB7FC0124852830E0F4CD
:1036B0008C01CE0101960E942D4589819A810E943C
:1036C000204222E030E0AE014F5F5F4F60E170E0EA
:1036D000F80184850E940E4209811A811027012772
:1036E00010270E941F4202C000E010E0C8010F90A6
:1036F0000F90DF91CF911F910F9108950F931F931A
:10370000CF93DF931F921F92CDB7DEB7FC012485C4
:103710002830E0F48C01CE0101960E942D4589816C
:103720009A810E94204222E030E0AE014F5F5F4F5D
:1037300064E070E0F80184850E940E4209811A81DC
:103740001027012710270E941F4202C000E010E04E
:10375000C8010F900F90DF91CF911F910F910895A5
:10376000EF92FF920F931F93CF93DF9300D01F929E
:10377000CDB7DEB78C017B01FB018485883050F02A
:1037800085E193E0F8019183808312821382148291
:10379000158222C0CE0101960E942D4589819A8111
:1037A0000E94204224E030E0AE014F5F5F4F6CE0AA
:1037B00070E0F70184850E940E420E941F4285E15D
:1037C00093E0F8019183808389819A81AB81BC81E8
:1037D00082839383A483B583C8010F900F900F90C9
:1037E0000F90DF91CF911F910F91FF90EF9008956F
:1037F000AF92BF92CF92DF92EF92FF920F931F93FF
:10380000CF93DF93CDB7DEB7AF970FB6F894DEBF97
:103810000FBECDBF8C015B016A01CE0101960E94F3
:10382000283485E1E82E83E0F82EFBA6EAA61CA644
:103830001DA61EA61FA68091780E9091790EA091CC
:103840007A0EB0917B0E8EA39FA3A8A7B9A78B83F6
:103850009C83AD83BE8318861F82AE01465D5F4F99
:10386000B501CE0101960E94CB3181309105B1F4B2
:10387000D801ED91FC910488F589E02DFDA2ECA220
:103880008CA59DA5AEA5BFA58EA39FA3A8A7B9A7EC
:10389000A601BE016C5D7F4FC8011995AF960FB6AA
:1038A000F894DEBF0FBECDBFDF91CF911F910F9176
:1038B000FF90EF90DF90CF90BF90AF900895E09190
:1038C000DC0BF091DD0B90818091DB0B892B8083E9
:1038D0000895E091DC0BF091DD0B90818091DB0B82
:1038E0008095892380830895CF93DF931F92CDB76E
:1038F000DEB741E050E0BE016F5F7F4F80E090E0B7
:103900000E94633F89810F90DF91CF910895CF93FB
:10391000DF931F92CDB7DEB7898341E050E0BE014F
:103920006F5F7F4F80E090E00E94EE3F0F90DF914D
:10393000CF910895CF93DF9380E8E9DFC4E1D0E031
:10394000D3DF882351F061E070E080E090E00E94D6
:10395000743D2197A9F780E001C081E0DF91CF910C
:1039600008958EBD00000DB407FEFDCF8EB50895FD
:10397000EF92FF921F93CF93DF931F921F92CDB7C9
:10398000DEB7182F22E030E0AE014F5F5F4F60E2FC
:1039900070E00E940E42E980FA80FE24EF24FE24AB
:1039A00022E030E0AE014F5F5F4F60E270E0812FB8
:1039B0000E940E4289819A81982789279827E816C4
:1039C000F90611F07C01ECCF87E0189FF00111247B
:1039D000E951F04FF582E482C7010F900F90DF911B
:1039E000CF911F91FF90EF9008951F93CF93DF9396
:1039F0001F921F92CDB7DEB7182FCE0101960E94FD
:103A00002D4589819A810E942042812FDDDD27E0AA
:103A1000129FF0011124E951F04F22813381377058
:103A200041E050E0BE016F5F7F4F820F931F0E9405
:103A3000633F0E941F4289810F900F90DF91CF91C9
:103A40001F910895FC01808D883038F4218D328DCE
:103A5000232B19F0CADF90E008958FEF9FEF0895B0
:103A6000EF92FF920F931F93CF93DF931F921F92BA
:103A7000CDB7DEB7482F87E0489F90011124F901A8
:103A8000E951F04F7F01808191810097B1F4142FAB
:103A9000CE0101960E942D4589819A810E94204283
:103AA000812FC5DD8C010E941F42F701868198019C
:103AB000281B3109C901318320830F900F90DF91BA
:103AC000CF911F910F91FF90EF9008951F93CF9387
:103AD000DF931F921F92CDB7DEB7182FCE0101964C
:103AE0000E942D4589819A810E94204268E070E001
:103AF000812F0E94533F0E941F420F900F90DF9131
:103B0000CF911F9108951F93CF93DF931F921F9220
:103B1000CDB7DEB7182FCE0101960E942D458981C1
:103B20009A810E94204260E170E0812F0E94533F01
:103B30000E941F420F900F90DF91CF911F91089527
:103B4000CF92DF92EF92FF920F931F93CF93DF9369
:103B500000D000D0CDB7DEB78C016B017A01FC013B
:103B6000808D883008F4CFDF85E193E09A838983E4
:103B7000F60182819381A481B5818B839C83AD837F
:103B8000BE83B701CE0101960E944834F801808FB0
:103B9000883030F4F586E486128E118E81E001C003
:103BA00080E026960FB6F894DEBF0FBECDBFDF9142
:103BB000CF911F910F91FF90EF90DF90CF900895DC
:103BC000CF93DF93FC01808D883020F4EF019BDFE1
:103BD00088E0888FDF91CF910895DA019091DF0B13
:103BE000E92FF0E0FE2FEE27E60FF71F90E0982F69
:103BF0008827A901BD018E0F9F1F0C94EE3F7F9275
:103C00008F929F92AF92BF92CF92DF92EF92FF92EC
:103C10000F931F93CF93DF931F921F92CDB7DEB701
:103C2000782E8B014A01590122E030E0AE014F5F4E
:103C30005F4F64E270E00E940E42E980FA80FE2449
:103C4000EF24FE24E00EF11E970137704091DE0B49
:103C5000072D10E0C801433311F4089601C04096C7
:103C6000982F8827990F990F990F820F931F473329
:103C700019F4A501B40120C0A9014A0D5B1D413012
:103C80005840B8F360E078E06B01C21AD30AA6018D
:103C9000B4010E94EE3FA5014C195D09B4016C0D01
:103CA0007D1D8091DE0B833331F5085F1F4F902F10
:103CB000990F990F990F80E00E94EE3FEA0CFB1CD0
:103CC000F982EA8222E030E0AE014F5F5F4F64E2AA
:103CD00070E0872D82DF0F900F90DF91CF911F91C1
:103CE0000F91FF90EF90DF90CF90BF90AF909F909B
:103CF0008F907F900895005F1F4FD9CF7F928F9252
:103D00009F92AF92BF92CF92DF92EF92FF920F936A
:103D10001F93CF93DF931F921F92CDB7DEB77C0125
:103D20004B01742EC52EFC01A688B788D08CCE011D
:103D300001960E942D4589819A810E9420428D2DF5
:103D400017DE072D1C2D8017910708F48C019801B0
:103D5000A401B5018D2D53DF0E941F42F701868912
:103D60009789800F911F978B868BC8010F900F90BA
:103D7000DF91CF911F910F91FF90EF90DF90CF9047
:103D8000BF90AF909F908F907F900895CF93DF93D7
:103D90001F921F92CDB7DEB779836A8322E030E0AD
:103DA000AE014F5F5F4F60E170E017DF0F900F9043
:103DB000DF91CF910895CF93DF931F921F92CDB7DC
:103DC000DEB779836A8322E030E0AE014F5F5F4F58
:103DD00064E070E002DF0F900F90DF91CF910895C3
:103DE000DF92EF92FF920F931F93CF93DF931F9277
:103DF0001F92CDB7DEB7FB01DC0157961C921E92D5
:103E000056972281211109C02381211106C02481E6
:103E1000211103C025812223F9F041155105E1F05C
:103E20007A018F01FC01D08CCE0101960E942D45B4
:103E300089819A810E942042A8014E5F5F4F24E051
:103E400030E06CE070E08D2DC8DEB7018D2D9EDF77
:103E50000E941F4281E001C080E090E00F900F902F
:103E6000DF91CF911F910F91FF90EF90DF90089518
:103E7000CF93DF931F92CDB7DEB79091DF0B292F41
:103E800030E0322F2227260F371F90E0982F882707
:103E9000498341E050E0BE016F5F7F4F820F931F67
:103EA0000E94EE3F0F90DF91CF910895CF93DF9363
:103EB0001F92CDB7DEB79091DF0B292F30E0322F64
:103EC0002227260F371F90E0982F882741E050E0E7
:103ED000BE016F5F7F4F820F931F0E94633F8981F6
:103EE0000F90DF91CF9108958F929F92BF92CF92C2
:103EF000DF92EF92FF920F931F93CF93DF93CDB793
:103F0000DEB72A970FB6F894DEBF0FBECDBF9091F3
:103F1000DE0B992309F48EC0933319F028E0B22EFA
:103F200002C094E0B92E6B01082FCE0101960E94C9
:103F30002D4589819A810E9420429E012F5F3F4F2B
:103F40007901490110E063E070E0812FAFDFF401F7
:103F500081934F018823C9F01F5FB112F4CF10E0A5
:103F6000F70191917F019D3159F0983149F09A51B3
:103F7000923030F01F5FB112F3CF0E941F425AC03F
:103F800060E170E0812F0E94533FE12EF12C83EE1F
:103F900093E00197F1F7402F60E070E0812F68DF38
:103FA0004FEF62E070E0812F63DFC114D10411F0A4
:103FB000B60113C080910002909101020196811513
:103FC000F0EC9F0710F480E090EC90930102809356
:103FD00000026091000270910102812FECDE61E02D
:103FE00070E0812F0E94533F27E02E9DC0012F9D3E
:103FF000900D11249C012951304F7901F901118252
:10400000108222E030E0AE01475F5F4F68E270E06F
:10401000812F0E940E4289859A85982789279827A3
:10402000F701938382831682158214820E941F42B5
:10403000812F01C088E02A960FB6F894DEBF0FBE2C
:10404000CDBFDF91CF911F910F91FF90EF90DF9047
:10405000CF90BF909F908F9008950F931F93CF9311
:10406000DF93EC018B01888D883008F44CDDB801BA
:1040700082E03ADF888F883030F41D870C871A8EF3
:10408000198E81E001C080E0DF91CF911F910F91E7
:104090000895FF920F931F93CF93DF931F921F9268
:1040A000CDB7DEB7F82ECE0101960E942D4589814D
:1040B0009A810E9420428F2D5BDC8C0163E070E0CE
:1040C0008F2DF4DEF82E0E941F4287E1F81631F0A2
:1040D0008CE1F81619F080E090E001C0C8010F9063
:1040E0000F90DF91CF911F910F91FF9008954F9204
:1040F0005F927F928F929F92AF92BF92CF92DF9208
:10410000EF92FF920F931F93CF93DF931F921F9213
:10411000CDB7DEB7782E6B014A01A82EB12C27E06F
:10412000829FC0011124AC014951504F7A01FA011C
:1041300000811181CE0101960E942D4589819A81CD
:104140000E942042081519054CF4872D70DAF701FA
:1041500026818C01021B11091183008301151105B1
:10416000A1F463E070E0872DA1DE843109F47DC005
:10417000882309F47AC001E010E08C3111F400E0EA
:1041800010E011950195110970C0801691060CF48C
:10419000840187E08A9DF0018B9DF00D1124E95187
:1041A000F04FE280F380C114D10449F12701F7E018
:1041B0005F22872D09DA840D951D2091DE0B2733B0
:1041C00019F4A801B60119C09801240D351D21303C
:1041D0003840B8F320E038E0490184189508A4017C
:1041E000B6010E94633F2601480C591C6801C8189B
:1041F000D908872DE9D9A601B2010E94633FE00EDC
:10420000F11E87E08A9DF0018B9DF00D1124E9518C
:10421000F04FF382E28280819181801B910B918328
:1042200080832681A801420F511D4A3F510510F499
:10423000892BD1F487E08A9DF0018B9DF00D11242C
:10424000E951F04F1682F982EA8222E030E0AE01B5
:104250004F5F5F4F68E270E0872DBFDC60E470E085
:10426000872D0E94533F01C046830E941F42C80110
:104270000F900F90DF91CF911F910F91FF90EF90D2
:10428000DF90CF90BF90AF909F908F907F905F9086
:104290004F900895CF93DF93FC01218D328D21152E
:1042A000310519F48FEF9FEF10C0EC01421753074F
:1042B00008F0A901888D1BDF181619069CF7298DB7
:1042C0003A8D281B390B3A8F298FDF91CF910895B2
:1042D0000F931F93CF93DF931F92CDB7DEB7FC01EF
:1042E000218D328D232B59F08C0141E050E0BE012D
:1042F0006F5F7F4F808DFBDE181619061CF08FEF65
:104300009FEF08C0F801818D928D0197928F818F68
:10431000898190E00F90DF91CF911F910F910895C7
:104320000F931F93CF93DF93CDB7DEB728970FB6C8
:10433000F894DEBF0FBECDBF8C01D80159964D91C8
:104340005C915A974115510551F0ED91FC91048C07
:10435000F58DE02D60E070E0C8011995EECFF80111
:10436000808D7EDB892B49F148E050E0BE016F5F14
:104370007F4FD80158968C91BADE18161906FCF4B6
:10438000D801509684E0FE01319601900D928A95F5
:10439000E1F78D8190E0982F88272E81820F911D63
:1043A000F801958B848B8F8190E0982F8827288542
:1043B000820F911D928F818F02C080E090E028963D
:1043C0000FB6F894DEBF0FBECDBFDF91CF911F9126
:1043D0000F9108951F93CF93DF931F921F92CDB734
:1043E000DEB7182FCE0101960E942D4589819A8152
:1043F0000E94204263E070E0812F58DD182F0E9458
:104400001F42812F0F900F90DF91CF911F91089540
:104410001F93CF93DF931F921F92CDB7DEB7FC019E
:10442000108DCE0101960E942D4589819A810E94AE
:10443000204260E270E0812F0E94533F62E070E012
:10444000812F34DD84FD1AC062E070E0812F2EDD03
:1044500083FF09C048E162E070E0812F09DD0E941E
:104460001F4280E013C00E941F42CE0101960E94AD
:104470002D4589819A810E942042E0CF40E162E08F
:1044800070E0812FF5DC0E941F4281E090E00F90E8
:104490000F90DF91CF911F910895FC01538D448DB2
:1044A000252F30E0842F90E0821B930B541710F0DF
:1044B000CF96089501970895FC01918D828D9817EC
:1044C00061F0828DDF01A80FB11D5D968C91928DF8
:1044D0009F5F9F73928F90E008958FEF9FEF0895F5
:1044E000FC01918D828D981731F0828DE80FF11DBE
:1044F000858D90E008958FEF9FEF08958F929F92A2
:10450000AF92BF92CF92DF92EF92FF920F931F93E1
:10451000CF93DF937C01EB016C0182E0C80ED11CCC
:104520004701E5E08E0E911C00E010E0F60141919C
:104530006F0150E060E070E02AE0CE010E94473554
:104540005C01E881F9810190F081E02D6EE2CE01FD
:1045500019958A0D9B1D080F191F8C149D0431F7A6
:10456000F701458150E060E070E02AE0CE010E9452
:104570004735800F911FDF91CF911F910F91FF90D1
:10458000EF90DF90CF90BF90AF909F908F90089565
:1045900082E09CE00E94783B21E0892B09F420E036
:1045A000822F08958FE99CE00E94783B21E0892BBF
:1045B00009F420E0822F08958CE39DE00E94783B6F
:1045C00021E0892B09F420E0822F089589ED9DE0F8
:1045D0000E94783B21E0892B09F420E0822F089586
:1045E000EF92FF920F931F93CF93DF93EC0181E043
:1045F000888F9B8D8C8D981305C0E889F9898081FF
:1046000085FD26C0F62E0B8D10E00F5F1F4F0F7338
:104610001127E02E8C8DE8120CC00FB607FCFACFE4
:10462000E889F989808185FFF5CFCE010E94923C0F
:10463000F1CF8B8DFE01E80FF11DE35AFF4FF082A1
:104640009FB7F8940B8FEA89FB89808180620AC04A
:104650009FB7F894EE89FF896083E889F9898081A2
:104660008370806480839FBF81E090E0DF91CF9171
:104670001F910F91FF90EF900895CF93DF93EC017E
:10468000888D8823C9F0EA89FB89808185FD05C072
:10469000A889B9898C9186FD0FC00FB607FCF5CFAC
:1046A000808185FFF2CFA889B9898C9185FFEDCFF4
:1046B000CE010E94923CE7CFDF91CF9108951F92E7
:1046C0000F920FB60F9211240BB60F922F933F93B8
:1046D0004F935F936F937F938F939F93AF93BF930A
:1046E000EF93FF9382E09CE00E94923CFF91EF9158
:1046F000BF91AF919F918F917F916F915F914F91FA
:104700003F912F910F900BBE0F900FBE0F901F90F7
:1047100018951F920F920FB60F9211240BB60F929D
:104720002F933F934F935F936F937F938F939F93B9
:10473000AF93BF93EF93FF9382E09CE00E942E35EE
:10474000FF91EF91BF91AF919F918F917F916F9169
:104750005F914F913F912F910F900BBE0F900FBE25
:104760000F901F9018951F920F920FB60F92112461
:104770000BB60F922F933F934F935F936F937F935B
:104780008F939F93AF93BF93EF93FF938FE99CE039
:104790000E94923CFF91EF91BF91AF919F918F91B9
:1047A0007F916F915F914F913F912F910F900BBE31
:1047B0000F900FBE0F901F9018951F920F920FB67B
:1047C0000F9211240BB60F922F933F934F935F9349
:1047D0006F937F938F939F93AF93BF93EF93FF93C9
:1047E0008FE99CE00E942E35FF91EF91BF91AF9130
:1047F0009F918F917F916F915F914F913F912F91F9
:104800000F900BBE0F900FBE0F901F9018951F9228
:104810000F920FB60F9211240BB60F922F933F9366
:104820004F935F936F937F938F939F93AF93BF93B8
:10483000EF93FF938CE39DE00E94923CFF91EF91F8
:10484000BF91AF919F918F917F916F915F914F91A8
:104850003F912F910F900BBE0F900FBE0F901F90A6
:1048600018951F920F920FB60F9211240BB60F924C
:104870002F933F934F935F936F937F938F939F9368
:10488000AF93BF93EF93FF938CE39DE00E942E358F
:10489000FF91EF91BF91AF919F918F917F916F9118
:1048A0005F914F913F912F910F900BBE0F900FBED4
:1048B0000F901F9018951F920F920FB60F92112410
:1048C0000BB60F922F933F934F935F936F937F930A
:1048D0008F939F93AF93BF93EF93FF9389ED9DE0E9
:1048E0000E94923CFF91EF91BF91AF919F918F9168
:1048F0007F916F915F914F913F912F910F900BBEE0
:104900000F900FBE0F901F9018951F920F920FB629
:104910000F9211240BB60F922F933F934F935F93F7
:104920006F937F938F939F93AF93BF93EF93FF9377
:1049300089ED9DE00E942E35FF91EF91BF91AF91DF
:104940009F918F917F916F915F914F913F912F91A7
:104950000F900BBE0F900FBE0F901F9018958F9267
:104960009F92AF92BF92CF92DF92EF92FF920F93FE
:104970001F93CF93DF9300D000D0CDB7DEB7FC01FB
:104980009681992309F466C15B018F01915096834A
:104990006F0182E0C80ED11CC6010E94FE05D8013D
:1049A0001296ED91FC91139780818B3521F08B3716
:1049B00009F49AC027C1F801E080F180B70184E0D2
:1049C00090E00E940508009751F0DC011196FC92DE
:1049D000EE9213961C921E9212977C0113C0809146
:1049E000FA0B81110BC01092F70B1092F60B10927C
:1049F000F90B1092F80B81E08093FA0B96EFE92EF9
:104A00009BE0F92E6BE5C6010E944006882309F45D
:104A100049C06DE5C6010E944006811156C01A8248
:104A20001982BE016F5F7F4FC80199DF8823D1F1E2
:104A3000F7016081718188E090E00E940508DC0147
:104A4000892B39F011961C921E9213961C921E927D
:104A50001297F701228133812115310551F0F901B7
:104A600080819181009711F09C01F9CFB183A083DF
:104A700003C0F701B383A2831097A1F086E0FE0183
:104A80003196129601900D928A95E1F76DE5C60177
:104A90000E944006811119C06CE2C6010E944006C6
:104AA0008111BDCF8091FA0B81110BC01092F70BD1
:104AB0001092F60B1092F90B1092F80B81E0809394
:104AC000FA0B86EFE82E8BE0F82ED7018D919C91A2
:104AD000892B11F4F12CB9C086E090E0F5019183A7
:104AE0008083F382E282AFC0D801ED90FC90B701E1
:104AF00084E090E00E940508009709F4ADC0FC0135
:104B0000F182E082138212827C016BE7C6010E946F
:104B10004006882309F462C06DE7C6010E94400682
:104B200081115FC0C8010E9455064C01892B09F410
:104B300055C06AE3C6010E944006882309F44EC0AE
:104B40001A821982BE016F5F7F4FC80108DF882378
:104B500009F444C0B401C7010E940207009749F557
:104B6000D7016D917C918AE090E00E940508009742
:104B700029F0FC011182108215821482D70112964D
:104B8000ED91FC911397309751F0208131812115DF
:104B9000310511F0F901F9CF9183808303C0F7014A
:104BA000938382830097D1F0DC0113969C928E92BE
:104BB000129726E0FE013196DC01149601900D92C9
:104BC0002A95E1F76DE7C6010E944006811109C0F0
:104BD0006CE2C6010E9440068111A4CF0E94F30737
:104BE0007C01F70180819181892B09F473CF87E0E3
:104BF00090E0D50111969C938E931396FC92EE92C1
:104C0000129721C0FF24F394873219F0823209F001
:104C1000F12CC8010E945506009709F45BCFFF20D4
:104C200041F022E030E0F5013183208393838283D9
:104C30000CC021E030E0D50111963C932E931396E1
:104C40009C938E931297FF24F394F80186818F5FD3
:104C5000868305C0F12C03C00E94F30755CF8F2D2A
:104C600026960FB6F894DEBF0FBECDBFDF91CF9171
:104C70001F910F91FF90EF90DF90CF90BF90AF907A
:104C80009F908F900895CF92DF92EF92FF920F93B3
:104C90001F93CF93DF93CDB7DEB7AE970FB6F894DF
:104CA000DEBF0FBECDBF8C016B01DC018D919C91ED
:104CB000009719F00E94635303C060E070E0CB01DD
:104CC0001CA21BA21EA21DA218A61FA22AE0AE01B2
:104CD0004F5F5F4F0E94A553BE016F5F7F4FCE01B4
:104CE00083960E94063660E778E0CE0189960E949E
:104CF000D736B801CE0189960E94E7356EE778E095
:104D00000E94D035BE016D5D7F4F0E94E73560E89F
:104D100078E00E94D035BC01CE0101960E94CF36CA
:104D2000CE0101960E940A48CE0101960E943036BB
:104D3000CE0189960E943036CE0183960E9430368D
:104D4000F80180819181009719F00E94635303C09C
:104D500060E070E0CB01CB010E94A20E8C010097B5
:104D600009F442C0DC0112966D917C9113974AE0E0
:104D7000CE0183960E94353662E878E0CE018996AE
:104D80000E94D736BE016D5D7F4FCE0189960E948D
:104D9000E735BC01CE0101960E94CF36CE010196C7
:104DA0000E940A48CE0101960E943036CE018996B3
:104DB0000E943036CE0183960E94303681E0F801A1
:104DC00081870190F081E02DE284F384D6018D91FA
:104DD0009C91009719F00E94635303C060E070E05B
:104DE000CB01C801F7011995AE960FB6F894DEBF56
:104DF0000FBECDBFDF91CF911F910F91FF90EF902C
:104E0000DF90CF9008954F925F926F927F928F9232
:104E10009F92AF92BF92CF92DF92EF92FF920F9349
:104E20001F93CF93DF93CDB7DEB762970FB6F89499
:104E3000DEBF0FBECDBF5C01562EC12CD12C97E733
:104E4000692E92E0792E442443948091520F9091E0
:104E5000530FC816D9060CF0CBC18601000F111FE5
:104E6000E0914E0FF0914F0FE00FF11FE080F180C5
:104E7000D70112968D919C9113978A159B0509F085
:104E8000B3C115968C918511AFC169EE73E0CE0167
:104E900007960E94D7366EE878E0CE0107960E940A
:104EA00006366AEC77E0CE0107960E94F835F701E6
:104EB000608171814AE0CE0101960E943536BE01C3
:104EC0006F5F7F4FCE0107960E948A0ECE0101963A
:104ED0000E94303666E978E0CE0107960E94F835E8
:104EE0004AE0D70115966C91CE0101960E948B364F
:104EF000BE016F5F7F4FCE0107960E948A0ECE01E2
:104F000001960E9430366EE978E0CE0107960E9445
:104F1000F835F701628173814AE0CE0101960E9463
:104F20003536BE016F5F7F4FCE0107960E948A0E15
:104F3000CE0101960E94303669EA78E0CE010796EC
:104F40000E94F835D70114966C91CE0101960E940B
:104F5000B736BE016F5F7F4FCE0107960E948A0E63
:104F6000CE0101960E94303666EB78E0CE010796BE
:104F70000E94F835F701608571854AE0CE010196FF
:104F80000E946036BE016F5F7F4FCE0107960E9480
:104F90008A0ECE0101960E94303665EC78E0CE0193
:104FA00007960E94F835D70116966D917C91179758
:104FB0004AE0CE0101960E943536BE016F5F7F4FF9
:104FC000CE0107960E948A0ECE0101960E943036CD
:104FD00060ED78E0CE0107960E94F835F701628512
:104FE000CE0101960E94B736BE016F5F7F4FCE01A2
:104FF00007960E948A0ECE0101960E9430366DED12
:1050000078E0CE0107960E94F835BE01695F7F4FB8
:10501000CE0101960E94CF36BE016F5F7F4F85E0C3
:1050200090E00E94AB47CE0101960E943036CE013F
:1050300007960E943036C5010E94A20E009709F41F
:105040009CC0DC01ED91FC910088F189E02D45E0E8
:1050500050E061EE78E01995E0914E0FF0914F0F1E
:10506000E00FF11F80809180F401868197810E947A
:10507000A20E7C01009721F1DC01ED91FC910088EA
:10508000F189E02D45E050E069EE78E019958091D6
:105090004E0F90914F0FFC01E00FF11F0190F08136
:1050A000E02D8285823509F09FC060857185D7012A
:1050B000ED91FC910284F385E02DC701199594C010
:1050C000F401608171814AE0CE0107960E94353675
:1050D0006DEB78E0CE010D960E94D736BE01695F78
:1050E0007F4FCE010D960E94E73562EF78E00E9477
:1050F000D035BC01CE0101960E94CF36CE0101967B
:105100000E942848CE0101960E943036CE010D96AD
:105110000E943036CE0107960E9430368AE090E039
:105120000E949C50FC018AE0DF011D928A95E9F7FC
:10513000118671826082A0914E0FB0914F0F0A0FBD
:105140001B1FD8018D919C91DC0116962D913C91ED
:105150001797338322831A968C918483D8018D917B
:105160009C91DC0118968D919C911997908787836B
:105170004186CF010E94731237C080914E0F9091EB
:105180004F0FFC01E00FF11F0190F081E02D6081D5
:1051900071814AE0CE0107960E9435366DEB78E0CA
:1051A000CE010D960E94D736BE01695F7F4FCE01BA
:1051B0000D960E94E73565E079E00E94D035BC018C
:1051C000CE0101960E94CF36CE0101960E9428485A
:1051D000CE0101960E943036CE010D960E943036E7
:1051E000CE0107960E943036BFEFCB1ADB0A2DCED8
:1051F00062960FB6F894DEBF0FBECDBFDF91CF91A0
:105200001F910F91FF90EF90DF90CF90BF90AF90E4
:105210009F908F907F906F905F904F9008951F9315
:10522000CF93DF93EC01162F6F8378870E94731260
:10523000612F8A819B81DF91CF911F91E4CDEF9205
:10524000FF920F931F93CF93DF93CDB7DEB7C55F68
:10525000D1090FB6F894DEBF0FBECDBF9E01275F08
:105260003F4F3C832B8328EC30E03E832D83188610
:105270001F8221E732E03A832983FC0180819181FA
:10528000009711F489EE93E09E012F5F3F4FCF52BC
:10529000DF4F39832883C15DD040CD52DF4F9983E2
:1052A0008883C35DD040CB52DF4F39832883C55DEF
:1052B000D0408AE0C952DF4F8883C75DD040C852D2
:1052C000DF4F19821882C85DD040BE0168527F4FFF
:1052D000CE018F529F4F43DB86E0FE01E852FF4F25
:1052E000DE01AC51BF4F01900D928A95E1F786E047
:1052F000FE01EC51FF4FDE01A651BF4F01900D9210
:105300008A95E1F786E0FE01E651FF4FDE01A051EC
:10531000BF4F01900D928A95E1F7C051DF4F888110
:105320009981C05FD040079739F4CE50DF4F088194
:105330001981C25FD04003C00E94F3078C0168E16D
:1053400079E0C8010E94C007882309F4B0C068E171
:1053500079E0C8010E94B8074AE0BC01CE0188523A
:105360009F4F0E9460366FE179E0CE018F529F4FD0
:105370000E94D736BE0168527F4FCE018F529F4F99
:105380000E94E735BC01CE0182529F4F0E94CF366A
:10539000CE0182529F4F0E940A48CE0182529F4FF7
:1053A0000E943036CE018F529F4F0E943036CE0180
:1053B00088529F4F0E94303668E179E0C8010E9410
:1053C000B8079093530F8093520F10925F0F109273
:1053D0005E0F80914E0F90914F0F892BF1F000E0FE
:1053E00010E02091520F3091530F80914E0F909109
:1053F0004F0F021713077CF49801220F331FFC0193
:10540000E20FF31F80819181009711F00E943451C7
:105410000F5F1F4FE6CF0E9434516091520F709181
:10542000530F4AE0CE0188529F4F0E94603667E2D8
:1054300079E0CE018F529F4F0E94D736BE0168524D
:105440007F4FCE018F529F4F0E94E735BC01CE01A6
:1054500082529F4F0E94CF36CE0182529F4F0E94B0
:105460000A48CE0182529F4F0E943036CE018F52A1
:105470009F4F0E943036CE0188529F4F0E94303697
:105480008091520F9091530F8138FFE39F0718F4DA
:10549000880F991F02C08FEF9FEF0E949C5090933E
:1054A0004F0F80934E0F81E08093F50B21C18091C7
:1054B000F50B882309F41CC167E379E0C8010E9459
:1054C000C007882309F414C18BE090E00E949C502F
:1054D0002BE0FC0111922A95E9F720915E0F3091A3
:1054E0005F0F220F331FE0914E0FF0914F0FE20F2D
:1054F000F31F9183808380914E0F90914F0FFC0199
:10550000E20FF31F80819181892B09F4CDC067E3FD
:1055100079E0C8010E94C0078823B1F0E0915E0FD6
:10552000F0915F0FEE0FFF1F80914E0F90914F0F84
:10553000E80FF91FE080F18067E379E0C8010E947D
:105540006307F701918380836AE379E0C8010E94D1
:10555000C0078823B1F0E0915E0FF0915F0FEE0F6E
:10556000FF1F80914E0F90914F0FE80FF91FE080C1
:10557000F1806AE379E0C8010E946307F701938331
:10558000828363E479E0C8010E94C0078823B9F0F0
:10559000E0915E0FF0915F0FEE0FFF1F80914E0FB5
:1055A00090914F0FE80FF91FE080F18063E479E0FC
:1055B000C8010E94EB07FC018081F70184836EE43F
:1055C00079E0C8010E94C0078823A9F0E0915E0F2E
:1055D000F0915F0FEE0FFF1F80914E0F90914F0FD4
:1055E000E80FF91FE080F1806EE479E0C8010E94C5
:1055F0001F07F701858364E579E0C8010E94C007B1
:105600008823B1F0E0915E0FF0915F0FEE0FFF1F66
:1056100080914E0F90914F0FE80FF91FE080F180BD
:1056200064E579E0C8010E946307F70197838683E8
:105630006DE579E0C8010E94C0078823B9F0E091C8
:105640005E0FF0915F0FEE0FFF1F80914E0F909154
:105650004F0FE80FF91FE080F1806DE579E0C80198
:105660000E941F0790E0F701918780876AE679E042
:10567000C8010E94C0078823B9F0E0915E0FF09145
:105680005F0FEE0FFF1F80914E0F90914F0FE80FAD
:10569000F91FE080F1806AE679E0C8010E94EB071B
:1056A000FC018081F701828780915E0F90915F0FEE
:1056B000019690935F0F80935E0F2091520F30916F
:1056C000530F82179307A1F465E779E0CE018F525B
:1056D0009F4F0E94D736CE018F529F4F0E940A489B
:1056E000CE018F529F4F0E94303681E08093490F48
:1056F000CB50DF4F0FB6F894DEBF0FBECDBFDF91AA
:10570000CF911F910F91FF90EF900895CF93DF936A
:10571000EC01FA013296E60FF71FDC01AD014C1BDC
:105720005D0BCF01861B970B2D91222311F0219346
:10573000F5CF9C01241B350B620F731FFB013297C1
:10574000508331964083DF91CF910895EF92FF927D
:105750000F931F93CF93DF9300D01F92CDB7DEB787
:105760009A01E0E0922F9F77220F232F221F330B05
:1057700031952115310509F0906801E00E0FA1E087
:10578000B0E0AC0FBD1FAE0FB11DFD019083211520
:10579000310511F0E02FE6CF10E09B01201B310B0B
:1057A0002C5F3F4FF9018083DE011196FB01E01B66
:1057B000F10B3596CB010596E817F90719F06D91B5
:1057C0006193FACF8091820E9091830E4F5F5F4F6D
:1057D000040F151FDC01ED91FC910280F381E02D97
:1057E000A801B90119957C010E94AC3D6093060F98
:1057F0007093070F8093080F9093090F81E00E15A7
:105800001F0509F080E00F900F900F900F90DF912F
:10581000CF911F910F91FF90EF9008950C94345108
:105820001F93CF93DF93EC01162F6F8378870E942D
:105830007312612F8A819B81DF91CF911F91E3CAFF
:1058400008956F927F928F929F92AF92BF92CF9264
:10585000DF92EF92FF920F931F93CF93DF93CDB719
:10586000DEB761970FB6F894DEBF0FBECDBF6C01F7
:1058700065ED79E0CE0101960E94D736CE01019602
:105880000E940A48CE0101960E9430368EE090E0D8
:105890000E949C507C01D60115961C9160E0812FDE
:1058A0000E94383D812F90E0FC01EA5BFD4FE491BE
:1058B000D701EC93FC01E457FD4FE491F0E0EE0FCB
:1058C000FF1FEE52FD4F85919491F70192838183E2
:1058D0001386158614865701FBE0AF0EB11C4701F5
:1058E00083E0880E911CF50112928E169F06E1F757
:1058F000D6011B96FC92EE921A9783E190E00E94EB
:105900009C508C0182E09EE3F801928B818BF682A1
:10591000E5821482108289E0818381E0828383831F
:10592000D6011F961C930E931E97F50112925F01EC
:10593000E815F905D1F788248394D8011596ED90E0
:10594000FC901697F701858581116BC0C7010E94F5
:10595000014481110AC0D7011B961C921B971D960A
:105960001C921D971C961C92E7C040E060EFC70197
:105970000E94B143AA24A394712C612CBB24B3943C
:10598000C7010E945E43982EC7010E945E43B1E0AA
:105990009B1203C08130C9F438C0272D30E0981223
:1059A0001EC0F7018385B81630F4E20FF31F838120
:1059B0008A2159F402C08B1541F0912CF8E0FB15B7
:1059C00068F0D7011C96BC9209C0F701E70DF11DE4
:1059D00083818A2983839924939409C06B2CF701CE
:1059E000E20FF31F93818A2D809589238383692D8C
:1059F000C7010E948243B394AA0C19F47394AA2499
:105A0000A394B7E0B71508F0BBCFE0E4EB1548F47A
:105A1000D7011B966C921B97611008C01D968C9243
:105A200005C0F70113861586148686C0D701139624
:105A30008C918823B1F3B7016D5F7F4FDE011A9619
:105A40009701255F3F4FCD01FA2EBB2EFB014191FF
:105A5000BF01FC014193CF0162177307B9F788E0DA
:105A6000E0E0815039F09D91E927F0E0E451FD4FED
:105A7000E491F7CF89898E1360CFD8018C91811181
:105A800026C015968D919C9116970E9401446F2D0A
:105A90007B2DF801858196810E94E44340E064EB10
:105AA000D80115968D919C9116970E94B143F801EB
:105AB000858196810E945E43E82ED80115968D91CE
:105AC0009C9116970E940144EE2009F452C0F801FF
:105AD000858196810E940144882341F0AE014F5F89
