:10000000B4C10000E3C10000E1C10000DFC1000095
:10001000DDC10000DBC10000D9C10000D7C1000074
:10002000D5C100000C940A5F0C940A5F0C940A5F1F
:10003000CDC10000CBC10000C9C10000C7C1000094
:10004000C5C10000C3C10000C1C10000BFC10000A4
:10005000BDC10000BBC10000B9C100000C94C05E6E
:10006000B5C100000C94965E0C946C5EAFC10000AC
:10007000ADC10000ABC10000A9C10000A7C10000D4
:10008000A5C10000A3C10000A1C100009FC10000E4
:100090000C94425E0C94185E99C1000097C1000058
:1000A00095C1000093C1000091C100008FC1000004
:1000B0008DC100008BC1000089C1000087C1000014
:1000C00085C1000083C1000081C100000C94EE5D79
:1000D0000C94C45D7BC100000C949A5D0C94705D1F
:1000E00075C1000000407A10F35A00A0724E180942
:1000F0000010A5D4E80000E87648170000E40B548F
:10010000020000CA9A3B000000E1F505000080965D
:100110009800000040420F000000A086010000008F
:10012000102700000000E803000000006400000049
:1001300000000A00000000000100000000002C7612
:10014000D888DC674F0823DFC1DFAE59E1B1B7962D
:10015000E5E3E453C63AE651997696E8E6C284268A
:10016000EB898C9B62ED407C6FFCEFBC9C9F40F266
:10017000BAA56FA5F490055A2AF75C936B6CF967E2
:100180006DC11BFCE0E40D47FEF520E6B500D0EDA7
:10019000902E0300943577050080841E080000200F
:1001A0004E0A000000C80C333333330F986E1283AD
:1001B0001141EF8D2114893BE65516CFFEE6DB1881
:1001C000D1844B381BF77C1D901DA4BBE424203246
:1001D00084725E228100C9F124ECA1E53D27CDCCDB
:1001E000CC3D0AD7233C17B7D13877CC2B32959525
:1001F000E6241FB14F0A0000803FCDCCCC3D6F12EA
:10020000833A95BFD6337D1D9026B3CE010C0000F6
:1002100020410000C84200401C4620BCBE4CCA1B06
:100220000E5AAEC59D74005EBCE2613FDD83C29C88
:100230007E20A3FD1F41009D23BE46DB65F88C1187
:10024000AF32CA57E97400002000230026002900BD
:100250002C002F00320000010000030106010901FB
:1002600000000A0B02090C0D0E0807030401000030
:10027000000000000000000000000000000000007E
:10028000000000000000000000000000121110003B
:10029000000000000000000000000000000000005E
:1002A00000000000000000002200250028002B00B4
:1002B0002E003100340002010000050108010B018D
:1002C00000002100240027002A002D003000330008
:1002D00001010000040107010A01010210202008A9
:1002E0000810204010204080020102010804020191
:1002F0000102040810204080804020100804020100
:100300008004020180402010080402010804020158
:1003100001020408102040800102040810204080DF
:1003200005050505070508080808020202020A0A71
:10033000080804040404010101010101010103038F
:10034000030303030303040707070C0C0C0C0C0C3A
:100350000C0C0202020206060606060606060B0B37
:100360000B0B0B0B0B0B865FF26311241FBECFEF41
:10037000D1E2DEBFCDBF00E00CBF1EE0A0E0B2E0E6
:10038000EEE5F1EE00E00BBF02C007900D92AA353A
:10039000B107D9F722E1AAE5BEE001C01D92A73757
:1003A000B207E1F711E0C4EBD1E000E006C021970D
:1003B0000109802FFE010E94A26CC33BD10780E09F
:1003C0000807A9F70E9498610C949E7019CECF93EC
:1003D000DF93EC01FA013296E60FF71FDC019D0175
:1003E0002C1B3D0BCF01861B970B4D91442311F025
:1003F0004193F5CFAC01421B530B640F751FFB01FA
:100400003297308361507109FB012083DF91CF91D6
:1004100008958CBD9DBD089508950F931F93CF93AC
:10042000DF9300D000D01F92CDB7DEB78C01FB0167
:10043000342F498342814A8393819B8324812C8377
:1004400085818D831E82430F5527551F490F511DEE
:10045000240F352F311D820F932F911D8F83D801CB
:100460008D919C91DC01ED91FC910084F185E02D52
:100470001995F801A081B181ED91FC911197892B1B
:1004800031F00284F385E02DCD011995E8CF02808B
:10049000F381E02D47E050E0BE016F5F7F4FCD015B
:1004A000199527960FB6F894DEBF0FBECDBFDF912A
:1004B000CF911F910F910895E0915712F09158122A
:1004C0003097A9F040915B1250915C1230E020E02F
:1004D0002417350764F4A191B19112966D917C9126
:1004E00013976817790729F02F5F3F4FF1CFB0E0DE
:1004F000A0E0CD010895FC01818D928D0895AF9209
:10050000BF92CF92DF92EF92FF920F931F93CF9300
:10051000DF936C017B018B01040F151FEB015E0162
:10052000AE18BF08C017D10759F06991D601ED91F7
:10053000FC910190F081E02DC6011995892B79F786
:10054000C501DF91CF911F910F91FF90EF90DF9048
:10055000CF90BF90AF900895FC01A089B1898C9194
:10056000A689B78982FD0FC09C91818D8F5F8F73A3
:10057000228D821749F0A18DAE0FBF2FB11D5D9660
:100580009C93818F08958C910895FC01538D448D27
:10059000252F30E0842F90E0821B930B541710F02E
:1005A000CF96089501970895FC01918D828D98173B
:1005B00061F0A28DAE0FBF2FB11D5D968C91928D13
:1005C0009F5F9F73928F90E008958FEF9FEF089544
:1005D000FC01918D828D981731F0828DE80FF11D0D
:1005E000858D90E008958FEF9FEF0895FC01918D28
:1005F000228D892F90E0805C9F4F821B91098F7321
:100600009927089585EF9EE0F1DF21E0892B09F419
:1006100020E0822F089582E99FE0E8DF21E0892B26
:1006200009F420E0822F08958FE290E1DFDF21E0DE
:10063000892B09F420E0822F08958CEC90E1D6DF1D
:1006400021E0892B09F420E0822F0895FC01A48D7C
:10065000A80FB92FB11DA35ABF4F2C91848D90E0E4
:1006600001968F739927848FA689B7892C93A089C7
:10067000B1898C91837080648C93938D848D981351
:1006800006C00288F389E02D80818F7D80830895E4
:10069000EF92FF920F931F93CF93DF93EC0181E0D2
:1006A000888F9B8D8C8D98131AC0E889F989808179
:1006B00085FF15C09FB7F894EE89FF896083E889AC
:1006C000F98980818370806480839FBF81E090E09E
:1006D000DF91CF911F910F91FF90EF900895F62E2B
:1006E0000B8D10E00F5F1F4F0F731127E02E8C8DC5
:1006F0008E110BC00FB607FCFACFE889F98980810B
:1007000085FFF5CFCE01A2DFF2CFEB8DEC0FFD2FF1
:10071000F11DE35AFF4FF0829FB7F8940B8FEA89DF
:10072000FB8980818062D0CFCF93DF93EC01888DED
:100730008823B1F0AA89BB89E889F9898C9185FD64
:1007400003C0808186FD0CC00FB607FCF7CF8C91EB
:1007500085FFF2CF808185FFEDCFCE0177DFEACF35
:10076000DF91CF91089580E090E0892B21F065DF43
:1007700081110E94000080E090E0892B21F054DF7D
:1007800081110E94000080E090E0892B21F043DF7E
:1007900081110E94000080E090E0892B21F032DF7F
:1007A00081110C94000008958150823108F05AC0E4
:1007B000E82FF0E08827E052FC4F8F4F0C94A26C9A
:1007C00000040404F203F803FC03320407040D04DC
:1007D000110417041B041F042504290432042D04EA
:1007E00033043704809180008F77809380000895D0
:1007F000809180008F7DF9CF80918000877FF5CF39
:1008000084B58F7784BD089584B58F7DFBCF8091AB
:10081000B0008F778093B00008958091B0008F7DF5
:10082000F9CF809190008F77809390000895809108
:1008300090008F7DF9CF80919000877FF5CF8091D8
:10084000A0008F778093A00008958091A0008F7DF5
:10085000F9CF8091A000877FF5CF809120018F771D
:10086000809320010895809120018F7DF9CF8091A0
:100870002001877FF5CFCF93DF93282F30E0F90158
:10088000E05AFD4F8491F901E652FD4FD491F901F0
:10089000E05EFC4FC491CC2399F0811185DFEC2FF1
:1008A000F0E0EE0FFF1FEA5BFD4FA591B491EC91D4
:1008B000ED2381E090E009F480E0DF91CF9108958D
:1008C00080E090E0FACF1F93CF93DF93282F30E0A2
:1008D000F901E05AFD4F8491F901E652FD4FD491A0
:1008E000F901E05EFC4FC491CC23A1F0162F8111D9
:1008F0005BDFEC2FF0E0EE0FFF1FEA55FD4FA591F7
:10090000B4918FB7F894EC91111108C0D095DE2303
:10091000DC938FBFDF91CF911F910895DE2BF8CF2D
:10092000CF93DF9390E0FC01E652FD4F2491805E6F
:100930009C4FFC0184918823D1F090E0880F991F8F
:10094000FC01E054FD4FA591B491FC01EA55FD4F27
:10095000C591D49161110EC09FB7F8948C91E22F8C
:10096000E0958E238C932881E223E8839FBFDF915B
:10097000CF9108958FB7F894EC91E22BEC938FBF51
:10098000F6CF3FB7F8948091A40E9091A50EA09158
:10099000A60EB091A70E26B5A89B05C02F3F19F053
:1009A0000196A11DB11D3FBFBA2FA92F982F8827EF
:1009B000BC01CD01620F711D811D911D42E0660FCA
:1009C000771F881F991F4A95D1F708958F929F929C
:1009D000AF92BF92CF92DF92EF92FF926B017C01B8
:1009E000D0DF4B015C01C114D104E104F104B1F08A
:1009F000C8DF681979098A099B09683E7340810537
:100A0000910588F321E0C21AD108E108F10888EEC7
:100A1000880E83E0981EA11CB11CE5CFFF90EF90DB
:100A2000DF90CF90BF90AF909F908F9008952FB799
:100A3000F8946091A00E7091A10E8091A20E9091F9
:100A4000A30E2FBF0895EF92FF920F931F93CF93A2
:100A5000DF9300D01F92CDB7DEB7FA0120E08E0100
:100A60000F5F1F4F9E2F9F77EE0FEF2FEE1FFF0B95
:100A7000F195309709F09068D801A20FB11D9C93B1
:100A80002F5F309779F730E0FB01E21BF30B848393
:100A9000FB01E21BF30B3596D801CD01801B910BB6
:100AA000821793071CF48D918193F7CF2F5F3F4FEF
:100AB0008091F7119091F8118901040F151F621BA5
:100AC000730B6B5F7F4FDC01ED91FC910280F38132
:100AD000E02DA80119957C01AADF609303127093A1
:100AE0000412809305129093061281E00E151F05E3
:100AF00009F080E00F900F900F900F90DF91CF9151
:100B00001F910F91FF90EF9008958F929F92AF9257
:100B1000BF92CF92DF92EF92FF92CF93DF93EC01DF
:100B200086DF4B015C018091F7119091F811DC0197
:100B3000ED91FC910084F185E02D1995892BB1F49C
:100B400076DF6B017C01C818D908EA08FB08209100
:100B5000FF1130910012A8EEB3E00E947E6BC61622
:100B6000D706E806F906F8F280E00DC08091F7118B
:100B70009091F811DC01ED91FC910284F385E02D58
:100B80001995888381E0DF91CF91FF90EF90DF90FE
:100B9000CF90BF90AF909F908F9008952F923F92EB
:100BA0004F925F926F927F928F929F92AF92BF927D
:100BB000CF92DF92EF92FF920F931F93CF93DF9329
:100BC00000D000D000D01F92CDB7DEB71C018091BD
:100BD000F9119091FA1199DF81111CC060E070E069
:100BE000CB012A960FB6F894DEBF0FBECDBFDF91C2
:100BF000CF911F910F91FF90EF90DF90CF90BF901A
:100C0000AF909F908F907F906F905F904F903F90AC
:100C10002F900895E091F911F091FA11D080198286
:100C2000EE24E394F12C812C912C5401412C512C75
:100C300032014394CE01019668DF882379F287015F
:100C40000F5F1F4F8981E091F911F091FA11EE0DBC
:100C5000FF1D8083E981AE2FAF77B0E0A301920141
:100C60000E946E6B860E971EA81EB91E37E0440CBC
:100C7000551C661C771C3A95D1F7E7FD3DC0BD2D8C
:100C8000B07FBE838FEF800FF1018083B03309F016
:100C90004AC08091F9119091FA11800F911F35DFB0
:100CA000882309F49BCF2091F9113091FA11C701E3
:100CB0000296820F931F29DF882309F48FCF0E5FDE
:100CC0001F4FE091F911F091FA11D1018C91DF01E0
:100CD000A80FB11D11968C91119790E0982F88273D
:100CE00012962C91820F911D208121FD0296F2E037
:100CF000E0E030E020E01DC078010530110509F08A
:100D000099CF8FEF9FEF90931B1280931A128091CF
:100D1000F7119091F811DC01ED91FC910488F589AF
:100D2000E02D19955BCFF0E0E0E030E020E090E0CE
:100D300080E070E060E0CF2EDE2EE32EF22E280160
:100D40003B014C185D086E087F084A825B826C820A
:100D50007D822C01712C612C4F82588669867A869F
:100D60004A805B806C807D804C0C5D1C6E1C7F1CFF
:100D7000C814D904EA04FB0408F045C0CE0101966A
:100D8000C4DE882309F42ACF809118129091191299
:100D9000009711F12E812033F9F4D1012C914EEFFF
:100DA0005FEF6FEF7FEF421B510961097109440E3C
:100DB000551E661E771E2F81388549855A85241554
:100DC00035054605570540F4DC01ED91FC91019095
:100DD000F081E02D698119958091FB119091FC11B2
:100DE0000817190750F48981E091F911F091FA116F
:100DF000E00FF11F80830F5F1F4FBFEFCB1ADB0A9D
:100E0000EB0AFB0AADCF8091181290911912892B31
:100E100069F48091FB119091FC11B0E0A0E0841581
:100E20009505A605B70510F410E000E0B80190E0C4
:100E300080E0D7CEFC0120812EBD9B0121503109DD
:100E400041F051810DB407FEFDCF4EB55EBD41931B
:100E5000F5CF61507109860F971F0DB407FEFDCFC6
:100E60002EB5FC0120830895E091EF0EF091F00E75
:100E700080819091EE0E892B80830895E091EF0E92
:100E8000F091F00E90818091EE0E80958923808301
:100E900008958EBD00000DB407FEFDCF8EB50895F8
:100EA000AF92BF92CF92DF92EF92FF920F931F9378
:100EB000CF93DF9300D000D01F921F92CDB7DEB743
:100EC0008C017B016A018091F20E8333B1F45801E9
:100ED000A40EB51EA016B10609F463C0CFDF80EFE3
:100EE000D8DF812FD6DF802FD4DF0F5F1F4FF701B0
:100EF00081917F01CEDFB8DFEDCF5B01A40EB51E7F
:100F00008433A9F4BBDF19830A838D2D80688B831A
:100F1000CC8264E070E0CE0101968CDFAE14BF0499
:100F200009F43EC0F70181917F01B3DFF7CFA6DF5F
:100F30000F3F110509F028F419820A8384E08B839E
:100F40000CC017FD17C019820A8333E01695079568
:100F50003A95E1F7007E0C600B8386E0C816D10459
:100F600090F5F701DE011496EA15FB0599F08191E1
:100F70008D93FACFC80126E0969587952A95E1F7DB
:100F8000807E19830A830115104C10F48461D7CF39
:100F90008C61D5CFB6016D5F7F4FCE0101964ADFE0
:100FA00063DFC60128960FB6F894DEBF0FBECDBF33
:100FB000DF91CF911F910F91FF90EF90DF90CF9035
:100FC000BF90AF90089563E070E0CE01019632DFEC
:100FD000F70181917F015DDFAE14BF04C9F7E0CF57
:100FE000CF93DF931F92CDB7DEB7898341E050E006
:100FF000BE016F5F7F4F90E080E052DF0F90DF9186
:10100000CF91089590E02091F20E233339F40C969D
:10101000982F990F990F990F80E008954896F8CF6F
:10102000DA01E091F30EF0E0FE2FEE27E60FF71F56
:1010300090E0982F8827A901BD018E0F9F1F30CF08
:10104000CF93DF931F921F92CDB7DEB779836A8368
:1010500022E030E0AE014F5F5F4F60E170E0E0DF23
:101060000F900F90DF91CF910895CF93DF931F9250
:101070001F92CDB7DEB779836A8322E030E0AE01FC
:101080004F5F5F4F64E070E0CBDF0F900F90DF9118
:10109000CF910895CF93DF931F92CDB7DEB7209104
:1010A000F30E30E0322F2227260F371F90E0982FC3
:1010B0008827498341E050E0BE016F5F7F4F820F78
:1010C000931FEEDE0F90DF91CF910895CF93DF93C2
:1010D0001F92CDB7DEB76983DC01ED91FC910280F0
:1010E000F381E02D41E050E0BE016F5F7F4F199525
:1010F0000F90DF91CF910895FC019485FB018485C9
:10110000981303C081E0983008F080E00895CF93F1
:10111000DF931F92CDB7DEB76983DC01ED91FC91BF
:101120000280F381E02D41E050E0BE016F5F7F4F10
:1011300019950F90DF91CF9108950895FF920F9325
:101140001F93CF93DF93EB01FC01178A168A2A8144
:10115000211109C02B81211106C02C81211103C04E
:101160002D812223E9F041155105D1F08A01FC01BE
:10117000F08C80E591E04DD9AE014E5F5F4F24E0E9
:1011800030E06CE070E08F2D4BDFB8018F2D58DF21
:1011900081E090E0DF91CF911F910F91FF90089532
:1011A00080E0F7CFFC01848595850895FC01848952
:1011B0009589089521EA33E0FC0131832083FB0106
:1011C0004089518962897389FC0142835383648316
:1011D00075830895DC01ED91FC91048CF58DE02D73
:1011E0001994DC0180E0615090F09D919827E92FDF
:1011F000EF70F0E0EA5DFD4F2491E92FE295EF708A
:10120000F0E0EA5CFD4FE491822F8E27ECCF089549
:10121000DC012C911196ED91FC91F8948181822B47
:1012200081839281322F30959323928387E090E0DF
:101230000197F1F781818323818383E290E0019715
:10124000F1F790817894EFECF0E03197F1F7922389
:1012500081E009F480E00895FC0190810180F28131
:10126000E02D292F209560FF14C0F89482818223FD
:1012700082838181892B8183A3E2B0E01197F1F70A
:101280008281982B9283789487ED90E00197F1F713
:101290000895F8948281822382838181892B8183BE
:1012A000AFEFB0E01197F1F78281982B9283789499
:1012B0008FE090E0EBCFDF92EF92FF920F931F93BE
:1012C000CF93DF93EC01D62EE42E08E010E0FF244C
:1012D000F39461E08D2D8F2109F460E0CE01BCDF35
:1012E000FF0C01501109A9F7E11010C0F894E98131
:1012F000FA8191818881809589238183E981FA81AE
:10130000928188818095892382837894DF91CF911F
:101310001F910F91FF90EF90DF900895EF92FF9251
:101320000F931F93CF93DF938C017B0140E065E522
:10133000C2DFE70188E0E80EF11C699140E0C801D6
:10134000BADFCE15DF05C9F7DF91CF911F910F915D
:10135000FF90EF900895FC0190810180F281E02DD3
:10136000F8948181292F20958223818378943DE709
:1013700043E050E0315029F1DA011197F1F7808113
:101380008923C1F3F8948281822382838181892B0E
:1013900081837894ABE7B7E01197F1F7F8948181F6
:1013A00082238183A3E1B1E01197F1F78081982333
:1013B00081E009F080E07894E3E6F6E03197F1F718
:1013C000089580E008954F925F926F927F928F927E
:1013D0009F92AF92BF92CF92DF92EF92FF920F93C4
:1013E0001F93CF93DF938C017B01EA01FC01818580
:1013F0009285B1DF8823B9F1B701F8018185928523
:101400008DDF40E06EEBF8018185928554DF6E013F
:101410005E01F9E0AF0EB11C7E01F8018184928477
:1014200088E0682E712C512C44244394C401F0DED2
:1014300081115428440CF1E06F1A7108B9F7F701D3
:1014400051927F01AE16BF0641F7F8018185928562
:1014500082DF813041F4F60181916F01811105C075
:10146000EE15FF05C1F790E007C068E0CE01B9DED8
:1014700091E028852813F7CF892FDF91CF911F9115
:101480000F91FF90EF90DF90CF90BF90AF909F9023
:101490008F907F906F905F904F900895CF93DF93E0
:1014A00000D000D000D0CDB7DEB7AE014F5F5F4FA8
:1014B0008ADF882331F08D818F33A9F020F48F31BA
:1014C000A1F080E007C08F3521F08F37D1F78CE095
:1014D00001C08BE029960FB6F894DEBF0FBECDBFDA
:1014E000DF91CF9108958AE0F5CF89E0F3CFCF93D4
:1014F000DF93FC01A481B581109711F480E029C02D
:10150000EC01ED91FC9111970688F789E02DCD0152
:1015100019952FA138A5811119C0232B79F78DEFCB
:101520009FEF98A78FA38C819D81DC01ED91FC91A9
:101530000680F781E02D19958C819D81DC01ED916C
:10154000FC910488F589E02D1995D8CF81E0232BF3
:10155000A9F6DF91CF910895EF92FF920F931F9319
:10156000CF93DF93EC018B017A0161DA688B798B81
:101570008A8B9B8B8C819D81DC01ED91FC9102809B
:10158000F381E02DA701B801DF91CF911F910F9159
:10159000FF90EF9019941F93CF93DF93EC01162FD8
:1015A00046DA688B798B8A8B9B8B8C819D81DC01E1
:1015B000ED91FC910190F081E02D612FDF91CF91B1
:1015C0001F91199420919D0E30919E0E2817390776
:1015D00071F490919C0E80919B0E981741F0E091D0
:1015E0009C0EF0E0E55AF14F808190E008958FEF76
:1015F0009FEF0895EF92FF920F931F93CF93DF9386
:10160000DC015C96ED90FC905D97E114F10479F4B7
:1016100081E090E013969C938E93129790E080E087
:10162000DF91CF911F910F91FF90EF900895519608
:10163000ED91FC91529750968C915097982F9095E0
:101640000FB75E962C915E97122F127021FD609558
:10165000F8942081112319F1282B2083E701219789
:10166000F1F728E0462F50E0308160FF1AC0382B98
:101670003083E7012197F1F7BA01759567952150FD
:1016800089F7112381F08081892380830FBF5C96C5
:101690008D919C910197F1F781E090E0C1CF2923D2
:1016A000DCCF3923E5CF9081892BEFCF20919D0EA0
:1016B00030919E0E2817390771F480919B0E20916E
:1016C0009C0E90E0805C9F4F821B910960E470E06B
:1016D0000C948F6C089590E080E0089520919D0E09
:1016E00030919E0E28173907B9F490919C0E809185
:1016F0009B0E981789F0E0919C0EF0E0E55AF14FAF
:10170000808120919C0E30E02F5F3F4F2F73332755
:1017100020939C0E90E008958FEF9FEF0895CF9354
:10172000DF93FC01828D938D892B41F1A0919D0E59
:10173000B0919E0EAE17BF0709F1109751F0539666
:10174000CD91DC915497988155968C918095892301
:101750008883868D8E7F868F10929B0E10929C0EB2
:10176000F0939E0EE0939D0EA389B4898C91958988
:10177000892B8C9381E0DF91CF91089580E0FBCF9E
:101780004F925F926F927F928F929F92AF92BF9291
:10179000CF92DF92EF92FF920F931F93CF93DF933D
:1017A00000D000D01F92CDB7DEB76C01E62E8A01C3
:1017B000DC0112968C911297882319F08D919C91DF
:1017C000AEDF35D94B015C01F12CB6E0BF1590F1CD
:1017D0002ED9681979098A099B09F601438054803A
:1017E00065807680641575058605970530F58081DE
:1017F0009181DC01ED91FC910084F185E02D19953A
:101800001816190614F7F60180819181DC01ED911B
:10181000FC910284F385E02D1995811102C0FF200F
:10182000B9F2E1E0F0E0EC0FFD1FEF0DF11D808358
:10183000F394CBCFB7E0FB1611F080E01CC04981D8
:101840008A81840F9927991F2B81820F911D2C81EA
:10185000280F392F311D8D81280F311D8E81820F68
:10186000932F911D9F819813E8CFE412E6CF0115C5
:101870001105C1F481E027960FB6F894DEBF0FBEC4
:10188000CDBFDF91CF911F910F91FF90EF90DF902F
:10189000CF90BF90AF909F908F907F906F905F9010
:1018A0004F900895DE011196F80198012B5F3F4F8C
:1018B0001196E217F307F1F28C918193F9CFFB01B6
:1018C00022813381FC0133832283FB012481FC01CB
:1018D000248308950895CF93DF93EC0161E08F8115
:1018E0001FD861E070E08D81813011F070E060E020
:1018F000E881F9810288F389E02DCE01DF91CF9153
:101900001994FC01158208950895089587E00895BB
:10191000089508950895FC01118612861386148691
:1019200015820895089580339CF08A3324F08F3512
:1019300024F08B3724F481E0089581344CF08B350A
:10194000D4F393ED980F81E09230B0F380E00895E6
:101950008B32B9F7F0CFFC018685811114C0A185C7
:10196000B285838594852FEF3FEFA817B90730F430
:10197000CD010196928781872C9130E037FD20E0E0
:10198000258781E08687858508951F93CF93DF9310
:10199000EC01162FE0DF811306C01E8681E0DF9187
:1019A000CF911F91089580E0FACFCF93DF93EC01A0
:1019B000CE01D1DF8B303CF489304CF4882349F0E0
:1019C00081E0888710C08D3011F08032C9F71E8603
:1019D000EFCF888581110AC081E090E0CF5ADF4FB8
:1019E0009983888380E0DF91CF91089582E090E031
:1019F000F5CFFC01892B41F094819F779450923070
:101A000018F480819181089590E080E00895FC01B0
:101A100085859F01275F3F4F85FD02C030E020E0B4
:101A2000B901CF010895FC010E96918380839383C1
:101A30008283805C994F9583848397838683108605
:101A4000858580788587089584E0089508958BE0E2
:101A5000089583E0089585E0089580E0089508954D
:101A6000089580E00895FC01828193810097C1F080
:101A700024813581468157812417350740F0138230
:101A800012820190F081E02D81E080870895A90104
:101A90004F5F5F4F55834483820F931FFC01608328
:101AA00008959F92AF92BF92CF92DF92EF92FF92F2
:101AB0000F931F93CF93DF9300D01F921F92CDB748
:101AC000DEB78C0148DFD82EF8011686F12CE12C08
:101AD00070EFC72EC8013FDFF8011686D81609F44B
:101AE000BDC0811119C0F801EF5AFF4F82E090E0AC
:101AF0009183808380E00F900F900F900F900F9054
:101B0000DF91CF911F910F91FF90EF90DF90CF90D9
:101B1000BF90AF909F9008958C3509F09BC0C8018D
:101B20001ADF882301F3E3EAF3E0853709F086C082
:101B3000F801168664E0962EB12CA12CC8010BDFAB
:101B4000882389F281344CF48053803148F0F801C5
:101B5000EF5AFF4F83E090E0CBCF8F7D8753F5CFD7
:101B600054E0AA0CBB1C5A95E1F7A82AF801168686
:101B70009A949110E3CFC501985D8115944020F4AB
:101B8000750123E0F222A6CFC5019C5D811594402A
:101B900000F5F3E0BF22C701982F8827990F990F0E
:101BA0008A299B29B0E0A0E011961982803891051E
:101BB000A105B10590F48A835E0123E0A20EB11C59
:101BC000F50162915F01662309F484CFC8014BDF00
:101BD000F7CFC501B0E0A0E0E8CF282F2F73206831
:101BE0002A8336E0B695A795979587953A95D1F7CC
:101BF0008032910538F4806C8B835E0184E0A80EFE
:101C0000B11CDECF282F2F7320682B8326E09695FA
:101C100087952A95E1F78031910538F4806E8C83A1
:101C20005E01E5E0AE0EB11CCBCF80688C83CD8227
:101C30005E01F6E0AF0EB11CC3CF329690819923BE
:101C400009F485CF8913F9CF8181882309F47FCFE7
:101C5000F8011686682FC80106DF3CCF60E0C80196
:101C600002DFF80182819381892B29F4EF5AFF4F1B
:101C700084E090E03DCF81E03ECFEF92FF920F9362
:101C80001F93CF93DF93DC01ED90FC90E7012A8155
:101C90003B81E881F981E217F30780F4B901DF01A4
:101CA000EB014991BE018D010F5F1F4F5C91451300
:101CB00018C0D8014111F4CF309759F4FC01848148
:101CC0009581820F931FD70113969C938E93129741
:101CD000F901CF01DF91CF911F910F91FF90EF900C
:101CE0000895FD014191DF014111FBCFD4CFCF9386
:101CF000DF93DC01EB01EC81FD818A819B810896F9
:101D0000E817F90740F481E08887F0E0E0E0CF01D0
:101D1000DF91CF9108953897FD83EC833097B9F325
:101D20001296CD91DC911397209791F0CF018C1BE7
:101D30009D0B23E0959587952A95E1F78D83139662
:101D4000FC93EE9312971582148217821682DFCFCE
:101D50001196FC93EE93F3CF0895CF93FC01892B5A
:101D600091F094819F77983029F078F4992359F075
:101D7000963079F4C1E080819181A281B381892B71
:101D80008A2B8B2B39F4C0E005C09A3099F39C3034
:101D900021F0C1E08C2FCF910895C1E020E030E028
:101DA000A90160817181828193810E94F269811110
:101DB000F1CFE9CFFC0114861586168617861186A9
:101DC000158208954F925F926F927F928F929F92A9
:101DD000AF92BF92CF92DF92EF92FF920F931F9339
:101DE000CF93DF93EC017B0188818B32C1F18D327F
:101DF000B9F5219611E0888190ED980F9A3018F08E
:101E00008E3209F03AC160E070E0CB01FE01219111
:101E100000ED020F0A3030F56A3929E972078207AE
:101E200029E1920708F045C0AAE0B0E09B01AC01AF
:101E30000E946E6B802E912CB12CA12C24013501B7
:101E4000409450946094709446165706680679063C
:101E500080F1680D791D8A1D9B1DEF01D7CF21965A
:101E600010E0C9CF211125C0F7012481207811236A
:101E7000C1F02A6024836083718382839383812FDE
:101E8000DF91CF911F910F91FF90EF90DF90CF9056
:101E9000BF90AF909F908F907F906F905F904F908A
:101EA000089528602483608371838283938311E083
:101EB000E6CF00E0EAE08E2E912CA12CB12C61152A
:101EC0007105F0E88F07910540F0A50194010E948B
:101ED000306BCA01B9010F5FF2CFFE01299130EDDD
:101EE000320F3A3010F40F5FF8CF2E32F1F4EF01D9
:101EF0002196FE012196208150EDD52ED20E29E0AB
:101F00002D1598F06C3CECEC7E07ECE08E0791050B
:101F100080F7AAE0B0E09B01AC010E946E6B6D0DF2
:101F2000711D811D911D0150E4CF20812F7DD0E0D6
:101F3000C0E0253409F05DC021812D32D9F53296FB
:101F4000CC24C394DF01D0E0C0E0202F002E000C91
:101F5000330B4AE0B42EFD01DD9040ED4D0D4A30CB
:101F600008F042C0BC9EA001BD9E500D1124CD2D95
:101F7000DD0CDD0BE097C40FD51FAE01420F531FE0
:101F80004732510544F3F7018481CC20D1F040E081
:101F900050E060E070E8111103C040E050E0BA0189
:101FA00080788C60F70184834083518362837383DC
:101FB0001C2D65CF2B3219F03196C12CC3CF329630
:101FC000FCCF40E050E060E87FEF111104C040E03A
:101FD00050E060E87FE780788C60F701848340837D
:101FE00051836283738363CFCC2019F0D195C1955F
:101FF000D1092081211141C0C00FD11D07FDDA9503
:102000000E94F6691C161D0604F500E0C0FF0CC016
:1020100024E0029FF0011124E25FFD4F25913591EC
:10202000459154910E94576AD595C7950F5F2097A7
:1020300069F711119058F701248120782C602483CE
:10204000608371838283938332CFD195C195D10907
:1020500000E0209771F3C0FF0CC024E0029FF00164
:102060001124E252FE4F25913591459154910E94E1
:10207000576AD595C7950F5FECCF10E000CFCF9290
:10208000DF92EF92FF92CF93DF9300D01F921F92C7
:10209000CDB7DEB7DC0114969C9114979F779630EC
:1020A00071F0FD01973028F4943070F590E080E0F5
:1020B00011C09A30D9F09C3091F19830B9F78D91D8
:1020C0009D910D90BC91A02D811520E89207A1054E
:1020D000B10560F70F900F900F900F900F90DF9168
:1020E000CF91FF90EF90DF90CF9008958081918104
:1020F000A281B381813020E89207A105B105B0F635
:10210000919581959109E6CF808191811D82BE01D3
:102110006F5F7F4F57DECE010196B1DFDBCFC0800E
:10212000D180E280F38020E030E040E057ECC7014E
:10213000B6010E948B6C87FDB9CF20E03EEF4FEFD8
:1021400056E4C701B6010E94F26918160CF4AECF2E
:10215000C701B6010E945A6CCB01BCCFCF92DF926F
:10216000EF92FF92CF93DF9300D01F921F92CDB7D3
:10217000DEB7FC0194819F77963039F128F49430D2
:10218000C8F590E080E02AC09830F9F09C30C9F79B
:10219000C080D180E280F38020E030E0A901C70157
:1021A000B6010E948B6C87FDECCF20E03FEF4FE73C
:1021B00057E4C701B6010E94F269181614F3C7016B
:1021C000B6010E945F6CCB0109C080819181A28120
:1021D000B381009721E0A207B10598F60F900F9008
:1021E0000F900F900F90DF91CF91FF90EF90DF90C5
:1021F000CF900895808191811D82BE016F5F7F4FD6
:10220000E1DDCE010196AADFE9CFCF92DF92EF9216
:10221000FF92CF93DF9300D01F921F92CDB7DEB70E
:10222000FC0194819F77963031F120F49430C8F509
:1022300080E02BC09830F9F09C30D1F7C080D1807D
:10224000E280F38020E030E0A901C701B6010E94DE
:102250008B6C87FDEDCF20E030E04FE753E4C70102
:10226000B6010E94F26918161CF3C701B6010E945C
:102270005F6C862F0AC080819181A281B3818F3FDC
:102280009105A105B10509F098F60F900F900F90F8
:102290000F900F90DF91CF91FF90EF90DF90CF9054
:1022A0000895808191811D82BE016F5F7F4F8ADD1D
:1022B000CE010196AADFE9CF009709F0A6CF80E012
:1022C0000895FC01768765870895DC01ED91FC9106
:1022D000068CF78DE02D199591E089270895862FBA
:1022E000089581E08627089521E0FC0184858830E7
:1022F00008F020E0822F089590E080E00895BF92DA
:10230000CF92DF92EF92FF920F931F93CF93DF93C1
:10231000EC01B62EC72E8D85811104C0CE011BD8CD
:1023200081110EC01B861D861C8680E0DF91CF9137
:102330001F910F91FF90EF90DF90CF90BF90089585
:1023400040E060EFCE010E945B0901E0E12CD12C5E
:1023500011E0CE010E940809F82ECE010E94080962
:1023600091E0F91218C0813099F51134D8F2DB866A
:10237000D11002C081E08D878B81882399F223964A
:10238000EB2DFC2DCF01089629912193E817F90731
:10239000D9F781E0CBCFEE2DF0E0F8120FC08B859E
:1023A0001817A0F4DE01AE0FBF1F13968C91802387
:1023B00079F4F12C193008F41C87D12EEC0FFD1F95
:1023C0008381902F9095892383830AC08113F1CF55
:1023D000FE01EE0DF11D8381802B8383FF24F39496
:1023E0006F2DCE010E942C091F5F000F11F4E394A2
:1023F00001E087E08E1508F0ACCFB7CFCF92DF9227
:10240000EF92FF920F931F93CF93DF937C01EB0129
:1024100010E000E0209741F06091FB117091FC11F9
:10242000CE010E9409678C0183EF91E160D8882377
:1024300009F440C0C090FB11D090FC11B601C70157
:102440000E9409679801295F3F4F820F931FC816AA
:10245000D90680F16091F9117091FA1145E050E0D0
:10246000C7010E94E7017E01E00EF11EFE01EC01B2
:10247000CE1BDF0BAE014E0F5F1F6091F911709103
:10248000FA11EE16FF0631F02191640F751FDB0182
:102490002C93F0CF05501109A801480F591F80E374
:1024A000DF91CF911F910F91FF90EF90DF90CF9030
:1024B0000C94230580E0DF91CF911F910F91FF9045
:1024C000EF90DF90CF900895EF92FF920F931F93BC
:1024D000CF93DF93CDB7DEB7C456D1090FB6F894CA
:1024E000DEBF0FBECDBF8C017B0183EF91E10E9467
:1024F000770A882311F1F801EE0FFF1FED50FE4E11
:1025000080A98F9387A58F93809140121F928F93FC
:1025100084EB93E09F938F938E010F5F1F4F1F9368
:102520000F930E94E16DF70160817181C80166DF40
:102530000FB6F894DEBF0FBECDBFCC59DF4F0FB63C
:10254000F894DEBF0FBECDBFDF91CF911F910F91E9
:10255000FF90EF900895AF92BF92CF92DF92EF92EB
:10256000FF920F931F93CF93DF93CDB7DEB7C4567F
:10257000D1090FB6F894DEBF0FBECDBFD62EC72E41
:102580005A019F938F931F9280E58F9307EC13E07E
:102590001F930F9389EC93E09F938F938EED93E0BD
:1025A0009F938F93CE0101967C019F938F930E94FE
:1025B000E16D0FB6F894DEBF0FBECDBF92E0A91655
:1025C000B10489F183E0A816B104A1F1AA94AB2863
:1025D00019F11F930F93FF92EF9289EE93E09F936F
:1025E0008F93CF92DF920E94E16D0FB6F894DEBF19
:1025F0000FBECDBFCC59DF4F0FB6F894DEBF0FBE74
:10260000CDBFDF91CF911F910F91FF90EF90DF90A1
:10261000CF90BF90AF9008951F930F93FF92EF92CA
:1026200085EF93E0DCCF1F930F93FF92EF9281E051
:1026300094E0D5CF1F930F93FF92EF928BE094E03D
:10264000CECF0C94B464CF93DF93EC018881998151
:10265000009711F00E94B464198218821D821C82B6
:102660001B821A82DF91CF910895FC0180819181B4
:10267000009711F00C94B46408950C94B4640C9415
:10268000B4640C94B4640C94B4640C94B4640C946A
:10269000B4648F929F92AF92BF92EF92FF920F938A
:1026A0001F93CF93DF93CDB7DEB7A1970FB6F89402
:1026B000DEBF0FBECDBF7C01FA01CB0119A22230D3
:1026C00008F42AE08E010F5D1F4F822E912CB12C51
:1026D000A12CBF01A50194010E94306BF901CA0130
:1026E0006A3074F5605DD8016E938D01232B242B25
:1026F000252B79F790E080E0109789F0FD0101909B
:102700000020E9F73197AF014A1B5B0BD701ED9130
:10271000FC910280F381E02DB801C7011995A196C3
:102720000FB6F894DEBF0FBECDBFDF91CF911F91E2
:102730000F91FF90EF90BF90AF909F908F90089572
:10274000695CD1CF8F929F92AF92BF92CF92DF926E
:10275000EF92FF920F931F93CF93DF937C01EB01D6
:102760006C0182E0C80ED11C4701E5E08E0E911C81
:1027700010E000E0F60141916F0150E070E060E090
:102780002AE0CE0186DF5C01E881F9810190F081C9
:10279000E02D6EE2CE0119958A0D9B1D080F191FC1
:1027A000C814D90439F7F701458150E070E060E0C2
:1027B0002AE0CE016EDF800F911FDF91CF911F9134
:1027C0000F91FF90EF90DF90CF90BF90AF909F90D0
:1027D0008F900895FB0144815581FC01248135814E
:1027E0002417350778F080819181009759F0FB011B
:1027F000608171816115710529F00E94D36D21E01E
:10280000892B09F020E0822F08950F931F93CF9317
:10281000DF93EC0188819981009759F02A813B81EF
:102820002617370730F081E0DF91CF911F910F918C
:1028300008958B016F5F7F4F0E94BE6C009759F027
:10284000998388831B830A832C813D81232B59F72D
:10285000FC011082E8CF80E0E7CFEF92FF920F9368
:102860001F93CF93DF936115710541F480E0DF91F1
:10287000CF911F910F91FF90EF9008954115510551
:10288000A9F07B01EC010C811D81040F151FB8011B
:10289000BCDF882359F3288139818C819D81B70160
:1028A000820F931F0E94CC6D1D830C8381E0DFCFCC
:1028B000CF93DF93EC01FB0101900020E9F7319702
:1028C000AF01461B570BC9DF811102C0CE01BBDE31
:1028D000CE01DF91CF910895CF93DF93EC01FB01FF
:1028E0004481558160817181B8DF811102C0CE01C0
:1028F000AADECE01DF91CF9108956115710549F0EF
:10290000FB0101900020E9F73197AF01461B570BFF
:10291000A4CF80E00895CF93DF93EC01EAA1FBA15F
:10292000E80FF91F1282BC016E5F7F4F8881998189
:10293000E4DF1BA21AA2DF91CF910895CF93DF931A
:10294000EC018AA19BA19C012F5F3F4F3BA32AA3CF
:10295000FE01E80FF91F62830296809710F0CE0106
:10296000DADF8CA19DA101969DA38CA3DF91CF916D
:102970000895EF92FF920F931F93CF93DF93EC0193
:102980007B0162E2DBDF8701F80161918F01662341
:1029900081F0E3EAF3E0F280FF2041F0329681819A
:1029A0006813F9CF6CE5CE01C9DF6F2DCE01C6DF0C
:1029B000EBCF62E2CE01DF91CF911F910F91FF909B
:1029C000EF90BCCFCF92DF92EF92FF920F931F93C5
:1029D000CF93DF93EC016A018B017B01E40EF51EBE
:1029E0000E151F05A1F0F80121918F018AA19BA16D
:1029F000AC014F5F5F4F5BA34AA3FE01E80FF91FD5
:102A000022830296809760F3CE0185DFE9CF4CA147
:102A10005DA14C0D5D1D5DA34CA3DF91CF911F9176
:102A20000F91FF90EF90DF90CF900895EF92FF927B
:102A30000F931F93CF93DF93CDB7DEB766970FB693
:102A4000F894DEBF0FBECDBF8C01CB01FE0177969F
:102A50009F014AE0E42EF12CB7010E948F6C805D4B
:102A60008293CB010097C1F7A9014E1B5F0BBF01F9
:102A7000C801A8DF66960FB6F894DEBF0FBECDBFC3
:102A8000DF91CF911F910F91FF90EF9008958F925A
:102A90009F92AF92BF92CF92DF92EF92FF920F93ED
:102AA0001F93CF93DF93CDB7DEB766970FB6F89439
:102AB000DEBF0FBECDBF6C018E01095E1F4F7801D6
:102AC0008AE0882E912CA12CB12CCB01BA01A50152
:102AD00094010E94306B942F852F605DF801629302
:102AE0008F01A901692F782F4115510561057105E5
:102AF00061F7A7014E1B5F0BBF01C60163DF66963E
:102B00000FB6F894DEBF0FBECDBFDF91CF911F91FE
:102B10000F91FF90EF90DF90CF90BF90AF909F907C
:102B20008F900895FB0101900020E9F73197AF01E4
:102B3000461B570B47CF2F923F924F925F926F9257
:102B40007F928F929F92AF92BF92CF92DF92EF923D
:102B5000FF920F931F93CF93DF93CDB7DEB76697A6
:102B60000FB6F894DEBF0FBECDBF8C011B01DC0198
:102B700014968C9114978F77863009F45BC270F4A9
:102B80008230A8F0843008F03FC212964D915C91DB
:102B900013976D917C91C10115DF0AC28C3091F1C0
:102BA00058F4883009F441C28A3009F432C266E12F
:102BB00074E0C101B7DFFCC1803209F4FDC180348B
:102BC000B1F76BE5C101BADEF80100811181011591
:102BD000110509F4EAC1B101C801ADDFD8011596AC
:102BE0008C91882309F4E1C1B8E08B02C001112463
:102BF000080F191F0115110509F4D7C16CE2C101B5
:102C00009DDEE5CFF801C080D180E280F380A7018E
:102C10009601C701B6010E94F269882329F066E196
:102C200074E0C1017FDF9AC120E030E0A901C70153
:102C3000B6010E94F269882371F0A7019601C701CD
:102C4000B6010E948E6B9B01AC01C701B6010E94C8
:102C5000F269882321F320E030E0A901C701B60121
:102C60000E94F26987FF07C06DE2C10167DEF7FAD3
:102C7000F094F7F8F09420E836E948E15BE4C70106
:102C8000B6010E948B6C87FD81C064E1A62EB12C39
:102C900000E210E01A8A198AF501E25FFD4F2591E2
:102CA000359145915491C701B6010E948B6C87FD07
:102CB00013C0F501E252FE4F259135914591549193
:102CC000C701B6010E94576A6B017C0129893A89C4
:102CD000200F311F3A8B298B1595079534E0A31AE5
:102CE000B1088CEFA8168FEFB806B1F655245A94A8
:102CF00020E030E0A901C701B6010E948B6C1816D4
:102D00000CF04BC02CEA35EC47E257E3C701B601A3
:102D10000E94F26918160CF440C0A52DB4E0AB0275
:102D2000C0011124B12CA12CFC01EA50FE4F3F013F
:102D30009C01225F3D4F49013FEF531671F1F301B2
:102D4000EA0DFB1D6591759185919491A7019601FE
:102D50000E948B6C18169CF4F401EA0DFB1D259162
:102D6000359145915491C701B6010E94576A6B0194
:102D70007C0189899A89801B910B9A8B898B159587
:102D800007955A9494E0A91AB108D6CF00E210E052
:102D900045E0542E1A8A198AABCFC701B6010E94AA
:102DA0005F6C4B015C012B013C0106E080E492E486
:102DB000AFE0B0E08B8B9C8BAD8BBE8B102F0150A6
:102DC0009AE04916510461047104C8F06B897C894A
:102DD0008D899E892AE030E040E050E00E94306B0F
:102DE0002B8B3C8B4D8B5E8BC301B2012AE030E014
:102DF00040E050E00E94306B29013A01DFCFC5016D
:102E0000B4010E94F6699B01AC01C701B6010E94A2
:102E10008D6B6B017C016B897C898D899E890E94F9
:102E2000F6699B01AC01C701B6010E94576A2B01EC
:102E30003C010E945F6C6B017C010E94F6699B0162
:102E4000AC01C301B2010E948D6B9B01AC010E94D9
:102E50008E6B0E945F6CC60ED71EE81EF91E8B8912
:102E60009C89AD89BE89C816D906EA06FB06D8F04A
:102E70009FEF891A990AA90AB90AA989BA89AB2BBD
:102E800039F1BAE08B169104A104B10408F1E98983
:102E9000FA893196FA8BE98BC12CD12C7601812CE1
:102EA000912C540183949AE0492E512C612C712C61
:102EB000C701B601A30192010E94306B672B682BFA
:102EC000692B51F4111644F469017A011150F0CFC5
:102ED000C12CD12C7601E7CFB501A401C101D7DD0A
:102EE000112369F14E01F1E18F0E911C012F540164
:102EF0008AE0482E512C612C712C015068F0C701DA
:102F0000B601A30192010E94306B605DD4016E9303
:102F10004D0169017A01F1CF812F90E0BC016095EC
:102F20007095F501E81BF90B31978EE280834427F9
:102F30005527461B570B6A0D7B1DC10143DDE989EF
:102F4000FA89F7FF28C06BE174E0C101EBDD698904
:102F50007A89719561957109C10168DDD1019496F5
:102F60008D919C9166960FB6F894DEBF0FBECDBFD3
:102F7000DF91CF911F910F91FF90EF90DF90CF9055
:102F8000BF90AF909F908F907F906F905F904F9089
:102F90003F902F90089529893A89232BF9F265E60D
:102FA000C101CCDC69897A89D7CF6DE5C101C6DC66
:102FB000F10184A195A1D6CF6BE7C101BFDCD80197
:102FC0000D911C9101151105E9F0F80166817781D9
:102FD000C101CFDC6AE3C101B1DCB101C801ABDDE5
:102FE000D80115968C91882369F0B8E08B02C00156
:102FF0001124080F191F0115110521F06CE2C10100
:103000009DDCE0CF6DE7D2CF6D917C91C101B1DC49
:10301000CFCFCD90DD90ED90FC906DE2C1018EDCC4
:10302000B701A601C10133DDC3CF4D915D916D9113
:103030007C91F8CFF80180819181A281B3816EE10A
:1030400074E0892B8A2B8B2B09F0EBCD63E274E0C3
:10305000E8CDFB014481558160817181FECBEF9207
:10306000FF920F931F93CF93DF93EC017B018A01B3
:10307000BA01CBDB81110AC0CE01E5DACE01DF91C6
:10308000CF911F910F91FF90EF9008951D830C83B6
:10309000B701888199810E94CC6DF0CFFB0101902E
:1030A0000020E9F73197AF01461B570BD8CF0F939C
:1030B0001F93CF93DF93CDB7DEB7A2970FB6F894E7
:1030C000DEBF0FBECDBF8C01CB01BA01F80111826A
:1030D000108213821282158214822AE0AE014F5FA1
:1030E0005F4F0E942867BE016F5F7F4FC801D6DF28
:1030F000A2960FB6F894DEBF0FBECDBFDF91CF9181
:103100001F910F9108950F931F93CF93DF93CDB726
:10311000DEB7A1970FB6F894DEBF0FBECDBF8C010E
:10312000CB01BA01F801118210821382128215823A
:1031300014822AE0AE014F5F5F4F0E944B67BE01D1
:103140006F5F7F4FC801AADFA1960FB6F894DEBF6C
:103150000FBECDBFDF91CF911F910F910895CF93F7
:10316000DF93EC016115710529F098DFCE01DF9145
:10317000CF91089568DAFACFCF93DF931F921F9211
:10318000CDB7DEB7FC011182108213821282158244
:10319000148269831A82BE016F5F7F4F7FDF0F90B9
:1031A0000F90DF91CF910895CF93DF93EC01FB0156
:1031B0008617970741F0608171816115710539F0BB
:1031C000448155814CDFCE01DF91CF9108953BDAE8
:1031D000FACFFC01118210821382128215821482AE
:1031E000E3CFEF92FF920F931F93CF93DF9300D023
:1031F00000D0CDB7DEB786309105F4F48B017C01A9
:10320000CE010196E6DFBE016F5F7F4FC7015CD93B
:10321000CE0101962ADAF8014481558160817181DD
:103220008CEC90E10E947F0242E050E069E274E0A1
:103230008CEC90E10E947F0226960FB6F894DEBFD8
:103240000FBECDBFDF91CF911F910F91FF90EF90F7
:103250000895CF93DF9300D000D0CDB7DEB7BC0187
:10326000CE010196B6DFBE016F5F7F4F82E090E036
:10327000B8DFCE010196F9D926960FB6F894DEBFD5
:103280000FBECDBFDF91CF910895CF93DF9300D0D4
:1032900000D0CDB7DEB7BC01CE0101969ADFBE01EA
:1032A0006F5F7F4F85E090E09CDFCE010196DDD916
:1032B00026960FB6F894DEBF0FBECDBFDF91CF913B
:1032C0000895CF93DF9300D000D0CDB7DEB7BC0117
:1032D000CE0101967EDFBE016F5F7F4F84E090E0FC
:1032E00080DFCE010196C1D926960FB6F894DEBFD5
:1032F0000FBECDBFDF91CF910895FC0111821082E6
:1033000013821282158214826115710549F0FB0146
:1033100001900020E9F73197AF01461B570B9FCE74
:103320000895CF93DF9300D000D0CDB7DEB76CE225
:1033300074E0CE010196E1DFCE010196A6DFCE0159
:10334000019693D960E777E180E090E00E94E6047F
:1033500088E198E20FB6F894A895809360000FBEBC
:103360009093600026960FB6F894DEBF0FBECDBFD7
:10337000DF91CF910895AF92BF92CF92DF92EF92FB
:10338000FF920F931F93CF93DF935C016B017A0140
:1033900089012417350720F48F2D7901042F182F68
:1033A00063EB73E0C501A9DFD6011496CD91DC91E2
:1033B000EC16FD06C0F40C171D0708F4E801D60151
:1033C000ED91FC911197EC0FFD1F108110826D9112
:1033D0007C916E0D7F1DC501C2DEF6018081918159
:1033E000C80FD91F1883C501DF91CF911F910F918D
:1033F000FF90EF90DF90CF90BF90AF9008954F92E5
:103400005F926F927F92AF92BF92CF92DF92EF92D4
:10341000FF920F931F93CF93DF9300D000D0CDB7CF
:10342000DEB76C01DC0117968C91882309F495C0F6
:10343000823009F4A8C1833031F0813009F059C0DD
:103440000FE210E102C005EF1EE087E090E00E946D
:103450001864FC0188EE93E0A0E0B0E083839483DD
:10346000A583B683D80150962D913C9182E0D90175
:103470008C93D8011C968D919C91DC011C92D801F3
:103480001E962D913C918FECD9018C93D8015896C2
:103490001C92589754962D913C9186E0D9018C93BB
:1034A000D80152962D913C91D9018C9180618C93D9
:1034B000D80152962D913C91D9018C9188608C93C2
:1034C000D80152962D913C91D9018C9180688C93B2
:1034D000D80152962D913C91D9018C918F7D8C937E
:1034E000118300831282D6011D96FC93EE931C97E4
:1034F0000BC066E374E0CE010196FFDECE010196BB
:10350000C4DECE010196B1D8D6011C960D911C9156
:103510000115110569F0B601625F7F4F44EBC801E8
:103520000E940D0250E040E064EAC8010E94C00B16
:1035300026960FB6F894DEBF0FBECDBFDF91CF91B8
:103540001F910F91FF90EF90DF90CF90BF90AF90C1
:103550007F906F905F904F900895F601E184EE2088
:1035600099F2F084FF2081F287E090E00E941864D5
:103570005C0198EE492E93E0592E612C712CD501F7
:1035800013964D925D926D927C9216978FE190E02A
:103590000E9418648C01FC011382128244825582BD
:1035A0006682778287E392E091838083178A168A06
:1035B000118E108E138E128E158E148E668D6E7F68
:1035C0006D7F668F6695617081E068278E2D0E9401
:1035D000630461E08E2D0E9490048E2D90E0FC012A
:1035E000E652FD4FE491D8015096EC93FC01E05E69
:1035F000FC4FE491F0E0EE0FFF1FEA55FD4F85917F
:103600009491F801928B818B60E08F2D0E94900441
:10361000D8015E968C9181FD04C061E08F2D0E94DF
:103620006304F801F4862F2D30E0F901E652FD4FD6
:10363000E491D8011D96EC93F901E05EFC4FE49112
:10364000F0E0EE0FFF1FEA5BFD4F85919491F801CA
:1036500097878687138E128E118E108E178A168A80
:103660008DE991E0958F848F86EF8F0D843048F03F
:103670009EEC9F0D943028F092EC9F0D983008F04E
:103680005EC04DEB50E0D80157965C934E93569731
:103690004BE951E059965C934E9358974CE251E0B8
:1036A0005B965C934E935A97843050F09EEC9F0D3E
:1036B000943030F092EC9F0DF0E0E0E0983010F4A0
:1036C000E8E6F0E09081843020F042EC4F0D483085
:1036D00000F141E0942B843050F04EEC4F0D44301B
:1036E00030F042EC4F0DF0E0E0E0483010F4E8E656
:1036F000F0E09083843078F09EEC9F0D943058F089
:1037000092EC9F0D50E040E0983038F44DE650E0E8
:1037100004C044E0DFCF4BE650E0F801548B438B0C
:103720008430D8F42650310981E001C0880F2A95F1
:10373000EAF7F801858B8DE991E00197F1F7C8016F
:103740000E948F0BD50111961C930E9381E0129667
:103750008C93F601B586A486D7CEF2E388E0FF16F7
:1037600041F383E3F81659F0A4E382E0FA1609F373
:1037700082EC8F0D883028F42E533109D5CF84E0A8
:10378000D8CF81E0D6CF02E91FE05FCEEF92FF9263
:103790000F931F93CF93DF93CDB7DEB762970FB62A
:1037A000F894DEBF0FBECDBF8C01BC01CE010796E1
:1037B000A4DD65E474E0CE010D969FDDBE01695F76
:1037C0007F4FCE010D9688D861E574E071D8BC01B9
:1037D000CE010196FEDCCE01019657DDCE010196A9
:1037E0000E943513CE010D960E943513CE01079627
:1037F0000E94351383EF91E10E94770A882309F430
:1038000044C0E090FB11F090FC11B701C8010E9488
:1038100009670996E816F906C0F183EF91E10E9465
:10382000770A882391F180910112909102120196FA
:10383000C9F19093021280930112E091F911F09175
:10384000FA11809102128583E091F911F091FA1139
:103850008091011286836091F9117091FA1147E00D
:1038600050E0C8010E94E701E091F911F091FA11CE
:10387000E80FF91F1082AC01445051096091F91111
:103880007091FA1182E80E94230562960FB6F894AF
:10389000DEBF0FBECDBFDF91CF911F910F91FF9083
:1038A000EF90089581E090E0C4CF0F931F93CF93E2
:1038B000DF93CDB7DEB7C456D1090FB6F894DEBF9B
:1038C0000FBECDBF8C01000F111FE0915712F09178
:1038D0005812E00FF11F0190F081E02D84818035B6
:1038E00009F057C050E040E0BE016F5F7F4F82811A
:1038F00093810E94AB12CE01019648DFE0915712EE
:10390000F0915812E00FF11F0190F081E02D41E09D
:1039100050E0BE016F5F7F4F828193810E94AB12A6
:10392000CE01019633DFE0915712F0915812E00F6B
:10393000F11F0190F081E02D42E050E0BE016F5F89
:103940007F4F828193810E94AB12CE0101961EDFD0
:103950008091571290915812080F191FD801ED91BC
:10396000FC9143E050E0BE016F5F7F4F8281938105
:103970000E94AB12CE01019609DFCC59DF4F0FB682
:10398000F894DEBF0FBECDBFDF91CF911F910F9195
:103990000895833499F128F5813369F123E534E002
:1039A000823459F793819F9392819F931F928F93B3
:1039B00087EC93E09F938F933F932F938EED93E04B
:1039C0009F938F938E010F5F1F4F1F930F930E9442
:1039D000E16DC801DBDE0FB6F894DEBF0FBECDBFD0
:1039E000CCCF823529F02CE834E08435D9F2C5CF2C
:1039F00025E634E0D7CF26E734E0D4CF2DE934E014
:103A0000D1CFEF92FF920F931F93CF93DF93CDB758
:103A1000DEB768970FB6F894DEBF0FBECDBF8C013E
:103A20007B0183EF91E10E94770A8823C1F1B701FE
:103A3000CE01079662DCB801CE010D965EDC62EB2A
:103A400074E0CE01439659DCBE01635F7F4FCE0127
:103A500043960E946C1461E574E00E945814BE0104
:103A6000695F7F4F0E946C14BC01CE010196B1DBEF
:103A7000CE0101960ADCCE0101960E943513CE01DB
:103A800043960E943513CE010D960E943513CE0148
:103A900007960E943513B701C8010E94FE1168966F
:103AA0000FB6F894DEBF0FBECDBFDF91CF911F914F
:103AB0000F91FF90EF900895FF920F931F93CF9374
:103AC000DF93CDB7DEB762970FB6F894DEBF0FBEB7
:103AD000CDBFF82E82E4F81228C080E190E00E9469
:103AE00018648C0180E1F80111928A95E9F7F801D8
:103AF000168285EF92E0918380830115110569F4A8
:103B00006CEB74E0CE010196F8DBCE010196A1DBEF
:103B1000CE0101960E94351304DC82E4F80184830F
:103B20000115110509F0CFC0A9C0F2E5FF1222C0AE
:103B300089E090E00E9418648C0189E0F8011192FC
:103B40008A95E9F7F801168285E393E091838083F3
:103B50000115110569F465ED74E0CE010196CDDB28
:103B6000CE01019676DBCE0101960E943513D9DB9A
:103B700082E5D4CFF1E3FF1222C082E190E00E94FF
:103B800018648C0182E1F80111928A95E9F7F80135
:103B9000168285ED92E0918380830115110569F409
:103BA0006DEE74E0CE010196A8DBCE01019651DBEB
:103BB000CE0101960E943513B4DB81E3AFCFF4E56B
:103BC000FF1227C087E190E00E9418648C0187E112
:103BD000F80111928A95E9F7F8011682108A138A82
:103BE000148A158A168A83EB92E0918380830115EB
:103BF000110569F46BE075E0CE0101967EDBCE0124
:103C0000019627DBCE0101960E9435138ADB84E5FD
:103C100085CFF0E5FF122FC084E190E00E94186488
:103C20008C01FC01168283E992E0918380831782E4
:103C30001086118681E090E093878287158614862E
:103C400081EA93E0978786878AE0808B818B828BDD
:103C5000838B0115110569F461E375E0CE010196CE
:103C60004CDBCE010196F5DACE0101960E943513A8
:103C700058DB80E553CFF3E4FF1691F16F2DCE01B1
:103C800007967ADA6FE475E0CE010D9636DBBE0159
:103C9000695F7F4FCE010D960E946C14BC01CE016E
:103CA000019697DACE010196F0DACE0101960E94D4
:103CB0003513CE010D960E943513CE0107960E9452
:103CC000351310E000E0C80162960FB6F894DEBF2D
:103CD0000FBECDBFDF91CF911F910F91FF9008953F
:103CE0008EE090E00E9418648C018EE0F801119241
:103CF0008A95E9F7F801168285E193E09183808344
:103D00000115110569F46AE675E0CE010196F5DA50
:103D1000CE0101969EDACE0101960E94351301DB99
:103D200083E4FCCECF92DF92EF92FF920F931F932A
:103D3000CF93DF93CDB7DEB762970FB6F894DEBFAF
:103D40000FBECDBF8C016B01DC018D919C9140E0D9
:103D500050E0BA01009721F00E94DB66AB01BC0184
:103D6000CE010796A4D961E875E0CE010D96C5DABB
:103D7000B801CE010D960E946C146FE875E00E94A8
:103D80005814BE01695F7F4F0E946C1466EA7AE0A6
:103D90000E945814BC01CE0101961BDACE01019697
:103DA00074DACE0101960E943513CE010D960E9461
:103DB0003513CE0107960E943513F8018081918159
:103DC000009751F10E94DB66CB010E945C028C01DE
:103DD000892B99F081E0D80116968C931697ED9176
:103DE000FC91E288F388F601808191810097C1F00F
:103DF0000E94DB66C801F701199562960FB6F89428
:103E0000DEBF0FBECDBFDF91CF911F910F91FF900D
:103E1000EF90DF90CF90089560E070E0CB01D4CFB9
:103E200060E070E0CB01E6CF8F929F92AF92BF929D
:103E3000EF92FF920F931F93CF93DF93CDB7DEB72F
:103E400062970FB6F894DEBF0FBECDBF7C01DC01D8
:103E500053968D909D90AD90BC905697B0ED8B0E83
:103E6000B7E09B1EA11CB11C0E9417058616970681
:103E7000A806B90608F077C0F70143895489658917
:103E80007689CE0107963FD961E975E0CE010196AA
:103E900034DABE01695F7F4FCE0101960E946C1437
:103EA000BC01CE010D9695D9CE010D96EED9CE016D
:103EB0000D960E943513CE0101960E943513CE0156
:103EC00007960E943513D7015196ED91FC91048518
:103ED0001585F801818592850E94AB0940E06CEC64
:103EE000D80119968D919C910E945B09F80140813F
:103EF00064E4818592850E945B09D80114968C91B7
:103F00001497882309F11396EC91139715968C91C9
:103F100015978823C9F18C91811136C00E9417052D
:103F20004B015C01F801818592850E94080981306E
:103F300059F00E941705681979098A099B096E3E94
:103F400072408105910570F3D701ED91FC91048CCD
:103F5000F58DE02DC70119950E941705F701638BB8
:103F6000748B858B968B62960FB6F894DEBF0FBE6E
:103F7000CDBFDF91CF911F910F91FF90EF90BF9038
:103F8000AF909F908F900895E9508EEE92E0E330CD
:103F900038F4F0E0EE0FFF1FE35DFD4F808191816B
:103FA0004C01990FAA08BB08D80111968C91119762
:103FB000882329F060E012968C910E946304C50169
:103FC000B4010E94E604F8018181882309F4BCCF82
:103FD00061E082810E946304B7CF26CF0F931F93C5
:103FE000CF93DF93CDB7DEB761970FB6F894DEBFFE
:103FF0000FBECDBF8C01CB01F8011182108213825C
:1040000012821582148250E0BE016F5F7F4F0E94C2
:104010006C67BE016F5F7F4FC80140D861960FB6D5
:10402000F894DEBF0FBECDBFDF91CF911F910F91EE
:104030000895CF92DF92EF92FF920F931F93CF9349
:10404000DF93CDB7DEB72C970FB6F894DEBF0FBE67
:10405000CDBF8C016B017A0163EB73E0CE01079653
:104060004CD9C114D10421F0B601CE01079677D8FE
:1040700065E17EE0CE0107960E947D14F801628121
:1040800073814AE0CE010196A9DFBE016F5F7F4FC9
:10409000CE0107960E942918CE0101960E94351381
:1040A0006CE975E0CE0107960E947D14F8016481E9
:1040B000CE01019661D8BE016F5F7F4FCE0107969A
:1040C0000E942918CE0101960E94351363EA75E01B
:1040D000CE0107960E947D14F801658170E04AE0E8
:1040E000CE0101967BDFBE016F5F7F4FCE01079649
:1040F0000E942918CE0101960E9435136CEA75E0E2
:10410000CE0107960E947D14F801868163E274E077
:10411000882311F06EE174E0CE0107960E947D14B1
:104120006BEB75E0CE0107960E947D14BE01695FBE
:104130007F4FCE0101964DD8BE016F5F7F4FC70103
:1041400050D8CE0101960E943513CE0107960E94E9
:1041500035132C960FB6F894DEBF0FBECDBFDF919E
:10416000CF911F910F91FF90EF90DF90CF90089526
:10417000CF92DF92EF92FF920F931F93CF93DF9333
:10418000CDB7DEB72C970FB6F894DEBF0FBECDBF0C
:104190008C016B017A0163EB73E0CE010796ADD819
:1041A000C114D10429F0B601CE0107960E94AF18C0
:1041B00065E17EE0CE0107960E947D14F8016281E0
:1041C00073814AE0CE01019609DFBE016F5F7F4F28
:1041D000CE0107960E942918CE0101960E94351340
:1041E0006CE975E0CE0107960E947D14F8016481A8
:1041F000CE0101960E94BC18BE016F5F7F4FCE01B9
:1042000007960E942918CE0101960E9435136EEB85
:1042100075E0CE0107960E947D14F801678170E079
:104220004AE0CE010196DADEBE016F5F7F4FCE011C
:1042300007960E942918CE0101960E94351364EC5E
:1042400075E0CE0107960E947D14F801608570E04C
:104250004AE0CE010196C2DEBE016F5F7F4FCE0104
:1042600007960E942918CE0101960E94351363EA31
:1042700075E0CE0107960E947D14F801658170E01B
:104280004AE0CE010196AADEBE016F5F7F4FCE01EC
:1042900007960E942918CE0101960E9435136CEAF8
:1042A00075E0CE0107960E947D14F801868163E2D5
:1042B00074E0882311F06EE174E0CE0107960E944D
:1042C0007D146BEB75E0CE0107960E947D14BE0154
:1042D000695F7F4FCE0101960E94E918BE016F5FB2
:1042E0007F4FC7010E94F118CE0101960E9435133D
:1042F000CE0107960E9435132C960FB6F894DEBFB8
:104300000FBECDBFDF91CF911F910F91FF90EF9026
:10431000DF90CF900895CF92DF92EF92FF920F93AC
:104320001F93CF93DF93CDB7DEB72C970FB6F894DA
:10433000DEBF0FBECDBF8C016B017A0163EB73E072
:10434000CE0107960E947D19C114D10429F0B6014F
:10435000CE0107960E94AF1865E17EE0CE01079678
:104360000E947D14F801628173814AE0CE010196BA
:1043700035DEBE016F5F7F4FCE0107960E94291880
:10438000CE0101960E9435136CE975E0CE010796C7
:104390000E947D14F8016481CE0101960E94BC1830
:1043A000BE016F5F7F4FCE0107960E942918CE0194
:1043B00001960E9435136BEC75E0CE0107960E94C2
:1043C0007D144AE061E070E0CE01019607DEBE0197
:1043D0006F5F7F4FCE0107960E942918CE0101968C
:1043E0000E94351364ED75E0CE0107960E947D149E
:1043F000F801608570E04AE0CE010196EFDDBE0174
:104400006F5F7F4FCE0107960E942918CE0101965B
:104410000E9435136FED75E0CE0107960E947D1462
:10442000F801618570E04AE0CE010196D7DDBE015A
:104430006F5F7F4FCE0107960E942918CE0101962B
:104440000E9435136AEE75E0CE0107960E947D1436
:10445000F801628573854AE0CE010196BFDDBE0199
:104460006F5F7F4FCE0107960E942918CE010196FB
:104470000E9435136CEA75E0CE0107960E947D1408
:10448000F801868163E274E0882311F06EE174E044
:10449000CE0107960E947D146BEB75E0CE01079666
:1044A0000E947D14BE01695F7F4FCE0101960E947C
:1044B000E918BE016F5F7F4FC7010E94F118CE015E
:1044C00001960E943513CE0107960E9435132C9653
:1044D0000FB6F894DEBF0FBECDBFDF91CF911F9115
:1044E0000F91FF90EF90DF90CF900895CF93DF93DF
:1044F000CDB7DEB762970FB6F894DEBF0FBECDBF63
:10450000DC01FB016281738113967C936E93129799
:10451000248114962C93149724812435B9F49F0197
:10452000285F3F4F1896AF01405F5F4FF9018191BF
:104530009F018D93E417F507C9F762960FB6F894BB
:10454000DEBF0FBECDBFDF91CF9108954AE0CE010F
:10455000079644DD63EF75E0CE0101960E947D1958
:10456000BE01695F7F4FCE0101960E946C14BC01B1
:10457000CE010D960E94E918CE010D960E942919D0
:10458000CE010D960E943513CE0101960E9435137F
:10459000CE0107960E943513D0CFCF92DF92EF92D3
:1045A000FF920F931F93CF93DF93CDB7DEB72C9776
:1045B0000FB6F894DEBF0FBECDBF8C016B017A0140
:1045C00063EB73E0CE0107960E947D19C114D104FC
:1045D00029F0B601CE0107960E94AF1865E17EE092
:1045E000CE0107960E947D14F801628173814AE032
:1045F000CE010196F3DCBE016F5F7F4FCE010796BF
:104600000E942918CE0101960E9435136CE975E0CD
:10461000CE0107960E947D14F8016481CE010196B7
:104620000E94BC18BE016F5F7F4FCE0107960E94AB
:104630002918CE0101960E9435136EEB75E0CE016C
:1046400007960E947D14F801678170E04AE0CE0170
:104650000196C4DCBE016F5F7F4FCE0107960E94BA
:104660002918CE0101960E9435136CEA75E0CE013F
:1046700007960E947D14F801868163E274E0882326
:1046800011F06EE174E0CE0107960E947D146BEB91
:1046900075E0CE0107960E947D14BE01695F7F4FD1
:1046A000CE0101960E94E918BE016F5F7F4FC701DE
:1046B0000E94F118CE0101960E943513CE01079693
:1046C0000E9435132C960FB6F894DEBF0FBECDBFF7
:1046D000DF91CF911F910F91FF90EF90DF90CF90DE
:1046E0000895CF92DF92EF92FF920F931F93CF9393
:1046F000DF93CDB7DEB72C970FB6F894DEBF0FBEB1
:10470000CDBF8C016B017A0163EB73E0CE0107969C
:104710000E947D19C114D10429F0B601CE0107967B
:104720000E94AF1865E17EE0CE0107960E947D14DD
:10473000F801628173814AE0CE0101964FDCBE012F
:104740006F5F7F4FCE0107960E942918CE01019618
:104750000E9435136CE975E0CE0107960E947D1426
:10476000F8016481CE0101960E94BC18BE016F5F02
:104770007F4FCE0107960E942918CE0101960E9414
:1047800035136EEB75E0CE0107960E947D14F8019B
:10479000678170E04AE0CE01019620DCBE016F5FC8
:1047A0007F4FCE0107960E942918CE0101960E94E4
:1047B000351364EC75E0CE0107960E947D14F80174
:1047C000608570E04AE0CE01019608DCBE016F5FB3
:1047D0007F4FCE0107960E942918CE0101960E94B4
:1047E00035136CEA75E0CE0107960E947D14F8013E
:1047F000868163E274E0882311F06EE174E0CE01FB
:1048000007960E947D146BEB75E0CE0107960E941F
:104810007D14BE01695F7F4FCE0101960E94E918A9
:10482000BE016F5F7F4FC7010E94F118CE01019654
:104830000E943513CE0107960E9435132C960FB6B1
:10484000F894DEBF0FBECDBFDF91CF911F910F91C6
:10485000FF90EF90DF90CF900895CF92DF92EF928C
:10486000FF920F931F93CF93DF93CDB7DEB72C97B3
:104870000FB6F894DEBF0FBECDBF8C016B017A017D
:1048800063EB73E0CE0107960E947D19C114D10439
:1048900029F0B601CE0107960E94AF1865E17EE0CF
:1048A000CE0107960E947D14F801628173814AE06F
:1048B000CE01019693DBBE016F5F7F4FCE0107965D
:1048C0000E942918CE0101960E9435136CE975E00B
:1048D000CE0107960E947D14F8016481CE010196F5
:1048E0000E94BC18BE016F5F7F4FCE0107960E94E9
:1048F0002918CE0101960E9435136EEB75E0CE01AA
:1049000007960E947D14F801678170E04AE0CE01AD
:10491000019664DBBE016F5F7F4FCE0107960E9458
:104920002918CE0101960E94351364EC75E0CE0182
:1049300007960E947D14F801608570E04AE0CE0180
:1049400001964CDBBE016F5F7F4FCE0107960E9440
:104950002918CE0101960E9435136CEA75E0CE014C
:1049600007960E947D14F801868163E274E0882333
:1049700011F06EE174E0CE0107960E947D146BEB9E
:1049800075E0CE0107960E947D14BE01695F7F4FDE
:10499000CE0101960E94E918BE016F5F7F4FC701EB
:1049A0000E94F118CE0101960E943513CE010796A0
:1049B0000E9435132C960FB6F894DEBF0FBECDBF04
:1049C000DF91CF911F910F91FF90EF90DF90CF90EB
:1049D00008950F931F93CF93DF9300D000D000D0A2
:1049E000CDB7DEB78C01862FF801118210821382B9
:1049F00012821582148250E0BE016F5F7F4F90E0FB
:104A00000E946C67BE016F5F7F4FC8010E944E1805
:104A100029960FB6F894DEBF0FBECDBFDF91CF91C0
:104A20001F910F910895DF92EF92FF920F931F93C2
:104A3000CF93DF93CDB7DEB762970FB6F894DEBFA2
:104A40000FBECDBFD82E8091591290915A12ED2CE5
:104A5000F12C892BD1F010E000E080915912909157
:104A60005A120E151F057CF49801220F331F820F76
:104A7000931FFC0180819181009711F00E94B46422
:104A80000F5F1F4FEACF0E94B4644AE06D2DCE0144
:104A900007969FDF61E176E0CE010D960E947D19B9
:104AA000BE01695F7F4FCE010D960E946C14BC0160
:104AB000CE0101960E94E918CE0101960E94451987
:104AC000CE0101960E943513CE010D960E9435133A
:104AD000CE0107960E943513C701880F991F0E94C7
:104AE000186490935A1280935912F0925E12E092D9
:104AF0005D1262960FB6F894DEBF0FBECDBFDF9198
:104B0000CF911F910F91FF90EF90DF900895EF925A
:104B1000FF920F931F93CF93DF93CDB7DEB76297CA
:104B20000FB6F894DEBF0FBECDBF082F809157128D
:104B300090915812892B09F443C061E276E0CE01CE
:104B400001960E947D19CE0101960E944519CE0161
:104B500001960E943513F12CE12C80915B1290910B
:104B60005C12E816F90634F56AE276E0CE010196A9
:104B70000E947D19CE0101960E944519CE01019631
:104B80000E943513E0915712F0915812C701880F17
:104B9000991FE80FF91F80819181009739F0DC019E
:104BA000ED91FC910688F789E02D1995BFEFEB1A7E
:104BB000FB0AD3CF80915712909158120E94B4648F
:104BC0004AE0602FCE01079604DF63E376E0CE0172
:104BD0000D960E947D19BE01695F7F4FCE010D9633
:104BE0000E946C14BC01CE0101960E94E918CE010E
:104BF00001960E944519CE0101960E943513CE01FF
:104C00000D960E943513CE0107960E94351310E0D1
:104C1000C801880F991F0E941864909358128093BE
:104C2000571210935C1200935B1262960FB6F894C1
:104C3000DEBF0FBECDBFDF91CF911F910F91FF90CF
:104C4000EF900895EF92FF920F931F93CF93DF930E
:104C5000CDB7DEB76E970FB6F894DEBF0FBECDBFEF
:104C60007C018B014AE0FB016581CE014996B1DEF2
:104C70004AE0F8016481CE014396ABDE4AE0F801D8
:104C80006381CE010D96A5DE4AE0F8016281CE0176
:104C900001969FDEBE016F5F7F4FCE0107960E9497
:104CA000E9186AE27BE0CE0107960E945814BE0123
:104CB000635F7F4F0E946C146AE27BE00E9458148D
:104CC000BE016D5E7F4F0E946C146AE27BE00E9421
:104CD0005814BE01675E7F4F0E946C14BC01C7016F
:104CE0000E94E918CE0107960E943513CE01019665
:104CF0000E943513CE010D960E943513CE014396C6
:104D00000E943513CE0149960E943513C7016E9655
:104D10000FB6F894DEBF0FBECDBFDF91CF911F91CC
:104D20000F91FF90EF900895CF92DF92EF92FF9254
:104D30000F931F93CF93DF93CDB7DEB72C970FB6AA
:104D4000F894DEBF0FBECDBF8C017B016A0163EB1F
:104D500073E0CE0107960E947D19E114F10429F059
:104D6000B701CE0107960E94AF1865E17EE0CE0143
:104D700007960E947D14F8016281738140E1CE01A3
:104D800001962CD9BE016F5F7F4FCE0107960E941E
:104D90002918CE0101960E9435136CE975E0CE0109
:104DA00007960E947D1440E1F8016481CE010196CE
:104DB00010DEBE016F5F7F4FCE0107960E9429185B
:104DC000CE0101960E9435136EEB75E0CE01079679
:104DD0000E947D144AE0F8016781CE010196F9DD59
:104DE000BE016F5F7F4FCE0107960E942918CE014A
:104DF00001960E94351361E476E0CE0107960E9489
:104E00007D147801F8E0EF0EF11C005F1F4FF701F1
:104E100061917F0140E1CE010196DBDDBE016F5F54
:104E20007F4FCE0107960E942918CE0101960E945D
:104E30003513E016F10659F76BE476E0CE010796DC
:104E40000E947D14BE01695F7F4FCE0101960E94D2
:104E5000E918BE016F5F7F4FC6010E94F118CE01B5
:104E600001960E943513CE0107960E9435132C96A9
:104E70000FB6F894DEBF0FBECDBFDF91CF911F916B
:104E80000F91FF90EF90DF90CF900895CF92DF9237
:104E9000EF92FF920F931F93CF93DF93CDB7DEB7BF
:104EA00065970FB6F894DEBF0FBECDBF7C016FE4EF
:104EB00076E0CE0101960E947D19CE0101960E94F6
:104EC0004519CE0101960E9435134AE0D701179685
:104ED0006C91CE010A967DDD64E676E0CE01019606
:104EE0000E947D19BE01665F7F4FCE0101960E9430
:104EF0006C14BC01CE0140960E94E918CE01409688
:104F00000E944519CE0140960E943513CE010196AC
:104F10000E943513CE010A960E943513F7012781AE
:104F2000A0915712B09158121097A9F040915B12BE
:104F300050915C1290E080E0841795070CF04AC015
:104F4000ED91FD913481313321F43781231709F438
:104F500043C00196F1CF128A118AF70162817381F1
:104F60004AE0CE010A963AD869E676E0CE0101968B
:104F70000E947D19BE01665F7F4FCE0101960E949F
:104F80006C14BC01CE0140960E94E918CE014096F7
:104F90000E942919CE0140960E943513CE01019638
:104FA0000E943513CE010A960E943513F701138A29
:104FB000148A158A168A65960FB6F894DEBF0FBE5E
:104FC000CDBFDF91CF911F910F91FF90EF90DF90B8
:104FD000CF900895F0E0E0E0D7015296FC93EE9375
:104FE0005197309709F4B9CF670188E0C80ED11CFA
:104FF000AE014F5F5F4FB601848595850E94E3093E
:10500000811132C0D70112966D917C914AE0CE0198
:105010000A960E94EE1F63E876E0CE0101960E9498
:105020007D19BE01665F7F4FCE0101960E946C1410
:1050300069E876E00E945814BC01CE0140960E94B7
:10504000E918CE0140960E942919CE0140960E948F
:105050003513CE0101960E943513CE010A960E94A7
:105060003513F701108AA2CF81E0D70150968C93B7
:1050700050975196ED91FC9152970485158518969D
:105080008C91803109F46EC0AE014F5F5F4FB60165
:10509000C8010E94E309882309F464C08D818F311F
:1050A00009F460C08FE18D83F801818592850E94AB
:1050B000AB09B601D80119968D919C910E948E0979
:1050C00040E06EE4F801818592850E945B0940E032
:1050D0006B81D80119968D919C910E945B0940E0EB
:1050E0006C81F801818592850E945B09D701189631
:1050F0008C91803139F040E06D81F8018185928595
:105100000E945B09D80119968D919C911A97169669
:105110002C91222329F10E94AB09882319F1F8016F
:1051200081859285C114D10409F062C040E06CEC25
:105130000E945B09D8014C9168E419968D919C916D
:105140000E945B09F8018081811156C064E170E022
:1051500080E090E00E94E604D80119968D919C9120
:105160000E94AB0989E0F80183838781823008F4CB
:105170001DCFD12CD80117968C911797D81608F00F
:1051800015CF13968C9113978C3009F40FCF199685
:10519000ED91FC9113861586148612861186108671
:1051A00017821682158214821382C12CBE016F5F92
:1051B0007F4FF801818592850E947F11882329F015
:1051C000DC1489F1C394DC1488F789818031A1F162
:1051D000BE016F5F7F4FC8010E944E0AD80113962F
:1051E0009C911397981710F413968C93D394C2CF75
:1051F000B6010E948E099ECF8181882321F060E054
:1052000082810E94630464E170E080E090E00E948B
:10521000E604F8018181882309F49ECF61E0828150
:105220000E94630499CF67E0CE0101960E94F108C5
:1052300098858913C7CFC9CF8CE0D0CF0F931F9328
:10524000CF93DF93CDB7DEB762970FB6F894DEBF8A
:105250000FBECDBF8C01CB01F801118210821382E9
:1052600012821582148250E0BE016F5F7F4F0E9450
:105270001467BE016F5F7F4FC8010E944E1862968F
:105280000FB6F894DEBF0FBECDBFDF91CF911F9157
:105290000F9108954F925F926F927F928F929F929B
:1052A000AF92BF92CF92DF92FF920F931F93CF9353
:1052B000DF93CDB7DEB7C057D1090FB6F894DEBF84
:1052C0000FBECDBF83EF91E10E94770AF12C8111CF
:1052D00068C16FE976E08E010F5F1F4FC8010E9421
:1052E0007D19C8010E944519C8010E943513A0907C
:1052F0004112B090421283EF91E10E94770AF82E9A
:1053000081112AC18091F7119091F811DC01ED9182
:10531000FC910688F789E02D1995882309F46FC060
:1053200081E090E0909302128093011287E0ECE01C
:10533000F2E0D80101900D928A95E1F7D80185E05D
:1053400090E02D91E091F911F091FA11E80FF91F19
:10535000208301968C309105A1F7C090F911D0906F
:10536000FA1182E0F60184878091FE118587809191
:10537000FD1186878090FB119090FC11B401C5014E
:105380000E94096741968816990608F06DC08091C1
:10539000F7119091F811DC01ED91FC910488F589E9
:1053A000E02D199560911A1270911B124AE0CE01FE
:1053B0008B599F4F43DF66EE76E0C8010E947D194E
:1053C000BE016B597F4FC8010E946C14BC01CE0115
:1053D00085599F4F0E94E918CE0185599F4F0E9421
:1053E0002919CE0185599F4F0E943513C8010E948B
:1053F0003513CE018B599F4F0E943513D2C0609157
:105400001412709115128091F7119091F811DC012E
:10541000ED91FC9140911612509117126115710592
:1054200071F00088F189E02D1995019709F478CF82
:105430008EEF9FEF90931B1280931A12B3CF0684C6
:10544000F785E02D21EA33E03A832983409010125A
:105450005090111260901212709013124B825C8265
:105460006D827E82B801E0CF4FE050E0B601C50109
:105470000E94E701AC01455051096091F91170910A
:10548000FA1180E10E9423050E9417056093031220
:105490007093041280930512909306126093071282
:1054A000709308128093091290930A128091F71159
:1054B0009091F811DC01ED91FC910084F185E02DD3
:1054C0001995892B31F50E9417058090071290904D
:1054D0000812A0900912B0900A129B01AC01281981
:1054E00039094A095B0949015A012091FF1130919C
:1054F0000012A8EEB3E00E947E6B86169706A806FF
:10550000B906A0F28CEF9FEF90931B1280931A12B2
:105510003ECFCE018B599F4F0E94CE05643071055E
:105520008105910509F033CFE091F911F091FA115D
:10553000838190E08111E8CF0E94170560930712E4
:10554000709308128093091290930A1210920B1212
:1055500010921B1210921A12809140121F928F9378
:105560008DEA96E09F938F931F930F930E94E16DB6
:10557000C8010E94C61B809140121F928F938DEC30
:1055800096E09F938F931F930F930E94E16DC80144
:105590000E94C61B0FB6F894DEBF0FBECDBFFF241E
:1055A000F3948F2DC059DF4F0FB6F894DEBF0FBEB6
:1055B000CDBFDF91CF911F910F91FF90DF90CF90E2
:1055C000BF90AF909F908F907F906F905F904F9023
:1055D0000895EF92FF920F931F93CF93DF93CDB770
:1055E000DEB72C970FB6F894DEBF0FBECDBF8C018F
:1055F0007B0163EB73E0CE0107960E947D19B70132
:10560000CE0107960E94AF1865E17EE0CE010796B5
:105610000E947D14F801608171814AE0CE010196FB
:105620000E94EE1FBE016F5F7F4FCE0107960E9462
:105630002918CE0101960E94351362EF76E0CE0163
:1056400007960E947D144AE0F8016681CE0101961A
:10565000C0D9BE016F5F7F4FCE0107960E94291807
:10566000CE0101960E9435136AEF76E0CE010796CF
:105670000E947D14F801628173814AE0CE01019697
:105680000E94EE1FBE016F5F7F4FCE0107960E9402
:105690002918CE0101960E94351365E077E0CE010E
:1056A00007960E947D14F8016481CE0101960E9444
:1056B000BC18BE016F5F7F4FCE0107960E9429186C
:1056C000CE0101960E94351362E177E0CE01079684
:1056D0000E947D14F801618572854AE0CE01019631
:1056E000ADDDBE016F5F7F4FCE0107960E94291886
:1056F000CE0101960E94351361E277E0CE01079654
:105700000E947D14F801678170854AE0CE01019600
:105710000E94EE1FBE016F5F7F4FCE0107960E9471
:105720002918CE0101960E9435136CE277E0CE0174
:1057300007960E947D14F8016385CE0101960E94B0
:10574000BC18BE016F5F7F4FCE0107960E942918DB
:10575000CE0101960E94351369E377E0CE010796EA
:105760000E947D14F8016385748540E1CE010196A5
:1057700065DDBE016F5F7F4FCE0107960E9429183D
:10578000CE0101960E9435136BE476E0CE010796B8
:105790000E947D14BE01695F7F4FCE0101960E9479
:1057A000E918BE016F5F7F4F85E090E00E94F1181D
:1057B000CE0101960E943513CE0107960E94351343
:1057C0002C960FB6F894DEBF0FBECDBFDF91CF9100
:1057D0001F910F91FF90EF900895EF92FF920F931A
:1057E0001F93CF93DF93CDB7DEB7AA970FB6F89488
:1057F000DEBF0FBECDBFDC01FB01309709F4C6C090
:105800008481823509F0C2C015969C9115978581D7
:1058100012964D915C911397228133814217530761
:10582000A1F414962C911497223579F417963C9193
:1058300017972781321309C018963C911897208535
:10584000321303C0981709F4AFC061E070E09817F5
:1058500011F070E060E08F017D014AE0CE014F96CB
:10586000EDDC61E070E0F7019085F8018085981724
:1058700011F070E060E04AE0CE014996DFDC61E0C3
:1058800070E0F7019781F8018781981711F070E0B7
:1058900060E04AE0CE014396D1DC61E070E0F701C0
:1058A0009481F8018481981711F070E060E04AE07B
:1058B000CE010D96C3DC61E070E0F70122813381F7
:1058C000F801828193812817390711F070E060E0B8
:1058D0004AE0CE010796B2DC69E477E0CE0101969A
:1058E0000E947D19BE01695F7F4FCE0101960E9423
:1058F0006C1461E77CE00E945814BE01635F7F4F27
:105900000E946C1461E77CE00E945814BE016D5E39
:105910007F4F0E946C1461E77CE00E945814BE0126
:10592000675E7F4F0E946C1461E77CE00E94581410
:10593000BE01615E7F4F0E946C1468E577E00E94B3
:105940005814BC01CE0185960E94E918CE018596B7
:105950000E944519CE0185960E943513CE0101960D
:105960000E943513CE0107960E943513CE010D9685
:105970000E943513CE0143960E943513CE014996FD
:105980000E943513CE014F960E94351380E0AA96EF
:105990000FB6F894DEBF0FBECDBFDF91CF911F9140
:1059A0000F91FF90EF90089581E0F1CFEF92FF9279
:1059B0000F931F93CF93DF93CDB7DEB7E0970FB66A
:1059C000F894DEBF0FBECDBFDC01FB01309709F4B8
:1059D000EBC08481803509F0E7C01A962D913C9187
:1059E0001B978285938512966D917C9113974281C6
:1059F000538164177507D9F414964C911497403568
:105A0000B1F418965C9118974085541310C01996FC
:105A10005C911997418554130AC017965C911797AA
:105A20004781541304C02817390709F4CBC061E03B
:105A300070E02817390711F070E060E08F017D01F8
:105A40004AE0CE018596FADB61E070E0F7019781CC
:105A5000F8018781981711F070E060E04AE0CE010C
:105A60004F96ECDB61E070E0F7019185F8018185EC
:105A7000981711F070E060E04AE0CE014996DEDB55
:105A800061E070E0F7019085F8018085981711F0CA
:105A900070E060E04AE0CE014396D0DB61E070E068
:105AA000F7019481F8018481981711F070E060E0AB
:105AB0004AE0CE010D96C2DB61E070E0F701228181
:105AC0003381F801828193812817390711F070E042
:105AD00060E04AE0CE010796B1DB6AE577E0CE01EF
