:100000000C94C8070C94F9070C94F9070C94F907A1
:100010000C94F9070C94F9070C94F9070C94F90760
:100020000C94F9070C9444590C9444590C94445979
:100030000C94F9070C94F9070C94F9070C94F90740
:100040000C94F9070C94F9070C94F9070C94F90730
:100050000C94F9070C94F9070C94F9070C94FA58CE
:100060000C94F9070C94D0580C94A6580C94F907EA
:100070000C94F9070C94F9070C94F9070C94F90700
:100080000C94F9070C94F9070C94F9070C94F907F0
:100090000C947C580C9452580C94F9070C94F90762
:1000A0000C94F9070C94F9070C94F9070C94F907D0
:1000B0000C94F9070C94F9070C94F9070C94F907C0
:1000C0000C94F9070C94F9070C94F9070C94285830
:1000D0000C94FE570C94F9070C94D4570C94AA571F
:1000E0000C94F9070C94B5140C943D160C94CF1293
:1000F0000C94472E0C94F44E0C9466400C944C16C1
:100100000C94A4160C94C0590C94E3470C94482BFF
:100110000C94C4120C944D3F0C948A400C94B3146C
:100120000C9449160C94B7140C9482160C94900AF3
:100130000C948B2B0C940F130C945D4D0C94211488
:100140000C945D0A0C94EC090C94590A0C949011CF
:100150000C946A0A0C94BE120C94D0120C948F0A60
:100160000C9449090C942A340C946E0A0C94B2191C
:100170000C94C4190C9453080C94423D0C947C0AC2
:100180000C941A3F0C9412130C94940A0C94522859
:100190000C94C6190C94D2080C94E30C0C94652EA4
:1001A0000C949F090C9417280C94C23F0C94DB45C7
:1001B0000C94CA370C94E12E0C94BD120C9434119B
:1001C0000C94BE190C9418090C944F0A0C948B28AB
:1001D0000C94865A0C94EB3F0C94A23B0C94A811FF
:1001E0000C9417470C94AD140C94920F0C945A0D68
:1001F0000C944E2C0C94040D0C94835A0C941245C0
:100200000C94DA3C0C940B290C94AF140C941A1433
:100210000C940C2F0C94AB140C94F7130C9427092A
:100220000C94085B0C94E53E0C94B7330C948B2D26
:100230000C94740A0C943A470C944A1F0C942A3B71
:100240000C946A0D0C94232A0C94F8120C94481305
:100250000C9447160C94D7130C94BE3E0C94D813F0
:100260000C9460470C9444130C94520D0C94C219D6
:100270000C94A14D0C94820A0C94550A0C94780AA3
:100280000C94BE460C94823C0C94FB300C94472D8D
:100290000C948A0A0C94C6450C94860A0C94893FE7
:1002A0000C94C1120C94332B0C941C110C94640A02
:1002B0000C94D23A0C94610A0C943C350C9446137D
:1002C0000C944B400C9400450C94F4130C94F813CC
:1002D0000C9439160C941B0D0C94B6140C94491301
:1002E0000C94FE4D0C94F90C0C94683F0C94F15A4C
:1002F0000C94A3080C94C0190C944B130C94282D47
:100300000C9430280C94B50F0C941A290C944513B6
:100310000C9407470C9454160C94560D0C941640EC
:100320000C943B090C94114F0C94712D0C94444F78
:100330000C94CD1A0C942A3C0C94B5340C94D13600
:100340000C94512B0C94B1140C94EE5A0C94BC19CF
:100350000C94A81B0C940B5B00407A10F35A00A07D
:10036000724E18090010A5D4E80000E8764817007E
:1003700000E40B54020000CA9A3B000000E1F505BE
:10038000000080969800000040420F000000A08608
:1003900001000000102700000000E803000000003A
:1003A0006400000000000A000000000001000000DE
:1003B00000002C76D888DC674F0823DFC1DFAE59F8
:1003C000E1B1B796E5E3E453C63AE651997696E88B
:1003D000E6C28426EB898C9B62ED407C6FFCEFBC0F
:1003E0009C9F40F2BAA56FA5F490055A2AF75C933A
:1003F0006B6CF9676DC11BFCE0E40D47FEF520E670
:10040000B500D0ED902E0300943577050080841E52
:10041000080000204E0A000000C80C333333330FAD
:10042000986E12831141EF8D2114893BE65516CF4A
:10043000FEE6DB18D1844B381BF77C1D901DA4BB56
:10044000E424203284725E228100C9F124ECA1E50B
:100450003D272040003B6C684F6E3A003B50696E70
:100460003A003B547970653A0049643A00204000F4
:100470003B6C684F6E3A003B50696E3A003B5479D2
:1004800070653A0049643A004D51545420636F6ED0
:100490006E656374696F6E204661696C6564004DBA
:1004A0007174745265636F6E6E6563740052657328
:1004B00065740023005D3A005B00547279696E67D1
:1004C00020746F207265636F6E6E656374204D518A
:1004D0005454004661696C6564206C6F6F70005DF8
:1004E0003A005075626C697368205B0053756273E3
:1004F0006372697074696F6E3A002040003B506906
:100500006E3A003B547970653A0049643A004261A2
:100510006420636F6E76657273696F6E2074797094
:100520006520666F7220756E69742000204020007F
:100530003B50696E3A003B547970653A0049643A21
:1005400000CDCCCC3D0AD7233C17B7D13877CC2B84
:10055000329595E6241FB14F0A0000803FCDCCCCE8
:100560003D6F12833A95BFD6337D1D9026B3CE01E1
:100570000C000020410000C84200401C4620BCBEC8
:100580004CCA1B0E5AAEC59D7420697320616273FC
:10059000656E74206F6E20746865206275730055F7
:1005A0006E69743A0043616E27742066696E642038
:1005B00062757320666F7220756E69743A20002030
:1005C000497320756E617661696C61626C65206F3C
:1005D0006E207468652062757300556E69743A20E8
:1005E0000054656D70206973206661696C65643ABA
:1005F0002000506F7274206E6F7420666F756E6489
:10060000002040003B466163746F723A003B5365C3
:100610007269616C54583A003B53657269616C525F
:10062000583A003B53657269616C3A003B547970EB
:10063000653A0049643A002040003B737461747568
:10064000733A003B6C684F6E3A003B50696E3A005B
:100650003B547970653A0049643A002040003B738E
:1006600074617475733A003B547970653A0049645B
:100670003A00205472756E63617465642076616C13
:1006800075652073617665642069732027002020DA
:100690002020202020002C202E2E2E292070617357
:1006A00073656420756E7465726D696E61746564DE
:1006B00020627566666572206F66207374726C6561
:1006C0006E203E3D004572726F723A206372656122
:1006D000746553616665537472696E6746726F6DB7
:1006E00043686172417272617928004572726F725B
:1006F0003A2063726561746553616665537472690B
:100700006E6746726F6D4368617250747257697498
:100710006853697A65280020496E697469616C20A4
:1007200076616C75652061726720776173202700A0
:10073000202020202020200020666F7220696E6912
:100740007469616C2076616C75652E002C202E2EEC
:100750002E29206E6565647320636170616369741E
:1007600079206F6620004572726F723A205361667D
:1007700065537472696E67280020657863656564E7
:100780007320617661696C61626C65206D656D6F67
:1007900072792E2052657475726E696E67207A6563
:1007A000726F20636170616369747920536166655B
:1007B000537472696E672E002C202E2E2E29207203
:1007C0006571756573742073697A653A0045727254
:1007D0006F723A2053616665537472696E672800C0
:1007E0002C202E2E2E292077617320706173736563
:1007F000642061204E554C4C20706F696E74657298
:1008000020666F7220696E697469616C2076616C14
:1008100075652E004572726F723A2053616665539A
:100820007472696E6728002C202E2E2E2920776185
:1008300073207061737365642061204E554C4C20A9
:10084000706F696E74657220666F722069747320B0
:1008500063686172206172726179004572726F72B1
:100860003A2053616665537472696E6728002C20C4
:100870002E2E2E29207061737365642061207A65A5
:10088000726F206C656E67746820617272617900A6
:100890004572726F723A2063726561746553616666
:1008A00065537472696E6746726F6D436861724119
:1008B0007272617928002C202E2E2E2C20302920B7
:1008C00077617320706173736564207A65726F203D
:1008D00070617373656420666F72206172726179F2
:1008E0002073697A65004572726F723A206372658F
:1008F00061746553616665537472696E6746726FA1
:100900006D436861724172726179576974685369A5
:100910007A6528002C202E2E2E292073697A656F87
:10092000662863686172417272617929203D3D20B9
:1009300073697A656F6628636861722A292E200AB6
:10094000436865636B20796F752061726520706103
:100950007373696E67206120636861725B5D2074E8
:100960006F20637265617465536166655374726963
:100970006E6746726F6D4368617241727261792071
:100980004F522075736520636861725B355D206F1F
:1009900072206C617267657220636C65617220748D
:1009A000686973204572726F720A2020546F207735
:1009B000726170206120636861722A2075736520FE
:1009C00065697468657220637265617465536166F8
:1009D00065537472696E6746726F6D4368617250D9
:1009E0007472282E2E292C2063534650282E2E292F
:1009F000206F72206372656174655361666553741C
:100A000072696E6746726F6D436861725074725797
:100A100069746853697A65282E2E292C2063534601
:100A20005053282E2E2029004572726F723A20638F
:100A3000534641202F20637265617465536166657A
:100A4000537472696E6746726F6D4368617241726A
:100A5000726179280053616665537472696E67200C
:100A6000636C65616E55702064657465637465645C
:100A700020627566666572206F76657272756E208B
:100A800062792065787465726E616C20636F64654D
:100A90002E00206F662030007772697465007772CF
:100AA000697465007D2000207B200020496E7075F0
:100AB000742061726720776173200020202020203D
:100AC000202000203E2075696E74385F742A2061F2
:100AD0007267207374726C656E2E00206C656E6791
:100AE00074682000777269746500777269746500B4
:100AF00020776173207061737365642061204E55A7
:100B00004C4C20706F696E746572007072696E74FF
:100B100000636F6E63617400202700206C656E3A7D
:100B200000206361703A00202D2D2D200020202010
:100B3000202020200053616665537472696E67003F
:100B40002829004572726F723A00636F6E63617498
:100B500000005EBCE2613FDD83C29C7E20A3FD1FDE
:100B600041009D23BE46DB65F88C11AF32CA57E9C0
:100B70007400002100240027002A002D00300033DB
:100B80000001010000040107010A01000022002504
:100B90000028002B002E0031003400020100000567
:100BA0000108010B01000020002300260029002C71
:100BB000002F0032000001000003010601090105B9
:100BC000050505070508080808020202020A0A08C6
:100BD00008040404040101010101010101030303EC
:100BE0000303030303040707070C0C0C0C0C0C0C89
:100BF0000C0202020206060606060606060B0B0B90
:100C00000B0B0B0B0B0102102020080810204010CA
:100C100020408002010201080402010102040810C0
:100C200020408080402010080402018004020180DE
:100C30004020100804020108040201010204081007
:100C4000204080010204081020408000000A0B02AE
:100C5000090C0D0E0807030401000000000000004D
:100C60000000000000000000000000000000000084
:100C70000000000000000012111000000000000041
:100C80000000000000000000000000000000000064
:100C900000495020416464726573732069733A009F
:100CA000426F617264204964233A00426F6172644A
:100CB00020697320726561647900204020003B74D4
:100CC0006172676574547970653A003B746172674C
:100CD000657449643A003B7461726765744163747A
:100CE000696F6E3A003B6F726967696E547970651F
:100CF0003A003B6F726967696E49643A003B6576FA
:100D0000656E743A0049643A002E204F7269676933
:100D10006E206E6F7420666F756E64004163746937
:100D20006F6E3A002E20546172676574206E6F7486
:100D300020666F756E6400416374696F6E3A00459A
:100D40006E6420737562736372697074696F6E3A52
:100D5000005375627363726962696E6720556E69CC
:100D600074732E2E2E005265616420556E69747363
:100D70002066726F6D20454550524F4D00546F6F85
:100D8000206D616E7920617474656D7074206F667A
:100D9000204D515454207265636F6E6E656374000C
:100DA000436F6E66696720696E6974206973206697
:100DB000696E697368656400537562736372696212
:100DC0006520556E6974730046696E697368207595
:100DD000706461746520636F6E66696775726174B3
:100DE000696F6E28004E756D626572206F662063B4
:100DF0006F6E66696720556E6974733D0043616E5E
:100E00002774206372656174652061207479706550
:100E10006420756E69743A0043616E2774206372B2
:100E20006561746520436F6E746163746F72004313
:100E3000616E27742063726561746520506F7765F9
:100E400072204D6574657220556E69740043616E41
:100E5000277420637265617465204F6E65576972EF
:100E60006520546865726D6F6D6574657220556E8E
:100E700069740043616E2774206372656174652034
:100E80004F6E65576972652062757320556E69747F
:100E90000043616E2774206372656174652052653A
:100EA0006C617920556E69740043616E277420630C
:100EB000726561746520427574746F6E20556E6939
:100EC00074005245534554212121007072696E749B
:100ED00000636F6E6361740020496E7075742061E9
:100EE0007267207761732027002020202020202097
:100EF00000203E20636861722A206172672073744B
:100F0000726C656E2E00206C656E67746820002020
:100F1000776173207061737365642061204E554C56
:100F20004C20706F696E746572004628220020495B
:100F30006E707574206172672077617320002020C5
:100F4000202020202000206368617273206F6620BB
:100F500074686520696E7075742E0020666F72204B
:100F600074686520666972737420005D29002869C1
:100F70002E652E20636861725B00206E6565647368
:100F8000206361706163697479206F6620000B5B78
:100F900011241FBECFEFD1E2DEBFCDBF00E00CBFFA
:100FA00016E0A0E0B2E0EEE5F8ED00E00BBF02C015
:100FB00007900D92AA39B107D9F72BE0AAE9B6E05C
:100FC00001C01D92A431B207E1F717E0C8ECD7E0E9
:100FD00000E006C021970109802FFE010E941A68D7
:100FE000C73CD10780E00807A9F70E94F55C0C9484
:100FF0002D6C0C940000CF93DF93EC01FA01329634
:10100000E60FF71FDC019D012C1B3D0BCF01861B5A
:10101000970B4D91442311F04193F5CFAC01421B46
:10102000530B640F751FFB013297308361507109B8
:10103000FB012083DF91CF910895E091BB0AF091ED
:10104000BC0A3097A9F04091BF0A5091C00A30E025
:1010500020E02417350764F4A191B19112966D91A7
:101060007C9113976817790729F02F5F3F4FF1CFD5
:10107000B0E0A0E0CD010895CF93DF93EB010E9493
:101080001D08009751F0DC01ED91FC910288F38975
:10109000E02DBE01DF91CF911994DF91CF9108959A
:1010A0008CBD9DBD089508950F931F93CF93DF933B
:1010B00000D000D01F92CDB7DEB78C01FB01342FDA
:1010C000498342814A8393819B8324812C83858138
:1010D0008D831E82430F5527551F490F511D240F25
:1010E000352F311D820F932F911D8F83D8018D9144
:1010F0009C91DC01ED91FC910084F185E02D199526
:10110000F801A081B181ED91FC911197892B31F00B
:101110000284F385E02DCD011995E8CF0280F3819B
:10112000E02D47E050E0BE016F5F7F4FCD01199584
:1011300027960FB6F894DEBF0FBECDBFDF91CF91DB
:101140001F910F910895FC01818D928D0895DC010E
:10115000ED91FC910190F081E02D1994EF92FF92B6
:101160000F931F93CF93DF938C017B01D0E0C0E0FE
:10117000F701EC0FFD1F6491662361F0D801ED913A
:10118000FC910190F081E02DC8011995892B11F097
:101190002196EECFCE01DF91CF911F910F91FF905D
:1011A000EF900895AF92BF92CF92DF92EF92FF92AD
:1011B0000F931F93CF93DF936C017B018B01040F7F
:1011C000151FEB015E01AE18BF08C017D10759F01B
:1011D0006991D601ED91FC910190F081E02DC6015D
:1011E0001995892B79F7C501DF91CF911F910F9147
:1011F000FF90EF90DF90CF90BF90AF900895FC01EB
:10120000A089B1898C91A689B78982FD0FC09C9174
:10121000818D8F5F8F73228D821749F0A18DAE0F64
:10122000BF2FB11D5D969C93818F08958C91089579
:10123000FC01538D448D252F30E0842F90E0821BDC
:10124000930B541710F0CF96089501970895FC0161
:10125000918D828D981761F0A28DAE0FBF2FB11DB9
:101260005D968C91928D9F5F9F73928F90E0089511
:101270008FEF9FEF0895FC01918D828D981731F0CB
:10128000828DE80FF11D858D90E008958FEF9FEF1F
:101290000895FC01918D228D892F90E0805C9F4FF5
:1012A000821B91098F739927089580E497E00E942B
:1012B000490921E0892B09F420E0822F08958DED62
:1012C00097E00E94490921E0892B09F420E0822F50
:1012D00008958AE798E00E94490921E0892B09F4E2
:1012E00020E0822F089587E199E00E94490921E0DA
:1012F000892B09F420E0822F0895FC01A48DA80F0A
:10130000B92FB11DA35ABF4F2C91848D90E0019647
:101310008F739927848FA689B7892C93A089B18967
:101320008C91837080648C93938D848D981306C008
:101330000288F389E02D80818F7D80830895EF926C
:10134000FF920F931F93CF93DF93EC0181E0888F7F
:101350009B8D8C8D98131AC0E889F989808185FF4F
:1013600015C09FB7F894EE89FF896083E889F989F1
:1013700080818370806480839FBF81E090E0DF91F3
:10138000CF911F910F91FF90EF900895F62E0B8D46
:1013900010E00F5F1F4F0F731127E02E8C8D8E1101
:1013A0000CC00FB607FCFACFE889F989808185FF68
:1013B000F5CFCE010E947D09F1CFEB8DEC0FFD2F13
:1013C000F11DE35AFF4FF0829FB7F8940B8FEA8923
:1013D000FB8980818062CFCFCF93DF93EC01888D32
:1013E0008823B9F0AA89BB89E889F9898C9185FDA0
:1013F00003C0808186FD0DC00FB607FCF7CF8C912E
:1014000085FFF2CF808185FFEDCFCE010E947D095F
:10141000E9CFDF91CF91089580E090E0892B29F00A
:101420000E94730981110E94000080E090E0892BE6
:1014300029F00E94690981110E94000080E090E07B
:10144000892B29F00E945F0981110E94000080E031
:1014500090E0892B29F00E94550981110C9400001D
:1014600008958150823108F05AC0E82FF0E08827B3
:10147000E35CF54F8F4F0C941A685D0A610A4F0ABE
:10148000550A590A8F0A640A6A0A6E0A740A780AA7
:101490007C0A820A860A8F0A8A0A900A940A809134
:1014A00080008F77809380000895809180008F7DE9
:1014B000F9CF80918000877FF5CF84B58F7784BD89
:1014C000089584B58F7DFBCF8091B0008F77809396
:1014D000B00008958091B0008F7DF9CF8091900089
:1014E0008F77809390000895809190008F7DF9CF41
:1014F00080919000877FF5CF8091A0008F778093B7
:10150000A00008958091A0008F7DF9CF8091A00068
:10151000877FF5CF809120018F77809320010895F8
:10152000809120018F7DF9CF80912001877FF5CFB9
:10153000CF93DF93282F30E0F901E55BF34F8491DF
:10154000F901EB5FF34FD491F901E154F44FC491E9
:10155000CC23A1F081110E94310AEC2FF0E0EE0FB4
:10156000FF1FEB55F44FA591B491EC91ED2381E071
:1015700090E009F480E0DF91CF91089580E090E061
:10158000FACF1F93CF93DF93282F30E0F901E55B6B
:10159000F34F8491F901EB5FF34FD491F901E154DA
:1015A000F44FC491CC23A9F0162F81110E94310A67
:1015B000EC2FF0E0EE0FFF1FE557F44FA591B4912B
:1015C0008FB7F894EC91111108C0D095DE23DC930D
:1015D0008FBFDF91CF911F910895DE2BF8CFCF936E
:1015E000DF9390E0FC01EB5FF34F24918154944F23
:1015F000FC0184918823D1F090E0880F991FFC01B1
:10160000EF58F44FA591B491FC01E557F44FC59103
:10161000D49161110EC09FB7F8948C91E22FE095A0
:101620008E238C932881E223E8839FBFDF91CF91A3
:1016300008958FB7F894EC91E22BEC938FBFF6CF1F
:101640003FB7F8948091EF069091F006A091F106D3
:10165000B091F20626B5A89B05C02F3F19F0019660
:10166000A11DB11D3FBFBA2FA92F982F8827BC01FC
:10167000CD01620F711D811D911D42E0660F771F24
:10168000881F991F4A95D1F708958F929F92AF9224
:10169000BF92CF92DF92EF92FF926B017C010E948A
:1016A000200B4B015C01C114D104E104F104B9F039
:1016B0000E94200B681979098A099B09683E7340CA
:1016C0008105910580F321E0C21AD108E108F108F3
:1016D00088EE880E83E0981EA11CB11CE4CFFF9019
:1016E000EF90DF90CF90BF90AF909F908F90089534
:1016F0002FB7F8946091EB067091EC068091ED069F
:101700009091EE062FBF0895FC0120812EBD9B0114
:101710002150310941F051810DB407FEFDCF4EB586
:101720005EBD4193F5CF61507109860F971F0DB4CF
:1017300007FEFDCF2EB5FC0120830895E091E80659
:10174000F091E90680819091E706892B80830895C6
:10175000E091E806F091E90690818091E706809596
:101760008923808308958EBD00000DB407FEFDCF50
:101770008EB50895AF92BF92CF92DF92EF92FF9213
:101780000F931F93CF93DF9300D000D01F921F922F
:10179000CDB7DEB78C017B016A0180913B078333B3
:1017A000E1F45801A40EB51EA016B10609F46FC0ED
:1017B0000E94A80B80EF0E94B30B812F0E94B30BF5
:1017C000802F0E94B30B0F5F1F4FF70181917F01A4
:1017D0000E94B30B0E949E0BE7CF5B01A40EB51EC7
:1017E0008433C1F40E94A80B19830A838D2D80686D
:1017F0008B83CC8264E070E0CE0101960E94840B62
:10180000AE14BF0409F441C0F70181917F010E9429
:10181000B30BF6CF0E94A80B0F3F110509F028F477
:1018200019820A8384E08B830CC017FD17C01982CC
:101830000A8333E0169507953A95E1F7007E0C6030
:101840000B8386E0C816D104A0F5F701DE011496DB
:10185000EA15FB0599F081918D93FACFC80126E036
:10186000969587952A95E1F7807E19830A8301155D
:10187000104C10F48461D7CF8C61D5CFB6016D5F69
:101880007F4FCE0101960E94840B0E949E0BC601E1
:1018900028960FB6F894DEBF0FBECDBFDF91CF9173
:1018A0001F910F91FF90EF90DF90CF90BF90AF907E
:1018B000089563E070E0CE0101960E94840BF70169
:1018C00081917F010E94B30BAE14BF04C1F7DDCF3D
:1018D000CF93DF931F92CDB7DEB7898341E050E00D
:1018E000BE016F5F7F4F90E080E00E94BA0B0F90C7
:1018F000DF91CF91089590E020913B07233339F495
:101900000C96982F990F990F990F80E0089548969B
:10191000F8CFDA01E091E606F0E0FE2FEE27E60FC1
:10192000F71F90E0982F8827A901BD018E0F9F1FF8
:101930000C94BA0BCF93DF931F921F92CDB7DEB7F3
:1019400079836A8322E030E0AE014F5F5F4F60E150
:1019500070E00E94890C0F900F90DF91CF91089555
:10196000CF93DF931F921F92CDB7DEB779836A833F
:1019700022E030E0AE014F5F5F4F64E070E00E9414
:10198000890C0F900F90DF91CF910895CF93DF9343
:101990001F92CDB7DEB72091E60630E0322F222726
:1019A000260F371F90E0982F8827498341E050E0A9
:1019B000BE016F5F7F4F820F931F0E94BA0B0F9083
:1019C000DF91CF910895CF93DF931F92CDB7DEB70C
:1019D0006983DC01ED91FC910280F381E02D41E00F
:1019E00050E0BE016F5F7F4F19950F90DF91CF914F
:1019F0000895FC019485FB018485981303C081E060
:101A0000983008F080E00895CF93DF931F92CDB710
:101A1000DEB76983DC01ED91FC910280F381E02D5A
:101A200041E050E0BE016F5F7F4F19950F90DF914D
:101A3000CF9108950895FF920F931F93CF93DF9353
:101A4000EB01FC01178A168A2A81211109C02B811A
:101A5000211106C02C81211103C02D81222301F107
:101A600041155105E9F08A01FC01F08C80E591E017
:101A70000E945008AE014E5F5F4F24E030E06CE002
:101A800070E08F2D0E94890CB8018F2D0E949A0C56
:101A900081E090E0DF91CF911F910F91FF90089529
:101AA00080E0F7CFFC01848595850895FC01848949
:101AB0009589089528EC33E0FC0131832083FB01F4
:101AC0004089518962897389FC014283538364830D
:101AD00075830895DC01ED91FC91048CF58DE02D6A
:101AE0001994DC0180E0615090F09D919827E92FD6
:101AF000EF70F0E0EF5AF44F2491E92FE295EF7088
:101B0000F0E0EF59F44FE491822F8E27ECCF089547
:101B1000DC012C911196ED91FC91F8948181822B3E
:101B200081839281322F30959323928387E090E0D6
:101B30000197F1F781818323818383E290E001970C
:101B4000F1F790817894EFECF0E03197F1F7922380
:101B500081E009F480E00895FC0190810180F28128
:101B6000E02D292F209560FF14C0F89482818223F4
:101B700082838181892B8183A3E2B0E01197F1F701
:101B80008281982B9283789487ED90E00197F1F70A
:101B90000895F8948281822382838181892B8183B5
:101BA000AFEFB0E01197F1F78281982B9283789490
:101BB0008FE090E0EBCFDF92EF92FF920F931F93B5
:101BC000CF93DF93EC01D62EE42E08E010E0FF2443
:101BD000F39461E08D2D8F2109F460E0CE010E9425
:101BE000AC0DFF0C01501109A1F7E11010C0F894E1
:101BF000E981FA8191818881809589238183E981B6
:101C0000FA81928188818095892382837894DF91FB
:101C1000CF911F910F91FF90EF90DF900895EF9279
:101C2000FF920F931F93CF93DF938C017B0140E0D2
:101C300065E50E94DB0DE70188E0E80EF11C699183
:101C400040E0C8010E94DB0DCE15DF05C1F7DF9132
:101C5000CF911F910F91FF90EF900895FC0190811B
:101C60000180F281E02DF8948181292F2095822333
:101C7000818378943DE743E050E0315029F1DA0167
:101C80001197F1F780818923C1F3F894828182232F
:101C900082838181892B81837894ABE7B7E01197A8
:101CA000F1F7F894818182238183A3E1B1E0119758
:101CB000F1F78081982381E009F080E07894E3E6F1
:101CC000F6E03197F1F7089580E008956F927F92E2
:101CD0008F929F92AF92BF92CF92DF92EF92FF923C
:101CE0000F931F93CF93DF93EC017B018A018E81C9
:101CF0009F810E942E0E811102C090E037C0B70173
:101D00008E819F810E940F0E40E06EEB8E819F813D
:101D10000E94DB0D7801680189E0C80ED11CAE80FD
:101D2000BF8088E0882E912C712C66246394C501B5
:101D30000E94880D81117628660CE1E08E1A9108C8
:101D4000B1F7F70171927F01EC15FD0541F78E8126
:101D50009F810E942E0E813081F668E0C8010E94AA
:101D6000710D91E0F80120852813C7CF892FDF91ED
:101D7000CF911F910F91FF90EF90DF90CF90BF9088
:101D8000AF909F908F907F906F900895CF93DF9347
:101D900000D000D000D0CDB7DEB7FB0120812031CC
:101DA00099F0AE014F5F5F4F0E94660E882331F0BD
:101DB0008D818F33A9F020F48F31A1F080E007C02E
:101DC0008F3521F08F37D1F78CE001C08BE0299659
:101DD0000FB6F894DEBF0FBECDBFDF91CF9108954F
:101DE0008AE0F5CF89E0F3CFCF93DF93FC01A481A4
:101DF000B581109721F480E0DF91CF910895EC0137
:101E0000ED91FC9111970688F789E02DCD01199588
:101E100081111EC0FE01E156FF4F80819181892B07
:101E200051F78DEF9FEF918380838C819D81DC0141
:101E3000ED91FC910680F781E02D19958C819D81B3
:101E4000DC01ED91FC910488F589E02D1995D3CF43
:101E500081E0D2CFCF92DF92EF92FF920F931F9348
:101E6000CF93DF9300D01F92CDB7DEB78C01F9017D
:101E700080E0DE0111967D019E2F9F77EE0FEF2F00
:101E8000EE1FFF0BF195309709F09068D701A80F6E
:101E9000B11D9C938F5F309779F790E0FA01E81BB2
:101EA000F90B6483FA01E81BF90B3596D701BD01E4
:101EB0006E197F09681779071CF46D916193F7CF4C
:101EC000FC013196D80114968D919C917F01E20E10
:101ED000F31EBA016E1B7F0B6B5F7F4FDC01ED9130
:101EE000FC910280F381E02DA70119956C010E94FD
:101EF000780BF801E857FF4F6083718382839383E7
:101F000081E0EC14FD0409F080E00F900F900F9039
:101F10000F90DF91CF911F910F91FF90EF90DF9085
:101F2000CF900895EF92FF920F931F93CF93DF937B
:101F3000EC018B017A010E94780BFE01E857FF4FFC
:101F400060837183828393838C819D81DC01ED9119
:101F5000FC910280F381E02DA701B801DF91CF91C0
:101F60001F910F91FF90EF9019941F93CF93DF93E0
:101F7000EC01162F0E94780BFE01E857FF4F60839B
:101F80007183828393838C819D81DC01ED91FC912F
:101F90000190F081E02D612FDF91CF911F91199475
:101FA000CF92DF92EF92FF920F931F93CF93DF9325
:101FB000EC018B010E94780B6B017C018C819D816F
:101FC000DC01ED91FC910084F185E02D1995892BC0
:101FD00069F40E94780B6C197D098E099F09683994
:101FE0007A438105910550F380E00CC08C819D817E
:101FF000DC01ED91FC910284F385E02D1995F80147
:10200000808381E0DF91CF911F910F91FF90EF903E
:10201000DF90CF9008952F923F924F925F926F92F0
:102020007F928F929F92AF92BF92CF92DF92EF9268
:10203000FF920F931F93CF93DF931F921F92CDB701
:10204000DEB78C014B016C0126E0C20ED11CB6013B
:102050000E94D00F811118C0F12CE12CC7010F9004
:102060000F90DF91CF911F910F91FF90EF90DF9034
:10207000CF90BF90AF909F908F907F906F905F9028
:102080004F903F902F900895D8011696BC91BA8337
:1020900019821801E7E02E0E311CEE24E394F12C96
:1020A000B12CA12C412C512C32014394BE016F5F05
:1020B0007F4FC8010E94D00F882371F2B7016F5F74
:1020C0007F4F8981F10181931F01282F2F7730E005
:1020D000249DA001259D500D349D500D1124A40E6A
:1020E000B51E27E0440C551C661C771C2A95D1F7B9
:1020F00087FD35C0FA81F07FFA838FEF860FD40118
:102100008C93F03309F043C06C0D7D1DC8010E9413
:10211000D00F882309F4A0CFB7016E5F7F4F6C0DFD
:102120007D1DC8010E94D00F882309F495CFB70107
:102130006D5F7F4FD401EC91E00FF12FF11DC7804F
:10214000D12CDC2CCC248085C80ED11CF8018681D2
:1021500081FF03C0F2E0CF0ED11C82E01BC07B01E7
:102160006530710509F0A2CFF801E156FF4F8FEFFE
:102170009FEF91838083D80114968D919C91DC010F
:10218000ED91FC910488F589E02D199565CF80E0EB
:10219000D12CC12C482E512C7B01461A570A18010C
:1021A0002DE9220E311C8EEF682E77247A94C2011D
:1021B0008E0D9F1D8A159B0588F5BE016F5F7F4FB1
:1021C000C8010E94D00F882309F446CFD1018D9118
:1021D0009C910097B1F0BA81B03399F4F401208159
:1021E000A301421B51099A012E0D3F1DC216D306B1
:1021F00040F4DC01ED91FC910190F081E02D6981CA
:102200001995B0E8EB16F10428F48981F801EE0D78
:10221000FF1D8683EFEFEE1AFE0AC9CFF801E356E1
:10222000FF4F80819181892B09F018CFF1E8EF16DB
:10223000F10408F011CF12CF2091E2063091E306AD
:102240002817390771F49091E1068091E0069817FC
:1022500041F0E091E106F0E0E056F94F808190E036
:1022600008958FEF9FEF0895EF92FF920F931F93C2
:10227000CF93DF93DC015C96ED90FC905D97E114C9
:10228000F10479F481E090E013969C938E93129779
:1022900090E080E0DF91CF911F910F91FF90EF9040
:1022A00008955196ED91FC91529750968C915097CC
:1022B000982F90950FB75E962C915E97122F127003
:1022C00021FD6095F8942081112319F1282B20839A
:1022D000E7012197F1F728E0462F50E0308160FFB9
:1022E0001AC0382B3083E7012197F1F7BA017595B1
:1022F0006795215089F7112381F08081892380839C
:102300000FBF5C968D919C910197F1F781E090E071
:10231000C1CF2923DCCF3923E5CF9081892BEFCFA3
:102320002091E2063091E3062817390771F4809175
:10233000E0062091E10690E0805C9F4F821B9109AE
:1023400060E470E00E940668089590E080E00895DF
:102350002091E2063091E30628173907B9F49091ED
:10236000E1068091E006981789F0E091E106F0E03F
:10237000E056F94F80812091E10630E02F5F3F4F1A
:102380002F7333272093E10690E008958FEF9FEF9E
:102390000895CF93DF93FC01828D938D892B41F1BA
:1023A000A091E206B091E306AE17BF0709F11097BE
:1023B00051F05396CD91DC915497988155968C911C
:1023C000809589238883868D8E7F868F1092E00684
:1023D0001092E106F093E306E093E206A389B48944
:1023E0008C919589892B8C9381E0DF91CF91089511
:1023F00080E0FBCF4F925F926F927F928F929F927D
:10240000AF92BF92CF92DF92EF92FF920F931F9302
:10241000CF93DF9300D000D01F92CDB7DEB76C0111
:10242000E62E8A01DC0112968C911297882321F006
:102430008D919C910E94C9110E94780B4B015C0107
:10244000F12CB6E0BF1598F10E94780B6819790954
:102450008A099B09F6014380548065807680641563
:1024600075058605970530F580819181DC01ED9138
:10247000FC910084F185E02D1995181619060CF7CA
:10248000F60180819181DC01ED91FC910284F3855C
:10249000E02D1995811102C0FF20B1F2E1E0F0E0DA
:1024A000EC0FFD1FEF0DF11D8083F394CACFB7E051
:1024B000FB1611F080E01CC049818A81840F9927A6
:1024C000991F2B81820F911D2C81280F392F311DCF
:1024D0008D81280F311D8E81820F932F911D9F8139
:1024E0009813E8CFE412E6CF01151105C1F481E09D
:1024F00027960FB6F894DEBF0FBECDBFDF91CF9108
:102500001F910F91FF90EF90DF90CF90BF90AF9011
:102510009F908F907F906F905F904F900895DE0115
:102520001196F80198012B5F3F4F1196E217F307C0
:10253000F1F28C918193F9CF809100029091010288
:10254000DC01ED91FC910680F781E02D19948091DA
:10255000000290910102DC01ED91FC910280F38177
:10256000E02D19948091000290910102DC01ED911F
:10257000FC910190F081E02D1994089590E080E0A5
:10258000089590E080E00895FB0122813381FC01F1
:1025900033832283FB012481FC0124830895089561
:1025A000DC01FB01309711F184818235F9F4129638
:1025B0002D913C9113978281938128173907B1F4AB
:1025C00014968C911497823589F416969C911697DF
:1025D000868198130BC017969C9117978781981343
:1025E00005C081E015962C919581291380E008950E
:1025F000CF93DF93EC0161E08E810E94EF0A61E0EE
:1026000070E08D81813011F070E060E0E881F98147
:102610000288F389E02DCE01DF91CF911994FC015E
:1026200015820895DC01FB01309761F184818035CA
:1026300049F512962D913C91139782819381281729
:10264000390701F514968C9114978035D9F41796B3
:102650009C9117978781981315C018969C9118978D
:10266000808598130FC016969C91169786819813B3
:1026700009C081E019964D915C9121853285421700
:10268000530709F080E008950895089587E00895BC
:10269000089580E008958F929F92AF92BF92CF925B
:1026A000DF92EF92FF920F931F93CF93DF938C01F2
:1026B000DC015296CD90DD90ED90FC905597B0EDF9
:1026C000CB0EB7E0DB1EE11CF11C0E94780BC61696
:1026D000D706E806F90608F056C0D8015096ED91E5
:1026E000FC91C385D4858E819F810E942E0E40E08F
:1026F0006CEC8E819F810E94DB0D488164E48E81A9
:102700009F810E94DB0D8A81882371F1E981E95064
:102710008EEEC82E82E0D82EE33038F4F0E0EE0FD3
:10272000FF1FE05DFD4FC080D1808B818823C1F108
:102730008881811135C00E94780B4B015C010D2C02
:10274000000CEE08FF088E819F810E94880D813069
:1027500059F00E94780B6C197D098E099F09681544
:1027600079058A059B0578F3D801ED91FC91048CDD
:10277000F58DE02DC80119950E94780BF801628B48
:10278000738B848B958BDF91CF911F910F91FF906D
:10279000EF90DF90CF90BF90AF909F908F90089573
:1027A000B601DD0C880B990B0E94450BDDCF089517
:1027B000DC01FB013097B1F08481813399F41296EA
:1027C0002D913C911397828193812817390751F4F9
:1027D00014968C911497813329F481E016962C91EC
:1027E0009681291380E0089590E080E0089508958F
:1027F000DC01FB013097E1F084818334C9F4129647
:102800002D913C911397828193812817390781F488
:1028100014968C911497833459F416969C911697BC
:102820008681981305C081E017962C919781291312
:1028300080E00895FC0110861186128613861582A9
:102840000895089580339CF08A3324F08F3524F066
:102850008B3724F481E0089581344CF08B35D4F328
:1028600093ED980F81E09230B0F380E008958B32C1
:10287000B9F7F0CFFC01848581110AC0A185B2852A
:10288000CD010196928781878C91838781E084872F
:10289000838508951F93CF93DF93EC01162F0E9439
:1028A0003A14811306C01C8681E0DF91CF911F91FD
:1028B000089580E0FACFCF93DF93EC01CE010E9420
:1028C0003A148B303CF489304CF4882349F081E091
:1028D000888710C08D3011F08032C9F71C86EECF8A
:1028E000888581110AC081E090E0C15BDF4F998348
:1028F000888380E0DF91CF91089582E090E0F5CF6A
:10290000FC01892B41F094819F779450923018F408
:1029100080819181089590E080E00895FC01858593
:102920009F01275F3F4F85FD02C030E020E0B901E5
:10293000CF010895FC010E96918380839383828357
:10294000805C994F958384839783868310868585E1
:1029500080788587089584E008958BE0089583E06A
:10296000089585E0089580E008950895089580E031
:102970000895FC01828193810097C1F02481358103
:10298000468157812417350740F013821282019047
:10299000F081E02D81E080870895A9014F5F5F4FAE
:1029A00055834483820F931FFC01608308959F9297
:1029B000AF92BF92CF92DF92EF92FF920F931F934D
:1029C000CF93DF9300D01F921F92CDB7DEB78C015B
:1029D0000E943A14D82EF8011486F12CE12C70EFE5
:1029E000C72EC8010E943A14F8011486D81609F4BB
:1029F000C1C0811119C0F801E15BFF4F82E090E096
:102A00009183808380E00F900F900F900F900F9034
:102A1000DF91CF911F910F91FF90EF90DF90CF90BA
:102A2000BF90AF909F9008958C3509F09EC0C8016B
:102A30000E943A148823F9F2EAECF3E0853709F0B2
:102A400088C0F801148664E0962EB12CA12CC80130
:102A50000E943A14882379F281344CF480538031F7
:102A600048F0F801E15BFF4F83E090E0C9CF8F7D34
:102A70008753F5CF54E0AA0CBB1C5A95E1F7A82A5E
:102A8000F80114869A949110E2CFC501985D8115E2
:102A9000944020F4750123E0F222A3CFC5019C5D90
:102AA0008115944008F5F3E0BF22C701982F8827CD
:102AB000990F990F8A299B29B0E0A0E011961982FD
:102AC00080389105A105B10598F48A835E0123E061
:102AD000A20EB11CF50162915F01662309F481CF5A
:102AE000C8010E94B914F6CFC501B0E0A0E0E7CF5D
:102AF000282F2F7320682A8336E0B695A7959795DF
:102B000087953A95D1F78032910538F4806C8B83A4
:102B10005E0184E0A80EB11CDDCF282F2F73206842
:102B20002B8326E0969587952A95E1F780319105CC
:102B300038F4806E8C835E01E5E0AE0EB11CCACF26
:102B400080688C83CD825E01F6E0AF0EB11CC2CFEF
:102B500032969081992309F484CF8913F9CF81812A
:102B6000882309F47ECFF8011486682FC8010E94DB
:102B7000B91437CF60E0C8010E94B914F80182810E
:102B80009381892B29F4E15BFF4F84E090E038CFFB
:102B900081E039CFEF92FF920F931F93CF93DF9392
:102BA000DC01ED90FC90E7012A813B81E881F9810D
:102BB000E217F30780F4B901DF01EB014991BE018F
:102BC0008D010F5F1F4F5C91451318C0D801411153
:102BD000F4CF309759F4FC0184819581820F931FC3
:102BE000D70113969C938E931297F901CF01DF9131
:102BF000CF911F910F91FF90EF900895FD014191AA
:102C0000DF014111FBCFD4CFCF93DF93DC01EB0188
:102C1000EC81FD818A819B810896E817F90740F4D1
:102C200081E08887F0E0E0E0CF01DF91CF91089567
:102C30003897FD83EC833097B9F31296CD91DC91F0
:102C40001397209791F0CF018C1B9D0B23E0959556
:102C500087952A95E1F78D831396FC93EE9312974F
:102C60001582148217821682DFCF1196FC93EE93A1
:102C7000F3CFFC01768765870895DC01ED91FC9127
:102C8000068CF78DE02D199591E089270895862F00
:102C9000089581E08627089521E0FC01848588302D
:102CA00008F020E0822F08950895CF93FC01892B2E
:102CB00091F094819F77983029F078F4992359F016
:102CC000963079F4C1E080819181A281B381892B12
:102CD0008A2B8B2B39F4C0E005C09A3099F39C30D5
:102CE00021F0C1E08C2FCF910895C1E020E030E0C9
:102CF000A90160817181828193810E94DB628111CF
:102D0000F1CFE9CFDC01FB013097E1F0848182341F
:102D1000C9F412962D913C911397828193812817C3
:102D2000390781F414968C911497823459F41696CD
:102D30009C9116978681981305C081E017962C9177
:102D40009781291380E00895FC0113861486158667
:102D500016861086158208954F925F926F927F9229
:102D60008F929F92AF92BF92CF92DF92EF92FF929B
:102D70000F931F93CF93DF93EC017B0188818B32FC
:102D8000C1F18D32B9F5219611E0888190ED980F4F
:102D90009A3018F08E3209F03AC160E070E0CB0151
:102DA000FE01219100ED020F0A3030F56A3929E960
:102DB0007207820729E1920708F045C0AAE0B0E057
:102DC0009B01AC010E94CA66802E912CB12CA12CD3
:102DD000240135014094509460947094461657062F
:102DE0006806790680F1680D791D8A1D9B1DEF012B
:102DF000D7CF219610E0C9CF211125C0F70124813A
:102E000020781123C1F02A60248360837183828338
:102E10009383812FDF91CF911F910F91FF90EF90BE
:102E2000DF90CF90BF90AF909F908F907F906F90EA
:102E30005F904F900895286024836083718382831C
:102E4000938311E0E6CF00E0EAE08E2E912CA12CD6
:102E5000B12C61157105F0E88F07910540F0A501CF
:102E600094010E948966CA01B9010F5FF2CFFE0189
:102E7000299130ED320F3A3010F40F5FF8CF2E3237
:102E8000F1F4EF012196FE012196208150EDD52E1F
:102E9000D20E29E02D1598F06C3CECEC7E07ECE0AE
:102EA0008E07910580F7AAE0B0E09B01AC010E947B
:102EB000CA666D0D711D811D911D0150E4CF2081E9
:102EC0002F7DD0E0C0E0253409F05DC021812D3296
:102ED000D9F53296CC24C394DF01D0E0C0E0202F96
:102EE000002E000C330B4AE0B42EFD01DD9040EDC6
:102EF0004D0D4A3008F042C0BC9EA001BD9E500D51
:102F00001124CD2DDD0CDD0BE097C40FD51FAE01D4
:102F1000420F531F4732510544F3F7018481CC20FF
:102F2000D1F040E050E060E070E8111103C040E0F3
:102F300050E0BA0180788C60F7018483408351832C
:102F4000628373831C2D65CF2B3219F03196C12C0F
:102F5000C3CF3296FCCF40E050E060E87FEF111124
:102F600004C040E050E060E87FE780788C60F701C3
:102F70008483408351836283738363CFCC2019F0B1
:102F8000D195C195D1092081211141C0C00FD11D1A
:102F900007FDDA950E94E0621C161D0604F500E0AC
:102FA000C0FF0CC024E0029FF0011124EF58FA4F3B
:102FB00025913591459154910E944163D595C795CE
:102FC0000F5F209769F711119058F701248120783D
:102FD0002C602483608371838283938332CFD19565
:102FE000C195D10900E0209771F3C0FF0CC024E027
:102FF000029FF0011124EF5BFA4F25913591459125
:1030000054910E944163D595C7950F5FECCF10E0B6
:1030100000CFCF92DF92EF92FF92CF93DF9300D059
:103020001F921F92CDB7DEB7DC0114969C911497C6
:103030009F77963071F0FD01973028F4943070F549
:1030400090E080E011C09A30D9F09C30A1F1983026
:10305000B9F78D919D910D90BC91A02D811520E81F
:103060009207A105B10560F70F900F900F900F9098
:103070000F90DF91CF91FF90EF90DF90CF90089568
:1030800080819181A281B381813020E89207A105DE
:10309000B105B0F6919581959109E6CF8081918136
:1030A0001D82BE016F5F7F4F0E94AC16CE0101965C
:1030B0000E940918D9CFC080D180E280F38020E03F
:1030C00030E040E057ECC701B6010E94016887FD7F
:1030D000B7CF20E03EEF4FEF56E4C701B6010E94A4
:1030E000DB6218160CF4ACCFC701B6010E94CB67A7
:1030F000CB01BACFCF92DF92EF92FF92CF93DF93C3
:1031000000D01F921F92CDB7DEB7FC0194819F774C
:10311000963039F128F49430C8F590E080E02AC068
:103120009830F9F09C30C9F7C080D180E280F380FC
:1031300020E030E0A901C701B6010E94016887FDC7
:10314000ECCF20E03FEF4FE757E4C701B6010E9404
:10315000DB62181614F3C701B6010E94D267CB01D7
:1031600009C080819181A281B381009721E0A207EB
:10317000B10598F60F900F900F900F900F90DF9180
:10318000CF91FF90EF90DF90CF9008958081918153
:103190001D82BE016F5F7F4F0E94AC16CE0101966B
:1031A0000E947A18E7CFCF92DF92EF92FF92CF93EF
:1031B000DF9300D01F921F92CDB7DEB7FC01948140
:1031C0009F77963031F120F49430C8F580E02BC021
:1031D0009830F9F09C30D1F7C080D180E280F38044
:1031E00020E030E0A901C701B6010E94016887FD17
:1031F000EDCF20E030E04FE753E4C701B6010E9475
:10320000DB6218161CF3C701B6010E94D267862F35
:103210000AC080819181A281B3818F3F9105A10570
:10322000B10509F098F60F900F900F900F900F9046
:10323000DF91CF91FF90EF90DF90CF900895808144
:1032400091811D82BE016F5F7F4F0E94AC16CE013F
:1032500001960E94D318E7CF009711F00C94D31871
:1032600080E00895BF92CF92DF92EF92FF920F938A
:103270001F93CF93DF93EC01B62EC72E8D8581115E
:1032800005C0CE010E942E0E81110EC01B861D8628
:103290001C8680E0DF91CF911F910F91FF90EF90FE
:1032A000DF90CF90BF90089540E060EFCE010E9484
:1032B000DB0D01E0E12CD12C11E0CE010E94880D44
:1032C000F82ECE010E94880D91E0F91218C08130CD
:1032D00099F51134D8F2DB86D11002C081E08D87D8
:1032E0008B81882399F22396EB2DFC2DCF01089634
:1032F00029912193E817F907D9F781E0CBCFEE2D7B
:10330000F0E0F8120FC08B851817A0F4DE01AE0FA5
:10331000BF1F13968C91802379F4F12C193008F497
:103320001C87D12EEC0FFD1F8381902F9095892350
:1033300083830AC08113F1CFFE01EE0DF11D83815D
:10334000802B8383FF24F3946F2DCE010E94AC0D5C
:103350001F5F000F11F4E39401E087E08E1508F081
:10336000ACCFB7CF0C944860FC018081918100976D
:1033700011F00C94486008950C9448600C944860D7
:103380000C9448600C9448600C9448600C9448601D
:10339000FF920F931F93CF93DF93F82E8091BD0A76
:1033A0009091BE0A0F2D10E0892BC9F0D0E0C0E04B
:1033B0008091BD0A9091BE0AC017D10774F49E0196
:1033C000220F331F820F931FFC0180819181009790
:1033D00011F00E9448602196EBCF0E944860F110E6
:1033E00012C01092BE0A1092BD0A1093C20A009336
:1033F000C10A8091BD0A9091BE0ADF91CF911F91C1
:103400000F91FF900895C801880F991F0E94AC5F2B
:103410009093BE0A8093BD0AE8CF1F93CF93DF93AA
:10342000182F8091BB0A9091BC0A892B11F1D0E032
:10343000C0E08091BB0A9091BC0A2091BF0A3091F4
:10344000C00AC217D3079CF49E01220F331F820FBC
:10345000931FDC018D919C91009739F0DC01ED9177
:10346000FC910688F789E02D19952196E2CF0E94FC
:103470004860C12FD0E0111110C01092BC0A109208
:10348000BB0AD093C00AC093BF0A8091BB0A909137
:10349000BC0ADF91CF911F910895CE01880F991F2B
:1034A0000E94AC5F9093BC0A8093BB0AEACFAF92B4
:1034B000BF92CF92DF92EF92FF920F931F93CF9321
:1034C000DF93CDB7DEB7C456D1090FB6F894DEBF8F
:1034D0000FBECDBFD62EC72E5A019F938F931F923A
:1034E00080E58F930BED13E01F930F938DED93E029
:1034F0009F938F9382EF93E09F938F93CE010196DA
:103500007C019F938F930E9457690FB6F894DEBF9A
:103510000FBECDBF92E0A916B10489F183E0A816D1
:10352000B104A1F1AA94AB2819F11F930F93FF9254
:10353000EF928DEF93E09F938F93CF92DF920E9453
:1035400057690FB6F894DEBF0FBECDBFCC59DF4F21
:103550000FB6F894DEBF0FBECDBFDF91CF911F91A4
:103560000F91FF90EF90DF90CF90BF90AF900895B4
:103570001F930F93FF92EF9289E094E0DCCF1F93AB
:103580000F93FF92EF9285E194E0D5CF1F930F93B5
:10359000FF92EF928FE194E0CECFEF92FF920F93E4
:1035A0001F93CF93DF937B018A01FB01E40FF51F8B
:1035B0001082C091850AD091860ABC01CE018B523F
:1035C0009C4F0E944269B701CE01875C9B4F0E94CD
:1035D0004269CF5FDA4F19830883DF91CF911F9142
:1035E0000F91FF90EF9008950F931F93CF93DF9368
:1035F000EC0188819981009759F02A813B81261737
:10360000370730F081E0DF91CF911F910F9108953E
:103610008B016F5F7F4F0E943668009759F0998346
:1036200088831B830A832C813D81232B59F7FC015E
:103630001082E8CF80E0E7CFEF92FF920F931F93C5
:10364000CF93DF93EC017B018A01BA010E94F41A47
:1036500028813981811114C02115310519F0C90162
:103660000E944860198218821D821C821B821A8265
:10367000CE01DF91CF911F910F91FF90EF900895B0
:103680001D830C83B701C9010E944269F1CFFB0180
:1036900001900020E9F73197AF01461B570BDC0181
:1036A000ED91FC910280F381E02D19948F929F920D
:1036B000AF92BF92EF92FF920F931F93CF93DF933E
:1036C000CDB7DEB7A1970FB6F894DEBF0FBECDBF62
:1036D0007C01FA01CB0119A2223008F42AE08E0104
:1036E0000F5D1F4F822E912CB12CA12CBF01A50183
:1036F00094010E948966F901CA016A300CF5605D87
:10370000D8016E938D01232B242B252B79F790E084
:1037100080E0109721F0BD01C7010E94471BA196D0
:103720000FB6F894DEBF0FBECDBFDF91CF911F91D2
:103730000F91FF90EF90BF90AF909F908F90089562
:10374000695CDECFAB0170E060E02AE00C94561BB0
:103750008F929F92AF92BF92CF92DF92EF92FF92A1
:103760000F931F93CF93DF937C018B016C0182E059
:10377000C80ED11C4701E5E08E0E911CD0E0C0E0E0
:10378000F60141916F0150E070E060E02AE0C8016D
:103790000E94561B5C016EE2C8010E94A7088A0DB8
:1037A0009B1DC80FD91FC814D90451F7F7014581D3
:1037B00050E070E060E02AE0C8010E94561B8C0FC8
:1037C0009D1FDF91CF911F910F91FF90EF90DF90A0
:1037D000CF90BF90AF909F908F9008956AE274E071
:1037E0000C94471BCF93DF93D0E0C0E0009731F0FB
:1037F000BC0187E199E00E94471BEC0187E199E059
:103800000E94EE1B8C0F9D1FDF91CF9108956115D3
:10381000710511F00C94471B90E080E00895CF9360
:10382000DF93EC0180913E0790913F070097B1F044
:1038300060E20E94A7086E857F8580913E07909187
:103840003F076115710521F0DF91CF910C94071CA2
:1038500065E37BE0DF91CF910C94AE08DF91CF91CF
:1038600008950F931F93CF93DF938C0180913E07B0
:1038700090913F07009711F1EB0163E47BE00E9418
:10388000AE08C8010E940F1C6EE280913E07909125
:103890003F070E94A708BE0180913E0790913F0715
:1038A0000E94AE0860E47BE080913E0790913F0764
:1038B000DF91CF911F910F910C94AE08DF91CF91C2
:1038C0001F910F9108956AE47BE00C94311C1F93C3
:1038D000CF93DF93EC0180913E0790913F070097D3
:1038E00009F464C0162F67E27BE0112341F00E94C7
:1038F000EE1B6DE27BE080913E0790913F070E94B6
:10390000AE088E859F85892B79F060E280913E0715
:1039100090913F070E94A7086E857F8580913E07A2
:1039200090913F070E94071C61E27BE080913E0777
:1039300090913F070E94AE086885798580913E0787
:1039400090913F070E94A21B6BE17BE080913E07B4
:1039500090913F070E94AE086A857B8580913E0763
:1039600090913F070E94A21B1123B9F068E17BE010
:1039700080913E0790913F070E94AE086E817F8143
:1039800080913E0790913F070E94071C67E280915B
:103990003E0790913F070E94A70880913E079091B3
:1039A0003F07DF91CF911F910C94EE1BDF91CF91D8
:1039B0001F910895AF92BF92CF92DF92EF92FF9244
:1039C0000F931F93CF93DF93E0913E07F0913F0752
:1039D000EF2B09F4ADC059016A01EC010E94311CC2
:1039E0006AE77FE080913E0790913F070E94AE0812
:1039F000B60180913E0790913F070E94A21B8C85E3
:103A00008823C9F06EE67FE080913E0790913F07E2
:103A10000E94AE08B6016F5F7F4F80913E07909184
:103A20003F070E94A21B6BE67FE080913E079091CA
:103A30003F070E94AE08E114F104B9F06BE57FE0A6
:103A400080913E0790913F070E94AE08B701809198
:103A50003E0790913F070E94A21B66E47FE08091A1
:103A60003E0790913F070E94AE088091040260E0FB
:103A70008823B1F180913E0790913F070E94EE1B91
:103A80006EE37FE080913E0790913F070E94AE0871
:103A9000A114B10419F40115110501F16EE27FE0E2
:103AA00080913E0790913F070E94AE08A114B10497
:103AB00021F167E280913E0790913F070E94A7089D
:103AC000B50180913E0790913F070E94071C67E275
:103AD00080913E0790913F070E94A70860910402E1
:103AE000CE01DF91CF911F910F91FF90EF90DF906A
:103AF000CF90BF90AF900C94671C0115110571F326
:103B00006AE27FE080913E0790913F070E94AE08F5
:103B1000B80180913E0790913F070E94AE086DE288
:103B200074E080913E0790913F070E94071CD6CF1A
:103B3000DF91CF911F910F91FF90EF90DF90CF9089
:103B4000BF90AF900895AF92BF92CF92DF92EF9265
:103B5000FF920F931F93CF93DF937C015B018A0148
:103B6000EA0109900020E9F72197C41BD50B0E94B8
:103B7000F40E8823C9F1F50101900020E9F731978F
:103B8000EA19FB09CE010796E80FF91FE138F105A4
:103B900058F5670186E0C80ED11C45E050E0B6013B
:103BA000C5010E94FB07F801DC011696AE0DBF1D92
:103BB000A8014C0F5D1FE417F50719F021912D9313
:103BC000FACF25979E01280F391FA60160E3C70190
:103BD000DF91CF911F910F91FF90EF90DF90CF90E9
:103BE000BF90AF900C942A0F80E0DF91CF911F918E
:103BF0000F91FF90EF90DF90CF90BF90AF9008951E
:103C0000CF93DF93FC018485882379F1208531856A
:103C1000A681B781A20FB31F232B29F19C91992371
:103C200011F191E095871C92C681D781DE010D903C
:103C30000020E9F71197AC1BBD0BB387A28788233F
:103C4000A1F080913E0790913F07009771F0EF013E
:103C500065E57AE00E94AE0860910402CE01DF9132
:103C6000CF910C94671C80E0DECFDF91CF91089557
:103C7000AF92BF92CF92DF92EF92FF920F931F937A
:103C8000CF93DF93EC016B017A010E94001EC114F7
:103C9000D10421F581E08D8780913E0790913F0707
:103CA000892B81F0CE010E94631C6FE07FE0809140
:103CB0003E0790913F070E94AE0860910402CE013A
:103CC0000E94671CCE01DF91CF911F910F91FF9051
:103CD000EF90DF90CF90BF90AF900895E114F10482
:103CE00089F3F60190E080E02191222321F00196F2
:103CF000E816F906C8F78E159F0508F04CC081E05C
:103D00008D8780913E0790913F07892BD9F2CE0194
:103D10000E94631C66E07FE080913E0790913F0720
:103D20000E94AE08B70180913E0790913F070E9424
:103D3000A21B61EF7EE080913E0790913F070E94B9
:103D4000AE0880910402882309F4B7CF80913E0722
:103D500090913F070E94EE1B69EE7EE080913E0746
:103D600090913F070E94AE0868ED7EE080913E078B
:103D700090913F070E94AE08B60180913E07909156
:103D80003F070E94071C67E280913E0790913F0722
:103D90000E94A70892CF8A859B855C01AE0CBF1C50
:103DA000288539852A153B0560F481E08D8710E070
:103DB00000E09601A50161ED7EE0CE010E94DA1CD3
:103DC00081CF2E813F81A701B601820F931F0E94F0
:103DD0002069BB86AA868E819F81A80EB91EF50137
:103DE000108270CF0F931F93CF93DF938C01EB0161
:103DF000CB010E94001E4A855B856E817F81C801D0
:103E0000DF91CF911F910F910C94381E0F931F9348
:103E1000CF93DF93EC018B010E94001E0115110569
:103E2000F1F481E08D8780913E0790913F07892BC7
:103E300081F0CE010E94631C60EF7AE080913E0722
:103E400090913F070E94AE0860910402CE010E944B
:103E5000671CCE01DF91CF911F910F910895F8015A
:103E600001900020E9F73197AF01401B510BB801D9
:103E7000CE01DF91CF911F910F910C94381ECF93FB
:103E8000DF93EC018A819B810E94061FCE01DF91A6
:103E9000CF9108950F931F93CF93DF93EC018B0184
:103EA0000E94001E6E817F816115710539F0C80185
:103EB000DF91CF911F910F910C94471B90E080E010
:103EC000DF91CF911F910F910895BF92CF92DF9212
:103ED000EF92FF920F931F93CF93DF93EC016B014F
:103EE000663071056CF50A811B81C8010E94001EB5
:103EF000BB24B394F801B486868197810E94F21B9B
:103F00000091850A1091860AEA80FB80C7010E9411
:103F1000001EF701B486E680F780C8010E94F40E07
:103F2000882371F084E68C9DB0018D9D700D112465
:103F3000675E7E4F600F711FA701C8010E94A31D1D
:103F4000EA81FB81138612860680F781E02D1082BC
:103F5000DF91CF911F910F91FF90EF90DF90CF9065
:103F6000BF9008958F929F92AF92BF92CF92EF929F
:103F7000FF920F931F93CF93DF93EC0159011D82A2
:103F80001C828CE492E09983888388E592E09B838D
:103F90008A831D861F870E87EC861C8A4115510572
:103FA00009F4C2C12115310529F0FF24F394421709
:103FB000530709F0F12CEE20E9F1C1103BC062304B
:103FC0007105A1F58FE996E09F838E8382E090E0F2
:103FD000998788871B861A8610929F0681E08D87B5
:103FE00080913E0790913F07009709F4E1C068E295
:103FF0007AE00E94AE08CE010E940F1C64E179E0D5
:1040000080913E0790913F070E94AE0860910402A4
:10401000CE01DF91CF911F910F91FF90EF90CF9044
:10402000BF90AF909F908F900C94671C41155105E5
:1040300009F47CC15F834E83CB0101978E3F9F4F74
:1040400008F467C0EE2009F447C0CC2009F444C04E
:10405000672BE9F48FE996E09F838E831986188693
:104060001B861A8610929F0681E08D8780913E07FD
:1040700090913F07009709F49BC066EE78E00E949C
:10408000AE08CE010E940F1C66EB78E0B9CFFA01B2
:1040900001900020E9F73197E41BF50BF987E887D9
:1040A000F11004C01B861A86FA011082A114B10413
:1040B000D9F581E08D8780913E0790913F07009769
:1040C00009F476C064E178E00E94AE08CE010E9457
:1040D0000F1C60EE77E094CF8FE996E09F838E838C
:1040E000198618861B861A8610929F0681E08D8796
:1040F00080913E0790913F07009709F459C060E90D
:1041000078E00E94AE08CE010E940F1C6EE678E0B7
:1041100077CF6F3F8FE7780710F06EEF7FE7615042
:10412000710979876887BCCF88849984C4010E940B
:10413000AC5F8C010E944860012B09F045C081E012
:104140008D871B861A86EE81FF81108280913E0743
:1041500090913F07009731F16DEC77E00E94AE0837
:10416000CE010E940F1C68EB77E080913E07909192
:104170003F070E94AE086885798580913E0790913F
:104180003F070E94A21B69E777E080913E0790916C
:104190003F070E94AE081986188660910402CE017E
:1041A0000E94671C8FE996E09F838E83198618868C
:1041B000DF91CF911F910F91FF90EF90CF90BF9023
:1041C000AF909F908F900895F50110E000E08191ED
:1041D000882309F491C00F5F1F4F80169106B8F72E
:1041E000FF2041F09B868A868E819F81880E991ED2
:1041F000F401108281E08D8780913E0790913F0706
:104200000097B1F2F11048C066E677E00E94AE0870
:10421000CE010E940F1C6CE477E080913E079091E4
:104220003F070E94AE08B80180913E0790913F077A
:104230000E94A21B68E377E080913E0790913F07C0
:104240000E94AE0880910402882309F4DFCE809199
:104250003E0790913F070E94EE1B60E377E080915C
:104260003E0790913F070E94AE0867E177E080919A
:104270003E0790913F070E94AE08B50180913E072E
:1042800090913F070E94071C67E280913E07909142
:104290003F070E94A708BACE6BEE76E0C11002C0BD
:1042A00065EC76E00E94AE08CE010E940F1C66E924
:1042B00076E080913E0790913F070E94AE08B801DA
:1042C00080913E0790913F070E94A21B80910402BB
:1042D000882309F49BCE80913E0790913F070E946E
:1042E000EE1B6EE876E080913E0790913F070E94BA
:1042F000AE0862E776E0BBCFF11006C0A801B501B9
:104300008E819F810E9420691B870A878E819F81F1
:10431000080F191FF8011082EE81FF8188859985A9
:10432000E80FF91F108244CFE1101DC08FE996E01D
:104330009F838E83198618861B861A8610929F0685
:1043400081E08D8780913E0790913F07009709F4A7
:104350002FCF6BE578E00E94AE08CE010E940F1CC3
:1043600067E278E04DCEC110E1CF62307105F1F621
:1043700029CE4F925F926F927F92AF92BF92CF926F
:10438000EF92FF920F931F93CF93DF93CDB7DEB7DA
:10439000EC970FB6F894DEBF0FBECDBF5C012A01CB
:1043A0003B010E94001ECC24C394E12C00E314E0E6
:1043B0002AED33E0AE014F5F5F4F65E270E0CE0162
:1043C00086960E94B21F2AE0B301A201CE01889610
:1043D0000E94561B7C01F50102851385CE0186964D
:1043E0000E94001E48A959A9400F511FF501808560
:1043F00091858417950710F581E085872CA53DA54B
:10440000F12CE12C10E000E06BEC7EE0C5010E9495
:10441000DA1CC701EC960FB6F894DEBF0FBECDBF15
:10442000DF91CF911F910F91FF90EF90CF90BF90B0
:10443000AF907F906F905F904F900895BE016A5D3E
:104440007F4FC5010E94F21EE4CF8F929F92AF92E0
:10445000BF92CF92EF920F931F93CF93DF93CDB77D
:10446000DEB7A0970FB6F894DEBF0FBECDBF5C01DC
:104470004B01CC24C394E12C00E314E02AED33E09B
:10448000AE01485E5F4F69E070E0CE0101960E9488
:10449000B21FA40170E060E0CE0101960E94B92134
:1044A000BE016F5F7F4FC5010E94F21EA0960FB63E
:1044B000F894DEBF0FBECDBFDF91CF911F910F915A
:1044C000EF90CF90BF90AF909F908F900895CF9333
:1044D000DF93EC018A819B810E942522CE01DF912E
:1044E000CF9108956F927F928F929F92AF92BF92D9
:1044F000CF92EF92FF920F931F93CF93DF93CDB79D
:10450000DEB7CC55D1090FB6F894DEBF0FBECDBFD4
:104510003C014B01CC24C394E12C00E314E02AEDD0
:1045200033E0AE014C5A5F4F69E070E0CE01CD96AA
:104530000E94B21F092C000CAA08BB08CE01CD9620
:104540000E94001E2AED33E0AE014F5F5F4F65E22F
:1045500070E0CE0186960E94B21F2AE0B501A40148
:10456000B7FE0DC06DE2CE0188960E94A7084427D1
:104570005527BA01481959096A097B092AE0CE0171
:1045800088960E94561B2996AEACBFAC2997CE01E7
:1045900086960E94001E48A959A94A0D5B1D2796C0
:1045A0008EAD9FAD27978417950758F581E02B9620
:1045B0008FAF2B972CA53DA5F12CE12C10E000E04E
:1045C0006BE07BE0CE01CD960E94DA1CBE01635CFD
:1045D0007F4FC3010E94F21EC45ADF4F0FB6F894FA
:1045E000DEBF0FBECDBFDF91CF911F910F91FF9026
:1045F000EF90CF90BF90AF909F908F907F906F90F3
:104600000895BE016A5D7F4FCE01CD960E94F21ED5
:10461000DDCFCF93DF93EC018A819B810E947222D0
:10462000CE01DF91CF910895AF92BF92CF92EF92DA
:10463000FF920F931F93CF93DF93CDB7DEB76D97A4
:104640000FB6F894DEBF0FBECDBF5C01F62ECC24B2
:10465000C394E12C00E314E02AED33E0AE01485EA0
:104660005F4F66E070E0CE0101960E94B21F4F2DB1
:1046700050E070E060E0CE0101960E94B921BE01D9
:104680006F5F7F4FC5010E94F21E6D960FB6F894C2
:10469000DEBF0FBECDBFDF91CF911F910F91FF9075
:1046A000EF90CF90BF90AF900895CF92DF92EF92AE
:1046B000FF920F931F93CF93DF938C01DC019296AF
:1046C000ED91FC91E80FF91F12826C01B2E0CB0E64
:1046D000D11CC114D10431F1F60101900020E9F799
:1046E0003197EC19FD09F1F0DC01ED90FC90D70158
:1046F0001496CD91DC91CE0FDF1FBE01C7010E9441
:10470000F41A882379F0F701208131818481958121
:10471000B601820F931F0E944269D7011596DC9360
:10472000CE931497F80113A212A2DF91CF911F919B
:104730000F91FF90EF90DF90CF900895CF93DF938C
:10474000EC018AA19BA19C012F5F3F4F3BA32AA3B1
:10475000FE01E80FF91F62830296809718F0CE01E0
:104760000E9455238CA19DA101969DA38CA3DF914E
:10477000CF910895EF92FF920F931F93CF93DF9302
:10478000EC017B0162E20E949E238701F8016191A6
:104790008F01662391F0EAECF3E0F280FF2049F00C
:1047A000329681816813F9CF6CE5CE010E949E2379
:1047B0006F2DCE010E949E23E9CF62E2CE01DF91F0
:1047C000CF911F910F91FF90EF900C949E23CF9269
:1047D000DF92EF92FF920F931F93CF93DF93EC0141
:1047E0006A018B017B01E40EF51E0E151F05A9F071
:1047F000F80121918F018AA19BA1AC014F5F5F4F0E
:104800005BA34AA3FE01E80FF91F2283029680975B
:1048100060F3CE010E945523E8CF4CA15DA14C0D61
:104820005D1D5DA34CA3DF91CF911F910F91FF9070
:10483000EF90DF90CF900895EF92FF920F931F9328
:10484000CF93DF93CDB7DEB766970FB6F894DEBF90
:104850000FBECDBF8C01CB01FE0177969F014AE0D0
:10486000E42EF12CB7010E940668805D8293CB0193
:104870000097C1F7A9014E1B5F0BBF01C8010E9441
:10488000E72366960FB6F894DEBF0FBECDBFDF916B
:10489000CF911F910F91FF90EF9008958F929F926B
:1048A000AF92BF92CF92DF92EF92FF920F931F933E
:1048B000CF93DF93CDB7DEB766970FB6F894DEBF20
:1048C0000FBECDBF6C018E01095E1F4F78018AE0DB
:1048D000882E912CA12CB12CCB01BA01A5019401F9
:1048E0000E948966942F852F605DF80162938F0185
:1048F000A901692F782F411551056105710561F7EF
:10490000A7014E1B5F0BBF01C6010E94E7236696FD
:104910000FB6F894DEBF0FBECDBFDF91CF911F91D0
:104920000F91FF90EF90DF90CF90BF90AF909F904E
:104930008F900895FB0101900020E9F73197AF01B6
:10494000461B570B0C94E7232F923F924F925F9296
:104950006F927F928F929F92AF92BF92CF92DF928F
:10496000EF92FF920F931F93CF93DF93CDB7DEB7F4
:1049700066970FB6F894DEBF0FBECDBF8C011B014A
:10498000DC0114968C9114978F77863009F470C2ED
:1049900078F48230B0F0843008F051C212964D9114
:1049A0005C9113976D917C91C1010E94E72316C21F
:1049B0008C30B1F160F4883009F455C28A3009F4C2
:1049C00044C265E374E0C1010E949A2407C28032A8
:1049D00009F408C28034A9F76BE5C1010E949E2347
:1049E000F801008111810115110509F4F3C1B1012C
:1049F000C8010E94A424D80115968C91882309F43B
:104A0000E9C1B8E08B02C0011124080F191F01157C
:104A1000110509F4DFC16CE2C1010E949E23E3CFBE
:104A2000F801C080D180E280F380A7019601C70120
:104A3000B6010E94DB62882331F065E374E0C101B6
:104A40000E949A249FC120E030E0A901C701B6016D
:104A50000E94DB62882371F0A7019601C701B601AD
:104A60000E94ED669B01AC01C701B6010E94DB62AA
:104A7000882319F320E030E0A901C701B6010E94A4
:104A8000DB6287FF08C06DE2C1010E949E23F7FA36
:104A9000F094F7F8F09420E836E948E15BE4C701C8
:104AA000B6010E94016887FD81C064E1A62EB12C89
:104AB00000E210E01A8A198AF501EF58FA4F2591A1
:104AC000359145915491C701B6010E94016887FD57
:104AD00013C0F501EF5BFA4F259135914591549143
:104AE000C701B6010E9441636B017C0129893A89A3
:104AF000200F311F3A8B298B1595079534E0A31AA7
:104B0000B1088CEFA8168FEFB806B1F655245A9469
:104B100020E030E0A901C701B6010E940168181623
:104B20000CF04BC02CEA35EC47E257E3C701B60165
:104B30000E94DB6218160CF440C0A52DB4E0AB0255
:104B4000C0011124B12CA12CFC01E75AFA4F3F01FE
:104B50009C012F583A4F49013FEF531671F1F30171
:104B6000EA0DFB1D6591759185919491A7019601C0
:104B70000E94016818169CF4F401EA0DFB1D2591B2
:104B8000359145915491C701B6010E9441636B0173
:104B90007C0189899A89801B910B9A8B898B159549
:104BA00007955A9494E0A91AB108D6CF00E210E014
:104BB00045E0542E1A8A198AABCFC701B6010E946C
:104BC000D2674B015C012B013C0106E080E492E4DA
:104BD000AFE0B0E08B8B9C8BAD8BBE8B102F015068
:104BE0009AE04916510461047104C8F06B897C890C
:104BF0008D899E892AE030E040E050E00E9489667D
:104C00002B8B3C8B4D8B5E8BC301B2012AE030E0D5
:104C100040E050E00E94896629013A01DFCFC501DA
:104C2000B4010E94E0629B01AC01C701B6010E9481
:104C3000EC666B017C016B897C898D899E890E9461
:104C4000E0629B01AC01C701B6010E9441632B01E8
:104C50003C010E94D2676B017C010E94E0629B01D3
:104C6000AC01C301B2010E94EC669B01AC010E9441
:104C7000ED660E94D267C60ED71EE81EF91E8B890C
:104C80009C89AD89BE89C816D906EA06FB06D8F00C
:104C90009FEF891A990AA90AB90AA989BA89AB2B7F
:104CA00039F1BAE08B169104A104B10408F1E98945
:104CB000FA893196FA8BE98BC12CD12C7601812CA3
:104CC000912C540183949AE0492E512C612C712C23
:104CD000C701B601A30192010E948966672B682B68
:104CE000692B51F4111644F469017A011150F0CF87
:104CF000C12CD12C7601E7CFB501A401C1010E94DE
:104D00004E24112371F14E01F1E18F0E911C012F00
:104D100054018AE0482E512C612C712C015068F00E
:104D2000C701B601A30192010E948966605DD401AA
:104D30006E934D0169017A01F1CF812F90E0BC01A2
:104D400060957095F501E81BF90B31978EE2808331
:104D500044275527461B570B6A0D7B1DC1010E9436
:104D6000E723E989FA89F7FF2AC06AE374E0C10101
:104D70000E949A2469897A89719561957109C101A6
:104D80000E941C24D10194968D919C9166960FB639
:104D9000F894DEBF0FBECDBFDF91CF911F910F9171
:104DA000FF90EF90DF90CF90BF90AF909F908F904B
:104DB0007F906F905F904F903F902F90089529893A
:104DC0003A89232BF9F265E6C1010E949E23698985
:104DD0007A89D5CF6DE5C1010E949E23F10184A19E
:104DE00095A1D4CF6BE7C1010E949E23D8010D91FC
:104DF0001C910115110509F1F80166817781C10146
:104E00000E94BA236AE3C1010E949E23B101C80136
:104E10000E94A424D80115968C91882371F0B8E0E3
:104E20008B02C0011124080F191F0115110529F06B
:104E30006CE2C1010E949E23DCCF6DE7CCCF6D9167
:104E40007C91C1010E94BA23C9CFCD90DD90ED9035
:104E5000FC906DE2C1010E949E23B701A601C10131
:104E60000E944E24BBCF4D915D916D917C91F7CF07
:104E7000F80180819181A281B3816DE374E0892B77
:104E80008A2B8B2B09F0DBCD62E474E0D8CDAF9296
:104E9000BF92CF92DF92EF92FF920F931F93CF9327
:104EA000DF9300D01F92CDB7DEB78C016B017A0182
:104EB00080913B078333E9F45B016801C40ED51E82
:104EC000C016D106A9F10E94A80B8FE00E94B30B77
:104ED000812F0E94B30B802F0E94B30B0F5F1F4FD7
:104EE00080E00E94B30BF50181935F010E949E0B4D
:104EF000E7CF843369F50E94A80B19830A838F2DAD
:104F00008F778B83EC8264E070E0CE0101960E9483
:104F1000840BA70170E060E0C6010E943269E114D1
:104F2000F10421F0B701C6010E94840B0E949E0B80
:104F3000C7010F900F900F900F90DF91CF911F91AD
:104F40000F91FF90EF90DF90CF90BF90AF900895BA
:104F50000E94A80B0F3F110509F030F419820A8353
:104F60001B8263E070E0D1CF17FD0BC019820A836A
:104F700033E0169507953A95E1F7007E08600B83BC
:104F8000F0CFC80126E0969587952A95E1F7807EB7
:104F900019830A830115104C18F480618B83E1CFCB
:104FA0008861FCCFCF93DF931F92CDB7DEB72091FE
:104FB000E60630E0322F2227260F371F90E0982F89
:104FC000882741E050E0BE016F5F7F4F820F931F43
:104FD0000E94472789810F90DF91CF910895CF9349
:104FE000C82F462F61E070E00E94C60C61E070E0BF
:104FF0008C2F0E94D2278111F9CFCF910895CF93A2
:10500000C82F80E591E00E94500868E070E08C2F86
:10501000CF910C94EF27CF93C82F80E591E00E94A9
:10502000500860E170E08C2FCF910C94EF27CF9364
:10503000DF93EC01888D883020F40E940B2888E0F3
:10504000888FDF91CF910895CF93C82F80E591E0AD
:105050000E94500863E070E08C2FCF910C94D2270F
:10506000CF93DF93EC018C858830D0F40E94242804
:10507000843189F0882379F0883169F021E08C311E
:1050800059F4E881F9810084F185E02DCE0119956C
:1050900021E0892B09F420E0822FDF91CF91089540
:1050A00080E0FBCFCF92DF92EF92FF92CF93DF931E
:1050B000EC018C85883068F40E94FF270E94780BF1
:1050C0006B017C018C850E942428811109C088E035
:1050D0008C87DF91CF91FF90EF90DF90CF90089574
:1050E00061E070E080E090E00E94450B0E94780B48
:1050F000AB01BC014C195D096E097F098D859E8548
:10510000B0E0A0E0481759076A077B07D8F28C8502
:105110000E940B28DCCFCF93FC01C08D80E591E08D
:105120000E94500860E270E08C2F0E94EF2762E03E
:1051300070E08C2F0E94D22784FD16C062E070E0E0
:105140008C2F0E94D22783FF0AC048E162E070E002
:105150008C2F0E94C60C80E090E0CF91089580E5EE
:1051600091E00E945008E3CF40E162E070E08C2FB4
:105170000E94C60C81E0F0CFCF93DF931F92CDB792
:10518000DEB741E050E0BE016F5F7F4F90E080E00E
:105190000E94472789810F90DF91CF910895CF9387
:1051A000DF93C4E1D0E00E94BC28882361F061E075
:1051B00070E080E090E00E94450B2197A1F780E02D
:1051C000DF91CF91089581E0FBCF1F93CF93DF93C1
:1051D0001F92CDB7DEB7182F80E591E00E945008EE
:1051E000812F0E947B0C27E0129FF0011124ED5FBC
:1051F000F84F22813381377041E050E0BE016F5F8C
:105200007F4F820F931F0E94472789810F90DF9164
:10521000CF911F910895FC01808D883040F4218D3D
:10522000328D232B21F00E94E52890E008958FEF26
:105230009FEF0895CF93DF93FC012485283028F059
:105240008FEF9FEFDF91CF910895EC010190F081F6
:10525000E02D0084F185E02D1995892B89F38C854B
:105260000E94E52890E0EECFDA01E091E606F0E05A
:10527000FE2FEE27E60FF71F90E0982F8827A90151
:10528000BD018E0F9F1F0C9447278F929F92AF9264
:10529000BF92CF92DF92EF92FF920F931F93CF9323
:1052A000DF93CDB7DEB760970FB6F894DEBF0FBEC1
:1052B000CDBF7C0190913B07911115C018E0812F63
:1052C00060960FB6F894DEBF0FBECDBFDF91CF91D1
:1052D0001F910F91FF90EF90DF90CF90BF90AF9014
:1052E0009F908F90089508E0933309F404E06B01D8
:1052F00080E591E00E9450089E012F5F3F4F5901C9
:10530000490110E063E070E0812F0E94D227F40190
:1053100081934F018823C1F01F5F0113F3CF00E099
:10532000F50181915F018D3149F0883139F08A5161
:10533000823020F00F5F1013F3CFC0CF60E170E038
:10534000802F0E94EF27102FA12EB12C83EE93E027
:105350000197F1F742E870E060E0812F0E94C60CEF
:105360004FEF62E070E0812F0E94C60CB601C114BD
:10537000D10491F48091020290910302019681156B
:10538000F0EC9F0708F45CC0909303028093020244
:105390006091020270910302812F0E94B00C86E09E
:1053A000EFE0F2E0DE01199601900D928A95E1F7A7
:1053B000F70183818F778C8784818D8785818E87A4
:1053C000A7014E5F5F4F24E030E06CE070E0812F7A
:1053D0000E94890CB601812F0E949A0C26E030E0D1
:1053E000AE01475F5F4F66E070E0812F0E94890C3D
:1053F00061E070E0812F0E94EF2727E02A9DC00125
:105400002B9D900D11249C012D5F384F7901F901DE
:105410001182108222E030E0AE01415F5F4F68E20E
:1054200070E0812F0E9434298F85988998278927D9
:105430009827F701938382831682158214823FCFC7
:1054400080E090ECA1CFCF92DF92EF92FF920F938A
:105450001F93CF93DF9300D000D0CDB7DEB78C0180
:105460006B017A01FC01808D883010F40E940B28BA
:1054700088EC93E09A838983F60182819381A481E9
:10548000B5818B839C83AD83BE83B701CE0101962A
:105490000E944529F801808F8830A0F4F586E486C3
:1054A000128E118E81E026960FB6F894DEBF0FBEE5
:1054B000CDBFDF91CF911F910F91FF90EF90DF90C3
:1054C000CF90089580E0EFCF7F928F929F92AF921E
:1054D000BF92CF92DF92EF92FF920F931F93CF93E1
:1054E000DF931F921F92CDB7DEB7782E8B014A0152
:1054F000590122E030E0AE014F5F5F4F64E270E09F
:105500000E943429E980FA80FE24EF24FE24E00E74
:10551000F11E9701377040913B07072D10E0433390
:1055200009F042C0085F1F4F102F0027110F110F05
:10553000110FC901800F911F4733C9F1A9014A0D0D
:105540005B1D4130584098F160E078E06B01C21A71
:10555000D30AA601B4010E94BA0BA5014C195D093A
:10556000B4016C0D7D1DC8010E94BA0BEA0CFB1C36
:10557000F982EA8222E030E0AE014F5F5F4F64E2E1
:1055800070E0872D0E94890C0F900F90DF91CF91D2
:105590001F910F91FF90EF90DF90CF90BF90AF9051
:1055A0009F908F907F900895005F1F4FBDCFA50102
:1055B000B401DACFEF92FF921F93CF93DF931F9244
:1055C0001F92CDB7DEB7182F22E030E0AE014F5F5B
:1055D0005F4F60E270E00E943429E980FA80FE2487
:1055E000EF24FE2422E030E0AE014F5F5F4F60E227
:1055F00070E0812F0E94342989819A819827892718
:105600009827E816F90689F487E0189FF00111241D
:10561000ED5FF84FF582E482C7010F900F90DF91A4
:10562000CF911F91FF90EF9008957C01DBCF1F93E6
:10563000CF93DF93182F80E591E00E945008812FCF
:105640000E94DA2AEC0163E070E0812F0E94D227E9
:10565000873121F08C3111F0D0E0C0E0CE01DF9134
:10566000CF911F910895CF93DF93EC018C85883003
:1056700060F40E942428873111F08C3131F48C853C
:105680000E94172B8115984088F3DF91CF910895E0
:10569000FC018485883010F40C94172B90E080E096
:1056A00008959F92AF92BF92CF92DF92EF92FF92B6
:1056B0000F931F93CF93DF938C015B01942EE52E04
:1056C000FC01C688D788F08C80E591E00E945008E4
:1056D0008F2D0E94DA2AC92DDE2D8C179D0708F424
:1056E000EC019E01A501B6018F2D0E94642AF801EC
:1056F000868997898C0F9D1F978B868BCE01DF91B2
:10570000CF911F910F91FF90EF90DF90CF90BF90BE
:10571000AF909F9008958F929F92AF92BF92CF9239
:10572000DF92EF92FF920F931F93CF936C015B0177
:105730008A01FC01C485C830F0F57A014130584037
:1057400018F0E12C88E0F82E80E591E00E945008E6
:105750008C2F0E94DA2A4C0163E070E08C2F0E94AB
:10576000D227873111F08C3149F58E149F0460F3F4
:1057700080E591E00E9450089701A50170E060E08B
:105780008C2F0E94642A60E270E08C2F0E94EF2729
:1057900062E070E08C2F0E94D22784FD17C063E086
:1057A00070E08C2F0E94D22781110BC081E090E025
:1057B000F6019383828310E000E010C0F12CE12C0D
:1057C000D7CF80E591E00E945008E2CF40E162E04F
:1057D00070E08C2F0E94C60CEF2841F3C801CF91D6
:1057E0001F910F91FF90EF90DF90CF90BF90AF90FF
:1057F0009F908F900895FF920F931F93CF93DF9305
:105800001F921F92CDB7DEB7F82E22E030E0AE0136
:105810004F5F5F4F66E270E00E94342909811A8170
:1058200010270127102722E030E0AE014F5F5F4FC5
:1058300066E270E08F2D0E94342989819A81982731
:10584000892798270817190749F4C8010F900F9066
:10585000DF91CF911F910F91FF9008958C01E3CFBD
:105860001F93CF93DF93182F87E0189FE001112437
:10587000CD5FD84F88819981009761F480E591E0F0
:105880000E945008812F0E94FB2B2E81821B9109C0
:1058900099838883DF91CF911F910895FC018485BE
:1058A000883010F40C94302C90E080E008954F92F2
:1058B0005F927F928F929F92AF92BF92CF92DF9230
:1058C000EF92FF920F931F93CF93DF931F921F923C
:1058D000CDB7DEB7782E6B014A01A82EB12C27E098
:1058E000829FC0011124FC01ED5FF84F7F01008110
:1058F000118180E591E00E9450080815190554F4C3
:10590000872D0E94FB2BF70126818C01021B1109B8
:10591000118300830115110529F563E070E0872DDF
:105920000E94D227843159F0882349F001E010E029
:105930008C3111F410E000E0119501951109C801B6
:105940000F900F90DF91CF911F910F91FF90EF90EB
:10595000DF90CF90BF90AF909F908F907F905F909F
:105960004F900895801691060CF4840187E08A9D7B
:10597000F0018B9DF00D1124ED5FF84FE280F38074
:10598000C114D10451F12701F7E05F22872D0E9455
:105990007B0C840D951D20913B07273309F453C0E0
:1059A0009801240D351D2130384008F44CC020E00A
:1059B00038E0490184189508A401B6010E944727E0
:1059C0002601480C591C6801C818D908872D0E9467
:1059D0007B0CA601B2010E944727E00EF11E87E072
:1059E0008A9DF0018B9DF00D1124ED5FF84FF3823D
:1059F000E28220813181201B310B3183208386811B
:105A0000800F912F911D8A3F910510F4232BF1F403
:105A100087E08A9DF0018B9DF00D1124ED5FF84F1A
:105A20001682F982EA8222E030E0AE014F5F5F4FDA
:105A300068E270E0872D0E94890C60E470E0872D99
:105A40000E94EF277CCFA801B601C5CF868377CF10
:105A5000CF93DF93FC01218D328D2115310529F47F
:105A60008FEF9FEFDF91CF910895EC01808D42176A
:105A7000530708F0A9010E94572C1816190684F73D
:105A8000298D3A8D281B390B3A8F298FEBCF0F9335
:105A90001F93CF93DF931F92CDB7DEB7FC01218D0B
:105AA000328D232B41F48FEF9FEF0F90DF91CF9139
:105AB0001F910F9108958C0141E050E0BE016F5F8E
:105AC0007F4FFC01808D0E94572C181619065CF739
:105AD000F801818D928D0197928F818F898190E05D
