:10000000AAC10000D9C10000D7C10000D5C10000BD
:10001000D3C10000D1C10000CFC10000CDC100009C
:10002000CBC100000C9466550C9466550C94665533
:10003000C3C10000C1C10000BFC10000BDC10000BC
:10004000BBC10000B9C10000B7C10000B5C10000CC
:10005000B3C10000B1C10000AFC100000C946A41FF
:10006000ABC100000C94322E0C94092EA5C10000E7
:10007000A3C10000A1C100009FC100009DC10000FC
:100080009BC1000099C1000097C1000095C100000C
:100090000C94DF2D0C94B62D8FC100008DC1000093
:1000A0008BC1000089C1000087C1000085C100002C
:1000B00083C1000081C100007FC100007DC100003C
:1000C0007BC1000079C1000077C100000C948C2D29
:1000D0000C94632D71C100000C94392D0C94102DDB
:1000E0006BC100000A170417321713170F17B91640
:1000F000D8167F16772E7A2E692E6D2E732EB12E7E
:100100007E2E822E882E8C2E902E962E9A2E9E2E0D
:10011000B12EA42EA82EAC2E00407A10F35A00A0C7
:10012000724E18090010A5D4E80000E876481700C0
:1001300000E40B54020000CA9A3B000000E1F50500
:10014000000080969800000040420F000000A0864A
:1001500001000000102700000000E803000000007C
:100160006400000000000A00000000000100000020
:1001700000002C76D888DC674F0823DFC1DFAE593A
:10018000E1B1B796E5E3E453C63AE651997696E8CD
:10019000E6C28426EB898C9B62ED407C6FFCEFBC51
:1001A0009C9F40F2BAA56FA5F490055A2AF75C937C
:1001B0006B6CF9676DC11BFCE0E40D47FEF520E6B2
:1001C000B500D0ED902E0300943577050080841E95
:1001D000080000204E0A000000C80C333333330FF0
:1001E000986E12831141EF8D2114893BE65516CF8D
:1001F000FEE6DB18D1844B381BF77C1D901DA4BB99
:10020000E424203284725E228100C9F124ECA1E54D
:100210003D27005EBCE2613FDD83C29C7E20A3FDE2
:100220001F41009D23BE46DB65F88C11AF32CA57D3
:10023000E97400000A0B02090C0D0E080703040103
:1002400000000000000000000000000000000000AE
:10025000000000000000000000000000000012117B
:10026000100000000000000000000000000000007E
:10027000000000000000000000002200250028000F
:100280002B002E003100340002010000050108019E
:100290000B0100002100240027002A002D0030005F
:1002A000330001010000040107010A0101021020CE
:1002B000200808102040102040800201020108049C
:1002C0000201010204081020408080402010080430
:1002D0000201800402018040201008040201080489
:1002E00002010102040810204080010204081020CD
:1002F00040800505050507050808080802020202F6
:100300000A0A0808040404040101010101010101B1
:100310000303030303030303040707070C0C0C0C7C
:100320000C0C0C0C02020202060606060606060665
:100330000B0B0B0B0B0B0B0B0000200023002600FC
:1003400029002C002F0032000001000003010601EB
:1003500009012A5CE05911241FBECFEFD1E2DEBFB4
:10036000CDBF00E00CBF1EE0A0E0B2E0ECEEF5ED8A
:1003700000E00BBF02C007900D92AA39B107D9F770
:1003800023E1AAE9BEE001C01D92A135B207E1F761
:1003900011E0CAEAD1E000E006C021970109802FF0
:1003A000FE010E94C766C93AD10780E00807A9F795
:1003B0000E94E4590C94E56A23CE2F923F924F920B
:1003C0005F926F927F928F929F92AF92BF92CF92E5
:1003D000DF92EF92FF920F931F93CF93DF93CDB7EE
:1003E000DEB7CE57D1090FB6F894DEBF0FBECDBF32
:1003F00080E090E00E94BA5680934A124AE0682F4B
:10040000CE0181599F4F0E94AC2C80914A128A30B4
:1004100018F064EA77E002C067E374E07E0125E645
:10042000E20EF11CC7010E94FB2C69E374E08E010F
:100430000F5F1F4FC8010E94FB2CB701C8010E942B
:10044000DA21BE0161597F4F0E94DA21BC018BE4A1
:1004500092E10E943122C8010E944F2CC7010E94E4
:100460004F2CCE0181599F4F0E944F2C4AE0609142
:100470004A12C7010E94AC2C60E474E0C8010E94DB
:10048000FB2CB701C8010E94DA21BC01CE018159C1
:100490009F4F0E94F22CCE0181599F4F0E948D3DAB
:1004A000CE0181599F4F0E944F2CC8010E944F2CB2
:1004B000C7010E944F2C80914A128093561290914E
:1004C0005C12890F80935C1280914912882309F491
:1004D000AFC069E474E0C8010E94FB2CC8010E940F
:1004E0008D3DC8010E944F2C87EF93E09A8389834A
:1004F0008091591290915A12A0915B12B0915C12A6
:100500008B839C83AD83BE83C8010E94832FC70168
:100510000E946815B701CE0181599F4F0E94F13E9C
:1005200067E574E0C8010E94FB2CBE0161597F4F52
:10053000C8010E94DA21BC01CE018B589F4F0E9456
:10054000F22CCE018B589F4F0E946F3DCE018B58ED
:100550009F4F0E944F2CC8010E944F2CCE01815901
:100560009F4F0E944F2C65E674E0C8010E94FB2C4F
:10057000C8010E948D3DC8010E944F2C65E774E0C0
:10058000C8010E94FB2CC8010E948D3DC8010E9439
:100590004F2C812C912C5401B501A401C7010E945C
:1005A000562F6FE774E0C8010E94FB2CB701C80109
:1005B0000E94DA21BC01CE0181599F4F0E94F22C8A
:1005C000CE0181599F4F0E948D3DCE0181599F4F91
:1005D0000E944F2CC8010E944F2CC7010E944F2C33
:1005E00080914912882321F00E94673FD82E01C0D4
:1005F000D12C68EE73E080E090E00E941C2F8FEF1A
:10060000881A980AA80AB80AD11012C036E08316D0
:100610009104A104B10409F0BFCF6FE677E0C801EF
:100620000E94FB2CC8010E948D3DC8010E944F2CE6
:1006300010925D1284E991E10E942D55811106C04E
:1006400080915D12882309F453C048C10E94AF5FB6
:100650004B015C0110925D1284E991E10E942D55DD
:10066000882359F180914A121F928F9385E994E073
:100670009F938F931F930F930E940A68C501B40143
:1006800028EE33E040E050E00E9477654AE0C70181
:100690000E94AC2CD7016D917C91C8010E94D6328A
:1006A000C7010E944F2C81E080935F120F900F9042
:1006B0000F900F900F900F9002C010925F120E9447
:1006C0005E414B015C0180915D12811107C10E9466
:1006D0005E41DC01CB0188199909AA09BB09803167
:1006E0009742A105B10508F0ABCF0E943D58EBCF72
:1006F0006CEB74E0C8010E94FB2CC8010E948D3D88
:10070000C8010E944F2C81E090E00E94BA56482E0A
:100710000E943D343C0163ED74E0C8010E94FB2C53
:10072000C8010E948D3DC8010E944F2C61E070E01D
:100730006114710411F060E070E04AE0C7010E94AA
:10074000802C67EE74E0CE0181599F4F0E94FB2CF4
:10075000B701CE0181599F4F0E94DA21BC01C80127
:100760000E94F22CC8010E948D3DC8010E944F2CAE
:10077000CE0181599F4F0E944F2CC7010E944F2CE0
:10078000812C912CEAE0AE2EB12C512C84149504CE
:100790000CF098C0C50101960E94BA56D82E4AE0C6
:1007A000682FC7010E94AC2C66EF74E0CE0181591E
:1007B0009F4F0E94FB2CB701CE0181599F4F0E9491
:1007C000DA21BC01C8010E94F22CC8010E948D3DB3
:1007D000C8010E944F2CCE0181599F4F0E944F2C7F
:1007E000C7010E944F2C8D2D0E942E336C01009763
:1007F00041F0DC01ED91FC910484F585E02DB5011B
:10080000199562E075E0C8010E94FB2CC8010E94A6
:100810008D3DC8010E944F2CF301D182C08261E05E
:1008200070E0CD2811F060E070E04AE0C7010E945E
:10083000802C6FE075E0CE0181599F4F0E94FB2C08
:10084000B701CE0181599F4F0E94DA21BC01C80136
:100850000E94F22CC8010E948D3DC8010E944F2CBD
:10086000CE0181599F4F0E944F2CC7010E944F2CEF
:100870006EE175E0C8010E94FB2CC8010E948D3D0D
:10088000C8010E944F2CD3018D919C91DC01ED9108
:10089000FC91008CF18DE02D45E050E068E275E0C0
:1008A0001995F301819191913F01DC01ED91FC914A
:1008B0000284F385E02D1995A80EB11CBFEF8B1AA9
:1008C0009B0A64CF64E375E0C8010E94FB2CC80159
:1008D0000E948D3DC8010E944F2CA7C1E09161127A
:1008E000EC96EFAFEC97F0916212ED96FFAFED97BB
:1008F000609065127090661281E090E00E94BA5696
:10090000D82E65E475E0C8010E94FB2CC8010E9446
:100910008D3DC8010E944F2C6D1439F14AE06D2DB8
:10092000C7010E94AC2C62E575E0CE0181599F4F52
:100930000E94FB2CB701CE0181599F4F0E94DA2102
:10094000BC01C8010E94F22CC8010E948D3DC80163
:100950000E944F2CCE0181599F4F0E944F2CC701FE
:100960000E944F2C332433940CC1EC96AFACEC971F
:10097000ED96BFACED977AE0872E912C412C512C4F
:1009800093013327EF963FAF2EAFEF97EF968EADE3
:100990009FADEF97481659060CF0F2C0C4010E94B3
:1009A000BA56282EC40101960E94BA56D82ED501F7
:1009B000ED91FC914AE06481C7010E94AC2CD50105
:1009C000ED91FC91628173814AE0CE0181599F4F84
:1009D0000E94542C61E675E0CE018B589F4F0E9417
:1009E000FB2CBE0161597F4FCE018B589F4F0E9457
:1009F000DA2162E775E00E94C221B7010E94DA2184
:100A0000BC01C8010E94F22CC8010E948D3DC801A2
:100A10000E944F2CCE018B589F4F0E944F2CCE012D
:100A200081599F4F0E944F2CC7010E944F2C4AE0D2
:100A30006D2DC7010E94AC2C4AE0622DCE01815978
:100A40009F4F0E94AC2C69E775E0CE018B589F4FF9
:100A50000E94FB2CBE0161597F4FCE018B589F4FE6
:100A60000E94DA2162E775E00E94C221B7010E946C
:100A7000DA21BC01C8010E94F22CC8010E948D3D00
:100A8000C8010E944F2CCE018B589F4F0E944F2CC3
:100A9000CE0181599F4F0E944F2CC7010E944F2CBD
:100AA000312CD501ED91FC91828193812816390674
:100AB00019F48481D81671F06FE875E0C8010E94BE
:100AC000FB2CC8010E948D3DC8010E944F2C33248D
:100AD00033944CC08D2D0E942E336C01FC01338267
:100AE00022820190F081E02D0484F585E02DB4018F
:100AF0001995D601ED91FC91008CF18DE02D45E02A
:100B000050E062EA75E0C6011995F50160817181D6
:100B1000D601ED91FC910190F081E02DC60119956F
:100B200081110EC06DEA75E0C8010E94FB2CC8015E
:100B30000E948D3DC8010E944F2C332433940BC07A
:100B4000D601ED91FC910284F385E02DC601199543
:100B5000880E911C312CC114D10441F0D601ED91C5
:100B6000FC910688F789E02DC6011995BFEF4B1A55
:100B70005B0AE2E0AE0EB11C332009F407CF01C0DE
:100B8000312C6CEB75E0C8010E94FB2CC8010E945F
:100B90008D3DC8010E944F2C332009F446C067ECFC
:100BA00075E0C8010E94FB2CC8010E948D3DC80160
:100BB0000E944F2CEC968FACEC97ED969FACED9786
:100BC000A12CB12C6AE0C62ED12C23015524A414EB
:100BD000B504E4F4D4018D919C91DC01ED91FC917C
:100BE0000684F785E02DB6011995F4018191919164
:100BF0004F01DC01ED91FC910284F385E02D199504
:100C0000C80ED11CBFEFAB1ABB0AE1CF662D81E045
:100C100090E00E94B8566D2D84E090E00E94B85696
:100C20006C2D85E090E00E94B85666EE75E0C80134
:100C30000E94FB2CC8010E948D3DC8010E944F2CD0
:100C4000C12CD12C8091651290916612C816D906DC
:100C5000B4F4C601880F991FE0916112F0916212FD
:100C6000E80FF91F80819181DC01ED91FC910084F6
:100C7000F185E02D1995BFEFCB1ADB0AE3CF6DEDBF
:100C800075E0C8010E94FB2CC8010E948D3DC8017F
:100C90000E944F2CC12CD12C80916512909166122C
:100CA000C816D906B4F4C601880F991FE0916112E5
:100CB000F0916212E80FF91F80819181DC01ED91C2
:100CC000FC910088F189E02D1995BFEFCB1ADB0A62
:100CD000E3CFDD24D394D0925D124AE061E070E06E
:100CE000C7010E94802C61EF75E0C8010E94FB2CB7
:100CF000B701C8010E94DA21BC01CE0181599F4F82
:100D00000E94F22CCE0181599F4F0E948D3DCE0151
:100D100081599F4F0E944F2CC8010E944F2CC70140
:100D20000E944F2C60916512709166124AE0C701D3
:100D30000E94802C60E076E0C8010E94FB2CB70185
:100D4000C8010E94DA21BC01CE0181599F4F0E9447
:100D5000F22CCE0181599F4F0E948D3DCE018159C9
:100D60009F4F0E944F2CC8010E944F2CC7010E9428
:100D70004F2C10925E1284E991E10E942D55811151
:100D800006C080915E12882309F458C018C10E94E1
:100D9000AF5F28EE33E040E050E00E9477659F931C
:100DA0008F937F936F938FE096E09F938F93FF9243
:100DB000EF920E940A6810925D1210925E1284E90E
:100DC00091E10E942D550FB6F894DEBF0FBECDBF46
:100DD0008823C9F080914A121F928F9383E196E095
:100DE0009F938F931F930F930E940A68D092601273
:100DF000B701C8010E94D6320F900F900F900F904C
:100E00000F900F9002C0D09260120E945E414B0181
:100E10005C0180915E128111D2C00E945E41DC01B2
:100E2000CB0188199909AA09BB0980319742A1050C
:100E3000B10508F0A6CF0E943D58EBCF63E376E002
:100E4000C8010E94FB2CC8010E948D3DC8010E9470
:100E50004F2C82E090E00E94BA56482E0E946732E2
:100E60006C016CE476E0C8010E94FB2CC8010E9472
:100E70008D3DC8010E944F2C61E070E0C114D10487
:100E800011F060E070E04AE0C7010E94802C62E649
:100E900076E0CE0181599F4F0E94FB2CB701CE0115
:100EA00081599F4F0E94DA21BC01C8010E94F22C97
:100EB000C8010E948D3DC8010E944F2CCE0181596E
:100EC0009F4F0E944F2CC7010E944F2C612C712C08
:100ED00034E0832E912C512C641475040CF063C003
:100EE00063E776E0C8010E94FB2CC8010E948D3D9B
:100EF000C8010E944F2C8DE090E00E94465E5C018C
:100F0000DC01EDE01D92EA95E9F7009719F0B401D4
:100F10000E9415276FE776E0C8010E94FB2CC801EC
:100F20000E948D3DC8010E944F2C1601D601AD9242
:100F3000BC9261E070E0AB2811F060E070E04AE044
:100F4000C7010E94802C6EE876E0CE0181599F4F48
:100F50000E94FB2CB701CE0181599F4F0E94DA21DC
:100F6000BC01C8010E94F22CC8010E948D3DC8013D
:100F70000E944F2CCE0181599F4F0E944F2CC701D8
:100F80000E944F2CB2E0CB0ED11C6FE976E0F1014C
:100F9000808191810E947131F7E08F0E911C2FEFBB
:100FA000621A720A99CF6DEA76E0C8010E94FB2CA2
:100FB000C8010E948D3DC8010E944F2C19C160ECF0
:100FC00076E0C8010E94FB2CC8010E948D3DC8013B
:100FD0000E944F2C30916312EC963FAFEC9730900B
:100FE0006412609067127090681282E090E00E9434
:100FF000BA56D82E60EC76E0C8010E94FB2CC801DE
:101000000E948D3DC8010E944F2C6D1439F14AE0B9
:101010006D2DC7010E94AC2C62E575E0CE018159AF
:101020009F4F0E94FB2CB701CE0181599F4F0E9418
:10103000DA21BC01C8010E94F22CC8010E948D3D3A
:10104000C8010E944F2CCE0181599F4F0E944F2C06
:10105000C7010E944F2C2224239467C0EC964FAC0A
:10106000EC97532C24E0C22ED12CA12CB12C43019F
:101070009924A814B9040CF057C08DE090E00E94A8
:10108000465E7C01B6010E9415276FEC76E0C70131
:101090000E947131D201ED91FD912D01309709F43B
:1010A00073C1D7012D913C911197808191812817AF
:1010B000390709F069C116969C9116978681981395
:1010C00063C112962D913C911397828193812817C9
:1010D000390709F059C114962D913C9115978481D7
:1010E00095812817390709F04FC119962D913C9128
:1010F0001A97818592852817390709F045C11796F7
:101100002D913C911897878190852817390709F010
:101110003BC11B962D913C911C9783859485281784
:10112000390709F031C147C1212C6CEB75E0C801CA
:101130000E94FB2CC8010E948D3DC8010E944F2CCB
:10114000222009F455C06CED76E0C8010E94FB2C0A
:10115000C8010E948D3DC8010E944F2CEC964FACF7
:10116000EC97532CA12CB12C94E0E92EF12C4301E7
:101170009924A814B904BCF5F201C190D1902F01B3
:10118000D6016C91C7010E94B856F6016281C70171
:1011900001960E94B856D60114966C91C70102962A
:1011A0000E94B856F6016681C70103960E94B856A0
:1011B000D60117966C91C70104960E94B856F601A5
:1011C0006185C70105960E94B856D6011B966C91A1
:1011D000C70106960E94B856B7E0EB0EF11CEFEF80
:1011E000AE1ABE0AC6CF662D82E090E00E94B856C5
:1011F00064EF76E0C8010E94FB2CC8010E948D3D7F
:10120000C8010E944F2C81E080935E1261E077E07C
:10121000C8010E94FB2CC8010E948D3DC8010E949C
:101220004F2C84E991E10E942D55882309F487C051
:1012300084E991E10E942D55882309F480C063E17F
:1012400077E0C8010E94FB2CC8010E948D3DC801B7
:101250000E944F2CE12CF12C809165129091661226
:10126000E816F9067CF484E991E10E942D55882363
:1012700019F0C7010E94493E0E943D58FFEFEF1A46
:10128000FF0AEACF62E370E080E090E00E941C2F4A
:10129000E12CF12CBB24B3948091651290916612DD
:1012A000E816F906A4F50E943D586701CC0CDD1C38
:1012B000E0916112F0916212EC0DFD1D0190F08140
:1012C000E02D8681811111C084E991E10E942D55A4
:1012D000882319F0C7010E94493E62E370E080E074
:1012E00090E00E941C2F0E943D58809161129091C5
:1012F0006212FC01EC0DFD1D0190F081E02D868154
:10130000811101C0B12C2FEFE21AF20AC5CFB11042
:101310000BC068E277E0C8010E94FB2CC8010E9464
:10132000AB3DC8010E944F2C66E477E0C8010E94E3
:10133000FB2CC8010E948D3DC8010E944F2C67E51F
:1013400077E0C8010E94FB2CC8010E948D3DC801B6
:101350000E944F2CC258DF4F0FB6F894DEBF0FBE6D
:10136000CDBFDF91CF911F910F91FF90EF90DF9054
:10137000CF90BF90AF909F908F907F906F905F9035
:101380004F903F902F9008956DEA75E0C8010E943C
:10139000FB2CC8010E948D3DC8010E944F2C2224C5
:1013A0002394C7010E94DE5EBFEFAB1ABB0A222066
:1013B00009F45FCEBACE37E0C30ED11C212CF1CF99
:1013C0000F931F93CF93DF938C01EB0162E977E0DA
:1013D000CE010E94D726882339F062E977E0CE015A
:1013E0000E949326F8018783DF91CF911F910F917F
:1013F00008950F931F93CF93DF938C01EB01FC01B2
:101400006281CE010E94B856F8016481CE01019636
:101410000E94B856F8016781CE010296DF91CF9104
:101420001F910F910C94B8560F931F93CF93DF9396
:10143000EC018B01CB010E94BA5690E09B838A831A
:10144000C80101960E94BA568C83C80102960E9478
:10145000BA568F83DF91CF911F910F9108951F93FB
:10146000CF93DF93EC01162F6D830E94BF49612F4C
:101470008A819B81DF91CF911F910C94704A0C94CB
:10148000DE5E08951F93CF93DF93EC01162F0E9429
:101490008125E881F9818081181305C03196F9838F
:1014A000E88381E001C080E0DF91CF911F91089532
:1014B000EF92FF920F931F93CF93DF938C01DC0188
:1014C0001496CD91DC911597EA80FB808E819F81E7
:1014D000E80EF91EC80102960E948125D8011296D5
:1014E000ED91FC91139780818732A9F1823299F1B5
:1014F00090ED980F9A3078F091EA980F9C3158F05F
:101500009FEB980F9A3138F08B3229F093ED980FBA
:10151000923008F061C0F801228133812F5F3F4F84
:10152000338322832E813F81A9014F5F5F4F6C81FE
:101530007D816417750740F06A817B81FB01E20FB2
:10154000F31F5F834E838083D8011296ED91FC9147
:1015500013978081CDCF3196D8011396FC93EE93EB
:101560001297D8011296ED91FC91139790819923CF
:1015700099F19F012F5F3F4F13963C932E93129743
:10158000981751F19C35A9F49181AAE9B7E02C9103
:10159000222339F0921303C011969C9102C0129637
:1015A000F6CF9923C9F03296D8011396FC93EE93A7
:1015B00012972E813F81A9014F5F5F4F6C817D8122
:1015C0006417750770F26A817B81FB01E20FF31FDC
:1015D0005F834E839083C5CF8E819F819C012F5F57
:1015E0003F4F4C815D814217530750F04A815B8128
:1015F000FA01E80FF91F3F832E831082C70102C052
:1016000080E090E0DF91CF911F910F91FF90EF90DC
:1016100008950E949126FC01892B09F448C0848119
:1016200095818330910520F4019708F440C00BC0E8
:101630008530910528F0059799F5668177812BC053
:101640008681978108950680F781E02D309779F1A2
:101650008081843779F18B3229F08D3221F43196F3
:1016600091E002C0319690E060E070E04AE0819144
:1016700020ED280F2A3068F4469F9001479F300DD7
:101680001124B90160537109680F711D87FD7A95A6
:10169000EECF992391F088279927861B970B089501
:1016A00066817781808591850E94846606C080E08E
:1016B00090E0089581E090E00895CB0108950E94A4
:1016C0009126009719F004960C94C32580E090E0D1
:1016D00008958F929F92AF92BF92CF92DF92EF9236
:1016E000FF920F931F93CF93DF93CDB7DEB7289769
:1016F0000FB6F894DEBF0FBECDBF6C0165EA77E090
:10170000CE0101960E94FB2CCE0101960E948D3DD8
:10171000CE0101960E944F2C8EE090E00E94465E22
:101720007C01D60117961C9160E0812F0E94E02E6B
:10173000812F90E0FC01E455FD4FE491D701EC933B
:10174000FC01EE50FD4FE491F0E0EE0FFF1FE85C6E
:10175000FC4F85919491F7019283818313861586BE
:1017600014865701FBE0AF0EB11C470183E0880EE1
:10177000911CF50112928E169F06E1F7D60119967B
:10178000FC92EE92189784E190E00E94465E8C01F4
:10179000FC01F782E68214821582108289E081833F
:1017A00081E082838383138A128AD6011D961C935B
:1017B0000E931C97F50112925F018E169F06D1F7CA
:1017C000FF24F394BE016F5F7F4FD80116968D9171
:1017D0009C9117970E94241D882309F45FC067E03D
:1017E000CE0101960E94921598858913EBCFF801DE
:1017F0008081811125C0868197810E946954BE0134
:101800006F5F7F4FD80116968D919C9117970E941C
:10181000DE1540E064EBF801868197810E94AA15ED
:10182000D80116968D919C9117970E94FB15E82E72
:10183000F801868197810E946954EE2009F44AC01C
:10184000D8011196EC90BE016F5F7F4FC8010E94D6
:10185000FC548E1518F4F801818106C0BE016F5F3B
:101860007F4FC8010E94FC54D80111968C931197A8
:1018700014968C9114978F5F14968C93898188327B
:1018800061F130F4803149F1823209F09BCF25C0FB
:101890008B3319F1823409F095CF1FC0C6010E9425
:1018A000BF49F6016581828193810E94704A289622
:1018B0000FB6F894DEBF0FBECDBFDF91CF911F9161
:1018C0000F91FF90EF90DF90CF90BF90AF909F90DF
:1018D0008F900895D801FC92B3CFF80185818F5F76
:1018E000858370CFCF92DF92EF92FF920F931F9379
:1018F000CF93DF93CDB7DEB7C858D1090FB6F894B0
:10190000DEBF0FBECDBF7C018B016A01BC01CE01E1
:1019100083589F4F0E94FB2CB8018E010F5F1F4F11
:10192000C8010E94FB2C960140E050E0B801CE01B6
:101930008D579F4F0E944722C8010E944F2C64EA96
:101940007CE0CE018B599F4F0E94FB2CBE01635857
:101950007F4FCE018B599F4F0E94DA2161EB77E0D8
:101960000E94C221BE016D577F4F0E94DA2164EBB5
:1019700077E00E94C221BC01C8010E94F22CC8017C
:101980000E948D3DC8010E944F2CCE018B599F4F64
:101990000E944F2C80914A121F928F9386EB97E002
:1019A0009F938F931F930F930E940A68B801C701FA
:1019B0000E94EC670F900F900F900F900F900F9078
:1019C000892B99F480915F12882309F497C1BE0195
:1019D0006D577F4FCE018B599F4F0E94F22CCE0145
:1019E0008B599F4F0E94031D2AC080914A121F925B
:1019F0008F9386ED97E09F938F931F930F930E9491
:101A00000A68B801C7010E94EC670F900F900F9011
:101A10000F900F900F90892BC1F480916012882352
:101A200009F46CC1BE016D577F4FCE018B599F4F9A
:101A30000E94F22CCE018B599F4F0E94C424CE01EC
:101A40008B599F4F0E944F2C59C16FEE77E0CE010A
:101A50008B599F4F0E94FB2CBE016B597F4FCE01CB
:101A600083589F4F0E94091DF82ECE018B599F4F1E
:101A70000E944F2CFF2089F0BE016D577F4FCE0191
:101A80008F589F4F0E94F22CCF57DF4F288139810A
:101A9000C158D04043E150E08FC061E078E0CE0112
:101AA0008B599F4F0E94FB2CBE016B597F4FCE017B
:101AB00083589F4F0E94091DF82ECE018B599F4FCE
:101AC0000E944F2CF1103FC062E178E0CE018B59AB
:101AD0009F4F0E94FB2CBE016B597F4FCE01835854
:101AE0009F4F0E94091DF82ECE018B599F4F0E94D7
:101AF0004F2CFF2089F0BE016D577F4FCE018F58CC
:101B00009F4F0E94F22CCF57DF4F28813981C15857
:101B1000D04047E150E050C068E278E0CE018B59F8
:101B20009F4F0E94FB2CBE016B597F4FCE01835803
:101B30009F4F0E94091DF82ECE018B599F4F0E9486
:101B40004F2CFF2089F0BE016D577F4FCE018F587B
:101B50009F4F0E94F22CCF57DF4F28813981C15807
:101B6000D04042E150E028C069E378E0CE018B59D3
:101B70009F4F0E94FB2CBE016B597F4FCE018358B3
:101B80009F4F0E94091DF82ECE018B599F4F0E9436
:101B90004F2CFF2009F443C0BE016D577F4FCE018B
:101BA0008F589F4F0E94F22CCF57DF4F28813981E9
:101BB000C158D04046E150E0BE0163587F4FCE018E
:101BC00089589F4F0E944722BE016F587F4FCE0118
:101BD00085599F4F0E94F22CBE0169587F4FCE015C
:101BE0008B599F4F0E94F22CBE0165597F4FCE0149
:101BF0008B599F4F0E94C34BCE018B599F4F0E9420
:101C00004F2CCE0185599F4F0E944F2CCE018958F1
:101C10009F4F0E944F2CCE018F589F4F13CF6EE4E1
:101C200078E0CE018B599F4F0E94FB2CBE016B596F
:101C30007F4FCE0183589F4F0E94091DF82ECE0181
:101C40008B599F4F0E944F2CFF2009F457C0809161
:101C50004A121F928F938EE498E09F938F931F9365
:101C60000F930E940A6860E678E0CE018B599F4F7F
:101C70000E94FB2CCE018B599F4F0E948D3DCE01BF
:101C80008B599F4F0E944F2CB801CE018B599F4F0B
:101C90000E94FB2CBE016B597F4FCE0183589F4F92
:101CA0000E94091D0F900F900F900F900F900F90B2
:101CB0008823D9F0C957DF4F88819981C758D04010
:101CC000892B99F0CD57DF4FE881F981C358D04077
:101CD0008081882351F0309721F410929A0EEAE91E
:101CE000FEE011E0808180330CF410E0CE018B59CE
:101CF0009F4F0E944F2C11110E944731CE018D57EA
:101D00009F4F0E944F2CCE0183589F4F0E944F2C13
:101D1000C857DF4F0FB6F894DEBF0FBECDBFDF91BF
:101D2000CF911F910F91FF90EF90DF90CF9008958A
:101D30004115510509F0D6CD0895CF92DF92EF926B
:101D4000FF920F931F93CF93DF93CDB7DEB72C97FE
:101D50000FB6F894DEBF0FBECDBF8C016B017A01C8
:101D600064EA77E0CE0107960E94FB2CC114D104EF
:101D700029F0B601CE0107960E941B2261E57AE0A8
:101D8000CE0107960E94EC21F801628173814AE03E
:101D9000CE0101960E94542CBE016F5F7F4FCE0191
:101DA00007960E94273DCE0101960E944F2C61E7C5
:101DB00078E0CE0107960E94EC21F8016481CE0103
:101DC00001960E94D92CBE016F5F7F4FCE0107960E
:101DD0000E94273DCE0101960E944F2C68E778E0D3
:101DE000CE0107960E94EC21F801678170E04AE07D
:101DF000CE0101960E94542CBE016F5F7F4FCE0131
:101E000007960E94273DCE0101960E944F2C6EE757
:101E100078E0CE0107960E94EC21F80186818111BD
:101E200003C06BE678E002C066E678E0CE01079674
:101E30000E94EC216DE878E0CE0107960E94EC212B
:101E4000BE01695F7F4FCE0101960E94F22CBE0158
:101E50006F5F7F4FC7010E942E3DCE0101960E9409
:101E60004F2CCE0107960E944F2C2C960FB6F8945B
:101E7000DEBF0FBECDBFDF91CF911F910F91FF90BD
:101E8000EF90DF90CF900895EF92FF920F931F9302
:101E9000CF93DF93CDB7DEB76E970FB6F894DEBF62
:101EA0000FBECDBFFB01309709F48FC024812133D1
:101EB00009F08BC061E070E0DC0117963C9127814E
:101EC000321711F060E070E08F017C014AE0CE0132
:101ED00007960E94802C61E070E0F7019481D801A0
:101EE00014968C91981711F060E070E04AE0CE01F2
:101EF0000D960E94802C61E070E0F7012281338111
:101F0000D80112968D919C9113972817390711F0DB
:101F100060E070E04AE0CE0143960E94802C60E9C8
:101F200078E0CE0149960E94FB2CBE016D5E7F4F8A
:101F3000CE0149960E94DA216FE07AE00E94C22128
:101F4000BE01635F7F4F0E94DA216FE07AE00E945A
:101F5000C221BE01695F7F4F0E94DA2164EB77E006
:101F60000E94C221BC01CE0101960E94F22CCE013A
:101F700001960E948D3DCE0101960E944F2CCE010C
:101F800049960E944F2CCE0143960E944F2CCE01C1
:101F90000D960E944F2CCE0107960E944F2CF70100
:101FA00022813381D80112968D919C911397281725
:101FB000390759F4948114968C911497981305C09D
:101FC000978117968C91981711F080E001C081E0FD
:101FD0006E960FB6F894DEBF0FBECDBFDF91CF91E6
:101FE0001F910F91FF90EF900895CF93DF931F9271
:101FF000CDB7DEB76983DC01ED91FC910280F381FE
:10200000E02D41E050E0BE016F5F7F4F19950F90CA
:10201000DF91CF910895FC01818D928D0895FC018F
:102020009485FB018485981303C081E0983008F003
:1020300080E00895CF93DF931F92CDB7DEB7698319
:10204000DC01ED91FC910280F381E02D41E050E054
:10205000BE016F5F7F4F19950F90DF91CF9108956B
:10206000FC01848595850895FC01848995890895EE
:1020700027EF33E0FC0131832083FB014089518944
:1020800062897389FC014283538364837583089555
:10209000DC01ED91FC91048CF58DE02D199480E02C
:1020A0000895FC01808D883040F4218D328D232BE2
:1020B00021F00E94674390E008958FEF9FEF08950D
:1020C000CF93DF93FC012485283018F08FEF9FEF2A
:1020D0000EC0EC010190F081E02D0084F185E02D2F
:1020E0001995892B99F38C850E94674390E0DF91C5
:1020F000CF910895CF93DF93FC01218D328D21156F
:10210000310519F48FEF9FEF11C0EC01421753070F
:1021100008F0A901888D0E9424461816190694F724
:10212000298D3A8D281B390B3A8F298FDF91CF915A
:1021300008950F931F93CF93DF931F92CDB7DEB710
:10214000FC01218D328D232B61F08C0141E050E0A8
:10215000BE016F5F7F4F808D0E94244618161906BE
:102160001CF08FEF9FEF08C0F801818D928D0197D1
:10217000928F818F898190E00F90DF91CF911F9195
:102180000F910895CF93DF931F92CDB7DEB741E053
:1021900050E0BE016F5F7F4FFC0184850E942446A2
:1021A000181619061CF4898190E002C08FEF9FEF8A
:1021B0000F90DF91CF910895FC018485883010F451
:1021C0000C94244680E090E00895FC0184858830DA
:1021D00010F40C94924380E090E008950F931F93C5
:1021E000CF93DF93CDB7DEB728970FB6F894DEBF55
:1021F0000FBECDBF8C01D80159964D915C915A9775
:102200004115510551F0ED91FC91048CF58DE02DB7
:1022100060E070E0C8011995EECFF801808D0E9452
:102220009243892B51F148E050E0BE016F5F7F4F30
:10223000D80158968C910E94244618161906FCF471
:10224000D801509684E0FE01319601900D928A9556
:10225000E1F78D8190E0982F88272E81820F911DC4
:10226000F801958B848B8F8190E0982F88272885A3
:10227000820F911D928F818F02C080E090E028969E
:102280000FB6F894DEBF0FBECDBFDF91CF911F9187
:102290000F910895AF92BF92CF92DF92EF92FF928B
:1022A0000F931F93CF93DF93CDB7DEB7AF970FB6E2
:1022B000F894DEBF0FBECDBF8C015B016A01CE0179
:1022C00001960E94192087EFE82E83E0F82EFBA6E6
:1022D000EAA61CA61DA61EA61FA680918A11909193
:1022E0008B11A0918C11B0918D118EA39FA3A8A7E3
:1022F000B9A78B839C83AD83BE8318861F82AE01F2
:10230000465D5F4FB501CE0101960E94BC1D813034
:102310009105B1F4D801ED91FC910488F589E02D87
:10232000FDA2ECA28CA59DA5AEA5BFA58EA39FA3E3
:10233000A8A7B9A7A601BE016C5D7F4FC80119957A
:10234000AF960FB6F894DEBF0FBECDBFDF91CF9131
:102350001F910F91FF90EF90DF90CF90BF90AF90C3
:102360000895CF93DF93FC01808D883028F4EF012E
:102370000E94E34488E0888FDF91CF9108950F9306
:102380001F93CF93DF93EC018B01888D883010F47D
:102390000E94E344B80182E00E943F45888F883064
:1023A00030F41D870C871A8E198E81E001C080E001
:1023B000DF91CF911F910F910895CF93DF93EC019F
:1023C0008C858830C8F40E94F446843181F08823DB
:1023D00071F0883161F08C3161F4E881F981008419
:1023E000F185E02DCE01199521E0892B19F420E02B
:1023F00001C021E0822F01C080E0DF91CF910895DC
:10240000CF92DF92EF92FF92CF93DF93EC018C8516
:10241000883038F50E94C7440E945E416B017C0100
:102420008C850E94F4468823D1F061E070E080E062
:1024300090E00E941C2F0E945E41AB01BC014C1930
:102440005D096E097F098D859E85A0E0B0E0481783
:1024500059076A077B0720F38C850E94E34488E0D4
:102460008C87DF91CF91FF90EF90DF90CF90089510
:10247000CF92DF92EF92FF920F931F93CF93DF9350
:10248000CDB7DEB7AF970FB6F894DEBF0FBECDBFA6
:102490008C016B017A01CE0101960E94192087EF11
:1024A00093E09BA78AA71CA61DA61EA61FA6D8015F
:1024B0001C968C91883060F40E94F446882321F0A9
:1024C000F80184850E94C74488E0D8011C968C934B
:1024D00080918A1190918B11A0918C11B0918D11E6
:1024E0008EA39FA3A8A7B9A78B839C83AD83BE832C
:1024F00018861F82AE01465D5F4FB601CE01019680
:102500000E94BC1D0097C1F0D801ED91FC9106849A
:10251000F785E02D87EF93E09DA38CA38CA59DA567
:10252000AEA5BFA58EA39FA3A8A7B9A7A701BE016B
:102530006C5D7F4FC8011995AF960FB6F894DEBF5A
:102540000FBECDBFDF91CF911F910F91FF90EF9004
:10255000DF90CF900895CF93DF93EC018C85883086
:1025600060F40E94F446873111F08C3131F48C858F
:102570000E94F6458115984088F3DF91CF91089528
:10258000FC018485883010F40C94F64580E090E0DE
:102590000895DA019091080FE92FF0E0FE2FEE2761
:1025A000E60FF71F90E0982F8827A901BD018E0F35
:1025B0009F1F0C94BE4108958CBD9DBD08957F92D0
:1025C0008F929F92AF92BF92CF92DF92EF92FF9243
:1025D0000F931F93CF93DF931F921F92CDB7DEB758
:1025E0007C014B01742EC52EFC01A688B788D08CC7
:1025F000CE0101960E94303C89819A81DDDF8D2DCC
:102600000E942A43072D1C2D8017910708F48C0186
:102610009801A401B5018D2D0E94D843F701868948
:102620009789800F911F978B868BC8010F900F9011
:10263000DF91CF911F910F91FF90EF90DF90CF909E
:10264000BF90AF909F908F907F9008951F93CF93EE
:10265000DF931F921F92CDB7DEB7FC01108DCE0124
:1026600001960E94303C89819A81A6DF60E270E089
:10267000812F0E94B94462E070E0812F0E949C4447
:1026800084FD17C062E070E0812F0E949C4483FFAC
:1026900008C048E162E070E0812F0E947F4480E042
:1026A0000FC0CE0101960E94303C89819A8184DF5F
:1026B000E2CF40E162E070E0812F0E947F4481E040
:1026C00090E00F900F90DF91CF911F910895DF92CE
:1026D000EF92FF920F931F93CF93DF931F921F925E
:1026E000CDB7DEB7FB01DC0157961C921E925697C0
:1026F0002281211109C02381211106C024812111C9
:1027000003C025812223F1F041155105D9F07A014A
:102710008F01FC01D08CCE0101960E94303C898152
:102720009A814ADFA8014E5F5F4F24E030E06CE001
:1027300070E08D2D0E94C743B7018D2D0E94554436
:1027400081E001C080E090E00F900F90DF91CF9189
:102750001F910F91FF90EF90DF9008950F931F93BB
:10276000CF93DF931F921F92CDB7DEB7FC01248574
:102770002830C0F48C01CE0101960E94303C898142
:102780009A811ADF22E030E0AE014F5F5F4F60E1D7
:1027900070E0F8018485FDDE89819A819827892778
:1027A000982702C080E090E00F900F90DF91CF91CA
:1027B0001F910F910895EF92FF920F931F93CF9364
:1027C000DF9300D01F92CDB7DEB78C017B01FB01F8
:1027D0008485883050F087EF93E0F80191838083FF
:1027E00012821382148215821EC0CE0101960E94AD
:1027F000303C89819A81E0DE24E030E0AE014F5F19
:102800005F4F6CE070E0F7018485C3DE87EF93E0F3
:10281000F8019183808389819A81AB81BC81828315
:102820009383A483B583C8010F900F900F900F90EE
:10283000DF91CF911F910F91FF90EF9008950F932B
:102840001F93CF93DF931F921F92CDB7DEB7FC018A
:1028500024852830C0F48C01CE0101960E94303CC2
:1028600089819A81A9DE22E030E0AE014F5F5F4F9F
:1028700064E070E0F80184858CDE89819A81982774
:102880008927982702C080E090E00F900F90DF9199
:10289000CF911F910F9108956F927F928F929F9287
:1028A000AF92BF92CF92DF92EF92FF921F93CF939E
:1028B000DF931F921F92CDB7DEB7FC01148518304D
:1028C00008F05EC06A014130F8E05F0718F0C12CE3
:1028D00028E0D22E7A013B015C01CE0101960E94D4
:1028E000303C89819A8168DE812F0E942A434C0105
:1028F00063E070E0812F0E949C44873111F08C319D
:1029000021F48C149D0448F302C0C12CD12CCE01BB
:1029100001960E94303C89819A814EDE9601A30186
:1029200060E070E0812F0E94D84360E270E0812F68
:102930000E94B94462E070E0812F0E949C4484FDB3
:1029400015C063E070E0812F0E949C44811106C095
:1029500081E090E0F5019383828312C0CE0101965D
:102960000E94303C89819A8127DEE4CF40E162E019
:1029700070E0812F0E947F44CD2851F3C70102C02F
:1029800080E090E00F900F90DF91CF911F91FF902A
:10299000EF90DF90CF90BF90AF909F908F907F90FF
:1029A0006F900895AF92BF92CF92DF92EF92FF9215
:1029B0000F931F93CF93DF931F921F92CDB7DEB774
:1029C0008C016B015A01FC018485883058F40E9407
:1029D000F446882321F0F80184850E94C74488E0EA
:1029E000F8018487F60182819381A481B5810097E3
:1029F000A105B10509F45AC08F3F9F4FAF4FBF4F9C
:102A000009F454C060E070E081E20E943F45F82E76
:102A1000F8018487F7E0F81708F448C0CE01019662
:102A20000E94303C89819A81C7DDA6014E5F5F4FCD
:102A300024E030E06CE070E08F2D0E94C743B501C8
:102A40008F2D0E94554464E070E08F2D0E94B944A0
:102A50000E945E416B017C01F80184850E94F4466E
:102A6000873139F18C3129F1882301F10E945E41CF
:102A7000AB01BC014C195D096E097F09F801858520
:102A80009685A0E0B0E084179507A607B70738F051
:102A900061E070E080E090E00E941C2FDDCFF80143
:102AA00084850E94E34488E0F801848780E090E018
:102AB00002C081E090E00F900F90DF91CF911F91C5
:102AC0000F91FF90EF90DF90CF90BF90AF9008955F
:102AD0000F931F93CF93DF931F921F92CDB7DEB753
:102AE0008C0187EF93E0F801918380831282138237
:102AF00014821582CE0101960E94303C89819A8110
:102B00005BDDB8016E5F7F4F44E050E08FE090E006
:102B10000E94BE41C8010F900F90DF91CF911F918D
:102B20000F910895DC0180E0615098F02D91982F6D
:102B30009227E92FEF70F0E0EE5EFD4F2491929521
:102B40009F70E92FF0E0EE5DFD4FE491822F8E271C
:102B5000EBCF0895DF92EF92FF920F931F93CF93E5
:102B6000DF93EC01D62EE42E08E010E0FF24F3946E
:102B700061E08D2D8F2109F460E0CE010E943A546E
:102B8000FF0C01501109A1F7E11010C0F894E98180
:102B9000FA8191818881809589238183E981FA81F5
:102BA000928188818095892382837894DF91CF9167
:102BB0001F910F91FF90EF90DF900895EF92FF9299
:102BC0000F931F93CF93DF938C017B0140E065E56A
:102BD000C1DFE70188E0E80EF11C699140E0C8011F
:102BE000B9DFCE15DF05C9F7DF91CF911F910F91A6
:102BF000FF90EF900895FC0190810180F281E02D1B
:102C0000F8948181892B81832281892F80952823C3
:102C10002283A7E0B0E01197F1F72181822381831D
:102C2000A3E2B0E01197F1F780817894EFECF0E047
:102C30003197F1F7982381E009F480E00895FF923D
:102C40000F931F93CF93DF936115710549F464EAE5
:102C500078E0DF91CF911F910F91FF900C94654E1A
:102C60008B01EC0162E2CE010E94414EF8016191BC
:102C70008F01662351F0E6E9F7E0F080FF2099F339
:102C80008181681759F03296F8CF62E2CE01DF9168
:102C9000CF911F910F91FF900C94414E6CE5CE01A6
:102CA0000E94414E6F2DDFCF2F923F924F925F9245
:102CB0006F927F928F929F92AF92BF92CF92DF924C
:102CC000EF92FF920F931F93CF93DF93CDB7DEB7B1
:102CD0006C970FB6F894DEBF0FBECDBFDC01ED914F
:102CE000FC9111973197E830F10508F057C21B01AC
:102CF0008C018827EE58FF4F8F4F0C94C766FD015B
:102D000082809380A480B580A5019401C501B4019F
:102D10000E941764882319F069EA78E0B1C020E0C6
:102D200030E0A901C501B4010E94176487FF08C003
:102D30006DE2C1010E94414EB7FAB094B7F8B09469
:102D400020E030E0A901C501B4010E941764882386
:102D500009F49AC0A5019401C501B4010E94B365AC
:102D6000A50194010E94176481118EC060EB78E088
:102D700087C012960D911C9113976BE5C1010E94BB
:102D8000414EF801028113810115110579F0B1015D
:102D9000C801029689DFD8010D911C91011511051A
:102DA00029F06CE2C1010E94414EEECF6DE528C0D2
:102DB000FD01028113816BE7C1010E94414ED801E0
:102DC00012960D911C91139701151105C1F0F80190
:102DD00062817381C10133DF6AE3C1010E94414E08
:102DE000B101C801049660DFD8010D911C91011555
:102DF000110529F06CE2C1010E94414EE5CF6DE75B
:102E0000C1010E94414ECAC1FD0162817381C101AD
:102E100016DFC4C112966D917C91139731C06DE29B
:102E2000C1010E94414EF8016281738184819581C4
:102E30001E8A8E010A5E1F4F2AE0C22ED12CE12C81
:102E4000F12CA70196010E945565605DD8016E9333
:102E50008D01B901CA01611571058105910589F7D7
:102E6000BD010EC0FD0182819381A481B581892BB2
:102E70008A2B8B2B19F46BE678E002C066E678E0CB
:102E8000C1010E94654E8AC120E836E948E15BE451
:102E9000C501B4010E94B06687FF4AC100E210E09C
:102EA000E5E0DE2E188E1F8A20E030E0A901C50182
:102EB000B4010E94B0661816B4F52CEA35EC47E26E
:102EC00057E3C501B4010E941764181664F1BFEFFF
:102ED000DB1649F1ED2DF4E0EF0270011124F7014A
:102EE000EE5EFD4FA5019401608171818281938125
:102EF0000E94B06618169CF4F701EE5BFD4F20812E
:102F0000318142815381C501B4010E947C644B012F
:102F10005C018F89988D801B910B988F8F8B1595F5
:102F20000795DA94D4CFC501B4010E9484666B0181
:102F30007C012B013C0106E080E492E4AFE0B0E0CC
:102F4000898F9A8FAB8FBC8F102F01509AE0491652
:102F5000510461047104C8F0698D7A8D8B8D9C8D4C
:102F60002AE030E040E050E00E945565298F3A8F1A
:102F70004B8F5C8FC301B2012AE030E040E050E0AB
:102F80000E94556529013A01DFCFC701B6010E94B1
:102F90001B649B01AC01C501B4010E94B2654B01E9
:102FA0005C01698D7A8D8B8D9C8D0E941B649B01C9
:102FB000AC01C501B4010E947C642B013C010E945C
:102FC00084664B015C010E941B649B01AC01C30140
:102FD000B2010E94B2659B01AC010E94B3650E94E0
:102FE0008466860E971EA81EB91E898D9A8DAB8D9C
:102FF000BC8D88169906AA06BB06F8F09FEFC91A81
:10300000D90AE90AF90AAF89B88DAB2B99F0BAE071
:10301000CB16D104E104F10468F0EF89F88D319604
:10302000F88FEF8B812C912C5401C12CD12C76017F
:10303000C39403C0812C912C54015AE0452E512C8D
:10304000612C712CC501B401A30192010E94556548
:10305000672B682B692B31F4111624F449015A01AE
:103060001150F0CF1E8ACE0146969A8F898F4AE082
:10307000442E512C612C712CC701B601A301920181
:103080000E945565605DA98DBA8D6E93BA8FA98F28
:1030900069017A01C114D104E104F10469F7BD01A9
:1030A000C1010E94654E112329F1188A012F7E016A
:1030B000B0E1EB0EF11C67013AE0432E512C612C7C
:1030C000712C015068F0C501B401A30192010E9466
:1030D0005565605DF70162937F0149015A01F1CFA7
:1030E000B601611B71098EE2DB018E93BD01C10146
:1030F0000E94654EEF89F88DF7FF0BC06DEA78E00E
:10310000C1010E94654E6F89788D71956195710935
:103110000BC08F89988D892B09F440C065E6C101E9
:103120000E94414E6F89788DC1010E948A4E36C03F
:103130008AE5C82E82E0D82E9AE2E92E92E0F92E96
:1031400000E210E0188E1F8AD6015E914E913E91EA
:103150002E916D01C501B4010E94B06687FD11C0BA
:10316000F7012489358946895789C501B4010E9430
:103170007C644B015C018F89988D800F911F988F23
:103180008F8B1595079594E0E91AF108A2E4CA1609
:10319000A2E0DA06C9F6DD24DA9486CE6C960FB684
:1031A000F894DEBF0FBECDBFDF91CF911F910F917D
:1031B000FF90EF90DF90CF90BF90AF909F908F9057
:1031C0007F906F905F904F903F902F9008950C9458
:1031D000DE5E0895CF92DF92EF92FF920F931F93DE
:1031E000CF93DF93CDB7DEB72E970FB6F894DEBF3F
:1031F0000FBECDBF6C018B0162E977E0C8010E9470
:10320000D726882339F062E977E0C8010E94932627
:10321000F601878369EB78E0C8010E94D7268823EE
:1032200009F44CC069EB78E0C8010E949126009730
:10323000A1F18C010C5F1F4FC8010E94C3250097AC
:1032400011F0BC012CC064EA77E0CE0101967C014C
:103250000E94FB2CFE86ED86CE010D9698878F830B
:103260001A861986BE01695F7F4FC8011DDD8981FD
:103270009A8198878F838B819C819A8789878D819A
:103280009E819C878B871A8219821C821B821E82D8
:103290001D82C7010E944F2C06C064EA77E0CE0170
:1032A00007960E94FB2CBE01695F7F4FC6010896FE
:1032B0000E948B22CE0107960E944F2C2E960FB6AD
:1032C000F894DEBF0FBECDBFDF91CF911F910F915C
:1032D000FF90EF90DF90CF9008954F925F926F92A2
:1032E0007F928F929F92AF92BF92EF92FF920F9335
:1032F0001F93CF93DF93CDB7DEB762970FB6F894E5
:10330000DEBF0FBECDBF7C01DC0153968D909D903A
:10331000AD90BC905697B0ED8B0EB7E09B1EA11CF4
:10332000B11C0E945E4186169706A806B90608F0F1
:1033300096C0F7014389548965897689CE0107963D
:103340000E94BC4761EC78E0CE010D960E94FB2CF8
:10335000BE01695F7F4FCE010D960E94DA21BC014C
:10336000CE0101960E94F22CCE0101960E948D3D65
:10337000CE0101960E944F2CCE010D960E944F2C3B
:10338000CE0107960E944F2CD7015196ED91FC91EA
:10339000529704851585F801868197810E946954AA
:1033A00040E06CECD80116968D919C911797D2DB7A
:1033B000F801408164E486819781CCDBD8011296C4
:1033C0008C9112978823E1F11196EC91E950E3304A
:1033D00040F4F0E0EE0FFF1FE45FFD4F808091802E
:1033E00004C08EEE882E82E0982EF8018381882317
:1033F00009F1808181111EC00E945E412B013C01B8
:10340000092C000CAA08BB08D80116968D919C9136
:103410001797F1DB8130A1F00E945E41DC01CB0106
:1034200088199909AA09BB0984159505A605B70548
:1034300058F306C0B401990C880B990B0E941C2FFD
:10344000D701ED91FC91048CF58DE02DC701199504
:103450000E945E41F701638B748B858B968B62961D
:103460000FB6F894DEBF0FBECDBFDF91CF911F9195
:103470000F91FF90EF90BF90AF909F908F907F90B3
:103480006F905F904F900895CF92DF92EF92FF92EE
:103490000F931F93CF93DF93CDB7DEB72C970FB663
:1034A000F894DEBF0FBECDBF8C017B016A0164EAD8
:1034B00077E0CE0107960E94FB2CE114F10421F085
:1034C000B701CE010796B7D761E57AE0CE0107963E
:1034D00083D7F8016281738140E1CE0101960E9499
:1034E000542CBE016F5F7F4FCE0107960E94273D8F
:1034F000CE0101960E944F2C61E778E0CE0107963D
:103500006BD740E1F8016481CE0101960E94AC2C9A
:10351000BE016F5F7F4FCE0107960E94273DCE010F
:1035200001960E944F2C68E778E0CE01079654D7A9
:103530004AE0F8016781CE0101960E94AC2CBE01E1
:103540006F5F7F4FCE0107960E94273DCE01019607
:103550000E944F2C6CEC78E0CE0107963DD77801A5
:10356000F8E0EF0EF11C005F1F4FF70161917F0142
:1035700040E1CE0101960E94AC2CBE016F5F7F4FEF
:10358000CE0107960E94273DCE0101960E944F2C46
:10359000E016F10651F766ED78E0CE0107961CD7EC
:1035A000BE01695F7F4FCE0101960E94F22CBE01E1
:1035B0006F5F7F4FC6010E942E3DCE0101960E9493
:1035C0004F2CCE0107960E944F2C2C960FB6F894E4
:1035D000DEBF0FBECDBFDF91CF911F910F91FF9046
:1035E000EF90DF90CF900895CF93DF93CDB7DEB704
:1035F00062970FB6F894DEBF0FBECDBFFB016281AC
:103600007381DC0113967C936E9312972481149638
:103610002C9314972481243579F49F01285F3F4F20
:103620001896AF01405F5F4FF90181919F018D9323
:10363000E417F507C9F726C04AE0CE0107960E94B5
:10364000542C6AED78E0CE0101960E94FB2CBE015D
:10365000695F7F4FCE010196ADD6BC01CE010D96BC
:103660000E94F22CCE010D960E94AB3DCE010D962C
:103670000E944F2CCE0101960E944F2CCE0107963E
:103680000E944F2C62960FB6F894DEBF0FBECDBFDE
:10369000DF91CF910895AF92BF92CF92DF92EF92D8
:1036A000FF920F931F93CF93DF93CDB7DEB767974A
:1036B0000FB6F894DEBF0FBECDBF7C0168EF78E097
:1036C000CE0101960E94FB2CCE0101960E948D3DF9
:1036D000CE0101960E944F2C4AE0D70117966C91BB
:1036E000CE010A960E94AC2C6DE079E0CE010196E5
:1036F0000E94FB2CBE01665F7F4FCE0101965AD619
:10370000BC01CE0142960E94F22CCE0142960E944C
:103710008D3DCE0142960E944F2CCE0101960E9413
:103720004F2CCE010A960E944F2CF7012781A091C1
:103730006112B0916212109799F040916512509108
:10374000661280E090E08417950754F4ED91FD91A6
:103750003481313319F43781231721F00196F3CFE7
:10376000E0E0F0E0D7015296FC93EE93519730974A
:1037700059F512966D917C9113974AE0CE010A9605
:103780000E94542C62E179E0CE0101960E94FB2C4C
:10379000BE01665F7F4FCE0101960CD6BC01CE0103
:1037A00042960E94F22CCE0142960E94AB3DCE0181
:1037B00042960E944F2CCE0101960E944F2CCE01C2
:1037C0000A960E944F2CE1C06701B8E0CB0ED11CD5
:1037D000AE014F5F5F4FB601848595850E94A0546E
:1037E000811130C0F701628173814AE0CE010A96EF
:1037F0000E94542C6EE17DE0CE0101960E94FB2CCC
:10380000BE01665F7F4FCE010196D4D56CE279E0B0
:10381000B9D5BC01CE0142960E94F22CCE0142964F
:103820000E94AB3DCE0142960E944F2CCE010196E4
:103830000E944F2CCE010A960E944F2CD701509621
:103840001C92A3C081E0F701808B0188F289E02DF2
:1038500004851585B601C8010E94FC54893009F41D
:1038600094C0AE014F5F5F4FB601C8010E94A054E3
:10387000882309F48AC0D70118968C91803109F405
:1038800084C08FE18D83F801868197810E946954FD
:10389000B601D80116968D919C9117978FD940E06B
:1038A0006EE4F8018681978155D940E06B81D8019B
:1038B00016968D919C9117974DD940E06C81F80137
:1038C0008681978147D9D70118968C91803131F044
:1038D00040E06D81F801868197813CD9D801169628
:1038E0008D919C9117970E946954B601F8018681C9
:1038F000978164D9D8014C9168E416968D919C917A
:10390000179728D964E170E080E090E00E941C2FB6
:10391000F8018081882331F06AE070E080E090E077
:103920000E941C2FD80116968D919C9117970E948A
:103930006954F80181818A3018F489E0818325C0B7
:1039400089E08183C12CD12CF801848190E0C816D4
:10395000D906DCF4AC2C0680F781E02D13861586A1
:103960001486DF011B9633961E92AE17BF07E1F750
:10397000B12CBE01665F7F4FD80116968D919C9148
:10398000179762D0811117C01FC0F701138A148ADC
:10399000158A168A67960FB6F894DEBF0FBECDBFA4
:1039A000DF91CF911F910F91FF90EF90DF90CF901B
:1039B000BF90AF900895AB1022C067E0CE010A9689
:1039C000B1D8998989131BC0D8011196BC90BE014A
:1039D000665F7F4FC8010E94FC548B1518F4F801F4
:1039E000818106C0BE01665F7F4FC8010E94FC5402
:1039F000D80111968C93BFEFCB1ADB0AA5CFB394F5
:103A0000AB1410F3B6CF20915F1221110C94754CBA
:103A10000895FB0144815581FC01248135812417DF
:103A2000350778F080819181009759F0FB01608122
:103A300071816115710529F00E94FC6721E0892BD5
:103A400009F020E0822F0895BF92CF92DF92EF928B
:103A5000FF920F931F93CF93DF93EC016B018D8542
:103A6000811105C0CE010E946954811105C01B86D9
:103A70001D861C8680E05DC040E060EFCE016AD804
:103A800001E0E12CB12C11E0CE01B5D8F82ECE0129
:103A9000B2D891E0F91203C08130B1F434C02E2DB8
:103AA00030E0F8121BC08B85181738F4FE01E20FC6
:103AB000F31F8381802341F402C0811729F0F12C88
:103AC000193058F41C8709C0FE01EE0DF11D8381E9
:103AD000802B8383FF24F39409C0B12EFE01E20FF3
:103AE000F31F9381802F8095892383836F2DCE01CF
:103AF0000E943A541F5F000F11F4E39401E087E045
:103B00008E1508F0C1CF113408F4B1CFBB86B110C7
:103B100002C081E08D878B81882309F4A8CFDE0164
:103B20001396F6012B968D918193CA17DB07D9F76F
:103B300081E0DF91CF911F910F91FF90EF90DF9087
:103B4000CF90BF9008951F93CF93DF93EC01162F72
:103B50006885111102C081E068278F810E94B22E12
:103B60001D83CE010E94BF49612F8A819B81DF9115
:103B7000CF911F910C94704A4F925F926F927F92F7
:103B80008F929F92AF92BF92CF92DF92EF92FF926D
:103B90000F931F93CF93DF93CDB7DEB763970FB625
:103BA000F894DEBF0FBECDBF7C015B013A01FB0183
:103BB00020E080E090E06AE03191332309F140EDAC
:103BC000430F4A3080F4689FA001699F500D112473
:103BD000CA01C097830F911D37FD9A958F3F9105BC
:103BE00059F350F313C03E3289F4233079F0D301F6
:103BF000A20FB11D12968C932F5F80E090E0DCCF76
:103C0000233021F4F301858381E021C0F701428153
:103C10005381648175818091901190919111A0914F
:103C20009211B0919311481759076A077B0709F45D
:103C300091C10E945E418701085F1F4F6F70772717
:103C40007C5FC8010E94BF11813019F080E090E0D4
:103C5000D9C187EF93E09A838983F70182819381A9
:103C6000A481B5818B839C83AD83BE8345E350E003
:103C7000BE016F5F7F4FC8010E946713892B19F443
:103C8000C12CD12C62C10E945E41F701778366830B
:103C900042E050E0B7016A5F7F4FC8010E94DF1227
:103CA00081E090E09A83898342E050E0BE016F5F3B
:103CB0007F4FC8010E94DF1280E091E09A838983E0
:103CC00042E050E0BE016F5F7F4FC8010E94DF12EB
:103CD0001A82198242E050E0BE016F5F7F4FC80137
:103CE0000E94DF1242E050E0BE016F5F7F4FC801CB
:103CF0000E94DF1242E050E0BE016F5F7F4FC801BB
:103D00000E94DF124501F5018081882301F16401E1
:103D10005601F60181912F01882321F08E3211F096
:103D20006201F6CFC818D9081C141D0474F4CD869E
:103D300041E050E0BE01635F7F4FC8010E94DF1287
:103D4000A601B401C8010E94DF124201DCCF1D862A
:103D500041E050E0BE01635F7F4FC8010E94DF1267
:103D6000C12CDD24D394DA82C98242E050E0BE0146
:103D70006F5F7F4FC8010E94DF12DA82C98242E082
:103D800050E0BE016F5F7F4FC8010E94DF12C80183
:103D90000E942613892B09F473CFE3E0AE2EB12CD9
:103DA000230122E0420E511C0E945E413B014C0166
:103DB000C8010E94EE1018161906A4F00E945E4178
:103DC000DC01CB0186199709A809B9098938934103
:103DD000A105B105D0F462E370E080E090E00E94BC
:103DE0001C2FE6CFF7014281538164817581808D5C
:103DF000918DA28DB38D481759076A077B0749F447
:103E0000848D958DC59729F409C0CC24CA94DC2CE7
:103E100093C05EEFC52EDD24DA948EC0F70181A138
:103E200092A10C970CF4E9C04CE050E0BE016F5F2A
:103E30007F4FC8010E947A108B819C819827892727
:103E400098279A8B898BF7014681578129813A817E
:103E50004217530709F0C2C097FFC0C08F7092701D
:103E6000892B09F0C0C06F8078847624672476247B
:103E70006114710409F4BCC0C12CD12C8D819E81C8
:103E8000982789279827C816D90608F466C0812C78
:103E9000912C41E050E0BE016D5E7F4FC8010E9451
:103EA0007A104B89842F807C09F076C0442331F04E
:103EB00050E060E070E0C8010E947A108B898111A7
:103EC000E8CF42E050E0BE01615F7F4FC8010E9431
:103ED0007A1042E050E0BE01635F7F4FC8010E944C
:103EE0007A1044E050E060E070E0C8010E947A106F
:103EF00042E050E0BE016F5E7F4FC8010E947A1021
:103F00008F85988949895A898115914009F04DC05A
:103F1000CD84DE84DC24CD24DC2481E0C816D104E9
:103F200009F043C04115544009F053C044E050E04B
:103F3000B201C8010E947A1021E0A21AB10829F04A
:103F4000FFEFCF16DF0609F42FCFC8010E94B11191
:103F5000C60158C08EEF9FEF55C041E050E0BE0152
:103F6000635F7F4FC8010E947A104D85442331F072
:103F700050E060E070E0C8010E947A108D858111E8
:103F8000ECCF44E050E060E070E0C8010E947A109D
:103F9000FFEFCF1ADF0A72CF41E050E060E070E03F
:103FA000C8010E947A101B8A89CF542745275427BD
:103FB00060E070E0C8010E947A10FFEF8F1A9F0A3C
:103FC0006814790409F065CF96EFC92EDD24DA94E0
:103FD000B3CF77EFC72EDD24DA94AECF4CEFC42EEB
:103FE000DD24DA94A9CF3BEFC32EDD24DA94A4CFED
:103FF0002AEFC22EDD24DA949FCF8DEFC82EDD2468
:10400000DA949ACF63960FB6F894DEBF0FBECDBF99
:10401000DF91CF911F910F91FF90EF90DF90CF90A4
:10402000BF90AF909F908F907F906F905F904F90D8
:104030000895FC0187EF93E09183808312821382BD
:10404000148215821386128648EE53E060E070E019
:10405000448755876687778724E632E03187208753
:10406000978B868B108E118E128E138E88E080A314
:1040700008958F929F92AF92BF92CF92DF92EF926C
:10408000FF920F931F93CF93DF93CDB7DEB7609767
:104090000FB6F894DEBF0FBECDBF7C019091070F25
:1040A000992309F4B8C0933311F008E001C004E08B
:1040B0005B01CE0101960E94303C89819A810E9469
:1040C000DC129E012F5F3F4F6901490110E063E060
:1040D00070E0812F0E949C44F40181934F0188235A
:1040E000C9F01F5F0113F3CF10E0F60181916F015A
:1040F0008D3159F0883149F08A51823030F01F5F9C
:104100000113F3CF0E94DB1286C060E170E0812FC3
:104110000E94B944C12ED12C83EE93E00197F1F7B0
:1041200042E860E070E0812F0E947F444FEF62E040
:1041300070E0812F0E947F44A114B10411F0B501F9
:1041400013C0809100029091010201968115F0EC5C
:104150009F0710F480E090EC90930102809300029E
:104160006091000270910102812F0E946A4486E0F2
:10417000EAE5F2E0DE01199601900D928A95E1F7E9
:10418000F70183818F778C8784818D8785818E87E6
:10419000A7014E5F5F4F24E030E06CE070E0812FBC
:1041A0000E94C743B501812F0E94554426E030E0AC
:1041B000AE01475F5F4F66E070E0812F0E94C7430A
:1041C00061E070E0812F0E94B94427E02C9DC0017E
:1041D0002D9D900D11249C012556314F7901F90137
:1041E0001182108222E030E0AE01415F5F4F68E251
:1041F00070E0812F0E94C9128F859889982789279E
:104200009827F701938382831682158214820E9475
:10421000DB12812F01C088E060960FB6F894DEBFF4
:104220000FBECDBFDF91CF911F910F91FF90EF9007
:10423000DF90CF90BF90AF909F908F900895FC013A
:10424000A089B1898C91A689B78982FD0FC09C9104
:10425000818D8F5F8F73228D821749F0218DDF0151
:10426000A20FB11D5D969C93818F08958C91089546
:104270008F929F92AF92BF92EF92FF920F931F93F4
:10428000CF93DF93CDB7DEB7A1970FB6F894DEBF1B
:104290000FBECDBF7C01FA01CB0119A2223008F478
:1042A0002AE08E010F5D1F4F822E912CA12CB12C84
:1042B000BF01A50194010E945565F901CA01015091
:1042C00011096A3014F4605D01C0695CD8016C9317
:1042D000232B242B252B61F70115110591F0F801F3
:1042E00001900020E9F73197AF01401B510BD70136
:1042F000ED91FC910280F381E02DB801C701199581
:1043000002C080E090E0A1960FB6F894DEBF0FBE29
:10431000CDBFDF91CF911F910F91FF90EF90BF9094
:10432000AF909F908F900895EF92FF920F931F93FD
:10433000CF93DF936115710511F480E01CC0411526
:104340005105C1F07B01EC018C819D818A01080F30
:10435000191FB801CE010E94162C882371F3288101
:1043600039818C819D81B701820F931F0E94F5676F
:104370001D830C8381E0DF91CF911F910F91FF90FE
:10438000EF900895CF93DF93EC016115710559F01B
:10439000FB0101900020E9F73197AF01461B570B55
:1043A000C3DF811103C0CE010E943D2CCE01DF91FD
:1043B000CF910895CF93DF93EC01FB0144815581A8
:1043C00060817181B1DF811103C0CE010E943D2C5B
:1043D000CE01DF91CF9108956115710549F0FB0180
:1043E00001900020E9F73197AF01461B570B9CCF96
:1043F00080E00895EF92FF920F931F93CF93DF9386
:10440000EC017B018A01BA010E94162C811104C0C3
:10441000CE010E943D2C07C01D830C83B70188810B
:1044200099810E94F567CE01DF91CF911F910F9185
:10443000FF90EF900895CF93DF93EC016115710524
:1044400051F0FB0101900020E9F73197AF01461BC5
:10445000570BD0DF02C00E943D2CCE01DF91CF91DF
:104460000895CF93DF93EC01FB018617970759F06E
:10447000608171816115710521F044815581BADF38
:1044800002C00E943D2CCE01DF91CF910895BF92D2
:10449000CF92DF92EF92FF920F931F93CF93DF9310
:1044A0007C016B018A01E9012417350720F4812F73
:1044B0008901C42FD82F64EA77E0C7010E94FB2C42
:1044C000D60114968D919C91159708171907C0F481
:1044D0008C179D0708F4EC01D601ED91FC91119722
:1044E000EC0FFD1FB08010826D917C91600F711FE9
:1044F000C701A1DFD601ED91FC91EC0FFD1FB08249
:10450000C701DF91CF911F910F91FF90EF90DF9046
:10451000CF90BF900895AF92BF92DF92EF92FF923B
:104520000F931F93CF93DF9300D000D0CDB7DEB7AA
:104530005B017C0100E010E00E5F1F4FA8014250BC
:1045400051099801B501CE010196A1DF40E150E08B
:1045500060E070E089819A810E940360D62ECE01CE
:1045600001960E944F2CF701D1927F010031110575
:1045700019F726960FB6F894DEBF0FBECDBFDF91B8
:10458000CF911F910F91FF90EF90DF90BF90AF9070
:104590000895EF92FF920F931F93CF93DF93CDB7C0
:1045A000DEB7C55FD1090FB6F894DEBF0FBECDBF31
:1045B0009E01275F3F4F3C832B8328EC30E03E83F6
:1045C0002D8318861F8223E034E03A832983FC017F
:1045D00080819181009711F484EA97E09E012F5F1A
:1045E0003F4FCF52DF4F39832883C15DD040CD523A
:1045F000DF4F99838883C35DD040CB52DF4F39832F
:104600002883C55DD0408AE0C952DF4F8883C75DEB
:10461000D040C252DF4F19821882CE5DD040BE0119
:1046200062527F4FCE018F529F4F0E943F4886E0DB
:10463000FE01E252FF4FDE01A852BF4F01900D92E2
:104640008A95E1F786E0FE01E852FF4FDE01A252B3
:10465000BF4F01900D928A95E1F786E0FE01E2528C
:10466000FF4FDE01AF52BF4F01900D928A95E1F7E7
:10467000CF52DF4F88819981C15DD040079739F4CF
:10468000CD52DF4F08811981C35DD04002C09FD257
:104690008C0162E479E0C8018AD3882309F448C018
:1046A00062E479E0C8013DD3009719F00496C3D2C3
:1046B00002C080E090E04AE0BC01CE0186519F4FED
:1046C0000E94802C69E479E0CE018C519F4F0E94BA
:1046D000FB2CBE0166517F4FCE018C519F4F6ADE8D
:1046E000BC01CE0180519F4F0E94F22CCE0180511F
:1046F0009F4F0E948D3DCE0180519F4F0E944F2CB5
:10470000CE018C519F4F0E944F2CCE0186519F4F5E
:104710000E944F2C62E479E0C80105D31092741214
:10472000109273120E94673281E08093E30E1EC1E3
:104730008091E30E882309F419C161E579E0C8018D
:1047400036D3882309F412C18DE090E00E94465EC2
:104750002DE0FC0111922A95E9F720917312309116
:104760007412220F331FE0916312F0916412E20F72
:10477000F31F918380838091631290916412FC01F6
:10478000E20FF31F80819181892B09F4CCC061E590
:1047900079E0C8010CD38823B1F0E0917312F09155
:1047A0007412EE0FFF1F8091631290916412E80F54
:1047B000F91FE080F18061E579E0C8010E94090BF2
:1047C000F7019183808364E579E0C801F0D2882302
:1047D000B1F0E0917312F0917412EE0FFF1F80910F
:1047E000631290916412E80FF91FE080F18064E594
:1047F00079E0C8010E94090BF701938382836DE57C
:1048000079E0C801D4D28823D9F0E0917312F091F5
:104810007412EE0FFF1F8091631290916412E80FE3
:10482000F91FE080F1806DE579E0C8010E945F0B1F
:10483000FC018081082E000C990BF701958384837D
:1048400068E679E0C801B3D28823A1F0E091731241
:10485000F0917412EE0FFF1F809163129091641219
:10486000E80FF91FE080F18068E679E0C8015BD2CB
:10487000F70186836EE679E0C80199D28823B1F00A
:10488000E0917312F0917412EE0FFF1F809163128A
:1048900090916412E80FF91FE080F1806EE679E0F4
:1048A000C8010E94090BF7019087878367E779E0C9
:1048B000C8017DD28823B1F0E0917312F091741297
:1048C000EE0FFF1F8091631290916412E80FF91FA1
:1048D000E080F18067E779E0C80125D290E0F70138
:1048E0009287818764E879E0C80161D28823D9F092
:1048F000E0917312F0917412EE0FFF1F809163121A
:1049000090916412E80FF91FE080F18064E879E08B
:10491000C8010E945F0BFC018081082E000C990BDE
:10492000F701948783878091731290917412019696
:1049300090937412809373122091671230916812D1
:104940008217930799F46FE879E0CE018C519F4F5D
:104950000E94FB2CCE018C519F4F0E948D3DCE01B9
:104960008C519F4F9CD781E080935E12CB50DF4FDC
:104970000FB6F894DEBF0FBECDBFDF91CF911F9170
:104980000F91FF90EF90089520916012211101CEB8
:1049900008958BE0089583E0089585E008950895D3
:1049A00080E008950895089580E00895FC0126812F
:1049B0003781620F731F848195818617970738F0BE
:1049C0008281938177836683820F931F089580E0AD
:1049D00090E00895FC0114861586168617861186C8
:1049E00015820895FC01768765870895DC01ED91B5
:1049F000FC91068CF78DE02D199591E0892708959B
:104A0000862F089581E08627089521E0FC018485A2
:104A1000883008F020E0822F089580E090E008952B
:104A20000C94DE5E0F931F93CF93DF938C01EB0109
:104A3000FC016281CE010E94B856F8016481CE016A
:104A400001960E94B856F8016781CE0102960E9435
:104A5000B856F8016085CE0103960E94B856F80159
:104A60006581CE010496DF91CF911F910F910C9437
:104A7000B8560F931F93CF93DF93EC018B01CB01BB
:104A80000E94BA5690E09B838A83C80101960E94D7
:104A9000BA568C83C80102960E94BA568F83C80109
:104AA00003960E94BA5691E0811101C090E0988768
:104AB000C80104960E94BA568D83DF91CF911F9151
:104AC0000F910895CF93DF93EC018A819B810E941F
:104AD000704A1D82CE01DF91CF910C94BF49CF93D4
:104AE000DF93EC0160E08F810E94E02E688581E019
:104AF00068278F810E94B22ECE01DF91CF910C9456
:104B0000BF49FC01A081B1818C918D3051F024F41A
:104B100089508230B8F505C0803219F08F3219F013
:104B2000089511962CC011968C9111978A3219F024
:104B30008F32D1F008951196B183A083A081B18105
:104B4000CD0101969183808311968C9111978823D2
:104B5000C9F08A3299F712968C9112978F3271F7B9
:104B600013960DC08A3071F2A081B181CD010196FA
:104B70009183808311968C918111F4CF03C0B1830E
:104B8000A083C0CF08950F931F93CF93DF938C0121
:104B9000FC01C081D181C130D10559F4628173819A
:104BA0006115710531F084EA98E00E94EC67892B69
:104BB00039F02197229720F4F8018281938102C075
:104BC00080E090E0DF91CF911F910F910895809147
:104BD000F40E81110BC01092F10E1092F00E109293
:104BE000F30E1092F20E81E08093F40E80EF9EE0BF
:104BF00008958091E80E81110BC01092E50E10927D
:104C0000E40E1092E70E1092E60E81E08093E80E1B
:104C100084EE9EE00895DB01109749F0ED91FC9140
:104C200011970190F081E02DBC01CD01199480E035
:104C300090E008950895FC01808191818330910571
:104C400020F4019708F440C00BC08530910528F08E
:104C5000059799F5628173812BC0828193810895B4
:104C60000280F381E02D309779F18081843779F1EA
:104C70008B3229F08D3221F4319691E002C03196C9
:104C800090E060E070E04AE0819120ED280F2A304A
:104C900068F4469F9001479F300D1124682F880FBC
:104CA000770B60537109620F731FEECF992391F058
:104CB00088279927861B970B0895628173818481C9
:104CC00095810E947F6606C080E090E0089581E0B3
:104CD00090E00895CB0108950F931F93CF93DF9336
:104CE0008B01FC01C281D3812097A9F06A817B816D
:104CF0000115110519F06115710521F4601771078F
:104D000031F409C0C8010E94EC67892B21F0099099
:104D1000D881C02DE9CFCE01DF91CF911F910F91A6
:104D20000895DACF0895FDDFFC01892BD9F1848144
:104D300095818330910518F40197A0F109C0853061
:104D4000910520F0059739F5668123C066812DC055
:104D50000680F781E02D309729F18081843721F199
:104D60008B3229F08D3221F4319691E002C03196D8
:104D700090E060E0219180ED820F8A3040F4660F70
:104D8000862F880F880F680F6053620FF3CF992327
:104D900061F061950AC066817781808591850E9466
:104DA000846603C060E001C061E0862F0895B9DF2A
:104DB00021E0892B09F420E0822F08950F931F939F
:104DC000CF93DF938C01EB0162E977E0CE01EFDF57
:104DD000882331F062E977E0CE01A5DFF80187830F
:104DE00063EB79E0CE01E3DF882371F063EB79E0D8
:104DF000CE0197DF009729F004961DDF21E0892B73
:104E000009F420E0F801208768EB79E0CE01CFDFDC
:104E1000882331F068EB79E0CE0185DFF8018583E6
:104E2000DF91CF911F910F9108950F931F93CF930F
:104E3000DF93EC018B01CB010E94BA5690E099837D
:104E40008883C80101960E94BA5690E09B838A83AA
:104E5000C80102960E94BA5690E09D838C83C801D7
:104E600003960E94BA568E83C80104960E94BA56D1
:104E700090E098878F83C80105960E94BA5690E00B
:104E80009A878987C80106960E94BA5690E09C8747
:104E90008B87DF91CF911F910F910895AF92BF92B1
:104EA000CF92DF92EF92FF920F931F93CF93DF93F6
:104EB000CDB7DEB768970FB6F894DEBF0FBECDBF93
:104EC0008C010E945E416B017C01F801278130E07A
:104ED000F901EE5CFD4F8491F901E455FD4FB4906A
:104EE000F901EE50FD4FA490AA2071F08111E4D693
:104EF000EA2DF0E0EE0FFF1FE85CFC4FA591B491A6
:104F0000EC91BE2221E009F420E0F801308584858F
:104F10009585A685B7853213DCC00097A105B1053C
:104F200051F5C486D586E686F786628173814AE0AC
:104F3000CE010796B9D46FEB79E0CE0101965BD52F
:104F4000BE01695F7F4FCE01019634DA6FEC79E0E4
:104F500019DABC01CE010D9645D5CE010D960E9401
:104F60008D3DCE010D969BD4CE01019698D4CE01F5
:104F7000079695D426C1AC01BD014053584F6F4FE1
:104F80007F4FC416D506E606F70698F1F80182852C
:104F900081112AC0628173814AE0CE01079684D4D0
:104FA00061ED79E0CE01019626D5BE01695F7F4FA4
:104FB000CE010196FFD96FEC79E0E4D9BC01CE01B6
:104FC0000D9610D5CE010D960E948D3DCE010D9609
:104FD00066D4CE01019663D4CE01079660D464E016
:104FE00070E0C8010E94B54B81E0F801828711860C
:104FF000E8C0AC01BD0144545D4F6F4F7F4FC416F4
:10500000D506E606F70670F1F8018185811125C005
:10501000628173814AE0CE01079646D467ED79E05C
:10502000CE010196E8D4BE01695F7F4FCE010196A3
:10503000C1D96FEC79E0A6D9BC01CE010D96D2D4CE
:10504000CE010D960E948D3DCE010D9628D4CE0145
:10505000019625D4CE01079622D4F801138681E06B
:105060008187AFC088589F4FAF4FBF4FC816D90632
:10507000EA06FB0608F4A5C0F8018385811125C066
:10508000628173814AE0CE0107960ED466EE79E024
:10509000CE010196B0D4BE01695F7F4FCE0101966B
:1050A00089D96FEC79E06ED9BC01CE010D969AD406
:1050B000CE010D960E948D3DCE010D96F0D3CE010E
:1050C0000196EDD3CE010796EAD381E0F8018387FC
:1050D00078C00097A105B10509F473C0B701A60116
:1050E000481B590B6A0B7B0BCE010D960E94BC47E7
:1050F000F801628173814AE0CE010796D5D369EF4A
:1051000079E0CE01019677D4BE01695F7F4FCE0171
:10511000019650D962E07AE035D9BE01635F7F4FD6
:1051200049D9BC01CE0143965DD4CE0143960E947D
:105130008D3DCE014396B3D3CE010196B0D3CE01BF
:105140000796ADD3CE010D96AAD3F8018485958537
:10515000A685B7858C599F4FAF4FBF4FC816D9064C
:10516000EA06FB0668F461E17AE0CE01019643D4D9
:10517000CE0101960E948D3DCE01019690D31CC0B8
:10518000F801828581110BC08185882319F062E0C6
:1051900070E002C061E070E0C8010E94B54BF80108
:1051A000148615861686178611861386128660E089
:1051B00070E0C8010E94B54BF8011486158616866A
:1051C000178668960FB6F894DEBF0FBECDBFDF918D
:1051D000CF911F910F91FF90EF90DF90CF90BF90F4
:1051E000AF900895CF92DF92EF92FF920F931F93AB
:1051F000CF93DF93CDB7DEB72C970FB6F894DEBF11
:105200000FBECDBF8C016B017A0164EA77E0CE015D
:105210000796F1D3C114D10421F0B601CE0107964F
:105220000AD961E57AE0CE010796D6D8F801628105
:1052300073814AE0CE01019637D3BE016F5F7F4F85
:10524000CE0107960E94273DCE01019628D361E743
:1052500078E0CE010796C0D8F8016481CE010196AE
:10526000A8D3BE016F5F7F4FCE0107960E94273DF6
:10527000CE01019614D368E778E0CE010796ACD84A
:10528000F801678170E04AE0CE0101960DD3BE01BE
:105290006F5F7F4FCE0107960E94273DCE0101969A
:1052A000FED264E27AE0CE01079696D8F8016085D6
:1052B00070E04AE0CE010196F7D2BE016F5F7F4FEA
:1052C000CE0107960E94273DCE010196E8D26EE7F7
:1052D00078E0CE01079680D8F8018681811103C05D
:1052E0006BE678E002C066E678E0CE01079674D8F7
:1052F0006DE878E0CE0107966FD8BE01695F7F4FF9
:10530000CE0101966FD3BE016F5F7F4FC7010E9430
:105310002E3DCE010196C3D2CE010796C0D22C9667
:105320000FB6F894DEBF0FBECDBFDF91CF911F91B6
:105330000F91FF90EF90DF90CF900895EF92FF9242
:105340000F931F93CF93DF93CDB7DEB7AA970FB616
:10535000F894DEBF0FBECDBFFB01309709F4C7C084
:105360002481223409F0C3C061E070E0DC011596AD
:105370003C912581321711F060E070E08F017C01D3
:105380004AE0CE010796BCD261E070E0F70190855B
:10539000D80118968C91981711F060E070E04AE0FF
:1053A000CE010D96ADD261E070E0F7019781D80192
:1053B00017968C91981711F060E070E04AE0CE01EA
:1053C00043969ED261E070E0F7019481D801149673
:1053D0008C91981711F060E070E04AE0CE01499698
:1053E0008FD261E070E0F70122813381D8011296FB
:1053F0008D919C9113972817390711F060E070E0A8
:105400004AE0CE014F967CD26BE27AE0CE018596DF
:10541000F2D2BE01615E7F4FCE0185960E94DA21F5
:105420006FE07AE00E94C221BE01675E7F4F0E945A
:10543000DA216FE07AE00E94C221BE016D5E7F4FEB
:105440000E94DA216FE07AE00E94C221BE01635F10
:105450007F4F0E94DA216FE07AE00E94C221BE01F4
:10546000695F7F4F0E94DA2164EB77E00E94C221DE
:10547000BC01CE010196B6D2CE0101960E948D3DAF
:10548000CE0101960CD2CE01859609D2CE014F965F
:1054900006D2CE01499603D2CE01439600D2CE0168
:1054A0000D96FDD1CE010796FAD1F7012281338105
:1054B000D80112968D919C91139728173907B9F44A
:1054C000948114968C911497981311C09781179614
:1054D0008C91179798130BC0908518968C911897FC
:1054E000981305C0958115968C91981711F080E05E
:1054F00001C081E0AA960FB6F894DEBF0FBECDBF03
:10550000DF91CF911F910F91FF90EF900895CF926F
:10551000DF92EF92FF920F931F93CF93DF936C0173
:105520007A018B01C0E0D0E0CE15DF0581F0D80113
:105530006D918D01D601ED91FC910190F081E02DEE
:10554000C6011995892B11F02196EECF7E01C70176
:10555000DF91CF911F910F91FF90EF90DF90CF904F
:105560000895FC01538D448D252F30E0842F90E069
:10557000821B930B541710F0CF960895019708954E
:10558000FC01918D828D981761F0828DDF01A80F4B
:10559000B11D5D968C91928D9F5F9F73928F90E06D
:1055A00008958FEF9FEF0895FC01918D828D9817DC
:1055B00031F0828DE80FF11D858D90E008958FEF19
:1055C0009FEF0895FC01918D228D892F90E0805CE2
:1055D0009F4F821B91098F739927089584E19FE063
:1055E000F1DF21E0892B09F420E0822F089581EB7F
:1055F0009FE0E8DF21E0892B09F420E0822F089565
:105600008EE490E1DFDF21E0892B09F420E0822F96
:1056100008958BEE90E1D6DF21E0892B09F420E09C
:10562000822F0895FC01848DDF01A80FB11DA35ABC
:10563000BF4F2C91848D90E001968F739927848FB2
:10564000A689B7892C93A089B1898C9183708064D5
:105650008C93938D848D981306C00288F389E02D76
:1056600080818F7D80830895EF92FF920F931F9327
:10567000CF93DF93EC0181E0888F9B8D8C8D981305
:1056800005C0E889F989808185FD25C0F62E0B8D3E
:1056900010E00F5F1F4F0F731127E02E8C8DE81263
:1056A0000BC00FB607FCFACFE889F989808185FF26
:1056B000F5CFCE01B7DFF2CF8B8DFE01E80FF11DE4
:1056C000E35AFF4FF0829FB7F8940B8FEA89FB896A
:1056D000808180620AC09FB7F894EE89FF89608359
:1056E000E889F98980818370806480839FBF81E02D
:1056F00090E0DF91CF911F910F91FF90EF9008956F
:10570000CF93DF93EC01888D8823C1F0EA89FB8970
:10571000808185FD05C0A889B9898C9186FD0EC060
:105720000FB607FCF5CF808185FFF2CFA889B98934
:105730008C9185FFEDCFCE0175DFE8CFDF91CF9162
:10574000089580E090E0892B19F063DF811116C085
:1057500080E090E0892B19F053DF811112C080E0C6
:1057600090E0892B19F043DF81110EC080E090E0BA
:10577000892B79F033DF81110AC008950E9400005F
:10578000E7CF0E940000EBCF0E940000EFCF0C9407
:10579000000008958F929F92AF92BF92CF92DF92B6
:1057A000EF92FF920F931F93CF93DF937C01EB0156
:1057B0006C0182E0C80ED11C4701E5E08E0E911C01
:1057C00000E010E0F60141916F0150E060E070E010
:1057D0002AE0CE010E9438215C01E881F981019024
:1057E000F081E02D6EE2CE0119958A0D9B1D080F08
:1057F000191F8C149D0431F7F701458150E060E0DA
:1058000070E02AE0CE010E943821800F911FDF91C5
:10581000CF911F910F91FF90EF90DF90CF90BF90AD
:10582000AF909F908F9008950E94C7670F931F932A
:10583000CF93DF93EC0188819981009729F02A8129
:105840003B812617370788F48B016F5F7F4F0E94DB
:10585000E366009761F0998388831B830A832C8118
:105860003D81232B11F4FC01108281E001C080E016
:10587000DF91CF911F910F910895CF93DF93EC01AA
:1058800088819981009711F00E94DE5E198218824A
:105890001D821C821B821A82DF91CF910895FC0128
:1058A000808191810C94DE5E0F931F93CF93DF93E1
:1058B000CDB7DEB761970FB6F894DEBF0FBECDBF90
:1058C0008C01CB01F80111821082138212821582A1
:1058D000148250E0BE016F5F7F4F0E949361BE0152
:1058E0006F5F7F4FC8010E941B2261960FB6F8942C
:1058F000DEBF0FBECDBFDF91CF911F910F910895F5
:105900000F931F93CF93DF93CDB7DEB762970FB698
:10591000F894DEBF0FBECDBF8C01CB01F801118220
:105920001082138212821582148250E0BE016F5FD2
:105930007F4F0E943B61BE016F5F7F4FC8010E9495
:105940001B2262960FB6F894DEBF0FBECDBFDF916B
:10595000CF911F910F9108950F931F93CF93DF93D2
:10596000CDB7DEB729970FB6F894DEBF0FBECDBF17
:105970008C01862FF8011182108213821282158207
:10598000148250E0BE016F5F7F4F90E00E949361F0
:10599000BE016F5F7F4FC8010E941B2229960FB680
:1059A000F894DEBF0FBECDBFDF91CF911F910F9155
:1059B0000895CF93DF931F921F92CDB7DEB7FC01FE
:1059C00011821082138212821582148269831A82D4
:1059D000BE016F5F7F4F0E941B220F900F90DF91DF
:1059E000CF910895FC0111821082138212821582D8
:1059F00014820C943122FC011182108213821282D3
:105A0000158214826115710551F0FB01019000208F
:105A1000E9F73197AF01461B570B0C94FA21089513
:105A20001F920F920FB60F9211240BB60F922F9365
:105A30003F934F935F936F937F938F939F93AF9316
:105A4000BF93EF93FF9384E19FE0ECDDFF91EF9133
:105A5000BF91AF919F918F917F916F915F914F9186
:105A60003F912F910F900BBE0F900FBE0F901F9084
:105A700018951F920F920FB60F9211240BB60F922A
:105A80002F933F934F935F936F937F938F939F9346
:105A9000AF93BF93EF93FF9384E19FE00E941F2198
:105AA000FF91EF91BF91AF919F918F917F916F91F6
:105AB0005F914F913F912F910F900BBE0F900FBEB2
:105AC0000F901F9018951F920F920FB60F921124EE
:105AD0000BB60F922F933F934F935F936F937F93E8
