:10000000AAC10000D9C10000D7C10000D5C10000BD
:10001000D3C10000D1C10000CFC10000CDC100009C
:10002000CBC100000C94AE430C94AE430C94AE4391
:10003000C3C10000C1C10000BFC10000BDC10000BC
:10004000BBC10000B9C10000B7C10000B5C10000CC
:10005000B3C10000B1C10000AFC100000C94271172
:10006000ABC100000C94B9180C948F18A5C1000006
:10007000A3C10000A1C100009FC100009DC10000FC
:100080009BC1000099C1000097C1000095C100000C
:100090000C9465180C943B188FC100008DC10000B2
:1000A0008BC1000089C1000087C1000085C100002C
:1000B00083C1000081C100007FC100007DC100003C
:1000C0007BC1000079C1000077C100000C941118B9
:1000D0000C94E81771C100000C94BE170C9495178E
:1000E0006BC10000C802C202F002D102CD02770249
:1000F00096023D023E104110301034103A10781034
:10010000451049104F10531057105D1061106510C5
:1001100078106B106F10731000407A10F35A00A023
:10012000724E18090010A5D4E80000E876481700C0
:1001300000E40B54020000CA9A3B000000E1F50500
:10014000000080969800000040420F000000A0864A
:1001500001000000102700000000E803000000007C
:100160006400000000000A00000000000100000020
:1001700000002C76D888DC674F0823DFC1DFAE593A
:10018000E1B1B796E5E3E453C63AE651997696E8CD
:10019000E6C28426EB898C9B62ED407C6FFCEFBC51
:1001A0009C9F40F2BAA56FA5F490055A2AF75C937C
:1001B0006B6CF9676DC11BFCE0E40D47FEF520E6B2
:1001C000B500D0ED902E0300943577050080841E95
:1001D000080000204E0A000000C80C333333330FF0
:1001E000986E12831141EF8D2114893BE65516CF8D
:1001F000FEE6DB18D1844B381BF77C1D901DA4BB99
:10020000E424203284725E228100C9F124ECA1E54D
:100210003D27005EBCE2613FDD83C29C7E20A3FDE2
:100220001F41009D23BE46DB65F88C11AF32CA57D3
:10023000E97400000A0B02090C0D0E080703040103
:1002400000000000000000000000000000000000AE
:10025000000000000000000000000000000012117B
:10026000100000000000000000000000000000007E
:10027000000000000000000000002200250028000F
:100280002B002E003100340002010000050108019E
:100290000B0100002100240027002A002D0030005F
:1002A000330001010000040107010A0101021020CE
:1002B000200808102040102040800201020108049C
:1002C0000201010204081020408080402010080430
:1002D0000201800402018040201008040201080489
:1002E00002010102040810204080010204081020CD
:1002F00040800505050507050808080802020202F6
:100300000A0A0808040404040101010101010101B1
:100310000303030303030303040707070C0C0C0C7C
:100320000C0C0C0C02020202060606060606060665
:100330000B0B0B0B0B0B0B0B0000200023002600FC
:1003400029002C002F0032000001000003010601EB
:1003500009016F536B5311241FBECFEFD1E2DEBFF3
:10036000CDBF00E00CBF1CE0A0E0B2E0E4E7F4EC9D
:1003700000E00BBF02C007900D92AA32B107D9F777
:1003800020E1AAE2BCE001C01D92A23EB207E1F763
:1003900011E0CAEAD1E000E006C021970109802FF0
:1003A000FE010E940B5EC93AD10780E00807A9F759
:1003B0000E94A94E0C94296223CEFF920F931F93A3
:1003C000CF93DF936115710549F466E474E0DF9122
:1003D000CF911F910F91FF900C941B378B01EC0173
:1003E00062E2CE010E94F736F80161918F01662327
:1003F00051F0E7E3F4E0F080FF2099F38181681782
:1004000059F03296F8CF62E2CE01DF91CF911F9181
:100410000F91FF900C94F7366CE5CE010E94F736F1
:100420006F2DDFCF2F923F924F925F926F927F920C
:100430008F929F92AF92BF92CF92DF92EF92FF92F4
:100440000F931F93CF93DF93CDB7DEB76C970FB6A3
:10045000F894DEBF0FBECDBFDC01ED91FC9111978A
:100460003197E830F10508F057C21B018C0188274D
:10047000EE58FF4F8F4F0C940B5EFD0182809380EE
:10048000A480B580A5019401C501B4010E945B5B05
:10049000882319F066E574E0B1C020E030E0A901DE
:1004A000C501B4010E945B5B87FF08C06DE2C1011A
:1004B0000E94F736B7FAB094B7F8B09420E030E075
:1004C000A901C501B4010E945B5B882309F49AC0AD
:1004D000A5019401C501B4010E94F75CA501940136
:1004E0000E945B5B81118EC06DE574E087C012963F
:1004F0000D911C9113976BE5C1010E94F736F8012D
:10050000028113810115110579F0B101C80102962C
:1005100089DFD8010D911C910115110529F06CE2BC
:10052000C1010E94F736EECF6DE528C0FD010281C2
:1005300013816BE7C1010E94F736D80112960D9125
:100540001C91139701151105C1F0F80162817381A7
:10055000C10133DF6AE3C1010E94F736B101C8016E
:10056000049660DFD8010D911C910115110529F049
:100570006CE2C1010E94F736E5CF6DE7C1010E9430
:10058000F736CAC1FD0162817381C10116DFC4C1A2
:1005900012966D917C91139731C06DE2C1010E945A
:1005A000F736F80162817381848195811E8A8E01FC
:1005B0000A5E1F4F2AE0C22ED12CE12CF12CA7019C
:1005C00096010E94995C605DD8016E938D01B9011E
:1005D000CA01611571058105910589F7BD010EC03C
:1005E000FD0182819381A481B581892B8A2B8B2B7C
:1005F00019F460E574E002C06BE474E0C1010E948C
:100600001B378AC120E836E948E15BE4C501B40143
:100610000E94F45D87FF4AC100E210E0E5E0DE2EB3
:10062000188E1F8A20E030E0A901C501B4010E94A4
:10063000F45D1816B4F52CEA35EC47E257E3C50132
:10064000B4010E945B5B181664F1BFEFDB1649F141
:10065000ED2DF4E0EF0270011124F701EE5EFD4F85
:10066000A501940160817181828193810E94F45D72
:1006700018169CF4F701EE5BFD4F20813181428119
:100680005381C501B4010E94C05B4B015C018F899D
:10069000988D801B910B988F8F8B15950795DA9409
:1006A000D4CFC501B4010E94C85D6B017C012B0150
:1006B0003C0106E080E492E4AFE0B0E0898F9A8FDD
:1006C000AB8FBC8F102F01509AE049165104610482
:1006D0007104C8F0698D7A8D8B8D9C8D2AE030E095
:1006E00040E050E00E94995C298F3A8F4B8F5C8FDD
:1006F000C301B2012AE030E040E050E00E94995C82
:1007000029013A01DFCFC701B6010E945F5B9B015F
:10071000AC01C501B4010E94F65C4B015C01698D1E
:100720007A8D8B8D9C8D0E945F5B9B01AC01C50116
:10073000B4010E94C05B2B013C010E94C85D4B01CB
:100740005C010E945F5B9B01AC01C301B2010E948E
:10075000F65C9B01AC010E94F75C0E94C85D860EAE
:10076000971EA81EB91E898D9A8DAB8DBC8D8816DB
:100770009906AA06BB06F8F09FEFC91AD90AE90A3A
:10078000F90AAF89B88DAB2B99F0BAE0CB16D1043A
:10079000E104F10468F0EF89F88D3196F88FEF8B62
:1007A000812C912C5401C12CD12C7601C39403C00F
:1007B000812C912C54015AE0452E512C612C712C26
:1007C000C501B401A30192010E94995C672B682BBB
:1007D000692B31F4111624F449015A011150F0CF5C
:1007E0001E8ACE0146969A8F898F4AE0442E512C5C
:1007F000612C712CC701B601A30192010E94995C82
:10080000605DA98DBA8D6E93BA8FA98F69017A0147
:10081000C114D104E104F10469F7BD01C1010E94D2
:100820001B37112329F1188A012F7E01B0E1EB0E4D
:10083000F11C67013AE0432E512C612C712C0150C0
:1008400068F0C501B401A30192010E94995C605D4A
:10085000F70162937F0149015A01F1CFB601611B93
:1008600071098EE2DB018E93BD01C1010E941B372D
:10087000EF89F88DF7FF0BC06AE574E0C1010E94B3
:100880001B376F89788D7195619571090BC08F89C0
:10089000988D892B09F440C065E6C1010E94F736A6
:1008A0006F89788DC1010E94403736C08AE5C82E15
:1008B00082E0D82E9AE2E92E92E0F92E00E210E0D2
:1008C000188E1F8AD6015E914E913E912E916D0138
:1008D000C501B4010E94F45D87FD11C0F7012489B0
:1008E000358946895789C501B4010E94C05B4B0117
:1008F0005C018F89988D800F911F988F8F8B159534
:10090000079594E0E91AF108A2E4CA16A2E0DA0613
:10091000C9F6DD24DA9486CE6C960FB6F894DEBF65
:100920000FBECDBFDF91CF911F910F91FF90EF9040
:10093000DF90CF90BF90AF909F908F907F906F90FF
:100940005F904F903F902F9008950F931F93CF93F8
:10095000DF938C01EB0166E674E0CE010E94223346
:10096000882339F066E674E0CE010E94DE32F80199
:100970008783DF91CF911F910F9108950C942C568E
:100980000895CF92DF92EF92FF920F931F93CF9330
:10099000DF93CDB7DEB72E970FB6F894DEBF0FBE4C
:1009A000CDBF6C018B0166E674E0C8010E94223362
:1009B000882339F066E674E0C8010E94DE32F60151
:1009C00087836AE674E0C8010E942233882309F411
:1009D0004CC06AE674E0C8010E94DC320097A1F1C5
:1009E0008C010C5F1F4FC8010E940E32009711F05E
:1009F000BC012CC065E474E0CE0101967C010E942C
:100A0000F32AFE86ED86CE010D9698878F831A868F
:100A10001986BE01695F7F4FC80104DD89819A8113
:100A200098878F838B819C819A8789878D819E810E
:100A30009C878B871A8219821C821B821E821D82D0
:100A4000C7010E94772A06C065E474E0CE010796CC
:100A50000E94F32ABE01695F7F4FC60108960E947B
:100A60004A2BCE0107960E94772A2E960FB6F8944D
:100A7000DEBF0FBECDBFDF91CF911F910F91FF90D1
:100A8000EF90DF90CF9008954F925F926F927F9298
:100A90008F929F92AF92BF92EF92FF920F931F930C
:100AA000CF93DF93CDB7DEB762970FB6F894DEBF72
:100AB0000FBECDBF7C01DC0153968D909D90AD9013
:100AC000BC905697B0ED8B0EB7E09B1EA11CB11CDD
:100AD0000E941B1186169706A806B90608F099C051
:100AE000F7014389548965897689CE0107960E946A
:100AF000EF4C62E774E0CE010D960E94F32ABE012E
:100B0000695F7F4FCE010D960E942E2ABC01CE0157
:100B100001960E94EB2ACE0101960E947B4DCE01E8
:100B200001960E94772ACE010D960E94772ACE0167
:100B300007960E94772AD7015196ED91FC91529722
:100B400004851585F801868197810E94EA4240E07C
:100B50006CECD80116968D919C9117970E94C30E4C
:100B6000F801408164E4868197810E94C30ED80118
:100B700012968C9112978823E9F11196EC91E95025
:100B8000E33040F4F0E0EE0FFF1FE45FFD4F8080A4
:100B9000918004C08EEE882E82E0982EF801838129
:100BA000882311F1808181111FC00E941B112B012C
:100BB0003C01092C000CAA08BB08D80116968D919F
:100BC0009C9117970E94140F8130A1F00E941B1175
:100BD000DC01CB0188199909AA09BB09841595057F
:100BE000A605B70550F306C0B401990C880B990B04
:100BF0000E94E310D701ED91FC91048CF58DE02D5E
:100C0000C70119950E941B11F701638B748B858BAB
:100C1000968B62960FB6F894DEBF0FBECDBFDF9104
:100C2000CF911F910F91FF90EF90BF90AF909F9049
:100C30008F907F906F905F904F900895CF92DF924A
:100C4000EF92FF920F931F93CF93DF93CDB7DEB751
:100C50002C970FB6F894DEBF0FBECDBF8C017B0181
:100C60006A0165E474E0CE0107960E94F32AE1145C
:100C7000F10429F0B701CE0107960E944D2A6FEECC
:100C800075E0CE0107960E943F2AF80162817381C8
:100C900040E1CE0101960E947C2ABE016F5F7F4F2A
:100CA000CE0107960E94C82DCE0101960E94772A98
:100CB0006DE774E0CE0107960E943F2A40E1F801FB
:100CC0006481CE0101960E94A72ABE016F5F7F4F0B
:100CD000CE0107960E94C82DCE0101960E94772A68
:100CE00064E874E0CE0107960E943F2A4AE0F801CA
:100CF0006781CE0101960E94A72ABE016F5F7F4FD8
:100D0000CE0107960E94C82DCE0101960E94772A37
:100D10006AE874E0CE0107960E943F2A7801F8E065
:100D2000EF0EF11C005F1F4FF70161917F0140E161
:100D3000CE0101960E94A72ABE016F5F7F4FCE01B0
:100D400007960E94C82DCE0101960E94772AE016D0
:100D5000F10651F764E974E0CE0107960E943F2A3C
:100D6000BE01695F7F4FCE0101960E94EB2ABE0152
:100D70006F5F7F4FC6010E941C4DCE0101960E94FD
:100D8000772ACE0107960E94772A2C960FB6F89400
:100D9000DEBF0FBECDBFDF91CF911F910F91FF90AE
:100DA000EF90DF90CF900895CF93DF93CDB7DEB76C
:100DB00062970FB6F894DEBF0FBECDBFFB01628114
:100DC0007381DC0113967C936E93129724811496A1
:100DD0002C9314972481243579F49F01285F3F4F89
:100DE0001896AF01405F5F4FF90181919F018D938C
:100DF000E417F507C9F727C04AE0CE0107960E941D
:100E00007C2A68E974E0CE0101960E94F32ABE01B3
:100E1000695F7F4FCE0101960E942E2ABC01CE0150
:100E20000D960E94EB2ACE010D960E94994DCE019F
:100E30000D960E94772ACE0101960E94772ACE0154
:100E400007960E94772A62960FB6F894DEBF0FBE0F
:100E5000CDBFDF91CF910895AF92BF92CF92DF9235
:100E6000EF92FF920F931F93CF93DF93CDB7DEB72F
:100E700067970FB6F894DEBF0FBECDBF7C0166EB5F
:100E800074E0CE0101960E94F32ACE0101960E94E1
:100E90007B4DCE0101960E94772A4AE0D701179632
:100EA0006C91CE010A960E94A72A69E47AE0CE01ED
:100EB00001960E94F32ABE01665F7F4FCE01019624
:100EC0000E942E2ABC01CE0142960E94EB2ACE013E
:100ED00042960E947B4DCE0142960E94772ACE0117
:100EE00001960E94772ACE010A960E94772AF7017E
:100EF0002781A091F30FB091F40F109799F04091D2
:100F0000F70F5091F80F80E090E08417950754F4A4
:100F1000ED91FD913481313319F43781231721F09C
:100F20000196F3CFE0E0F0E0D7015296FC93EE9308
:100F30005197309761F512966D917C9113974AE025
:100F4000CE010A960E947C2A6BEC74E0CE010196D9
:100F50000E94F32ABE01665F7F4FCE0101960E9478
:100F60002E2ABC01CE0142960E94EB2ACE01429667
:100F70000E94994DCE0142960E94772ACE01019699
:100F80000E94772ACE010A960E94772AE4C0670160
:100F9000B8E0CB0ED11CAE014F5F5F4FB601848528
:100FA00095850E942143811132C0F70162817381CE
:100FB0004AE0CE010A960E947C2A67EE78E0CE01D4
:100FC00001960E94F32ABE01665F7F4FCE01019613
:100FD0000E942E2A65EE74E00E94172ABC01CE0101
:100FE00042960E94EB2ACE0142960E94994DCE0174
:100FF00042960E94772ACE0101960E94772ACE015E
:101000000A960E94772AD70150961C92A4C081E0CC
:10101000F701808B0188F289E02D04851585B601E2
:10102000C8010E947D43893009F495C0AE014F5F2D
:101030005F4FB601C8010E942143882309F48BC089
:10104000D70118968C91803109F485C08FE18D838A
:10105000F801868197810E94EA42B601D80116966E
:101060008D919C911797C3D640E06EE4F80186817C
:10107000978189D640E06B81D80116968D919C911D
:10108000179781D640E06C81F801868197817BD6E5
:10109000D70118968C91803131F040E06D81F801D4
:1010A0008681978170D6D80116968D919C9117975D
:1010B0000E94EA42B601F8018681978198D6D8014C
:1010C0004C9168E416968D919C9117975CD664E1DB
:1010D00070E080E090E00E94E310F80180818823B6
:1010E00031F06AE070E080E090E00E94E310D80107
:1010F00016968D919C9117970E94EA42F801818182
:101100008A3018F489E0818326C089E08183C12C6C
:10111000D12CF801848190E0C816D906E4F4AC2CF7
:101120000680F781E02D138615861486DF011B9655
:1011300033961E92AE17BF07E1F7B12CBE01665F72
:101140007F4FD80116968D919C9117970E94782514
:10115000811117C01FC0F701138A148A158A168AD5
:1011600067960FB6F894DEBF0FBECDBFDF91CF916B
:101170001F910F91FF90EF90DF90CF90BF90AF90B5
:101180000895AB1022C067E0CE010A96E4D5998994
:1011900089131BC0D8011196BC90BE01665F7F4FBA
:1011A000C8010E947D438B1518F4F801818106C0A7
:1011B000BE01665F7F4FC8010E947D43D801119632
:1011C0008C93BFEFCB1ADB0AA4CFB394AB1410F30C
:1011D000B5CFCF93DF931F92CDB7DEB76983DC0124
:1011E000ED91FC910280F381E02D41E050E0BE01E1
:1011F0006F5F7F4F19950F90DF91CF910895FC019C
:10120000818D928D0895FC019485FB01848598134E
:1012100003C081E0983008F080E00895CF93DF9319
:101220001F92CDB7DEB76983DC01ED91FC9102809E
:10123000F381E02D41E050E0BE016F5F7F4F1995D3
:101240000F90DF91CF910895FC01848595850895D5
:10125000FC0184899589089528E234E0FC013183FA
:101260002083FB014089518962897389FC01428393
:101270005383648375830895DC01ED91FC91048CA4
:10128000F58DE02D199480E00895CF92DF92EF92D2
:10129000FF920F931F93CF93DF9300D000D0CDB771
:1012A000DEB78C016B017A01FC01808D883010F46F
:1012B0000E949A1488E294E09A838983F6018281DD
:1012C0009381A481B5818B839C83AD83BE83B70159
:1012D000CE0101960E948F28F801808F883030F46B
:1012E000F586E486128E118E81E001C080E026969C
:1012F0000FB6F894DEBF0FBECDBFDF91CF911F9127
:101300000F91FF90EF90DF90CF900895CF93DF93F0
:10131000FC01808D883028F4EF010E949A1488E047
:10132000888FDF91CF910895FC01808D883040F443
:10133000218D328D232B21F00E94211390E00895FE
:101340008FEF9FEF0895CF93DF93FC012485283022
:1013500018F08FEF9FEF0EC0EC010190F081E02DAF
:101360000084F185E02D1995892B99F38C850E94D5
:10137000211390E0DF91CF910895CF93DF93FC018B
:10138000218D328D2115310519F48FEF9FEF11C09A
:10139000EC014217530708F0A901888D0E949B15A4
:1013A0001816190694F7298D3A8D281B390B3A8F98
:1013B000298FDF91CF9108950F931F93CF93DF93E0
:1013C0001F92CDB7DEB7FC01218D328D232B61F04A
:1013D0008C0141E050E0BE016F5F7F4F808D0E9425
:1013E0009B15181619061CF08FEF9FEF08C0F80127
:1013F000818D928D0197928F818F898190E00F90DE
:10140000DF91CF911F910F910895CF93DF931F929A
:10141000CDB7DEB741E050E0BE016F5F7F4FFC010A
:1014200084850E949B15181619061CF4898190E08A
:1014300002C08FEF9FEF0F90DF91CF910895FC01D5
:101440008485883010F40C949B1580E090E008951A
:10145000FC018485883010F40C944B1380E090E0FC
:1014600008950F931F93CF93DF93CDB7DEB72897DF
:101470000FB6F894DEBF0FBECDBF8C01D8015996D0
:101480004D915C915A974115510551F0ED91FC91A8
:10149000048CF58DE02D60E070E0C8011995EECF69
:1014A000F801808D0E944B13892B51F148E050E0E8
:1014B000BE016F5F7F4FD80158968C910E949B159B
:1014C00018161906FCF4D801509684E0FE013196F6
:1014D00001900D928A95E1F78D8190E0982F8827F1
:1014E0002E81820F911DF801958B848B8F8190E066
:1014F000982F88272885820F911D928F818F02C097
:1015000080E090E028960FB6F894DEBF0FBECDBF06
:10151000DF91CF911F910F910895AF92BF92CF921B
:10152000DF92EF92FF920F931F93CF93DF93CDB78C
:10153000DEB7AF970FB6F894DEBF0FBECDBF8C01FC
:101540005B016A01CE0101960E946F2888E2E82EB5
:1015500084E0F82EFBA6EAA61CA61DA61EA61FA6C2
:1015600080911B0F90911C0FA0911D0FB0911E0F29
:101570008EA39FA3A8A7B9A78B839C83AD83BE83AB
:1015800018861F82AE01465D5F4FB501CE01019600
:101590000E94122681309105B1F4D801ED91FC91A1
:1015A0000488F589E02DFDA2ECA28CA59DA5AEA531
:1015B000BFA58EA39FA3A8A7B9A7A601BE016C5D76
:1015C0007F4FC8011995AF960FB6F894DEBF0FBED6
:1015D000CDBFDF91CF911F910F91FF90EF90DF90E2
:1015E000CF90BF90AF9008950F931F93CF93DF9349
:1015F000EC018B01888D883010F40E949A14B80198
:1016000082E00E94B614888F883030F41D870C87E2
:101610001A8E198E81E001C080E0DF91CF911F9179
:101620000F910895CF93DF93EC018C858830C8F437
:101630000E946B16843181F0882371F0883161F04B
:101640008C3161F4E881F9810084F185E02DCE01CF
:10165000199521E0892B19F420E001C021E0822FA7
:1016600001C080E0DF91CF910895CF92DF92EF9299
:10167000FF92CF93DF93EC018C85883020F50E9498
:101680007E14D9D56B017C018C850E946B16882352
:10169000C1F061E070E080E090E095D5CCD5AB0181
:1016A000BC014C195D096E097F098D859E85A0E0FE
:1016B000B0E0481759076A077B0730F38C850E9412
:1016C0009A1488E08C87DF91CF91FF90EF90DF90A4
:1016D000CF900895CF92DF92EF92FF920F931F93D6
:1016E000CF93DF93CDB7DEB7AF970FB6F894DEBFD9
:1016F0000FBECDBF8C016B017A01CE0101960E9415
:101700006F2888E294E09BA78AA71CA61DA61EA6A8
:101710001FA6D8011C968C91883060F40E946B162D
:10172000882321F0F80184850E947E1488E0D80186
:101730001C968C9380911B0F90911C0FA0911D0FF4
:10174000B0911E0F8EA39FA3A8A7B9A78B839C83DC
:10175000AD83BE8318861F82AE01465D5F4FB60122
:10176000CE0101960E9412260097C1F0D801ED919A
:10177000FC910684F785E02D88E294E09DA38CA37C
:101780008CA59DA5AEA5BFA58EA39FA3A8A7B9A70D
:10179000A701BE016C5D7F4FC8011995AF960FB6CA
:1017A000F894DEBF0FBECDBFDF91CF911F910F9197
:1017B000FF90EF90DF90CF900895CF93DF93EC01EF
:1017C0008C85883060F40E946B16873111F08C3163
:1017D00031F48C850E946D158115984088F3DF9156
:1017E000CF910895FC018485883010F40C946D1518
:1017F00080E090E008950895DA0190918A0CE92F35
:10180000F0E0FE2FEE27E60FF71F90E0982F8827D5
:10181000A901BD018E0F9F1F6EC508958CBD9DBD92
:1018200008957F928F929F92AF92BF92CF92DF9254
:10183000EF92FF920F931F93CF93DF931F921F920C
:10184000CDB7DEB77C014B01742EC52EFC01A688F6
:10185000B788D08CCE0101960E94CC4B89819A81A9
:10186000DDDF8D2DB3D6072D1C2D8017910708F4D1
:101870008C019801A401B5018D2D52D7F7018689FD
:101880009789800F911F978B868BC8010F900F90BF
:10189000DF91CF911F910F91FF90EF90DF90CF904C
:1018A000BF90AF909F908F907F9008951F93CF939C
:1018B000DF931F921F92CDB7DEB7FC01108DCE01D2
:1018C00001960E94CC4B89819A81A8DF60E270E08A
:1018D000812F0E94701462E070E0812FE4D784FDB4
:1018E00015C062E070E0812FDED783FF07C048E1BA
:1018F00062E070E0812FBAD780E00EC0CE01019681
:101900000E94CC4B89819A8189DFE5CF40E162E07A
:1019100070E0812FABD781E090E00F900F90DF91C6
:10192000CF911F910895DF92EF92FF920F931F9333
:10193000CF93DF931F921F92CDB7DEB7FB01DC017F
:1019400057961C921E9256972281211109C023811D
:10195000211106C02481211103C025812223E1F039
:1019600041155105C9F07A018F01FC01D08CCE01DF
:1019700001960E94CC4B89819A8150DFA8014E5F6D
:101980005F4F24E030E06CE070E08D2DB8D6B701F9
:101990008D2D42D781E001C080E090E00F900F9044
:1019A000DF91CF911F910F91FF90EF90DF900895FD
:1019B0000F931F93CF93DF931F921F92CDB7DEB784
:1019C000FC0124852830C0F48C01CE0101960E94D0
:1019D000CC4B89819A8122DF22E030E0AE014F5F5B
:1019E0005F4F60E170E0F801848506DF89819A81AC
:1019F00098278927982702C080E090E00F900F90E9
:101A0000DF91CF911F910F910895EF92FF920F9365
:101A10001F93CF93DF9300D01F92CDB7DEB78C0119
:101A20007B01FB018485883050F088E294E0F80166
:101A30009183808312821382148215821EC0CE018C
:101A400001960E94CC4B89819A81E8DE24E030E047
:101A5000AE014F5F5F4F6CE070E0F7018485CCDE34
:101A600088E294E0F8019183808389819A81AB8137
:101A7000BC8182839383A483B583C8010F900F90A8
:101A80000F900F90DF91CF911F910F91FF90EF90EA
:101A900008950F931F93CF93DF931F921F92CDB79B
:101AA000DEB7FC0124852830C0F48C01CE010196FC
:101AB0000E94CC4B89819A81B1DE22E030E0AE01F8
:101AC0004F5F5F4F64E070E0F801848595DE8981A7
:101AD0009A8198278927982702C080E090E00F908C
:101AE0000F90DF91CF911F910F9108956F927F9288
:101AF0008F929F92AF92BF92CF92DF92EF92FF921E
:101B00001F93CF93DF931F921F92CDB7DEB7FC01D7
:101B10001485183008F057C06A014130F8E05F07BB
:101B200018F0C12C28E0D22E7A013B015C01CE01D5
:101B300001960E94CC4B89819A8170DE812F46D517
:101B40004C0163E070E0812FAED6873111F08C310B
:101B500021F48C149D0458F302C0C12CD12CCE0169
:101B600001960E94CC4B89819A8158DE9601A3018F
:101B700060E070E0812FD4D560E270E0812FB0D6B4
:101B800062E070E0812F8FD684FD14C063E070E0C6
:101B9000812F89D6811106C081E090E0F501938301
:101BA000828311C0CE0101960E94CC4B89819A811B
:101BB00035DEE6CF40E162E070E0812F57D6CD28D8
:101BC00059F3C70102C080E090E00F900F90DF91C1
:101BD000CF911F91FF90EF90DF90CF90BF90AF908B
:101BE0009F908F907F906F900895AF92BF92CF9209
:101BF000DF92EF92FF920F931F93CF93DF931F9289
:101C00001F92CDB7DEB78C016B015A01FC018485B0
:101C1000883050F40E946B16882319F0F8018485EF
:101C20006DD688E0F8018487F60182819381A481D2
:101C3000B5810097A105B10509F452C08F3F9F4FB0
:101C4000AF4FBF4F09F44CC060E070E081E28ED628
:101C5000F82EF8018487F7E0F81708F441C0CE01A8
:101C600001960E94CC4B89819A81D8DDA6014E5FF6
:101C70005F4F24E030E06CE070E08F2D40D5B5017F
:101C80008F2DCAD564E070E08F2D2AD6D4D26B0197
:101C90007C01F80184850E946B16873121F18C311B
:101CA00011F18823E9F0C7D2AB01BC014C195D09E1
:101CB0006E097F09F80185859685A0E0B0E084175C
:101CC0009507A607B70730F061E070E080E090E08C
:101CD0007AD2DFCFF80184852DD688E0F801848799
:101CE00080E090E002C081E090E00F900F90DF91E3
:101CF000CF911F910F91FF90EF90DF90CF90BF9009
:101D0000AF9008950F931F93CF93DF931F921F926D
:101D1000CDB7DEB78C0188E294E0F801918380832F
:101D20001282138214821582CE0101960E94CC4B3E
:101D300089819A8173DDB8016E5F7F4F44E050E086
:101D40008FE090E0D8D2C8010F900F90DF91CF9133
:101D50001F910F910895DC0180E0615098F02D9162
:101D6000982F9227E92FEF70F0E0EE5EFD4F24915F
:101D700092959F70E92FF0E0EE5DFD4FE491822F88
:101D80008E27EBCF0895DF92EF92FF920F931F9370
:101D9000CF93DF93EC01D62EE42E08E010E0FF2471
:101DA000F39461E08D2D8F2109F460E0CE010E9453
:101DB000BB42FF0C01501109A1F7E11010C0F894CB
:101DC000E981FA8191818881809589238183E981E4
:101DD000FA81928188818095892382837894DF912A
:101DE000CF911F910F91FF90EF90DF900895EF92A8
:101DF000FF920F931F93CF93DF938C017B0140E001
:101E000065E5C1DFE70188E0E80EF11C699140E07B
:101E1000C801B9DFCE15DF05C9F7DF91CF911F915A
:101E20000F91FF90EF900895FC0190810180F28165
:101E3000E02DF8948181892B81832281892F8095DF
:101E400028232283A7E0B0E01197F1F721818223B4
:101E50008183A3E2B0E01197F1F780817894EFECF1
:101E6000F0E03197F1F7982381E009F480E00895DC
:101E7000FC01918D228D892F90E0805C9F4F821B09
:101E800091098F739927089580E090E0892B19F0CC
:101E9000D6D7811116C080E090E0892B19F0C6D703
:101EA000811112C080E090E0892B19F0B6D7811122
:101EB0000EC080E090E0892B79F0A6D781110AC08E
:101EC00008950E940000E7CF0E940000EBCF0E941F
:101ED0000000EFCF0C94000008953FB7F894809174
:101EE0002F0C9091300CA091310CB091320C26B592
:101EF000A89B05C02F3F19F00196A11DB11D3FBF42
:101F0000BA2FA92F982F8827820F911DA11DB11DCF
:101F1000BC01CD0142E0660F771F881F991F4A95CB
:101F2000D1F70895FC0120812EBD9B01215031097C
:101F300041F051810DB407FEFDCF4EB55EBD41931A
:101F4000F5CF61507109FC01E60FF71F0DB407FED4
:101F5000FDCF8EB580830895E091870CF091880CB9
:101F600090818091860C80958923808308958EBD11
:101F700000000DB407FEFDCF8EB508952091890CA9
:101F800090E0233311F40C9601C04896982F990FD6
:101F9000990F990F80E008950E940B5FFF920F93B5
:101FA0001F93CF93DF931F921F92CDB7DEB7F82E0A
:101FB00022E030E0AE014F5F5F4F66E270E01CDC74
:101FC00009811A8110270127102722E030E0AE0195
:101FD0004F5F5F4F66E270E08F2D0EDC89819A8142
:101FE0009827892798270817190711F08C01EDCF3A
:101FF000C8010F900F90DF91CF911F910F91FF902B
:102000000895FC01848DDF01A80FB11DA35ABF4FB5
:102010002C91848D90E001968F739927848FA689E7
:10202000B7892C93A089B1898C91837080648C933B
:10203000938D848D981306C00288F389E02D8081EA
:102040008F7D8083089590E0FC013197E231F105A6
:1020500008F04EC08827E658FF4F8F4F0C940B5E58
:10206000809180008F7703C0809180008F7D809366
:102070008000089580918000877FF9CF84B58F77A5
:1020800002C084B58F7D84BD08958091B0008F77A4
:1020900003C08091B0008F7D8093B000089580913F
:1020A00090008F7707C0809190008F7D03C0809152
:1020B0009000877F8093900008958091A0008F7793
:1020C00007C08091A0008F7D03C08091A000877F12
:1020D0008093A0000895809120018F7707C08091A0
:1020E00020018F7D03C080912001877F8093200194
:1020F00008951F93CF93DF93282F30E0F901EE5C12
:10210000FD4F8491F901E455FD4FD491F901EE5052
:10211000FD4FC491CC23B9F0162F811194DFEC2F21
:10212000F0E0EE0FFF1FE858FD4FA591B4919FB767
:10213000F894111104C08C91D095D82302C0EC9171
:10214000DE2BDC939FBFDF91CF911F910895CF933A
:10215000DF9390E0FC01E455FD4F2491FC01EE502B
:10216000FD4F8491882361F190E0880F991FFC0155
:10217000EE56FD4FC591D491FC01E858FD4FA59155
:10218000B491611109C09FB7F8948881209582238A
:102190008883EC912E230BC0623061F49FB7F894D2
:1021A0008881322F309583238883EC912E2B2C93BA
:1021B0009FBF06C08FB7F894E8812E2B28838FBF6E
:1021C000DF91CF9108958F929F92AF92BF92CF925D
:1021D000DF92EF92FF926B017C017FDE4B015C018D
:1021E000C114D104E104F104E9F077DEDC01CB0194
:1021F00088199909AA09BB09883E9340A105B10530
:1022000078F321E0C21AD108E108F10888EE880EBF
:1022100083E0981EA11CB11CC114D104E104F10497
:1022200021F7DECFFF90EF90DF90CF90BF90AF907F
:102230009F908F9008952FB7F89460912B0C709118
:102240002C0C80912D0C90912E0C2FBF08951F9275
:102250000F920FB60F9211242F933F938F939F935A
:10226000AF93BF9380912B0C90912C0CA0912D0CCF
:10227000B0912E0C30912A0C23E0230F2D3720F43F
:102280000196A11DB11D05C026E8230F0296A11DD0
:10229000B11D20932A0C80932B0C90932C0CA093AF
:1022A0002D0CB0932E0C80912F0C9091300CA0919E
:1022B000310CB091320C0196A11DB11D80932F0CF1
:1022C0009093300CA093310CB093320CBF91AF912E
:1022D0009F918F913F912F910F900FBE0F901F9064
:1022E0001895E091870CF091880C90818091860C74
:1022F000892B80830895AF92BF92CF92DF92EF92A5
:10230000FF920F931F93CF93DF9300D01F92CDB70F
:10231000DEB78C016B017A018091890C8333C1F4A3
:102320005B016801C40ED51E0C151D0509F455C0CE
:1023300013DE8FE01CDE812F1ADE802F18DE0F5F88
:102340001F4F80E014DEF50181935F01CADFECCFFF
:102350008433D1F401DE19830A838F2D8F778B8329
:10236000EC8264E070E0CE010196DCDDA70160E064
:1023700070E0C6010E94295FE114F10419F0B70171
:10238000C601D0DDAEDF29C0E7DD0F3F110509F042
:1023900020F419820A831B821DC017FD0BC019820D
:1023A0000A8333E0169507953A95E1F7007E0860B9
:1023B0000B8310C0C80126E0969587952A95E1F712
:1023C00019830A83807E0115104C10F4806101C0CE
:1023D00088618B8363E070E0C6CFC7010F900F90D8
:1023E0000F900F90DF91CF911F910F91FF90EF9081
:1023F000DF90CF90BF90AF900895AF92BF92CF92F1
:10240000DF92EF92FF920F931F93CF93DF93CDB79D
:10241000DEB728970FB6F894DEBF0FBECDBF8C0194
:102420007B016A018091890C8333B1F45801A40EB9
:10243000B51E0A151B0509F47DC08EDD80EF97DD02
:10244000812F95DD802F93DD0F5F1F4FF701819165
:102450007F018DDD46DFEDCF8433F9F47DDD198317
:102460000A838D2D80688B83CC8264E070E0CE017E
:10247000019658DD87010C0D1D1DE016F10659F07F
:10248000F70181917F0173DDF8CFB6016D5F7F4F5A
:10249000CE01019647DD25DF4DC05EDD0F3F110502
:1024A00009F020F419820A8384E01CC017FD0BC0D8
:1024B00019820A8333E0169507953A95E1F7007E75
:1024C0000C600B8310C0C80126E0969587952A956D
:1024D000E1F719830A83807E0115104C10F48461A2
:1024E00001C08C618B8326E0C216D10498F420E0F1
:1024F000822F90E08C159D0540F6E4E0F0E0EC0FB3
:10250000FD1FE80FF91FD701A80FB91F8C91808319
:102510002F5FEECF63E070E0CE01019603DD87010F
:102520000C0D1D1DF70181917F0121DDE016F106E3
:10253000C9F7B1CFC60128960FB6F894DEBF0FBE1B
:10254000CDBFDF91CF911F910F91FF90EF90DF9062
:10255000CF90BF90AF900895CF93DF931F92CDB7E8
:10256000DEB741E050E0BE016F5F7F4F80E090E05A
:10257000C2DE89810F90DF91CF910895CF93DF93D1
:102580001F92CDB7DEB7898341E050E0BE016F5F97
:102590007F4F80E090E031DF0F90DF91CF91089581
:1025A000CF93DF9380E8EADFC4E1D0E0D5DF882372
:1025B00049F061E070E080E090E005DE2197B1F73E
:1025C00080E001C081E0DF91CF910895EF92FF920A
:1025D0001F93CF93DF931F921F92CDB7DEB7182FB3
:1025E00022E030E0AE014F5F5F4F60E270E004D95F
:1025F000E980FA80FE24EF24FE2422E030E0AE01E0
:102600004F5F5F4F60E270E0812FF6D889819A8139
:10261000982789279827E816F90611F07C01EDCF55
:1026200087E0189FF0011124E25CF34FF582E48209
:10263000C7010F900F90DF91CF911F91FF90EF9006
:1026400008951F93CF93DF931F921F92CDB7DEB7EC
:10265000182FCE0101960E94CC4B89819A81DED839
:10266000812F8CDC27E0129FF0011124E25CF34FF4
:1026700022813381377041E050E0BE016F5F7F4FB0
:10268000820F931F38DEC9D889810F900F90DF9198
:10269000CF911F910895EF92FF920F931F93CF93C5
:1026A000DF931F921F92CDB7DEB7482F87E0489F78
:1026B00090011124F901E25CF34F7F018081918147
:1026C0000097A1F4142FCE0101960E94CC4B898172
:1026D0009A81A4D8812F62DC8C019FD8F701868172
:1026E0009801281B3109C901318320830F900F9075
:1026F000DF91CF911F910F91FF90EF900895DA0134
:1027000090918A0CE92FF0E0FE2FEE27E60FF71FDD
:1027100090E0982F8827A901BD018E0F9F1F6DCED5
:102720007F928F929F92AF92BF92CF92DF92EF9261
:10273000FF920F931F93CF93DF931F921F92CDB7FA
:10274000DEB7782E8B014A01590122E030E0AE015C
:102750004F5F5F4F64E270E04FD8E980FA80FE245B
:10276000EF24FE24E00EF11E970137704091890C92
:10277000072D10E0C801433311F4089601C04096BC
:10278000982F8827990F990F990F820F931F47331E
:1027900019F4A501B4011FC0A9014A0D5B1D413008
:1027A0005840B8F360E078E06B01C21AD30AA60182
:1027B000B40123DEA5014C195D09B4016C0D7D1D2A
:1027C0008091890C833329F5085F1F4F902F990F53
:1027D000990F990F80E011DEEA0CFB1CF982EA8266
:1027E00022E030E0AE014F5F5F4F64E270E0872D82
:1027F00086DF0F900F90DF91CF911F910F91FF9087
:10280000EF90DF90CF90BF90AF909F908F907F9090
:102810000895005F1F4FDACFCF93DF931F921F926F
:10282000CDB7DEB779836A8322E030E0AE014F5F37
:102830005F4F60E170E063DF0F900F90DF91CF9109
:102840000895CF93DF931F921F92CDB7DEB77983A0
:102850006A8322E030E0AE014F5F5F4F64E070E0DA
:102860004EDF0F900F90DF91CF910895CF93DF93BC
:102870001F92CDB7DEB790918A0C292F30E0322F0E
:102880002227260F371F90E0982F8827498341E0A1
:1028900050E0BE016F5F7F4F820F931FAEDD0F9040
:1028A000DF91CF910895CF93DF931F92CDB7DEB71D
:1028B00090918A0C292F30E0322F2227260F371FC4
:1028C00090E0982F882741E050E0BE016F5F7F4F76
:1028D000820F931F10DD89810F90DF91CF910895B2
:1028E000CF93C82F462F61E070E0C0DF61E070E059
:1028F0008C2FD9DF8111FACFCF9108951F93CF93F9
:10290000DF931F921F92CDB7DEB7182FCE0101962D
:102910000E94CC4B89819A810E940E0C68E070E085
:10292000812FDEDF0E940D0C0F900F90DF91CF9171
:102930001F9108951F93CF93DF931F921F92CDB7DE
:10294000DEB7182FCE0101960E94CC4B89819A8167
:102950000E940E0C60E170E0812FC2DF0E940D0C1E
:102960000F900F90DF91CF911F9108958F929F92BA
:10297000BF92CF92DF92EF92FF920F931F93CF936C
:10298000DF93CDB7DEB72A970FB6F894DEBF0FBE40
:10299000CDBF9091890C992309F48CC0933319F021
:1029A00028E0B22E02C094E0B92E6B01082FCE01B0
:1029B00001960E94CC4B89819A810E940E0C9E0147
:1029C0002F5F3F4F7901490110E063E070E0812FF4
:1029D0006ADFF40181934F018823C1F01F5FB112B8
:1029E000F4CF10E0F70191917F019D3159F09831BA
:1029F00049F09A51923030F01F5FB112F3CF0E942C
:102A00000D0C58C060E170E0812F6ADFE12EF12CDF
:102A100083EE93E00197F1F7402F60E070E0812FA3
:102A200025DF4FEF62E070E0812F20DFC114D10479
:102A300011F0B60113C0809100029091010201963D
:102A40008115F0EC9F0710F480E090EC9093010268
:102A5000809300026091000270910102812FF1DEEB
:102A600061E070E0812F3CDF27E02E9DC0012F9DAB
:102A7000900D11249C01225C334F7901F9011182E0
:102A8000108222E030E0AE01475F5F4F68E270E005
:102A9000812F0E94FC0B89859A8598278927982782
:102AA000F701938382831682158214820E940D0C93
:102AB000812F01C088E02A960FB6F894DEBF0FBEC2
:102AC000CDBFDF91CF911F910F91FF90EF90DF90DD
:102AD000CF90BF909F908F900895FF920F931F9378
:102AE000CF93DF931F921F92CDB7DEB7F82ECE01A2
:102AF00001960E94CC4B89819A810E940E0C8F2DE9
:102B000065DD8C0163E070E08F2DCDDEF82E0E9434
:102B10000D0C87E1F81631F08CE1F81619F080E021
:102B200090E001C0C8010F900F90DF91CF911F91ED
:102B30000F91FF9008954F925F927F928F929F9294
:102B4000AF92BF92CF92DF92EF92FF920F931F93BB
:102B5000CF93DF931F921F92CDB7DEB7782E6B0114
:102B60004A01A82EB12C27E0829FC0011124AC019C
:102B7000425C534F7A01FA0100811181CE01019626
:102B80000E94CC4B89819A810E940E0C0815190570
:102B90004CF4872D03DAF70126818C01021B110901
:102BA0001183008301151105A1F463E070E0872D06
:102BB0007ADE843109F47AC0882309F477C001E011
:102BC00010E08C3111F400E010E01195019511092D
:102BD0006DC0801691060CF4840187E08A9DF00197
:102BE0008B9DF00D1124E25CF34FE280F380C11461
:102BF000D10439F12701F7E05F22872DBFD9840D79
:102C0000951D2091890C273319F4A801B60118C02D
:102C10009801240D351D21303840B8F320E038E00C
:102C2000490184189508A401B60165DB2601480C0A
:102C3000591C6801C818D908872DA0D9A601B2016E
:102C40005ADBE00EF11E87E08A9DF0018B9DF00DAE
:102C50001124E25CF34FF382E28280819181801B38
:102C6000910B918380832681A801420F511D4A3F19
:102C7000510510F4892BC9F487E08A9DF0018B9DE2
:102C8000F00D1124E25CF34F1682F982EA8222E011
:102C900030E0AE014F5F5F4F68E270E0872D2FDDBF
:102CA00060E470E0872D1CDE01C046830E940D0C9D
:102CB000C8010F900F90DF91CF911F910F91FF905E
:102CC000EF90DF90CF90BF90AF909F908F907F90CC
:102CD0005F904F9008951F93CF93DF931F921F92A1
:102CE000CDB7DEB7182FCE0101960E94CC4B89815B
:102CF0009A810E940E0C63E070E0812FD4DD182FC2
:102D00000E940D0C812F0F900F90DF91CF911F919A
:102D10000895FC01538D448D252F30E0842F90E0E1
:102D2000821B930B541710F0CF96089501970895C6
:102D3000FC01918D828D981761F0828DDF01A80FC3
:102D4000B11D5D968C91928D9F5F9F73928F90E0E5
:102D500008958FEF9FEF0895FC01918D828D981754
:102D600031F0828DE80FF11D858D90E008958FEF91
:102D70009FEF08958F929F92AF92BF92CF92DF9272
:102D8000EF92FF920F931F93CF93DF937C01EB01A0
:102D90006C0182E0C80ED11C4701E5E08E0E911C4B
:102DA00000E010E0F60141916F0150E060E070E05A
:102DB0002AE0CE010E948E295C01E881F981019010
:102DC000F081E02D6EE2CE0119958A0D9B1D080F52
:102DD000191F8C149D0431F7F701458150E060E024
:102DE00070E02AE0CE010E948E29800F911FDF91B2
:102DF000CF911F910F91FF90EF90DF90CF90BF90F8
:102E0000AF909F908F90089585EA9CE031D821E0A3
:102E1000892B09F420E0822F089582E49DE028D8D0
:102E200021E0892B09F420E0822F08958FED9DE0A9
:102E30001FD821E0892B09F420E0822F08958CE728
:102E40009EE016D821E0892B09F420E0822F089516
:102E5000EF92FF920F931F93CF93DF93EC0181E0EA
:102E6000888F9B8D8C8D981305C0E889F9898081A6
:102E700085FD25C0F62E0B8D10E00F5F1F4F0F73E1
:102E80001127E02E8C8DE8120BC00FB607FCFACF8D
:102E9000E889F989808185FFF5CFCE01B2D8F2CFDC
:102EA0008B8DFE01E80FF11DE35AFF4FF0829FB7B3
:102EB000F8940B8FEA89FB89808180620AC09FB7F2
:102EC000F894EE89FF896083E889F98980818370AD
:102ED000806480839FBF81E090E0DF91CF911F915C
:102EE0000F91FF90EF900895CF93DF93EC01888DC1
:102EF0008823C1F0EA89FB89808185FD05C0A88906
:102F0000B9898C9186FD0EC00FB607FCF5CF808184
:102F100085FFF2CFA889B9898C9185FFEDCFCE01CD
:102F200070D8E8CFDF91CF9108951F920F920FB61E
:102F30000F9211240BB60F922F933F934F935F93F1
:102F40006F937F938F939F93AF93BF93EF93FF9371
:102F500085EA9CE056D8FF91EF91BF91AF919F9188
:102F60008F917F916F915F914F913F912F910F9032
:102F70000BBE0F900FBE0F901F9018951F920F92CF
:102F80000FB60F9211240BB60F922F933F934F93CE
:102F90005F936F937F938F939F93AF93BF93EF93C1
:102FA000FF9385EA9CE00E947529FF91EF91BF9104
:102FB000AF919F918F917F916F915F914F913F91D1
:102FC0002F910F900BBE0F900FBE0F901F90189572
:102FD0001F920F920FB60F9211240BB60F922F93E0
:102FE0003F934F935F936F937F938F939F93AF9391
:102FF000BF93EF93FF9382E49DE003D8FF91EF919D
:10300000BF91AF919F918F917F916F915F914F9100
:103010003F912F910F900BBE0F900FBE0F901F90FE
:1030200018951F920F920FB60F9211240BB60F92A4
:103030002F933F934F935F936F937F938F939F93C0
:10304000AF93BF93EF93FF9382E49DE00E947529B5
:10305000FF91EF91BF91AF919F918F917F916F9170
:103060005F914F913F912F910F900BBE0F900FBE2C
:103070000F901F9018951F920F920FB60F92112468
:103080000BB60F922F933F934F935F936F937F9362
:103090008F939F93AF93BF93EF93FF938FED9DE03B
:1030A0000E940110FF91EF91BF91AF919F918F917D
:1030B0007F916F915F914F913F912F910F900BBE38
:1030C0000F900FBE0F901F9018951F920F920FB682
:1030D0000F9211240BB60F922F933F934F935F9350
:1030E0006F937F938F939F93AF93BF93EF93FF93D0
:1030F0008FED9DE00E947529FF91EF91BF91AF91F7
:103100009F918F917F916F915F914F913F912F91FF
:103110000F900BBE0F900FBE0F901F9018951F922F
:103120000F920FB60F9211240BB60F922F933F936D
:103130004F935F936F937F938F939F93AF93BF93BF
:10314000EF93FF938CE79EE00E940110FF91EF91B7
:10315000BF91AF919F918F917F916F915F914F91AF
:103160003F912F910F900BBE0F900FBE0F901F90AD
:1031700018951F920F920FB60F9211240BB60F9253
:103180002F933F934F935F936F937F938F939F936F
:10319000AF93BF93EF93FF938CE79EE00E94752956
:1031A000FF91EF91BF91AF919F918F917F916F911F
:1031B0005F914F913F912F910F900BBE0F900FBEDB
:1031C0000F901F9018950F931F93CF93DF938C014F
:1031D000EB01FC016281CE010E940045F80164818F
:1031E000CE0101960E940045F8016781CE0102964A
:1031F000DF91CF911F910F910C9400450F931F9376
:10320000CF93DF93EC018B01CB010E94024590E04C
:103210009B838A83C80101960E9402458C83C80162
:1032200002960E9402458F83DF91CF911F910F91EB
:1032300008951F93CF93DF93EC01162F6D830E94A7
:10324000DF2D612F8A819B81DF91CF911F910C949B
:10325000342F0C942C5608951F93CF93DF93EC01D9
:10326000162F0E94CC31E881F9818081181305C0A6
:103270003196F983E88381E001C080E0DF91CF914E
:103280001F910895EF92FF920F931F93CF93DF93B7
:103290008C01DC011496CD91DC911597EA80FB80BE
:1032A0008E819F81E80EF91EC80102960E94CC31E2
:1032B000D8011296ED91FC91139780818732A9F184
:1032C000823299F190ED980F9A3078F091EA980F48
:1032D0009C3158F09FEB980F9A3138F08B3229F0DF
:1032E00093ED980F923008F061C0F801228133818C
:1032F0002F5F3F4F338322832E813F81A9014F5F90
:103300005F4F6C817D816417750740F06A817B8116
:10331000FB01E20FF31F5F834E838083D801129677
:10332000ED91FC9113978081CDCF3196D801139602
:10333000FC93EE931297D8011296ED91FC9113979E
:103340009081992399F19F012F5F3F4F13963C93F2
:103350002E931297981751F19C35A9F49181ABE304
:10336000B4E02C91222339F0921303C011969C9162
:1033700002C01296F6CF9923C9F03296D80113965F
:10338000FC93EE9312972E813F81A9014F5F5F4F0F
:103390006C817D816417750770F26A817B81FB0106
:1033A000E20FF31F5F834E839083C5CF8E819F8191
:1033B0009C012F5F3F4F4C815D814217530750F0B6
:1033C0004A815B81FA01E80FF91F3F832E83108247
:1033D000C70102C080E090E0DF91CF911F910F9173
:1033E000FF90EF9008950E94DC32FC01892B09F4D4
:1033F00048C0848195818330910520F4019708F4B9
:1034000040C00BC08530910528F0059799F566817D
:1034100077812BC08681978108950680F781E02D02
:10342000309779F18081843779F18B3229F08D32B0
:1034300021F4319691E002C0319690E060E070E0B6
:103440004AE0819120ED280F2A3068F4469F9001D0
:10345000479F300D1124B90160537109680F711D28
:1034600087FD7A95EECF992391F088279927861BBF
:10347000970B089566817781808591850E94C85D4C
:1034800006C080E090E0089581E090E00895CB01CF
:1034900008950E94DC32009719F004960C940E32C5
:1034A00080E090E008950E94DC32009719F00496C5
:1034B0000C94663280E090E008958F929F92AF92D4
:1034C000BF92CF92DF92EF92FF920F931F93CF9311
:1034D000DF93CDB7DEB728970FB6F894DEBF0FBEE7
:1034E000CDBF6C0165E976E0CE0101960E94F32A1A
:1034F000CE0101960E947B4DCE0101960E94772A53
:103500008EE090E00E9494557C01D60117961C91A4
:1035100060E0812F0E94A710812F90E0FC01E4550C
:10352000FD4FE491D701EC93FC01EE50FD4FE49187
:10353000F0E0EE0FFF1FE85CFC4F85919491F701DE
:10354000928381831386158614865701FBE0AF0EA4
:10355000B11C470183E0880E911CF50112928E1672
:103560009F06E1F7D6011996FC92EE92189784E136
:1035700090E00E9494558C01FC01F782E68214824F
:103580001582108289E0818381E082838383138A9C
:10359000128AD6011D961C930E931C97F501129268
:1035A0005F018E169F06D1F7FF24F394BE016F5F73
:1035B0007F4FD80116968D919C9117970E94782580
:1035C000882309F45FC067E0CE0101960E94AB0E2C
:1035D00098858913EBCFF8018081811125C0868100
:1035E00097810E94EA42BE016F5F7F4FD801169615
:1035F0008D919C9117970E94F70E40E064EBF801C3
:10360000868197810E94C30ED80116968D919C9158
:1036100017970E94140FE82EF801868197810E9467
:10362000EA42EE2009F44AC0D8011196EC90BE019E
:103630006F5F7F4FC8010E947D438E1518F4F8011B
:10364000818106C0BE016F5F7F4FC8010E947D432C
:10365000D80111968C93119714968C9114978F5FC3
:1036600014968C938981883261F130F4803149F16C
:10367000823209F09BCF25C08B3319F1823409F0D7
:1036800095CF1FC0C6010E94DF2DF60165818281A2
:1036900093810E94342F28960FB6F894DEBF0FBE98
:1036A000CDBFDF91CF911F910F91FF90EF90DF90F1
:1036B000CF90BF90AF909F908F900895D801FC92CB
:1036C000B3CFF80185818F5F858370CFEF92FF9232
:1036D0000F931F93CF93DF93CDB7DEB76E970FB6DF
:1036E000F894DEBF0FBECDBFFB01309709F48CC04C
:1036F0002481213309F088C061E070E0DC01179675
:103700003C912781321711F060E070E08F017C015D
:10371000CE0107960E94C34C61E070E0F7019481EE
:10372000D80114968C91981711F060E070E0CE01EA
:103730000D960E94C34C61E070E0F7012281338155
:10374000D80112968D919C9113972817390711F083
:1037500060E070E0CE0143960E94C34C61EA76E0DF
:10376000CE0149960E94F32ABE016D5E7F4FCE01C5
:1037700049960E942E2A62E27AE00E94172ABE0130
:10378000635F7F4F0E942E2A62E27AE00E94172A2E
:10379000BE01695F7F4F0E942E2A65EB76E00E9492
:1037A000172ABC01CE0101960E94EB2ACE01019698
:1037B0000E947B4DCE0101960E94772ACE01499648
:1037C0000E94772ACE0143960E94772ACE010D9659
:1037D0000E94772ACE0107960E94772AF70122815C
:1037E0003381D80112968D919C9113972817390730
:1037F00059F4948114968C911497981305C097816D
:1038000017968C91981711F080E001C081E06E96B8
:103810000FB6F894DEBF0FBECDBFDF91CF911F91E1
:103820000F91FF90EF900895CF92DF92EF92FF9269
:103830000F931F93CF93DF93CDB7DEB7C858D1094D
:103840000FB6F894DEBF0FBECDBF7C018B016A01BD
:10385000BC01CE0183589F4F0E94F32AB8018E010C
:103860000F5F1F4FC8010E94F32A960140E050E00D
:10387000B801CE018D579F4F0E94072BC8010E94AF
:10388000772A67E27CE0CE018B599F4F0E94F32A92
:10389000BE0163587F4FCE018B599F4F0E942E2A45
:1038A00067EB76E00E94172ABE016D577F4F0E949A
:1038B0002E2A65EB76E00E94172ABC01C8010E94FF
:1038C000EB2AC8010E947B4DC8010E94772ACE01D5
:1038D0008B599F4F0E94772A8091DC0F1F928F9304
:1038E0008AEB96E09F938F931F930F930E944E5FF6
:1038F000B801C7010E94305F0F900F900F900F909A
:103900000F900F90892B91F48091F10F882309F487
:1039100093C1BE016D577F4FCE018B599F4F0E94BF
:10392000EB2ACE018B599F4FE5D52AC08091DC0F41
:103930001F928F938AED96E09F938F931F930F931F
:103940000E944E5FB801C7010E94305F0F900F9038
:103950000F900F900F900F90892BC1F48091F20F70
:10396000882309F469C1BE016D577F4FCE018B5981
:103970009F4F0E94EB2ACE018B599F4F0E945825E2
:10398000CE018B599F4F0E94772A56C163EF76E094
:10399000CE018B599F4F0E94F32ABE016B597F4F76
:1039A000CE0183589F4F0E945D25F82ECE018B5982
:1039B0009F4F0E94772AFF2089F0BE016D577F4FED
:1039C000CE018F589F4F0E94EB2ACF57DF4F28819F
:1039D0003981C158D04043E150E08EC065E077E0C6
:1039E000CE018B599F4F0E94F32ABE016B597F4F26
:1039F000CE0183589F4F0E945D25F82ECE018B5932
:103A00009F4F0E94772AF1103FC066E177E0CE0118
:103A10008B599F4F0E94F32ABE016B597F4FCE01F5
:103A200083589F4F0E945D25F82ECE018B599F4FE2
:103A30000E94772AFF2089F0BE016D577F4FCE018B
:103A40008F589F4F0E94EB2ACF57DF4F2881398133
:103A5000C158D04047E150E04FC06CE277E0CE0162
:103A60008B599F4F0E94F32ABE016B597F4FCE01A5
:103A700083589F4F0E945D25F82ECE018B599F4F92
:103A80000E94772AFF2089F0BE016D577F4FCE013B
:103A90008F589F4F0E94EB2ACF57DF4F28813981E3
:103AA000C158D04042E150E027C06DE377E0CE013D
:103AB0008B599F4F0E94F32ABE016B597F4FCE0155
:103AC00083589F4FFAD7F82ECE018B599F4F0E94F3
:103AD000772AFF2009F443C0BE016D577F4FCE0106
:103AE0008F589F4F0E94EB2ACF57DF4F2881398193
:103AF000C158D04046E150E0BE0163587F4FCE012F
:103B000089589F4F0E94072BBE016F587F4FCE01EF
:103B100085599F4F0E94EB2ABE0169587F4FCE0105
:103B20008B599F4F0E94EB2ABE0165597F4FCE01F2
:103B30008B599F4F0E94862ECE018B599F4F0E941A
:103B4000772ACE0185599F4F0E94772ACE01895846
:103B50009F4F0E94772ACE018F589F4F14CF62E566
:103B600077E0CE018B599F4F0E94F32ABE016B591B
:103B70007F4FCE0183589F4FA0D7F82ECE018B598F
:103B80009F4F0E94772AFF2009F456C08091DC0FD6
:103B90001F928F9382E597E09F938F931F930F93CC
:103BA0000E944E5F64E677E0CE018B599F4F0E94E2
:103BB000F32ACE018B599F4F0E947B4DCE018B592A
:103BC0009F4F0E94772AB801CE018B599F4F0E94C8
:103BD000F32ABE016B597F4FCE0183589F4F6DD79B
:103BE0000F900F900F900F900F900F908823D9F0A7
:103BF000C957DF4F88819981C758D040892B99F0E8
:103C0000CD57DF4FE881F981C358D04080818823A8
:103C100051F0309721F410923B0CEBE3FCE011E003
:103C2000808180330CF410E0CE018B599F4F0E94AD
:103C3000772A11110E94CE2DCE018D579F4F0E94E1
:103C4000772ACE0183589F4F0E94772AC857DF4FAB
:103C50000FB6F894DEBF0FBECDBFDF91CF911F919D
:103C60000F91FF90EF90DF90CF900895411551058F
:103C700009F0DACD08958F929F92AF92BF92CF92C2
:103C8000DF92EF92FF920F931F93CF93DF9300D0B9
:103C900000D0CDB7DEB78C015B016C0182E0C80EAD
:103CA000D11CC6010E94CC31D8011296ED91FC9135
:103CB000139780818B3521F08B3709F483C013C1B2
:103CC000F8018681882309F468C081508683E080EA
:103CD000F180B70184E090E00E945632009709F429
:103CE00025C1FC01F182E082138212827C016BE526
:103CF000C601B2DA882309F450C06DE5C601ACDA1A
:103D0000811143C01A821982BE016F5F7F4FC801C3
:103D1000B2DF882309F441C0D7016D917C9188E01E
:103D200090E00E945632DC01892B39F011961C92EA
:103D30001E9213961C921E921297F70122813381D4
:103D40002115310551F0F90180819181009711F021
:103D50009C01F9CFB183A08303C0F701B383A28391
:103D60001097D9F086E0FE013196129601900D92DF
:103D70008A95E1F76DE5C6016FDA811106C06CE244
:103D8000C6016ADA8111BECF08C0D80116968C919F
:103D900016978F5F16968C9303C00E9444327C0165
:103DA000F70180819181892B11F4F12CC5C086E047
:103DB00090E0D50111969C938E931396FC92EE920F
:103DC0001297B1C0F8018681882309F47BC0815025
:103DD0008683E080F180B70184E090E00E94563253
:103DE000009709F4A6C0FC01F182E08213821282DE
:103DF0007C016BE7C60130DA882309F463C06DE704
:103E0000C6012ADA811159C0C8013CDA4C01892B5C
:103E100009F458C06AE3C6011FDA882309F452C0C6
:103E20001A821982BE016F5F7F4FC80124DF882389
:103E300009F448C0B401C7010E94B732009749F5A0
:103E4000D7016D917C918AE090E00E9456320097F4
:103E500029F0FC011182108215821482D70112967A
:103E6000ED91FC911397309751F02081318121150C
:103E7000310511F0F901F9CF9183808303C0F70177
:103E8000938382830097F1F0DC0113969C928E92CB
:103E9000129726E0FE013196DC01149601900D92F6
:103EA0002A95E1F76DE7C601D7D9811106C06CE20A
:103EB000C601D2D98111A8CF05C0F80186818F5FD4
:103EC000868303C00E9432327C01D7018D919C9180
:103ED000892B09F46ACF87E090E0F5019183808314
:103EE000F382E28220C0FF24F394873219F08232F9
:103EF00009F0F12CC801C6D9009709F456CFFF206C
:103F000059F022E030E0D50111963C932E931396A0
:103F10009C938E93129710C021E030E0F50131831D
:103F2000208393838283FF24F39406C00E9444324B
:103F3000DDCE0E9432325CCF8F2D26960FB6F894DC
:103F4000DEBF0FBECDBFDF91CF911F910F91FF90CC
:103F5000EF90DF90CF90BF90AF909F908F9008959B
:103F6000CF92DF92EF92FF920F931F93CF93DF9345
:103F7000CDB7DEB7C55FD1090FB6F894DEBF0FBE6F
:103F8000CDBF9E01275F3F4F3C832B8328EC30E061
:103F90003E832D8318861F822EE532E03A832983E3
:103FA000DC018D919C91009711F485E494E09E01D1
:103FB0002F5F3F4FCF52DF4F39832883C15DD04001
:103FC000CD52DF4F99838883C35DD040CB52DF4F02
:103FD00039832883C55DD0408AE0C952DF4F88838A
:103FE000C75DD040C852DF4F19821882C85DD040EB
:103FF000BE0168527F4FCE018F529F4F3CDE86E05C
:10400000FE01E852FF4FDE01AC51BF4F01900D920F
:104010008A95E1F786E0FE01EC51FF4FDE01A651E3
:10402000BF4F01900D928A95E1F786E0FE01E651BF
:10403000FF4FDE01A051BF4F01900D928A95E1F72D
:10404000C051DF4F88819981C05FD040079739F414
:10405000CE50DF4FE880F980C25FD04003C00E949D
:1040600032327C016AE677E0C7010E94223388235E
:1040700009F4ADC06AE677E0C70115DA9093F80F4E
:104080008093F70FBC01CE0188529F4F0E94C34C12
:1040900061E777E0CE018F529F4F0E94F32ABE0165
:1040A00068527F4FCE018F529F4F0E942E2ABC0133
:1040B000CE0182529F4F0E94EB2ACE0182529F4F27
:1040C0000E947B4DCE0182529F4F0E94772ACE01E3
:1040D0008F529F4F0E94772ACE0188529F4F0E9495
:1040E000772A10920410109203108091F30F909190
:1040F000F40F892B19F100E010E02091F70F3091B7
:10410000F80F8091F30F9091F40F02171307A4F4A6
:104110009801220F331FFC01E20FF31F8081918170
:10412000009739F0DC01ED91FC910688F789E02DCC
:1041300019950F5F1F4FE1CF0E942C566091F70F2A
:104140007091F80FCE0188529F4F0E94C34C69E8CE
:1041500077E0CE018F529F4F0E94F32ABE01685232
:104160007F4FCE018F529F4F0E942E2ABC01CE015D
:1041700082529F4F0E94EB2ACE0182529F4F0E9493
:104180007B4DCE0182529F4F0E94772ACE018F52E3
:104190009F4F0E94772ACE0188529F4F0E94772A14
:1041A0008091F70F9091F80F8138BFE39B0718F4C7
:1041B000880F991F02C08FEF9FEF0E949455909334
:1041C000F40F8093F30F81E080933D0C83C18091C5
:1041D0003D0C882309F47EC167E977E0C7010E949E
:1041E0002233882309F476C16CE977E0C7010E9485
:1041F0002233882309F46EC1C0900310D0900410BC
:10420000CC0CDD1C8091F30F9091F40FC80ED91ED9
:1042100067E977E0C7013DD9FC018081823451F51F
:1042200080E190E00E9494558C0180E1F8011192A8
:104230008A95E9F7D80116961C92169788EE92E0B7
:104240008D939C930115110599F46FE977E0CE01E8
:104250008F529F4F0E94F32ACE018F529F4F0E9490
:10426000994DCE018F529F4F0E94772A0E94CE2DEA
:1042700082E4D5C0823559F589E090E00E949455DA
:104280008C0189E0D8011D928A95E9F7F801168220
:1042900088E093E0918380830115110599F468EB20
:1042A00077E0CE018F529F4F0E94F32ACE018F52AA
:1042B0009F4F0E94994DCE018F529F4F0E94772AA7
:1042C0000E94CE2D82E5D80114968C93ADC0813327
:1042D00051F582E190E00E9494558C0182E1F80151
:1042E00011928A95E9F7D80116961C92169788ECD8
:1042F00092E08D939C930115110599F460ED77E0A0
:10430000CE018F529F4F0E94F32ACE018F529F4FB2
:104310000E94994DCE018F529F4F0E94772A0E9492
:10432000CE2D81E37CC0843569F587E190E00E9461
:1043300094558C0187E1D8011D928A95E9F7F8011F
:104340001682108A138A148A158A168A86EA92E0DF
:10435000918380830115110599F46EEE77E0CE010B
:104360008F529F4F0E94F32ACE018F529F4F0E947F
:10437000994DCE018F529F4F0E94772A0E94CE2DD9
:1043800084E54DC0803509F04DC084E190E00E9485
:1043900094558C01DC0116961C92169784E692E0E7
:1043A00011969C938E9317961C92179718961C92B1
:1043B000189719961C92199781E090E01B969C9390
:1043C0008E931A971D961C921E921C9788E294E079
:1043D0001F969C938E931E978AE050968C935097CD
:1043E00051968C93519752968C93529753968C93E7
:1043F0000115110599F464E178E0CE018F529F4FC9
:104400000E94F32ACE018F529F4F0E94994DCE01F8
:104410008F529F4F0E94772A0E94CE2D80E5F8018F
:10442000848302C000E010E0D6010D931C93E0915C
:104430000310F0910410EE0FFF1F8091F30F909185
:10444000F40FE80FF91F0081118101151105F1F03A
:104450006CE977E0C7010E94F319F8019383828326
:10446000E0910310F0910410EE0FFF1F8091F30F05
:104470009091F40FE80FF91F80819181DC01ED919B
:10448000FC91028CF38DE02DB701199580910310FA
:104490009091041001969093041080930310209142
:1044A000F70F3091F80F82179307A1F462E378E0D9
:1044B000CE018F529F4F0E94F32ACE018F529F4F01
:1044C0000E947B4DCE018F529F4F0E94772A81E040
:1044D0008093EF0FCB50DF4F0FB6F894DEBF0FBEC7
:1044E000CDBFDF91CF911F910F91FF90EF90DF90A3
:1044F000CF9008952091F10F211132CD0895EF92C0
:10450000FF920F931F93CF93DF93CDB7DEB7C55FB5
:10451000D1090FB6F894DEBF0FBECDBF9E01275F55
:104520003F4F3C832B8328EC30E03E832D8318865D
:104530001F822EE532E03A832983FC01808191813C
:10454000009711F485E494E09E012F5F3F4FCF5216
:10455000DF4F39832883C15DD040CD52DF4F99832F
:104560008883C35DD040CB52DF4F39832883C55D3C
:10457000D0408AE0C952DF4F8883C75DD040C8521F
:10458000DF4F19821882C85DD040BE0168527F4F4C
:10459000CE018F529F4F6FDB86E0FE01E852FF4F46
:1045A000DE01AC51BF4F01900D928A95E1F786E094
:1045B000FE01EC51FF4FDE01A651BF4F01900D925D
:1045C0008A95E1F786E0FE01E651FF4FDE01A0513A
:1045D000BF4F01900D928A95E1F7C051DF4F88815E
:1045E0009981C05FD040079739F4CE50DF4F0881E2
:1045F0001981C25FD04003C00E9432328C016AE64A
:1046000077E0C8010E942233882309F4A2C06AE639
:1046100077E0C8010E94531ABC01CE0188529F4F17
:104620000E94C34C6EE478E0CE018F529F4FDBD7DF
:10463000BE0168527F4FCE018F529F4F0FD7BC01F2
:10464000CE0182529F4FC7D7CE0182529F4F0E9408
:104650007B4DCE0182529F4F4AD7CE018F529F4F42
:1046600046D7CE0188529F4F42D76AE677E0C8010D
:104670000E94531A9093FA0F8093F90F109206102C
:10468000109205108091F50F9091F60F892BF1F0A3
:1046900000E010E02091F90F3091FA0F8091F50FB2
:1046A0009091F60F021713077CF49801220F331F25
:1046B000FC01E20FF31F80819181009711F00E94AD
:1046C0002C560F5F1F4FE6CF0E942C566091F90FBA
:1046D0007091FA0FCE0188529F4F0E94C34C66E53D
:1046E00078E0CE018F529F4F7ED7BE0168527F4F38
:1046F000CE018F529F4FB2D6BC01CE0182529F4F46
:104700006AD7CE0182529F4F0E947B4DCE018252CA
:104710009F4FEDD6CE018F529F4FE9D6CE018852E2
:104720009F4FE5D68091F90F9091FA0F8138FFE302
:104730009F0718F4880F991F02C08FEF9FEF0E9408
:1047400094559093F60F8093F50F81E080933C0C85
:104750001FC180913C0C882309F41AC16CE977E0F1
:10476000C8010E942233882309F412C18BE090E033
:104770000E9494552BE0FC0111922A95E9F72091B3
:10478000051030910610220F331FE091F50FF091C4
:10479000F60FE20FF31F918380838091F50F9091C4
:1047A000F60FFC01E20FF31F80819181892B09F440
:1047B000CDC06CE977E0C8010E9422338823B1F0B4
:1047C000E0910510F0910610EE0FFF1F8091F50F9C
:1047D0009091F60FE80FF91FE080F1806CE977E027
:1047E000C8010E94F319F7019183808366E678E09F
:1047F000C8010E9422338823B1F0E0910510F091A6
:104800000610EE0FFF1F8091F50F9091F60FE80F45
:10481000F91FE080F18066E678E0C8010E94F31994
:10482000F701938382836FE678E0C8010E94223308
:104830008823B9F0E0910510F0910610EE0FFF1FEC
:104840008091F50F9091F60FE80FF91FE080F1804D
:104850006FE678E0C8010E94491AFC018081F701E7
:1048600084836AE778E0C8010E9422338823A9F094
:10487000E0910510F0910610EE0FFF1F8091F50FEB
:104880009091F60FE80FF91FE080F1806AE778E079
:10489000C8010E94DE32F701858360E878E0C80134
:1048A0000E9422338823B1F0E0910510F0910610A8
:1048B000EE0FFF1F8091F50F9091F60FE80FF91F93
:1048C000E080F18060E878E0C8010E94F319F70108
:1048D0009783868369E878E0C8010E9422338823A1
:1048E000B9F0E0910510F0910610EE0FFF1F8091D6
:1048F000F50F9091F60FE80FF91FE080F18069E85D
:1049000078E0C8010E94DE3290E0F701918780874D
:1049100066E978E0C8010E9422338823B9F0E0916B
:104920000510F0910610EE0FFF1F8091F50F90918A
:10493000F60FE80FF91FE080F18066E978E0C80122
:104940000E94491AFC018081F7018287809105103D
:104950009091061001969093061080930510209177
:10496000F90F3091FA0F8217930791F461EA78E01A
:10497000CE018F529F4F37D6CE018F529F4F0E944C
:104980007B4DCE018F529F4FB2D581E08093F00FC7
:10499000CB50DF4F0FB6F894DEBF0FBECDBFDF9117
:1049A000CF911F910F91FF90EF900895CF92DF92DA
:1049B000EF92FF920F931F93CF93DF936C017A01D5
:1049C0008B01C0E0D0E0CE15DF0581F0D8016D91FC
:1049D0008D01D601ED91FC910190F081E02DC60191
:1049E0001995892B11F02196EECF7E01C701DF9139
:1049F000CF911F910F91FF90EF90DF90CF9008958E
:104A00000F931F93CF93DF93EC01888199810097D7
:104A100029F02A813B812617370788F48B016F5FC5
:104A20007F4F0E94275E009761F0998388831B83E4
:104A30000A832C813D81232B11F4FC01108281E03B
:104A400001C080E0DF91CF911F910F910895CF9326
:104A5000DF93EC0188819981009711F00E942C5618
:104A6000198218821D821C821B821A82DF91CF91CB
:104A70000895EF92FF920F931F93CF93DF93EC0172
:104A80007B018A01BA01BCDF811103C0CE01DFDFE7
:104A900007C01D830C83B701888199810E94395F0B
:104AA000CE01DF91CF911F910F91FF90EF9008956C
:104AB0002091F20F211123CD0895FB0144815581EE
:104AC000FC01248135812417350778F0808191819C
:104AD000009759F0FB01608171816115710529F022
:104AE0000E94405F21E0892B09F020E0822F089589
:104AF000BF92CF92DF92EF92FF920F931F93CF93CB
:104B0000DF93EC016B018D85811105C0CE010E9400
:104B1000EA42811105C01B861D861C8680E060C0AC
:104B200040E060EFCE010E94C30E01E0E12CB12C09
:104B300011E0CE010E94140FF82ECE010E94140F36
:104B400091E0F91203C08130B1F434C02E2D30E071
:104B5000F8121BC08B85181738F4FE01E20FF31F03
:104B60008381802341F402C0811729F0F12C193090
:104B700058F41C8709C0FE01EE0DF11D8381802BC6
:104B80008383FF24F39409C0B12EFE01E20FF31FCB
:104B90009381802F8095892383836F2DCE010E947E
:104BA000BB421F5F000F11F4E39401E087E08E1514
:104BB00008F0BFCF113408F4AECFBB86B11002C0ED
:104BC00081E08D878B81882309F4A5CFDE011396C0
:104BD000F6012B968D918193CA17DB07D9F781E0F7
:104BE000DF91CF911F910F91FF90EF90DF90CF90C9
:104BF000BF9008951F93CF93DF93EC01162F688524
:104C0000111102C081E068278F810E9479101D83F5
:104C1000CE01D5D7612F8A819B81DF91CF911F91E2
:104C20000C94342F4F925F926F927F928F929F924B
:104C3000AF92BF92CF92DF92EF92FF920F931F93AA
:104C4000CF93DF93CDB7DEB763970FB6F894DEBF8F
:104C50000FBECDBF7C015B013A01FB0120E080E08B
:104C600090E06AE03191332309F140ED430F4A307F
:104C700080F4689FA001699F500D1124CA01C0975C
:104C8000830F911D37FD9A958F3F910559F350F38E
:104C900013C03E3289F4233079F0D301A20FB11D45
:104CA00012968C932F5F80E090E0DCCF233021F4CC
:104CB000F301858381E021C0F70142815381648142
:104CC00075818091210F9091220FA091230FB091B7
:104CD000240F481759076A077B0709F491C10E94FE
:104CE0001B118701085F1F4F6F7077277C5FC8011A
:104CF0000E94F40A813019F080E090E0D9C188E286
:104D000094E09A838983F70182819381A481B5819C
:104D10008B839C83AD83BE8345E350E0BE016F5F10
:104D20007F4FC8010E94930C892B19F4C12CD12C00
:104D300062C10E941B11F7017783668342E050E055
:104D4000B7016A5F7F4FC8010E94110C81E090E0BB
:104D50009A83898342E050E0BE016F5F7F4FC801B4
:104D60000E94110C80E091E09A83898342E050E038
:104D7000BE016F5F7F4FC8010E94110C1A82198219
:104D800042E050E0BE016F5F7F4FC8010E94110CEE
:104D900042E050E0BE016F5F7F4FC8010E94110CDE
:104DA00042E050E0BE016F5F7F4FC8010E94110CCE
:104DB0004501F5018081882301F164015601F60166
:104DC00081912F01882321F08E3211F06201F6CFFC
:104DD000C818D9081C141D0474F4CD8641E050E0B5
:104DE000BE01635F7F4FC8010E94110CA601B40190
:104DF000C8010E94110C4201DCCF1D8641E050E049
:104E0000BE01635F7F4FC8010E94110CC12CDD24DD
:104E1000D394DA82C98242E050E0BE016F5F7F4FD7
:104E2000C8010E94110CDA82C98242E050E0BE0142
:104E30006F5F7F4FC8010E94110CC8010E94560C81
:104E4000892B09F473CFE3E0AE2EB12C230122E0CD
:104E5000420E511C0E941B113B014C01C8010E94D3
:104E6000310A18161906A4F00E941B11DC01CB01AF
:104E700086199709A809B90989389341A105B1058F
:104E8000D0F462E370E080E090E00E94E310E6CFAF
:104E9000F7014281538164817581808D918DA28D4E
:104EA000B38D481759076A077B0749F4848D958DA0
:104EB000C59729F409C0CC24CA94DC2C93C05EEFBA
:104EC000C52EDD24DA948EC0F70181A192A10C9742
:104ED0000CF4E9C04CE050E0BE016F5F7F4FC801A9
:104EE0000E94BD098B819C819827892798279A8BDE
:104EF000898BF7014681578129813A8142175307EF
:104F000009F0C2C097FFC0C08F709270892B09F062
:104F1000C0C06F807884762467247624611471047D
:104F200009F4BCC0C12CD12C8D819E819827892782
:104F30009827C816D90608F466C0812C912C41E048
:104F400050E0BE016D5E7F4FC8010E94BD094B89D4
:104F5000842F807C09F076C0442331F050E060E07B
:104F600070E0C8010E94BD098B898111E8CF42E041
:104F700050E0BE01615F7F4FC8010E94BD0942E061
:104F800050E0BE01635F7F4FC8010E94BD0944E04D
:104F900050E060E070E0C8010E94BD0942E050E0CE
:104FA000BE016F5E7F4FC8010E94BD098F85988941
:104FB00049895A898115914009F04DC0CD84DE841C
:104FC000DC24CD24DC2481E0C816D10409F043C0E0
:104FD0004115544009F053C044E050E0B201C8010B
:104FE0000E94BD0921E0A21AB10829F0FFEFCF16F7
:104FF000DF0609F42FCFC8010E948609C60158C0F8
:105000008EEF9FEF55C041E050E0BE01635F7F4FE0
:10501000C8010E94BD094D85442331F050E060E095
:1050200070E0C8010E94BD098D858111ECCF44E07C
:1050300050E060E070E0C8010E94BD09FFEFCF1AA8
:10504000DF0A72CF41E050E060E070E0C8010E94EA
:10505000BD091B8A89CF54274527542760E070E09B
:10506000C8010E94BD09FFEF8F1A9F0A68147904D6
:1050700009F065CF96EFC92EDD24DA94B3CF77EF30
:10508000C72EDD24DA94AECF4CEFC42EDD24DA94A3
:10509000A9CF3BEFC32EDD24DA94A4CF2AEFC22E92
:1050A000DD24DA949FCF8DEFC82EDD24DA949ACFD9
:1050B00063960FB6F894DEBF0FBECDBFDF91CF91E0
:1050C0001F910F91FF90EF90DF90CF90BF90AF9026
:1050D0009F908F907F906F905F904F900895FC010C
:1050E00088E294E091838083128213821482158275
:1050F0001386128648EE53E060E070E044875587DF
:10510000668777872EE233E031872087978B868BFF
:10511000108E118E128E138E88E080A308958F92C8
:105120009F92AF92BF92CF92DF92EF92FF920F9336
:105130001F93CF93DF93CDB7DEB760970FB6F89488
:10514000DEBF0FBECDBF7C019091890C992309F47D
:10515000B8C0933311F008E001C004E05B01CE0158
:1051600001960E94CC4B89819A810E940E0C9E016F
:105170002F5F3F4F6901490110E063E070E0812F2C
:105180000E945314F40181934F018823C9F01F5FDB
:105190000113F3CF10E0F60181916F018D3159F0C9
:1051A000883149F08A51823030F01F5F0113F3CF0C
:1051B0000E940D0C86C060E170E0812F0E94701487
:1051C000C12ED12C83EE93E00197F1F742E860E025
:1051D00070E0812F0E9436144FEF62E070E0812F63
:1051E0000E943614A114B10411F0B50113C08091CE
:1051F00000029091010201968115F0EC9F0710F4D6
:1052000080E090EC90930102809300026091000294
:1052100070910102812F0E94211486E0E4E2F3E004
:10522000DE01199601900D928A95E1F7F7018381CD
:105230008F778C8784818D8785818E87A7014E5FCC
:105240005F4F24E030E06CE070E0812F0E947F131C
:10525000B501812F0E940C1426E030E0AE01475FBB
:105260005F4F66E070E0812F0E947F1361E070E085
:10527000812F0E94701427E02C9DC0012D9D900D60
:1052800011249C01225C334F7901F90111821082B3
:1052900022E030E0AE01415F5F4F68E270E0812FB5
:1052A0000E94FC0B8F859889982789279827F701FA
:1052B000938382831682158214820E940D0C812FA3
:1052C00001C088E060960FB6F894DEBF0FBECDBF78
:1052D000DF91CF911F910F91FF90EF90DF90CF90D2
:1052E000BF90AF909F908F900895FC01A089B189E5
:1052F0008C91A689B78982FD0FC09C91818D8F5FAB
:105300008F73228D821749F0218DDF01A20FB11D0D
:105310005D969C93818F08958C9108958F929F92B2
:10532000AF92BF92EF92FF920F931F93CF93DF93B1
:10533000CDB7DEB7A1970FB6F894DEBF0FBECDBFD5
:105340007C01FA01CB0119A2223008F42AE08E0177
:105350000F5D1F4F822E912CA12CB12CBF01A501F6
:1053600094010E94995CF901CA01015011096A3047
:1053700014F4605D01C0695CD8016C93232B242B6D
:10538000252B61F70115110591F0F801019000201E
:10539000E9F73197AF01401B510BD701ED91FC911B
:1053A0000280F381E02DB801C701199502C080E0A9
:1053B00090E0A1960FB6F894DEBF0FBECDBFDF918F
:1053C000CF911F910F91FF90EF90BF90AF909F9062
:1053D0008F900895EF92FF920F931F93CF93DF93D7
:1053E0006115710511F480E01BC041155105B9F03C
:1053F0007B01EC018C819D818A01080F191FB80186
:10540000CE01FEDA882379F3288139818C819D8150
:10541000B701820F931F0E94395F1D830C8381E0C7
:10542000DF91CF911F910F91FF90EF900895CF934F
:10543000DF93EC016115710559F0FB01019000202B
:10544000E9F73197AF01461B570BC4DF811102C04A
:10545000CE01FDDACE01DF91CF910895CF93DF9396
:10546000EC01FB014481558160817181B3DF8111C1
:1054700002C0CE01ECDACE01DF91CF910895611523
:10548000710549F0FB0101900020E9F73197AF0168
:10549000461B570B9FCF80E00895CF93DF93EC011D
:1054A0006115710551F0FB0101900020E9F731977A
:1054B000AF01461B570BDDDA01C0C9DACE01DF911F
:1054C000CF910895CF93DF93EC01FB0186179707E7
:1054D00051F0608171816115710521F04481558120
:1054E000C8DA01C0B4DACE01DF91CF910895FC0192
:1054F000808191810C942C560F931F93CF93DF934F
:10550000CDB7DEB761970FB6F894DEBF0FBECDBF43
:105510008C01CB01F8011182108213821282158254
:10552000148250E0BE016F5F7F4F0E94D758BE01CA
:105530006F5F7F4FC801B1DF61960FB6F894DEBF91
:105540000FBECDBFDF91CF911F910F9108950F93A3
:105550001F93CF93DF93CDB7DEB729970FB6F8949B
:10556000DEBF0FBECDBF8C01862FF80111821082E5
:10557000138212821582148250E0BE016F5F7F4F4A
:1055800090E00E94D758BE016F5F7F4FC80185DF52
:1055900029960FB6F894DEBF0FBECDBFDF91CF9135
:1055A0001F910F910895CF93DF931F921F92CDB754
:1055B000DEB7FC01118210821382128215821482DE
:1055C00069831A82BE016F5F7F4F67DF0F900F9074
:1055D000DF91CF910895FC01118210821382128213
:1055E000158214826FCFFC01118210821382128205
:1055F000158214826115710549F0FB0101900020AC
:10560000E9F73197AF01461B570B33CA0895BF9294
:10561000CF92DF92EF92FF920F931F93CF93DF937E
:105620007C016B018A01E9012417350720F4812FE1
:105630008901C42FD82F65E474E0C701D4DFD601F7
:1056400014968D919C91159708171907C0F48C1723
:105650009D0708F4EC01D601ED91FC911197EC0F38
:10566000FD1FB08010826D917C91600F711FC7018A
:1056700014DFD601ED91FC91EC0FFD1FB082C70144
:10568000DF91CF911F910F91FF90EF90DF90CF901E
:10569000BF900895AF92BF92DF92EF92FF920F9367
:1056A0001F93CF93DF9300D000D0CDB7DEB75B015F
:1056B0007C0100E010E00E5F1F4FA801425051092D
:1056C0009801B501CE010196A2DF40E150E060E013
:1056D00070E089819A810E945157D62ECE010196A1
:1056E00006DFF701D1927F010031110521F72696DF
:1056F0000FB6F894DEBF0FBECDBFDF91CF911F91E3
:105700000F91FF90EF90DF90BF90AF900895A09120
:10571000F30FB091F40F1097B9F02091EF0F2223FF
:1057200099F04091F70F5091F80F20E030E02417E6
:10573000350754F4ED91FD91628173816817790703
:1057400029F02F5F3F4FF3CFE0E0F0E0CF01089565
:10575000CF92DF92EF92FF920F931F93CF93DF933D
:10576000CDB7DEB7C654D1090FB6F894DEBF0FBE71
:10577000CDBFFC0182819381A481B58123968CAF3A
:105780009DAFAEAFBFAF239721E023962FAF2397F6
:1057900023964CAD5DAD6EAD7FAD23974BAB5CAB4F
:1057A0006DAB7EAB89AF9AAFABAFBCAF8DA79EA7F9
:1057B000AFA7B8AB28AB4DA55EA56FA578A94FA341
:1057C00058A769A77AA72EAB4BA95CA96DA97EA99A
:1057D00049A35AA36BA37CA38B8F9C8FAD8FBE8FE5
:1057E00048E254E05C8B4B8B3FEF3D8B3E8B3F8B15
:1057F000188E5E874D872AA7CFA0D8A4E9A4FAA463
:10580000CF86D88AE98AFA8A2CA309A11AA12BA1EA
:105810003CA109871A872B873C875A8349838B834E
:105820009C83AD83BE8380918C0C81110DC160E39C
:1058300072E080E090E00E94E3101FB7F89480913E
:105840008B0C811127C0E7E2F3E08491E1EEF2E0F6
:105850009491E82FF0E0EE0FFF1FEE56FD4FA5915B
:10586000B491EC91E92321F461E085E30E94791081
:1058700061E085E30E94A7108CB580618CBD8CB57A
:1058800080648CBD61E084E30E94A71061E083E343
:105890000E94A71080918B0C8F5F80938B0C1FBF91
:1058A000ECEFF2E0E491F0E0EE0FFF1FE858FD4F5F
:1058B000859194919093880C8093870CE6EBF2E0AD
:1058C000E491E093860C61E08AE00E94A7100E94B8
:1058D0007111CE018D5B9F4F0E94CC4B25968EADF2
:1058E0009FAD25970E940E0C84E38093890C0E9443
:1058F000D012882319F188E00E94BE120E94AC12D7
:105900008830E1F480E10E94BE120E94AC12803126
:10591000A9F480E00E94BE120E94AC1281110EC058
:1059200041E050E0BE016D5B7F4F8FE190E00E944F
:105930007B1124968FAD24978330A1F187E3809368
:10594000890C0E94D012882309F440C088E00E948C
:10595000BE120E94AC128830C9F580E10E94BE12CE
:105960000E94AC12182F803189F580E00E94BE128F
:105970000E94AC1281112AC041E050E0BE016D5B73
:105980007F4F89E390E00E947B1124968FAD24978E
:105990008430E1F410938A0C0E940D0C81E0809316
:1059A0008C0C52C080E480938A0C10E042E06EE1DF
:1059B00070E0812F0E94361442E06FE170E0812F89
:1059C0000E9436141F5F183089F7E6CF83E3809377
:1059D000890C0E94D012882391F180E10E94BE12AE
:1059E0000E94AC12803159F582E10E94BE120E94E1
:1059F000AC12823121F580E00E94BE120E94AC12EE
:105A000081111DC084E080938A0C15E527961FAF95
:105A1000279741E050E0BE016A5B7F4F8BE190E049
:105A20000E94FD1126961FAF269741E050E0BE016F
:105A30006B5B7F4F8AE190E00E94FD11ADCF109229
:105A4000890C0E940D0C3EC0CE018D5B9F4F0E94C1
:105A5000CC4B25968EAD9FAD25970E940E0C46E04F
:105A600050E063EE7FE089E090E00E94FD1144E0A9
:105A700050E0BE016D5F7F4F8FE090E00E94FD110E
:105A800044E050E0BE01615F7F4F81E090E00E9402
:105A9000FD1144E050E0BE016B5E7F4F85E090E079
:105AA0000E94FD110E940D0C81E08C8789859A85EA
:105AB000AB85BC8580931B0F90931C0FA0931D0F8B
:105AC000B0931E0FCA5BDF4F0FB6F894DEBF0FBE58
:105AD000CDBFDF91CF911F910F91FF90EF90DF909D
