:100000001AC2000049C2000047C2000045C20000F9
:1000100043C2000041C200003FC200003DC20000D8
:100020003BC200000C94CD3D0C94CD3D0C94CD3DD5
:1000300033C2000031C200002FC200000C946B0DCF
:100040002BC2000029C2000027C2000025C2000008
:1000500023C2000021C200001FC200000C94823D98
:100060001BC200000C94252B0C94FB2A15C2000027
:1000700013C2000011C200000FC200000DC2000038
:100080000BC2000009C2000007C2000005C2000048
:100090000C94D12A0C94A72AFFC10000FDC10000D6
:1000A000FBC10000F9C10000F7C10000F5C100006C
:1000B000F3C10000F1C10000EFC10000EDC100007C
:1000C000EBC10000E9C10000E7C100000C947D2AEB
:1000D0000C94532AE1C100000C94292A0C94FF29A6
:1000E000DBC10000EF03E9031704F703F403A403E3
:1000F000C1036B03993C9C3C8B3C8F3C953CD33CAF
:10010000A03CA43CAA3CAE3CB23CB83CBC3CC03C8D
:10011000D33CC63CCA3CCE3C00407A10F35A00A007
:10012000724E18090010A5D4E80000E876481700C0
:1001300000E40B54020000CA9A3B000000E1F50500
:10014000000080969800000040420F000000A0864A
:1001500001000000102700000000E803000000007C
:100160006400000000000A00000000000100000020
:1001700000002C76D888DC674F0823DFC1DFAE593A
:10018000E1B1B796E5E3E453C63AE651997696E8CD
:10019000E6C28426EB898C9B62ED407C6FFCEFBC51
:1001A0009C9F40F2BAA56FA5F490055A2AF75C937C
:1001B0006B6CF9676DC11BFCE0E40D47FEF520E6B2
:1001C000B500D0ED902E0300943577050080841E95
:1001D000080000204E0A000000C80C333333330FF0
:1001E000986E12831141EF8D2114893BE65516CF8D
:1001F000FEE6DB18D1844B381BF77C1D901DA4BB99
:10020000E424203284725E228100C9F124ECA1E54D
:100210003D27000020002300260029002C002F008D
:10022000320000010000030106010901005EBCE28A
:10023000613FDD83C29C7E20A3FD1F419DC3217FC2
:10024000FCA2401E5F01E3BD3E6082DC237D9FC1B6
:10025000421CFEA0E1BF5D0380DE3C62BEE0025CAA
:10026000DF81633D7C22C09E1D43A1FF4618FAA496
:1002700027799BC584DA3866E5BB5907DB85673982
:10028000BAE406581947A5FB7826C49A653BD98776
:10029000045AB8E6A7F91B45C6987A24F8A6441A6A
:1002A00099C7257B3A6486D85B05E7B98CD2306E56
:1002B000EDB3510F4E10F2AC2F7193CD114FADF342
:1002C000702ECC92D38D6F31B2EC0E50AFF1134D36
:1002D000CE90722C6D33D18F0C52B0EE326C8ED02A
:1002E000530DEFB1F0AE4C1291CF2D73CA94762816
:1002F000ABF517490856B4EA6937D58B5709EBB502
:1003000036688AD495CB2977F4AA4816E9B7550BF5
:1003100088D6346A2B7597C94A14F6A8742AC896E9
:10032000154BA9F7B6E80A54D7896B3500002200AF
:10033000250028002B002E003100340002010000AF
:10034000050108010B0100002100240027002A00FC
:100350002D003000330001010000040107010A01F3
:1003600001021020200808102040102040800201C7
:1003700002010804020101020408102040808040AC
:1003800020100804020180040201804020100804AB
:100390000201080402010102040810204080010249
:1003A0000408102040800505050507050808080811
:1003B000020202020A0A08080404040401010101FD
:1003C00001010101030303030303030304070707F8
:1003D0000C0C0C0C0C0C0C0C02020202060606069D
:1003E000060606060B0B0B0B0B0B0B0B00000A0B88
:1003F00002090C0D0E0807030401000000000000B4
:1004000000000000000000000000000000000000EC
:1004100000000000000000001211100000000000A9
:1004200000000000000000000000000000000000CC
:100430000000364EAC4911241FBECFEFD1E2DEBF23
:10044000CDBF00E00CBF1BE0A0E0B2E0E4EBF9EBB5
:1004500000E00BBF02C007900D92AC3AB107D9F78C
:1004600020E1ACEABBE001C01D92A136B207E1F782
:1004700012E0CAE1D2E000E006C021970109802F16
:10048000FE010E94BC58C931D10780E00807A9F7D6
:100490000E94B0490C94C95CB3CD0895FC0126813B
:1004A0003781620F731F848195818617970738F013
:1004B0008281938177836683820F931F089580E002
:1004C00090E008950895FC01158616861786108A17
:1004D0001286108617820895FC0176876587089535
:1004E000DC01ED91FC91068CF78DE02D199591E0E2
:1004F00089270895862F089581E08627089521E0B1
:10050000FC018485883008F020E0822F089580E087
:1005100090E008950C94E1500C94E1500F931F93D8
:10052000CF93DF931F921F92CDB7DEB78C01DC0112
:10053000ED91FC918081918169831A8241E050E0C4
:10054000BE016F5F7F4F0E946D35F80182819381FC
:100550000196938382830F900F90DF91CF911F912B
:100560000F910895EF92FF920F931F93CF93DF9314
:10057000EC0108811981D8018D919C91FC01E480E6
:10058000F5800E94C235D801ED91FC91248135811E
:100590008A819B81820F931F8E199F099B838A8377
:1005A000DF91CF911F910F91FF90EF9008950F93DE
:1005B0001F93CF93DF93CDB7DEB766970FB6F8944E
:1005C000DEBF0FBECDBF9C01CB011E8AFE01769619
:1005D0000AE010E0B8010E94A958805D8293CB0127
:1005E0000097C1F7BF01C901BDDF66960FB6F89449
:1005F000DEBF0FBECDBFDF91CF911F910F91089548
:10060000FF920F931F93CF93DF936115710541F410
:100610006AEE73E0DF91CF911F910F91FF90A2CF0F
:100620008B01EC0162E2CE0179DFF80161918F016B
:10063000662351F0EBEDF3E0F080FF20A1F3818120
:10064000681751F03296F8CF62E2CE01DF91CF9178
:100650001F910F91FF9062CF6CE5CE015FDF6F2D90
:10066000E2CFCF93DF93EC018A819B810E947524B6
:1006700018861F82CE01DF91CF910C9473210895CB
:100680002F923F924F925F926F927F928F929F92A2
:10069000AF92BF92CF92DF92EF92FF920F931F9390
:1006A000CF93DF93CDB7DEB769970FB6F894DEBF6F
:1006B0000FBECDBFDC01ED91FC9111973197E83071
:1006C000F10508F031C28B017C018827EE58FF4FFD
:1006D0008F4F0C94BC58FD01C280D380E480F5801C
:1006E000A7019601C701B6010E941A56882319F086
:1006F0006AEF73E0AAC020E030E0A901C701B601AB
:100700000E941A5687FF07C06DE2C80107DFF7FA9B
:10071000F094F7F8F09420E030E0A901C701B601A9
:100720000E941A56882309F493C0A7019601C701B5
:10073000B6010E94A857A70196010E941A5681117E
:1007400087C061E074E081C01296ED90FC90139731
:100750006BE5C801E3DEF701E280F380E114F10408
:1007600071F0B801C70102968BDFD701ED90FC90C4
:10077000E114F10421F06CE2C801D0DEEFCF6DE5A9
:1007800025C0FD01E280F3806BE7C801C7DED70119
:100790001296ED90FC901397E114F104B1F0F7017B
:1007A00062817381C8012CDF6AE3C801B7DEB8013A
:1007B000C701049665DFD701ED90FC90E114F104C8
:1007C00021F06CE2C801AADEE7CF6DE7C801A6DE22
:1007D000ABC1FD0162817381C80112DFA5C1129610
:1007E0006D917C91139731C06DE2C80197DEF701DE
:1007F00062817381848195811E8A7E01F6E1EF0E0C
:10080000F11C3AE0832E912CA12CB12CA50194016E
:100810000E944A57605DD7016E937D01B901CA01FC
:10082000611571058105910589F7BD010EC0FD01B6
:1008300082819381A481B581892B8A2B8B2B19F41A
:1008400064EF73E002C06FEE73E0C8018BDE6CC131
:1008500020E836E948E15BE4C701B6010E94A558EB
:1008600087FF2FC1F0E26F2E712CA5E09A2E212C6C
:10087000312C20E030E0A901C701B6010E94A55843
:10088000181694F52CEA35EC47E257E3C701B60198
:100890000E941A56181644F18FEF981629F1992DD7
:1008A000A4E09A0250011124F501E45FFD4FA70175
:1008B000960160817181828193810E94A5581816EA
:1008C0007CF4F501E45CFD4F20813181428153814C
:1008D000C701B6010E947F566B017C0126183708BC
:1008E000759467949A94D8CFC701B6010E9479583D
:1008F0004B015C010E941E569B01AC01C701B60171
:100900000E94A75720E034E244E759E40E947F5652
:100910002B013C010E9479586B017C010E941E56FC
:100920009B01AC01C301B2010E94A7579B01AC011E
:100930000E94A8570E947958C60ED71EE81EF91EBD
:10094000B0E4CB16B2E4DB06BFE0EB06F104C8F07E
:10095000EFEF8E1A9E0AAE0ABE0A2114310471F01E
:10096000FAE08F169104A104B10478F12FEF221A56
:10097000320A812C912C5401839427C0C12CD12C94
:1009800076012401350186E08F8B9F89998FA92FED
:10099000A150AF8BBAE04B16510461047104D0F042
:1009A000C701B6012AE030E040E050E00E944A571B
:1009B00069017A01C301B2012AE030E040E050E071
:1009C0000E944A5729013A01E0CFC12CD12C76016F
:1009D000F6E0F98F6AE0462E512C612C712CC7018C
:1009E000B601A30192010E944A57672B682B692B1D
:1009F00041F4E98D1E162CF469017A01E150E98F6A
:100A0000EECF1E8ACE014696988F8F8B5AE0452EE8
:100A1000512C612C712CC501B401A30192010E94DB
:100A20004A57605DAF89B88D6E93B88FAF8B49011F
:100A30005A0181149104A104B10469F7BD01C801F0
:100A400091DDB98DBB2341F1188ABF8B5E01E0E1D6
:100A5000AE0EB11C45014AE0442E512C612C712C84
:100A6000FF89F150FF8BFF3F69F0C701B601A30179
:100A700092010E944A57605DD5016E935D01690144
:100A80007A01EECFB401B98D6B1B71098EE2FB01C7
:100A90008293BF01C80166DD37FE09C06EEF73E0C7
:100AA000C80160DD662777276219730907C0211422
:100AB0003104D1F165E6C80131DDB101C80177DD4E
:100AC00033C084E5882E82E0982E94E2A92E92E02D
:100AD000B92E20E2622E712C212C312CA701960117
:100AE000D4019E918E917E916E914D010E941A5675
:100AF00018166CF0F5012489358946895789C70194
:100B0000B6010E947F566B017C01260C371C759440
:100B10006794F4E0AF1AB1082CE3821622E0920643
:100B2000E9F699249A94A5CE69960FB6F894DEBF9B
:100B30000FBECDBFDF91CF911F910F91FF90EF902E
:100B4000DF90CF90BF90AF909F908F907F906F90ED
:100B50005F904F903F902F900895FC01808191818C
:100B60008330910520F4019708F440C00BC0853014
:100B7000910528F0059799F5628173812BC08281D8
:100B8000938108950280F381E02D309779F180817F
:100B9000843779F18B3229F08D3221F4319691E04E
:100BA00002C0319690E060E070E04AE0819120ED73
:100BB000280F2A3068F4469F9001479F300D11247A
:100BC000682F880F770B60537109620F731FEECF88
:100BD000992391F088279927861B970B08956281A6
:100BE0007381848195810E94745806C080E090E0F2
:100BF000089581E090E00895CB010895FC01A08163
:100C0000B1818C918D3051F024F489508230B8F547
:100C100005C0803219F08F3219F0089511962CC05A
:100C200011968C9111978A3219F08F32D1F0089574
:100C30001196B183A083A081B181CD0101969183EA
:100C4000808311968C9111978823C9F08A3299F785
:100C500012968C9112978F3271F713960DC08A30CD
:100C600071F2A081B181CD010196918380831196AB
:100C70008C918111F4CF03C0B183A083C0CF0895BC
:100C80001F93CF93DF93EC01162FB8DFE881F98132
:100C90008081181305C03196F983E88381E001C093
:100CA00080E0DF91CF911F910895EF92FF920F9313
:100CB0001F93CF93DF938C01DC011496CD91DC91CF
:100CC0001597EA80FB808E819F81E80EF91EC8018E
:100CD000029694DFD8011296ED91FC9113978081D2
:100CE000873291F1823281F190ED980F9A3060F065
:100CF000982F9F7D91549A3138F08B3229F093EDE3
:100D0000980F923008F061C0F801228133812F5F83
:100D10003F4F338322832E813F81A9014F5F5F4F75
:100D20006C817D816417750740F06A817B81FB01CE
:100D3000E20FF31F5F834E838083D8011296ED91FB
:100D4000FC9113978081D0CF3196D8011396FC93F4
:100D5000EE931297D8011296ED91FC911397908122
:100D6000992399F19F012F5F3F4F13963C932E9348
:100D70001297891751F19C35A9F49181AFEDB3E039
:100D80002C91222339F0921303C011969C9102C03A
:100D90001296F6CF9923C9F03296D8011396FC9398
:100DA000EE9312972E813F81A9014F5F5F4F6C81B7
:100DB0007D816417750770F26A817B81FB01E20F08
:100DC000F31F5F834E839083C5CF8E819F819C01EB
:100DD0002F5F3F4F4C815D814217530750F04A818E
:100DE0005B81FA01E80FF91F3F832E831082C70150
:100DF00002C080E090E0DF91CF911F910F91FF90B2
:100E0000EF9008950F931F93CF93DF938B01FC0115
:100E1000C281D381209759F06A817B81C8010E94E9
:100E2000D059892B21F00990D881C02DF3CFCE0164
:100E3000DF91CF911F910F910895E4CF0895FDDFC9
:100E4000FC01892BD9F1848195818330910518F4B7
:100E50000197A0F109C08530910520F0059739F57B
:100E6000668123C066812DC00680F781E02D309712
:100E700029F18081843721F18B3229F08D3221F4E0
:100E8000319691E002C0319690E060E0219180EDD2
:100E9000820F8A3040F4660F862F880F880F680F04
:100EA0006053620FF3CF992361F061950AC06681A8
:100EB0007781808591850E94795803C060E001C0E8
:100EC00061E0862F0895B9DFFC01892B09F448C041
:100ED000848195818330910520F4019708F440C006
:100EE0000BC08530910528F0059799F566817781CB
:100EF0002BC08681978108950680F781E02D309779
:100F000079F18081843779F18B3229F08D3221F4A7
:100F1000319691E002C0319690E060E070E04AE0E6
:100F2000819120ED280F2A3068F4469F9001479F59
:100F3000300D1124B90160537109680F711D87FDCF
:100F40007A95EECF992391F088279927861B970BE6
:100F5000089566817781808591850E94795806C0C1
:100F600080E090E0089581E090E00895CB0108953D
:100F700064DF009711F00496F0CD80E090E00895D2
:100F80005CDF21E0892B09F420E0822F08950F9384
:100F90001F93CF93DF938C01FC01C081D181C130BD
:100FA000D10559F4628173816115710531F08AEEC2
:100FB00093E00E94D059892B39F02197229720F491
:100FC000F8018281938102C080E090E0DF91CF91AF
:100FD0001F910F91089531DF009711F00496D7CF3C
:100FE00080E090E008958091B00B81110BC01092C9
:100FF000AD0B1092AC0B1092AF0B1092AE0B81E0C8
:101000008093B00B8CEA9BE00895DB01109749F0C8
:10101000ED91FC9111970190F081E02DBC01CD0183
:10102000199480E090E008950895CF92DF92EF92B6
:10103000FF920F931F93CF93DF93CDB7DEB7C858BE
:10104000D1090FB6F894DEBF0FBECDBF7C018B0176
:101050006A01BC01CE0183589F4F0E94A136B8019E
:101060008E010F5F1F4FC8010E94A136960140E01C
:1010700050E0B801CE018D579F4F0E94B536C80190
:101080000E94FA356AEA7BE0CE018B599F4F0E949D
:10109000A136BE0163587F4FCE018B599F4F0E94EE
:1010A000B1356AE074E00E949A35BE016D577F4FFA
:1010B0000E94B1356DE074E00E949A35BC01C80110
:1010C0000E949936C8010E94D447C8010E94FA358F
:1010D000CE018B599F4F0E94FA358091130F1F92BA
:1010E0008F938FE094E09F938F931F930F930E94B1
:1010F000EE59B801C7010E94D0590F900F900F9080
:101100000F900F900F90892B71F4BE016D577F4F98
:10111000CE018B599F4F0E949936CE018B599F4F1C
:101120000E943D3B25C08091130F1F928F938FE249
:1011300094E09F938F931F930F930E94EE59B801F1
:10114000C7010E94D0590F900F900F900F900F90F1
:101150000F90892B99F4BE016D577F4FCE018B59AB
:101160009F4F0E949936CE018B599F4F0E94F836AF
:10117000CE018B599F4F0E94FA3559C168E474E043
:10118000CE018B599F4F0E94A136BE016B597F4FF4
:10119000CE0183589F4F0E94FE36F82ECE018B5908
:1011A0009F4F0E94FA35FF2089F0BE016D577F4F97
:1011B000CE018F589F4F0E949936CF57DF4F28811D
:1011C0003981C158D04043E150E08FC06AE574E0F6
:1011D000CE018B599F4F0E94A136BE016B597F4FA4
:1011E000CE0183589F4F0E94FE36F82ECE018B59B8
:1011F0009F4F0E94FA35F1103FC06BE674E0CE01BC
:101200008B599F4F0E94A136BE016B597F4FCE0173
:1012100083589F4F0E94FE36F82ECE018B599F4F68
:101220000E94FA35FF2089F0BE016D577F4FCE0135
:101230008F589F4F0E949936CF57DF4F28813981B1
:10124000C158D04047E150E050C061E874E0CE01A1
:101250008B599F4F0E94A136BE016B597F4FCE0123
:1012600083589F4F0E94FE36F82ECE018B599F4F18
:101270000E94FA35FF2089F0BE016D577F4FCE01E5
:101280008F589F4F0E949936CF57DF4F2881398161
:10129000C158D04042E150E028C062E974E0CE017C
:1012A0008B599F4F0E94A136BE016B597F4FCE01D3
:1012B00083589F4F0E94FE36F82ECE018B599F4FC8
:1012C0000E94FA35FF2009F443C0BE016D577F4FDD
:1012D000CE018F589F4F0E949936CF57DF4F2881FC
:1012E0003981C158D04046E150E0BE0163587F4F7C
:1012F000CE0189589F4F0E94B536BE016F587F4F6F
:10130000CE0185599F4F0E949936BE0169587F4F83
:10131000CE018B599F4F0E949936BE0165597F4F70
:10132000CE018B599F4F0E94B623CE018B599F4F00
:101330000E94FA35CE0185599F4F0E94FA35CE01A1
:1013400089589F4F0E94FA35CE018F589F4F13CF77
:1013500067EA74E0CE018B599F4F0E94A136BE010F
:101360006B597F4FCE0183589F4F0E94FE36F82E57
:10137000CE018B599F4F0E94FA35FF2009F457C0C8
:101380008091130F1F928F9387EA94E09F938F931E
:101390001F930F930E94EE5969EB74E0CE018B59B5
:1013A0009F4F0E94A136CE018B599F4F0E94D44778
:1013B000CE018B599F4F0E94FA35B801CE018B594F
:1013C0009F4F0E94A136BE016B597F4FCE018358BB
:1013D0009F4F0E94FE360F900F900F900F900F902E
:1013E0000F908823D9F0C957DF4F88819981C7585A
:1013F000D040892B99F0CD57DF4FE881F981C35850
:10140000D0408081882351F0309721F41092B80B9E
:10141000E8EBFBE011E0808180330CF410E0CE01BA
:101420008B599F4F0E94FA3511110E94AE1DCE01BB
:101430008D579F4F0E94FA35CE0183589F4F0E94CF
:10144000FA35C857DF4F0FB6F894DEBF0FBECDBFD9
:10145000DF91CF911F910F91FF90EF90DF90CF9090
:1014600008954115510509F0E0CD0895AF92BF925E
:10147000CF92DF92EF92FF920F931F93CF93DF9360
:10148000CDB7DEB768970FB6F894DEBF0FBECDBFFD
:101490008C010E94763D6B017C01F801258130E0D2
:1014A000F901E451FC4F8491F901E05AFC4FB490EA
:1014B000F901EA55FC4FA490AA2079F081110E940D
:1014C0007E3CEA2DF0E0EE0FFF1FEE5EFD4FA59192
:1014D000B491EC91BE2221E009F420E0F8013681BC
:1014E00085859685A785B0893213FCC00097A10534
:1014F000B10591F5C586D686E786F08A628173814B
:101500004AE0CE0107960E94FF356FEB74E0CE01F2
:1015100001960E94A136BE01695F7F4FCE01019600
:101520000E94B1356FEC74E00E949A35BC01CE0187
:101530000D960E949936CE010D960E94D447CE0199
:101540000D960E94FA35CE0101960E94FA35CE0121
:1015500007960E94FA354AC1AC01BD014053584F6D
:101560006F4F7F4FC416D506E606F706D8F1F8018F
:101570008385811132C0628173814AE0CE01079672
:101580000E94FF3561ED74E0CE0101960E94A13604
:10159000BE01695F7F4FCE0101960E94B1356FECAD
:1015A00074E00E949A35BC01CE010D960E949936D6
:1015B000CE010D960E94D447CE010D960E94FA35B9
:1015C000CE0101960E94FA35CE0107960E94FA35A7
:1015D00064E070E0C8010E94772681E0F80183870B
:1015E000128604C1AC01BD0144545D4F6F4F7F4F63
:1015F000C416D506E606F706B0F1F801828581111A
:101600002DC0628173814AE0CE0107960E94FF35AA
:1016100067ED74E0CE0101960E94A136BE01695FBC
:101620007F4FCE0101960E94B1356FEC74E00E94AD
:101630009A35BC01CE010D960E949936CE010D96C9
:101640000E94D447CE010D960E94FA35CE01019634
:101650000E94FA35CE0107960E94FA35F8011486E9
:1016600081E08287C3C088589F4FAF4FBF4FC816D5
:10167000D906EA06FB0608F4B9C0F8018485811191
:101680002DC0628173814AE0CE0107960E94FF352A
:1016900066EE74E0CE0101960E94A136BE01695F3C
:1016A0007F4FCE0101960E94B1356FEC74E00E942D
:1016B0009A35BC01CE010D960E949936CE010D9649
:1016C0000E94D447CE010D960E94FA35CE010196B4
:1016D0000E94FA35CE0107960E94FA3581E0F801A2
:1016E000848784C00097A105B10509F47FC0B701C4
:1016F000A601481B590B6A0B7B0BCE010D960E946D
:101700004847F801628173814AE0CE0107960E9442
:10171000FF3569EF74E0CE0101960E94A136BE014B
:10172000695F7F4FCE0101960E94B13562E075E09E
:101730000E949A35BE01635F7F4F0E94B135BC01A4
:10174000CE0143960E949936CE0143960E94D4471B
:10175000CE0143960E94FA35CE0101960E94FA35D9
:10176000CE0107960E94FA35CE010D960E94FA35F9
:10177000F80185859685A785B0898C599F4FAF4F15
:10178000BF4FC816D906EA06FB0678F461E175E09A
:10179000CE0101960E94A136CE0101960E94D44747
:1017A000CE0101960E94FA351CC0F8018385811193
:1017B0000BC08285882319F062E070E002C061E00E
:1017C00070E0C8010E947726F801158616861786F4
:1017D000108A12861486138660E070E0C8010E94A9
:1017E0007726F801158616861786108A68960FB632
:1017F000F894DEBF0FBECDBFDF91CF911F910F9147
:10180000FF90EF90DF90CF90BF90AF9008950F932F
:101810001F93CF93DF93CDB7DEB768970FB6F894D9
:10182000DEBF0FBECDBF8C014AE0FC016581CE0159
:101830000D960E945536F801628173814AE0CE010F
:1018400007960E94FF3564E275E0CE0101960E9482
:10185000A136BE01695F7F4FCE0101960E94B1356E
:1018600064E375E00E949A35BE01635F7F4F0E947A
:10187000B135BC01CE0143960E949936CE01439604
:101880000E94D447CE0143960E94FA35CE010196BC
:101890000E94FA35CE0107960E94FA35CE010D96C8
:1018A0000E94FA3560E0F80185810E94023DF8014E
:1018B000668181E0682785810E94D43CC8010E942E
:1018C000732168960FB6F894DEBF0FBECDBFDF91CF
:1018D000CF911F910F910895FC01DB0112968D911C
:1018E0009C9113979383828314968C91149784838D
:1018F00015968C911597858316968C9186830895FD
:10190000FC0110861782089508950C94E1500C9400
:10191000E1500C94E1506130710529F060F06330C2
:10192000710519F0089561E007C061E0FC012781AD
:101930003085232B09F060E00C941937CF93DF93A7
:10194000EC0161E08D810E94023D61E070E08F81D9
:101950009885019711F060E070E0E881F9810284D8
:10196000F385E02DCE01DF91CF9119940C948A2D4F
:101970008F929F92AF92BF92CF92DF92EF92FF929F
:101980000F931F93CF93DF938C017A01FC01858124
:1019900096810E94AE4340E06EEBF801858196810E
:1019A0000E947B43E7015701F9E0AF0EB11CF8013B
:1019B0008580968088E0C82ED12CF12CEE24E3940B
:1019C000C4010E9428438111FE28EE0CF1E0CF1AD9
:1019D000D108B1F7F992AC16BD0649F7F801858137
:1019E00096810E94CB4391E0813009F090E0892FED
:1019F000DF91CF911F910F91FF90EF90DF90CF90EB
:101A0000BF90AF909F908F900895EF92FF920F93A9
:101A10001F93CF93DF938C017B01EA01FC01858149
:101A200096810E94CB438823A9F0AE01B701C8017B
:101A30009FDF882379F0DE0189E0E0E0815039F012
:101A40009D91E927F0E0E45DFD4FE491F7CF81E05F
:101A500098859E1380E0DF91CF911F910F91FF90A9
:101A6000EF9008951F93CF93DF93FC01A081B18184
:101A7000109759F1EC01ED91FC9111970688F789C7
:101A8000E02DCD01199511E0811120C010E0FE017B
:101A9000E556FF4F80819181892BC1F48DEF9FEF37
:101AA0009183808388819981DC01ED91FC9106808E
:101AB000F781E02D199588819981DC01ED91FC91E8
:101AC0000488F589E02D199501C010E0812FDF9180
:101AD000CF911F9108951F920F920FB60F9211246C
:101AE0000BB60F922F933F934F935F936F937F9318
:101AF0008F939F93AF93BF93EF93FF938091BE0B10
:101B00009091BF0B8093B2008091BA0B9091BB0B68
:101B1000A091BC0BB091BD0B0196A11DB11D80938E
:101B2000BA0B9093BB0BA093BC0BB093BD0B8091F1
:101B3000BA0B9091BB0BA091BC0BB091BD0B8091E7
:101B4000B90B811118C081E08093B90B8091BA0B59
:101B50009091BB0BA091BC0BB091BD0B8093BA0BC5
:101B60009093BB0BA093BC0BB093BD0BE0E0F0E0F7
:101B700019951092B90BFF91EF91BF91AF919F9181
:101B80008F917F916F915F914F913F912F910F9026
:101B90000BBE0F900FBE0F901F9018950895AF9237
:101BA000BF92CF92DF92EF92FF920F931F93CF934A
:101BB000DF93CDB7DEB7C456D1090FB6F894DEBFB8
:101BC0000FBECDBF7B015A019F938F931F9280E57B
:101BD0008F930BE315E01F930F9382E994E09F939B
:101BE0008F938DE395E09F938F93CE0101966C01C7
:101BF0009F938F930E94EE590FB6F894DEBF0FBEED
:101C0000CDBFF1E0AF16B104B9F078F092E0A916BB
:101C1000B104C9F0E3E0AE16B10439F51F930F9398
:101C2000DF92CF928AE695E014C01F930F93DF9264
:101C3000CF9288E495E00DC01F930F93DF92CF926F
:101C400084E595E006C01F930F93DF92CF9280E664
:101C500095E09F938F93FF92EF920E94EE590FB6FB
:101C6000F894DEBF0FBECDBF02C0F7011082CC5981
:101C7000DF4F0FB6F894DEBF0FBECDBFDF91CF911F
:101C80001F910F91FF90EF90DF90CF90BF90AF909A
:101C900008954F925F926F927F928F929F92AF9230
:101CA000BF92EF92FF920F931F93CF93DF93CDB725
:101CB000DEB7CD5CD1090FB6F894DEBF0FBECDBF45
:101CC0007C01FC01078510890115110509F443C049
:101CD00040EBBC016F5E7F4FC8010E94511DAE01F9
:101CE0004F5F5F4F60EAC8010E947C3E882321F16C
:101CF000698170E0762F66278A81680F711D072E33
:101D0000000C880B990B0E9420564B015C016B81E3
:101D100070E080E090E00E94205620E030E040E259
:101D200051E40E940C589B01AC01C501B4010E9412
:101D3000A8574B015C0106C0812C912CF0E8AF2E16
:101D4000FFEBBF2E20E030E0A901C501B4010E94E5
:101D50001A5618161CF0812C912C54018E010B5927
:101D60001F4F22E046E0C501B4010E942A5040E026
:101D700050E0BE016F5F7F4FF701828193810FDFDB
:101D8000B801CE0101960E94E01DF7010785108978
:101D90000115110509F45BC065857685072E000CD9
:101DA000880B990B0E9420564B015C0141EBB70157
:101DB0006F5E7F4FC8010E94511DAE0147535F4FB8
:101DC00061EAC8010E947C3E882381F1C753DF4F3E
:101DD0006881C95CD04070E0762F6627C653DF4F1C
:101DE0008881CA5CD040680F711D072E000C880BDB
:101DF000990B0E9420562B013C01C553DF4F68818F
:101E0000CB5CD04070E080E090E00E94205620E063
:101E100030E048EC52E40E940C589B01AC01C30135
:101E2000B2010E94A8579B01AC0104C020E030E041
:101E300040E85FEBC501B4010E947F564B015C0195
:101E400020E030E0A9010E941A5618161CF0812CDF
:101E5000912C54018E010B591F4F22E046E0C50121
:101E6000B4010E942A5041E050E0BE016F5F7F4FF5
:101E7000F7018281938193DEB801CE0101960E9421
:101E8000E01DF701078510890115110509F443C00C
:101E900065857685072E000C880B990B0E942056CD
:101EA0004B015C0142EBB7016F5E7F4FC8010E949E
:101EB000511DAE0147535F4F62EAC8010E947C3E4C
:101EC0008823C1F0C753DF4F6881C95CD04070E000
:101ED000762F6627C653DF4F8881CA5CD040680FD3
:101EE000711D072E000C880B990B0E9420569B0138
:101EF000AC0104C020E030E040E85FEBC501B40174
:101F00000E947F564B015C0120E030E0A9010E9455
:101F10001A5618161CF0812C912C54018E010B5965
:101F20001F4F22E046E0C501B4010E942A5042E062
:101F300050E0BE016F5F7F4FF701828193812FDEFA
:101F4000B801CE0101960E94E01DF70107851089B6
:101F50000115110509F46AC065857685072E000C08
:101F6000880B990B0E9420564B015C0143EBB70193
:101F70006F5E7F4FC8010E94511DAE0147535F4FF6
:101F800063EAC8010E947C3E882341F1C753DF4FBA
:101F90006881C95CD040862F90E0A0E0B0E0DC0111
:101FA00099278827C553DF4F2881CB5CD040820F0B
:101FB000911DA11DB11DC653DF4F2881CA5CD040C1
:101FC00030E0322F2227BC01CD01620F731F811D2B
:101FD000911D0E941E569B01AC0104C020E030E020
:101FE00040E85FEBC501B4010E947F564B015C01E4
:101FF00020E030E0A9010E94A5581816BCF48E011B
:102000000B591F4F22E046E0C501B4010E942A503F
:1020100043E050E0BE016F5F7F4FF7018281938103
:10202000BEDDB801CE0101960E94E01DC353DF4F13
:102030000FB6F894DEBF0FBECDBFDF91CF911F91D9
:102040000F91FF90EF90BF90AF909F908F907F90F7
:102050006F905F904F900895089508954F925F920A
:102060006F927F92AF92BF92CF92DF92EF92FF92E8
:102070000F931F93CF93DF9300D000D0CDB7DEB77F
:102080007C01DC011A968C91882309F47DC0823092
:1020900099F08330B9F0813091F065E775E0CE01B9
:1020A00001960E94A136CE0101960E94D447CE012E
:1020B00001960E94FA357AC10DE71CE005C00AE1DD
:1020C0001DE002C000EE1BE00115110509F46EC110
:1020D00087E090E00E944950FC0188EE93E0A0E088
:1020E000B0E083839483A583B683D80150962D9165
:1020F0003C91519782E0D9018C93D8011C968D9127
:102100009C911D97DC011C92D8011E962D913C914B
:102110001F978FECD9018C93D80158961C92589731
:1021200054962D913C91559786E0D9018C93D80116
:1021300052962D913C915397D9018C9180618C934B
:10214000D80152962D913C915397D9018C9188607A
:102150008C93D80152962D913C915397D9018C9133
:1021600080688C93D80152962D913C915397D90158
:102170008C918F7D8C93118300831282D7015096AE
:10218000FC93EE931F9712C1F701A484AA2009F4CF
:102190000DC1B384BB2009F409C187E090E00E941F
:1021A00049506C0138EE432E33E0532E612C712CD4
:1021B000DC0113964D925D926D927C9216978FE1A1
:1021C00090E00E9449508C01FC01138212824482EB
:1021D00055826682778288E592E091838083178AB0
:1021E000168A118E108E138E128E158E148E668D99
:1021F0006E7F6D7F668F6695617081E068278A2D9E
:102200000E94D43C61E08A2D0E94023D8A2D90E01C
:10221000FC01E05AFC4FE491D8015096EC93FC018C
:10222000EA55FC4FE491F0E0EE0FFF1FE45DFC4F38
:1022300085919491F801928B818B60E08B2D0E94A7
:10224000023DD8015E968C9181FD04C061E08B2D2A
:102250000E94D43CF801B4868B2D90E0FC01E05A3A
:10226000FC4FE491D8011D96EC93FC01EA55FC4F1C
:10227000E491F0E0EE0FFF1FEE5EFD4F25913491EB
:10228000F80137872687138E128E118E108E178ACB
:10229000168A2DE931E0358F248F26EF2B0D24305F
:1022A00048F03EEC3B0D343028F032EC3B0D38303A
:1022B00008F06FC04DEB50E0D80157965C934E93F9
:1022C00056974BE951E059965C934E9358974CE2E0
:1022D00051E05B965C934E935A97243060F03EEC4D
:1022E0003B0D343040F032EC3B0D383008F074C018
:1022F000A8E6B0E073C0A8E6B0E0E8E6F0E0408110
:10230000243020F032EC3B0D383010F031E001C0C9
:1023100034E0342B3C93243058F03EEC3B0D343009
:1023200038F032EC3B0D383030F040E050E005C082
:102330004BE650E002C04DE650E0F801548B438B71
:10234000243020F49C012650310910C0F2E3BF165E
:1023500099F023E3B21691F0A4E3BA1689F022ECC7
:102360002B0D283078F49C012E53310981E001C0F7
:10237000880F2A95EAF707C088E005C084E003C00B
:1023800082E001C081E0F801858B8DE991E0019741
:10239000F1F7C8010E944B3ED60111961C930E9393
:1023A00081E012968C93F701D08AC786D7011F96D9
:1023B0000D911C91509701151105B1F0B7016F5E99
:1023C0007F4F44EBC8010E94511D40E050E064EA99
:1023D000C8010E947C3E08C0A0E0B0E0383008F49C
:1023E0008CCFE0E0F0E08BCF26960FB6F894DEBFFE
:1023F0000FBECDBFDF91CF911F910F91FF90EF9056
:10240000DF90CF90BF90AF907F906F905F904F9094
:1024100008958F929F92AF92BF92EF92FF920F9387
:102420001F93CF93DF93CDB7DEB7AD970FB6F89478
:10243000DEBF0FBECDBF7C0164E875E0CE01019622
:102440000E94A136CE0101960E94D447CE0101968A
:102450000E94FA35F7018289882309F41EC1870199
:10246000065F1F4FA388B488AE014F5F5F4FB8016E
:10247000F50186859785C9DA882309F44FC0AE0136
:102480004F5F5F4FB801F50186859785BEDA8823D7
:1024900069F12A8130E0C901982F8827990F990F97
:1024A000990F6981F8E06F9FB00111249C01262BE0
:1024B000372BF70182858031E1F4688570E08F81E8
:1024C000AB01481B5109CA019695982F882797950B
:1024D00087950E94A95860517109207F53E0220F0F
:1024E000331F5A95E1F7620F731F04C060E874EE62
:1024F00001C0B901613854EE75070CF459C0072EBC
:10250000000C880B990B0E94205620E030E040E040
:102510005CE30E947F564B015C0150C069EE73E0A2
:10252000CE0182960E94A13657018AE1A80EB11C05
:10253000F80161918F0140E1CE0101960E9455366C
:10254000BE016F5F7F4FCE0182960E94A71DCE0114
:1025500001960E94FA35A016B10651F764E975E0BC
:10256000CE0101960E94A136BE016E5D7F4FCE0165
:1025700001960E94B135BC01CE0188960E94993621
:10258000CE0188960E94F247CE0188960E94FA35C5
:10259000CE0101960E94FA35CE0182960E94FA354C
:1025A000812C90EC992E99E7A92E94ECB92E06C0B7
:1025B000812C912C8EEFA82E82ECB82E1BA21AA291
:1025C0001DA21CA21FA21EA28E010F5F1F4F22E0A0
:1025D00044E0C501B4010E942A50BC01CE0182969C
:1025E0000E94D03565EA75E0CE0188960E94A1363A
:1025F000BE016E5D7F4FCE0188960E94B135BC0151
:10260000C8010E949936C8010E94D447C8010E949F
:10261000FA35CE0188960E94FA35CE0182960E9444
:10262000FA3520E030E040E251E4C501B4010E94F7
:102630007F560E9474584B015C014AE0CE0182969D
:102640000E942A3662EB75E0CE0188960E94A13680
:10265000BE016E5D7F4FCE0188960E94B135BC01F0
:10266000C8010E949936C8010E94D447C8010E943F
:10267000FA35CE0188960E94FA35CE0182960E94E4
:10268000FA35F70190868782C7010E9473216AE0BC
:10269000F701828193810E947524AD960FB6F8945C
:1026A000DEBF0FBECDBFDF91CF911F910F91FF9085
:1026B000EF90BF90AF909F908F900895CF92DF9250
:1026C000EF92FF920F931F93CF93DF93CDB7DEB7B7
:1026D0002C970FB6F894DEBF0FBECDBF8C016B01F7
:1026E0007A0169EE73E0CE0107960E94A136C1140B
:1026F000D10429F0B601CE0107960E94D03561EDD4
:1027000078E0CE0107960E94C235F801628173819C
:102710004AE0CE0101960E94FF35BE016F5F7F4FF8
:10272000CE0107960E94A71DCE0101960E94FA35A0
:102730006CEB75E0CE0107960E94C235F80164810A
:10274000CE0101960E948136BE016F5F7F4FCE01A0
:1027500007960E94A71DCE0101960E94FA3563ECF0
:1027600075E0CE0107960E94C2354AE0F801658106
:10277000CE0101960E945536BE016F5F7F4FCE019C
:1027800007960E94A71DCE0101960E94FA3569ECBA
:1027900075E0CE0107960E94C235F801668170E0AF
:1027A0004AE0CE0101960E942A36BE016F5F7F4F3C
:1027B000CE0107960E94A71DCE0101960E94FA3510
:1027C00060ED75E0CE0107960E94C235F801678181
:1027D00070854AE0CE0101960E94FF35BE016F5F11
:1027E0007F4FCE0107960E94A71DCE0101960E9441
:1027F000FA3569ED75E0CE0107960E94C235F80101
:102800008185811103C064EF73E002C06FEE73E055
:10281000CE0107960E94C23568EE75E0CE0107969C
:102820000E94C235BE01695F7F4FCE0101960E94B2
:102830009936BE016F5F7F4FC7010E947547CE0179
:1028400001960E94FA35CE0107960E94FA352C9621
:102850000FB6F894DEBF0FBECDBFDF91CF911F91B1
:102860000F91FF90EF90DF90CF9008952091C30BD0
:1028700090E0233311F40C9601C04896982F990FDD
:10288000990F990F80E00895CF93DF931F92CDB7F2
:10289000DEB76983DC01ED91FC910280F381E02DCC
:1028A00041E050E0BE016F5F7F4F19950F90DF91BF
:1028B000CF910895FC01818D928D0895FC0194853E
:1028C000FB018485981303C081E0983008F080E014
:1028D0000895FF920F931F93CF93DF931F921F9240
:1028E000CDB7DEB7F82E22E030E0AE014F5F5F4F8C
:1028F00066E270E00E94D84109811A811027012701
:10290000102722E030E0AE014F5F5F4F66E270E0DB
:102910008F2D0E94D84189819A81982789279827ED
:102920000817190711F08C01ECCFC8010F900F9018
:10293000DF91CF911F910F91FF9008950F931F93F7
:10294000CF93DF931F921F92CDB7DEB7FC01248592
:102950002830E0F48C01CE0101960E94F744898171
:102960009A810E94EA4122E030E0AE014F5F5F4F62
:1029700060E170E0F80184850E94D84109811A81E4
:102980001027012710270E94E94102C000E010E053
:10299000C8010F900F90DF91CF911F910F91089573
:1029A0000F931F93CF93DF931F921F92CDB7DEB784
:1029B000FC0124852830E0F48C01CE0101960E94B0
:1029C000F74489819A810E94EA4122E030E0AE0119
:1029D0004F5F5F4F64E070E0F80184850E94D8414A
:1029E00009811A811027012710270E94E94102C09E
:1029F00000E010E0C8010F900F90DF91CF911F9180
:102A00000F910895EF92FF920F931F93CF93DF934F
:102A100000D01F92CDB7DEB78C017B01FB0184850E
:102A2000883050F085E193E0F80191838083128231
:102A300013821482158222C0CE0101960E94F744AF
:102A400089819A810E94EA4124E030E0AE014F5F23
:102A50005F4F6CE070E0F70184850E94D8410E94CE
:102A6000E94185E193E0F8019183808389819A812E
:102A7000AB81BC8182839383A483B583C8010F900B
:102A80000F900F900F90DF91CF911F910F91FF90BA
:102A9000EF900895AF92BF92CF92DF92EF92FF92A4
:102AA0000F931F93CF93DF93CDB7DEB7AF970FB6DA
:102AB000F894DEBF0FBECDBF8C015B016A01CE0171
:102AC00001960E94F23385E1E82E83E0F82EFBA602
:102AD000EAA61CA61DA61EA61FA68091560E9091C2
:102AE000570EA091580EB091590E8EA39FA3A8A780
:102AF000B9A78B839C83AD83BE8318861F82AE01EA
:102B0000465D5F4FB501CE0101960E94953181303F
:102B10009105B1F4D801ED91FC910488F589E02D7F
:102B2000FDA2ECA28CA59DA5AEA5BFA58EA39FA3DB
:102B3000A8A7B9A7A601BE016C5D7F4FC801199572
:102B4000AF960FB6F894DEBF0FBECDBFDF91CF9129
:102B50001F910F91FF90EF90DF90CF90BF90AF90BB
:102B60000895E091C10BF091C20B90818091C00B50
:102B7000892B80830895E091C10BF091C20B908165
:102B80008091C00B8095892380830895CF93DF9334
:102B90001F92CDB7DEB741E050E0BE016F5F7F4FBF
:102BA00080E090E00E942D3F89810F90DF91CF91CE
:102BB0000895CF93DF931F92CDB7DEB7898341E0AD
:102BC00050E0BE016F5F7F4F80E090E00E94B83F11
:102BD0000F90DF91CF910895CF93DF9380E8E9DFE5
:102BE000C4E1D0E0D3DF882351F061E070E080E001
:102BF00090E00E943E3D2197A9F780E001C081E06E
:102C0000DF91CF9108958EBD00000DB407FEFDCF7A
:102C10008EB50895EF92FF921F93CF93DF931F928B
:102C20001F92CDB7DEB7182F22E030E0AE014F5F24
:102C30005F4F60E270E00E94D841E980FA80FE2494
:102C4000EF24FE2422E030E0AE014F5F5F4F60E2F0
:102C500070E0812F0E94D84189819A819827892725
:102C60009827E816F90611F07C01ECCF87E0189F51
:102C7000F0011124EB53F04FF582E482C7010F906D
:102C80000F90DF91CF911F91FF90EF9008951F93C8
:102C9000CF93DF931F921F92CDB7DEB7182FCE01CF
:102CA00001960E94F74489819A810E94EA41812F0E
:102CB000DDDD27E0129FF0011124EB53F04F22815C
:102CC0003381377041E050E0BE016F5F7F4F820F6C
:102CD000931F0E942D3F0E94E94189810F900F9020
:102CE000DF91CF911F910895FC01808D883038F4D9
:102CF000218D328D232B19F0CADF90E008958FEFDC
:102D00009FEF0895EF92FF920F931F93CF93DF935E
:102D10001F921F92CDB7DEB7482F87E0489F9001E2
:102D20001124F901EB53F04F7F01808191810097CD
:102D3000B1F4142FCE0101960E94F74489819A8143
:102D40000E94EA41812FC5DD8C010E94E941F70113
:102D500086819801281B3109C901318320830F9096
:102D60000F90DF91CF911F910F91FF90EF900895F9
:102D70001F93CF93DF931F921F92CDB7DEB7182F0B
:102D8000CE0101960E94F74489819A810E94EA410E
:102D900068E070E0812F0E941D3F0E94E9410F9082
:102DA0000F90DF91CF911F9108951F93CF93DF93E1
:102DB0001F921F92CDB7DEB7182FCE0101960E9449
:102DC000F74489819A810E94EA4160E170E0812F95
:102DD0000E941D3F0E94E9410F900F90DF91CF911B
:102DE0001F910895CF92DF92EF92FF920F931F935E
:102DF000CF93DF9300D000D0CDB7DEB78C016B014D
:102E00007A01FC01808D883008F4CFDF85E193E002
:102E10009A838983F60182819381A481B5818B8312
:102E20009C83AD83BE83B701CE0101960E9412340C
:102E3000F801808F883030F4F586E486128E118E8A
:102E400081E001C080E026960FB6F894DEBF0FBE89
:102E5000CDBFDF91CF911F910F91FF90EF90DF9049
:102E6000CF900895CF93DF93FC01808D883020F4BC
:102E7000EF019BDF88E0888FDF91CF910895DA0121
:102E80009091C40BE92FF0E0FE2FEE27E60FF71F1D
:102E900090E0982F8827A901BD018E0F9F1F0C94E9
:102EA000B83F7F928F929F92AF92BF92CF92DF9264
:102EB000EF92FF920F931F93CF93DF931F921F9276
:102EC000CDB7DEB7782E8B014A01590122E030E000
:102ED000AE014F5F5F4F64E270E00E94D841E9802D
:102EE000FA80FE24EF24FE24E00EF11E97013770D5
:102EF0004091C30B072D10E0C801433311F408962D
:102F000001C04096982F8827990F990F990F820F2B
:102F1000931F473319F4A501B40120C0A9014A0D3C
:102F20005B1D41305840B8F360E078E06B01C21A95
:102F3000D30AA601B4010E94B83FA5014C195D094E
:102F4000B4016C0D7D1D8091C30B833331F5085F97
:102F50001F4F902F990F990F990F80E00E94B83F53
:102F6000EA0CFB1CF982EA8222E030E0AE014F5FFE
:102F70005F4F64E270E0872D82DF0F900F90DF914A
:102F8000CF911F910F91FF90EF90DF90CF90BF9066
:102F9000AF909F908F907F900895005F1F4FD9CF83
:102FA0007F928F929F92AF92BF92CF92DF92EF92D9
:102FB000FF920F931F93CF93DF931F921F92CDB772
:102FC000DEB77C014B01742EC52EFC01A688B788A4
:102FD000D08CCE0101960E94F74489819A810E948B
:102FE000EA418D2D17DE072D1C2D8017910708F45F
:102FF0008C019801A401B5018D2D53DF0E94E94198
:10300000F70186899789800F911F978B868BC8015E
:103010000F900F90DF91CF911F910F91FF90EF9044
:10302000DF90CF90BF90AF909F908F907F9008954A
:10303000CF93DF931F921F92CDB7DEB779836A8358
:1030400022E030E0AE014F5F5F4F60E170E017DFDC
:103050000F900F90DF91CF910895CF93DF931F9240
:103060001F92CDB7DEB779836A8322E030E0AE01EC
:103070004F5F5F4F64E070E002DF0F900F90DF91D1
:10308000CF910895DF92EF92FF920F931F93CF930A
:10309000DF931F921F92CDB7DEB7FB01DC0157967D
:1030A0001C921E9256972281211109C02381211161
:1030B00006C02481211103C025812223F9F0411586
:1030C0005105E1F07A018F01FC01D08CCE0101960F
:1030D0000E94F74489819A810E94EA41A8014E5FCB
:1030E0005F4F24E030E06CE070E08D2DC8DEB7016A
:1030F0008D2D9EDF0E94E94181E001C080E090E0DB
:103100000F900F90DF91CF911F910F91FF90EF9053
:10311000DF900895CF93DF931F92CDB7DEB79091E4
:10312000C40B292F30E0322F2227260F371F90E0C3
:10313000982F8827498341E050E0BE016F5F7F4FA1
:10314000820F931F0E94B83F0F90DF91CF91089597
:10315000CF93DF931F92CDB7DEB79091C40B292F89
:1031600030E0322F2227260F371F90E0982F882734
:1031700041E050E0BE016F5F7F4F820F931F0E94BE
:103180002D3F89810F90DF91CF9108958F929F926B
:10319000BF92CF92DF92EF92FF920F931F93CF9344
:1031A000DF93CDB7DEB72A970FB6F894DEBF0FBE18
:1031B000CDBF9091C30B992309F48EC0933319F0BE
:1031C00028E0B22E02C094E0B92E6B01082FCE0188
:1031D00001960E94F74489819A810E94EA419E01EA
:1031E0002F5F3F4F7901490110E063E070E0812FCC
:1031F000AFDFF40181934F018823C9F01F5FB11243
:10320000F4CF10E0F70191917F019D3159F0983191
:1032100049F09A51923030F01F5FB112F3CF0E9403
:10322000E9415AC060E170E0812F0E941D3FE12E0C
:10323000F12C83EE93E00197F1F7402F60E070E00E
:10324000812F68DF4FEF62E070E0812F63DFC114F0
:10325000D10411F0B60113C08091000290910102D7
:1032600001968115F0EC9F0710F480E090EC9093AC
:103270000102809300026091000270910102812F8F
:10328000ECDE61E070E0812F0E941D3F27E02E9D63
:10329000C0012F9D900D11249C012B53304F7901BB
:1032A000F9011182108222E030E0AE01475F5F4FEA
:1032B00068E270E0812F0E94D84189859A8598271D
:1032C00089279827F70193838283168215821482B7
:1032D0000E94E941812F01C088E02A960FB6F89438
:1032E000DEBF0FBECDBFDF91CF911F910F91FF9039
:1032F000EF90DF90CF90BF909F908F9008950F93A5
:103300001F93CF93DF93EC018B01888D883008F4F5
:103310004CDDB80182E03ADF888F883030F41D87B9
:103320000C871A8E198E81E001C080E0DF91CF9169
:103330001F910F910895FF920F931F93CF93DF93E7
:103340001F921F92CDB7DEB7F82ECE0101960E94D4
:10335000F74489819A810E94EA418F2D5BDC8C01C0
:1033600063E070E08F2DF4DEF82E0E94E94187E1E2
:10337000F81631F08CE1F81619F080E090E001C009
:10338000C8010F900F90DF91CF911F910F91FF9087
:1033900008954F925F927F928F929F92AF92BF92C9
:1033A000CF92DF92EF92FF920F931F93CF93DF9311
:1033B0001F921F92CDB7DEB7782E6B014A01A82E5F
:1033C000B12C27E0829FC0011124AC014B53504F18
:1033D0007A01FA0100811181CE0101960E94F74421
:1033E00089819A810E94EA41081519054CF4872DBC
:1033F00070DAF70126818C01021B11091183008309
:1034000001151105A1F463E070E0872DA1DE843180
:1034100009F47DC0882309F47AC001E010E08C3102
:1034200011F400E010E011950195110970C08016AB
:1034300091060CF4840187E08A9DF0018B9DF00DCC
:103440001124EB53F04FE280F380C114D10449F111
:103450002701F7E05F22872D09DA840D951D209161
:10346000C30B273319F4A801B60119C09801240D24
:10347000351D21303840B8F320E038E04901841888
:103480009508A401B6010E942D3F2601480C591C45
:103490006801C818D908872DE9D9A601B2010E9490
:1034A0002D3FE00EF11E87E08A9DF0018B9DF00D0F
:1034B0001124EB53F04FF382E28280819181801BD3
:1034C000910B918380832681A801420F511D4A3FB1
:1034D000510510F4892BD1F487E08A9DF0018B9D72
:1034E000F00D1124EB53F04F1682F982EA8222E0AC
:1034F00030E0AE014F5F5F4F68E270E0872DBFDCC8
:1035000060E470E0872D0E941D3F01C046830E9449
:10351000E941C8010F900F90DF91CF911F910F915A
:10352000FF90EF90DF90CF90BF90AF909F908F90E3
:103530007F905F904F900895CF93DF93FC01218D92
:10354000328D2115310519F48FEF9FEF10C0EC017A
:103550004217530708F0A901888D1BDF18161906BA
:103560009CF7298D3A8D281B390B3A8F298FDF91D3
:10357000CF9108950F931F93CF93DF931F92CDB7F1
:10358000DEB7FC01218D328D232B59F08C0141E0F7
:1035900050E0BE016F5F7F4F808DFBDE181619066D
:1035A0001CF08FEF9FEF08C0F801818D928D01977D
:1035B000928F818F898190E00F90DF91CF911F9141
:1035C0000F9108950F931F93CF93DF93CDB7DEB77D
:1035D00028970FB6F894DEBF0FBECDBF8C01D8017F
:1035E00059964D915C915A974115510551F0ED91C5
:1035F000FC91048CF58DE02D60E070E0C801199518
:10360000EECFF801808D7EDB892B49F148E050E058
:10361000BE016F5F7F4FD80158968C91BADE1816A5
:103620001906FCF4D801509684E0FE013196019011
:103630000D928A95E1F78D8190E0982F88272E8151
:10364000820F911DF801958B848B8F8190E0982FCC
:1036500088272885820F911D928F818F02C080E07C
:1036600090E028960FB6F894DEBF0FBECDBFDF9175
:10367000CF911F910F9108951F93CF93DF931F92C6
:103680001F92CDB7DEB7182FCE0101960E94F744E6
:1036900089819A810E94EA4163E070E0812F58DDC0
:1036A000182F0E94E941812F0F900F90DF91CF9149
:1036B0001F9108951F93CF93DF931F921F92CDB751
:1036C000DEB7FC01108DCE0101960E94F74489817E
:1036D0009A810E94EA4160E270E0812F0E941D3FC2
:1036E00062E070E0812F34DD84FD1AC062E070E09A
:1036F000812F2EDD83FF09C048E162E070E0812F59
:1037000009DD0E94E94180E013C00E94E941CE0139
:1037100001960E94F74489819A810E94EA41E0CF94
:1037200040E162E070E0812FF5DC0E94E94181E038
:1037300090E00F900F90DF91CF911F910895CF925D
:10374000DF92EF92FF920F931F93CF93DF93CDB74A
:10375000DEB7C654D1090FB6F894DEBF0FBECDBF99
:10376000FC0182819381A481B58123968CAF9DAFAA
:10377000AEAFBFAF239721E023962FAF23972396B9
:103780004CAD5DAD6EAD7FAD23974BAB5CAB6DAB20
:103790007EAB89AF9AAFABAFBCAF8DA79EA7AFA7EB
:1037A000B8AB28AB4DA55EA56FA578A94FA358A7C8
:1037B00069A77AA72EAB4BA95CA96DA97EA949A3DD
:1037C0005AA36BA37CA38B8F9C8FAD8FBE8F45E1DB
:1037D00053E05C8B4B8B3FEF3D8B3E8B3F8B188ECA
:1037E0005E874D872AA7CFA0D8A4E9A4FAA4CF86E4
:1037F000D88AE98AFA8A2CA309A11AA12BA13CA193
:1038000009871A872B873C875A8349838B839C833C
:10381000AD83BE838091C60B8111F5C060E372E079
:1038200080E090E00E943E3D1FB7F8948091C50B68
:10383000811127C0EBEDF3E08491E5E9F3E0949189
:10384000E82FF0E0EE0FFF1FEA5BFC4FA591B4916B
:10385000EC91E92321F461E085E30E94D43C61E02E
:1038600085E30E94023D8CB580618CBD8CB580647F
:103870008CBD61E084E30E94023D61E083E30E942D
:10388000023D8091C50B8F5F8093C50B1FBFE0EB9E
:10389000F3E0E491F0E0EE0FFF1FE45DFC4F859153
:1038A00094919093C20B8093C10BEAE6F3E0E4910C
:1038B000E093C00B61E08AE00E94023D52D9CE0144
:1038C0008D5B9F4F0E94F74425968EAD9FAD259747
:1038D0000E94EA4184E38093C30B7ED98823E9F0F8
:1038E00088E067D953D98830C1F480E162D94ED9D4
:1038F000803199F480E05DD949D981110EC041E051
:1039000050E0BE016D5B7F4F8FE190E00E942D3F44
:1039100024968FAD2497833069F187E38093C30B9E
:103920005BD9882309F438C088E043D92FD988307F
:1039300099F580E13ED92AD9182F803169F580E0C8
:1039400038D924D9811128C041E050E0BE016D5B17
:103950007F4F89E390E00E942D3F24968FAD2497FE
:103960008430D1F41093C40B0E94E94181E080932C
:10397000C60B49C080E48093C40B10E042E06EE1C6
:1039800070E0812FC7DB42E06FE170E0812FC2DB86
:103990001F5F183099F7E8CF83E38093C30B1CD9DE
:1039A000882361F180E105D9F1D8803139F582E1D0
:1039B00000D9ECD8823111F580E0FBD8E7D881112D
:1039C0001DC084E08093C40B15E527961FAF279791
:1039D00041E050E0BE016A5B7F4F8BE190E00E94C6
:1039E000B83F26961FAF269741E050E0BE016B5BC3
:1039F0007F4F8AE190E00E94B83FB6CF1092C30B90
:103A00000E94E9413EC0CE018D5B9F4F0E94F7446A
:103A100025968EAD9FAD25970E94EA4146E050E085
:103A20006AE17FE089E090E00E94B83F44E050E026
:103A3000BE016D5F7F4F8FE090E00E94B83F44E091
:103A400050E0BE01615F7F4F81E090E00E94B83F8F
:103A500044E050E0BE016B5E7F4F85E090E00E9445
:103A6000B83F0E94E94181E08C8789859A85AB85C2
:103A7000BC858093560E9093570EA093580EB0932A
:103A8000590ECA5BDF4F0FB6F894DEBF0FBECDBF35
:103A9000DF91CF911F910F91FF90EF90DF90CF902A
:103AA0000895EF92FF920F931F93CF93DF93CDB7BB
:103AB000DEB727970FB6F894DEBF0FBECDBF8C01DF
:103AC000FB01498382818A8383818B8384818C83F8
:103AD00085818D831E82FE0131969E01295F3F4FB5
:103AE00080E090E07F014191840F911DE217F30780
:103AF000D1F78F83D8018D919C91DC01ED91FC91E0
:103B00000084F185E02D1995F801A081B181ED9136
:103B1000FC911197892B31F00284F385E02DCD01C2
:103B20001995E8CF0280F381E02D47E050E0B7011E
:103B3000CD01199527960FB6F894DEBF0FBECDBF05
:103B4000DF91CF911F910F91FF90EF900895FB01AE
:103B500044815581608171810C946D3560E777E116
:103B600080E090E00E943E3D98E288E10FB6F89434
:103B7000A895809360000FBE909360000895A09177
:103B80002A0FB0912B0F1097B9F02091260F222306
:103B900099F040912E0F50912F0F20E030E0241724
:103BA000350754F4ED91FD916281738168177907AF
:103BB00029F02F5F3F4FF3CFE0E0F0E0CF01089511
:103BC000EF92FF920F931F93CF93DF93CDB7DEB7A2
:103BD00068970FB6F894DEBF0FBECDBF8C017B0196
:103BE000CE0107960E94A136B801CE010D960E9423
:103BF000A1366BEE75E0CE0143960E94A136BE0160
:103C0000635F7F4FCE0143960E94B1356FEC74E045
:103C10000E949A35BE01695F7F4F0E94B135BC0199
:103C2000CE0101960E949936CE0101960E94D4479A
:103C3000CE0101960E94FA35CE0143960E94FA35D4
:103C4000CE010D960E94FA35CE0107960E94FA35F4
:103C5000B701C8010E94694468960FB6F894DEBFA8
:103C60000FBECDBFDF91CF911F910F91FF90EF90CD
:103C700008958F929F92AF92BF92CF92DF92EF9270
:103C8000FF920F931F93CF93DF93CDB7DEB7CC573F
:103C9000D1090FB6F894DEBF0FBECDBF80E69EE01F
:103CA0000E94320D81119BC18091110F811133C08F
:103CB0004091C70B5091C80B6091C90B7091CA0B12
:103CC000CE018B599F4F0E94484765EF75E0CE01AA
:103CD00085599F4F0E94A136BE016B597F4FCE017F
:103CE00085599F4F0E94B135BC01CE0101960E94BB
:103CF0009936CE0101960E94F247CE0101960E94AC
:103D0000FA35CE0185599F4F0E94FA35CE018B5965
:103D10009F4F0E94FA35C090C70BD090C80BE0901F
:103D2000C90BF090CA0BC114D104E104F104A1F055
:103D30008091FD0E9091FE0EA091FF0EB091000FAC
:103D4000C80ED91EEA1EFB1E0E94763DC616D70677
:103D5000E806F90608F043C10E94763DAB01BC01BC
:103D6000CE018B599F4F0E9448474091FD0E5091C4
:103D7000FE0E6091FF0E7091000F8091C70B909125
:103D8000C80BA091C90BB091CA0B480F591F6A1FED
:103D90007B1FCE0185599F4F0E9448474091C70B1A
:103DA0005091C80B6091C90B7091CA0BCE018F580E
:103DB0009F4F0E94484762E076E0CE0189589F4FAE
:103DC0000E94A136BE016F587F4FCE0189589F4F88
:103DD0000E94B1356FE075E00E949A35BE016559C9
:103DE0007F4F0E94B1356FE075E00E949A35BE01A9
:103DF0006B597F4F0E94B135BC018E010F5F1F4F81
:103E0000C8010E949936C8010E94D447C8010E9487
:103E1000FA35CE0189589F4F0E94FA35CE018F584E
:103E20009F4F0E94FA35CE0185599F4F0E94FA3567
:103E3000CE018B599F4F0E94FA35E090140FF090FD
:103E4000150F80E69EE00E94320D811184C06091C2
:103E5000F50E7091F60E8091600E9091610E40917A
:103E6000F70E5091F80EDC01ED91FC916115710592
:103E700009F4C5C00088F189E02D199581309105BC
:103E800009F0FCC09093E30E8093E20E87E0E6E633
:103E9000F2E0D80101900D928A95E1F7F801A7E6CA
:103EA000BEE0CE01089621912D938E179F07D9F77A
:103EB00082E080936E0E10926F0E8FE08093700EF2
:103EC0004FE050E062E67EE0C7010E944F2BAC015C
:103ED0004550510962E67EE080E10E946F2B0E940E
:103EE000763D6093E40E7093E50E8093E60E90931A
:103EF000E70E6093E80E7093E90E8093EA0E9093BC
:103F0000EB0E8091600E9091610EDC01ED91FC91C1
:103F10000084F185E02D1995892B09F485C0CE0127
:103F20008B599F4F0E94FD44049709F09BC08091DC
:103F3000650E811192C00E94763D6093E80E7093E9
:103F4000E90E8093EA0E9093EB0E1092EC0E109215
:103F5000FC0E1092FB0E80E197E2A0E0B0E08093AF
:103F6000FD0E9093FE0EA093FF0EB093000F1092E3
:103F7000C70B1092C80B1092C90B1092CA0B8091FC
:103F8000130F1F928F938FE094E09F938F931F9353
:103F90000F930E94EE59C8010E9410488091130FA0
:103FA0001F928F938FE294E09F938F931F930F93B1
:103FB0000E94EE59C8010E9410481092110F0FB6CE
:103FC000F894DEBF0FBECDBF8091260F8111EED0D9
:103FD00080E69EE00E94320D81110E94DB4581E067
:103FE0004091C70B5091C80B6091C90B7091CA0BDF
:103FF000452B462B472B09F493C080E091C00684E3
:10400000F785E02D25E133E03A8329838090F10E96
:104010009090F20EA090F30EB090F40E8B829C82E2
:10402000AD82BE82B80129CF0E94763DC090E80ED5
:10403000D090E90EE090EA0EF090EB0EDC01CB019F
:104040008C199D09AE09BF0988399A43A105B105AC
:1040500008F457CF8CEF9FEF01C090E09093FC0ED7
:104060008093FB0E8091600E9091610EDC01ED91CA
:10407000FC910488F589E02D199506C08EEF9FEF1D
:104080009093FC0E8093FB0E8091FD0E9091FE0E9E
:10409000A091FF0EB091000F880F991FAA1FBB1FA0
:1040A0008093FD0E9093FE0EA093FF0EB093000F31
:1040B0006091FB0E7091FC0E4AE0CE018B599F4F30
:1040C0000E942A3661E176E0CE0185599F4F0E9419
:1040D000A136BE016B597F4FCE0185599F4F0E947B
:1040E000B135BC01C8010E949936C8010E94F2474F
:1040F000C8010E94FA35CE0185599F4F0E94FA35BA
:10410000CE018B599F4F0E94FA350E94763D6093F5
:10411000C70B7093C80B8093C90B9093CA0B5FCFEA
:10412000C458DF4F0FB6F894DEBF0FBECDBFDF918E
:10413000CF911F910F91FF90EF90DF90CF90BF90A4
:10414000AF909F908F900895CF93DF9300D000D0D1
:10415000CDB7DEB78091120F8823F9F08ADD88236E
:1041600071F080E69EE00E94320D811103C06DE186
:1041700076E007C00E94DB4581110FC0F8CF69E2ED
:1041800076E0CE0101960E94A136CE0101960E94F2
:10419000F247CE0101960E94FA3526960FB6F894A2
:1041A000DEBF0FBECDBFDF91CF910895BF92CF92FA
:1041B000DF92EF92FF920F931F93CF93DF9300D084
:1041C00000D0CDB7DEB76EE376E0CE0101960E9457
:1041D000A136CE0101960E94D447CE0101960E94DD
:1041E000FA3500E010E080912E0F90912F0F081704
:1041F00019073CF4C8010E948E48A6DF0F5F1F4FCD
:10420000F2CF62E370E080E090E00E943E3D00E08B
:1042100010E0BB24B39480912E0F90912F0F0817BC
:1042200019079CF591DF6801CC0CDD1C95E0E92EA7
:10423000F12CE0912A0FF0912B0FEC0DFD1D019058
:10424000F081E02D8185882371F0E0912A0FF091B3
:104250002B0FEC0DFD1D0190F081E02D818581116A
:1042600011C0B12C0FC0C8010E948E4862E370E0FB
:1042700080E090E00E943E3D67DF81E0E81AF108AF
:10428000C1F6E3CF0F5F1F4FC6CFB1100EC063E57D
:1042900076E0CE0101960E94A136CE0101960E94E1
:1042A000F247CE0101960E94FA3561E776E0CE0131
:1042B00001960E94A136CE0101960E94D447CE01FC
:1042C00001960E94FA3526960FB6F894DEBF0FBE0F
:1042D000CDBFDF91CF911F910F91FF90EF90DF90B5
:1042E000CF90BF900895EF92FF920F931F93CF93BB
:1042F000DF93CDB7DEB7CE5CD1090FB6F894DEBF41
:104300000FBECDBF8C01FC018185882331F18091E6
:10431000120F882309F488C08481803521F4C801F4
:104320000E94490E81C0823509F44BC040F48133AC
:1043300071F0823409F078C028E434E044C0843558
:1043400049F0823609F070C022E836E03CC02BE626
:1043500034E039C021E834E036C0F801628173816D
:104360004AE0CE018B599F4F0E94FF356CE976E001
:10437000CE0187539F4F0E94A136BE016B597F4FDC
:10438000CE0187539F4F0E94B1356AEA76E00E94C2
:104390009A35BC01CE0101960E949936CE01019654
:1043A0000E94D447CE0101960E94FA35CE01875370
:1043B0009F4F0E94FA35CE018B599F4F0E94FA35CC
:1043C00033C02AE534E0F80193819F9392819F9353
:1043D0001F928F938BE395E09F938F933F932F933F
:1043E0008DE395E09F938F937E01F5E6EF0EF11C30
:1043F000FF92EF920E94EE59F80180858F9387819A
:104400008F938EEB96E09F938F938E010F5F1F4FDC
:104410001F930F930E94EE59B801C701D1DB0FB66D
:10442000F894DEBF0FBECDBFC253DF4F0FB6F89476
:10443000DEBF0FBECDBFDF91CF911F910F91FF90D7
:10444000EF9008958F929F92AF92BF92CF92DF929A
:10445000EF92FF920F931F93CF93DF9300D000D082
:10446000CDB7DEB7FC019681992309F466C15B01E3
:104470008F01915096836F0182E0C80ED11CC60156
:104480000E94FE05D8011296ED91FC911397808150
:104490008B3521F08B3709F49AC027C1F801E080F1
:1044A000F180B70184E090E00E940508009751F088
:1044B000DC011196FC92EE9213961C921E921297BA
:1044C0007C0113C08091D00B81110BC01092CD0BD9
:1044D0001092CC0B1092CF0B1092CE0B81E08093F8
:1044E000D00B9CECE92E9BE0F92E6BE5C6010E94F7
:1044F0004006882309F449C06DE5C6010E944006C4
:10450000811156C01A821982BE016F5F7F4FC801A8
:1045100099DF8823D1F1F7016081718188E090E013
:104520000E940508DC01892B39F011961C921E921D
:1045300013961C921E921297F70122813381211546
:10454000310551F0F90180819181009711F09C01B2
:10455000F9CFB183A08303C0F701B383A28310977F
:10456000A1F086E0FE013196129601900D928A9597
:10457000E1F76DE5C6010E944006811119C06CE2A9
:10458000C6010E9440068111BDCF8091D00B8111E0
:104590000BC01092CD0B1092CC0B1092CF0B10923F
:1045A000CE0B81E08093D00B8CECE82E8BE0F82EC4
:1045B000D7018D919C91892B11F4F12CB9C086E023
:1045C00090E0F50191838083F382E282AFC0D8014D
:1045D000ED90FC90B70184E090E00E940508009700
:1045E00009F4ADC0FC01F182E082138212827C01E9
:1045F0006BE7C6010E944006882309F462C06DE79C
:10460000C6010E94400681115FC0C8010E94550684
:104610004C01892B09F455C06AE3C6010E9440068B
:10462000882309F44EC01A821982BE016F5F7F4F42
:10463000C80108DF882309F444C0B401C7010E94FF
:104640000207009749F5D7016D917C918AE090E0CF
:104650000E940508009729F0FC0111821082158242
:104660001482D7011296ED91FC911397309751F077
:10467000208131812115310511F0F901F9CF9183A4
:10468000808303C0F701938382830097D1F0DC011C
:1046900013969C928E92129726E0FE013196DC01D1
:1046A000149601900D922A95E1F76DE7C6010E94DC
:1046B0004006811109C06CE2C6010E9440068111CA
:1046C000A4CF0E94F3077C01F70180819181892B9F
:1046D00009F473CF87E090E0D50111969C938E93F7
:1046E0001396FC92EE92129721C0FF24F394873226
:1046F00019F0823209F0F12CC8010E94550600978A
:1047000009F45BCFFF2041F022E030E0F501318376
:104710002083938382830CC021E030E0D501119681
:104720003C932E9313969C938E931297FF24F394AD
:10473000F80186818F5F868305C0F12C03C00E943B
:10474000F30755CF8F2D26960FB6F894DEBF0FBE18
:10475000CDBFDF91CF911F910F91FF90EF90DF9030
:10476000CF90BF90AF909F908F900895CF92DF929F
:10477000EF92FF920F931F93CF93DF93CDB7DEB7E6
:10478000AE970FB6F894DEBF0FBECDBF8C016B01A4
:10479000DC018D919C91009719F00E94105303C089
:1047A00060E070E0CB011CA21BA21EA21DA218A6F5
:1047B0001FA22AE0AE014F5F5F4F0E945253BE011D
:1047C0006F5F7F4FCE0183960E94D03561EC76E01B
:1047D000CE0189960E94A136B801CE0189960E9429
:1047E000B1356FEC76E00E949A35BE016D5D7F4F6A
:1047F0000E94B13561ED76E00E949A35BC01CE0190
:1048000001960E949936CE0101960E94D447CE01AE
:1048100001960E94FA35CE0189960E94FA35CE01A2
:1048200083960E94FA35F80180819181009719F0F2
:104830000E94105303C060E070E0CB01CB019FD910
:104840008C01009709F442C0DC0112966D917C91B5
:1048500013974AE0CE0183960E94FF3563ED76E020
:10486000CE0189960E94A136BE016D5D7F4FCE01BB
:1048700089960E94B135BC01CE0101960E949936FD
:10488000CE0101960E94D447CE0101960E94FA35CE
:10489000CE0189960E94FA35CE0183960E94FA35A0
:1048A00081E0F80181870190F081E02DE284F384BA
:1048B000D6018D919C91009719F00E94105303C06E
:1048C00060E070E0CB01C801F7011995AE960FB614
:1048D000F894DEBF0FBECDBFDF91CF911F910F9136
:1048E000FF90EF90DF90CF9008954F925F926F927C
:1048F0007F928F929F92AF92BF92CF92DF92EF9270
:10490000FF920F931F93CF93DF93CDB7DEB76297DC
:104910000FB6F894DEBF0FBECDBF5C01562EC12C82
:10492000D12C97E7692E92E0792E4424439480910C
:10493000300F9091310FC816D9060CF0C1C1860115
:10494000000F111FE0912C0FF0912D0FE00FF11FC0
:10495000E080F180D70112968D919C9113978A1572
:104960009B0509F0A9C115968C918511A5C169EE29
:1049700073E0CE0107960E94A1366FED76E0CE017E
:1049800007960E94D03561ED78E0CE0107960E942F
:10499000C235F701608171814AE0CE0101960E9423
:1049A000FF35BE016F5F7F4FCE010796D0D8CE0195
:1049B00001960E94FA3567EE76E0CE0107960E94D6
:1049C000C2354AE0D70115966C91CE0101960E943E
:1049D0005536BE016F5F7F4FCE010796B8D8CE0126
:1049E00001960E94FA356FEE76E0CE0107960E949E
:1049F000C235F701628173814AE0CE0101960E94BF
:104A0000FF35BE016F5F7F4FCE010796A0D8CE0164
:104A100001960E94FA356AEF76E0CE0107960E9471
:104A2000C235D70114966C91CE0101960E94813651
:104A3000BE016F5F7F4FCE01079689D8CE010196E8
:104A40000E94FA3567E077E0CE0107960E94C235F2
:104A5000F701608571854AE0CE0101960E942A36F1
:104A6000BE016F5F7F4FCE01079671D8CE010196D0
:104A70000E94FA3566E177E0CE0107960E94C235C2
:104A8000D70116966D917C9117974AE0CE01019659
:104A90000E94FF35BE016F5F7F4FCE01079657D84A
:104AA000CE0101960E94FA3561E277E0CE010796C9
:104AB0000E94C235F7016285CE0101960E948136BF
:104AC000BE016F5F7F4FCE01079641D8CE010196A0
:104AD0000E94FA356EE277E0CE0107960E94C23559
:104AE000BE01695F7F4FCE0101960E949936BE01DB
:104AF0006F5F7F4F85E090E00E947547CE01019681
:104B00000E94FA35CE0107960E94FA35C50137D8C2
:104B1000009709F49AC0DC01ED91FC910088F189BD
:104B2000E02D45E050E062E377E01995E0912C0F2D
:104B3000F0912D0FE00FF11F80809180F4018681AC
:104B400097811DD87C01009721F1DC01ED91FC914A
:104B50000088F189E02D45E050E06AE377E019959F
:104B600080912C0F90912D0FFC01E00FF11F01900F
:104B7000F081E02D8285823509F09EC060857185C7
:104B8000D701ED91FC910284F385E02DC7011995C1
:104B900093C0F401608171814AE0CE0107960E94C2
:104BA000FF356EE077E0CE010D960E94A136BE0182
:104BB000695F7F4FCE010D960E94B13563E477E0C7
:104BC0000E949A35BC01CE0101960E949936CE0111
:104BD00001960E94F247CE0101960E94FA35CE015D
:104BE0000D960E94FA35CE0107960E94FA358AE0AA
:104BF00090E00E944950FC018AE0DF011D928A95F5
:104C0000E9F7118671826082A0912C0FB0912D0F6F
:104C10000A0F1B1FD8018D919C91DC0116962D91D6
:104C20003C911797338322831A968C918483D80101
:104C30008D919C91DC0118968D919C91199790878C
:104C400087834186CF014FDB37C080912C0F909135
:104C50002D0FFC01E00FF11F0190F081E02D60812C
:104C600071814AE0CE0107960E94FF356EE077E041
:104C7000CE010D960E94A136BE01695F7F4FCE0125
:104C80000D960E94B13566E577E00E949A35BC0129
:104C9000CE0101960E949936CE0101960E94F247FC
:104CA000CE0101960E94FA35CE010D960E94FA358A
:104CB000CE0107960E94FA35BFEFCB1ADB0A37CE3A
:104CC00062960FB6F894DEBF0FBECDBFDF91CF91D5
:104CD0001F910F91FF90EF90DF90CF90BF90AF901A
:104CE0009F908F907F906F905F904F9008951F934B
:104CF000CF93DF93EC01162F6F837887F4DA612F5F
:104D00008A819B81DF91CF911F91EFCDEF92FF922E
:104D10000F931F93CF93DF93CDB7DEB7C55FD10954
:104D20000FB6F894DEBF0FBECDBF9E01275F3F4F89
:104D30003C832B8328EC30E03E832D8318861F8232
:104D400021E732E03A832983FC0180819181009739
:104D500011F489EE93E09E012F5F3F4FCF52DF4F5A
:104D600039832883C15DD040CD52DF4F998388833A
:104D7000C35DD040CB52DF4F39832883C55DD0401F
:104D80008AE0C952DF4F8883C75DD040C852DF4FE9
:104D900019821882C85DD040BE0168527F4FCE0193
:104DA0008F529F4F4FDB86E0FE01E852FF4FDE013E
:104DB000AC51BF4F01900D928A95E1F786E0FE015C
:104DC000EC51FF4FDE01A651BF4F01900D928A9525
:104DD000E1F786E0FE01E651FF4FDE01A051BF4F33
:104DE00001900D928A95E1F7C051DF4F888199813A
:104DF000C05FD040079739F4CE50DF4F088119814A
:104E0000C25FD04003C00E94F3078C0169E677E0DF
:104E1000C8010E94C007882309F4B0C069E677E0A2
:104E2000C8010E94B8074AE0BC01CE0188529F4FDA
:104E30000E942A3660E777E0CE018F529F4F0E9492
:104E4000A136BE0168527F4FCE018F529F4F0E9404
:104E5000B135BC01CE0182529F4F0E949936CE01DE
:104E600082529F4F0E94D447CE0182529F4F0E9490
:104E7000FA35CE018F529F4F0E94FA35CE018852EB
:104E80009F4F0E94FA3569E677E0C8010E94B80793
:104E90009093310F8093300F10923D0F10923C0F82
:104EA00080912C0F90912D0F892BF1F000E010E0F4
:104EB0002091300F3091310F80912C0F90912D0F58
:104EC000021713077CF49801220F331FFC01E20F35
:104ED000F31F80819181009711F00E94E1500F5FD4
:104EE0001F4FE6CF0E94E1506091300F7091310F5B
:104EF0004AE0CE0188529F4F0E942A3668E777E049
:104F0000CE018F529F4F0E94A136BE0168527F4F43
:104F1000CE018F529F4F0E94B135BC01CE0182520B
:104F20009F4F0E949936CE0182529F4F0E94D447D4
:104F3000CE0182529F4F0E94FA35CE018F529F4F71
:104F40000E94FA35CE0188529F4F0E94FA35809117
:104F5000300F9091310F8138FFE39F0718F4880FCD
:104F6000991F02C08FEF9FEF0E94495090932D0F21
:104F700080932C0F81E08093CB0B21C18091CB0BD0
:104F8000882309F41CC168E877E0C8010E94C007C3
:104F9000882309F414C18BE090E00E9449502BE073
:104FA000FC0111922A95E9F720913C0F30913D0FB9
:104FB000220F331FE0912C0FF0912D0FE20FF31F02
:104FC0009183808380912C0F90912D0FFC01E20F33
:104FD000F31F80819181892B09F4CDC068E877E0C7
:104FE000C8010E94C0078823B1F0E0913C0FF09106
:104FF0003D0FEE0FFF1F80912C0F90912D0FE80FAA
:10500000F91FE080F18068E877E0C8010E9463073B
:10501000F701918380836BE877E0C8010E94C007A5
:105020008823B1F0E0913C0FF0913D0FEE0FFF1F90
:1050300080912C0F90912D0FE80FF91FE080F180E7
:105040006BE877E0C8010E946307F70193838283CE
:1050500064E977E0C8010E94C0078823B9F0E091B5
:105060003C0FF0913D0FEE0FFF1F80912C0F9091A0
:105070002D0FE80FF91FE080F18064E977E0C801A7
:105080000E94EB07FC018081F70184836FE977E0E0
:10509000C8010E94C0078823A9F0E0913C0FF0915D
:1050A0003D0FEE0FFF1F80912C0F90912D0FE80FF9
:1050B000F91FE080F1806FE977E0C8010E941F07C7
:1050C000F701858365EA77E0C8010E94C00788235D
:1050D000B1F0E0913C0FF0913D0FEE0FFF1F80917A
:1050E0002C0F90912D0FE80FF91FE080F18065EAF9
:1050F00077E0C8010E946307F701978386836EEA11
:1051000077E0C8010E94C0078823B9F0E0913C0F06
:10511000F0913D0FEE0FFF1F80912C0F90912D0FFE
:10512000E80FF91FE080F1806EEA77E0C8010E9485
:105130001F0790E0F701918780876BEB77E0C8014C
:105140000E94C0078823B9F0E0913C0FF0913D0F19
:10515000EE0FFF1F80912C0F90912D0FE80FF91F7C
:10516000E080F1806BEB77E0C8010E94EB07FC0167
:105170008081F701828780913C0F90913D0F0196CD
:1051800090933D0F80933C0F2091300F3091310F61
:1051900082179307A1F466EC77E0CE018F529F4F00
:1051A0000E94A136CE018F529F4F0E94D447CE015C
:1051B0008F529F4F0E94FA3581E08093270FCB508A
:1051C000DF4F0FB6F894DEBF0FBECDBFDF91CF919A
:1051D0001F910F91FF90EF900895FC01538D448D26
:1051E000252F30E0842F90E0821B930B541710F092
:1051F000CF96089501970895FC01918D828D98179F
:1052000061F0828DDF01A80FB11D5D968C91928DAA
:105210009F5F9F73928F90E008958FEF9FEF0895A7
:10522000FC01918D828D981731F0828DE80FF11D70
:10523000858D90E008958FEF9FEF08958F929F9254
:10524000AF92BF92CF92DF92EF92FF920F931F9394
:10525000CF93DF937C01EB016C0182E0C80ED11C7F
:105260004701E5E08E0E911C00E010E0F60141914F
:105270006F0150E060E070E02AE0CE010E9411353D
:105280005C01E881F9810190F081E02D6EE2CE01B0
:1052900019958A0D9B1D080F191F8C149D0431F759
:1052A000F701458150E060E070E02AE0CE010E9405
:1052B0001135800F911FDF91CF911F910F91FF90BA
:1052C000EF90DF90CF90BF90AF909F908F90089518
:1052D00080EE9BE00E94423B21E0892B09F420E014
:1052E000822F08958DE79CE00E94423B21E0892BAC
:1052F00009F420E0822F08958AE19DE00E94423B5C
:1053000021E0892B09F420E0822F089587EB9DE0AE
:105310000E94423B21E0892B09F420E0822F08956E
:10532000EF92FF920F931F93CF93DF93EC0181E0F5
:10533000888F9B8D8C8D981305C0E889F9898081B1
:1053400085FD26C0F62E0B8D10E00F5F1F4F0F73EB
:105350001127E02E8C8DE8120CC00FB607FCFACF97
:10536000E889F989808185FFF5CFCE010E945C3CF8
:10537000F1CF8B8DFE01E80FF11DE35AFF4FF08254
:105380009FB7F8940B8FEA89FB89808180620AC0FD
:105390009FB7F894EE89FF896083E889F989808155
:1053A0008370806480839FBF81E090E0DF91CF9124
:1053B0001F910F91FF90EF900895CF93DF93EC0131
:1053C000888D8823C9F0EA89FB89808185FD05C025
:1053D000A889B9898C9186FD0FC00FB607FCF5CF5F
:1053E000808185FFF2CFA889B9898C9185FFEDCFA7
:1053F000CE010E945C3CE7CFDF91CF9108951F92D0
:105400000F920FB60F9211240BB60F922F933F936A
:105410004F935F936F937F938F939F93AF93BF93BC
:10542000EF93FF9380EE9BE00E945C3CFF91EF9135
:10543000BF91AF919F918F917F916F915F914F91AC
:105440003F912F910F900BBE0F900FBE0F901F90AA
:1054500018951F920F920FB60F9211240BB60F9250
:105460002F933F934F935F936F937F938F939F936C
:10547000AF93BF93EF93FF9380EE9BE00E94F834CD
:10548000FF91EF91BF91AF919F918F917F916F911C
:105490005F914F913F912F910F900BBE0F900FBED8
:1054A0000F901F9018951F920F920FB60F92112414
:1054B0000BB60F922F933F934F935F936F937F930E
:1054C0008F939F93AF93BF93EF93FF938DE79CE0F0
:1054D0000E945C3CFF91EF91BF91AF919F918F91A2
:1054E0007F916F915F914F913F912F910F900BBEE4
:1054F0000F900FBE0F901F9018951F920F920FB62E
:105500000F9211240BB60F922F933F934F935F93FB
:105510006F937F938F939F93AF93BF93EF93FF937B
:105520008DE79CE00E94F834FF91EF91BF91AF911D
:105530009F918F917F916F915F914F913F912F91AB
:105540000F900BBE0F900FBE0F901F9018951F92DB
:105550000F920FB60F9211240BB60F922F933F9319
:105560004F935F936F937F938F939F93AF93BF936B
:10557000EF93FF938AE19DE00E945C3CFF91EF91E5
:10558000BF91AF919F918F917F916F915F914F915B
:105590003F912F910F900BBE0F900FBE0F901F9059
:1055A00018951F920F920FB60F9211240BB60F92FF
:1055B0002F933F934F935F936F937F938F939F931B
:1055C000AF93BF93EF93FF938AE19DE00E94F8347D
:1055D000FF91EF91BF91AF919F918F917F916F91CB
:1055E0005F914F913F912F910F900BBE0F900FBE87
:1055F0000F901F9018951F920F920FB60F921124C3
:105600000BB60F922F933F934F935F936F937F93BC
:105610008F939F93AF93BF93EF93FF9387EB9DE09F
:105620000E945C3CFF91EF91BF91AF919F918F9150
:105630007F916F915F914F913F912F910F900BBE92
:105640000F900FBE0F901F9018951F920F920FB6DC
:105650000F9211240BB60F922F933F934F935F93AA
:105660006F937F938F939F93AF93BF93EF93FF932A
:1056700087EB9DE00E94F834FF91EF91BF91AF91CD
:105680009F918F917F916F915F914F913F912F915A
:105690000F900BBE0F900FBE0F901F901895CF93D9
:1056A000DF93EC01FA013296E60FF71FDC01AD0142
:1056B0004C1B5D0BCF01861B970B2D91222311F004
:1056C0002193F5CF9C01241B350B620F731FFB0147
:1056D0003297508331964083DF91CF910895EF92B6
:1056E000FF920F931F93CF93DF9300D01F92CDB7FC
:1056F000DEB79A01E0E0922F9F77220F232F221F1F
:10570000330B31952115310509F0906801E00E0F3A
:10571000A1E0B0E0AC0FBD1FAE0FB11DFD01908345
:105720002115310511F0E02FE6CF10E09B01201B81
:10573000310B2C5F3F4FF9018083DE011196FB0195
:10574000E01BF10B3596CB010596E817F90719F028
:105750006D916193FACF8091600E9091610E4F5FD1
:105760005F4F040F151FDC01ED91FC910280F38166
:10577000E02DA801B90119957C010E94763D609346
:10578000E40E7093E50E8093E60E9093E70E81E0B1
:105790000E151F0509F080E00F900F900F900F90ED
:1057A000DF91CF911F910F91FF90EF9008950C948E
:1057B000E1501F93CF93DF93EC01162F6F8378870F
:1057C0000E947321612F8A819B81DF91CF911F916C
:1057D0008CC808956F927F928F929F92AF92BF92E2
:1057E000CF92DF92EF92FF920F931F93CF93DF93AD
:1057F000CDB7DEB761970FB6F894DEBF0FBECDBF51
:105800006C0163EB79E0CE0101960E94A136CE01D6
:1058100001960E94D447CE0101960E94FA358EE08F
:1058200090E00E9449507C01D60115961C9160E0E1
:10583000812F0E94023D812F90E0FC01E05AFC4F35
:10584000E491D701EC93FC01EA55FC4FE491F0E0C0
:10585000EE0FFF1FEE5EFD4F85919491F70192834D
:1058600081831386158614865701FBE0AF0EB11CA9
:10587000470183E0880E911CF50112928E169F0657
:10588000E1F7D6011B96FC92EE921A9783E190E025
:105890000E9449508C018CEC9DE3F801928B818B26
:1058A000F682E5821482108289E0818381E082831E
:1058B0008383D6011F961C930E931E97F5011292B7
:1058C0005F01E815F905D1F788248394D80115966E
:1058D000ED90FC901697F701858581116BC0C7018B
:1058E0000E94CB4381110AC0D7011B961C921B97C3
:1058F0001D961C921D971C961C92E7C040E060EF1D
:10590000C7010E947B43AA24A394712C612CBB2461
:10591000B394C7010E942843982EC7010E942843D0
:10592000B1E09B1203C08130C9F438C0272D30E0AC
:1059300098121EC0F7018385B81630F4E20FF31FEA
:1059400083818A2159F402C08B1541F0912CF8E033
:10595000FB1568F0D7011C96BC9209C0F701E70D52
:10596000F11D83818A2983839924939409C06B2C28
:10597000F701E20FF31F93818A2D8095892383839A
:10598000692DC7010E944C43B394AA0C19F4739477
:10599000AA24A394B7E0B71508F0BBCFE0E4EB1559
:1059A00048F4D7011B966C921B97611008C01D9696
:1059B0008C9205C0F70113861586148686C0D70120
:1059C00013968C918823B1F3B7016D5F7F4FDE0191
:1059D0001A969701255F3F4FCD01FA2EBB2EFB0192
:1059E0004191BF01FC014193CF0162177307B9F7E1
:1059F00088E0E0E0815039F09D91E927F0E0E45D36
:105A0000FD4FE491F7CF89898E1360CFD8018C9137
:105A1000811126C015968D919C9116970E94CB43BB
:105A20006F2D7B2DF801858196810E94AE4340E069
:105A300064EBD80115968D919C9116970E947B433B
:105A4000F801858196810E942843E82ED801159699
:105A50008D919C9116970E94CB43EE2009F453C080
:105A6000F801858196810E94CB43882341F0AE01E5
:105A70004F5F5F4F6F2D7B2DC8010E94B80CD8017E
:105A80001196EC908A85803109F440C06F2D7B2DF2
:105A9000C8010E9402448E1518F4F80181810AC0E1
:105AA0008A85803111F48CE005C06F2D7B2DC801F3
:105AB0000E940244D80111968C93119714968C91F0
:105AC00014978F5F14968C9301CFC6010E947321A7
:105AD000F6016781828193810E94752461960FB6D9
