:020000040000FA
:100000000C94DF020C9410030C9410030C94100356
:100010000C9410030C9410030C9410030C94100314
:100020000C9410030C943A610C943A610C943A616C
:100030000C9410030C9410030C9410030C941003F4
:100040000C9410030C9410030C9410030C941003E4
:100050000C9410030C9410030C9410030C94F06097
:100060000C9410030C94C6600C949C600C941003C8
:100070000C9410030C9410030C9410030C941003B4
:100080000C9410030C9410030C9410030C941003A4
:100090000C9472600C9448600C9410030C94100340
:1000A0000C9410030C9410030C9410030C94100384
:1000B0000C9410030C9410030C9410030C94100374
:1000C0000C9410030C9410030C9410030C941E60F9
:1000D0000C94F45F0C9410030C94CA5F0C94A05F12
:1000E0000C9410030C9468540C9427050C945E0D2A
:1000F0000C94A7380C9492380C94CE140C94BC0930
:100100000C94F0330C94750D0C945E0C0C944C050F
:100110000C9428420C947F0D0C941E2E0C94D40940
:100120000C94B2140C94780D0C9464210C945C5FC4
:100130000C94AA130C940A220C9490520C942A0E3C
:100140000C947A540C9433510C94BE420C94235169
:100150000C94830D0C946A360C9485090C946705F5
:100160000C9420520C94A63A0C944D090C940B312B
:100170000C94AC0F0C94334D0C942D5E0C945040A9
:100180000C940C5F0C941E0E0C9442050C94460CBF
:100190000C948A0D0C948C5D0C9446050C9478128A
:1001A0000C94EA380C94940B0C948F250C946805ED
:1001B0000C94B70B0C9421040C94D6140C947B1261
:1001C0000C94E2220C947E0D0C94403C0C9450054F
:1001D0000C945E050C94963C0C94AA030C94823704
:1001E0000C94302D0C946C050C94280E0C947A0D04
:1001F0000C94820D0C94D8140C94D2230C94761287
:100200000C946B3C0C9437030C945D0D0C94200EF5
:100210000C94322F0C94F7310C94FE400C9477041C
:100220000C942D050C94C43B0C94873A0C94A63B7B
:100230000C9429340C9472410C94260E0C9416667E
:100240000C9468120C9463090C94C53F0C94D03A3A
:100250000C94D20B0C94240E0C94B0380C94FF0325
:100260000C94C4090C944E410C94D0240C9461302D
:100270000C94C4040C9482420C94AD390C94D014A8
:100280000C94AD520C94D2140C9471520C946205DF
:100290000C94CE330C94EA3A0C94D3400C94F003B3
:1002A0000C94DA0F0C945A050C94520D0C944F4296
:1002B0000C9431050C94865D0C94290E0C94130457
:1002C0000C94790D0C9411510C94B5330C943905A0
:1002D0000C94295F0C9413280C94A6030C942A24E4
:1002E0000C9435050C947C0D0C947D0D0C946E09CA
:1002F0000C94220E0C9433410C946C120C949D427D
:100300000C94D4140C9479360C943C050C94D05D68
:100310000C94AA400C94523F0C94DD2F0C9465521F
:100320000C94C0090C9454050C94B6610C943621BD
:100330000C94EA0B0C94321B00407A10F35A00A084
:10034000724E18090010A5D4E80000E8764817009E
:1003500000E40B54020000CA9A3B000000E1F505DE
:10036000000080969800000040420F000000A08628
:1003700001000000102700000000E803000000005A
:100380006400000000000A000000000001000000FE
:1003900000002C76D888DC674F0823DFC1DFAE5918
:1003A000E1B1B796E5E3E453C63AE651997696E8AB
:1003B000E6C28426EB898C9B62ED407C6FFCEFBC2F
:1003C0009C9F40F2BAA56FA5F490055A2AF75C935A
:1003D0006B6CF9676DC11BFCE0E40D47FEF520E690
:1003E000B500D0ED902E0300943577050080841E73
:1003F000080000204E0A000000C80C333333330FCE
:10040000986E12831141EF8D2114893BE65516CF6A
:10041000FEE6DB18D1844B381BF77C1D901DA4BB76
:10042000E424203284725E228100C9F124ECA1E52B
:100430003D27CDCCCC3D0AD7233C17B7D13877CC5C
:100440002B329595E6241FB14F0A0000803FCDCC9A
:10045000CC3D6F12833A95BFD6337D1D9026B3CE27
:10046000010C000020410000C84200401C4620BC96
:10047000BE4CCA1B0E5AAEC59D74005EBCE2613F05
:10048000DD83C29C7E20A3FD1F41009D23BE46DB71
:1004900065F88C11AF32CA57E974000020002300C0
:1004A000260029002C002F0032000001000003016B
:1004B0000601090100000A0B02090C0D0E080703D2
:1004C0000401000000000000000000000000000027
:1004D000000000000000000000000000000000001C
:1004E00012111000000000000000000000000000D9
:1004F00000000000000000000000000022002500B5
:1005000028002B002E0031003400020100000501FC
:1005100008010B0100002100240027002A002D0003
:100520003000330001010000040107010A0101024B
:1005300010202008081020401020408002010201F5
:1005400008040201010204081020408080402010AD
:100550000804020180040201804020100804020106
:10056000080402010102040810204080010204086E
:100570001020408005050505070508080808020247
:1005800002020A0A0808040404040101010101012D
:1005900001010303030303030303040707070C0C10
:1005A0000C0C0C0C0C0C02020202060606060606D7
:1005B00006060B0B0B0B0B0B0B0BB661166611240F
:1005C0001FBECFEFD1E2DEBFCDBF00E00CBF1EE00B
:1005D000A0E0B2E0ECE3F6EE00E00BBF02C0079053
:1005E0000D92AA35B107D9F722E1AAE5BEE001C014
:1005F0001D92AF3EB207E1F712E0CEEDD2E000E08F
:1006000006C021970109802FFE010E94F46ECD3DA6
:10061000D10780E00807A9F70E94BB630C940C7314
:100620000C940000CF93DF93EC01FA013296E60FB1
:10063000F71FDC019D012C1B3D0BCF01861B970B87
:100640004D91442311F04193F5CFAC01421B530B64
:10065000640F751FFB013297308361507109FB01F4
:100660002083DF91CF9108958CBD9DBD089508959D
:100670000F931F93CF93DF9300D000D01F92CDB77D
:10068000DEB78C01FB01342F498342814A83938179
:100690009B8324812C8385818D831E82430F552764
:1006A000551F490F511D240F352F311D820F932FD8
:1006B000911D8F83D8018D919C91DC01ED91FC916E
:1006C0000084F185E02D1995F801A081B181ED91AB
:1006D000FC911197892B31F00284F385E02DCD0137
:1006E0001995E8CF0280F381E02D47E050E0BE018C
:1006F0006F5F7F4FCD01199527960FB6F894DEBF37
:100700000FBECDBFDF91CF911F910F910895E09162
:10071000CF12F091D0123097A9F04091D31250919E
:10072000D41230E020E02417350764F4A191B19190
:1007300012966D917C9113976817790729F02F5FB6
:100740003F4FF1CFB0E0A0E0CD010895FC01818DD5
:10075000928D0895AF92BF92CF92DF92EF92FF9267
:100760000F931F93CF93DF936C017B018B01040FD9
:10077000151FEB015E01AE18BF08C017D10759F075
:100780006991D601ED91FC910190F081E02DC601B7
:100790001995892B79F7C501DF91CF911F910F91A1
:1007A000FF90EF90DF90CF90BF90AF900895FC0145
:1007B000A089B1898C91A689B78982FD0FC09C91CF
:1007C000818D8F5F8F73228D821749F0A18DAE0FBF
:1007D000BF2FB11D5D969C93818F08958C910895D4
:1007E000FC01538D448D252F30E0842F90E0821B37
:1007F000930B541710F0CF96089501970895FC01BC
:10080000918D828D981761F0A28DAE0FBF2FB11D13
:100810005D968C91928D9F5F9F73928F90E008956B
:100820008FEF9FEF0895FC01918D828D981731F025
:10083000828DE80FF11D858D90E008958FEF9FEF79
:100840000895FC01918D228D892F90E0805C9F4F4F
:10085000821B91098F739927089585EF9EE00E946E
:10086000210421E0892B09F420E0822F089582E9F8
:100870009FE00E94210421E0892B09F420E0822FCF
:1008800008958FE290E10E94210421E0892B09F470
:1008900020E0822F08958CEC90E10E94210421E059
:1008A000892B09F420E0822F0895FC01A48DA80F64
:1008B000B92FB11DA35ABF4F2C91848D90E00196A2
:1008C0008F739927848FA689B7892C93A089B189C2
:1008D0008C91837080648C93938D848D981306C063
:1008E0000288F389E02D80818F7D80830895EF92C7
:1008F000FF920F931F93CF93DF93EC0181E0888FDA
:100900009B8D8C8D98131AC0E889F989808185FFA9
:1009100015C09FB7F894EE89FF896083E889F9894B
:1009200080818370806480839FBF81E090E0DF914D
:10093000CF911F910F91FF90EF900895F62E0B8DA0
:1009400010E00F5F1F4F0F731127E02E8C8D8E115B
:100950000CC00FB607FCFACFE889F989808185FFC2
:10096000F5CFCE010E945504F1CFEB8DEC0FFD2F9A
:10097000F11DE35AFF4FF0829FB7F8940B8FEA897D
:10098000FB8980818062CFCFCF93DF93EC01888D8C
:100990008823B9F0AA89BB89E889F9898C9185FDFA
:1009A00003C0808186FD0DC00FB607FCF7CF8C9188
:1009B00085FFF2CF808185FFEDCFCE010E945504E7
:1009C000E9CFDF91CF91089580E090E0892B29F065
:1009D0000E944B0481110E94000080E090E0892B6E
:1009E00029F00E94410481110E94000080E090E003
:1009F000892B29F00E94370481110E94000080E0B9
:100A000090E0892B29F00E942D0481110C940000A4
:100A100008958150823108F05AC0E82FF0E088270D
:100A2000EB5EFA4F8F4F0C94F46E350539052705B0
:100A30002D05310567053C05420546054C05500569
:100A400054055A055E056705620568056C058091C9
:100A500080008F77809380000895809180008F7D43
:100A6000F9CF80918000877FF5CF84B58F7784BDE3
:100A7000089584B58F7DFBCF8091B0008F778093F0
:100A8000B00008958091B0008F7DF9CF80919000E3
:100A90008F77809390000895809190008F7DF9CF9B
:100AA00080919000877FF5CF8091A0008F77809311
:100AB000A00008958091A0008F7DF9CF8091A000C3
:100AC000877FF5CF809120018F7780932001089553
:100AD000809120018F7DF9CF80912001877FF5CF14
:100AE000CF93DF93282F30E0F901EC54FB4F849132
:100AF000F901E25DFA4FD491F901EC58FA4FC49133
:100B0000CC23A1F081110E940905EC2FF0E0EE0F3B
:100B1000FF1FE656FB4FA591B491EC91ED2381E0C8
:100B200090E009F480E0DF91CF91089580E090E0BB
:100B3000FACF1F93CF93DF93282F30E0F901EC54C5
:100B4000FB4F8491F901E25DFA4FD491F901EC5821
:100B5000FA4FC491CC23A9F0162F81110E940905E8
:100B6000EC2FF0E0EE0FFF1FE650FB4FA591B49184
:100B70008FB7F894EC91111108C0D095DE23DC9367
:100B80008FBFDF91CF911F910895DE2BF8CFCF93C8
:100B9000DF9390E0FC01E25DFA4F24918C589A4F6C
:100BA000FC0184918823D1F090E0880F991FFC010B
:100BB000EC5EFA4FA591B491FC01E650FB4FC59154
:100BC000D49161110EC09FB7F8948C91E22FE095FB
:100BD0008E238C932881E223E8839FBFDF91CF91FE
:100BE00008958FB7F894EC91E22BEC938FBFF6CF7A
:100BF0003FB7F8948091A40E9091A50EA091A60EF7
:100C0000B091A70E26B5A89B05C02F3F19F00196FD
:100C1000A11DB11D3FBFBA2FA92F982F8827BC0156
:100C2000CD01620F711D811D911D42E0660F771F7E
:100C3000881F991F4A95D1F708958F929F92AF927E
:100C4000BF92CF92DF92EF92FF926B017C010E94E4
:100C5000F8054B015C01C114D104E104F104B9F0C1
:100C60000E94F805681979098A099B09683E734052
:100C70008105910580F321E0C21AD108E108F1084D
:100C800088EE880E83E0981EA11CB11CE4CFFF9073
:100C9000EF90DF90CF90BF90AF909F908F9008958E
:100CA0002FB7F8946091A00E7091A10E8091A20EC2
:100CB0009091A30E2FBF0895EF92FF920F931F9371
:100CC000CF93DF9300D01F92CDB7DEB7FA0120E0BB
:100CD0008E010F5F1F4F9E2F9F77EE0FEF2FEE1F9E
:100CE000FF0BF195309709F09068D801A20FB11D64
:100CF0009C932F5F309779F730E0FB01E21BF30BF9
:100D00008483FB01E21BF30B3596D801CD01801BD8
:100D1000910B821793071CF48D918193F7CF2F5F6E
:100D20003F4F8091F7119091F8118901040F151F21
:100D3000621B730B6B5F7F4FDC01ED91FC910280B6
:100D4000F381E02DA80119957C010E945006609363
:100D50007B1270937C1280937D1290937E1281E0BF
:100D60000E151F0509F080E00F900F900F900F9067
:100D7000DF91CF911F910F91FF90EF900895CF9247
:100D8000DF92EF92FF92CF93DF93EC010E94500627
:100D90006B017C018091F7119091F811DC01ED91CC
:100DA000FC910084F185E02D1995892B69F40E944E
:100DB00050066C197D098E099F0968397A438105AF
:100DC000910540F380E00DC08091F7119091F811EA
:100DD000DC01ED91FC910284F385E02D1995888367
:100DE00081E0DF91CF91FF90EF90DF90CF90089559
:100DF0003F924F925F926F927F928F929F92AF92AB
:100E0000BF92CF92DF92EF92FF920F931F93CF93F7
:100E1000DF931F92CDB7DEB75C0189EF91E10E94AD
:100E2000BF06811116C010E000E0C8010F90DF91ED
:100E3000CF911F910F91FF90EF90DF90CF90BF90D7
:100E4000AF909F908F907F906F905F904F903F906A
:100E500008953090F91119823AEF832E31E1932EE3
:100E6000EE24E394F12CD12CC12C412C512C3201D5
:100E70004394CE0101960E94BF068823A1F2870108
:100E80000F5F1F4F8981F40181934F01282F2F7726
:100E900030E0249DA001259D500D349D500D11245E
:100EA000C40ED51E27E0440C551C661C771C2A95E1
:100EB000D1F787FD31C0F32DF07F3F2E8FEF800FEC
:100EC000D5018C93B0E3FB133EC0C80187509E4E02
:100ED0000E94BF06882309F4A6CFC70185509E4E05
:100EE0000E94BF06882309F49ECF0E5F1F4FD501D5
:100EF000EC91F0E0ED50FE4EE780F12CFE2CEE245C
:100F00008085E80EF11C8091F91181FF03C0B2E0E9
:100F1000EB0EF11C92E01AC078010530110509F0C2
:100F2000A8CF8FEF9FEF90939312809392128091AE
:100F3000F7119091F811DC01ED91FC910488F5898D
:100F4000E02D199570CF90E0F12CE12C692E712CD9
:100F5000601A710A8EEF882E99249A94C301800F2B
:100F6000911F8C159D0570F5CE0101960E94BF065C
:100F7000882309F458CF8091901290919112009794
:100F8000B1F0E0E33E1213C0D5012C91F401E21B55
:100F9000F1099F01200F311FE216F30640F4DC0136
:100FA000ED91FC910190F081E02D69811995003857
:100FB000110528F48981F801ED50FE4E86830F5FFC
:100FC0001F4FCCCF8091901290919112892B09F0F4
:100FD0002CCF0138110508F026CF27CFFC01208146
:100FE0002EBD9B012150310941F051810DB407FE06
:100FF000FDCF4EB55EBD4193F5CF61507109860FAF
:10100000971F0DB407FEFDCF2EB5FC012083089578
:10101000E091EF0EF091F00E80819091EE0E892B11
:1010200080830895E091EF0EF091F00E9081809111
:10103000EE0E80958923808308958EBD00000DB447
:1010400007FEFDCF8EB50895AF92BF92CF92DF928B
:10105000EF92FF920F931F93CF93DF9300D000D0B6
:101060001F921F92CDB7DEB78C017B016A01809180
:10107000F20E8333E1F45801A40EB51EA016B1069A
:1010800009F46FC00E94120880EF0E941D08812F92
:101090000E941D08802F0E941D080F5F1F4FF7013F
:1010A00081917F010E941D080E940808E7CF5B0123
:1010B000A40EB51E8433C1F40E94120819830A835A
:1010C0008D2D80688B83CC8264E070E0CE01019628
:1010D0000E94EE07AE14BF0409F441C0F7018191EC
:1010E0007F010E941D08F6CF0E9412080F3F1105D4
:1010F00009F028F419820A8384E08B830CC017FD61
:1011000017C019820A8333E0169507953A95E1F7DF
:10111000007E0C600B8386E0C816D104A0F5F701B1
:10112000DE011496EA15FB0599F081918D93FACFB3
:10113000C80126E0969587952A95E1F7807E198368
:101140000A830115104C10F48461D7CF8C61D5CF80
:10115000B6016D5F7F4FCE0101960E94EE070E949F
:101160000808C60128960FB6F894DEBF0FBECDBFA3
:10117000DF91CF911F910F91FF90EF90DF90CF9073
:10118000BF90AF90089563E070E0CE0101960E9499
:10119000EE07F70181917F010E941D08AE14BF0484
:1011A000C1F7DDCFCF93DF931F92CDB7DEB7898331
:1011B00041E050E0BE016F5F7F4F90E080E00E9411
:1011C00024080F90DF91CF91089590E02091F20EC6
:1011D000233339F40C96982F990F990F990F80E0CB
:1011E00008954896F8CFDA01E091F30EF0E0FE2F73
:1011F000EE27E60FF71F90E0982F8827A901BD0181
:101200008E0F9F1F0C942408CF93DF931F921F9281
:10121000CDB7DEB779836A8322E030E0AE014F5F5D
:101220005F4F60E170E00E94F3080F900F90DF9134
:10123000CF910895CF93DF931F921F92CDB7DEB762
:1012400079836A8322E030E0AE014F5F5F4F64E054
:1012500070E00E94F3080F900F90DF91CF910895F6
:10126000CF93DF931F92CDB7DEB72091F30E30E01E
:10127000322F2227260F371F90E0982F8827498387
:1012800041E050E0BE016F5F7F4F820F931F0E94CD
:1012900024080F90DF91CF910895CF93DF931F9291
:1012A000CDB7DEB76983DC01ED91FC910280F3815B
:1012B000E02D41E050E0BE016F5F7F4F19950F9028
:1012C000DF91CF910895FC019485FB0184859813EB
:1012D00003C081E0983008F080E00895CF93DF9359
:1012E0001F92CDB7DEB76983DC01ED91FC910280DE
:1012F000F381E02D41E050E0BE016F5F7F4F199513
:101300000F90DF91CF9108950895FF920F931F934F
:10131000CF93DF93EB01FC01178A168A2A812111F2
:1013200009C02B81211106C02C81211103C02D8100
:10133000222301F141155105E9F08A01FC01F08CED
:1013400080E591E00E943403AE014E5F5F4F24E0E0
:1013500030E06CE070E08F2D0E94F308B8018F2D13
:101360000E94040981E090E0DF91CF911F910F91DD
:10137000FF90089580E0F7CFFC018485958508955E
:10138000FC0184899589089521EA33E0FC013183C9
:101390002083FB014089518962897389FC01428362
:1013A0005383648375830895DC01ED91FC91048C73
:1013B000F58DE02D1994DC0180E0615090F09D9155
:1013C0009827E92FEF70F0E0E658FB4F2491E92FC2
:1013D000E295EF70F0E0E657FB4FE491822F8E2705
:1013E000ECCF0895DC012C911196ED91FC91F894CD
:1013F0008181822B81839281322F30959323928336
:1014000087E090E00197F1F781818323818383E274
:1014100090E00197F1F790817894EFECF0E031974C
:10142000F1F7922381E009F480E00895FC019081B6
:101430000180F281E02D292F209560FF14C0F894DF
:101440008281822382838181892B8183A3E2B0E020
:101450001197F1F78281982B9283789487ED90E031
:101460000197F1F70895F894828182238283818124
:10147000892B8183AFEFB0E01197F1F78281982B30
:10148000928378948FE090E0EBCFDF92EF92FF921F
:101490000F931F93CF93DF93EC01D62EE42E08E039
:1014A00010E0FF24F39461E08D2D8F2109F460E0BA
:1014B000CE010E94160AFF0C01501109A1F7E1109C
:1014C00010C0F894E981FA819181888180958923FF
:1014D0008183E981FA819281888180958923828341
:1014E0007894DF91CF911F910F91FF90EF90DF9053
:1014F0000895EF92FF920F931F93CF93DF938C0188
:101500007B0140E065E50E94450AE70188E0E80EBE
:10151000F11C699140E0C8010E94450ACE15DF0523
:10152000C1F7DF91CF911F910F91FF90EF90089538
:10153000FC0190810180F281E02DF8948181292FB6
:1015400020958223818378943DE743E050E0315039
:1015500029F1DA011197F1F780818923C1F3F89419
:101560008281822382838181892B81837894ABE776
:10157000B7E01197F1F7F894818182238183A3E189
:10158000B1E01197F1F78081982381E009F080E0C4
:101590007894E3E6F6E03197F1F7089580E0089556
:1015A0006F927F928F929F92AF92BF92CF92DF9273
:1015B000EF92FF920F931F93CF93DF93EC017B0188
:1015C0008A018E819F810E94980A811102C090E059
:1015D00037C0B7018E819F810E94790A40E06EEB8F
:1015E0008E819F810E94450A7801680189E0C80EBA
:1015F000D11CAE80BF8088E0882E912C712C66248F
:101600006394C5010E94F20981117628660CE1E01D
:101610008E1A9108B1F7F70171927F01EC15FD0563
:1016200041F78E819F810E94980A813081F668E09F
:10163000C8010E94DB0991E0F80120852813C7CF7B
:10164000892FDF91CF911F910F91FF90EF90DF9045
:10165000CF90BF90AF909F908F907F906F900895A4
:10166000CF93DF9300D000D000D0CDB7DEB7FB0121
:101670002081203199F0AE014F5F5F4F0E94D00A68
:10168000882331F08D818F33A9F020F48F31A1F0C0
:1016900080E007C08F3521F08F37D1F78CE001C093
:1016A0008BE029960FB6F894DEBF0FBECDBFDF9159
:1016B000CF9108958AE0F5CF89E0F3CFCF93DF9300
:1016C000FC01A481B581109721F480E0DF91CF91D6
:1016D0000895EC01ED91FC9111970688F789E02DB2
:1016E000CD01199581111EC0FE01E156FF4F808189
:1016F0009181892B51F78DEF9FEF918380838C81AE
:101700009D81DC01ED91FC910680F781E02D19951A
:101710008C819D81DC01ED91FC910488F589E02D9F
:101720001995D3CF81E0D2CFEF92FF920F931F9301
:10173000CF93DF93EC018B017A010E945006FE01EA
:10174000E857FF4F60837183828393838C819D81EF
:10175000DC01ED91FC910280F381E02DA701B8013D
:10176000DF91CF911F910F91FF90EF9019941F93EC
:10177000CF93DF93EC01162F0E945006FE01E8572D
:10178000FF4F60837183828393838C819D81DC0111
:10179000ED91FC910190F081E02D612FDF91CF91CF
:1017A0001F91199420919D0E30919E0E2817390794
:1017B00071F490919C0E80919B0E981741F0E091EE
:1017C0009C0EF0E0E55AF14F808190E008958FEF94
:1017D0009FEF0895EF92FF920F931F93CF93DF93A4
:1017E000DC015C96ED90FC905D97E114F10479F4D6
:1017F00081E090E013969C938E93129790E080E0A6
:10180000DF91CF911F910F91FF90EF900895519626
:10181000ED91FC91529750968C915097982F9095FE
:101820000FB75E962C915E97122F127021FD609576
:10183000F8942081112319F1282B2083E7012197A7
:10184000F1F728E0462F50E0308160FF1AC0382BB6
:101850003083E7012197F1F7BA017595679521501B
:1018600089F7112381F08081892380830FBF5C96E3
:101870008D919C910197F1F781E090E0C1CF2923F0
:10188000DCCF3923E5CF9081892BEFCF20919D0EBE
:1018900030919E0E2817390771F480919B0E20918C
:1018A0009C0E90E0805C9F4F821B910960E470E089
:1018B0000E94E06E089590E080E0089520919D0ED2
:1018C00030919E0E28173907B9F490919C0E8091A3
:1018D0009B0E981789F0E0919C0EF0E0E55AF14FCD
:1018E000808120919C0E30E02F5F3F4F2F73332774
:1018F00020939C0E90E008958FEF9FEF0895CF9373
:10190000DF93FC01828D938D892B41F1A0919D0E77
:10191000B0919E0EAE17BF0709F1109751F0539684
:10192000CD91DC915497988155968C91809589231F
:101930008883868D8E7F868F10929B0E10929C0ED0
:10194000F0939E0EE0939D0EA389B4898C919589A6
:10195000892B8C9381E0DF91CF91089580E0FBCFBC
:101960004F925F926F927F928F929F92AF92BF92AF
:10197000CF92DF92EF92FF920F931F93CF93DF935B
:1019800000D000D01F92CDB7DEB76C01E62E8A01E1
:10199000DC0112968C911297882321F08D919C91F5
:1019A0000E947F0C0E9450064B015C01F12CB6E0B6
:1019B000BF1598F10E945006681979098A099B0998
:1019C000F601438054806580768064157505860530
:1019D000970530F580819181DC01ED91FC910084C7
:1019E000F185E02D1995181619060CF7F60180817E
:1019F0009181DC01ED91FC910284F385E02D199534
:101A0000811102C0FF20B1F2E1E0F0E0EC0FFD1F18
:101A1000EF0DF11D8083F394CACFB7E0FB1611F0F0
:101A200080E01CC049818A81840F9927991F2B81EE
:101A3000820F911D2C81280F392F311D8D81280F88
:101A4000311D8E81820F932F911D9F819813E8CFB6
:101A5000E412E6CF01151105C1F481E027960FB617
:101A6000F894DEBF0FBECDBFDF91CF911F910F91D4
:101A7000FF90EF90DF90CF90BF90AF909F908F90AE
:101A80007F906F905F904F900895DE011196F8015E
:101A900098012B5F3F4F1196E217F307F1F28C91FB
:101AA0008193F9CFFB0122813381FC0133832283AF
:101AB000FB012481FC01248308950895CF93DF93D3
:101AC000EC0161E08F810E94C70561E070E08D81CB
:101AD000813011F070E060E0E881F9810288F389DB
:101AE000E02DCE01DF91CF911994FC01158208956C
:101AF0000895089587E0089508950895089590E061
:101B000080E008950895FC011186128613861486DC
:101B100015820895089580339CF08A3324F08F3520
:101B200024F08B3724F481E0089581344CF08B3518
:101B3000D4F393ED980F81E09230B0F380E00895F4
:101B40008B32B9F7F0CFFC018685811114C0A185D5
:101B5000B285838594852FEF3FEFA817B90730F43E
:101B6000CD010196928781872C9130E037FD20E0EE
:101B7000258781E08687858508951F93CF93DF931E
:101B8000EC01162F0E94A30D811306C01E8681E072
:101B9000DF91CF911F91089580E0FACFCF93DF932B
:101BA000EC01CE010E94A30D8B303CF489304CF443
:101BB000882349F081E0888710C08D3011F0803291
:101BC000C9F71E86EECF888581110AC081E090E0BA
:101BD000CF5ADF4F9983888380E0DF91CF910895BA
:101BE00082E090E0F5CFFC01892B41F094819F7752
:101BF0009450923018F480819181089590E080E0B3
:101C00000895FC0185859F01275F3F4F85FD02C038
:101C100030E020E0B901CF010895FC010E969183D8
:101C2000808393838283805C994F95838483978399
:101C300086831086858580788587089584E0089559
:101C40008BE0089583E0089585E0089580E008958D
:101C50000895089580E00895FC01828193810097A2
:101C6000C1F024813581468157812417350740F022
:101C7000138212820190F081E02D81E08087089527
:101C8000A9014F5F5F4F55834483820F931FFC016F
:101C9000608308959F92AF92BF92CF92DF92EF92AE
:101CA000FF920F931F93CF93DF9300D01F921F9249
:101CB000CDB7DEB78C010E94A30DD82EF801168691
:101CC000F12CE12C70EFC72EC8010E94A30DF80182
:101CD0001686D81609F4C1C0811119C0F801EF5A4F
:101CE000FF4F82E090E09183808380E00F900F901F
:101CF0000F900F900F90DF91CF911F910F91FF9058
:101D0000EF90DF90CF90BF90AF909F9008958C356B
:101D100009F09EC0C8010E94A30D8823F9F2E3EAEE
:101D2000F3E0853709F088C0F801168664E0962E46
:101D3000B12CA12CC8010E94A30D882379F2813413
:101D40004CF48053803148F0F801EF5AFF4F83E0A4
:101D500090E0C9CF8F7D8753F5CF54E0AA0CBB1C10
:101D60005A95E1F7A82AF80116869A949110E2CFC5
:101D7000C501985D8115944020F4750123E0F2229D
:101D8000A3CFC5019C5D8115944008F5F3E0BF2207
:101D9000C701982F8827990F990F8A299B29B0E0AE
:101DA000A0E01196198280389105A105B10598F43B
:101DB0008A835E0123E0A20EB11CF50162915F01EE
:101DC000662309F481CFC8010E942C0EF6CFC5010D
:101DD000B0E0A0E0E7CF282F2F7320682A8336E0F9
:101DE000B695A795979587953A95D1F78032910545
:101DF00038F4806C8B835E0184E0A80EB11CDDCFCB
:101E0000282F2F7320682B8326E0969587952A9597
:101E1000E1F78031910538F4806E8C835E01E5E056
:101E2000AE0EB11CCACF80688C83CD825E01F6E015
:101E3000AF0EB11CC2CF32969081992309F484CFA2
:101E40008913F9CF8181882309F47ECFF8011686A2
:101E5000682FC8010E942C0E37CF60E0C8010E9495
:101E60002C0EF80182819381892B29F4EF5AFF4FC0
:101E700084E090E038CF81E039CFEF92FF920F936A
:101E80001F93CF93DF93DC01ED90FC90E7012A8153
:101E90003B81E881F981E217F30780F4B901DF01A2
:101EA000EB014991BE018D010F5F1F4F5C914513FE
:101EB00018C0D8014111F4CF309759F4FC01848146
:101EC0009581820F931FD70113969C938E9312973F
:101ED000F901CF01DF91CF911F910F91FF90EF900A
:101EE0000895FD014191DF014111FBCFD4CFCF9384
:101EF000DF93DC01EB01EC81FD818A819B810896F7
:101F0000E817F90740F481E08887F0E0E0E0CF01CE
:101F1000DF91CF9108953897FD83EC833097B9F323
:101F20001296CD91DC911397209791F0CF018C1BE5
:101F30009D0B23E0959587952A95E1F78D83139660
:101F4000FC93EE9312971582148217821682DFCFCC
:101F50001196FC93EE93F3CF0895CF93FC01892B58
:101F600091F094819F77983029F078F4992359F073
:101F7000963079F4C1E080819181A281B381892B6F
:101F80008A2B8B2B39F4C0E005C09A3099F39C3032
:101F900021F0C1E08C2FCF910895C1E020E030E026
:101FA000A90160817181828193810E94196C8111E4
:101FB000F1CFE9CFFC0114861586168617861186A7
:101FC000158208954F925F926F927F928F929F92A7
:101FD000AF92BF92CF92DF92EF92FF920F931F9337
:101FE000CF93DF93EC017B0188818B32C1F18D327D
:101FF000B9F5219611E0888190ED980F9A3018F08C
:102000008E3209F03AC160E070E0CB01FE0121910F
:1020100000ED020F0A3030F56A3929E972078207AC
:1020200029E1920708F045C0AAE0B0E09B01AC01AD
:102030000E94A46D802E912CB12CA12C240135017D
:10204000409450946094709446165706680679063A
:1020500080F1680D791D8A1D9B1DEF01D7CF219658
:1020600010E0C9CF211125C0F70124812078112368
:10207000C1F02A6024836083718382839383812FDC
:10208000DF91CF911F910F91FF90EF90DF90CF9054
:10209000BF90AF909F908F907F906F905F904F9088
:1020A000089528602483608371838283938311E081
:1020B000E6CF00E0EAE08E2E912CA12CB12C611528
:1020C0007105F0E88F07910540F0A50194010E9489
:1020D000636DCA01B9010F5FF2CFFE01299130EDA6
:1020E000320F3A3010F40F5FF8CF2E32F1F4EF01D7
:1020F0002196FE012196208150EDD52ED20E29E0A9
:102100002D1598F06C3CECEC7E07ECE08E07910509
:1021100080F7AAE0B0E09B01AC010E94A46D6D0DB8
:10212000711D811D911D0150E4CF20812F7DD0E0D4
:10213000C0E0253409F05DC021812D32D9F53296F9
:10214000CC24C394DF01D0E0C0E0202F002E000C8F
:10215000330B4AE0B42EFD01DD9040ED4D0D4A30C9
:1021600008F042C0BC9EA001BD9E500D1124CD2D93
:10217000DD0CDD0BE097C40FD51FAE01420F531FDE
:102180004732510544F3F7018481CC20D1F040E07F
:1021900050E060E070E8111103C040E050E0BA0187
:1021A00080788C60F70184834083518362837383DA
:1021B0001C2D65CF2B3219F03196C12CC3CF32962E
:1021C000FCCF40E050E060E87FEF111104C040E038
:1021D00050E060E87FE780788C60F701848340837B
:1021E00051836283738363CFCC2019F0D195C1955D
:1021F000D1092081211141C0C00FD11D07FDDA9501
:102200000E941E6C1C161D0604F500E0C0FF0CC0E9
:1022100024E0029FF0011124EE59FB4F25913591E6
:10222000459154910E947F6CD595C7950F5F20977B
:1022300069F711119058F701248120782C602483CC
:10224000608371838283938332CFD195C195D10905
:1022500000E0209771F3C0FF0CC024E0029FF00162
:102260001124EE5CFB4F25913591459154910E94CC
:102270007F6CD595C7950F5FECCF10E000CFCF9264
:10228000DF92EF92FF92CF93DF9300D01F921F92C5
:10229000CDB7DEB7DC0114969C9114979F779630EA
:1022A00071F0FD01973028F4943070F590E080E0F3
:1022B00011C09A30D9F09C30A1F19830B9F78D91C6
:1022C0009D910D90BC91A02D811520E89207A1054C
:1022D000B10560F70F900F900F900F900F90DF9166
:1022E000CF91FF90EF90DF90CF9008958081918102
:1022F000A281B381813020E89207A105B105B0F633
:10230000919581959109E6CF808191811D82BE01D1
:102310006F5F7F4F0E94E20FCE0101960E943F1136
:10232000D9CFC080D180E280F38020E030E040E06F
:1023300057ECC701B6010E94DB6E87FDB7CF20E0E6
:102340003EEF4FEF56E4C701B6010E94196C181614
:102350000CF4ACCFC701B6010E94A56ECB01BACF79
:10236000CF92DF92EF92FF92CF93DF9300D01F9234
:102370001F92CDB7DEB7FC0194819F77963039F17B
:1023800028F49430C8F590E080E02AC09830F9F045
:102390009C30C9F7C080D180E280F38020E030E03B
:1023A000A901C701B6010E94DB6E87FDECCF20E0DA
:1023B0003FEF4FE757E4C701B6010E94196C1816AA
:1023C00014F3C701B6010E94AC6ECB0109C0808135
:1023D0009181A281B381009721E0A207B10598F60F
:1023E0000F900F900F900F900F90DF91CF91FF9073
:1023F000EF90DF90CF900895808191811D82BE0182
:102400006F5F7F4F0E94E20FCE0101960E94B011D4
:10241000E7CFCF92DF92EF92FF92CF93DF9300D07E
:102420001F921F92CDB7DEB7FC0194819F77963043
:1024300031F120F49430C8F580E02BC09830F9F0E9
:102440009C30D1F7C080D180E280F38020E030E082
:10245000A901C701B6010E94DB6E87FDEDCF20E028
:1024600030E04FE753E4C701B6010E94196C18161B
:102470001CF3C701B6010E94AC6E862F0AC0808192
:102480009181A281B3818F3F9105A105B10509F02A
:1024900098F60F900F900F900F900F90DF91CF91C3
:1024A000FF90EF90DF90CF900895808191811D8201
:1024B000BE016F5F7F4F0E94E20FCE0101960E9426
:1024C0000912E7CF009711F00C94091280E00895EB
:1024D000FC01768765870895DC01ED91FC91068CFF
:1024E000F78DE02D199591E089270895862F08959D
:1024F00081E08627089521E0FC018485883008F07A
:1025000020E0822F0895BF92CF92DF92EF92FF9248
:102510000F931F93CF93DF93EC01B62EC72E8D85BB
:10252000811105C0CE010E94980A81110EC01B8640
:102530001D861C8680E0DF91CF911F910F91FF9047
:10254000EF90DF90CF90BF90089540E060EFCE0114
:102550000E94450A01E0E12CD12C11E0CE010E943D
:10256000F209F82ECE010E94F20991E0F91218C08A
:10257000813099F51134D8F2DB86D11002C081E0A8
:102580008D878B81882399F22396EB2DFC2DCF012B
:10259000089629912193E817F907D9F781E0CBCF65
:1025A000EE2DF0E0F8120FC08B851817A0F4DE01B5
:1025B000AE0FBF1F13968C91802379F4F12C193044
:1025C00008F41C87D12EEC0FFD1F8381902F90956E
:1025D000892383830AC08113F1CFFE01EE0DF11D23
:1025E0008381802B8383FF24F3946F2DCE010E947F
:1025F000160A1F5F000F11F4E39401E087E08E15C7
:1026000008F0ACCFB7CFEF92FF920F931F93CF9309
:10261000DF937C018B01EB0109900020E9F7219702
:10262000C61BD70B83EF91E10E945E0B882389F1D3
:10263000F70101900020E9F73197EE19FF09CE016B
:102640000796E80FF91FE138F10518F545E050E06D
:1026500069EF71E1C7010E941203F801DC01A75084
:10266000BE4EA8014C0F5D1FE417F50719F021912C
:102670002D93FACF2597AE01480F591F69EF71E1ED
:1026800080E3DF91CF911F910F91FF90EF900C9419
:102690005C0680E0DF91CF911F910F91FF90EF904A
:1026A00008958F929F92AF92BF92EF92FF920F93F5
:1026B0001F93CF93DF93CDB7DEB7A1970FB6F894F2
:1026C000DEBF0FBECDBF7C01FA01CB0119A22230C3
:1026D00008F42AE08E010F5D1F4F822E912CB12C41
:1026E000A12CBF01A50194010E94636DF901CA01EB
:1026F0006A3074F5605DD8016E938D01232B242B15
:10270000252B79F790E080E0109789F0FD0101908A
:102710000020E9F73197AF014A1B5B0BD701ED9120
:10272000FC910280F381E02DB801C7011995A196B3
:102730000FB6F894DEBF0FBECDBFDF91CF911F91D2
:102740000F91FF90EF90BF90AF909F908F90089562
:10275000695CD1CF8F929F92AF92BF92CF92DF925E
:10276000EF92FF920F931F93CF93DF937C01EB01C6
:102770006C0182E0C80ED11C4701E5E08E0E911C71
:1027800010E000E0F60141916F0150E070E060E080
:102790002AE0CE010E9451135C01E881F981019089
:1027A000F081E02D6EE2CE0119958A0D9B1D080F78
:1027B000191FC814D90431F7F701458150E070E0C2
:1027C00060E02AE0CE010E945113800F911FDF913B
:1027D000CF911F910F91FF90EF90DF90CF90BF901E
:1027E000AF909F908F900895EF92FF920F931F9359
:1027F000CF93DF93CDB7DEB7C456D1090FB6F894A7
:10280000DEBF0FBECDBF8C017B0183EF91E10E9443
:102810005E0B882319F1F801EE0FFF1FE656FD4EFF
:1028200081818F9380818F938091B8121F928F93B3
:1028300084EB93E09F938F938E010F5F1F4F1F9345
:102840000F930E943670F70160817181C8010E9468
:1028500003130FB6F894DEBF0FBECDBFCC59DF4FC8
:102860000FB6F894DEBF0FBECDBFDF91CF911F91A1
:102870000F91FF90EF900895AF92BF92CF92DF92A9
:10288000EF92FF920F931F93CF93DF93CDB7DEB7F5
:10289000C456D1090FB6F894DEBF0FBECDBFD62EF9
:1028A000C72E5A019F938F931F9280E58F9307EC59
:1028B00013E01F930F9389EC93E09F938F938EED1A
:1028C00093E09F938F93CE0101967C019F938F930A
:1028D0000E9436700FB6F894DEBF0FBECDBF92E0F7
:1028E000A916B10489F183E0A816B104A1F1AA9454
:1028F000AB2819F11F930F93FF92EF9289EE93E0AB
:102900009F938F93CF92DF920E9436700FB6F89408
:10291000DEBF0FBECDBFCC59DF4F0FB6F894DEBF80
:102920000FBECDBFDF91CF911F910F91FF90EF9020
:10293000DF90CF90BF90AF9008951F930F93FF92B9
:10294000EF9285EF93E0DCCF1F930F93FF92EF920E
:1029500081E094E0D5CF1F930F93FF92EF928BE02D
:1029600094E0CECF0C94D466CF93DF93EC018881B2
:102970009981009711F00E94D466198218821D82F5
:102980001C821B821A82DF91CF910895FC01808105
:102990009181009711F00C94D46608950C94D4663C
:1029A0000C94D4660C94D4660C94D4660C94D466BF
:1029B0000C94D466FB0144815581FC01248135814E
:1029C0002417350778F080819181009759F0FB0139
:1029D000608171816115710529F00E94287021E0E4
:1029E000892B09F020E0822F08950F931F93CF9336
:1029F000DF93EC0188819981009759F02A813B810E
:102A00002617370730F081E0DF91CF911F910F91AA
:102A100008958B016F5F7F4F0E94106F009759F0F0
:102A2000998388831B830A832C813D81232B59F74B
:102A3000FC011082E8CF80E0E7CFEF92FF920F9386
:102A40001F93CF93DF936115710541F480E0DF910F
:102A5000CF911F910F91FF90EF900895411551056F
:102A6000B1F07B01EC010C811D81040F151FB80131
:102A70000E94F514882351F3288139818C819D812E
:102A8000B701820F931F0E9421701D830C8381E088
:102A9000DECFCF93DF93EC01FB0101900020E9F73B
:102AA0003197AF01461B570B0E941D15811103C0C2
:102AB000CE010E94B414CE01DF91CF910895CF933F
:102AC000DF93EC01FB0144815581608171810E949B
:102AD0001D15811103C0CE010E94B414CE01DF91F7
:102AE000CF9108956115710551F0FB01019000200F
:102AF000E9F73197AF01461B570B0C941D1580E089
:102B00000895CF93DF93EC01EAA1FBA1E80FF91F31
:102B10001282BC016E5F7F4F888199810E9472157D
:102B20001BA21AA2DF91CF910895CF93DF93EC01FE
:102B30008AA19BA19C012F5F3F4F3BA32AA3FE01CB
:102B4000E80FF91F62830296809718F0CE010E9469
:102B500081158CA19DA101969DA38CA3DF91CF919E
:102B60000895EF92FF920F931F93CF93DF93EC01A1
:102B70007B0162E20E9495158701F80161918F0146
:102B8000662391F0E3EAF3E0F280FF2049F0329609
:102B900081816813F9CF6CE5CE010E9495156F2DE8
:102BA000CE010E949515E9CF62E2CE01DF91CF916F
:102BB0001F910F91FF90EF900C949515CF92DF929B
:102BC000EF92FF920F931F93CF93DF93EC016A0173
:102BD0008B017B01E40EF51E0E151F05A9F0F8010F
:102BE00021918F018AA19BA1AC014F5F5F4F5BA335
:102BF0004AA3FE01E80FF91F22830296809760F333
:102C0000CE010E948115E8CF4CA15DA14C0D5D1D48
:102C10005DA34CA3DF91CF911F910F91FF90EF9097
:102C2000DF90CF900895EF92FF920F931F93CF9371
:102C3000DF93CDB7DEB766970FB6F894DEBF0FBE51
:102C4000CDBF8C01CB01FE0177969F014AE0E42EB7
:102C5000F12CB7010E94E06E805D8293CB0100975A
:102C6000C1F7A9014E1B5F0BBF01C8010E94DE1511
:102C700066960FB6F894DEBF0FBECDBFDF91CF9141
:102C80001F910F91FF90EF9008958F929F92AF92B6
:102C9000BF92CF92DF92EF92FF920F931F93CF9349
:102CA000DF93CDB7DEB766970FB6F894DEBF0FBEE1
:102CB000CDBF6C018E01095E1F4F78018AE0882E1E
:102CC000912CA12CB12CCB01BA01A50194010E9439
:102CD000636D942F852F605DF80162938F01A901C8
:102CE000692F782F411551056105710561F7A7011D
:102CF0004E1B5F0BBF01C6010E94DE1566960FB624
:102D0000F894DEBF0FBECDBFDF91CF911F910F9121
:102D1000FF90EF90DF90CF90BF90AF909F908F90FB
:102D20000895FB0101900020E9F73197AF01461BA0
:102D3000570B0C94DE152F923F924F925F926F9239
:102D40007F928F929F92AF92BF92CF92DF92EF923B
:102D5000FF920F931F93CF93DF93CDB7DEB76697A4
:102D60000FB6F894DEBF0FBECDBF8C011B01DC0196
:102D700014968C9114978F77863009F470C278F48A
:102D80008230B0F0843008F051C212964D915C91BF
:102D900013976D917C91C1010E94DE1516C28C3093
:102DA000B1F160F4883009F455C28A3009F444C2A4
:102DB00066E174E0C1010E94911607C2803209F4F5
:102DC00008C28034A9F76BE5C1010E949515F8018E
:102DD000008111810115110509F4F3C1B101C80188
:102DE0000E949B16D80115968C91882309F4E9C19D
:102DF000B8E08B02C0011124080F191F011511053D
:102E000009F4DFC16CE2C1010E949515E3CFF8011E
:102E1000C080D180E280F380A7019601C701B6018E
:102E20000E94196C882331F066E174E0C1010E94B0
:102E300091169FC120E030E0A901C701B6010E94B0
:102E4000196C882371F0A7019601C701B6010E9491
:102E5000C76D9B01AC01C701B6010E94196C8823A4
:102E600019F320E030E0A901C701B6010E94196CF6
:102E700087FF08C06DE2C1010E949515F7FAF09432
:102E8000F7F8F09420E836E948E15BE4C701B601C1
:102E90000E94DB6E87FD81C064E1A62EB12C00E2AA
:102EA00010E01A8A198AF501EE59FB4F25913591E8
:102EB00045915491C701B6010E94DB6E87FD13C096
:102EC000F501EE5CFB4F2591359145915491C70179
:102ED000B6010E947F6C6B017C0129893A89200F21
:102EE000311F3A8B298B1595079534E0A31AB10849
:102EF0008CEFA8168FEFB806B1F655245A9420E04F
:102F000030E0A901C701B6010E94DB6E18160CF073
:102F10004BC02CEA35EC47E257E3C701B6010E94EB
:102F2000196C18160CF440C0A52DB4E0AB02C0011A
:102F30001124B12CA12CFC01E65BFB4F3F019C014D
:102F40002E593B4F49013FEF531671F1F301EA0D42
:102F5000FB1D6591759185919491A70196010E9441
:102F6000DB6E18169CF4F401EA0DFB1D25913591DA
:102F700045915491C701B6010E947F6C6B017C01A1
:102F800089899A89801B910B9A8B898B1595079556
:102F90005A9494E0A91AB108D6CF00E210E045E0B7
:102FA000542E1A8A198AABCFC701B6010E94AC6EA3
:102FB0004B015C012B013C0106E080E492E4AFE0B0
:102FC000B0E08B8B9C8BAD8BBE8B102F01509AE0A9
:102FD0004916510461047104C8F06B897C898D899C
:102FE0009E892AE030E040E050E00E94636D2B8B28
:102FF0003C8B4D8B5E8BC301B2012AE030E040E098
:1030000050E00E94636D29013A01DFCFC501B40190
:103010000E941E6C9B01AC01C701B6010E94C66DE7
:103020006B017C016B897C898D899E890E941E6C55
:103030009B01AC01C701B6010E947F6C2B013C01D2
:103040000E94AC6E6B017C010E941E6C9B01AC0166
:10305000C301B2010E94C66D9B01AC010E94C76D05
:103060000E94AC6EC60ED71EE81EF91E8B899C8985
:10307000AD89BE89C816D906EA06FB06D8F09FEFCF
:10308000891A990AA90AB90AA989BA89AB2B39F10F
:10309000BAE08B169104A104B10408F1E989FA8918
:1030A0003196FA8BE98BC12CD12C7601812C912C95
:1030B000540183949AE0492E512C612C712CC70144
:1030C000B601A30192010E94636D672B682B692BE7
:1030D00051F4111644F469017A011150F0CFC12C5A
:1030E000D12C7601E7CFB501A401C1010E9445169C
:1030F000112371F14E01F1E18F0E911C012F54014A
:103100008AE0482E512C612C712C015068F0C701C7
:10311000B601A30192010E94636D605DD4016E93BC
:103120004D0169017A01F1CF812F90E0BC016095DA
:103130007095F501E81BF90B31978EE280834427E7
:103140005527461B570B6A0D7B1DC1010E94DE15DA
:10315000E989FA89F7FF2AC06BE174E0C1010E9496
:10316000911669897A89719561957109C1010E94E9
:103170001316D10194968D919C9166960FB6F89492
:10318000DEBF0FBECDBFDF91CF911F910F91FF909A
:10319000EF90DF90CF90BF90AF909F908F907F90F7
:1031A0006F905F904F903F902F90089529893A89B2
:1031B000232BF9F265E6C1010E94951569897A8988
:1031C000D5CF6DE5C1010E949515F10184A195A1AE
:1031D000D4CF6BE7C1010E949515D8010D911C91C8
:1031E0000115110509F1F80166817781C1010E947D
:1031F000B1156AE3C1010E949515B101C8010E9491
:103200009B16D80115968C91882371F0B8E08B023B
:10321000C0011124080F191F0115110529F06CE2D6
:10322000C1010E949515DCCF6DE7CCCF6D917C91EB
:10323000C1010E94B115C9CFCD90DD90ED90FC90F9
:103240006DE2C1010E949515B701A601C1010E945E
:103250004516BBCF4D915D916D917C91F7CFF801F3
:1032600080819181A281B3816EE174E0892B8A2BE8
:103270008B2B09F0DBCD63E274E0D8CDFB014481F8
:103280005581608171810C941D15EF92FF920F930F
:103290001F93CF93DF93EC017B018A01BA010E9457
:1032A000F51481110BC0CE010E94B414CE01DF9140
:1032B000CF911F910F91FF90EF9008951D830C8384
:1032C000B701888199810E942170F0CFFB010190A4
:1032D0000020E9F73197AF01461B570B0C944519B5
:1032E0000F931F93CF93DF93CDB7DEB7A2970FB69F
:1032F000F894DEBF0FBECDBF8C01CB01BA01F8013F
:103300001182108213821282158214822AE0AE0189
:103310004F5F5F4F0E944A69BE016F5F7F4FC801D8
:103320000E946619A2960FB6F894DEBF0FBECDBFFD
:10333000DF91CF911F910F9108950F931F93CF931A
:10334000DF93CDB7DEB7A1970FB6F894DEBF0FBEFF
:10335000CDBF8C01CB01BA01F8011182108213821A
:103360001282158214822AE0AE014F5F5F4F0E94E5
:103370006E69BE016F5F7F4FC8010E946619A196FA
:103380000FB6F894DEBF0FBECDBFDF91CF911F9176
:103390000F910895CF93DF93EC016115710531F022
:1033A0000E946619CE01DF91CF9108950E94B41456
:1033B000F9CFCF93DF931F921F92CDB7DEB7FC01F9
:1033C00011821082138212821582148269831A82FA
:1033D000BE016F5F7F4F0E9466190F900F90DF91C3
:1033E000CF910895CF93DF93EC01FB0186179707E8
:1033F00049F0608171816115710541F04481558109
:103400000E944519CE01DF91CF9108950E94B41416
:10341000F9CFFC011182108213821282158214826C
:103420000C94F219EF92FF920F931F93CF93DF93B7
:1034300000D000D0CDB7DEB7863091050CF58B01FA
:103440007C01CE0101960E94091ABE016F5F7F4F79
:10345000C7010E94F413CE0101960E94C614F80120
:1034600044815581608171818CEC90E10E94AA03B6
:1034700042E050E069E274E08CEC90E10E94AA0323
:1034800026960FB6F894DEBF0FBECDBFDF91CF9169
:103490001F910F91FF90EF900895CF93DF9300D08D
:1034A00000D0CDB7DEB7BC01CE0101960E94091A4B
:1034B000BE016F5F7F4F82E090E00E94121ACE0142
:1034C00001960E94C61426960FB6F894DEBF0FBE72
:1034D000CDBFDF91CF910895CF93DF9300D000D07F
:1034E000CDB7DEB7BC01CE0101960E94091ABE011C
:1034F0006F5F7F4F85E090E00E94121ACE01019627
:103500000E94C61426960FB6F894DEBF0FBECDBF3C
:10351000DF91CF910895CF93DF9300D000D0CDB746
:10352000DEB7BC01CE0101960E94091ABE016F5F91
:103530007F4F84E090E00E94121ACE0101960E9413
:10354000C61426960FB6F894DEBF0FBECDBFDF912E
:10355000CF910895FC01118210821382128215828C
:1035600014826115710551F0FB0101900020E9F70B
:103570003197AF01461B570B0C9445190895CF9313
:10358000DF9300D000D0CDB7DEB76CE274E0CE019F
:1035900001960E94AA1ACE0101960E946C1ACE01D1
:1035A00001960E94C61460E777E180E090E00E94F7
:1035B0001D0688E198E20FB6F894A8958093600004
:1035C0000FBE9093600026960FB6F894DEBF0FBE34
:1035D000CDBFDF91CF910895AF92BF92CF92DF928E
:1035E000EF92FF920F931F93CF93DF935C016B01D8
:1035F0007A0189012417350720F48F2D7901042FD2
:10360000182F63EB73E0C5010E94AA1AD601149625
:10361000CD91DC91EC16FD06C8F40C171D0708F4DB
:10362000E801D601ED91FC911197EC0FFD1F10817F
:1036300010826D917C916E0D7F1DC5010E94CA198B
:10364000F60180819181C80FD91F1883C501DF91D0
:10365000CF911F910F91FF90EF90DF90CF90BF908F
:10366000AF9008954F925F926F927F92AF92BF9208
:10367000CF92DF92EF92FF920F931F93CF93DF933E
:1036800000D000D0CDB7DEB76C01DC0117968C916D
:10369000882309F498C0823009F4ABC1833031F03B
:1036A000813009F059C00FE210E102C005EF1EE0C1
:1036B00087E090E00E943866FC0188EE93E0A0E08D
:1036C000B0E083839483A583B683D80150962D916F
:1036D0003C9182E0D9018C93D8011C968D919C91EC
:1036E000DC011C92D8011E962D913C918FECD901E2
:1036F0008C93D80158961C92589754962D913C91D2
:1037000086E0D9018C93D80152962D913C91D90134
:103710008C9180618C93D80152962D913C91D90166
:103720008C9188608C93D80152962D913C91D9014F
:103730008C9180688C93D80152962D913C91D9013F
:103740008C918F7D8C93118300831282D6011D96FC
:10375000FC93EE931C970EC065E374E0CE010196D6
:103760000E94AA1ACE0101960E946C1ACE010196FF
:103770000E94C614D6011C960D911C9101151105CD
:1037800069F0B601625F7F4F44EBC8010E943803C5
:1037900050E040E064EAC8010E94B00C26960FB6E3
:1037A000F894DEBF0FBECDBFDF91CF911F910F9177
:1037B000FF90EF90DF90CF90BF90AF907F906F9091
:1037C0005F904F900895F601E184EE2099F2F08425
:1037D000FF2081F287E090E00E9438665C0198EE5D
:1037E000492E93E0592E612C712CD50113964D92E0
:1037F0005D926D927C9216978FE190E00E94386600
:103800008C01FC0113821282448255826682778287
:1038100087E392E091838083178A168A118E108E37
:10382000138E128E158E148E668D6E7F6D7F668F51
:103830006695617081E068278E2D0E94990561E090
:103840008E2D0E94C7058E2D90E0FC01E25DFA4F9F
:10385000E491D8015096EC93FC01EC58FA4FE491B6
:10386000F0E0EE0FFF1FE650FB4F85919491F801B9
:10387000928B818B60E08F2D0E94C705D8015E96E8
:103880008C9181FD04C061E08F2D0E949905F801A3
:10389000F4862F2D30E0F901E25DFA4FE491D80172
:1038A0001D96EC93F901EC58FA4FE491F0E0EE0F1D
:1038B000FF1FE656FB4F85919491F8019787868705
:1038C000138E128E118E108E178A168A8DE991E052
:1038D000958F848F86EF8F0D843048F09EEC9F0D7E
:1038E000943028F092EC9F0D983008F05EC04DEBBC
:1038F00050E0D80157965C934E9356974BE951E0B0
:1039000059965C934E9358974CE251E05B965C93CA
:103910004E935A97843050F09EEC9F0D943030F0C7
:1039200092EC9F0DF0E0E0E0983010F4E8E6F0E073
:103930009081843020F042EC4F0D483000F141E09E
:10394000942B843050F04EEC4F0D443030F042EC6C
:103950004F0DF0E0E0E0483010F4E8E6F0E090834E
:10396000843078F09EEC9F0D943058F092EC9F0DCF
:1039700050E040E0983038F44DE650E004C044E0B8
:10398000DFCF4BE650E0F801548B438B8430D8F402
:103990002650310981E001C0880F2A95EAF7F80125
:1039A000858B8DE991E00197F1F7C8010E947F0CAA
:1039B000D50111961C930E9381E012968C93F6011B
:1039C000B586A486D7CEF2E388E0FF1641F383E301
:1039D000F81659F0A4E382E0FA1609F382EC8F0D91
:1039E000883028F42E533109D5CF84E0D8CF81E038
:1039F000D6CF02E91FE05CCE0F931F93CF93DF93E6
:103A0000CDB7DEB762970FB6F894DEBF0FBECDBF5D
:103A10008C01BC01CE0107960E94AA1A64E474E0EE
:103A2000CE010D960E94AA1ABE01695F7F4FCE019A
:103A30000D960E945F1560E574E00E944915BC0177
:103A4000CE0101960E94091ACE0101960E946C1ABD
:103A5000CE0101960E94C614CE010D960E94C61496
:103A6000CE0107960E94C61483EF91E10E945E0B7F
:103A70008823B1F1F80101900020E9F7CF01801B04
:103A8000910B08968138910558F583EF91E10E94DA
:103A90005E0B882329F18091791290917A12019618
:103AA00051F190937A1280937912809179129091CA
:103AB0007A129093FE118093FF1147E050E069EF76
:103AC00071E1C8010E941203FC01ED50FE4E168206
:103AD000AC014450510969EF71E182E80E945C0633
:103AE00062960FB6F894DEBF0FBECDBFDF91CF91C7
:103AF0001F910F91089581E090E0D3CF0F931F9312
:103B0000CF93DF93CDB7DEB7C456D1090FB6F89483
:103B1000DEBF0FBECDBF8C01000F111FE091CF1291
:103B2000F091D012E00FF11F0190F081E02D84811F
:103B3000803509F05BC050E040E0BE016F5F7F4F11
:103B4000828193810E943C14CE0101960E94FC1C4C
:103B5000E091CF12F091D012E00FF11F0190F081AF
:103B6000E02D41E050E0BE016F5F7F4F8281938185
:103B70000E943C14CE0101960E94FC1CE091CF12E1
:103B8000F091D012E00FF11F0190F081E02D42E0A2
:103B900050E0BE016F5F7F4F828193810E943C1491
:103BA000CE0101960E94FC1C8091CF129091D01200
:103BB000080F191FD801ED91FC9143E050E0BE01C0
:103BC0006F5F7F4F828193810E943C14CE010196EA
:103BD0000E94FC1CCC59DF4F0FB6F894DEBF0FBE1D
:103BE000CDBFDF91CF911F910F9108958334A1F143
:103BF00030F5813371F122E534E0823459F7938155
:103C00009F9392819F931F928F9387EC93E09F9352
:103C10008F933F932F938EED93E09F938F938E011D
:103C20000F5F1F4F1F930F930E943670C8010E94B1
:103C3000FC1C0FB6F894DEBF0FBECDBFCBCF8235D4
:103C400029F02BE834E08435D1F2C4CF24E634E007
:103C5000D6CF25E734E0D3CF2CE934E0D0CFEF92B4
:103C6000FF920F931F93CF93DF93CDB7DEB7689783
:103C70000FB6F894DEBF0FBECDBF8C017B0183EF82
:103C800091E10E945E0B8823E9F1B701CE0107960E
:103C90000E94AA1AB801CE010D960E94AA1A61EBE1
:103CA00074E0CE0143960E94AA1ABE01635F7F4F63
:103CB000CE0143960E945F1560E574E00E944915AD
:103CC000BE01695F7F4F0E945F15BC01CE01019666
:103CD0000E94091ACE0101960E946C1ACE0101962B
:103CE0000E94C614CE0143960E94C614CE010D96C2
:103CF0000E94C614CE0107960E94C614B701C801DF
:103D00000E94031368960FB6F894DEBF0FBECDBFB6
:103D1000DF91CF911F910F91FF90EF900895FF9247
:103D20000F931F93CF93DF93CDB7DEB762970FB694
:103D3000F894DEBF0FBECDBFF82E82E4F8122BC080
:103D400080E190E00E9438668C0180E1F8011192D8
:103D50008A95E9F7F801168285EF92E091838083D6
:103D60000115110581F46BEB74E0CE0101960E9400
:103D7000AA1ACE0101960E944D1ACE0101960E9408
:103D8000C6140E94BF1A82E4F8018483011511054C
:103D900009F0DFC0B5C0F2E5FF1225C089E090E070
:103DA0000E9438668C0189E0F80111928A95E9F742
:103DB000F801168285E393E0918380830115110554
:103DC00081F464ED74E0CE0101960E94AA1ACE013E
:103DD00001960E944D1ACE0101960E94C6140E94BF
:103DE000BF1A82E5D1CFF1E3FF1225C082E190E056
:103DF0000E9438668C0182E1F80111928A95E9F7F8
:103E0000F801168285ED92E09183808301151105FA
:103E100081F46CEE74E0CE0101960E94AA1ACE01E4
:103E200001960E944D1ACE0101960E94C6140E946E
:103E3000BF1A81E3A9CFF4E5FF122AC087E190E021
:103E40000E9438668C0187E1F80111928A95E9F7A2
:103E5000F8011682108A138A148A158A168A83EB4F
:103E600092E0918380830115110581F46AE075E089
:103E7000CE0101960E94AA1ACE0101960E944D1A07
:103E8000CE0101960E94C6140E94BF1A84E57CCF21
:103E9000F0E5FF1232C084E190E00E9438668C01A8
:103EA000FC01168283E992E0918380831782108659
:103EB000118681E090E0938782871586148681EAD7
:103EC00093E0978786878AE0808B818B828B838BB8
:103ED0000115110581F460E375E0CE0101960E94A1
:103EE000AA1ACE0101960E944D1ACE0101960E9497
:103EF000C6140E94BF1A80E547CFF3E4FF16B1F164
:103F00006F2DCE0107960E94D9196EE475E0CE019F
:103F10000D960E94AA1ABE01695F7F4FCE010D96D1
:103F20000E945F15BC01CE0101960E94091ACE01C4
:103F300001960E946C1ACE0101960E94C614CE0111
:103F40000D960E94C614CE0107960E94C61410E07A
:103F500000E0C80162960FB6F894DEBF0FBECDBF79
:103F6000DF91CF911F910F91FF9008958EE090E027
:103F70000E9438668C018EE0F80111928A95E9F76B
:103F8000F801168285E193E0918380830115110584
:103F900081F469E675E0CE0101960E94AA1ACE016D
:103FA00001960E944D1ACE0101960E94C6140E94ED
:103FB000BF1A83E4E9CECF92DF92EF92FF920F9384
:103FC0001F93CF93DF93CDB7DEB762970FB6F89408
:103FD000DEBF0FBECDBF8C016B01DC018D919C91CA
:103FE00040E050E0BA01009721F00E940469AB0163
:103FF000BC01CE0107960E94701960E875E0CE0101
:104000000D960E94AA1AB801CE010D960E945F1566
:104010006EE875E00E944915BE01695F7F4F0E94FE
:104020005F1565EA7AE00E944915BC01CE01019650
:104030000E94091ACE0101960E946C1ACE010196C7
:104040000E94C614CE010D960E94C614CE0107969A
:104050000E94C614F80180819181009751F10E945D
:104060000469CB010E9487038C01892B99F081E0C0
:10407000D80116968C931697ED91FC91E288F388FF
:10408000F601808191810097C1F00E940469C80106
:10409000F701199562960FB6F894DEBF0FBECDBF3B
:1040A000DF91CF911F910F91FF90EF90DF90CF9014
:1040B000089560E070E0CB01D4CF60E070E0CB0108
:1040C000E6CF4F925F926F927F928F929F92AF92C4
:1040D000BF92EF92FF920F931F93CF93DF93CDB7D1
:1040E000DEB762970FB6F894DEBF0FBECDBF7C017E
:1040F000DC0153968D909D90AD90BC905697B0ED9D
:104100008B0EB7E09B1EA11CB11C0E9450068616A8
:104110009706A806B90608F08DC0F70143895489AF
:1041200065897689CE0107960E949D1960E975E040
:10413000CE0101960E94AA1ABE01695F7F4FCE018F
:1041400001960E945F15BC01CE010D960E94091ACE
:10415000CE010D960E946C1ACE010D960E94C614D7
:10416000CE0101960E94C614CE0107960E94C61485
:10417000D7015196ED91FC9104851585F801868152
:1041800097810E94980A40E06CECD80116968D91B8
:104190009C910E94450AF801408164E486819781E0
:1041A0000E94450AD80112968C911297882399F1A2
:1041B0001196EC91E9508EEE882E82E0982EE33035
:1041C00038F4F0E0EE0FFF1FE35DFD4F808091803B
:1041D000F8018381882309F442C0808181113FC0A6
:1041E0000E9450062B013C01092C000CAA08BB08B8
:1041F000D80116968D919C910E94F209813059F058
:104200000E945006681979098A099B096415750589
:104210008605970568F3D701ED91FC91048CF58D27
:10422000E02DC70119950E945006F701638B748B2E
:10423000858B968B62960FB6F894DEBF0FBECDBF0E
:10424000DF91CF911F910F91FF90EF90BF90AF90B2
:104250009F908F907F906F905F904F900895B401E2
:10426000990C880B990B0E941D06D5CF0C946120E8
:104270000F931F93CF93DF93CDB7DEB761970FB640
:10428000F894DEBF0FBECDBF8C01CB01F8011182C7
:104290001082138212821582148250E0BE016F5F79
:1042A0007F4F0E949069BE016F5F7F4FC8010E94DF
:1042B000661961960FB6F894DEBF0FBECDBFDF91D1
:1042C000CF911F910F910895CF92DF92EF92FF92BD
:1042D0000F931F93CF93DF93CDB7DEB72C970FB615
:1042E000F894DEBF0FBECDBF8C016B017A0163EB8A
:1042F00073E0CE0107960E94AA1AC114D10429F0D6
:10430000B601CE0107960E94CA1960E077E0CE019F
:1043100007960E947215F801628173814AE0CE010E
:1043200001960E943821BE016F5F7F4FCE01079634
:104330000E943E19CE0101960E94C6146BE975E0F9
:10434000CE0107960E947215F8016481CE01019694
:104350000E94D919BE016F5F7F4FCE0107960E9460
:104360003E19CE0101960E94C61462EA75E0CE01A4
:1043700007960E947215F801658170E04AE0CE014F
:1043800001960E943821BE016F5F7F4FCE010796D4
:104390000E943E19CE0101960E94C6146BEA75E098
:1043A000CE0107960E947215F801868163E274E0DF
:1043B000882311F06EE174E0CE0107960E94721519
:1043C0006AEB75E0CE0107960E947215BE01695F27
:1043D0007F4FCE0101960E94091ABE016F5F7F4F89
:1043E000C7010E94121ACE0101960E94C614CE0186
:1043F00007960E94C6142C960FB6F894DEBF0FBE27
:10440000CDBFDF91CF911F910F91FF90EF90DF9083
:10441000CF900895CF92DF92EF92FF920F931F9368
:10442000CF93DF93CDB7DEB72C970FB6F894DEBFEE
:104430000FBECDBF8C016B017A0163EB73E0CE013F
:1044400007960E94AA1AC114D10429F0B601CE0120
:1044500007960E94CA1960E077E0CE0107960E9495
:104460007215F801628173814AE0CE0101960E94C3
:104470003821BE016F5F7F4FCE0107960E943E1923
:10448000CE0101960E94C6146BE975E0CE01079635
:104490000E947215F8016481CE0101960E94D9191B
:1044A000BE016F5F7F4FCE0107960E943E19CE017D
:1044B00001960E94C6146DEB75E0CE0107960E942E
:1044C0007215F801678170E04AE0CE0101960E9402
:1044D0003821BE016F5F7F4FCE0107960E943E19C3
:1044E000CE0101960E94C61463EC75E0CE010796DA
:1044F0000E947215F801608570E04AE0CE010196D5
:104500000E943821BE016F5F7F4FCE0107960E9447
:104510003E19CE0101960E94C61462EA75E0CE01F2
:1045200007960E947215F801658170E04AE0CE019D
:1045300001960E943821BE016F5F7F4FCE01079622
:104540000E943E19CE0101960E94C6146BEA75E0E6
:10455000CE0107960E947215F801868163E274E02D
:10456000882311F06EE174E0CE0107960E94721567
:104570006AEB75E0CE0107960E947215BE01695F75
:104580007F4FCE0101960E94091ABE016F5F7F4FD7
:10459000C7010E94121ACE0101960E94C614CE01D4
:1045A00007960E94C6142C960FB6F894DEBF0FBE75
:1045B000CDBFDF91CF911F910F91FF90EF90DF90D2
:1045C000CF900895CF92DF92EF92FF920F931F93B7
:1045D000CF93DF93CDB7DEB72C970FB6F894DEBF3D
:1045E0000FBECDBF8C016B017A0163EB73E0CE018E
:1045F00007960E94AA1AC114D10429F0B601CE016F
:1046000007960E94CA1960E077E0CE0107960E94E3
:104610007215F801628173814AE0CE0101960E9411
:104620003821BE016F5F7F4FCE0107960E943E1971
:10463000CE0101960E94C6146BE975E0CE01079683
:104640000E947215F8016481CE0101960E94D91969
:10465000BE016F5F7F4FCE0107960E943E19CE01CB
:1046600001960E94C6146AEC75E0CE0107960E947E
:1046700072154AE061E070E0CE0101960E94382197
:10468000BE016F5F7F4FCE0107960E943E19CE019B
:1046900001960E94C61463ED75E0CE0107960E9454
:1046A0007215F801608570E04AE0CE0101960E9423
:1046B0003821BE016F5F7F4FCE0107960E943E19E1
:1046C000CE0101960E94C6146EED75E0CE010796EC
:1046D0000E947215F801618570E04AE0CE010196F2
:1046E0000E943821BE016F5F7F4FCE0107960E9466
:1046F0003E19CE0101960E94C61469EE75E0CE0106
:1047000007960E947215F801628573854AE0CE0112
:1047100001960E943821BE016F5F7F4FCE01079640
:104720000E943E19CE0101960E94C6146BEA75E004
:10473000CE0107960E947215F801868163E274E04B
:10474000882311F06EE174E0CE0107960E94721585
:104750006AEB75E0CE0107960E947215BE01695F93
:104760007F4FCE0101960E94091ABE016F5F7F4FF5
:10477000C7010E94121ACE0101960E94C614CE01F2
:1047800007960E94C6142C960FB6F894DEBF0FBE93
:10479000CDBFDF91CF911F910F91FF90EF90DF90F0
:1047A000CF900895CF93DF93CDB7DEB762970FB662
:1047B000F894DEBF0FBECDBFDC01FB0162817381C7
:1047C00013967C936E931297248114962C931497CE
:1047D00024812435B9F49F01285F3F4F1896AF011B
:1047E000405F5F4FF90181919F018D93E417F507B9
:1047F000C9F762960FB6F894DEBF0FBECDBFDF914A
:10480000CF9108954AE0CE0107960E94382162EFC9
:1048100075E0CE0101960E94AA1ABE01695F7F4F22
:10482000CE0101960E945F15BC01CE010D960E943B
:10483000091ACE010D960E944D1ACE010D960E94C6
:10484000C614CE0101960E94C614CE0107960E949E
:10485000C614CFCFCF92DF92EF92FF920F931F93A8
:10486000CF93DF93CDB7DEB72C970FB6F894DEBFAA
:104870000FBECDBF8C016B017A0163EB73E0CE01FB
:1048800007960E94AA1AC114D10429F0B601CE01DC
:1048900007960E94CA1960E077E0CE0107960E9451
:1048A0007215F801628173814AE0CE0101960E947F
:1048B0003821BE016F5F7F4FCE0107960E943E19DF
:1048C000CE0101960E94C6146BE975E0CE010796F1
:1048D0000E947215F8016481CE0101960E94D919D7
:1048E000BE016F5F7F4FCE0107960E943E19CE0139
:1048F00001960E94C6146DEB75E0CE0107960E94EA
:104900007215F801678170E04AE0CE0101960E94BD
:104910003821BE016F5F7F4FCE0107960E943E197E
:10492000CE0101960E94C6146BEA75E0CE0107968F
:104930000E947215F801868163E274E0882311F009
:104940006EE174E0CE0107960E9472156AEB75E085
:10495000CE0107960E947215BE01695F7F4FCE019E
:1049600001960E94091ABE016F5F7F4FC7010E9426
:10497000121ACE0101960E94C614CE0107960E941B
:10498000C6142C960FB6F894DEBF0FBECDBFDF91D4
:10499000CF911F910F91FF90EF90DF90CF900895EE
:1049A000CF92DF92EF92FF920F931F93CF93DF93FB
:1049B000CDB7DEB72C970FB6F894DEBF0FBECDBFD4
:1049C0008C016B017A0163EB73E0CE0107960E94C4
:1049D000AA1AC114D10429F0B601CE0107960E948B
:1049E000CA1960E077E0CE0107960E947215F801BF
:1049F000628173814AE0CE0101960E943821BE0196
:104A00006F5F7F4FCE0107960E943E19CE0101963F
:104A10000E94C6146BE975E0CE0107960E947215DC
:104A2000F8016481CE0101960E94D919BE016F5F21
:104A30007F4FCE0107960E943E19CE0101960E943B
:104A4000C6146DEB75E0CE0107960E947215F80151
:104A5000678170E04AE0CE0101960E943821BE01D4
:104A60006F5F7F4FCE0107960E943E19CE010196DF
:104A70000E94C61463EC75E0CE0107960E94721581
:104A8000F801608570E04AE0CE0101960E9438216D
:104A9000BE016F5F7F4FCE0107960E943E19CE0187
:104AA00001960E94C6146BEA75E0CE0107960E943B
:104AB0007215F801868163E274E0882311F06EE1DB
:104AC00074E0CE0107960E9472156AEB75E0CE0184
:104AD00007960E947215BE01695F7F4FCE01019655
:104AE0000E94091ABE016F5F7F4FC7010E94121A10
:104AF000CE0101960E94C614CE0107960E94C614EC
:104B00002C960FB6F894DEBF0FBECDBFDF91CF91CC
:104B10001F910F91FF90EF90DF90CF900895CF926B
:104B2000DF92EF92FF920F931F93CF93DF93CDB756
:104B3000DEB72C970FB6F894DEBF0FBECDBF8C0149
:104B40006B017A0163EB73E0CE0107960E94AA1A0B
:104B5000C114D10429F0B601CE0107960E94CA19EA
:104B600060E077E0CE0107960E947215F80162813D
:104B700073814AE0CE0101960E943821BE016F5F29
:104B80007F4FCE0107960E943E19CE0101960E94EA
:104B9000C6146BE975E0CE0107960E947215F80104
:104BA0006481CE0101960E94D919BE016F5F7F4FCB
:104BB000CE0107960E943E19CE0101960E94C614AE
:104BC0006DEB75E0CE0107960E947215F8016781C2
:104BD00070E04AE0CE0101960E943821BE016F5F6D
:104BE0007F4FCE0107960E943E19CE0101960E948A
:104BF000C61463EC75E0CE0107960E947215F801A9
:104C0000608570E04AE0CE0101960E943821BE0125
:104C10006F5F7F4FCE0107960E943E19CE0101962D
:104C20000E94C6146BEA75E0CE0107960E947215C9
:104C3000F801868163E274E0882311F06EE174E08C
:104C4000CE0107960E9472156AEB75E0CE010796B9
:104C50000E947215BE01695F7F4FCE0101960E94CE
:104C6000091ABE016F5F7F4FC7010E94121ACE0161
:104C700001960E94C614CE0107960E94C6142C9677
:104C80000FB6F894DEBF0FBECDBFDF91CF911F915D
:104C90000F91FF90EF90DF90CF9008950F931F93A7
:104CA000CF93DF9300D000D000D0CDB7DEB78C011A
:104CB000862FF801118210821382128215821482CB
:104CC00050E0BE016F5F7F4F90E00E949069BE018F
:104CD0006F5F7F4FC8010E94661929960FB6F8943E
:104CE000DEBF0FBECDBFDF91CF911F910F91089511
:104CF000DF92EF92FF920F931F93CF93DF93CDB785
:104D0000DEB762970FB6F894DEBF0FBECDBFD82EC8
:104D10008091D1129091D212ED2CF12C892BD1F0EF
:104D200010E000E08091D1129091D2120E151F0573
:104D30007CF49801220F331F820F931FFC018081A6
:104D40009181009711F00E94D4660F5F1F4FEACF48
:104D50000E94D4664AE06D2DCE0107960E944E2631
:104D600060E176E0CE010D960E94AA1ABE01695F4D
:104D70007F4FCE010D960E945F15BC01CE010196BA
:104D80000E94091ACE0101960E946C1ACE0101966A
:104D90000E94C614CE010D960E94C614CE0107963D
:104DA0000E94C614D1101AC01092D2121092D112C1
:104DB000F092D612E092D5128091D1129091D21237
:104DC00062960FB6F894DEBF0FBECDBFDF91CF91D4
:104DD0001F910F91FF90EF90DF900895C701880F0A
:104DE000991F0E9438669093D2128093D112E0CF1F
:104DF000FF920F931F93CF93DF93CDB7DEB76297E8
:104E00000FB6F894DEBF0FBECDBFF82E8091CF1243
:104E10009091D012892B09F442C060E276E0CE0175
:104E200001960E94AA1ACE0101960E946C1ACE0128
:104E300001960E94C61410E000E08091D312909178
:104E4000D412081719072CF569E276E0CE01019615
:104E50000E94AA1ACE0101960E946C1ACE010196F8
:104E60000E94C614E091CF12F091D012C801880FB1
:104E7000991FE80FF91F80819181009739F0DC01BB
:104E8000ED91FC910688F789E02D19950F5F1F4F72
:104E9000D4CF8091CF129091D0120E94D4664AE074
:104EA0006F2DCE0107960E944E2662E376E0CE017A
:104EB0000D960E94AA1ABE01695F7F4FCE010D9622
:104EC0000E945F15BC01CE0101960E94091ACE0115
:104ED00001960E946C1ACE0101960E94C614CE0162
:104EE0000D960E94C614CE0107960E94C6140F2D7F
:104EF00010E0F11018C01092D0121092CF1210933F
:104F0000D4120093D3128091CF129091D012629656
:104F10000FB6F894DEBF0FBECDBFDF91CF911F91CA
:104F20000F91FF900895C801880F991F0E9438665D
:104F30009093D0128093CF12E2CFEF92FF920F9313
:104F40001F93CF93DF93CDB7DEB76E970FB6F8946C
:104F5000DEBF0FBECDBF7C018B014AE0FB01658146
:104F6000CE0149960E944E264AE0F8016481CE01A6
:104F700043960E944E264AE0F8016381CE010D96C9
:104F80000E944E264AE0F8016281CE0101960E94FD
:104F90004E26BE016F5F7F4FCE0107960E94091A11
:104FA00069E27BE0CE0107960E944915BE01635F6E
:104FB0007F4F0E945F1569E27BE00E944915BE01A8
:104FC0006D5E7F4F0E945F1569E27BE00E9449158C
:104FD000BE01675E7F4F0E945F15BC01C7010E9442
:104FE000091ACE0107960E94C614CE0101960E94AE
:104FF000C614CE010D960E94C614CE0143960E949F
:10500000C614CE0149960E94C614C7016E960FB60B
:10501000F894DEBF0FBECDBFDF91CF911F910F91EE
:10502000FF90EF900895CF92DF92EF92FF920F934F
:105030001F93CF93DF93CDB7DEB72C970FB6F894BD
:10504000DEBF0FBECDBF8C017B016A0163EB73E055
:10505000CE0107960E94AA1AE114F10429F0B701C3
:10506000CE0107960E94CA1960E077E0CE0107964C
:105070000E947215F8016281738140E1CE010196B0
:105080000E943821BE016F5F7F4FCE0107960E94BC
:105090003E19CE0101960E94C6146BE975E0CE015F
:1050A00007960E94721540E1F8016481CE010196D5
:1050B0000E944E26BE016F5F7F4FCE0107960E9471
:1050C0003E19CE0101960E94C6146DEB75E0CE012B
:1050D00007960E9472154AE0F8016781CE01019699
:1050E0000E944E26BE016F5F7F4FCE0107960E9441
:1050F0003E19CE0101960E94C61460E476E0CE010E
:1051000007960E9472157801F8E0EF0EF11C005F1F
:105110001F4FF70161917F0140E1CE0101960E948E
:105120004E26BE016F5F7F4FCE0107960E943E194B
:10513000CE0101960E94C614E016F10651F76AE40A
:1051400076E0CE0107960E947215BE01695F7F4F1F
:10515000CE0101960E94091ABE016F5F7F4FC60102
:105160000E94121ACE0101960E94C614CE01079623
:105170000E94C6142C960FB6F894DEBF0FBECDBFAA
:10518000DF91CF911F910F91FF90EF90DF90CF9023
:105190000895AF92BF92CF92DF92EF92FF920F935A
:1051A0001F93CF93DF93CDB7DEB767970FB6F89411
:1051B000DEBF0FBECDBF7C016EE476E0CE0101966E
:1051C0000E94AA1ACE0101960E946C1ACE01019685
:1051D0000E94C6144AE0D70117966C91CE010A9638
:1051E0000E944E2663E676E0CE0101960E94AA1A3E
:1051F000BE01665F7F4FCE0101960E945F15BC0124
:10520000CE0142960E94091ACE0142960E946C1A63
:10521000CE0142960E94C614CE0101960E94C61489
:10522000CE010A960E94C614F7012781A091CF12E1
:10523000B091D0121097A9F04091D3125091D4128E
:1052400090E080E0841795070CF04DC0ED91FD9142
:105250003481313321F43781231709F446C0019694
:10526000F1CF128A118AF701628173814AE0CE017F
:105270000A960E94382168E676E0CE0101960E94E7
:10528000AA1ABE01665F7F4FCE0101960E945F158C
:10529000BC01CE0142960E94091ACE0142960E949C
:1052A0004D1ACE0142960E94C614CE0101960E946C
:1052B000C614CE010A960E94C614F701138A148AF6
:1052C000158A168A67960FB6F894DEBF0FBECDBF5B
:1052D000DF91CF911F910F91FF90EF90DF90CF90D2
:1052E000BF90AF900895F0E0E0E0D7015296FC93B4
:1052F000EE935197309709F4B6CF670188E0C80E56
:10530000D11CAE014F5F5F4FB601848595850E9429
:10531000D00A811132C0D70112966D917C914AE07A
:10532000CE010A960E94382162E876E0CE0101960D
:105330000E94AA1ABE01665F7F4FCE0101960E94AD
:105340005F1568E876E00E944915BC01CE014296DF
:105350000E94091ACE0142960E944D1ACE01429631
:105360000E94C614CE0101960E94C614CE010A9670
:105370000E94C614F701108AA0CF81E0D701509691
:105380008C9350975196ED91FC9104851585B6014B
:10539000C8010E94300B893009F48FCFAE014F5FF6
:1053A0005F4FB601C8010E94D00A882309F485CF57
:1053B000F7018085803109F480CF8FE18D83D8019A
:1053C00016968D919C910E94980AB601F8018681EB
:1053D00097810E94790A40E06EE4D80116968D917B
:1053E0009C910E94450A40E06B81F801868197817B
:1053F0000E94450A40E06C81D80116968D919C91DF
:105400000E94450AF7018085803141F040E06D81BE
:10541000D80116968D919C910E94450AF8018681CB
:1054200097810E94980AB601D80116968D919C9199
:105430000E94790AF801408168E4868197810E9480
:10544000450A64E170E080E090E00E941D06D8010A
:105450008C91882331F06AE070E080E090E00E9457
:105460001D06F801868197810E94980AD80111963D
:105470008C9111978A3020F489E011968C931DCF7E
:1054800089E0F8018183D12CC12CD80114968C912C
:1054900014978C151D0409F00CF40FCFAC2C169644
:1054A000ED91FC911386158614861286118610865E
:1054B00017821682158214821382B12CBE01665F98
:1054C0007F4FF801868197810E948312882329F0FB
:1054D000BA14B9F0B394AB1488F7D8011196BC9004
:1054E000BE01665F7F4FC8010E94300B8B1590F4A0
:1054F000F8018181D80111968C93BFEFCB1ADB0A9A
:10550000C4CF67E0CE010A960E94DB09998989130E
:10551000E1CFE3CFBE01665F7F4FC8010E94300B31
:10552000E9CF0F931F93CF93DF93CDB7DEB7629789
:105530000FB6F894DEBF0FBECDBF8C01CB01F801D2
:1055400011821082138212821582148250E0BE01F1
:105550006F5F7F4F0E943469BE016F5F7F4FC8014C
:105560000E94661962960FB6F894DEBF0FBECDBFDB
:10557000DF91CF911F910F9108958F929F92AF92DB
:10558000BF92DF92EF92FF920F931F93CF93DF931F
:10559000CDB7DEB7C057D1090FB6F894DEBF0FBE46
:1055A000CDBF83EF91E10E945E0BD12C811136C1FA
:1055B0006EE976E08E010F5F1F4FC8010E94AA1AA4
:1055C000C8010E946C1AC8010E94C614E090B9126A
:1055D000F090BA1283EF91E10E945E0BD82E8111F8
:1055E000F8C060918C1270918D128091F71190919A
:1055F000F811DC01ED91FC9140918E1250918F12C7
:105600006115710509F46BC00088F189E02D1995C9
:105610008130910509F016C190937A128093791226
:1056200087E0ECE0F2E0D80101900D928A95E1F775
:10563000F801AEEFB1E1CE01089621912D938E17BE
:105640009F07D9F782E080930512109206128FE02F
:1056500080930712F70101900020E9F7CF018E191E
:105660009F0940968138910508F44EC08091F7114A
:105670009091F811DC01ED91FC910488F589E02D01
:10568000199560919212709193124AE0CE018B5954
:105690009F4F0E94912A65EE76E0C8010E94AA1AE7
:1056A000BE016B597F4FC8010E945F15BC01CE013E
:1056B00085599F4F0E94091ACE0185599F4F0E941C
:1056C0004D1ACE0185599F4F0E94C614C8010E94F1
:1056D000C614CE018B599F4F0E94C6149FC00684EA
:1056E000F785E02D21EA33E03A8329838090881200
:1056F00090908912A0908A12B0908B128B829C821B
:10570000AD82BE82B80183CF4FE050E069EF71E116
:10571000C7010E941203AC014550510969EF71E1C4
:1057200080E10E945C060E94500660937B12709399
:105730007C1280937D1290937E1260937F127093FF
:10574000801280938112909382128091F711909130
:10575000F811DC01ED91FC910084F185E02D1995A3
:10576000892BD1F40E94500680907F129090801275
:10577000A0908112B0908212681979098A099B0958
:1057800068397A438105910500F38CEF9FEF909380
:105790009312809392126ACFCE018B599F4F0E9431
:1057A000F806049709F062CF8091FC1190E0811116
:1057B000EECF0E94500660937F1270938012809308
:1057C000811290938212109283121092931210926F
:1057D00092128091B8121F928F938CEA96E09F9359
:1057E0008F931F930F930E943670C8010E94FC1C78
:1057F0008091B8121F928F938CEC96E09F938F93B9
:105800001F930F930E943670C8010E94FC1C0FB6B4
:10581000F894DEBF0FBECDBFDD24D3948D2DC059CB
:10582000DF4F0FB6F894DEBF0FBECDBFDF91CF9133
:105830001F910F91FF90EF90DF90BF90AF909F90DE
:105840008F9008958EEF9FEF909393128093921212
:1058500018CFEF92FF920F931F93CF93DF93CDB7A3
:10586000DEB72C970FB6F894DEBF0FBECDBF8C010C
:105870007B0163EB73E0CE0107960E94AA1AB70181
:10588000CE0107960E94CA1960E077E0CE01079624
:105890000E947215F801608171814AE0CE01019683
:1058A0000E943821BE016F5F7F4FCE0107960E9494
:1058B0003E19CE0101960E94C61461EF76E0CE013A
:1058C00007960E9472154AE0F8016681CE010196A2
:1058D0000E944E26BE016F5F7F4FCE0107960E9449
:1058E0003E19CE0101960E94C61469EF76E0CE0102
:1058F00007960E947215F801628173814AE0CE0119
:1059000001960E943821BE016F5F7F4FCE0107963E
:105910000E943E19CE0101960E94C61464E077E011
:10592000CE0107960E947215F8016481CE0101969E
:105930000E94D919BE016F5F7F4FCE0107960E946A
:105940003E19CE0101960E94C61461E177E0CE01B6
:1059500007960E947215F801618572854AE0CE01B2
:1059600001960E94912ABE016F5F7F4FCE0107967C
:105970000E943E19CE0101960E94C61460E277E0B3
:10598000CE0107960E947215F801678170854AE082
:10599000CE0101960E943821BE016F5F7F4FCE017C
:1059A00007960E943E19CE0101960E94C6146BE232
:1059B00077E0CE0107960E947215F8016385CE014B
:1059C00001960E94D919BE016F5F7F4FCE010796E5
:1059D0000E943E19CE0101960E94C61468E377E04A
:1059E000CE0107960E947215F8016385748540E127
:1059F000CE0101960E94912ABE016F5F7F4FCE01BA
:105A000007960E943E19CE0101960E94C6146AE4D0
:105A100076E0CE0107960E947215BE01695F7F4F46
:105A2000CE0101960E94091ABE016F5F7F4F85E08B
:105A300090E00E94121ACE0101960E94C614CE0177
:105A400007960E94C6142C960FB6F894DEBF0FBEC0
:105A5000CDBFDF91CF911F910F91FF90EF900895EF
:105A6000EF92FF920F931F93CF93DF93CDB7DEB7E3
:105A7000AA970FB6F894DEBF0FBECDBFDC01FB01C5
:105A8000309709F4CBC08481823509F0C7C01596E0
:105A90009C911597858112964D915C911397228167
:105AA000338142175307A1F414962C911497223591
:105AB00079F417963C9117972781321309C01896ED
:105AC0003C9118972085321303C0981709F4B4C08D
:105AD00061E070E0981711F070E060E08F017D01E7
