:10000000AAC10000D9C10000D7C10000D5C10000BD
:10001000D3C10000D1C10000CFC10000CDC100009C
:10002000CBC100000C943D580C943D580C943D58A5
:10003000C3C10000C1C10000BFC10000BDC10000BC
:10004000BBC10000B9C10000B7C10000B5C10000CC
:10005000B3C10000B1C10000AFC100000C94C544A1
:10006000ABC100000C9415310C94EC30A5C100001C
:10007000A3C10000A1C100009FC100009DC10000FC
:100080009BC1000099C1000097C1000095C100000C
:100090000C94C3300C949A308FC100008DC10000C5
:1000A0008BC1000089C1000087C1000085C100002C
:1000B00083C1000081C100007FC100007DC100003C
:1000C0007BC1000079C1000077C100000C94713041
:1000D0000C94483071C100000C941F300C94F62F22
:1000E0006BC1000033132D135B133C133813E21262
:1000F0000113A8127D2E802E6F2E732E792EB72E0F
:10010000842E882E8E2E922E962E9C2EA02EA42EDD
:10011000B72EAA2EAE2EB22E00407A10F35A00A0AF
:10012000724E18090010A5D4E80000E876481700C0
:1001300000E40B54020000CA9A3B000000E1F50500
:10014000000080969800000040420F000000A0864A
:1001500001000000102700000000E803000000007C
:100160006400000000000A00000000000100000020
:1001700000002C76D888DC674F0823DFC1DFAE593A
:10018000E1B1B796E5E3E453C63AE651997696E8CD
:10019000E6C28426EB898C9B62ED407C6FFCEFBC51
:1001A0009C9F40F2BAA56FA5F490055A2AF75C937C
:1001B0006B6CF9676DC11BFCE0E40D47FEF520E6B2
:1001C000B500D0ED902E0300943577050080841E95
:1001D000080000204E0A000000C80C333333330FF0
:1001E000986E12831141EF8D2114893BE65516CF8D
:1001F000FEE6DB18D1844B381BF77C1D901DA4BB99
:10020000E424203284725E228100C9F124ECA1E54D
:100210003D27005EBCE2613FDD83C29C7E20A3FDE2
:100220001F41009D23BE46DB65F88C11AF32CA57D3
:10023000E974000020002300260029002C002F0074
:1002400032000001000003010601090100000A0B51
:1002500002090C0D0E080703040100000000000055
:10026000000000000000000000000000000000008E
:10027000000000000000000012111000000000004B
:10028000000000000000000000000000000000006E
:10029000000000002200250028002B002E00310065
:1002A000340002010000050108010B0100002100DB
:1002B000240027002A002D00300033000101000037
:1002C000040107010A010102102020080810204043
:1002D000102040800201020108040201010204080A
:1002E0001020408080402010080402018004020198
:1002F00080402010080402010804020101020408E1
:1003000010204080010204081020408005050505EA
:10031000070508080808020202020A0A080804047D
:1003200004040101010101010101030303030303AB
:100330000303040707070C0C0C0C0C0C0C0C02023A
:10034000020206060606060606060B0B0B0B0B0B37
:100350000B0B015FB75C11241FBECFEFD1E2DEBFF4
:10036000CDBF00E00CBF1EE0A0E0B2E0EAEAFBED8A
:1003700000E00BBF02C007900D92A43EB107D9F771
:1003800023E1A4EEBEE001C01D92A13AB207E1F75D
:1003900011E0CAEAD1E000E006C021970109802FF0
:1003A000FE010E94A669C93AD10780E00807A9F7B3
:1003B0000E94BB5C0C94C46D23CEFC011186128696
:1003C000138614861582089584E0089508958BE0BD
:1003D000089583E0089585E0089580E008950895E4
:1003E000089580E00895FC0126813781620F731F14
:1003F000848195818617970738F08281938177836E
:100400006683820F931F089580E090E00895FC01B9
:100410001486158616861786118615820895FC01A6
:10042000768765870895DC01ED91FC91068CF78D48
:10043000E02D199591E089270895862F089581E090
:100440008627089521E0FC018485883008F020E0AB
:10045000822F089580E090E00895CF92DF92EF928E
:10046000FF920F931F93CF93DF93EC018F810E9434
:100470003E31082F8D81081749F1C984DA84EB8455
:10048000FC84C114D104E104F10439F40E94B9449C
:1004900069877A878B879C871DC00E94B94424E6B0
:1004A000C20ED11CE11CF11C6C157D058E059F054B
:1004B00088F011E08885801310E01D83CE010E9432
:1004C000A14C612F8A819B810E94524D19861A8608
:1004D0001B861C86DF91CF911F910F91FF90EF90AB
:1004E000DF90CF900895CF93DF93EC018A819B81B9
:1004F0000E94524DCE01DF91CF910C94A14CCF932D
:10050000DF93EC018A819B810E94524D1D82CE01B6
:10051000DF91CF910C94A14CCF93DF93EC0160E07D
:100520008F810E949431688581E068278F810E94C5
:10053000663119861A861B861C86CE01DF91CF9103
:100540000C94A14CCF93DF93EC0160E08F810E946B
:100550009431688581E068278F810E946631CE01E1
:10056000DF91CF910C94A14C0C94BD610C94BD61B2
:100570000F931F93CF93DF938C01EB01FC016281FA
:10058000CE010E948F59F8016481CE0101960E942C
:100590008F59F8016781CE0102960E948F59F801A8
:1005A0006085CE010396DF91CF911F910F910C943E
:1005B0008F590F931F93CF93DF93EC018B01CB01E6
:1005C0000E94915990E09B838A83C80101960E9402
:1005D00091598C83C80102960E9491598F83C8015A
:1005E00003960E94915991E0811101C090E0988793
:1005F000DF91CF911F910F9108950895FC01A08183
:10060000B1818C918D3051F024F489508230B8F54D
:1006100005C0803219F08F3219F0089511962CC060
:1006200011968C9111978A3219F08F32D1F008957A
:100630001196B183A083A081B181CD0101969183F0
:10064000808311968C9111978823C9F08A3299F78B
:1006500012968C9112978F3271F713960DC08A30D3
:1006600071F2A081B181CD010196918380831196B1
:100670008C918111F4CF03C0B183A083C0CF0895C2
:100680001F93CF93DF93EC01162FB8DFE881F98138
:100690008081181305C03196F983E88381E001C099
:1006A00080E0DF91CF911F910895EF92FF920F9319
:1006B0001F93CF93DF938C01DC011496CD91DC91D5
:1006C0001597EA80FB808E819F81E80EF91EC80194
:1006D000029694DFD8011296ED91FC9113978081D8
:1006E0008732A9F1823299F190ED980F9A3078F023
:1006F00091EA980F9C3158F09FEB980F9A3138F09F
:100700008B3229F093ED980F923008F061C0F80118
:10071000228133812F5F3F4F338322832E813F819C
:10072000A9014F5F5F4F6C817D816417750740F0B1
:100730006A817B81FB01E20FF31F5F834E8380831D
:10074000D8011296ED91FC9113978081CDCF31960F
:10075000D8011396FC93EE931297D8011296ED915F
:10076000FC9113979081992399F19F012F5F3F4F3F
:1007700013963C932E931297981751F19C35A9F438
:100780009181ABE5B4E02C91222339F0921303C0A0
:1007900011969C9102C01296F6CF9923C9F0329619
:1007A000D8011396FC93EE9312972E813F81A901F5
:1007B0004F5F5F4F6C817D816417750770F26A81AE
:1007C0007B81FB01E20FF31F5F834E839083C5CFD4
:1007D0008E819F819C012F5F3F4F4C815D8142172D
:1007E000530750F04A815B81FA01E80FF91F3F83FC
:1007F0002E831082C70102C080E090E0DF91CF918C
:100800001F910F91FF90EF9008950F931F93CF9337
:10081000DF938C01FC01C081D181C130D10559F435
:10082000628173816115710531F086E694E00E9462
:10083000CB6A892B39F02197229720F4F801828125
:10084000938102C080E090E0DF91CF911F910F91E2
:1008500008958091F40E81110BC01092F10E109248
:10086000F00E1092F30E1092F20E81E08093F40ECF
:1008700080EF9EE008958091E80E81110BC01092E8
:10088000E50E1092E40E1092E70E1092E60E81E053
:100890008093E80E84EE9EE00895DB01109749F006
:1008A000ED91FC9111970190F081E02DBC01CD01FB
:1008B000199480E090E008950895FC018081918171
:1008C0008330910520F4019708F440C00BC08530B7
:1008D000910528F0059799F5628173812BC082817B
:1008E000938108950280F381E02D309779F1808122
:1008F000843779F18B3229F08D3221F4319691E0F1
:1009000002C0319690E060E070E04AE0819120ED15
:10091000280F2A3068F4469F9001479F300D11241C
:10092000682F880F770B60537109620F731FEECF2A
:10093000992391F088279927861B970B0895628148
:100940007381848195810E945E6906C080E090E099
:10095000089581E090E00895CB0108950F931F93CF
:10096000CF93DF938B01FC01C281D3812097A9F043
:100970006A817B810115110519F06115710521F45A
:100980006017710731F409C0C8010E94CB6A892B36
:1009900021F00990D881C02DE9CFCE01DF91CF9110
:1009A0001F910F910895DACF0895FDDFFC01892B87
:1009B00009F448C0848195818330910520F4019722
:1009C00008F440C00BC08530910528F0059799F5D3
:1009D000668177812BC08681978108950680F78193
:1009E000E02D309779F18081843779F18B3229F0CD
:1009F0008D3221F4319691E002C0319690E060E0B2
:100A000070E04AE0819120ED280F2A3068F4469F7B
:100A10009001479F300D1124B90160537109680F8F
:100A2000711D87FD7A95EECF992391F0882799273C
:100A3000861B970B089566817781808591850E943A
:100A4000636906C080E090E0089581E090E0089539
:100A5000CB010895A8DF009711F00496D6CE80E070
:100A600090E00895A0DFFC01892BD9F18481958164
:100A70008330910518F40197A0F109C085309105E4
:100A800020F0059739F5668123C066812DC0068068
:100A9000F781E02D309729F18081843721F18B3265
:100AA00029F08D3221F4319691E002C0319690E028
:100AB00060E0219180ED820F8A3040F4660F862F2E
:100AC000880F880F680F6053620FF3CF992361F08E
:100AD00061950AC066817781808591850E946369EE
:100AE00003C060E001C061E0862F08955CDF21E073
:100AF000892B09F420E0822F08950F931F93CF9341
:100B0000DF938C01EB016BE674E0CE01EFDF88230D
:100B100031F06BE674E0CE01A5DFF80187836FE664
:100B200074E0CE01E3DF882329F0CE010E94124B4E
:100B3000F801808764E774E0CE01D8DF882331F0C4
:100B400064E774E0CE018EDFF8018583DF91CF91F9
:100B50001F910F9108950F931F93CF93DF93EC0193
:100B60008B01CB010E94915990E099838883C80141
:100B700001960E94915990E09B838A83C801029656
:100B80000E94915990E09D838C83C80103960E9436
:100B900091598E83C80104960E94915990E09887DC
:100BA0008F83C80105960E94915990E09A878987A2
:100BB000C80106960E94915990E09C878B87DF912F
:100BC000CF911F910F910895EF92FF920F931F9372
:100BD000CF93DF93CDB7DEB7AA970FB6F894DEBFF9
:100BE0000FBECDBFFB01309709F4CFC02481233461
:100BF00009F0CBC061E070E0DC0115963C912581E5
:100C0000321711F060E070E08F017C014AE0CE0104
:100C100007960E946B2F61E070E0F7019085D80184
:100C200018968C91981711F060E070E04AE0CE01C0
:100C30000D960E946B2F61E070E0F7019781D8015B
:100C400017968C91981711F060E070E04AE0CE01A1
:100C500043960E946B2F61E070E0F7019481D80108
:100C600014968C91981711F060E070E04AE0CE0184
:100C700049960E946B2F61E070E0F7012281338179
:100C8000D80112968D919C9113972817390711F06E
:100C900060E070E04AE0CE014F960E946B2F6BE758
:100CA00074E0CE0185960E94E22FBE01615E7F4F07
:100CB000CE0185960E942F2A61EF74E00E94182AC7
:100CC000BE01675E7F4F0E942F2A61EF74E00E9491
:100CD000182ABE016D5E7F4F0E942F2A61EF74E0DB
:100CE0000E94182ABE01635F7F4F0E942F2A61EF86
:100CF00074E00E94182ABE01695F7F4F0E942F2A6C
:100D00006EE874E00E94182ABC01CE0101960E9490
:100D1000DA2FCE0101960E94EA40CE0101960E9490
:100D20003B2FCE0185960E943B2FCE014F960E940D
:100D30003B2FCE0149960E943B2FCE0143960E9445
:100D40003B2FCE010D960E943B2FCE0107960E94AD
:100D50003B2FF70122813381D80112968D919C910E
:100D600013972817390789F4948114968C91149756
:100D700098130BC0978117968C911797981305C0FD
:100D8000908518968C91981711F080E001C081E051
:100D9000AA960FB6F894DEBF0FBECDBFDF91CF91FC
:100DA0001F910F91FF90EF900895EF92FF920F9394
:100DB0001F93CF93DF93CDB7DEB7AA970FB6F89402
:100DC000DEBF0FBECDBFFB01309709F4CFC0248139
:100DD000223409F0CBC061E070E0DC0115963C9153
:100DE0002581321711F060E070E08F017C014AE04C
:100DF000CE0107960E946B2F61E070E0F7019085AD
:100E0000D80118968C91981711F060E070E04AE0D4
:100E1000CE010D960E946B2F61E070E0F701978183
:100E2000D80117968C91981711F060E070E04AE0B5
:100E3000CE0143960E946B2F61E070E0F701948130
:100E4000D80114968C91981711F060E070E04AE098
:100E5000CE0149960E946B2F61E070E0F70122817C
:100E60003381D80112968D919C91139728173907D9
:100E700011F060E070E04AE0CE014F960E946B2FC7
:100E800060E974E0CE0185960E94E22FBE01615EAA
:100E90007F4FCE0185960E942F2A61EF74E00E9459
:100EA000182ABE01675E7F4F0E942F2A61EF74E00F
:100EB0000E94182ABE016D5E7F4F0E942F2A61EFAB
:100EC00074E00E94182ABE01635F7F4F0E942F2AA0
:100ED00061EF74E00E94182ABE01695F7F4F0E9493
:100EE0002F2A6EE874E00E94182ABC01CE010196F8
:100EF0000E94DA2FCE0101960E94EA40CE010196AF
:100F00000E943B2FCE0185960E943B2FCE014F962B
:100F10000E943B2FCE0149960E943B2FCE01439663
:100F20000E943B2FCE010D960E943B2FCE010796CB
:100F30000E943B2FF70122813381D80112968D91B7
:100F40009C9113972817390789F4948114968C91F2
:100F5000149798130BC0978117968C911797981335
:100F600005C0908518968C91981711F080E001C00B
:100F700081E0AA960FB6F894DEBF0FBECDBFDF9119
:100F8000CF911F910F91FF90EF900895CF92DF9234
:100F9000EF92FF920F931F93CF93DF93CDB7DEB7FE
:100FA00068970FB6F894DEBF0FBECDBF8C010E94CC
:100FB000B9446B017C01D80117968C910E943E3197
:100FC000F80190854485558566857785981304C119
:100FD000411551056105710591F5C486D586E686F2
:100FE000F786628173814AE0CE0107960E94402F06
:100FF00061EA74E0CE0101960E94E22FBE01695FB2
:101000007F4FCE0101960E942F2A61EB74E00E946F
:10101000182ABC01CE010D960E94DA2FCE010D9642
:101020000E94EA40CE010D960E943B2FCE01019610
:101030000E943B2FCE0107960E943B2F57C1DB0138
:10104000CA018053984FAF4FBF4FC816D906EA0662
:10105000FB06F0F1F8018285811132C06281738153
:101060004AE0CE0107960E94402F63EB74E0CE0168
:1010700001960E94E22FBE01695F7F4FCE0101966B
:101080000E942F2A61EB74E00E94182ABC01CE0155
:101090000D960E94DA2FCE010D960E94EA40CE01F5
:1010A0000D960E943B2FCE0101960E943B2FCE0150
:1010B00007960E943B2F64E070E0C8010E94974EA3
:1010C00081E0D8011A968C931A9719961C920EC13A
:1010D000DB01CA0184549D4FAF4FBF4FC816D906DC
:1010E000EA06FB06C8F1F801818581112DC06281F5
:1010F00073814AE0CE0107960E94402F69EB74E0AD
:10110000CE0101960E94E22FBE01695F7F4FCE01A2
:1011100001960E942F2A61EB74E00E94182ABC01FC
:10112000CE010D960E94DA2FCE010D960E94EA4064
:10113000CE010D960E943B2FCE0101960E943B2FBF
:10114000CE0107960E943B2FD8011B961C921B973D
:1011500081E019968C93CAC048585F4F6F4F7F4FFC
:10116000C416D506E606F70608F4C0C0F801838564
:1011700081112DC0628173814AE0CE0107960E94E1
:10118000402F68EC74E0CE0101960E94E22FBE0170
:10119000695F7F4FCE0101960E942F2A61EB74E0B8
:1011A0000E94182ABC01CE010D960E94DA2FCE01B2
:1011B0000D960E94EA40CE010D960E943B2FCE0173
:1011C00001960E943B2FCE0107960E943B2F81E0A3
:1011D000D8011B968C938AC0411551056105710594
:1011E00009F484C0D701C601841B950BA60BB70B6D
:1011F000AC01BD01CE010D960E948F4AD801129616
:101200006D917C9113974AE0CE0107960E94402F82
:101210006BED74E0CE0101960E94E22FBE01695F82
:101220007F4FCE0101960E942F2A64EE74E00E9447
:10123000182ABE01635F7F4F0E942F2ABC01CE0196
:1012400043960E94DA2FCE0143960E94EA40CE01D7
:1012500043960E943B2FCE0101960E943B2FCE0168
:1012600007960E943B2FCE010D960E943B2FF8015E
:1012700084859585A685B7858C599F4FAF4FBF4F05
:10128000C816D906EA06FB0678F463EF74E0CE01CF
:1012900001960E94E22FCE0101960E94EA40CE0103
:1012A00001960E943B2F1BC0828581110BC0818556
:1012B000882319F062E070E002C061E070E0C801CC
:1012C0000E94974EF8011486158616861786118699
:1012D0001386128660E070E0C8010E94974ED80124
:1012E0001C961D921D921D921C921F9768960FB618
:1012F000F894DEBF0FBECDBFDF91CF911F910F914C
:10130000FF90EF90DF90CF900895CF92DF92EF9211
:10131000FF920F931F93CF93DF93CDB7DEB72C9738
:101320000FB6F894DEBF0FBECDBF8C016B017A0102
:1013300065E674E0CE0107960E94E22FC114D10445
:1013400029F0B601CE0107960E946D2A64E87AE082
:10135000CE0107960E94402AF801628173814AE01B
:10136000CE0101960E94402FBE016F5F7F4FCE01DC
:1013700007960E948440CE0101960E943B2F61E1B6
:1013800075E0CE0107960E94402AF8016481CE01E3
:1013900001960E94C22FBE016F5F7F4FCE0107965C
:1013A0000E948440CE0101960E943B2F68E175E0C7
:1013B000CE0107960E94402AF801678170E04AE05A
:1013C000CE0101960E94402FBE016F5F7F4FCE017C
:1013D00007960E948440CE0101960E943B2F6EE149
:1013E00075E0CE0107960E94402AF801608570E002
:1013F0004AE0CE0101960E94402FBE016F5F7F4FF1
:10140000CE0107960E948440CE0101960E943B2F98
:1014100065E275E0CE0107960E94402AF8018681B8
:10142000811103C06BE075E002C066E075E0CE019B
:1014300007960E94402A64E375E0CE0107960E9459
:10144000402ABE01695F7F4FCE0101960E94DA2FCC
:10145000BE016F5F7F4FC7010E948B40CE01019696
:101460000E943B2FCE0107960E943B2F2C960FB671
:10147000F894DEBF0FBECDBFDF91CF911F910F91CA
:10148000FF90EF90DF90CF9008952F923F924F9270
:101490005F926F927F928F929F92AF92BF92CF9204
:1014A000DF92EF92FF920F931F93CF93DF93CDB70D
:1014B000DEB7CE57D1090FB6F894DEBF0FBECDBF51
:1014C00080E090E00E94915980938B124AE0682F4F
:1014D000CE0181599F4F0E94962F80918B128A30A6
:1014E00018F065E674E002C067E375E07E0125E66A
:1014F000E20EF11CC7010E94E22F69E375E08E0144
:101500000F5F1F4FC8010E94E22FB701C8010E9460
:101510002F2ABE0161597F4F0E942F2ABC018CE8FF
:1015200092E10E94822AC8010E943B2FC7010E94BB
:101530003B2FCE0181599F4F0E943B2F4AE0609183
:101540008B12C7010E94962F60E475E0C8010E94CB
:10155000E22FB701C8010E942F2ABC01CE01815998
:101560009F4F0E94DA2FCE0181599F4F0E94EA407F
:10157000CE0181599F4F0E943B2FC8010E943B2FF3
:10158000C7010E943B2F80918B12809397129091FC
:101590009D12890F80939D1280918A12882309F4ED
:1015A000AFC069E475E0C8010E94E22FC8010E9443
:1015B000EA40C8010E943B2F80E194E09A8389832E
:1015C00080919A1290919B12A0919C12B0919D12C1
:1015D0008B839C83AD83BE83C8010E943632C701D2
:1015E0000E94AE1EB701CE0181599F4F0E944C420E
:1015F00067E575E0C8010E94E22FBE0161597F4F87
:10160000C8010E942F2ABC01CE018B589F4F0E9417
:10161000DA2FCE018B589F4F0E94CC40CE018B58C1
:101620009F4F0E943B2FC8010E943B2FCE01815942
:101630009F4F0E943B2F65E675E0C8010E94E22F94
:10164000C8010E94EA40C8010E943B2F65E775E08F
:10165000C8010E94E22FC8010E94EA40C8010E940E
:101660003B2F812C912C5401B501A401C7010E948C
:101670000A326FE775E0C8010E94E22FB701C80186
:101680000E942F2ABC01CE0181599F4F0E94DA2F60
:10169000CE0181599F4F0E94EA40CE0181599F4F50
:1016A0000E943B2FC8010E943B2FC7010E943B2F85
:1016B00080918A12882321F00E94C242D82E01C054
:1016C000D12C68EE73E080E090E00E94D0318FEF83
:1016D000881A980AA80AB80AD11012C036E08316F0
:1016E0009104A104B10409F0BFCF6FE678E0C8010E
:1016F0000E94E22FC8010E94EA40C8010E943B2FCD
:1017000010929E1285ED91E10E940458811106C04D
:1017100080919E12882309F453C048C10E948E62B2
:101720004B015C0110929E1285ED91E10E940458DC
:10173000882359F180918B121F928F9385E995E050
:101740009F938F931F930F930E94E96AC501B40181
:1017500028EE33E040E050E00E9456684AE0C701BE
:101760000E94962FD7016D917C91C8010E94893506
:10177000C7010E943B2F81E08093A0120F900F9031
:101780000F900F900F900F9002C01092A0120E9425
:10179000B9444B015C0180919E12811107C10E94E6
:1017A000B944DC01CB0188199909AA09BB09803128
:1017B0009742A105B10508F0ABCF0E94145BEBCFB7
:1017C0006CEB75E0C8010E94E22FC8010E94EA405C
:1017D000C8010E943B2F81E090E00E949159482E61
:1017E0000E9415373C0163ED75E0C8010E94E22FAD
:1017F000C8010E94EA40C8010E943B2F61E070E0EE
:101800006114710411F060E070E04AE0C7010E94C9
:101810006B2F67EE75E0CE0181599F4F0E94E22F3A
:10182000B701CE0181599F4F0E942F2ABC01C801E8
:101830000E94DA2FC8010E94EA40C8010E943B2F93
:10184000CE0181599F4F0E943B2FC7010E943B2F21
:10185000812C912CEAE0AE2EB12C512C84149504ED
:101860000CF098C0C50101960E949159D82E4AE00B
:10187000682FC7010E94962F66EF75E0CE0181594F
:101880009F4F0E94E22FB701CE0181599F4F0E94C6
:101890002F2ABC01C8010E94DA2FC8010E94EA4029
:1018A000C8010E943B2FCE0181599F4F0E943B2FC0
:1018B000C7010E943B2F8D2D0E94E1356C010097DE
:1018C00041F0DC01ED91FC910484F585E02DB5013A
:1018D000199562E076E0C8010E94E22FC8010E94DB
:1018E000EA40C8010E943B2FF301D182C08261E02F
:1018F00070E0CD2811F060E070E04AE0C7010E947E
:101900006B2F6FE076E0CE0181599F4F0E94E22F4E
:10191000B701CE0181599F4F0E942F2ABC01C801F7
:101920000E94DA2FC8010E94EA40C8010E943B2FA2
:10193000CE0181599F4F0E943B2FC7010E943B2F30
:101940006EE176E0C8010E94E22FC8010E94EA40E1
:10195000C8010E943B2FD3018D919C91DC01ED9138
:10196000FC91008CF18DE02D45E050E068E276E0DE
:101970001995F301819191913F01DC01ED91FC9169
:101980000284F385E02D1995A80EB11CBFEF8B1AC8
:101990009B0A64CF64E376E0C8010E94E22FC8018D
:1019A0000E94EA40C8010E943B2FA7C1E091A21209
:1019B000EC96EFAFEC97F091A312ED96FFAFED9799
:1019C0006090A6127090A71281E090E00E94915959
:1019D000D82E65E476E0C8010E94E22FC8010E947B
:1019E000EA40C8010E943B2F6D1439F14AE06D2D89
:1019F000C7010E94962F62E576E0CE0181599F4F84
:101A00000E94E22FB701CE0181599F4F0E942F2AD9
:101A1000BC01C8010E94DA2FC8010E94EA40C80137
:101A20000E943B2FCE0181599F4F0E943B2FC7013F
:101A30000E943B2F332433940CC1EC96AFACEC974F
:101A4000ED96BFACED977AE0872E912C412C512C6E
:101A500093013327EF963FAF2EAFEF97EF968EAD02
:101A60009FADEF97481659060CF0F2C0C4010E94D2
:101A70009159282EC40101960E949159D82ED50162
:101A8000ED91FC914AE06481C7010E94962FD50137
:101A9000ED91FC91628173814AE0CE0181599F4FA3
:101AA0000E94402F61E676E0CE018B589F4F0E9446
:101AB000E22FBE0161597F4FCE018B589F4F0E948C
:101AC0002F2A62E776E00E94182AB7010E942F2A87
:101AD000BC01C8010E94DA2FC8010E94EA40C80177
:101AE0000E943B2FCE018B589F4F0E943B2FCE016F
:101AF00081599F4F0E943B2FC7010E943B2F4AE014
:101B00006D2DC7010E94962F4AE0622DCE018159AA
:101B10009F4F0E94962F69E776E0CE018B589F4F2A
:101B20000E94E22FBE0161597F4FCE018B589F4F1B
:101B30000E942F2A62E776E00E94182AB7010E94CD
:101B40002F2ABC01C8010E94DA2FC8010E94EA4076
:101B5000C8010E943B2FCE018B589F4F0E943B2F04
:101B6000CE0181599F4F0E943B2FC7010E943B2FFE
:101B7000312CD501ED91FC91828193812816390693
:101B800019F48481D81671F06FE876E0C8010E94DC
:101B9000E22FC8010E94EA40C8010E943B2F332473
:101BA00033944CC08D2D0E94E1356C01FC013382D1
:101BB00022820190F081E02D0484F585E02DB401AE
:101BC0001995D601ED91FC91008CF18DE02D45E049
:101BD00050E062EA76E0C6011995F50160817181F5
:101BE000D601ED91FC910190F081E02DC60119958F
:101BF00081110EC06DEA76E0C8010E94E22FC80193
:101C00000E94EA40C8010E943B2F332433940BC04A
:101C1000D601ED91FC910284F385E02DC601199562
:101C2000880E911C312CC114D10441F0D601ED91E4
:101C3000FC910688F789E02DC6011995BFEF4B1A74
:101C40005B0AE2E0AE0EB11C332009F407CF01C0FD
:101C5000312C6CEB76E0C8010E94E22FC8010E9493
:101C6000EA40C8010E943B2F332009F446C067ECCC
:101C700076E0C8010E94E22FC8010E94EA40C80134
:101C80000E943B2FEC968FACEC97ED969FACED97B6
:101C9000A12CB12C6AE0C62ED12C23015524A4140A
:101CA000B504E4F4D4018D919C91DC01ED91FC919B
:101CB0000684F785E02DB6011995F4018191919183
:101CC0004F01DC01ED91FC910284F385E02D199523
:101CD000C80ED11CBFEFAB1ABB0AE1CF662D81E065
:101CE00090E00E948F596D2D84E090E00E948F5902
:101CF0006C2D85E090E00E948F5966EE76E0C80179
:101D00000E94E22FC8010E94EA40C8010E943B2FB6
:101D1000C12CD12C8091A6129091A712C816D90679
:101D2000B4F4C601880F991FE091A212F091A3129A
:101D3000E80FF91F80819181DC01ED91FC91008415
:101D4000F185E02D1995BFEFCB1ADB0AE3CF6DEDDE
:101D500076E0C8010E94E22FC8010E94EA40C80153
:101D60000E943B2FC12CD12C8091A6129091A712DA
:101D7000C816D906B4F4C601880F991FE091A212C3
:101D8000F091A312E80FF91F80819181DC01ED91A0
:101D9000FC910088F189E02D1995BFEFCB1ADB0A81
:101DA000E3CFDD24D394D0929E124AE061E070E04C
:101DB000C7010E946B2F61EF76E0C8010E94E22FFD
:101DC000B701C8010E942F2ABC01CE0181599F4F43
:101DD0000E94DA2FCE0181599F4F0E94EA40CE0126
:101DE00081599F4F0E943B2FC8010E943B2FC70182
:101DF0000E943B2F6091A6127091A7124AE0C70182
:101E00000E946B2F60E077E0C8010E94E22FB701CB
:101E1000C8010E942F2ABC01CE0181599F4F0E9408
:101E2000DA2FCE0181599F4F0E94EA40CE0181599D
:101E30009F4F0E943B2FC8010E943B2FC7010E9469
:101E40003B2F10929F1285ED91E10E940458811161
:101E500006C080919F12882309F458C018C10E94BF
:101E60008E6228EE33E040E050E00E9456689F9377
:101E70008F937F936F938FE097E09F938F93FF9261
:101E8000EF920E94E96A10929E1210929F1285EDC5
:101E900091E10E9404580FB6F894DEBF0FBECDBF8B
:101EA0008823C9F080918B121F928F9383E197E072
:101EB0009F938F931F930F930E94E96AD092A11270
:101EC000B701C8010E9489350F900F900F900F90B5
:101ED0000F900F9002C0D092A1120E94B9444B0102
:101EE0005C0180919F128111D2C00E94B944DC0133
:101EF000CB0188199909AA09BB0980319742A1052C
:101F0000B10508F0A6CF0E94145BEBCF63E377E046
:101F1000C8010E94E22FC8010E94EA40C8010E9445
:101F20003B2F82E090E00E949159482E0E941A3582
:101F30006C016CE477E0C8010E94E22FC8010E94A6
:101F4000EA40C8010E943B2F61E070E0C114D10457
:101F500011F060E070E04AE0C7010E946B2F62E67A
:101F600077E0CE0181599F4F0E94E22FB701CE0149
:101F700081599F4F0E942F2ABC01C8010E94DA2F6D
:101F8000C8010E94EA40C8010E943B2FCE0181593E
:101F90009F4F0E943B2FC7010E943B2F612C712C49
:101FA00034E0832E912C512C641475040CF063C022
:101FB00063E777E0C8010E94E22FC8010E94EA406F
:101FC000C8010E943B2F8DE090E00E9425615C01DA
:101FD000DC01EDE01D92EA95E9F7009719F0B401F4
:101FE0000E94AB056FE777E0C8010E94E22FC801AD
:101FF0000E94EA40C8010E943B2F1601D601AD9213
:10200000BC9261E070E0AB2811F060E070E04AE063
:10201000C7010E946B2F6EE877E0CE0181599F4F78
:102020000E94E22FB701CE0181599F4F0E942F2AB3
:10203000BC01C8010E94DA2FC8010E94EA40C80111
:102040000E943B2FCE0181599F4F0E943B2FC70119
:102050000E943B2FB2E0CB0ED11C6FE977E0F1017B
:10206000808191810E942434F7E08F0E911C2FEF24
:10207000621A720A99CF6DEA77E0C8010E94E22FD6
:10208000C8010E94EA40C8010E943B2F19C160ECC0
:1020900077E0C8010E94E22FC8010E94EA40C8010F
:1020A0000E943B2F3091A412EC963FAFEC973090FA
:1020B000A5126090A8127090A91282E090E00E9490
:1020C0009159D82E60EC77E0C8010E94E22FC80138
:1020D0000E94EA40C8010E943B2F6D1439F14AE08A
:1020E0006D2DC7010E94962F62E576E0CE018159E1
:1020F0009F4F0E94E22FB701CE0181599F4F0E944E
:102100002F2ABC01C8010E94DA2FC8010E94EA40B0
:10211000C8010E943B2FCE0181599F4F0E943B2F47
:10212000C7010E943B2F2224239467C0EC964FAC3A
:10213000EC97532C24E0C22ED12CA12CB12C4301BE
:102140009924A814B9040CF057C08DE090E00E94C7
:1021500025617C01B6010E94AB056FEC77E0C701F9
:102160000E942434D201ED91FD912D01309709F4A4
:1021700073C1D7012D913C911197808191812817CE
:10218000390709F069C116969C91169786819813B4
:1021900063C112962D913C911397828193812817E8
:1021A000390709F059C114962D913C9115978481F6
:1021B00095812817390709F04FC119962D913C9147
:1021C0001A97818592852817390709F045C1179616
:1021D0002D913C911897878190852817390709F030
:1021E0003BC11B962D913C911C97838594852817A4
:1021F000390709F031C147C1212C6CEB76E0C801E9
:102200000E94E22FC8010E94EA40C8010E943B2FB1
:10221000222009F455C06CED77E0C8010E94E22F3E
:10222000C8010E94EA40C8010E943B2FEC964FACC7
:10223000EC97532CA12CB12C94E0E92EF12C430106
:102240009924A814B904BCF5F201C190D1902F01D2
:10225000D6016C91C7010E948F59F6016281C701B6
:1022600001960E948F59D60114966C91C70102966F
:102270000E948F59F6016681C70103960E948F590B
:10228000D60117966C91C70104960E948F59F601EA
:102290006185C70105960E948F59D6011B966C91E6
:1022A000C70106960E948F59B7E0EB0EF11CEFEFC5
:1022B000AE1ABE0AC6CF662D82E090E00E948F590A
:1022C00064EF77E0C8010E94E22FC8010E94EA4053
:1022D000C8010E943B2F81E080939F1261E078E06B
:1022E000C8010E94E22FC8010E94EA40C8010E9472
:1022F0003B2F85ED91E10E940458882309F487C0A3
:1023000085ED91E10E940458882309F480C063E1BF
:1023100078E0C8010E94E22FC8010E94EA40C8018B
:102320000E943B2FE12CF12C8091A6129091A712D4
:10233000E816F9067CF485ED91E10E9404588823A3
:1023400019F0C7010E94A4410E94145BFFEFEF1A2D
:10235000FF0AEACF62E370E080E090E00E94D031B3
:10236000E12CF12CBB24B3948091A6129091A7127A
:10237000E816F906A4F50E94145B6701CC0CDD1C7D
:10238000E091A212F091A312EC0DFD1D0190F081DD
:10239000E02D8681811111C085ED91E10E940458E4
:1023A000882319F0C7010E94A44162E370E080E035
:1023B00090E00E94D0310E94145B8091A212909113
:1023C000A312FC01EC0DFD1D0190F081E02D868132
:1023D000811101C0B12C2FEFE21AF20AC5CFB11062
:1023E0000BC068E278E0C8010E94E22FC8010E9499
:1023F0000841C8010E943B2F66E478E0C8010E94B2
:10240000E22FC8010E94EA40C8010E943B2F67E505
:1024100078E0C8010E94E22FC8010E94EA40C8018A
:102420000E943B2FC258DF4F0FB6F894DEBF0FBE9D
:10243000CDBFDF91CF911F910F91FF90EF90DF9073
:10244000CF90BF90AF909F908F907F906F905F9054
:102450004F903F902F9008956DEA76E0C8010E945A
:10246000E22FC8010E94EA40C8010E943B2F2224AB
:102470002394C7010E94BD61BFEFAB1ABB0A2220A3
:1024800009F45FCEBACE37E0C30ED11C212CF1CFB8
:10249000FF920F931F93CF93DF936115710549F45A
:1024A00066E674E0DF91CF911F910F91FF900C943D
:1024B00047518B01EC0162E2CE010E942351F801E9
:1024C00061918F01662351F0E7E5F4E0F080FF2091
:1024D00099F38181681759F03296F8CF62E2CE0104
:1024E000DF91CF911F910F91FF900C9423516CE5D8
:1024F000CE010E9423516F2DDFCF2F923F924F923A
:102500005F926F927F928F929F92AF92BF92CF9283
:10251000DF92EF92FF920F931F93CF93DF93CDB78C
:10252000DEB76C970FB6F894DEBF0FBECDBFDC01EF
:10253000ED91FC9111973197E830F10508F057C201
:102540001B018C018827EE58FF4F8F4F0C94A66912
:10255000FD0182809380A480B580A5019401C5010E
:10256000B4010E94F666882319F062E978E0B1C0F0
:1025700020E030E0A901C501B4010E94F66687FFA2
:1025800008C06DE2C1010E942351B7FAB094B7F8B8
:10259000B09420E030E0A901C501B4010E94F666C4
:1025A000882309F49AC0A5019401C501B4010E94D1
:1025B0009268A50194010E94F66681118EC069E9B6
:1025C00078E087C012960D911C9113976BE5C101BD
:1025D0000E942351F801028113810115110579F040
:1025E000B101C801029689DFD8010D911C91011536
:1025F000110529F06CE2C1010E942351EECF6DE577
:1026000028C0FD01028113816BE7C1010E942351A3
:10261000D80112960D911C91139701151105C1F067
:10262000F80162817381C10133DF6AE3C1010E9455
:102630002351B101C801049660DFD8010D911C91AE
:102640000115110529F06CE2C1010E942351E5CF6B
:102650006DE7C1010E942351CAC1FD0162817381EE
:10266000C10116DFC4C112966D917C91139731C0E0
:102670006DE2C1010E942351F8016281738184815E
:1026800095811E8A8E010A5E1F4F2AE0C22ED12C30
:10269000E12CF12CA70196010E943468605DD801FD
:1026A0006E938D01B901CA0161157105810591050E
:1026B00089F7BD010EC0FD0182819381A481B5819E
:1026C000892B8A2B8B2B19F46BE075E002C066E036
:1026D00075E0C1010E9447518AC120E836E948E10E
:1026E0005BE4C501B4010E948F6987FF4AC100E223
:1026F00010E0E5E0DE2E188E1F8A20E030E0A90110
:10270000C501B4010E948F691816B4F52CEA35ECA6
:1027100047E257E3C501B4010E94F666181664F15A
:10272000BFEFDB1649F1ED2DF4E0EF02700111244B
:10273000F701EE5EFD4FA5019401608171818281F8
:1027400093810E948F6918169CF4F701EE5BFD4F90
:102750002081318142815381C501B4010E945B67B0
:102760004B015C018F89988D801B910B988F8F8B0B
:1027700015950795DA94D4CFC501B4010E94636919
:102780006B017C012B013C0106E080E492E4AFE0A8
:10279000B0E0898F9A8FAB8FBC8F102F01509AE0D9
:1027A0004916510461047104C8F0698D7A8D8B8DCE
:1027B0009C8D2AE030E040E050E00E943468298F90
:1027C0003A8F4B8F5C8FC301B2012AE030E040E0CA
:1027D00050E00E94346829013A01DFCFC701B601F9
:1027E0000E94FA669B01AC01C501B4010E94916888
:1027F0004B015C01698D7A8D8B8D9C8D0E94FA66F0
:102800009B01AC01C501B4010E945B672B013C0137
:102810000E9463694B015C010E94FA669B01AC0156
:10282000C301B2010E9491689B01AC010E949268B1
:102830000E946369860E971EA81EB91E898D9A8D07
:10284000AB8DBC8D88169906AA06BB06F8F09FEFE3
:10285000C91AD90AE90AF90AAF89B88DAB2B99F0E0
:10286000BAE0CB16D104E104F10468F0EF89F88DE9
:102870003196F88FEF8B812C912C5401C12CD12CE7
:102880007601C39403C0812C912C54015AE0452E4B
:10289000512C612C712CC501B401A30192010E943D
:1028A0003468672B682B692B31F4111624F4490125
:1028B0005A011150F0CF1E8ACE0146969A8F898F09
:1028C0004AE0442E512C612C712CC701B601A301A2
:1028D00092010E943468605DA98DBA8D6E93BA8FA3
:1028E000A98F69017A01C114D104E104F10469F7E7
:1028F000BD01C1010E944751112329F1188A012FFE
:102900007E01B0E1EB0EF11C67013AE0432E512C41
:10291000612C712C015068F0C501B401A301920132
:102920000E943468605DF70162937F0149015A019A
:10293000F1CFB601611B71098EE2DB018E93BD01FF
:10294000C1010E944751EF89F88DF7FF0BC066E97E
:1029500078E0C1010E9447516F89788D719561952A
:1029600071090BC08F89988D892B09F440C065E6E9
:10297000C1010E9423516F89788DC1010E946C5161
:1029800036C08AE5C82E82E0D82E9AE2E92E92E07F
:10299000F92E00E210E0188E1F8AD6015E914E914A
:1029A0003E912E916D01C501B4010E948F6987FD92
:1029B00011C0F7012489358946895789C501B401B9
:1029C0000E945B674B015C018F89988D800F911F7E
:1029D000988F8F8B1595079594E0E91AF108A2E47A
:1029E000CA16A2E0DA06C9F6DD24DA9486CE6C9621
:1029F0000FB6F894DEBF0FBECDBFDF91CF911F9110
:102A00000F91FF90EF90DF90CF90BF90AF909F908D
:102A10008F907F906F905F904F903F902F90089590
:102A20000C94BD610895CF92DF92EF92FF920F93C5
:102A30001F93CF93DF93CDB7DEB72E970FB6F894E1
:102A4000DEBF0FBECDBF6C018B016BE674E0C80129
:102A50000E947605882339F06BE674E0C8010E9475
:102A60003205F601878362EA78E0C8010E947605A4
:102A7000882309F44CC062EA78E0C8010E94D304BC
:102A80000097A1F18C010C5F1F4FC8010E94050443
:102A9000009711F0BC012CC065E674E0CE010196F0
:102AA0007C010E94E22FFE86ED86CE010D9698876E
:102AB0008F831A861986BE01695F7F4FC8011DDDAD
:102AC00089819A8198878F838B819C819A87898756
:102AD0008D819E819C878B871A8219821C821B8222
:102AE0001E821D82C7010E943B2F06C065E674E06E
:102AF000CE0107960E94E22FBE01695F7F4FC6019B
:102B000008960E94DA2ACE0107960E943B2F2E9645
:102B10000FB6F894DEBF0FBECDBFDF91CF911F91EE
:102B20000F91FF90EF90DF90CF9008954F925F92BA
:102B30006F927F928F929F92AF92BF92EF92FF928D
:102B40000F931F93CF93DF93CDB7DEB762970FB686
:102B5000F894DEBF0FBECDBF7C01DC0153968D9093
:102B60009D90AD90BC905697B0ED8B0EB7E09B1E3C
:102B7000A11CB11C0E94B94486169706A806B90686
:102B800008F099C0F7014389548965897689CE0197
:102B900007960E948F4A6AEA78E0CE010D960E945D
:102BA000E22FBE01695F7F4FCE010D960E942F2A52
:102BB000BC01CE0101960E94DA2FCE0101960E943F
:102BC000EA40CE0101960E943B2FCE010D960E9455
:102BD0003B2FCE0107960E943B2FD7015196ED91D6
:102BE000FC91529704851585F801868197810E9492
:102BF000405740E06CECD80116968D919C91179748
:102C00000E94F01EF801408164E4868197810E9451
:102C1000F01ED80112968C9112978823E9F1119633
:102C2000EC91E950E33040F4F0E0EE0FFF1FE45F79
:102C3000FD4F8080918004C08EEE882E82E0982E19
:102C4000F8018381882311F1808181111FC00E94C6
:102C5000B9442B013C01092C000CAA08BB08D8017F
:102C600016968D919C9117970E94411F8130A1F07B
:102C70000E94B944DC01CB0188199909AA09BB0952
:102C800084159505A605B70550F306C0B401990C47
:102C9000880B990B0E94D031D701ED91FC91048CE7
:102CA000F58DE02DC70119950E94B944F701638B9A
:102CB000748B858B968B62960FB6F894DEBF0FBE31
:102CC000CDBFDF91CF911F910F91FF90EF90BF90FB
:102CD000AF909F908F907F906F905F904F900895EE
:102CE000CF92DF92EF92FF920F931F93CF93DF93D8
:102CF000CDB7DEB72C970FB6F894DEBF0FBECDBFB1
:102D00008C017B016A0165E674E0CE0107960E94A2
:102D1000E22FE114F10429F0B701CE0107960E94D9
:102D20006D2A64E87AE0CE0107960E94402AF801F5
:102D30006281738140E1CE0101960E94402FBE0165
:102D40006F5F7F4FCE0107960E948440CE010196AF
:102D50000E943B2F61E175E0CE0107960E94402A58
:102D600040E1F8016481CE0101960E94962FBE01D8
:102D70006F5F7F4FCE0107960E948440CE0101967F
:102D80000E943B2F68E175E0CE0107960E94402A21
:102D90004AE0F8016781CE0101960E94962FBE019C
:102DA0006F5F7F4FCE0107960E948440CE0101964F
:102DB0000E943B2F65EB78E0CE0107960E94402AE7
:102DC0007801F8E0EF0EF11C005F1F4FF7016191F1
:102DD0007F0140E1CE0101960E94962FBE016F5FF8
:102DE0007F4FCE0107960E948440CE0101960E943B
:102DF0003B2FE016F10651F76FEB78E0CE01079616
:102E00000E94402ABE01695F7F4FCE0101960E9459
:102E1000DA2FBE016F5F7F4FC6010E948B40CE014B
:102E200001960E943B2FCE0107960E943B2F2C96C5
:102E30000FB6F894DEBF0FBECDBFDF91CF911F91CB
:102E40000F91FF90EF90DF90CF900895CF93DF9395
:102E5000CDB7DEB762970FB6F894DEBF0FBECDBF19
:102E6000FB0162817381DC0113967C936E93129750
:102E7000248114962C9314972481243579F49F018E
:102E8000285F3F4F1896AF01405F5F4FF901819176
:102E90009F018D93E417F507C9F727C04AE0CE01DB
:102EA00007960E94402F63EC78E0CE0101960E94C5
:102EB000E22FBE01695F7F4FCE0101960E942F2A4B
:102EC000BC01CE010D960E94DA2FCE010D960E9414
:102ED0000841CE010D960E943B2FCE0101960E9423
:102EE0003B2FCE0107960E943B2F62960FB6F894B7
:102EF000DEBF0FBECDBFDF91CF910895AF92BF92DD
:102F0000CF92DF92EF92FF920F931F93CF93DF93B5
:102F1000CDB7DEB767970FB6F894DEBF0FBECDBF53
:102F20007C0161EE78E0CE0101960E94E22FCE0195
:102F300001960E94EA40CE0101960E943B2F4AE092
:102F4000D70117966C91CE010A960E94962F66EFD4
:102F500078E0CE0101960E94E22FBE01665F7F4FAE
:102F6000CE0101960E942F2ABC01CE0142960E94FA
:102F7000DA2FCE0142960E94EA40CE0142960E948C
:102F80003B2FCE0101960E943B2FCE010A960E9454
:102F90003B2FF7012781A091A212B091A3121097A5
:102FA00099F04091A6125091A71280E090E084170A
:102FB000950754F4ED91FD913481313319F4378143
:102FC000231721F00196F3CFE0E0F0E0D70152960D
:102FD000FC93EE935197309761F512966D917C9129
:102FE00013974AE0CE010A960E94402F6BEF78E0DB
:102FF000CE0101960E94E22FBE01665F7F4FCE0197
:1030000001960E942F2ABC01CE0142960E94DA2F1F
:10301000CE0142960E940841CE0142960E943B2F6B
:10302000CE0101960E943B2FCE010A960E943B2FB3
:10303000E4C06701B8E0CB0ED11CAE014F5F5F4F1B
:10304000B601848595850E947757811132C0F701BA
:10305000628173814AE0CE010A960E94402F68E6A1
:103060007DE0CE0101960E94E22FBE01665F7F4F98
:10307000CE0101960E942F2A65E179E00E94182A6C
:10308000BC01CE0142960E94DA2FCE0142960E94E8
:103090000841CE0142960E943B2FCE0101960E942C
:1030A0003B2FCE010A960E943B2FD70150961C92CF
:1030B000A4C081E0F701808B0188F289E02D0485AE
:1030C0001585B601C8010E94D357893009F495C00F
:1030D000AE014F5F5F4FB601C8010E94775788234A
:1030E00009F48BC0D70118968C91803109F485C002
:1030F0008FE18D83F801868197810E944057B60148
:10310000D80116968D919C9117979ED640E06EE45B
:10311000F8018681978164D640E06B81D8011696CC
:103120008D919C9117975CD640E06C81F801868167
:10313000978156D6D70118968C91803131F040E0B6
:103140006D81F801868197814BD6D80116968D91B5
:103150009C9117970E944057B601F801868197818C
:1031600073D6D8014C9168E416968D919C9117976F
:1031700037D664E170E080E090E00E94D031F80141
:103180008081882331F06AE070E080E090E00E9466
:10319000D031D80116968D919C9117970E94405777
:1031A000F80181818A3018F489E0818326C089E0A2
:1031B0008183C12CD12CF801848190E0C816D906F6
:1031C000E4F4AC2C0680F781E02D13861586148676
:1031D000DF011B9633961E92AE17BF07E1F7B12CA5
:1031E000BE01665F7F4FD80116968D919C9117970F
:1031F0000E947B25811117C01FC0F701138A148A12
:10320000158A168A67960FB6F894DEBF0FBECDBF3B
:10321000DF91CF911F910F91FF90EF90DF90CF90B2
:10322000BF90AF900895AB1022C067E0CE010A9620
:10323000BFD5998989131BC0D8011196BC90BE01D6
:10324000665F7F4FC8010E94D3578B1518F4F801B1
:10325000818106C0BE01665F7F4FC8010E94D357BF
:10326000D80111968C93BFEFCB1ADB0AA4CFB3948D
:10327000AB1410F3B5CFCF93DF931F92CDB7DEB76A
:103280006983DC01ED91FC910280F381E02D41E046
:1032900050E0BE016F5F7F4F19950F90DF91CF9186
:1032A0000895FC01818D928D0895FC019485FB01A8
:1032B0008485981303C081E0983008F080E0089579
:1032C000CF93DF931F92CDB7DEB76983DC01ED9119
:1032D000FC910280F381E02D41E050E0BE016F5F80
:1032E0007F4F19950F90DF91CF910895FC01848550
:1032F00095850895FC0184899589089520E134E03D
:10330000FC0131832083FB014089518962897389E3
:10331000FC0142835383648375830895DC01ED913E
:10332000FC91048CF58DE02D199480E00895FC014A
:10333000808D883040F4218D328D232B21F00E9426
:10334000C24690E008958FEF9FEF0895CF93DF93EB
:10335000FC012485283018F08FEF9FEF0EC0EC01A0
:103360000190F081E02D0084F185E02D1995892BE5
:1033700099F38C850E94C24690E0DF91CF91089529
:10338000CF93DF93FC01218D328D2115310519F486
:103390008FEF9FEF11C0EC014217530708F0A9010E
:1033A000888D0E947F491816190694F7298D3A8D49
:1033B000281B390B3A8F298FDF91CF9108950F93F6
:1033C0001F93CF93DF931F92CDB7DEB7FC01218D02
:1033D000328D232B61F08C0141E050E0BE016F5F24
:1033E0007F4F808D0E947F49181619061CF08FEFC1
:1033F0009FEF08C0F801818D928D0197928F818F88
:10340000898190E00F90DF91CF911F910F910895E6
:10341000CF93DF931F92CDB7DEB741E050E0BE01FE
:103420006F5F7F4FFC0184850E947F491816190643
:103430001CF4898190E002C08FEF9FEF0F90DF9125
:10344000CF910895FC018485883010F40C947F4955
:1034500080E090E00895FC018485883010F40C949D
:10346000ED4680E090E008950F931F93CF93DF9394
:10347000CDB7DEB728970FB6F894DEBF0FBECDBF2D
:103480008C01D80159964D915C915A97411551057F
:1034900051F0ED91FC91048CF58DE02D60E070E031
:1034A000C8011995EECFF801808D0E94ED46892B59
:1034B00051F148E050E0BE016F5F7F4FD801589650
:1034C0008C910E947F4918161906FCF4D801509679
:1034D00084E0FE01319601900D928A95E1F78D818D
:1034E00090E0982F88272E81820F911DF801958BEF
:1034F000848B8F8190E0982F88272885820F911DDB
:10350000928F818F02C080E090E028960FB6F894E9
:10351000DEBF0FBECDBFDF91CF911F910F910895F8
:10352000AF92BF92CF92DF92EF92FF920F931F93D1
:10353000CF93DF93CDB7DEB7AF970FB6F894DEBF6A
:103540000FBECDBF8C015B016A01CE0101960E94C6
:10355000702880E1E82E84E0F82EFBA6EAA61CA6DF
:103560001DA61EA61FA68091CB119091CC11A091F3
:10357000CD11B091CE118EA39FA3A8A7B9A78B831D
:103580009C83AD83BE8318861F82AE01465D5F4F6C
:10359000B501CE0101960E94132681309105B1F448
:1035A000D801ED91FC910488F589E02DFDA2ECA2F3
:1035B0008CA59DA5AEA5BFA58EA39FA3A8A7B9A7BF
:1035C000A601BE016C5D7F4FC8011995AF960FB67D
:1035D000F894DEBF0FBECDBFDF91CF911F910F9149
:1035E000FF90EF90DF90CF90BF90AF900895CF9372
:1035F000DF93FC01808D883028F4EF010E943E4863
:1036000088E0888FDF91CF9108950F931F93CF9318
:10361000DF93EC018B01888D883010F40E943E48C6
:10362000B80182E00E949A48888F883030F41D8764
:103630000C871A8E198E81E001C080E0DF91CF9156
:103640001F910F910895CF93DF93EC018C85883003
:10365000C8F40E944F4A843181F0882371F0883188
:1036600061F08C3161F4E881F9810084F185E02D0D
:10367000CE01199521E0892B19F420E001C021E049
:10368000822F01C080E0DF91CF910895CF92DF9229
:10369000EF92FF92CF93DF93EC018C85883038F561
:1036A0000E9422480E94B9446B017C018C850E94D3
:1036B0004F4A8823D1F061E070E080E090E00E9402
:1036C000D0310E94B944AB01BC014C195D096E09AF
:1036D0007F098D859E85A0E0B0E0481759076A07ED
:1036E0007B0720F38C850E943E4888E08C87DF9121
:1036F000CF91FF90EF90DF90CF900895CF92DF921F
:10370000EF92FF920F931F93CF93DF93CDB7DEB766
:10371000AF970FB6F894DEBF0FBECDBF8C016B0123
:103720007A01CE0101960E94702880E194E09BA767
:103730008AA71CA61DA61EA61FA6D8011C968C91A2
:10374000883060F40E944F4A882321F0F801848574
:103750000E94224888E0D8011C968C938091CB115E
:103760009091CC11A091CD11B091CE118EA39FA3B9
:10377000A8A7B9A78B839C83AD83BE8318861F82BD
:10378000AE01465D5F4FB601CE0101960E94132641
:103790000097C1F0D801ED91FC910684F785E02DEA
:1037A00080E194E09DA38CA38CA59DA5AEA5BFA5AB
:1037B0008EA39FA3A8A7B9A7A701BE016C5D7F4FE9
:1037C000C8011995AF960FB6F894DEBF0FBECDBFF6
:1037D000DF91CF911F910F91FF90EF90DF90CF90ED
:1037E0000895CF93DF93EC018C85883060F40E94BC
:1037F0004F4A873111F08C3131F48C850E94514948
:103800008115984088F3DF91CF910895FC0184855C
:10381000883010F40C94514980E090E00895DA016A
:103820009091520FE92FF0E0FE2FEE27E60FF71FE1
:1038300090E0982F8827A901BD018E0F9F1F0C943F
:10384000194508958CBD9DBD08957F928F929F92DA
:10385000AF92BF92CF92DF92EF92FF920F931F939E
:10386000CF93DF931F921F92CDB7DEB77C014B0140
:10387000742EC52EFC01A688B788D08CCE01019687
:103880000E948D3F89819A81DDDF8D2D0E948546C2
:10389000072D1C2D8017910708F48C019801A401B5
:1038A000B5018D2D0E943347F70186899789800FD6
:1038B000911F978B868BC8010F900F90DF91CF914E
:1038C0001F910F91FF90EF90DF90CF90BF90AF903E
:1038D0009F908F907F9008951F93CF93DF931F92B7
:1038E0001F92CDB7DEB7FC01108DCE0101960E946C
:1038F0008D3F89819A81A6DF60E270E0812F0E946E
:10390000144862E070E0812F0E94F74784FD17C0E1
:1039100062E070E0812F0E94F74783FF08C048E112
:1039200062E070E0812F0E94DA4780E00FC0CE0194
:1039300001960E948D3F89819A8184DFE2CF40E128
:1039400062E070E0812F0E94DA4781E090E00F9002
:103950000F90DF91CF911F910895DF92EF92FF9228
:103960000F931F93CF93DF931F921F92CDB7DEB7B4
:10397000FB01DC0157961C921E9256972281211161
:1039800009C02381211106C02481211103C0258192
:103990002223F1F041155105D9F07A018F01FC0184
:1039A000D08CCE0101960E948D3F89819A814ADF99
:1039B000A8014E5F5F4F24E030E06CE070E08D2D99
:1039C0000E942247B7018D2D0E94B04781E001C0BF
:1039D00080E090E00F900F90DF91CF911F910F91B9
:1039E000FF90EF90DF9008950F931F93CF93DF9395
:1039F0001F921F92CDB7DEB7FC0124852830C0F49A
:103A00008C01CE0101960E948D3F89819A811ADF37
:103A100022E030E0AE014F5F5F4F60E170E0F801FF
:103A20008485FDDE89819A8198278927982702C09D
:103A300080E090E00F900F90DF91CF911F910F9158
:103A40000895EF92FF920F931F93CF93DF9300D0CF
:103A50001F92CDB7DEB78C017B01FB0184858830D6
:103A600050F080E194E0F801918380831282138208
:103A7000148215821EC0CE0101960E948D3F89815D
:103A80009A81E0DE24E030E0AE014F5F5F4F6CE0F2
:103A900070E0F7018485C3DE80E194E0F801918352
:103AA000808389819A81AB81BC8182839383A48343
:103AB000B583C8010F900F900F900F90DF91CF91B9
:103AC0001F910F91FF90EF9008950F931F93CF9345
:103AD000DF931F921F92CDB7DEB7FC0124852830FB
:103AE000C0F48C01CE0101960E948D3F89819A819C
:103AF000A9DE22E030E0AE014F5F5F4F64E070E08E
:103B0000F80184858CDE89819A81982789279827F6
:103B100002C080E090E00F900F90DF91CF911F9155
:103B20000F9108956F927F928F929F92AF92BF9262
:103B3000CF92DF92EF92FF921F93CF93DF931F926A
:103B40001F92CDB7DEB7FC011485183008F05EC0B7
:103B50006A014130F8E05F0718F0C12C28E0D22E4E
:103B60007A013B015C01CE0101960E948D3F898163
:103B70009A8168DE812F0E9485464C0163E070E0E7
:103B8000812F0E94F747873111F08C3121F48C147A
:103B90009D0448F302C0C12CD12CCE0101960E9495
:103BA0008D3F89819A814EDE9601A30160E070E02D
:103BB000812F0E94334760E270E0812F0E941448F9
:103BC00062E070E0812F0E94F74784FD15C063E03A
:103BD00070E0812F0E94F747811106C081E090E0DC
:103BE000F5019383828312C0CE0101960E948D3F1E
:103BF00089819A8127DEE4CF40E162E070E0812F85
:103C00000E94DA47CD2851F3C70102C080E090E05E
:103C10000F900F90DF91CF911F91FF90EF90DF9069
:103C2000CF90BF90AF909F908F907F906F900895AE
:103C3000AF92BF92CF92DF92EF92FF920F931F93BA
:103C4000CF93DF931F921F92CDB7DEB78C016B012C
:103C50005A01FC018485883058F40E944F4A882319
:103C600021F0F80184850E94224888E0F8018487C9
:103C7000F60182819381A481B5810097A105B105E8
:103C800009F45AC08F3F9F4FAF4FBF4F09F454C044
:103C900060E070E081E20E949A48F82EF801848783
:103CA000F7E0F81708F448C0CE0101960E948D3F56
:103CB00089819A81C7DDA6014E5F5F4F24E030E025
:103CC0006CE070E08F2D0E942247B5018F2D0E947D
:103CD000B04764E070E08F2D0E9414480E94B94400
:103CE0006B017C01F80184850E944F4A873139F1CC
:103CF0008C3129F1882301F10E94B944AB01BC0148
:103D00004C195D096E097F09F80185859685A0E04B
:103D1000B0E084179507A607B70738F061E070E0B8
:103D200080E090E00E94D031DDCFF80184850E94D0
:103D30003E4888E0F801848780E090E002C081E09E
:103D400090E00F900F90DF91CF911F910F91FF9016
:103D5000EF90DF90CF90BF90AF9008950F931F9397
:103D6000CF93DF931F921F92CDB7DEB78C0180E116
:103D700094E0F80191838083128213821482158269
:103D8000CE0101960E948D3F89819A815BDDB80149
:103D90006E5F7F4F44E050E08FE090E00E94194555
:103DA000C8010F900F90DF91CF911F910F9108954F
:103DB000DC0180E0615098F02D91982F9227E92F37
:103DC000EF70F0E0EE5EFD4F249192959F70E92F29
:103DD000F0E0EE5DFD4FE491822F8E27EBCF08954A
:103DE000DF92EF92FF920F931F93CF93DF93EC013B
:103DF000D62EE42E08E010E0FF24F39461E08D2D30
:103E00008F2109F460E0CE010E941157FF0C015090
:103E10001109A1F7E11010C0F894E981FA819181AC
:103E20008881809589238183E981FA8192818881C3
:103E30008095892382837894DF91CF911F910F9190
:103E4000FF90EF90DF900895EF92FF920F931F93F2
:103E5000CF93DF938C017B0140E065E5C1DFE70193
:103E600088E0E80EF11C699140E0C801B9DFCE1589
:103E7000DF05C9F7DF91CF911F910F91FF90EF9070
:103E80000895FC0190810180F281E02DF8948181F8
:103E9000892B81832281892F809528232283A7E083
:103EA000B0E01197F1F7218182238183A3E2B0E092
:103EB0001197F1F780817894EFECF0E03197F1F70A
:103EC000982381E009F480E008950F931F93CF9326
:103ED000DF938C01EB016BE674E0CE010E94760566
:103EE000882339F06BE674E0CE010E943205F801B8
:103EF0008783DF91CF911F910F9108950F931F93A7
:103F0000CF93DF938C01EB01FC016281CE010E9413
:103F10008F59F8016481CE0101960E948F59F801F2
:103F20006781CE010296DF91CF911F910F910C9482
:103F30008F590F931F93CF93DF938C01EB01FC01FB
:103F40006281CE010E948F59F8016481CE010196F1
:103F50000E948F59F8016781CE0102960E948F5905
:103F6000F8016085CE010396DF91CF911F910F91EB
:103F70000C948F590F931F93CF93DF93EC018B0118
:103F8000CB010E94915990E09B838A83C8010196DE
:103F90000E9491598C83C80102960E9491598F8387
:103FA000DF91CF911F910F9108950F931F93CF939E
:103FB000DF93EC018B01CB010E94915990E09B8330
:103FC0008A83C80101960E9491598C83C801029688
:103FD0000E9491598F83C80103960E94915991E0E4
:103FE000811101C090E09887DF91CF911F910F91CF
:103FF00008951F93CF93DF93EC01162F6D830E94DA
:10400000A14C612F8A819B81DF91CF911F910C94EC
:10401000524D0C94BD610F931F93CF93DF938C018E
:10402000EB016BE674E0CE010E947605882339F03F
:104030006BE674E0CE010E943205F80187836FE6DB
:1040400074E0CE010E947605882329F0CE010E94FB
:10405000124BF8018087DF91CF911F910F91089546
:1040600008958F929F92AF92BF92CF92DF92EF927C
:10407000FF920F931F93CF93DF93CDB7DEB72897AF
:104080000FB6F894DEBF0FBECDBF6C016BE279E0D6
:10409000CE0101960E94E22FCE0101960E94EA40D5
:1040A000CE0101960E943B2F8EE090E00E94256198
:1040B0007C01D60117961C9160E0812F0E949431FB
:1040C000812F90E0FC01EA53FD4FE491D701EC937E
:1040D000FC01E45FFC4FE491F0E0EE0FFF1FEE5CAB
:1040E000FD4F85919491F701928381831386158604
:1040F00014865701FBE0AF0EB11C470183E0880E28
:10410000911CF50112928E169F06E1F7D6011996C1
:10411000FC92EE92189784E190E00E9425618C0158
:10412000FC01F782E68214821582108289E0818385
:1041300081E082838383138A128AD6011D961C93A1
:104140000E931C97F50112925F018E169F06D1F710
:10415000FF24F394BE016F5F7F4FD80116968D91B7
:104160009C911797C8D4882309F45BC067E0CE01FF
:1041700001961EDE98858913EDCFF80180818111AB
:1041800022C0868197810E944057BE016F5F7F4F9A
:10419000D80116968D919C91179756DE40E064EBFE
:1041A000F801868197811CDED80116968D919C912D
:1041B000179767DEE82EF801868197810E944057A5
:1041C000EE2009F44AC0D8011196EC90BE016F5F51
:1041D0007F4FC8010E94D3578E1518F4F8018181D2
:1041E00006C0BE016F5F7F4FC8010E94D357D80140
:1041F00011968C93119714968C9114978F5F149647
:104200008C938981883261F130F4803149F18232B6
:1042100009F0A0CF25C08B3319F1823409F09ACF71
:104220001FC0C6010E94A14CF60165818281938165
:104230000E94524D28960FB6F894DEBF0FBECDBF38
:10424000DF91CF911F910F91FF90EF90DF90CF9072
:10425000BF90AF909F908F900895D801FC92B3CFFC
:10426000F80185818F5F858375CFCF92DF92EF92C2
:10427000FF920F931F93CF93DF93CDB7DEB7C8584C
:10428000D1090FB6F894DEBF0FBECDBF7C018B0104
:104290006A01BC01CE0183589F4F0E94E22FB801F2
:1042A0008E010F5F1F4FC8010E94E22F960140E070
:1042B00050E0B801CE018D579F4F0E94972AC80148
:1042C0000E943B2F6AE27DE0CE018B599F4F0E94F6
:1042D000E22FBE0163587F4FCE018B599F4F0E9442
:1042E0002F2A67E379E00E94182ABE016D577F4F9D
:1042F0000E942F2A6EE874E00E94182ABC01C801AF
:104300000E94DA2FC8010E94EA40C8010E943B2F98
:10431000CE018B599F4F0E943B2F80918B121F9291
:104320008F938AE399E09F938F931F930F930E943B
:10433000E96AB801C7010E94CB6A0F900F900F90F5
:104340000F900F900F90892B91F48091A0128823E9
:1043500009F48EC1BE016D577F4FCE018B599F4F1F
:104360000E94DA2FCE018B599F4FA4D32AC080918F
:104370008B121F928F938AE599E09F938F931F93DF
:104380000F930E94E96AB801C7010E94CB6A0F909F
:104390000F900F900F900F900F90892BC1F4809188
:1043A000A112882309F464C1BE016D577F4FCE016D
:1043B0008B599F4F0E94DA2FCE018B599F4F0E943D
:1043C0001A2DCE018B599F4F0E943B2F51C163E79D
:1043D00079E0CE018B599F4F0E94E22FBE016B59AD
:1043E0007F4FCE0183589F4F6BD3F82ECE018B5950
:1043F0009F4F0E943B2FFF2089F0BE016D577F4FDA
:10440000CE018F589F4F0E94DA2FCF57DF4F288160
:104410003981C158D04043E150E08BC065E879E074
:10442000CE018B599F4F0E94E22FBE016B597F4FE7
:10443000CE0183589F4F44D3F82ECE018B599F4F06
:104440000E943B2FF1103DC066E979E0CE018B5907
:104450009F4F0E94E22FBE016B597F4FCE018358C0
:104460009F4F2ED3F82ECE018B599F4F0E943B2F8A
:10447000FF2089F0BE016D577F4FCE018F589F4FAF
:104480000E94DA2FCF57DF4F28813981C158D040A1
:1044900047E150E04EC06CEA79E0CE018B599F4F66
:1044A0000E94E22FBE016B597F4FCE0183589F4F70
:1044B00007D3F82ECE018B599F4F0E943B2FFF2030
:1044C00089F0BE016D577F4FCE018F589F4F0E94DC
:1044D000DA2FCF57DF4F28813981C158D04042E1D0
:1044E00050E027C06DEB79E0CE018B599F4F0E94C1
:1044F000E22FBE016B597F4FCE0183589F4FE0D210
:10450000F82ECE018B599F4F0E943B2FFF2009F4BC
:1045100042C0BE016D577F4FCE018F589F4F0E9402
:10452000DA2FCF57DF4F28813981C158D04046E17B
:1045300050E0BE0163587F4FCE0189589F4FF7D797
:10454000BE016F587F4FCE0185599F4F0E94DA2FD1
:10455000BE0169587F4FCE018B599F4F0E94DA2FC1
:10456000BE0165597F4FCE018B599F4F0E94A54ECA
:10457000CE018B599F4F0E943B2FCE0185599F4FF3
:104580000E943B2FCE0189589F4F0E943B2FCE01A6
:104590008F589F4F19CF62ED79E0CE018B599F4F15
:1045A0000E94E22FBE016B597F4FCE0183589F4F6F
:1045B00087D2F82ECE018B599F4F0E943B2FFF20B0
:1045C00009F456C080918B121F928F9382ED99E06F
:1045D0009F938F931F930F930E94E96A64EE79E093
:1045E000CE018B599F4F0E94E22FCE018B599F4FD6
:1045F0000E94EA40CE018B599F4F0E943B2FB80189
:10460000CE018B599F4F0E94E22FBE016B597F4F05
:10461000CE0183589F4F54D20F900F900F900F9060
:104620000F900F908823D9F0C957DF4F8881998167
:10463000C758D040892B99F0CD57DF4FE881F981D9
:10464000C358D0408081882351F0309721F41092D4
:10465000FC0EECEFFEE011E0808180330CF410E002
:10466000CE018B599F4F0E943B2F11110E94FA33AC
:10467000CE018D579F4F0E943B2FCE0183589F4FF5
:104680000E943B2FC857DF4F0FB6F894DEBF0FBE16
:10469000CDBFDF91CF911F910F91FF90EF90DF90F1
:1046A000CF9008954115510509F0DFCD0895CF92BF
:1046B000DF92EF92FF920F931F93CF93DF93CDB7CB
:1046C000DEB72C970FB6F894DEBF0FBECDBF8C01BE
:1046D0006B017A0165E674E0CE0107960E94E22F35
:1046E000C114D10421F0B601CE010796F6D664E8D4
:1046F0007AE0CE010796C4D6F801628173814AE060
:10470000CE0101960E94402FBE016F5F7F4FCE0108
:1047100007960E948440CE0101960E943B2F61E1E2
:1047200075E0CE010796ACD6F8016481CE01019602
:104730000E94C22FBE016F5F7F4FCE0107960E947D
:104740008440CE0101960E943B2F68E175E0CE01C6
:10475000079696D6F801678170E04AE0CE0101968F
:104760000E94402FBE016F5F7F4FCE0107960E94CF
:104770008440CE0101960E943B2F65E275E0CE0198
:1047800007967ED6F8018681811103C06BE075E043
:1047900002C066E075E0CE01079672D664E375E06C
:1047A000CE0107966DD6BE01695F7F4FCE0101969F
:1047B0000E94DA2FBE016F5F7F4FC7010E948B40BE
:1047C000CE0101960E943B2FCE0107960E943B2FFF
:1047D0002C960FB6F894DEBF0FBECDBFDF91CF9100
:1047E0001F910F91FF90EF90DF90CF900895CF929F
:1047F000DF92EF92FF920F931F93CF93DF93CDB78A
:10480000DEB72C970FB6F894DEBF0FBECDBF8C017C
:104810006B017A0165E674E0CE0107960E94E22FF3
:10482000C114D10421F0B601CE01079656D664E832
:104830007AE0CE01079624D6F801628173814AE0BE
:10484000CE0101960E94402FBE016F5F7F4FCE01C7
:1048500007960E948440CE0101960E943B2F61E1A1
:1048600075E0CE0107960CD6F8016481CE01019661
:104870000E94C22FBE016F5F7F4FCE0107960E943C
:104880008440CE0101960E943B2F68E175E0CE0185
:104890000796F6D5F801678170E04AE0CE010196EF
:1048A0000E94402FBE016F5F7F4FCE0107960E948E
:1048B0008440CE0101960E943B2F6EE175E0CE014F
:1048C0000796DED5F801608570E04AE0CE010196DA
:1048D0000E94402FBE016F5F7F4FCE0107960E945E
:1048E0008440CE0101960E943B2F65E275E0CE0127
:1048F0000796C6D5F8018681811103C06BE075E08B
:1049000002C066E075E0CE010796BAD564E375E0B3
:10491000CE010796B5D5BE01695F7F4FCE010196E6
:104920000E94DA2FBE016F5F7F4FC7010E948B404C
:10493000CE0101960E943B2FCE0107960E943B2F8D
:104940002C960FB6F894DEBF0FBECDBFDF91CF918E
:104950001F910F91FF90EF90DF90CF900895EF920D
:10496000FF920F931F93CF93DF93CDB7DEB76E9770
:104970000FB6F894DEBF0FBECDBFFB01309709F430
:1049800089C02481213309F085C061E070E0DC0139
:1049900017963C912781321711F060E070E08F018B
:1049A0007C014AE0CE0107960E946B2F61E070E027
:1049B000F7019481D80114968C91981711F060E05A
:1049C00070E04AE0CE010D960E946B2F61E070E02E
:1049D000F70122813381D80112968D919C91139712
:1049E0002817390711F060E070E04AE0CE014396E5
:1049F0000E946B2F6AEE79E0CE0149960E94E22F69
:104A0000BE016D5E7F4FCE01499629D561EF74E0FE
:104A10000FD5BE01635F7F4F22D561EF74E008D5EB
:104A2000BE01695F7F4F1BD56EE874E001D5BC0104
:104A3000CE0101960E94DA2FCE0101960E94EA4033
:104A4000CE0101960E943B2FCE0149960E943B2F3A
:104A5000CE0143960E943B2FCE010D960E943B2F24
:104A6000CE0107960E943B2FF70122813381D801A6
:104A700012968D919C9113972817390759F49481B8
:104A800014968C911497981305C0978117968C9162
:104A9000981711F080E001C081E06E960FB6F8948F
:104AA000DEBF0FBECDBFDF91CF911F910F91FF9061
:104AB000EF9008952091A01221110C94574F089562
:104AC000FB0144815581FC01248135812417350780
:104AD00078F080819181009759F0FB0160817181AC
:104AE0006115710529F00E94DB6A21E0892B09F02C
:104AF00020E0822F0895BF92CF92DF92EF92FF9233
:104B00000F931F93CF93DF93EC016B018D85811180
:104B100005C0CE010E944057811105C01B861D862D
:104B20001C8680E05DC040E060EFCE0159D901E015
:104B3000E12CB12C11E0CE01A4D9F82ECE01A1D9DF
:104B400091E0F91203C08130B1F434C02E2D30E071
:104B5000F8121BC08B85181738F4FE01E20FF31F03
:104B60008381802341F402C0811729F0F12C193090
:104B700058F41C8709C0FE01EE0DF11D8381802BC6
:104B80008383FF24F39409C0B12EFE01E20FF31FCB
:104B90009381802F8095892383836F2DCE010E947E
:104BA00011571F5F000F11F4E39401E087E08E15A9
:104BB00008F0C1CF113408F4B1CFBB86B11002C0E8
:104BC00081E08D878B81882309F4A8CFDE011396BD
:104BD000F6012B968D918193CA17DB07D9F781E0F7
:104BE000DF91CF911F910F91FF90EF90DF90CF90C9
:104BF000BF9008951F93CF93DF93EC01162F688524
:104C0000111102C081E068278F810E9466311D83E7
:104C1000CE010E94A14C612F8A819B81DF91CF91AF
:104C20001F910C94524D4F925F926F927F928F9290
:104C30009F92AF92BF92CF92DF92EF92FF920F932B
:104C40001F93CF93DF93CDB7DEB763970FB6F8947A
:104C5000DEBF0FBECDBF7C015B013A01FB0120E04E
:104C600080E090E06AE03191332309F140ED430F99
:104C70004A3080F4689FA001699F500D1124CA0139
:104C8000C097830F911D37FD9A958F3F910559F37A
:104C900050F313C03E3289F4233079F0D301A20FD0
:104CA000B11D12968C932F5F80E090E0DCCF233013
:104CB00021F4F301858381E021C0F7014281538112
:104CC000648175818091D1119091D211A091D311FD
:104CD000B091D411481759076A077B0709F491C1AD
:104CE0000E94B9448701085F1F4F6F7077277C5F70
:104CF000C8010E94051B813019F080E090E0D9C105
:104D000080E194E09A838983F70182819381A48171
:104D1000B5818B839C83AD83BE8345E350E0BE01A8
:104D20006F5F7F4FC8010E94AD1C892B19F4C12C05
:104D3000D12C62C10E94B944F7017783668342E0B7
:104D400050E0B7016A5F7F4FC8010E94251C81E0D7
:104D500090E09A83898342E050E0BE016F5F7F4F0D
:104D6000C8010E94251C80E091E09A83898342E07B
:104D700050E0BE016F5F7F4FC8010E94251C1A8260
:104D8000198242E050E0BE016F5F7F4FC8010E9470
:104D9000251C42E050E0BE016F5F7F4FC8010E94BA
:104DA000251C42E050E0BE016F5F7F4FC8010E94AA
:104DB000251C4501F5018081882301F1640156011C
:104DC000F60181912F01882321F08E3211F06201CA
:104DD000F6CFC818D9081C141D0474F4CD8641E020
:104DE00050E0BE01635F7F4FC8010E94251CA601F1
:104DF000B401C8010E94251C4201DCCF1D8641E0A0
:104E000050E0BE01635F7F4FC8010E94251CC12C8A
:104E1000DD24D394DA82C98242E050E0BE016F5FA4
:104E20007F4FC8010E94251CDA82C98242E050E00F
:104E3000BE016F5F7F4FC8010E94251CC8010E9400
:104E40006C1C892B09F473CFE3E0AE2EB12C230147
:104E500022E0420E511C0E94B9443B014C01C801A2
:104E60000E94341A18161906A4F00E94B944DC01F5
:104E7000CB0186199709A809B90989389341A10579
:104E8000B105D0F462E370E080E090E00E94D031A0
:104E9000E6CFF7014281538164817581808D918DC8
:104EA000A28DB38D481759076A077B0749F4848D93
:104EB000958DC59729F409C0CC24CA94DC2C93C0E5
:104EC0005EEFC52EDD24DA948EC0F70181A192A198
:104ED0000C970CF4E9C04CE050E0BE016F5F7F4FCF
:104EE000C8010E94C0198B819C8198278927982727
:104EF0009A8B898BF7014681578129813A81421724
:104F0000530709F0C2C097FFC0C08F709270892B01
:104F100009F0C0C06F8078847624672476246114F9
:104F2000710409F4BCC0C12CD12C8D819E819827BD
:104F300089279827C816D90608F466C0812C912CB9
:104F400041E050E0BE016D5E7F4FC8010E94C01974
:104F50004B89842F807C09F076C0442331F050E0E7
:104F600060E070E0C8010E94C0198B898111E8CF10
:104F700042E050E0BE01615F7F4FC8010E94C0194E
:104F800042E050E0BE01635F7F4FC8010E94C0193C
:104F900044E050E060E070E0C8010E94C01942E0C7
:104FA00050E0BE016F5E7F4FC8010E94C0198F851F
:104FB000988949895A898115914009F04DC0CD845D
:104FC000DE84DC24CD24DC2481E0C816D10409F081
:104FD00043C04115544009F053C044E050E0B201D1
:104FE000C8010E94C01921E0A21AB10829F0FFEF00
:104FF000CF16DF0609F42FCFC8010E94F71AC601A9
:1050000058C08EEF9FEF55C041E050E0BE01635F96
:105010007F4FC8010E94C0194D85442331F050E0F4
:1050200060E070E0C8010E94C0198D858111ECCF4D
:1050300044E050E060E070E0C8010E94C019FFEF5A
:10504000CF1ADF0A72CF41E050E060E070E0C801A3
:105050000E94C0191B8A89CF54274527542760E036
:1050600070E0C8010E94C019FFEF8F1A9F0A6814F0
:10507000790409F065CF96EFC92EDD24DA94B3CF19
:1050800077EFC72EDD24DA94AECF4CEFC42EDD24AB
:10509000DA94A9CF3BEFC32EDD24DA94A4CF2AEF14
:1050A000C22EDD24DA949FCF8DEFC82EDD24DA9452
:1050B0009ACF63960FB6F894DEBF0FBECDBFDF91D7
:1050C000CF911F910F91FF90EF90DF90CF90BF9005
:1050D000AF909F908F907F906F905F904F900895CA
:1050E000FC0180E194E09183808312821382148218
:1050F00015821386128648EE53E060E070E0448724
:1051000055876687778724E632E031872087978B3B
:10511000868B108E118E128E138E88E080A30895D8
:105120008F929F92AF92BF92CF92DF92EF92FF92B7
:105130000F931F93CF93DF93CDB7DEB760970FB672
:10514000F894DEBF0FBECDBF7C019091510F992323
:1051500009F4B8C0933311F008E001C004E05B012A
:10516000CE0101960E948D3F89819A810E94221C66
:105170009E012F5F3F4F6901490110E063E070E03D
:10518000812F0E94F747F40181934F018823C9F0D2
:105190001F5F0113F3CF10E0F60181916F018D3194
:1051A00059F0883149F08A51823030F01F5F011385
:1051B000F3CF0E94211C86C060E170E0812F0E9425
:1051C0001448C12ED12C83EE93E00197F1F742E809
:1051D00060E070E0812F0E94DA474FEF62E070E0FC
:1051E000812F0E94DA47A114B10411F0B50113C058
:1051F000809100029091010201968115F0EC9F07C9
:1052000010F480E090EC9093010280930002609192
:10521000000270910102812F0E94C54786E0EAE5F5
:10522000F2E0DE01199601900D928A95E1F7F701FF
:1052300083818F778C8784818D8785818E87A70175
:105240004E5F5F4F24E030E06CE070E0812F0E9401
:105250002247B501812F0E94B04726E030E0AE0121
:10526000475F5F4F66E070E0812F0E94224761E058
:1052700070E0812F0E94144827E02C9DC0012D9DD5
:10528000900D11249C012350314F7901F9011182B5
:10529000108222E030E0AE01415F5F4F68E270E0D3
:1052A000812F0E940F1C8F8598899827892798271E
:1052B000F701938382831682158214820E94211C37
:1052C000812F01C088E060960FB6F894DEBF0FBE54
:1052D000CDBFDF91CF911F910F91FF90EF90DF90A5
:1052E000CF90BF90AF909F908F900895FC01A089C0
:1052F000B1898C91A689B78982FD0FC09C91818D5F
:105300008F5F8F73228D821749F0218DDF01A20FED
:10531000B11D5D969C93818F08958C9108958F9215
:105320009F92AF92BF92EF92FF920F931F93CF93F2
:10533000DF93CDB7DEB7A1970FB6F894DEBF0FBEEF
:10534000CDBF7C01FA01CB0119A2223008F42AE07A
:105350008E010F5D1F4F822E912CA12CB12CBF010D
:10536000A50194010E943468F901CA010150110994
:105370006A3014F4605D01C0695CD8016C93232B22
:10538000242B252B61F70115110591F0F8010190EF
:105390000020E9F73197AF01401B510BD701ED9188
:1053A000FC910280F381E02DB801C701199502C07C
:1053B00080E090E0A1960FB6F894DEBF0FBECDBF9F
:1053C000DF91CF911F910F91FF90EF90BF90AF9021
:1053D0009F908F900895EF92FF920F931F93CF931A
:1053E000DF936115710511F480E01BC04115510573
:1053F000B9F07B01EC018C819D818A01080F191F96
:10540000B801CE01FFD4882379F3288139818C81BA
:105410009D81B701820F931F0E94D46A1D830C8364
:1054200081E0DF91CF911F910F91FF90EF90089550
:10543000CF93DF93EC016115710559F0FB010190E9
:105440000020E9F73197AF01461B570BC4DF8111EC
:1054500002C0CE01FED4CE01DF91CF910895CF934B
:10546000DF93EC01FB014481558160817181B3DFE1
:10547000811102C0CE01EDD4CE01DF91CF9108950C
:105480006115710549F0FB0101900020E9F73197A2
:10549000AF01461B570B9FCF80E00895EF92FF921C
:1054A0000F931F93CF93DF93EC017B018A01BA0125
:1054B000A9D4811103C0CE01CCD407C01D830C83B5
:1054C000B701888199810E94D46ACE01DF91CF9182
:1054D0001F910F91FF90EF900895CF93DF93EC0110
:1054E0006115710551F0FB0101900020E9F731973A
:1054F000AF01461B570BD2DF01C0ABD4CE01DF9109
:10550000CF910895CF93DF93EC01FB0186179707A6
:1055100051F0608171816115710521F044815581DF
:10552000BDDF01C096D4CE01DF91CF910895BF9227
:10553000CF92DF92EF92FF920F931F93CF93DF935F
:105540007C016B018A01E9012417350720F4812FC2
:105550008901C42FD82F65E674E0C70133D5D60181
:1055600014968D919C91159708171907C0F48C1704
:105570009D0708F4EC01D601ED91FC911197EC0F19
:10558000FD1FB08010826D917C91600F711FC7016B
:10559000A4DFD601ED91FC91EC0FFD1FB082C70195
:1055A000DF91CF911F910F91FF90EF90DF90CF90FF
:1055B000BF900895AF92BF92DF92EF92FF920F9348
:1055C0001F93CF93DF9300D000D0CDB7DEB75B0140
:1055D0007C0100E010E00E5F1F4FA801425051090E
:1055E0009801B501CE010196A2DF40E150E060E0F4
:1055F00070E089819A810E94E262D62ECE010196E6
:105600003AD4F701D1927F010031110521F7269696
:105610000FB6F894DEBF0FBECDBFDF91CF911F91C3
:105620000F91FF90EF90DF90BF90AF900895EF92B1
:10563000FF920F931F93CF93DF93CDB7DEB7C55F74
:10564000D1090FB6F894DEBF0FBECDBF9E01275F14
:105650003F4F3C832B8328EC30E03E832D8318861C
:105660001F8223E234E03A832983FC018081918107
:10567000009711F485E694E09E012F5F3F4FCF52D3
:10568000DF4F39832883C15DD040CD52DF4F9983EE
:105690008883C35DD040CB52DF4F39832883C55DFB
:1056A000D0408AE0C952DF4F8883C75DD040C252E4
:1056B000DF4F19821882CE5DD040BE0162527F4F0B
:1056C000CE018F529F4F0E94214B86E0FE01E25295
:1056D000FF4FDE01A852BF4F01900D928A95E1F76E
:1056E00086E0FE01E852FF4FDE01A252BF4F01905B
:1056F0000D928A95E1F786E0FE01E252FF4FDE014E
:10570000AF52BF4F01900D928A95E1F7CF52DF4F14
:1057100088819981C15DD040079739F4CD52DF4F20
:1057200008811981C35DD04003C00E9429048C0107
:105730006EEF79E0C8010E947605882309F445C020
:105740006EEF79E0C8010E94D304009721F004961F
:105750000E945D0402C080E090E04AE0BC01CE01FE
:1057600086519F4FB8D365E07AE0CE018C519F4FB0
:1057700029D4BE0166517F4FCE018C519F4F6FDE01
:10578000BC01CE0180519F4F15D4CE0180519F4F57
:105790000E94EA40CE0180519F4F6DD3CE018C51C3
:1057A0009F4F69D3CE0186519F4F65D36EEF79E04D
:1057B000C8010E9432051092B5121092B4120E94D4
:1057C0001A3581E08093450F27C18091450F8823CA
:1057D00009F422C16DE07AE0C8010E9476058823B1
:1057E00009F41AC18DE090E00E9425612DE0FC01D2
:1057F00011922A95E9F72091B4123091B512220F37
:10580000331FE091A412F091A512E20FF31F9183D0
:1058100080838091A4129091A512FC01E20FF31FE6
:1058200080819181892B09F4D5C06DE07AE0C801AF
:105830000E9476058823B1F0E091B412F091B51280
:10584000EE0FFF1F8091A4129091A512E80FF91F8F
:10585000E080F1806DE07AE0C8010E94D504F70194
:105860009183808360E17AE0C8010E9476058823F5
:10587000B1F0E091B412F091B512EE0FFF1F8091DC
:10588000A4129091A512E80FF91FE080F18060E169
:105890007AE0C8010E94D504F7019383828369E10D
:1058A0007AE0C8010E9476058823D9F0E091B4120D
:1058B000F091B512EE0FFF1F8091A4129091A512E6
:1058C000E80FF91FE080F18069E17AE0C8010E94E9
:1058D0002A05FC018081082E000C990BF7019583A5
:1058E000848364E27AE0C8010E9476058823A9F0E7
:1058F000E091B412F091B512EE0FFF1F8091A41247
:105900009091A512E80FF91FE080F18064E27AE03F
:10591000C8010E943205F70186836AE27AE0C80175
:105920000E9476058823B1F0E091B412F091B5128F
:10593000EE0FFF1F8091A4129091A512E80FF91F9E
:10594000E080F1806AE27AE0C8010E94D504F701A4
:105950009087878363E37AE0C8010E9476058823F5
:10596000B9F0E091B412F091B512EE0FFF1F8091E3
:10597000A4129091A512E80FF91FE080F18063E373
:105980007AE0C8010E94320590E0F7019287818792
:1059900060E47AE0C8010E9476058823D9F0E0919E
:1059A000B412F091B512EE0FFF1F8091A4129091E6
:1059B000A512E80FF91FE080F18060E47AE0C801E9
:1059C0000E942A05FC018081082E000C990BF7012A
:1059D000948783878091B4129091B5120196909329
:1059E000B5128093B4122091A8123091A912821797
:1059F000930791F46BE47AE0CE018C519F4FE2D291
:105A0000CE018C519F4F0E94EA40CE018C519F4F96
:105A100032D281E080939F12CB50DF4F0FB6F894C3
:105A2000DEBF0FBECDBFDF91CF911F910F91FF90D1
:105A3000EF9008952091A1122111F9CD0895CF92F0
:105A4000DF92EF92FF920F931F93CF93DF936C013E
:105A50007A018B01C0E0D0E0CE15DF0581F0D801DE
:105A60006D918D01D601ED91FC910190F081E02DB9
:105A7000C6011995892B11F02196EECF7E01C70141
:105A8000DF91CF911F910F91FF90EF90DF90CF901A
:105A90000895FC01538D448D252F30E0842F90E034
:105AA000821B930B541710F0CF9608950197089519
:105AB000FC01918D828D981761F0828DDF01A80F16
:105AC000B11D5D968C91928D9F5F9F73928F90E038
:105AD00008958FEF9FEF0895FC01918D828D9817A7
