:100000001AC2000049C2000047C2000045C20000F9
:1000100043C2000041C200003FC200003DC20000D8
:100020003BC200000C940A150C940A150C940A1596
:1000300033C2000031C200002FC200002DC20000F8
:100040002BC2000029C2000027C2000025C2000008
:1000500023C2000021C200001FC200000C94A14E68
:100060001BC200000C94734D0C944A4D15C2000045
:1000700013C2000011C200000FC200000DC2000038
:100080000BC2000009C2000007C2000005C2000048
:100090000C94204D0C94F74CFFC10000FDC10000F2
:1000A000FBC10000F9C10000F7C10000F5C100006C
:1000B000F3C10000F1C10000EFC10000EDC100007C
:1000C000EBC10000E9C10000E7C100000C94CE4C78
:1000D0000C94A54CE1C100000C947C4C0C94534C46
:1000E000DBC10000F32EED2E1B2FFB2EF82EA82EC9
:1000F000C52E6F2EB84DBB4DAA4DAE4DB44DF24D31
:10010000BF4DC34DC94DCD4DD14DD74DDB4DDF4D0D
:10011000F24DE54DE94DED4D00407A10F35A00A047
:10012000724E18090010A5D4E80000E876481700C0
:1001300000E40B54020000CA9A3B000000E1F50500
:10014000000080969800000040420F000000A0864A
:1001500001000000102700000000E803000000007C
:100160006400000000000A00000000000100000020
:1001700000002C76D888DC674F0823DFC1DFAE593A
:10018000E1B1B796E5E3E453C63AE651997696E8CD
:10019000E6C28426EB898C9B62ED407C6FFCEFBC51
:1001A0009C9F40F2BAA56FA5F490055A2AF75C937C
:1001B0006B6CF9676DC11BFCE0E40D47FEF520E6B2
:1001C000B500D0ED902E0300943577050080841E95
:1001D000080000204E0A000000C80C333333330FF0
:1001E000986E12831141EF8D2114893BE65516CF8D
:1001F000FEE6DB18D1844B381BF77C1D901DA4BB99
:10020000E424203284725E228100C9F124ECA1E54D
:100210003D27005EBCE2613FDD83C29C7E20A3FDE2
:100220001F419DC3217FFCA2401E5F01E3BD3E60D4
:1002300082DC237D9FC1421CFEA0E1BF5D0380DE06
:100240003C62BEE0025CDF81633D7C22C09E1D43B8
:10025000A1FF4618FAA427799BC584DA3866E5BB66
:100260005907DB856739BAE406581947A5FB782694
:10027000C49A653BD987045AB8E6A7F91B45C698C6
:100280007A24F8A6441A99C7257B3A6486D85B0578
:10029000E7B98CD2306EEDB3510F4E10F2AC2F7126
:1002A00093CD114FADF3702ECC92D38D6F31B2EC54
:1002B0000E50AFF1134DCE90722C6D33D18F0C5286
:1002C000B0EE326C8ED0530DEFB1F0AE4C1291CF38
:1002D0002D73CA947628ABF517490856B4EA6937E6
:1002E000D58B5709EBB536688AD495CB2977F4AA14
:1002F0004816E9B7550B88D6346A2B7597C94A1446
:10030000F6A8742AC896154BA9F7B6E80A54D789F7
:100310006B3500002200250028002B002E00310044
:10032000340002010000050108010B01000021005A
:10033000240027002A002D003000330001010000B6
:10034000040107010A0101021020200808102040C2
:100350001020408002010201080402010102040889
:100360001020408080402010080402018004020117
:100370008040201008040201080402010102040860
:10038000102040800102040810204080050505056A
:10039000070508080808020202020A0A08080404FD
:1003A000040401010101010101010303030303032B
:1003B0000303040707070C0C0C0C0C0C0C0C0202BA
:1003C000020206060606060606060B0B0B0B0B0BB7
:1003D0000B0B000020002300260029002C002F001A
:1003E00032000001000003010601090100000A0BB0
:1003F00002090C0D0E0807030401000000000000B4
:1004000000000000000000000000000000000000EC
:1004100000000000000000001211100000000000A9
:1004200000000000000000000000000000000000CC
:100430000000685B645B11241FBECFEFD1E2DEBF1A
:10044000CDBF00E00CBF1EE0A0E0B2E0E2E3F4EDBF
:1004500000E00BBF02C007900D92A437B107D9F797
:1004600023E1A4E7BEE001C01D92A332B207E1F789
:1004700012E0CAE1D2E000E006C021970109802F16
:10048000FE010E94FB65C931D10780E00807A9F78A
:100490000E9440500C94086AB3CD8BE0089583E02D
:1004A000089585E00895089580E0089508950895D9
:1004B00080E00895FC0126813781620F731F8481DB
:1004C00095818617970738F08281938177836683B9
:1004D000820F931F089580E090E00895FC01148638
:1004E000158616861786118615820895FC01768773
:1004F00065870895DC01ED91FC91068CF78DE02D68
:10050000199591E089270895862F089581E086271F
:10051000089521E0FC018485883008F020E0822FD6
:10052000089580E090E008950C94125E0C94125EA1
:100530000F931F93CF93DF938C01EB01FC0162813A
:10054000CE010E945C16F8016481CE0101960E94E2
:100550005C16F8016781CE0102960E945C16F801D4
:100560006085CE0103960E945C16F8016581CE017C
:100570000496DF91CF911F910F910C945C160F930D
:100580001F93CF93DF93EC018B01CB010E94801668
:1005900090E09B838A83C80101960E9480168C8319
:1005A000C80102960E9480168F83C80103960E949C
:1005B000801691E0811101C090E09887C8010496EF
:1005C0000E9480168D83DF91CF911F910F91089526
:1005D000CF93DF93EC018A819B810E94421F1D8291
:1005E000CE01DF91CF910C94921ECF93DF93EC015B
:1005F00060E08F810E94214E688581E068278F81AD
:100600000E94F34DCE01DF91CF910C94921E08957C
:10061000FC01A081B1818C918D3051F024F489507E
:100620008230B8F505C0803219F08F3219F0089584
:1006300011962CC011968C9111978A3219F08F3235
:10064000D1F008951196B183A083A081B181CD012D
:1006500001969183808311968C9111978823C9F01C
:100660008A3299F712968C9112978F3271F71396FE
:100670000DC08A3071F2A081B181CD0101969183C4
:10068000808311968C918111F4CF03C0B183A08334
:10069000C0CF08951F93CF93DF93EC01162FB8DFDF
:1006A000E881F9818081181305C03196F983E883C8
:1006B00081E001C080E0DF91CF911F910895EF921A
:1006C000FF920F931F93CF93DF938C01DC0114965D
:1006D000CD91DC911597EA80FB808E819F81E80E99
:1006E000F91EC801029694DFD8011296ED91FC9193
:1006F00013978081873291F1823281F190ED980FCA
:100700009A3060F0982F9F7D91549A3138F08B3257
:1007100029F093ED980F923008F061C0F801228122
:1007200033812F5F3F4F338322832E813F81A90185
:100730004F5F5F4F6C817D816417750740F06A8160
:100740007B81FB01E20FF31F5F834E838083D8011F
:100750001296ED91FC9113978081D0CF3196D801FC
:100760001396FC93EE931297D8011296ED91FC919B
:1007700013979081992399F19F012F5F3F4F139613
:100780003C932E931297891751F19C35A9F49181CE
:10079000A7E3B8E02C91222339F0921303C01196FD
:1007A0009C9102C01296F6CF9923C9F03296D801D7
:1007B0001396FC93EE9312972E813F81A9014F5F10
:1007C0005F4F6C817D816417750770F26A817B8150
:1007D000FB01E20FF31F5F834E839083C5CF8E81B1
:1007E0009F819C012F5F3F4F4C815D8142175307D2
:1007F00050F04A815B81FA01E80FF91F3F832E8395
:100800001082C70102C080E090E0DF91CF911F917C
:100810000F91FF90EF9008950F931F93CF93DF9365
:100820008C01FC01C081D181C130D10559F46281B4
:1008300073816115710531F082E498E00E940F67C1
:10084000892B39F02197229720F4F8018281938136
:1008500002C080E090E0DF91CF911F910F91089549
:100860008091800E81110BC010927D0E10927C0E33
:1008700010927F0E10927E0E81E08093800E8CE7A6
:100880009EE00895DB01109749F0ED91FC911197DE
:100890000190F081E02DBC01CD01199480E090E041
:1008A00008950895FC01808191818330910520F4A1
:1008B000019708F440C00BC08530910528F00597DA
:1008C00099F5628173812BC08281938108950280A2
:1008D000F381E02D309779F18081843779F18B3283
:1008E00029F08D3221F4319691E002C0319690E0EA
:1008F00060E070E04AE0819120ED280F2A3068F432
:10090000469F9001479F300D1124682F880F770B69
:1009100060537109620F731FEECF992391F08827FE
:100920009927861B970B0895628173818481958135
:100930000E94B36506C080E090E0089581E090E0F9
:100940000895CB0108950F931F93CF93DF938B01ED
:10095000FC01C281D381209759F06A817B81C80153
:100960000E940F67892B21F00990D881C02DF3CF09
:10097000CE01DF91CF911F910F910895E4CF08959B
:10098000FDDFFC01892B09F448C084819581833007
:10099000910520F4019708F440C00BC08530910503
:1009A00028F0059799F5668177812BC0868197811C
:1009B00008950680F781E02D309779F180818437A2
:1009C00079F18B3229F08D3221F4319691E002C019
:1009D000319690E060E070E04AE0819120ED280FD0
:1009E0002A3068F4469F9001479F300D1124B901C9
:1009F00060537109680F711D87FD7A95EECF9923B9
:100A000091F088279927861B970B08956681778137
:100A1000808591850E94B86506C080E090E00895C9
:100A200081E090E00895CB010895A8DF009711F0D0
:100A30000496F2CE80E090E00895A0DFFC01892BBF
:100A4000D9F1848195818330910518F40197A0F143
:100A500009C08530910520F0059739F5668123C0DE
:100A600066812DC00680F781E02D309729F18081C5
:100A7000843721F18B3229F08D3221F4319691E0C7
:100A800002C0319690E060E0219180ED820F8A30C3
:100A900040F4660F862F880F880F680F6053620F2F
:100AA000F3CF992361F061950AC0668177818085D3
:100AB00091850E94B86503C060E001C061E0862FA7
:100AC00008955CDF21E0892B09F420E0822F08954E
:100AD0000F931F93CF93DF938C01EB0167E478E0D2
:100AE000CE01EFDF882331F067E478E0CE01A5DFA7
:100AF000F80187836BE478E0CE01E3DF882371F0AF
:100B00006BE478E0CE013ADF009729F00496CADE64
:100B100021E0892B09F420E0F801208760E578E0E6
:100B2000CE01CFDF882331F060E578E0CE0185DFAC
:100B3000F8018583DF91CF911F910F9108950F9355
:100B40001F93CF93DF93EC018B01CB010E948016A2
:100B500090E099838883C80101960E94801690E0F6
:100B60009B838A83C80102960E94801690E09D8331
:100B70008C83C80103960E9480168E83C801049658
:100B80000E94801690E098878F83C80105960E9486
:100B9000801690E09A878987C80106960E94801681
:100BA00090E09C878B87DF91CF911F910F910895E3
:100BB000CF92DF92EF92FF920F931F93CF93DF9329
:100BC000CDB7DEB7C858D1090FB6F894DEBF0FBE57
:100BD000CDBF7C018B016A01BC01CE0183589F4FC0
:100BE0000E949946B8018E010F5F1F4FC8010E94F5
:100BF0009946960140E050E0B801CE018D579F4FD5
:100C00000E94AD46C8010E94F24560E57DE0CE013C
:100C10008B599F4F0E949946BE0163587F4FCE016A
:100C20008B599F4F0E94A94567E578E00E94924545
:100C3000BE016D577F4F0E94A9456AE578E00E948A
:100C40009245BC01C8010E949146C8010E94273606
:100C5000C8010E94F245CE018B599F4F0E94F24578
:100C6000809114121F928F9387E994E09F938F9342
:100C70001F930F930E942D67B801C7010E940F6751
:100C80000F900F900F900F900F900F90892B99F469
:100C900080912912882309F497C1BE016D577F4FB7
:100CA000CE018B599F4F0E949146CE018B599F4F89
:100CB0000E948A2B2AC0809114121F928F9387EB77
:100CC00094E09F938F931F930F930E942D67B80119
:100CD000C7010E940F670F900F900F900F900F9019
:100CE0000F90892BC1F480912A12882309F46CC1DA
:100CF000BE016D577F4FCE018B599F4F0E94914689
:100D0000CE018B599F4F0E949A2DCE018B599F4F38
:100D10000E94F24559C16CE578E0CE018B599F4F96
:100D20000E949946BE016B597F4FCE0183589F4F59
:100D30000E940A29F82ECE018B599F4F0E94F2453E
:100D4000FF2089F0BE016D577F4FCE018F589F4F16
:100D50000E949146CF57DF4F28813981C158D0403A
:100D600043E150E08FC06EE678E0CE018B599F4F93
:100D70000E949946BE016B597F4FCE0183589F4F09
:100D80000E940A29F82ECE018B599F4F0E94F245EE
:100D9000F1103FC06FE778E0CE018B599F4F0E9462
:100DA0009946BE016B597F4FCE0183589F4F0E94D9
:100DB0000A29F82ECE018B599F4F0E94F245FF2041
:100DC00089F0BE016D577F4FCE018F589F4F0E9413
:100DD0009146CF57DF4F28813981C158D04047E134
:100DE00050E050C065E978E0CE018B599F4F0E94DA
:100DF0009946BE016B597F4FCE0183589F4F0E9489
:100E00000A29F82ECE018B599F4F0E94F245FF20F0
:100E100089F0BE016D577F4FCE018F589F4F0E94C2
:100E20009146CF57DF4F28813981C158D04042E1E8
:100E300050E028C066EA78E0CE018B599F4F0E94AF
:100E40009946BE016B597F4FCE0183589F4F0E9438
:100E50000A29F82ECE018B599F4F0E94F245FF20A0
:100E600009F443C0BE016D577F4FCE018F589F4F8D
:100E70000E949146CF57DF4F28813981C158D04019
:100E800046E150E0BE0163587F4FCE0189589F4F25
:100E90000E94AD46BE016F587F4FCE0185599F4FCE
:100EA0000E949146BE0169587F4FCE018B599F4FDA
:100EB0000E949146BE0165597F4FCE018B599F4FCD
:100EC0000E947D29CE018B599F4F0E94F245CE0191
:100ED00085599F4F0E94F245CE0189589F4F0E942D
:100EE000F245CE018F589F4F13CF6BEB78E0CE01C8
:100EF0008B599F4F0E949946BE016B597F4FCE017F
:100F000083589F4F0E940A29F82ECE018B599F4F7C
:100F10000E94F245FF2009F457C0809114121F92DD
:100F20008F938BEB98E09F938F931F930F930E9467
:100F30002D676DEC78E0CE018B599F4F0E9499464A
:100F4000CE018B599F4F0E942736CE018B599F4F60
:100F50000E94F245B801CE018B599F4F0E949946DD
:100F6000BE016B597F4FCE0183589F4F0E940A29C3
:100F70000F900F900F900F900F900F908823D9F043
:100F8000C957DF4F88819981C758D040892B99F084
:100F9000CD57DF4FE881F981C358D0408081882345
:100FA00051F0309721F41092880EE8E8FEE011E04D
:100FB000808180330CF410E0CE018B599F4F0E944A
:100FC000F24511110E94AA1CCE018D579F4F0E941D
:100FD000F245CE0183589F4F0E94F245C857DF4F1C
:100FE0000FB6F894DEBF0FBECDBFDF91CF911F913A
:100FF0000F91FF90EF90DF90CF900895411551052C
:1010000009F0D6CD0895AF92BF92CF92DF92EF92C2
:10101000FF920F931F93CF93DF93CDB7DEB76897FF
:101020000FB6F894DEBF0FBECDBF8C010E94954E67
:101030006B017C01F801278130E0F901E451FC4F9C
:101040008491F901EA5BFC4FB490F901E457FC4F3D
:10105000A490AA2079F081110E949D4DEA2DF0E024
:10106000EE0FFF1FEE52FC4FA591B491EC91BE2202
:1010700021E009F420E0F801308584859585A68576
:10108000B7853213FCC00097A105B10591F5C48660
:10109000D586E686F786628173814AE0CE0107969F
:1010A0000E94F74563ED78E0CE0101960E949946D3
:1010B000BE01695F7F4FCE0101960E94A94563EE94
:1010C00078E00E949245BC01CE010D960E949146A7
:1010D000CE010D960E942736CE010D960E94F24554
:1010E000CE0101960E94F245CE0107960E94F2457C
:1010F0004AC1AC01BD014053584F6F4F7F4FC416DA
:10110000D506E606F706D8F1F8018285811132C0CE
:10111000628173814AE0CE0107960E94F74565EE31
:1011200078E0CE0101960E949946BE01695F7F4F2B
:10113000CE0101960E94A94563EE78E00E94924597
:10114000BC01CE010D960E949146CE010D960E94E3
:101150002736CE010D960E94F245CE0101960E94DF
:10116000F245CE0107960E94F24564E070E0C801A6
:101170000E94FA2881E0F8018287118604C1AC013F
:10118000BD0144545D4F6F4F7F4FC416D506E60630
:10119000F706B0F1F801818581112DC0628173815C
:1011A0004AE0CE0107960E94F7456BEE78E0CE014B
:1011B00001960E949946BE01695F7F4FCE0101965C
:1011C0000E94A94563EE78E00E949245BC01CE01E1
:1011D0000D960E949146CE010D960E942736CE01B3
:1011E0000D960E94F245CE0101960E94F245CE0175
:1011F00007960E94F245F801138681E08187C3C0FB
:1012000088589F4FAF4FBF4FC816D906EA06FB0656
:1012100008F4B9C0F801838581112DC06281738102
:101220004AE0CE0107960E94F7456AEF78E0CE01CA
:1012300001960E949946BE01695F7F4FCE010196DB
:101240000E94A94563EE78E00E949245BC01CE0160
:101250000D960E949146CE010D960E942736CE0132
:101260000D960E94F245CE0101960E94F245CE01F4
:1012700007960E94F24581E0F801838784C00097B9
:10128000A105B10509F47FC0B701A601481B590BA0
:101290006A0B7B0BCE010D960E94061CF801628141
:1012A00073814AE0CE0107960E94F7456DE079E030
:1012B000CE0101960E949946BE01695F7F4FCE0123
:1012C00001960E94A94566E179E00E949245BE011F
:1012D000635F7F4F0E94A945BC01CE0143960E94E7
:1012E0009146CE0143960E942736CE0143960E9436
:1012F000F245CE0101960E94F245CE0107960E946A
:10130000F245CE010D960E94F245F801848595853F
:10131000A685B7858C599F4FAF4FBF4FC816D906CA
:10132000EA06FB0678F465E279E0CE0101960E94B8
:101330009946CE0101960E942736CE0101960E9461
:10134000F2451CC0F801828581110BC0818588237C
:1013500019F062E070E002C061E070E0C8010E9434
:10136000FA28F801148615861686178611861386C4
:10137000128660E070E0C8010E94FA28F801148625
:1013800015861686178668960FB6F894DEBF0FBED0
:10139000CDBFDF91CF911F910F91FF90EF90DF9024
:1013A000CF90BF90AF900895CF92DF92EF92FF92CF
:1013B0000F931F93CF93DF93CDB7DEB72C970FB664
:1013C000F894DEBF0FBECDBF8C016B017A0161E4E2
:1013D00078E0CE0107960E949946C114D10429F005
:1013E000B601CE0107960E94C8456FEB77E0CE01AB
:1013F00007960E94BA45F801628173814AE0CE01E6
:1014000001960E94F745BE016F5F7F4FCE010796A0
:101410000E94C135CE0101960E94F24563E479E055
:10142000CE0107960E94BA45F8016481CE0101966B
:101430000E947946BE016F5F7F4FCE0107960E94E2
:10144000C135CE0101960E94F2456AE479E0CE01F1
:1014500007960E94BA45F801678170E04AE0CE0124
:1014600001960E94F745BE016F5F7F4FCE01079640
:101470000E94C135CE0101960E94F24560E579E0F7
:10148000CE0107960E94BA45F801608570E04AE0F7
:10149000CE0101960E94F745BE016F5F7F4FCE01DE
:1014A00007960E94C135CE0101960E94F24567E57C
:1014B00079E0CE0107960E94BA45F8018681811134
:1014C00003C06DE379E002C068E379E0CE010796DE
:1014D0000E94BA4566E679E0CE0107960E94BA45B9
:1014E000BE01695F7F4FCE0101960E949146BE0109
:1014F0006F5F7F4FC7010E94C835CE0101960E94E1
:10150000F245CE0107960E94F2452C960FB6F8944C
:10151000DEBF0FBECDBFDF91CF911F910F91FF9026
:10152000EF90DF90CF900895EF92FF920F931F936B
:10153000CF93DF93CDB7DEB7AA970FB6F894DEBF8F
:101540000FBECDBFFB01309709F4D5C024812234F2
:1015500009F0D1C061E070E0DC0115963C91258175
:10156000321711F060E070E08F017C014AE0CE019B
:1015700007960E94224661E070E0F7019085D8014D
:1015800018968C91981711F060E070E04AE0CE0157
:101590000D960E94224661E070E0F7019781D80124
:1015A00017968C91981711F060E070E04AE0CE0138
:1015B00043960E94224661E070E0F7019481D801D1
:1015C00014968C91981711F060E070E04AE0CE011B
:1015D00049960E94224661E070E0F7012281338142
:1015E000D80112968D919C9113972817390711F005
:1015F00060E070E04AE0CE014F960E94224669E624
:1016000079E0CE0185960E949946BE01615E7F4FCA
:10161000CE0185960E94A94563E279E00E94924539
:10162000BE01675E7F4F0E94A94563E279E00E9498
:101630009245BE016D5E7F4F0E94A94563E279E04D
:101640000E949245BE01635F7F4F0E94A94563E2FD
:1016500079E00E949245BE01695F7F4F0E94A945D3
:101660006AE578E00E949245BC01CE0101960E9495
:101670009146CE0101960E942736CE0101960E9426
:10168000F245CE0185960E94F245CE014F960E940A
:10169000F245CE0149960E94F245CE0143960E9442
:1016A000F245CE010D960E94F245CE0107960E94AA
:1016B000F245F70122813381D80112968D919C91D8
:1016C000139728173907B9F4948114968C911497BD
:1016D000981311C0978117968C91179798130BC088
:1016E000908518968C911897981305C0958115963A
:1016F0008C91981711F080E001C081E0AA960FB696
:10170000F894DEBF0FBECDBFDF91CF911F910F9137
:10171000FF90EF9008952091D00E90E0233311F4C4
:101720000C9601C04896982F990F990F990F80E059
:101730000895CF93DF931F92CDB7DEB76983DC01A5
:10174000ED91FC910280F381E02D41E050E0BE017B
:101750006F5F7F4F19950F90DF91CF910895FC0136
:10176000818D928D0895FC019485FB0184859813E9
:1017700003C081E0983008F080E00895FF920F9355
:101780001F93CF93DF931F921F92CDB7DEB7F82E32
:1017900022E030E0AE014F5F5F4F66E270E00E94F2
:1017A000544809811A8110270127102722E030E0D0
:1017B000AE014F5F5F4F66E270E08F2D0E9454488C
:1017C00089819A819827892798270817190711F086
:1017D0008C01ECCFC8010F900F90DF91CF911F913A
:1017E0000F91FF9008950F931F93CF93DF931F9254
:1017F0001F92CDB7DEB7FC0124852830E0F48C01C0
:10180000CE0101960E94DD3489819A810E9466484A
:1018100022E030E0AE014F5F5F4F60E170E0F80121
:1018200084850E94544809811A81102701271027B6
:101830000E94654802C000E010E0C8010F900F90C0
:10184000DF91CF911F910F9108950F931F93CF9325
:10185000DF931F921F92CDB7DEB7FC01248528309D
:10186000E0F48C01CE0101960E94DD3489819A81D9
:101870000E94664822E030E0AE014F5F5F4F64E0B7
:1018800070E0F80184850E94544809811A8110276C
:10189000012710270E94654802C000E010E0C8013F
:1018A0000F900F90DF91CF911F910F910895EF92BC
:1018B000FF920F931F93CF93DF9300D01F92CDB76A
:1018C000DEB78C017B01FB018485883050F08DEE02
:1018D00093E0F8019183808312821382148215822F
:1018E00022C0CE0101960E94DD3489819A810E9436
:1018F000664824E030E0AE014F5F5F4F6CE070E07F
:10190000F70184850E9454480E9465488DEE93E05B
:10191000F8019183808389819A81AB81BC81828324
:101920009383A483B583C8010F900F900F900F90FD
:10193000DF91CF911F910F91FF90EF900895AF929B
:10194000BF92CF92DF92EF92FF920F931F93CF93AC
:10195000DF93CDB7DEB7AF970FB6F894DEBF0FBEFB
:10196000CDBF8C015B016A01CE0101960E94EE435E
:101970008DEEE82E83E0F82EFBA6EAA61CA61DA697
:101980001EA61FA68091581190915911A0915A112D
:10199000B0915B118EA39FA3A8A7B9A78B839C834B
:1019A000AD83BE8318861F82AE01465D5F4FB501D1
:1019B000CE0101960E94914181309105B1F4D80188
:1019C000ED91FC910488F589E02DFDA2ECA28CA597
:1019D0009DA5AEA5BFA58EA39FA3A8A7B9A7A60145
:1019E000BE016C5D7F4FC8011995AF960FB6F89494
:1019F000DEBF0FBECDBFDF91CF911F910F91FF9042
:101A0000EF90DF90CF90BF90AF900895E091CE0E11
:101A1000F091CF0E90818091CD0E892B8083089517
:101A2000E091CE0EF091CF0E90818091CD0E8095F9
:101A3000892380830895CF93DF931F92CDB7DEB7BC
:101A400041E050E0BE016F5F7F4F80E090E00E9478
:101A5000FB4E89810F90DF91CF910895CF93DF9353
:101A60001F92CDB7DEB7898341E050E0BE016F5FC2
:101A70007F4F80E090E00E94864F0F90DF91CF91E2
:101A80000895CF93DF9380E8E9DFC4E1D0E0D3DFAE
:101A9000882351F061E070E080E090E00E945D4EAC
:101AA0002197A9F780E001C081E0DF91CF910895EF
:101AB0008EBD00000DB407FEFDCF8EB50895EF92E8
:101AC000FF921F93CF93DF931F921F92CDB7DEB784
:101AD000182F22E030E0AE014F5F5F4F60E270E010
:101AE0000E945448E980FA80FE24EF24FE2422E07C
:101AF00030E0AE014F5F5F4F60E270E0812F0E94E7
:101B0000544889819A81982789279827E816F906E9
:101B100011F07C01ECCF87E0189FF0011124E45311
:101B2000FD4EF582E482C7010F900F90DF91CF91B7
:101B30001F91FF90EF9008951F93CF93DF931F9213
:101B40001F92CDB7DEB7182FCE0101960E94DD346B
:101B500089819A810E946648812FDDDD27E0129FEE
:101B6000F0011124E453FD4E22813381377041E0AE
:101B700050E0BE016F5F7F4F820F931F0E94FB4EAC
:101B80000E94654889810F900F90DF91CF911F913E
:101B90000895FC01808D883038F4218D328D232BFF
:101BA00019F0CADF90E008958FEF9FEF0895EF924C
:101BB000FF920F931F93CF93DF931F921F92CDB786
:101BC000DEB7482F87E0489F90011124F901E453C4
:101BD000FD4E7F01808191810097B1F4142FCE01D9
:101BE00001960E94DD3489819A810E946648812F86
:101BF000C5DD8C010E946548F70186819801281B8C
:101C00003109C901318320830F900F90DF91CF916B
:101C10001F910F91FF90EF9008951F93CF93DF9343
:101C20001F921F92CDB7DEB7182FCE0101960E94EA
:101C3000DD3489819A810E94664868E070E0812FD6
:101C40000E94EB4E0E9465480F900F90DF91CF915C
:101C50001F9108951F93CF93DF931F921F92CDB7CB
:101C6000DEB7182FCE0101960E94DD3489819A815A
:101C70000E94664860E170E0812F0E94EB4E0E9456
:101C800065480F900F90DF91CF911F910895CF92EB
:101C9000DF92EF92FF920F931F93CF93DF9300D0C9
:101CA00000D0CDB7DEB78C016B017A01FC01808DCD
:101CB000883008F4CFDF8DEE93E09A838983F601B4
:101CC00082819381A481B5818B839C83AD83BE8304
:101CD000B701CE0101960E940E44F801808F883032
:101CE00030F4F586E486128E118E81E001C080E02A
:101CF00026960FB6F894DEBF0FBECDBFDF91CF9111
:101D00001F910F91FF90EF90DF90CF900895CF93A8
:101D1000DF93FC01808D883020F4EF019BDF88E0A9
:101D2000888FDF91CF910895DA019091D10EE92F3C
:101D3000F0E0FE2FEE27E60FF71F90E0982F8827A0
:101D4000A901BD018E0F9F1F0C94864F7F928F9229
:101D50009F92AF92BF92CF92DF92EF92FF920F933A
:101D60001F93CF93DF931F921F92CDB7DEB7782ECC
:101D70008B014A01590122E030E0AE014F5F5F4F15
:101D800064E270E00E945448E980FA80FE24EF2467
:101D9000FE24E00EF11E970137704091D00E072D02
:101DA00010E0C801433311F4089601C04096982F03
:101DB0008827990F990F990F820F931F473319F4B2
:101DC000A501B40120C0A9014A0D5B1D4130584056
:101DD000B8F360E078E06B01C21AD30AA601B4013F
:101DE0000E94864FA5014C195D09B4016C0D7D1D43
:101DF0008091D00E833331F5085F1F4F902F990FDC
:101E0000990F990F80E00E94864FEA0CFB1CF98223
:101E1000EA8222E030E0AE014F5F5F4F64E270E0A3
:101E2000872D82DF0F900F90DF91CF911F910F913F
:101E3000FF90EF90DF90CF90BF90AF909F908F90EA
:101E40007F900895005F1F4FD9CF7F928F929F920E
:101E5000AF92BF92CF92DF92EF92FF920F931F93B8
:101E6000CF93DF931F921F92CDB7DEB77C014B015A
:101E7000742EC52EFC01A688B788D08CCE010196A1
:101E80000E94DD3489819A810E9466488D2D17DE7B
:101E9000072D1C2D8017910708F48C019801A401CF
:101EA000B5018D2D53DF0E946548F701868997891A
:101EB000800F911F978B868BC8010F900F90DF9139
:101EC000CF911F910F91FF90EF90DF90CF90BF9037
:101ED000AF909F908F907F900895CF93DF931F9244
:101EE0001F92CDB7DEB779836A8322E030E0AE017E
:101EF0004F5F5F4F60E170E017DF0F900F90DF9151
:101F0000CF910895CF93DF931F921F92CDB7DEB785
:101F100079836A8322E030E0AE014F5F5F4F64E077
:101F200070E002DF0F900F90DF91CF910895DF9264
:101F3000EF92FF920F931F93CF93DF931F921F9205
:101F4000CDB7DEB7FB01DC0157961C921E92569767
:101F50002281211109C02381211106C02481211170
:101F600003C025812223F9F041155105E1F07A01E2
:101F70008F01FC01D08CCE0101960E94DD34898155
:101F80009A810E946648A8014E5F5F4F24E030E0CE
:101F90006CE070E08D2DC8DEB7018D2D9EDF0E94B4
:101FA000654881E001C080E090E00F900F90DF91E4
:101FB000CF911F910F91FF90EF90DF900895CF93F5
:101FC000DF931F92CDB7DEB79091D10E292F30E06D
:101FD000322F2227260F371F90E0982F882749831A
:101FE00041E050E0BE016F5F7F4F820F931F0E9460
:101FF000864F0F90DF91CF910895CF93DF931F927B
:10200000CDB7DEB79091D10E292F30E0322F2227A5
:10201000260F371F90E0982F882741E050E0BE013F
:102020006F5F7F4F820F931F0E94FB4E89810F903D
:10203000DF91CF9108958F929F92BF92CF92DF92BE
:10204000EF92FF920F931F93CF93DF93CDB7DEB73D
:102050002A970FB6F894DEBF0FBECDBF9091D00E79
:10206000992309F48EC0933319F028E0B22E02C0F0
:1020700094E0B92E6B01082FCE0101960E94DD3449
:1020800089819A810E9466489E012F5F3F4F7901A6
:10209000490110E063E070E0812FAFDFF40181932C
:1020A0004F018823C9F01F5FB112F4CF10E0F70190
:1020B00091917F019D3159F0983149F09A519230B8
:1020C00030F01F5FB112F3CF0E9465485AC060E143
:1020D00070E0812F0E94EB4EE12EF12C83EE93E015
:1020E0000197F1F7402F60E070E0812F68DF4FEF3C
:1020F00062E070E0812F63DFC114D10411F0B601FA
:1021000013C0809100029091010201968115F0ECBC
:102110009F0710F480E090EC9093010280930002FE
:102120006091000270910102812FECDE61E070E0AD
:10213000812F0E94EB4E27E02E9DC0012F9D900D18
:1021400011249C0124533D4E7901F9011182108222
:1021500022E030E0AE01475F5F4F68E270E0812F20
:102160000E94544889859A85982789279827F701DE
:10217000938382831682158214820E946548812F80
:1021800001C088E02A960FB6F894DEBF0FBECDBF1F
:10219000DF91CF911F910F91FF90EF90DF90CF9043
:1021A000BF909F908F9008950F931F93CF93DF93CD
:1021B000EC018B01888D883008F44CDDB80182E099
:1021C0003ADF888F883030F41D870C871A8E198E7D
:1021D00081E001C080E0DF91CF911F910F910895C0
:1021E000FF920F931F93CF93DF931F921F92CDB750
:1021F000DEB7F82ECE0101960E94DD3489819A81E6
:102200000E9466488F2D5BDC8C0163E070E08F2DAF
:10221000F4DEF82E0E94654887E1F81631F08CE173
:10222000F81619F080E090E001C0C8010F900F90FF
:10223000DF91CF911F910F91FF9008954F925F9280
:102240007F928F929F92AF92BF92CF92DF92EF9246
:10225000FF920F931F93CF93DF931F921F92CDB7DF
:10226000DEB7782E6B014A01A82EB12C27E0829FA1
:10227000C0011124AC0144535D4E7A01FA01008182
:102280001181CE0101960E94DD3489819A810E94DC
:102290006648081519054CF4872D70DAF701268178
:1022A0008C01021B11091183008301151105A1F492
:1022B00063E070E0872DA1DE843109F47DC08823BE
:1022C00009F47AC001E010E08C3111F400E010E074
:1022D00011950195110970C0801691060CF48401C6
:1022E00087E08A9DF0018B9DF00D1124E453FD4E93
:1022F000E280F380C114D10449F12701F7E05F22A5
:10230000872D09DA840D951D2091D00E273319F4FD
:10231000A801B60119C09801240D351D213038409F
:10232000B8F320E038E0490184189508A401B6010B
:102330000E94FB4E2601480C591C6801C818D90898
:10234000872DE9D9A601B2010E94FB4EE00EF11ED5
:1023500087E08A9DF0018B9DF00D1124E453FD4E22
:10236000F382E28280819181801B910B9183808333
:102370002681A801420F511D4A3F510510F4892BB7
:10238000D1F487E08A9DF0018B9DF00D1124E45378
:10239000FD4E1682F982EA8222E030E0AE014F5F04
:1023A0005F4F68E270E0872DBFDC60E470E0872D4E
:1023B0000E94EB4E01C046830E946548C8010F9001
:1023C0000F90DF91CF911F910F91FF90EF90DF90D1
:1023D000CF90BF90AF909F908F907F905F904F90E5
:1023E0000895CF93DF93FC01218D328D21153105A6
:1023F00019F48FEF9FEF10C0EC014217530708F05C
:10240000A901888D1BDF181619069CF7298D3A8DB6
:10241000281B390B3A8F298FDF91CF9108950F93A5
:102420001F93CF93DF931F92CDB7DEB7FC01218DB1
:10243000328D232B59F08C0141E050E0BE016F5FDB
:102440007F4F808DFBDE181619061CF08FEF9FEF73
:1024500008C0F801818D928D0197928F818F8981BB
:1024600090E00F90DF91CF911F910F9108950F93FE
:102470001F93CF93DF93CDB7DEB728970FB6F894AD
:10248000DEBF0FBECDBF8C01D80159964D915C9136
:102490005A974115510551F0ED91FC91048CF58D41
:1024A000E02D60E070E0C8011995EECFF801808D55
:1024B0007EDB892B49F148E050E0BE016F5F7F4F22
:1024C000D80158968C91BADE18161906FCF4D8017A
:1024D000509684E0FE01319601900D928A95E1F7C5
:1024E0008D8190E0982F88272E81820F911DF80111
:1024F000958B848B8F8190E0982F88272885820F79
:10250000911D928F818F02C080E090E028960FB6D7
:10251000F894DEBF0FBECDBFDF91CF911F910F9119
:1025200008951F93CF93DF931F921F92CDB7DEB70D
:10253000182FCE0101960E94DD3489819A810E9474
:10254000664863E070E0812F58DD182F0E946548CF
:10255000812F0F900F90DF91CF911F9108951F93BE
:10256000CF93DF931F921F92CDB7DEB7FC01108D82
:10257000CE0101960E94DD3489819A810E946648CD
:1025800060E270E0812F0E94EB4E62E070E0812FEC
:1025900034DD84FD1AC062E070E0812F2EDD83FF00
:1025A00009C048E162E070E0812F09DD0E946548C2
:1025B00080E013C00E946548CE0101960E94DD3480
:1025C00089819A810E946648E0CF40E162E070E034
:1025D000812FF5DC0E94654881E090E00F900F901C
:1025E000DF91CF911F91089508952091CB0E3091E6
:1025F000CC0E2817390771F49091CA0E8091C90E3C
:10260000981741F0E091CA0EF0E0E757F14F808152
:1026100090E008958FEF9FEF08951F93CF93DF937E
:10262000DC015C968D919C915D97009739F421E0D7
:1026300030E013963C932E9312973BC05196ED9148
:10264000FC91529750962C915097322F30951FB78E
:102650005E964C915E97742F727041FD6095F89470
:102660004081772311F0422B01C043234083EC01CA
:102670002197F1F748E0508160FF02C0522B01C062
:1026800053235083EC012197F1F76695415099F758
:102690008081772319F08323808302C0282B208335
:1026A0001FBF5C968D919C915D970197F1F781E03A
:1026B00090E0DF91CF911F9108952091CB0E309142
:1026C000CC0E2817390769F48091C90E2091CA0EE3
:1026D00090E0805C9F4F821B910960E470E00C9455
:1026E000E86580E090E008952091CB0E3091CC0E0B
:1026F00028173907B9F49091CA0E8091C90E98171E
:1027000089F0E091CA0EF0E0E757F14F8081209107
:10271000CA0E30E02F5F3F4F2F7333272093CA0E2E
:1027200090E008958FEF9FEF0895FB0122813381A0
:10273000FC0133832283FB012481FC01248308955F
:10274000FC01158208950C94125E0F931F93CF9392
:10275000DF938C01EB0167E478E0CE010E94610514
:10276000882339F067E478E0CE010E941D05F80166
:1027700087836BE478E0CE010E946105882381F0B5
:102780006BE478E0CE010E94BE04009731F004961D
:102790000E94520421E0892B09F420E0F8012087EF
:1027A00060E578E0CE010E946105882339F060E59C
:1027B00078E0CE010E941D05F8018583DF91CF915D
:1027C0001F910F9108950F931F93CF93DF938C0167
:1027D000EB016AE779E0CE010E946105882339F0B8
:1027E0006AE779E0CE010E941D05F801878361E860
:1027F00079E0CE010E946105882339F061E879E033
:10280000CE010E941D05F80180876AE879E0CE01BB
:102810000E946105882339F06AE879E0CE010E94C0
:102820001D05F801818763E979E0CE010E94610509
:10283000882381F063E979E0CE010E94BE0400970D
:1028400021F004960E94520402C080E090E0F8015A
:1028500093878287DF91CF911F910F910895613007
:10286000710529F050F06330710519F0089561E0A9
:1028700005C061E0FC012581211160E00C9425294F
:10288000CF93DF93EC0161E08F810E94214E61E0E4
:1028900070E08D81813011F060E070E0E881F981B5
:1028A0000288F389E02DCE01DF91CF9119948F92A8
:1028B0009F92AF92BF92CF92DF92EF92FF920F93CF
:1028C0001F93CF93DF938C017A01FC018581968160
:1028D0000E942F4A40E06EEBF801858196810E94AC
:1028E000FC49E7015701F9E0AF0EB11CF801858002
:1028F000968088E0C82ED12CF12CEE24E394C401FC
:102900000E94A9498111FE28EE0CF1E0CF1AD108EE
:10291000B1F7F992AC16BD0649F7F80185819681A9
:102920000E944C4A91E0813009F090E0892FDF91BC
:10293000CF911F910F91FF90EF90DF90CF90BF90BC
:10294000AF909F908F900895EF92FF920F931F93F7
:10295000CF93DF938C017B01EA01FC018581968195
:102960000E944C4A8823A9F0AE01B701C8019FDF3D
:10297000882379F0DE0189E0E0E0815039F09D9113
:10298000E927F0E0EE5EFD4FE491F7CF81E0988516
:102990009E1380E0DF91CF911F910F91FF90EF90F8
:1029A00008951F93CF93DF93FC01A081B18110970D
:1029B00059F1EC01ED91FC9111970688F789E02D12
:1029C000CD01199511E0811120C010E0FE01E556FE
:1029D000FF4F80819181892BC1F48DEF9FEF91830F
:1029E000808388819981DC01ED91FC910680F781DB
:1029F000E02D199588819981DC01ED91FC91048885
:102A0000F589E02D199501C010E0812FDF91CF915C
:102A10001F9108951F920F920FB60F9211240BB6BB
:102A20000F922F933F934F935F936F937F938F9367
:102A30009F93AF93BF93EF93FF93E091CB0EF091F1
:102A4000CC0E309709F451C0968DA685B785858543
:102A500091FF04C09C91892329F447C09C9189234C
:102A600009F043C0A389B4899C9185898095892305
:102A70008C93868997890197F1F7608D718DA68572
:102A8000B785558538E020E0CB010197F1F7822F1B
:102A900090E095958795282F4C91452309F0206863
:102AA000315091F7868D81FD20958091C90E90E07F
:102AB00001968F7399273091CA0E381749F0A0916B
:102AC000C90EB0E0A757B14F2C938093C90E03C035
:102AD000868D8160868F828D938D0197F1F7A38912
:102AE000B4899C918589892B8C93FF91EF91BF913B
:102AF000AF919F918F917F916F915F914F913F9196
:102B00002F910F900BBE0F900FBE0F901F90189536
:102B1000CF93DF93FC01828D938D892B31F1A091AE
:102B2000CB0EB091CC0EEA17FB07F9F0109751F0DD
:102B30005396CD91DC915497988155968C918095C0
:102B400089238883868D8E7F868F1092C90E10927E
:102B5000CA0EF093CC0EE093CB0EA389B4899C915E
:102B60008589892B8C9381E001C080E0DF91CF9132
:102B700008954F925F926F927F928F929F92AF9241
:102B8000BF92CF92DF92EF92FF920F931F93CF935A
:102B9000DF93CDB7DEB727970FB6F894DEBF0FBE31
:102BA000CDBF7C01062F6A01DC0112968C91129731
:102BB000882319F08D919C91ABDF0E94954E4B01BB
:102BC0005C0110E0173098F40E94954EDC01CB01B7
:102BD00088199909AA09BB09F701438054806580C7
:102BE000768084159505A605B70548F112C0173003
:102BF00081F42F81FE013196AE01495F5F4F80E085
:102C000090E03191830F911DE417F507D1F7281754
:102C100011F080E03AC089818013FBCFC114D10448
:102C200011F481E032C0DE011296F60196012B5FAD
:102C30003F4FE217F307A9F38D918193FACFF70184
:102C400080819181DC01ED91FC910084F185E02D82
:102C50001995181619060CF0B5CFD7018D919C91D6
:102C6000DC01ED91FC910284F385E02D1995811131
:102C700003C0112309F4A8CFE1E0F0E0EC0FFD1F41
:102C8000E10FF11D80831F5F9DCF27960FB6F8944B
:102C9000DEBF0FBECDBFDF91CF911F910F91FF908F
:102CA000EF90DF90CF90BF90AF909F908F907F90EC
:102CB0006F905F904F9008950C946C640F931F93E6
:102CC000CF93DF938C01EB01FC016281CE01F4DF35
:102CD000F8016481CE010196EFDFF8016781CE0132
:102CE0000296EADFF8016085CE010396E5DFF80180
:102CF0006581CE010496DF91CF911F910F91DCCFBA
:102D00000C9464640F931F93CF93DF93EC018B01BA
:102D1000CB01F6DF90E09B838A83C8010196F0DF48
:102D20008C83C8010296ECDF8F83C8010396E8DF2D
:102D300091E0811101C090E09887C8010496E0DF1E
:102D40008D83DF91CF911F910F9108950895CF92B8
:102D5000DF92EF92FF920F931F93CF93DF93CDB744
:102D6000DEB72C970FB6F894DEBF0FBECDBF8C0137
:102D70006B017A0161E478E0CE0107960E949946E2
:102D8000C114D10429F0B601CE0107960E94C845AE
:102D90006FEB77E0CE0107960E94BA45F801628199
:102DA00073814AE0CE0101960E94F745BE016F5F34
:102DB0007F4FCE0107960E94C135CE0101960E9439
:102DC000F24563E479E0CE0107960E94BA45F80126
:102DD0006481CE0101960E947946BE016F5F7F4FEC
:102DE000CE0107960E94C135CE0101960E94F245A0
:102DF0006AE979E0CE0107960E94BA45F80165813B
:102E000070E04AE0CE0101960E94F745BE016F5F77
:102E10007F4FCE0107960E94C135CE0101960E94D8
:102E2000F24567E579E0CE0107960E94BA45F801C0
:102E30008681811103C06DE379E002C068E379E027
:102E4000CE0107960E94BA4566E679E0CE01079664
:102E50000E94BA45BE01695F7F4FCE0101960E9474
:102E60009146BE016F5F7F4FC7010E94C835CE01FA
:102E700001960E94F245CE0107960E94F2452C96DB
:102E80000FB6F894DEBF0FBECDBFDF91CF911F917B
:102E90000F91FF90EF90DF90CF900895CF92DF9247
:102EA000EF92FF920F931F93CF93DF93CDB7DEB7CF
:102EB0002C970FB6F894DEBF0FBECDBF8C016B010F
:102EC0007A0161E478E0CE0107960E949946C11428
:102ED000D10429F0B601CE0107960E94C8456FEBD8
:102EE00077E0CE0107960E94BA45F80162817381AE
:102EF0004AE0CE0101960E94F745BE016F5F7F4F09
:102F0000CE0107960E94C135CE0101960E94F2457E
:102F100063E479E0CE0107960E94BA45F801648126
:102F2000CE0101960E947946BE016F5F7F4FCE01B0
:102F300007960E94C135CE0101960E94F2456AE4CF
:102F400079E0CE0107960E94BA45F801678170E0EA
:102F50004AE0CE0101960E94F745BE016F5F7F4FA8
:102F6000CE0107960E94C135CE0101960E94F2451E
:102F700060E579E0CE0107960E94BA45F8016085C8
:102F800070E04AE0CE0101960E94F745BE016F5FF6
:102F90007F4FCE0107960E94C135CE0101960E9457
:102FA000F2456AE979E0CE0107960E94BA45F80138
:102FB000658170E04AE0CE0101960E94F745BE01AE
:102FC0006F5F7F4FCE0107960E94C135CE010196FB
:102FD0000E94F24567E579E0CE0107960E94BA4566
:102FE000F8018681811103C06DE379E002C068E3D6
:102FF00079E0CE0107960E94BA4566E679E0CE01F7
:1030000007960E94BA45BE01695F7F4FCE010196C7
:103010000E949146BE016F5F7F4FC7010E94C83575
:10302000CE0101960E94F245CE0107960E94F2451C
:103030002C960FB6F894DEBF0FBECDBFDF91CF91B7
:103040001F910F91FF90EF90DF90CF900895CF9256
:10305000DF92EF92FF920F931F93CF93DF93CDB741
:10306000DEB72C970FB6F894DEBF0FBECDBF8C0134
:103070006B017A0161E478E0CE0107960E949946DF
:10308000C114D10429F0B601CE0107960E94C845AB
:103090006FEB77E0CE0107960E94BA45F801628196
:1030A00073814AE0CE0101960E94F745BE016F5F31
:1030B0007F4FCE0107960E94C135CE0101960E9436
:1030C000F24563E479E0CE0107960E94BA45F80123
:1030D0006481CE0101960E947946BE016F5F7F4FE9
:1030E000CE0107960E94C135CE0101960E94F2459D
:1030F00063EA79E0CE0107960E94BA454AE061E0B2
:1031000070E0CE0101960E94F745BE016F5F7F4FD0
:10311000CE0107960E94C135CE0101960E94F2456C
:103120006CEA79E0CE0107960E94BA45F801608505
:1031300070E04AE0CE0101960E94F745BE016F5F44
:103140007F4FCE0107960E94C135CE0101960E94A5
:10315000F24567EB79E0CE0107960E94BA45F80187
:10316000618570E04AE0CE0101960E94F745BE01FC
:103170006F5F7F4FCE0107960E94C135CE01019649
:103180000E94F24562EC79E0CE0107960E94BA45B2
:10319000F801628573854AE0CE0101960E94F745E9
:1031A000BE016F5F7F4FCE0107960E94C135CE01F1
:1031B00001960E94F24567E579E0CE0107960E94EC
:1031C000BA45F8018681811103C06DE379E002C040
:1031D00068E379E0CE0107960E94BA4566E679E099
:1031E000CE0107960E94BA45BE01695F7F4FCE01AE
:1031F00001960E949146BE016F5F7F4FC7010E94FA
:10320000C835CE0101960E94F245CE0107960E9474
:10321000F2452C960FB6F894DEBF0FBECDBFDF91FE
:10322000CF911F910F91FF90EF90DF90CF90089575
:10323000EF92FF920F931F93CF93DF93CDB7DEB73B
:10324000AA970FB6F894DEBF0FBECDBFFB01309733
:1032500009F4D5C02481223509F0D1C061E070E0C5
:10326000DC0115963C912581321711F060E070E089
:103270008F017C014AE0CE0107960E94224661E060
:1032800070E0F7019085D80118968C91981711F08D
:1032900060E070E04AE0CE010D960E94224661E0B7
:1032A00070E0F7019781D80117968C91981711F06B
:1032B00060E070E04AE0CE0143960E94224661E061
:1032C00070E0F7019481D80114968C91981711F051
:1032D00060E070E04AE0CE0149960E94224661E03B
:1032E00070E0F70122813381D80112968D919C9173
:1032F00013972817390711F060E070E04AE0CE011B
:103300004F960E9422466BEC79E0CE0185960E9492
:103310009946BE01615E7F4FCE0185960E94A94508
:1033200063E279E00E949245BE01675E7F4F0E9492
:10333000A94563E279E00E949245BE016D5E7F4F30
:103340000E94A94563E279E00E949245BE01635F55
:103350007F4F0E94A94563E279E00E949245BE0139
:10336000695F7F4F0E94A9456AE578E00E94924517
:10337000BC01CE0101960E949146CE0101960E94A9
:103380002736CE0101960E94F245CE0185960E9415
:10339000F245CE014F960E94F245CE0149960E9419
:1033A000F245CE0143960E94F245CE010D960E9451
:1033B000F245CE0107960E94F245F7012281338142
:1033C000D80112968D919C91139728173907B9F45B
:1033D000948114968C911497981311C09781179625
:1033E0008C91179798130BC0908518968C9118970D
:1033F000981305C0958115968C91981711F080E06F
:1034000001C081E0AA960FB6F894DEBF0FBECDBF13
:10341000DF91CF911F910F91FF90EF9008950F933F
:103420001F93CF93DF93CDB7DEB7A2970FB6F89473
:10343000DEBF0FBECDBF8C01CB01BA01F8011182F6
:10344000108213821282158214822AE0AE014F5F2D
:103450005F4F0E948360BE016F5F7F4FC8010E9473
:10346000C845A2960FB6F894DEBF0FBECDBFDF9160
:10347000CF911F910F910895CF92DF92EF92FF921B
:103480000F931F93CF93DF93CDB7DEB7C654D10907
:103490000FB6F894DEBF0FBECDBFFC0182819381D1
:1034A000A481B58123968CAF9DAFAEAFBFAF2397FC
:1034B00021E023962FAF239723964CAD5DAD6EADE3
:1034C0007FAD23974BAB5CAB6DAB7EAB89AF9AAF57
:1034D000ABAFBCAF8DA79EA7AFA7B8AB28AB4DA530
:1034E0005EA56FA578A94FA358A769A77AA72EABA9
:1034F0004BA95CA96DA97EA949A35AA36BA37CA380
:103500008B8F9C8FAD8FBE8F4DEE53E05C8B4B8BC2
:103510003FEF3D8B3E8B3F8B188E5E874D872AA7F2
:10352000CFA0D8A4E9A4FAA4CF86D88AE98AFA8AD7
:103530002CA309A11AA12BA13CA109871A872B87CB
:103540003C875A8349838B839C83AD83BE83809160
:10355000D30E81110DC160E372E080E090E00E9423
:103560005D4E1FB7F8948091D20E811127C0E1EC17
:10357000F3E08491EBE7F3E09491E82FF0E0EE0FB5
:10358000FF1FE45DFC4FA591B491EC91E92321F478
:1035900061E085E30E94F34D61E085E30E94214EE6
:1035A0008CB580618CBD8CB580648CBD61E084E39A
:1035B0000E94214E61E083E30E94214E8091D20E51
:1035C0008F5F8093D20E1FBFE6E9F3E0E491F0E055
:1035D000EE0FFF1FEE5EFC4F859194919093CF0EFE
:1035E0008093CE0EE0E5F3E0E491E093CD0E61E050
:1035F0008AE00E94214E0E94060DCE018D5B9F4FF6
:103600000E94DD3425968EAD9FAD25970E946648B9
:1036100084E38093D00E0E94410D882319F188E045
:103620000E942E0D0E941B0D8830E1F480E10E9463
:103630002E0D0E941B0D8031A9F480E00E942E0DFA
:103640000E941B0D81110EC041E050E0BE016D5B78
:103650007F4F8FE190E00E94FB4E24968FAD249720
:103660008330A1F187E38093D00E0E94410D88231F
:1036700009F440C088E00E942E0D0E941B0D883086
:10368000C9F580E10E942E0D0E941B0D182F80317C
:1036900089F580E00E942E0D0E941B0D81112AC029
:1036A00041E050E0BE016D5B7F4F89E390E00E94F6
:1036B000FB4E24968FAD24978430E1F41093D10E05
:1036C0000E94654881E08093D30E52C080E48093CD
:1036D000D10E10E042E06EE170E0812F0E94DF0F1A
:1036E00042E06FE170E0812F0E94DF0F1F5F183012
:1036F00089F7E6CF83E38093D00E0E94410D8823A3
:1037000091F180E10E942E0D0E941B0D803159F530
:1037100082E10E942E0D0E941B0D823121F580E076
:103720000E942E0D0E941B0D81111DC084E080930C
:10373000D10E15E527961FAF279741E050E0BE0157
:103740006A5B7F4F8BE190E00E94864F26961FAF09
:10375000269741E050E0BE016B5B7F4F8AE190E02D
:103760000E94864FADCF1092D00E0E9465483EC099
:10377000CE018D5B9F4F0E94DD3425968EAD9FADAF
:1037800025970E94664846E050E06BE172E189E0CF
:1037900090E00E94864F44E050E0BE016D5F7F4F95
:1037A0008FE090E00E94864F44E050E0BE01615FF0
:1037B0007F4F81E090E00E94864F44E050E0BE01E0
:1037C0006B5E7F4F85E090E00E94864F0E946548C7
:1037D00081E08C8789859A85AB85BC85809358115B
:1037E00090935911A0935A11B0935B11CA5BDF4FAC
:1037F0000FB6F894DEBF0FBECDBFDF91CF911F9102
:103800000F91FF90EF90DF90CF9008950F931F934B
:10381000CF93DF93CDB7DEB7A1970FB6F894DEBF95
:103820000FBECDBF8C01CB01BA01F801118210820D
:1038300013821282158214822AE0AE014F5F5F4F1D
:103840000E94A660BE016F5F7F4FC8010E94C845FD
:10385000A1960FB6F894DEBF0FBECDBFDF91CF911A
:103860001F910F910895EF92FF920F931F93CF93A3
:10387000DF93CDB7DEB727970FB6F894DEBF0FBE44
:10388000CDBF8C01FB01498382818A8383818B8335
:1038900084818C8385818D831E82FE0131969E01F9
:1038A000295F3F4F80E090E07F014191840F911D9F
:1038B000E217F307D1F78F83D8018D919C91DC013A
:1038C000ED91FC910084F185E02D1995F801A0811E
:1038D000B181ED91FC911197892B31F00284F38530
:1038E000E02DCD011995E8CF0280F381E02D47E06E
:1038F00050E0B701CD01199527960FB6F894DEBFB9
:103900000FBECDBFDF91CF911F910F91FF90EF9030
:103910000895A0912B12B0912C121097B9F020911C
:103920002712222399F040912F125091301220E05B
:1039300030E02417350754F4ED91FD9162817381D5
:103940006817790729F02F5F3F4FF3CFE0E0F0E0F1
:10395000CF010895CF93DF9300D000D0CDB7DEB76D
:103960006AED79E0CE0101960E949946CE0101965A
:103970000E942736CE0101960E94F24560E777E16A
:1039800080E090E00E945D4E98E288E10FB6F894E6
:10399000A895809360000FBE9093600026960FB6A6
:1039A000F894DEBF0FBECDBFDF91CF910895FF9297
:1039B0000F931F93CF93DF93CDB7DEB762970FB608
:1039C000F894DEBF0FBECDBFF82E82E4F81224C0FB
:1039D00080E190E00E947A5D8C0180E1F801119213
:1039E0008A95E9F7F80116828BEB92E09183808348
:1039F0000115110579F464EE79E0CE0101960E947B
:103A00009946CE0101960E944536CE0101960E944C
:103A1000F245A0DF82E4D7C0F2E5FF1224C089E0BE
:103A200090E00E947A5D8C0189E0F80111928A95FC
:103A3000E9F7F80116828BED92E0918380830115FE
:103A4000110579F46DEF79E0CE0101960E94994657
:103A5000CE0101960E944536CE0101960E94F245A4
:103A600079DF82E5B0C0F1E3FF1224C082E190E08B
:103A70000E947A5D8C0182E1F80111928A95E9F742
:103A8000F80116828BE992E091838083011511057C
:103A900079F465E17AE0CE0101960E949946CE0163
:103AA00001960E944536CE0101960E94F24552DFF2
:103AB00081E389C0F4E5FF1229C087E190E00E940C
:103AC0007A5D8C0187E1F80111928A95E9F7F80196
:103AD0001682108A138A148A158A168A89E792E058
:103AE000918380830115110579F463E37AE0CE01B7
:103AF00001960E949946CE0101960E944536CE015C
:103B000001960E94F24526DF84E55DC0F0E5FF16D0
:103B100051F16F2DCE0107960E94794669E57AE052
:103B2000CE010D960E949946BE01695F7F4FCE017E
:103B30000D960E94A945BC01CE0101960E949146B6
:103B4000CE0101960E942736CE0101960E94F245D1
:103B5000CE010D960E94F245CE0107960E94F245D5
:103B600000E010E036C084E190E00E947A5D8C01B4
:103B7000FC01168287E392E091838083178210868E
:103B8000118681E090E093878287158614868DEEFA
:103B900093E0978786878AE0808B818B828B838BEB
:103BA0000115110579F464E77AE0CE0101960E94CF
:103BB0009946CE0101960E944536CE0101960E949B
:103BC000F245C8DE80E5F80184830115110509F48A
:103BD000A0CFC80162960FB6F894DEBF0FBECDBF6E
:103BE000DF91CF911F910F91FF900895EF92FF9277
:103BF0000F931F93CF93DF93CDB7DEB762970FB6C6
:103C0000F894DEBF0FBECDBF082F80912B1290918C
:103C10002C12892B09F443C062E97AE0CE010196A7
:103C20000E949946CE0101960E942736CE01019648
:103C30000E94F245E12CF12C80912F1290913012CC
:103C4000E816F90634F56BE97AE0CE0101960E9498
:103C50009946CE0101960E942736CE0101960E9418
:103C6000F245E0912B12F0912C12C701880F991F99
:103C7000E80FF91F80819181009739F0DC01ED9107
:103C8000FC910688F789E02D1995BFEFEB1AFB0A26
:103C9000D3CF80912B1290912C120E94125E4AE099
:103CA000602FCE0107960E944D4664EA7AE0CE016D
:103CB0000D960E949946BE01695F7F4FCE010D9619
:103CC0000E94A945BC01CE0101960E949146CE01F9
:103CD00001960E942736CE0101960E94F245CE0140
:103CE0000D960E94F245CE0107960E94F24510E023
:103CF000C801880F991F0E947A5D90932C128093BF
:103D00002B121093301200932F1262960FB6F89474
:103D1000DEBF0FBECDBFDF91CF911F910F91FF90FE
:103D2000EF900895EF92FF920F931F93CF93DF933D
:103D3000CDB7DEB7CE5CD1090FB6F894DEBF0FBEAB
:103D4000CDBF8C0182E691E10E94D114882309F451
:103D50008BC0F8018681882301F18481803519F4B4
:103D6000C8012BD381C0823509F44BC040F48133A4
:103D700071F0823409F078C02CE538E044C0843515
:103D800049F0823609F070C022EB3AE03CC02FE7E0
:103D900038E039C025E938E036C0F8016281738126
:103DA0004AE0CE018B599F4F0E94F7456CEC7AE0B8
:103DB000CE0187539F4F0E949946BE016B597F4F9A
:103DC000CE0187539F4F0E94A9456AED7AE00E9479
:103DD0009245BC01CE0101960E949146CE0101960A
:103DE0000E942736CE0101960E94F245CE018753EC
:103DF0009F4F0E94F245CE018B599F4F0E94F24582
:103E000033C02EE638E0F80193819F9392819F930F
:103E10001F928F938EEE9AE09F938F933F932F93F1
:103E200080EF9AE09F938F937E01F5E6EF0EF11CF1
:103E3000FF92EF920E942D67F80185811F928F9368
:103E40008BEF9AE09F938F938E010F5F1F4F1F930D
:103E50000F930E942D67B801C7010E9418390FB651
:103E6000F894DEBF0FBECDBFC253DF4F0FB6F8943C
:103E7000DEBF0FBECDBFDF91CF911F910F91FF909D
:103E8000EF9008953F924F925F926F927F928F9240
:103E90009F92AF92BF92CF92DF92EF92FF920F93D9
:103EA0001F93CF93DF93CDB7DEB762970FB6F89429
:103EB000DEBF0FBECDBF5C01562EC12CD12C97E0CA
:103EC000392E27E1622E22E0722E44244394809101
:103ED000311290913212C816D9060CF000C1860139
:103EE000000F111FE0912D12F0912E12E00FF11F23
:103EF00080819181DC0112962D913C9113972A15B6
:103F00003B0509F0E8C016962C912511E4C06EEF30
:103F10007AE00E94603AC501FCDC009709F4A4C075
:103F2000DC01ED91FC91008CF18DE02D45E050E03D
:103F300066E07BE01995E0912D12F0912E12E00FD2
:103F4000F11F80809180F40187819085E2DC7C0103
:103F5000009731F1DC01ED91FC91008CF18DE02DA9
:103F600045E050E06EE07BE0199580912D12909134
:103F70002E12FC01E00FF11F0190F081E02D8385EE
:103F800094858235910509F0A6C061857285D701B7
:103F9000ED91FC910288F389E02DC70119959BC032
:103FA000F401608171814AE0CE0107960E94F745D5
:103FB00063E97DE0CE010D960E949946BE01695FDE
:103FC0007F4FCE010D960E94A94567E17BE00E94DC
:103FD0009245BC01CE0101960E949146CE01019608
:103FE0000E944536CE0101960E94F245CE010D9603
:103FF0000E94F245CE0107960E94F24587E090E0CC
:104000000E947A5D7C01DC01E32D1D92EA95E9F7BF
:10401000DC016D927C92E0912D12F0912E120E0F28
:104020001F1FF801A081B18117968D919C9118975F
:10403000F701938382831B968C918483D801ED9141
:10404000FC918185F70185834682C7016BDEE1140F
:10405000F10409F440C0D701ED91FC910688F7897D
:10406000E02DC701199537C080912D1290912E1225
:10407000FC01E00FF11F0190F081E02D6081718162
:104080004AE0CE0107960E94F74563E97DE0CE0144
:104090000D960E949946BE01695F7F4FCE010D9635
:1040A0000E94A9456AE27BE00E949245BC01CE01D4
:1040B00001960E949146CE0101960E944536CE019E
:1040C00001960E94F245CE010D960E94F245CE0166
:1040D00007960E94F245BFEFCB1ADB0AF8CE629634
:1040E0000FB6F894DEBF0FBECDBFDF91CF911F9109
:1040F0000F91FF90EF90DF90CF90BF90AF909F9087
:104100008F907F906F905F904F903F9008950895AB
:1041100087E00895FF920F931F93CF93DF938C0155
:10412000EB01FC016281CE010E945C16F801648102
:10413000CE0101960E945C16F8016781CE010296BD
:104140000E945C16F8016085CE0103960E945C1601
:10415000F8016185CE0104960E945C16F801F28494
:104160006385CE0105960E945C166F2DCE010696E2
:10417000DF91CF911F910F91FF900C945C16EF92FD
:10418000FF920F931F93CF93DF938C01EB01FC0100
:104190006281CE010E945C16F8016481CE01019615
:1041A0000E945C16F8016781CE0102960E945C169F
:1041B000085F1F4F7E01F3E0EF0EF11C2B96F80114
:1041C00061918F01C7010E945C16FFEFEF1AFF0A91
:1041D000EC16FD06A1F7DF91CF911F910F91FF9093
:1041E000EF900895FF920F931F93CF93DF93EC010D
:1041F0008B01CB010E94801690E09B838A83C801CB
:1042000001960E9480168C83C80102960E94801637
:104210008F83C80103960E9480168887C801049680
:104220000E9480168987C80105960E948016F82E84
:10423000C80106960E9480162F2D30E0322F2227CB
:10424000280F311D3B872A87DF91CF911F910F9156
:10425000FF900895EF92FF920F931F93CF93DF93F8
:104260008C01EB01CB010E94801690E0F801938352
:104270008283CE0101960E948016F8018483CE01CC
:1042800002960E948016F80187837E01F3E0EF0E0C
:10429000F11C085F1F4F2B96C7010E948016F80182
:1042A00081938F01FFEFEF1AFF0AEC16FD06A1F7CD
:1042B000DF91CF911F910F91FF90EF9008950C9493
:1042C000125E0C94125EAF92BF92CF92DF92EF9289
:1042D000FF920F931F93CF93DF93CDB7DEB7C456F2
:1042E000D1090FB6F894DEBF0FBECDBF7B015A01D6
:1042F0009F938F931F9280E58F930EEE1AE01F938A
:104300000F9386EA98E09F938F9380EF9AE09F93B4
:104310008F93CE0101966C019F938F930E942D671E
:104320000FB6F894DEBF0FBECDBFF1E0AF16B104FB
:10433000B9F078F092E0A916B104C9F0E3E0AE1646
:10434000B10439F51F930F93DF92CF928FE59BE075
:1043500014C01F930F93DF92CF928DE39BE00DC0AB
:104360001F930F93DF92CF9289E49BE006C01F93C7
:104370000F93DF92CF9285E59BE09F938F93FF92FF
:10438000EF920E942D670FB6F894DEBF0FBECDBF2F
:1043900002C0F7011082CC59DF4F0FB6F894DEBF90
:1043A0000FBECDBFDF91CF911F910F91FF90EF9086
:1043B000DF90CF90BF90AF9008954F925F926F9231
:1043C0007F928F929F92AF92BF92EF92FF920F9344
:1043D0001F93CF93DF93CDB7DEB7CD5CD1090FB676
:1043E000F894DEBF0FBECDBF7C01FC0104851585AE
:1043F0000115110509F442C040EBBC01625F7F4F1B
:10440000C80131DAAE014F5F5F4F60EAC8010E9418
:10441000B915882321F1698170E0762F66278A819A
:10442000680F711D072E000C880B990B0E945163B9
:104430004B015C016B8170E080E090E00E94516371
:1044400020E030E040E251E40E944B659B01AC016A
:10445000C501B4010E94E7644B015C0106C0812CD8
:10446000912CF0E8AF2EFFEBBF2E20E030E0A90149
:10447000C501B4010E944B6318161CF0812C912CCD
:1044800054018E010B591F4F22E046E0C501B401D3
:104490000E945B5D40E050E0BE016F5F7F4FF7011F
:1044A0008281938110DFB801CE0101960E941839F4
:1044B000F701048515850115110509F45AC06285B7
:1044C0007385072E000C880B990B0E9451634B01DA
:1044D0005C0141EBB701625F7F4FC801C4D9AE01F7
:1044E00047535F4F61EAC8010E94B915882381F1E3
:1044F000C753DF4F6881C95CD04070E0762F6627D4
:10450000C653DF4F8881CA5CD040680F711D072EEB
:10451000000C880B990B0E9451632B013C01C55381
:10452000DF4F6881CB5CD04070E080E090E00E947B
:10453000516320E030E048EC52E40E944B659B015F
:10454000AC01C301B2010E94E7649B01AC0104C04D
:1045500020E030E040E85FEBC501B4010E94B063A9
:104560004B015C0120E030E0A9010E944B6318166A
:104570001CF0812C912C54018E010B591F4F22E00D
:1045800046E0C501B4010E945B5D41E050E0BE0120
:104590006F5F7F4FF7018281938195DEB801CE0175
:1045A00001960E941839F70104851585011511053A
:1045B00009F442C062857385072E000C880B990BA5
:1045C0000E9451634B015C0142EBB701625F7F4F78
:1045D000C80149D9AE0147535F4F62EAC8010E9442
:1045E000B9158823C1F0C753DF4F6881C95CD0403B
:1045F00070E0762F6627C653DF4F8881CA5CD040B3
:10460000680F711D072E000C880B990B0E945163D7
:104610009B01AC0104C020E030E040E85FEBC50145
:10462000B4010E94B0634B015C0120E030E0A901BD
:104630000E944B6318161CF0812C912C54018E01A2
:104640000B591F4F22E046E0C501B4010E945B5D9B
:1046500042E050E0BE016F5F7F4FF701828193819E
:1046600032DEB801CE0101960E941839F7010485A7
:1046700015850115110509F469C062857385072E3A
:10468000000C880B990B0E9451634B015C0143EBBA
:10469000B701625F7F4FC801E6D8AE0147535F4F55
:1046A00063EAC8010E94B915882341F1C753DF4F5F
:1046B0006881C95CD040862F90E0A0E0B0E0DC01CA
:1046C00099278827C553DF4F2881CB5CD040820FC4
:1046D000911DA11DB11DC653DF4F2881CA5CD0407A
:1046E00030E0322F2227BC01CD01620F731F811DE4
:1046F000911D0E944F639B01AC0104C020E030E09B
:1047000040E85FEBC501B4010E94B0634B015C015E
:1047100020E030E0A9010E94E4651816BCF48E0187
:104720000B591F4F22E046E0C501B4010E945B5DBA
:1047300043E050E0BE016F5F7F4FF70182819381BC
:10474000C2DDB801CE0101960E941839C353DF4F74
:104750000FB6F894DEBF0FBECDBFDF91CF911F9192
:104760000F91FF90EF90BF90AF909F908F907F90B0
:104770006F905F904F900895089508954F925F92C3
:104780006F927F92AF92BF92CF92DF92EF92FF92A1
:104790000F931F93CF93DF9300D000D0CDB7DEB738
:1047A0007C01DC0117968C91882309F47DC082304E
:1047B00099F08330B9F0813091F06AE67BE0CE0168
:1047C00001960E949946CE0101960E942736CE019D
:1047D00001960E94F2457AC10FE71FE005C00CE187
:1047E00010E102C002EE1EE00115110509F46EC1D0
:1047F00087E090E00E947A5DFC0188EE93E0A0E003
:10480000B0E083839483A583B683D80150962D911D
:104810003C91519782E0D9018C93D8011C968D91DF
:104820009C911D97DC011C92D8011E962D913C9104
:104830001F978FECD9018C93D80158961C925897EA
:1048400054962D913C91559786E0D9018C93D801CF
:1048500052962D913C915397D9018C9180618C9304
:10486000D80152962D913C915397D9018C91886033
:104870008C93D80152962D913C915397D9018C91EC
:1048800080688C93D80152962D913C915397D90111
:104890008C918F7D8C93118300831282D7011D969A
:1048A000FC93EE931C9712C1F701A184AA2009F48E
:1048B0000DC1B084BB2009F409C187E090E00E94DB
:1048C0007A5D6C0138EE432E33E0532E612C712C4F
:1048D000DC0113964D925D926D927C9216978FE15A
:1048E00090E00E947A5D8C01FC0113821282448266
:1048F0005582668277828BE193E091838083178A69
:10490000168A118E108E138E128E158E148E668D51
:104910006E7F6D7F668F6695617081E068278A2D56
:104920000E94F34D61E08A2D0E94214E8A2D90E075
:10493000FC01EA5BFC4FE491D8015096EC93FC013A
:10494000E457FC4FE491F0E0EE0FFF1FEE5EFC4FEA
:1049500085919491F801928B818B60E08B2D0E9460
:10496000214ED8015E968C9181FD04C061E08B2DB3
:104970000E94F34DF801B4868B2D90E0FC01EA5BB8
:10498000FC4FE491D8011D96EC93FC01E457FC4FD9
:10499000E491F0E0EE0FFF1FEE52FC4F25913491B1
:1049A000F80137872687138E128E118E108E178A84
:1049B000168A2DE931E0358F248F26EF2B0D243018
:1049C00048F03EEC3B0D343028F032EC3B0D3830F3
:1049D00008F06FC04DEB50E0D80157965C934E93B2
:1049E00056974BE951E059965C934E9358974CE299
:1049F00051E05B965C934E935A97243060F03EEC06
:104A00003B0D343040F032EC3B0D383008F074C0D0
:104A1000A8E6B0E073C0A8E6B0E0E8E6F0E04081C8
:104A2000243020F032EC3B0D383010F031E001C082
:104A300034E0342B3C93243058F03EEC3B0D3430C2
:104A400038F032EC3B0D383030F040E050E005C03B
:104A50004BE650E002C04DE650E0F801548B438B2A
:104A6000243020F49C012650310910C0F2E3BF1617
:104A700099F023E3B21691F0A4E3BA1689F022EC80
:104A80002B0D283078F49C012E53310981E001C0B0
:104A9000880F2A95EAF707C088E005C084E003C0C4
:104AA00082E001C081E0F801858B8DE991E00197FA
:104AB000F1F7C8010E948815D60111961C930E9338
:104AC00081E012968C93F701D586C486D7011C9697
:104AD0000D911C911D9701151105B1F0B701625F91
:104AE0007F4F44EBC8010E94331C40E050E064EA71
:104AF000C8010E94B91508C0A0E0B0E0383008F441
:104B00008CCFE0E0F0E08BCF26960FB6F894DEBFB6
:104B10000FBECDBFDF91CF911F910F91FF90EF900E
:104B2000DF90CF90BF90AF907F906F905F904F904D
:104B30000895EF92FF920F931F93CF93DF93CDB71A
:104B4000DEB7E0970FB6F894DEBF0FBECDBFFB0116
:104B5000309709F400C12481203509F0FCC061E0E0
:104B600070E0DC011A964D915C911B97228533858C
:104B70004217530711F060E070E08F017C014AE0BA
:104B8000CE0107960E94224661E070E0F70197810E
:104B9000D80117968C91981711F060E070E04AE008
:104BA000CE010D960E94224661E070E0F7019185EA
:104BB000D80119968C91981711F060E070E04AE0E6
:104BC000CE0143960E94224661E070E0F701908595
:104BD000D80118968C91981711F060E070E04AE0C7
:104BE000CE0149960E94224661E070E0F70194816F
:104BF000D80114968C91981711F060E070E04AE0AB
:104C0000CE014F960E94224661E070E0F7012281BA
:104C10003381D80112968D919C91139728173907EB
:104C200011F060E070E04AE0CE0185960E942246D5
:104C300069E77BE0CE018B960E949946BE016B5DD1
:104C40007F4FCE018B960E94A94563E279E00E94D6
:104C50009245BE01615E7F4F0E94A94563E279E003
:104C60000E949245BE01675E7F4F0E94A94563E2A4
:104C700079E00E949245BE016D5E7F4F0E94A9457A
:104C800063E279E00E949245BE01635F7F4F0E941C
:104C9000A94563E279E00E949245BE01695F7F4FBA
:104CA0000E94A9456AE578E00E949245BC01CE01C8
:104CB00001960E949146CE0101960E942736CE01B0
:104CC00001960E94F245CE018B960E94F245CE01DC
:104CD00085960E94F245CE014F960E94F245CE0184
:104CE00049960E94F245CE0143960E94F245CE01BC
:104CF0000D960E94F245CE0107960E94F245F701FB
:104D000022813381D80112968D919C911397281797
:104D1000390709F5948114968C91149798131BC048
:104D2000908518968C911897981315C091851996AF
:104D30008C91199798130FC0978117968C9117979C
:104D4000981309C0228533851A968D919C911B97E3
:104D50002817390711F080E001C081E0E0960FB616
:104D6000F894DEBF0FBECDBFDF91CF911F910F91A1
:104D7000FF90EF900895EF92FF920F931F93CF93C0
:104D8000DF93CDB7DEB7A4970FB6F894DEBF0FBEA2
:104D9000CDBF6115710509F48BC0FB012481243559
:104DA00009F086C08B017C014AE060E070E0CE0132
:104DB00007960E94224661E070E0F7019781F801B2
:104DC0008781981711F060E070E04AE0CE010D96FF
:104DD0000E94224661E070E0F7019481F80184812D
:104DE000981711F060E070E04AE0CE0143960E940F
:104DF000224661E070E0F70122813381F80182816F
:104E000093812817390711F060E070E04AE0CE0185
:104E100049960E9422466DE87BE0CE014F960E94A3
:104E20009946BE01675E7F4FCE014F960E94A9450D
:104E300063E279E00E949245BE016D5E7F4F0E9461
:104E4000A94563E279E00E949245BE01635F7F4F0E
:104E50000E94A94563E279E00E949245BE01695F24
:104E60007F4F0E94A9456AE578E00E949245BC0107
:104E7000CE0101960E949146CE0101960E942736EE
:104E8000CE0101960E94F245CE014F960E94F24556
:104E9000CE0149960E94F245CE0143960E94F2450A
:104EA000CE010D960E94F245CE0107960E94F24572
:104EB00080E0A4960FB6F894DEBF0FBECDBFDF91A1
:104EC000CF911F910F91FF90EF9008958F929F9235
:104ED000AF92BF92CF92DF92EF92FF920F931F9308
:104EE000CF93DF9300D000D0CDB7DEB7FC01968121
:104EF000992309F466C15B018F01915096836F017C
:104F000082E0C80ED11CC6010E940803D801129687
:104F1000ED91FC91139780818B3521F08B3709F44B
:104F20009AC027C1F801E080F180B70184E090E0E9
:104F30000E944204009751F0DC011196FC92EE921F
:104F400013961C921E9212977C0113C08091DA0E68
:104F500081110BC01092D70E1092D60E1092D90E5E
:104F60001092D80E81E08093DA0E96EDE92E9EE045
:104F7000F92E6BE5C6010E944A03882309F449C053
:104F80006DE5C6010E944A03811156C01A8219823A
:104F9000BE016F5F7F4FC80199DF8823D1F1F70110
:104FA0006081718188E090E00E944204DC01892BDD
:104FB00039F011961C921E9213961C921E92129713
:104FC000F701228133812115310551F0F9018081EA
:104FD0009181009711F09C01F9CFB183A08303C0A8
:104FE000F701B383A2831097A1F086E0FE0131960A
:104FF000129601900D928A95E1F76DE5C6010E9427
:105000004A03811119C06CE2C6010E944A03811152
:10501000BDCF8091DA0E81110BC01092D70E109285
:10502000D60E1092D90E1092D80E81E08093DA0E2F
:1050300086EDE82E8EE0F82ED7018D919C91892B7C
:1050400011F4F12CB9C086E090E0F50191838083E2
:10505000F382E282AFC0D801ED90FC90B70184E00A
:1050600090E00E944204009709F4ADC0FC01F18277
:10507000E082138212827C016BE7C6010E944A0320
:10508000882309F462C06DE7C6010E944A038111BA
:105090005FC0C8010E945F034C01892B09F455C011
:1050A0006AE3C6010E944A03882309F44EC01A82AB
:1050B0001982BE016F5F7F4FC80108DF882309F4A2
:1050C00044C0B401C7010E94A304009749F5D70169
:1050D0006D917C918AE090E00E944204009729F053
:1050E000FC011182108215821482D7011296ED9173
:1050F000FC911397309751F02081318121153105B2
:1051000011F0F901F9CF9183808303C0F7019383F4
:1051100082830097D1F0DC0113969C928E921297B5
:1051200026E0FE013196DC01149601900D922A953D
:10513000E1F76DE7C6010E944A03811109C06CE2E4
:10514000C6010E944A038111A4CF0E9430047C0151
:10515000F70180819181892B09F473CF87E090E07A
:10516000D50111969C938E931396FC92EE92129712
:1051700021C0FF24F394873219F0823209F0F12C18
:10518000C8010E945F03009709F45BCFFF2041F044
:1051900022E030E0F50131832083938382830CC0C9
:1051A00021E030E0D50111963C932E9313969C9309
:1051B0008E931297FF24F394F80186818F5F868384
:1051C00005C0F12C03C00E94300455CF8F2D2696C8
:1051D0000FB6F894DEBF0FBECDBFDF91CF911F9108
:1051E0000F91FF90EF90DF90CF90BF90AF909F9086
:1051F0008F9008951F93CF93DF93EC01162F6D834B
:105200000E94921E612F8A819B81DF91CF911F9115
:105210000C94421FFB0144815581FC01248135819E
:105220002417350778F080819181009759F0FB01B0
:10523000608171816115710529F00E941F6721E06D
:10524000892B09F020E0822F08951F93CF93DF93DD
:10525000EC01162F6885111102C081E068278F814B
:105260000E94F34D1D83CE010E94921E612F8A8100
:105270009B81DF91CF911F910C94421FAF92BF92FF
:10528000DF92EF92FF920F931F93CF93DF9300D0A3
:1052900000D0CDB7DEB75B017C0100E010E00E5F0F
:1052A0001F4FA801425051099801B501CE01019646
:1052B0000E94AD4640E150E060E070E089819A8153
:1052C0000E94375FD62ECE0101960E94F245F7016B
:1052D000D1927F010031110511F726960FB6F8948F
:1052E000DEBF0FBECDBFDF91CF911F910F91FF9019
:1052F000EF90DF90BF90AF900895CF92DF92EF9242
:10530000FF920F931F93CF93DF93CDB7DEB76297D2
:105310000FB6F894DEBF0FBECDBF8C016B01DC0170
:105320008D919C91009729F00E944160AB01BC01D6
:1053300003C040E050E0BA01CE0107960E940F1A68
:1053400064EA7BE0CE010D960E949946B801CE0139
:105350000D960E94A94562EB7BE00E949245BE013A
:10536000695F7F4F0E94A94564EB7BE00E949245F4
:10537000BC01CE0101960E949146CE0101960E9489
:105380002736CE0101960E94F245CE010D960E946D
:10539000F245CE0107960E94F245F8018081918185
:1053A000009719F00E94416003C060E070E0CB01FB
:1053B000CB010E94891C8C01009709F442C0DC01DA
:1053C00012966D917C9113974AE0CE0107960E9448
:1053D000F74566EB7BE0CE010D960E949946BE0133
:1053E000695F7F4FCE010D960E94A945BC01CE0199
:1053F00001960E949146CE0101960E942736CE0169
:1054000001960E94F245CE010D960E94F245CE0112
:1054100007960E94F24581E0F80186830190F081B1
:10542000E02DE288F388D6018D919C91009719F0C8
:105430000E94416003C060E070E0CB01C801F70149
:10544000199562960FB6F894DEBF0FBECDBFDF91FF
:10545000CF911F910F91FF90EF90DF90CF90089523
:10546000EF92FF920F931F93CF93DF93CDB7DEB7E9
:10547000C55FD1090FB6F894DEBF0FBECDBF9E0148
:10548000275F3F4F3C832B8328EC30E03E832D8306
:1054900018861F822DE233E03A832983DC018D9147
:1054A0009C91009711F481E498E09E012F5F3F4F9B
:1054B000CF52DF4F39832883C15DD040CD52DF4FBB
:1054C00099838883C35DD040CB52DF4F39832883D3
:1054D000C55DD0408AE0C952DF4F8883C75DD040A8
:1054E000C252DF4F19821882CE5DD040BE01625297
:1054F0007F4FCE018F529F4FE9DC86E0FE01E252E2
:10550000FF4FDE01A852BF4F01900D928A95E1F73F
:1055100086E0FE01E852FF4FDE01A252BF4F01902C
:105520000D928A95E1F786E0FE01E252FF4FDE011F
:10553000AF52BF4F01900D928A95E1F7CF52DF4FE6
:1055400088819981C15DD040079739F4CD52DF4FF2
:1055500008811981C35DD04003C00E9430048C01D2
:1055600062EC7BE0C8010E946105882309F444C015
:1055700062EC7BE0C8010E941D05182F60912F127C
:10558000709130124AE0CE0186519F4F0E94224610
:1055900069EC7BE0CE018C519F4F0E949946BE0181
:1055A00066517F4FCE018C519F4F0E94A945BC018F
:1055B000CE0180519F4F0E949146CE0180519F4F56
:1055C0000E942736CE0180519F4F0E94F245CE01A6
:1055D0008C519F4F0E94F245CE0186519F4F0E94F1
:1055E000F24510923C1210923B12812F0E94F61D40
:1055F00081E08093D50E80C08091D50E882309F478
:105600007BC068ED75E0C8010E946105882309F43C
:1056100073C061EE7BE0C8010E946105882309F434
:105620006BC0E0903B12F0903C12EE0CFF1C80919E
:105630002B1290912C12E80EF91E68ED75E0C8014E
:105640000E941505FC0180810E94D71CD7018D9313
:105650009C93E0913B12F0913C12EE0FFF1F809162
:105660002B1290912C12E80FF91FE080F180E114C9
:10567000F104F1F061EE7BE0C8010E94C004F70183
:1056800093838283E0913B12F0913C12EE0FFF1F57
:1056900080912B1290912C12E80FF91F808191813B
:1056A000DC01ED91FC91028CF38DE02DB801199590
:1056B00080913B1290913C12019690933C12809302
:1056C0003B1220912F123091301282179307A1F4D0
:1056D00064EE7BE0CE018C519F4F0E949946CE0133
:1056E0008C519F4F0E942736CE018C519F4F0E94B4
:1056F000F24581E080932712CB50DF4F0FB6F8942C
:10570000DEBF0FBECDBFDF91CF911F910F91FF90F4
:10571000EF900895209129122111A2CE0895EF92C1
:10572000FF920F931F93CF93DF93CDB7DEB7C55F83
:10573000D1090FB6F894DEBF0FBECDBF9E01275F23
:105740003F4F3C832B8328EC30E03E832D8318862B
:105750001F822DE233E03A832983FC01808191810D
:10576000009711F481E498E09E012F5F3F4FCF52E4
:10577000DF4F39832883C15DD040CD52DF4F9983FD
:105780008883C35DD040CB52DF4F39832883C55D0A
:10579000D0408AE0C952DF4F8883C75DD040C252F3
:1057A000DF4F19821882CE5DD040BE0162527F4F1A
:1057B000CE018F529F4F8ADB86E0FE01E252FF4FFF
:1057C000DE01A852BF4F01900D928A95E1F786E065
:1057D000FE01E852FF4FDE01A252BF4F01900D9231
:1057E0008A95E1F786E0FE01E252FF4FDE01AF52FB
:1057F000BF4F01900D928A95E1F7CF52DF4F88811C
:105800009981C15DD040079739F4CD52DF4F0881AF
:105810001981C35DD04003C00E9430048C0162EC4A
:105820007BE0C8010E946105882309F44CC062EC4A
:105830007BE0C8010E94BE04009721F004960E94FC
:10584000520402C080E090E04AE0BC01CE018651E3
:105850009F4F0E94224660E07CE0CE018C519F4F1A
:105860000E949946BE0166517F4FCE018C519F4FD9
:105870000E94A945BC01CE0180519F4F0E949146D4
:10588000CE0180519F4F0E942736CE0180519F4FFD
:105890000E94F245CE018C519F4F0E94F245CE01ED
:1058A00086519F4F0E94F24562EC7BE0C8010E9446
:1058B0001D0510923E1210923D120E94EC3981E0BB
:1058C0008093D40E29C18091D40E882309F424C179
:1058D00061EE7BE0C8010E946105882309F41CC1C8
:1058E0008DE090E00E947A5D2DE0FC0111922A95F6
:1058F000E9F720913D1230913E12220F331FE091C3
:105900002D12F0912E12E20FF31F9183808380916C
:105910002D1290912E12FC01E20FF31F80819181D4
:10592000892B09F4D5C061EE7BE0C8010E946105B6
:105930008823B1F0E0913D12F0913E12EE0FFF1F6F
:1059400080912D1290912E12E80FF91FE080F180C6
:1059500061EE7BE0C8010E94C004F701918380835F
:1059600068E07CE0C8010E9461058823B1F0E09105
:105970003D12F0913E12EE0FFF1F80912D1290917B
:105980002E12E80FF91FE080F18068E07CE0C8018A
:105990000E94C004F7019383828361E17CE0C80127
:1059A0000E9461058823D9F0E0913D12F0913E12EA
:1059B000EE0FFF1F80912D1290912E12E80FF91F0C
:1059C000E080F18061E17CE0C8010E941505FC01E6
:1059D0008081082E000C990BF701958384836CE17C
:1059E0007CE0C8010E9461058823A9F0E0913D1286
:1059F000F0913E12EE0FFF1F80912D1290912E120A
:105A0000E80FF91FE080F1806CE17CE0C8010E94A2
:105A10001D05F701868362E27CE0C8010E946105F2
:105A20008823B1F0E0913D12F0913E12EE0FFF1F7E
:105A300080912D1290912E12E80FF91FE080F180D5
:105A400062E27CE0C8010E94C004F701908787836E
:105A50006BE27CE0C8010E9461058823B9F0E09107
:105A60003D12F0913E12EE0FFF1F80912D1290918A
:105A70002E12E80FF91FE080F1806BE27CE0C80194
:105A80000E941D0590E0F7019287818768E37CE022
:105A9000C8010E9461058823D9F0E0913D12F09180
:105AA0003E12EE0FFF1F80912D1290912E12E80FE3
:105AB000F91FE080F18068E37CE0C8010E941505D1
:105AC000FC018081082E000C990BF70194878387D5
:105AD00080913D1290913E12019690933E128093D8
