:10000000AAC10000D9C10000D7C10000D5C10000BD
:10001000D3C10000D1C10000CFC10000CDC100009C
:10002000CBC100000C94942E0C94942E0C94942E1E
:10003000C3C10000C1C10000BFC10000BDC10000BC
:10004000BBC10000B9C10000B7C10000B5C10000CC
:10005000B3C10000B1C10000AFC100000C94EF11AA
:10006000ABC100000C94E7260C94BD26A5C100008E
:10007000A3C10000A1C100009FC100009DC10000FC
:100080009BC1000099C1000097C1000095C100000C
:100090000C9493260C9469268FC100008DC100003A
:1000A0008BC1000089C1000087C1000085C100002C
:1000B00083C1000081C100007FC100007DC100003C
:1000C0007BC1000079C1000077C100000C943F267D
:1000D0000C94152671C100000C94EB250C94C125DD
:1000E0006BC1000015030F033D031E031A03C40276
:1000F000E3028A0206110911F810FC1002114011E6
:100100000D11111117111B111F11251129112D117D
:100110004011331137113B1100407A10F35A00A0FF
:10012000724E18090010A5D4E80000E876481700C0
:1001300000E40B54020000CA9A3B000000E1F50500
:10014000000080969800000040420F000000A0864A
:1001500001000000102700000000E803000000007C
:100160006400000000000A00000000000100000020
:1001700000002C76D888DC674F0823DFC1DFAE593A
:10018000E1B1B796E5E3E453C63AE651997696E8CD
:10019000E6C28426EB898C9B62ED407C6FFCEFBC51
:1001A0009C9F40F2BAA56FA5F490055A2AF75C937C
:1001B0006B6CF9676DC11BFCE0E40D47FEF520E6B2
:1001C000B500D0ED902E0300943577050080841E95
:1001D000080000204E0A000000C80C333333330FF0
:1001E000986E12831141EF8D2114893BE65516CF8D
:1001F000FEE6DB18D1844B381BF77C1D901DA4BB99
:10020000E424203284725E228100C9F124ECA1E54D
:100210003D27005EBCE2613FDD83C29C7E20A3FDE2
:100220001F41009D23BE46DB65F88C11AF32CA57D3
:10023000E97400000A0B02090C0D0E080703040103
:1002400000000000000000000000000000000000AE
:10025000000000000000000000000000000012117B
:10026000100000000000000000000000000000007E
:10027000000000000000000000002200250028000F
:100280002B002E003100340002010000050108019E
:100290000B0100002100240027002A002D0030005F
:1002A000330001010000040107010A0101021020CE
:1002B000200808102040102040800201020108049C
:1002C0000201010204081020408080402010080430
:1002D0000201800402018040201008040201080489
:1002E00002010102040810204080010204081020CD
:1002F00040800505050507050808080802020202F6
:100300000A0A0808040404040101010101010101B1
:100310000303030303030303040707070C0C0C0C7C
:100320000C0C0C0C02020202060606060606060665
:100330000B0B0B0B0B0B0B0B0000200023002600FC
:1003400029002C002F0032000001000003010601EB
:1003500009012B4EB44911241FBECFEFD1E2DEBFFD
:10036000CDBF00E00CBF1BE0A0E0B2E0E4EDF9EB94
:1003700000E00BBF02C007900D92A83BB107D9F770
:1003800020E1A8EBBBE001C01D92AA36B207E1F75D
:1003900011E0CAEAD1E000E006C021970109802FF0
:1003A000FE010E94BB58C93AD10780E00807A9F7AF
:1003B0000E94B7490C94D95C23CE0895FC01268194
:1003C0003781620F731F848195818617970738F0F4
:1003D0008281938177836683820F931F089580E0E3
:1003E00090E008950895FC01158616861786108AF8
:1003F0001286108617820895FC0176876587089516
:10040000DC01ED91FC91068CF78DE02D199591E0C2
:1004100089270895862F089581E08627089521E091
:10042000FC018485883008F020E0822F089580E068
:1004300090E00895FF920F931F93CF93DF93611580
:10044000710549F466EF73E0DF91CF911F910F9131
:10045000FF900C944C278B01EC0162E2CE010E94CC
:100460002827F80161918F01662351F0E7EEF3E050
:10047000F080FF2099F38181681759F03296F8CF08
:1004800062E2CE01DF91CF911F910F91FF900C940A
:1004900028276CE5CE010E9428276F2DDFCF0C9412
:1004A000E050CF93DF93EC018A819B810E94601A18
:1004B00018861F82CE01DF91CF910C94F2182F92F3
:1004C0003F924F925F926F927F928F929F92AF92E4
:1004D000BF92CF92DF92EF92FF920F931F93CF9331
:1004E000DF93CDB7DEB76C970FB6F894DEBF0FBEC3
:1004F000CDBFDC01ED91FC9111973197E830F1050A
:1005000008F057C21B018C018827EE58FF4F8F4F10
:100510000C94BB58FD0182809380A480B580A50116
:100520009401C501B4010E941956882319F066E0B0
:1005300074E0B1C020E030E0A901C501B4010E941F
:10054000195687FF08C06DE2C1010E942827B7FA3B
:10055000B094B7F8B09420E030E0A901C501B4012F
:100560000E941956882309F49AC0A5019401C50177
:10057000B4010E94A757A50194010E941956811148
:100580008EC06DE074E087C012960D911C91139798
:100590006BE5C1010E942827F80102811381011532
:1005A000110579F0B101C801029689DFD8010D91DA
:1005B0001C910115110529F06CE2C1010E94282748
:1005C000EECF6DE528C0FD01028113816BE7C1010B
:1005D0000E942827D80112960D911C91139701159E
:1005E0001105C1F0F80162817381C10123DF6AE363
:1005F000C1010E942827B101C801049660DFD8011B
:100600000D911C910115110529F06CE2C1010E94A8
:100610002827E5CF6DE7C1010E942827CAC1FD0147
:1006200062817381C10106DFC4C112966D917C9114
:10063000139731C06DE2C1010E942827F801628141
:100640007381848195811E8A8E010A5E1F4F2AE084
:10065000C22ED12CE12CF12CA70196010E94495702
:10066000605DD8016E938D01B901CA0161157105F4
:100670008105910589F7BD010EC0FD01828193813D
:10068000A481B581892B8A2B8B2B19F460E074E04F
:1006900002C06BEF73E0C1010E944C278AC120E8C1
:1006A00036E948E15BE4C501B4010E94A45887FF24
:1006B0004AC100E210E0E5E0DE2E188E1F8A20E03D
:1006C00030E0A901C501B4010E94A4581816B4F580
:1006D0002CEA35EC47E257E3C501B4010E941956F4
:1006E000181664F1BFEFDB1649F1ED2DF4E0EF02CF
:1006F00070011124F701E45FFD4FA50194016081B1
:100700007181828193810E94A45818169CF4F7018C
:10071000E45CFD4F2081318142815381C501B401E8
:100720000E947E564B015C018F89988D801B910B36
:10073000988F8F8B15950795DA94D4CFC501B401A6
:100740000E9478586B017C012B013C0106E080E49B
:1007500092E4AFE0B0E0898F9A8FAB8FBC8F102FFF
:1007600001509AE04916510461047104C8F0698D82
:100770007A8D8B8D9C8D2AE030E040E050E00E9425
:100780004957298F3A8F4B8F5C8FC301B2012AE002
:1007900030E040E050E00E94495729013A01DFCFA4
:1007A000C701B6010E941D569B01AC01C501B401F1
:1007B0000E94A6574B015C01698D7A8D8B8D9C8DB3
:1007C0000E941D569B01AC01C501B4010E947E56DA
:1007D0002B013C010E9478584B015C010E941D5680
:1007E0009B01AC01C301B2010E94A6579B01AC0161
:1007F0000E94A7570E947858860E971EA81EB91E01
:10080000898D9A8DAB8DBC8D88169906AA06BB067C
:10081000F8F09FEFC91AD90AE90AF90AAF89B88D29
:10082000AB2B99F0BAE0CB16D104E104F10468F0E7
:10083000EF89F88D3196F88FEF8B812C912C540134
:10084000C12CD12C7601C39403C0812C912C54016E
:100850005AE0452E512C612C712CC501B401A30125
:1008600092010E944957672B682B692B31F41116AE
:1008700024F449015A011150F0CF1E8ACE01469648
:100880009A8F898F4AE0442E512C612C712CC7011C
:10089000B601A30192010E944957605DA98DBA8DEE
:1008A0006E93BA8FA98F69017A01C114D104E10452
:1008B000F10469F7BD01C1010E944C27112329F100
:1008C000188A012F7E01B0E1EB0EF11C67013AE0BE
:1008D000432E512C612C712C015068F0C501B401DC
:1008E000A30192010E944957605DF70162937F0165
:1008F00049015A01F1CFB601611B71098EE2DB019A
:100900008E93BD01C1010E944C27EF89F88DF7FF3E
:100910000BC06AE074E0C1010E944C276F89788D9A
:100920007195619571090BC08F89988D892B09F498
:1009300040C065E6C1010E9428276F89788DC101FA
:100940000E94712736C084E5C82E82E0D82E94E23A
:10095000E92E92E0F92E00E210E0188E1F8AD601EF
:100960005E914E913E912E916D01C501B4010E94A0
:10097000A45887FD11C0F701248935894689578914
:10098000C501B4010E947E564B015C018F89988D90
:10099000800F911F988F8F8B1595079594E0E91A1A
:1009A000F108ACE3CA16A2E0DA06C9F6DD24DA944F
:1009B00086CE6C960FB6F894DEBF0FBECDBFDF912A
:1009C000CF911F910F91FF90EF90DF90CF90BF904C
:1009D000AF909F908F907F906F905F904F903F90DF
:1009E0002F900895FC01808191818330910520F43E
:1009F000019708F440C00BC08530910528F0059799
:100A000099F5628173812BC0828193810895028060
:100A1000F381E02D309779F18081843779F18B3241
:100A200029F08D3221F4319691E002C0319690E0A8
:100A300060E070E04AE0819120ED280F2A3068F4F0
:100A4000469F9001479F300D1124682F880F770B28
:100A500060537109620F731FEECF992391F08827BD
:100A60009927861B970B08956281738184819581F4
:100A70000E94735806C080E090E0089581E090E005
:100A80000895CB010895FC01A081B1818C918D3036
:100A900051F024F489508230B8F505C0803219F045
:100AA0008F3219F0089511962CC011968C911197E0
:100AB0008A3219F08F32D1F008951196B183A08354
:100AC000A081B181CD0101969183808311968C9193
:100AD00011978823C9F08A3299F712968C91129750
:100AE0008F3271F713960DC08A3071F2A081B181F7
:100AF000CD0101969183808311968C918111F4CF61
:100B000003C0B183A083C0CF08951F93CF93DF9319
:100B1000EC01162FB8DFE881F9818081181305C038
:100B20003196F983E88381E001C080E0DF91CF91C5
:100B30001F910895EF92FF920F931F93CF93DF932E
:100B40008C01DC011496CD91DC911597EA80FB8035
:100B50008E819F81E80EF91EC801029694DFD801AC
:100B60001296ED91FC91139780818732A9F1823220
:100B700099F190ED980F9A3078F091EA980F9C31A6
:100B800058F09FEB980F9A3138F08B3229F093EDA3
:100B9000980F923008F061C0F801228133812F5FF5
:100BA0003F4F338322832E813F81A9014F5F5F4FE7
:100BB0006C817D816417750740F06A817B81FB0140
:100BC000E20FF31F5F834E838083D8011296ED916D
:100BD000FC9113978081CDCF3196D8011396FC9369
:100BE000EE931297D8011296ED91FC911397908194
:100BF000992399F19F012F5F3F4F13963C932E93BA
:100C00001297981751F19C35A9F49181ABEEB3E09E
:100C10002C91222339F0921303C011969C9102C0AB
:100C20001296F6CF9923C9F03296D8011396FC9309
:100C3000EE9312972E813F81A9014F5F5F4F6C8128
:100C40007D816417750770F26A817B81FB01E20F79
:100C5000F31F5F834E839083C5CF8E819F819C015C
:100C60002F5F3F4F4C815D814217530750F04A81FF
:100C70005B81FA01E80FF91F3F832E831082C701C1
:100C800002C080E090E0DF91CF911F910F91FF9023
:100C9000EF9008950F931F93CF93DF938B01FC0187
:100CA000C281D3812097A9F06A817B81011511054A
:100CB00019F06115710521F46017710731F409C04D
:100CC000C8010E94E059892B21F00990D881C02DDC
:100CD000E9CFCE01DF91CF911F910F910895DACF27
:100CE0000895FDDFFC01892BD9F184819581833042
:100CF000910518F40197A0F109C08530910520F005
:100D0000059739F5668123C066812DC00680F7817D
:100D1000E02D309729F18081843721F18B3229F041
:100D20008D3221F4319691E002C0319690E060E07E
:100D3000219180ED820F8A3040F4660F862F880F54
:100D4000880F680F6053620FF3CF992361F06195AC
:100D50000AC066817781808591850E94785803C09A
:100D600060E001C061E0862F0895B9DFFC01892BA6
:100D700009F448C0848195818330910520F401975E
:100D800008F440C00BC08530910528F0059799F50F
:100D9000668177812BC08681978108950680F781CF
:100DA000E02D309779F18081843779F18B3229F009
:100DB0008D3221F4319691E002C0319690E060E0EE
:100DC00070E04AE0819120ED280F2A3068F4469FB8
:100DD0009001479F300D1124B90160537109680FCC
:100DE000711D87FD7A95EECF992391F08827992779
:100DF000861B970B089566817781808591850E9477
:100E0000785806C080E090E0089581E090E0089571
:100E1000CB01089564DF009711F00496E3CD80E0E4
:100E200090E008955CDF21E0892B09F420E0822F17
:100E300008950F931F93CF93DF938C01FC01C08122
:100E4000D181C130D10559F4628173816115710579
:100E500031F086EF93E00E94E059892B39F0219719
:100E6000229720F4F8018281938102C080E090E013
:100E7000DF91CF911F910F91089531DF009711F00D
:100E80000496D7CF80E090E008958091C80B81113F
:100E90000BC01092C50B1092C40B1092C70B10928E
:100EA000C60B81E08093C80B84EC9BE00895809191
:100EB000BC0B81110BC01092B90B1092B80B1092A1
:100EC000BB0B1092BA0B81E08093BC0B88EB9BE0CC
:100ED0000895DB01109749F0ED91FC911197019075
:100EE000F081E02DBC01CD01199480E090E00895DF
:100EF0000895AF92BF92CF92DF92EF92FF920F933D
:100F00001F93CF93DF93CDB7DEB768970FB6F894F2
:100F1000DEBF0FBECDBF8C010E94E3116B017C01CF
:100F2000F801258130E0F901EE5CFD4F8491F90173
:100F3000E455FD4FB490F901EE50FD4FA490AA2066
:100F400079F081110E94EB10EA2DF0E0EE0FFF1F07
:100F5000E85CFC4FA591B491EC91BE2221E009F42C
:100F600020E0F801368185859685A785B089321302
:100F7000FCC00097A105B10591F5C586D686E78628
:100F8000F08A628173814AE0CE0107960E94EA42AC
:100F900066E174E0CE0101960E948C43BE01695F58
:100FA0007F4FCE0101960E949C4266E274E00E944F
:100FB0008542BC01CE010D960E948443CE010D9660
:100FC0000E94FB47CE010D960E94E542CE0101969C
:100FD0000E94E542CE0107960E94E5424AC1AC015B
:100FE000BD014053584F6F4F7F4FC416D506E606DC
:100FF000F706D8F1F8018385811132C062817381CF
:101000004AE0CE0107960E94EA4268E274E0CE010F
:1010100001960E948C43BE01695F7F4FCE0101960D
:101020000E949C4266E274E00E948542BC01CE01AF
:101030000D960E948443CE010D960E94FB47CE017F
:101040000D960E94E542CE0101960E94E542CE0136
:1010500007960E94E54264E070E0C8010E94621CAD
:1010600081E0F8018387128604C1AC01BD014454BC
:101070005D4F6F4F7F4FC416D506E606F706B0F1F9
:10108000F801828581112DC0628173814AE0CE0111
:1010900007960E94EA426EE274E0CE0101960E9439
:1010A0008C43BE01695F7F4FCE0101960E949C4236
:1010B00066E274E00E948542BC01CE010D960E945A
:1010C0008443CE010D960E94FB47CE010D960E94EF
:1010D000E542CE0101960E94E542CE0107960E94AC
:1010E000E542F801148681E08287C3C088589F4F8B
:1010F000AF4FBF4FC816D906EA06FB0608F4B9C0C1
:10110000F801848581112DC0628173814AE0CE018E
:1011100007960E94EA426DE374E0CE0101960E94B8
:101120008C43BE01695F7F4FCE0101960E949C42B5
:1011300066E274E00E948542BC01CE010D960E94D9
:101140008443CE010D960E94FB47CE010D960E946E
:10115000E542CE0101960E94E542CE0107960E942B
:10116000E54281E0F801848784C00097A105B105BC
:1011700009F47FC0B701A601481B590B6A0B7B0B12
:10118000CE010D960E947447F801628173814AE096
:10119000CE0107960E94EA4260E574E0CE01019616
:1011A0000E948C43BE01695F7F4FCE0101960E9471
:1011B0009C4269E574E00E948542BE01635F7F4FF7
:1011C0000E949C42BC01CE0143960E948443CE0102
:1011D00043960E94FB47CE0143960E94E542CE0112
:1011E00001960E94E542CE0107960E94E542CE019B
:1011F0000D960E94E542F80185859685A785B08900
:101200008C599F4FAF4FBF4FC816D906EA06FB0651
:1012100078F468E674E0CE0101960E948C43CE011A
:1012200001960E94FB47CE0101960E94E5421CC038
:10123000F801838581110BC08285882319F062E053
:1012400070E002C061E070E0C8010E94621CF80119
:10125000158616861786108A12861486138660E015
:1012600070E0C8010E94621CF80115861686178678
:10127000108A68960FB6F894DEBF0FBECDBFDF911F
:10128000CF911F910F91FF90EF90DF90CF90BF9083
:10129000AF9008950F931F93CF93DF93CDB7DEB731
:1012A00068970FB6F894DEBF0FBECDBF8C014AE041
:1012B000FC016581CE010D960E944043F8016281D8
:1012C00073814AE0CE0107960E94EA426BE774E020
:1012D000CE0101960E948C43BE01695F7F4FCE0113
:1012E00001960E949C426BE874E00E948542BE0118
:1012F000635F7F4F0E949C42BC01CE0143960E94D7
:101300008443CE0143960E94FB47CE0143960E9440
:10131000E542CE0101960E94E542CE0107960E9469
:10132000E542CE010D960E94E54260E0F80185811C
:10133000D6D7F801668181E068278581A2D7C801E8
:101340000E94F21868960FB6F894DEBF0FBECDBFAC
:10135000DF91CF911F910F910895CF93DF931F924B
:10136000CDB7DEB76983DC01ED91FC910280F3819A
:10137000E02D41E050E0BE016F5F7F4F19950F9067
:10138000DF91CF910895FC01818D928D0895FC012C
:101390009485FB018485981303C081E0983008F0A0
:1013A00080E00895CF93DF931F92CDB7DEB76983B6
:1013B000DC01ED91FC910280F381E02D41E050E0F1
:1013C000BE016F5F7F4F19950F90DF91CF91089508
:1013D000FC01848595850895FC018489958908958B
:1013E00027E233E0FC0131832083FB0140895189EE
:1013F00062897389FC0142835383648375830895F2
:10140000DC01ED91FC91048CF58DE02D199480E0C8
:101410000895CF92DF92EF92FF920F931F93CF9395
:10142000DF9300D000D0CDB7DEB78C016B017A011D
:10143000FC01808D883010F40E94621587E293E0F1
:101440009A838983F60182819381A481B5818B83FC
:101450009C83AD83BE83B701CE0101960E94FE40FE
:10146000F801808F883030F4F586E486128E118E74
:1014700081E001C080E026960FB6F894DEBF0FBE73
:10148000CDBFDF91CF911F910F91FF90EF90DF9033
:10149000CF900895CF93DF93FC01808D883028F49E
:1014A000EF010E94621588E0888FDF91CF91089547
:1014B000FC01808D883040F4218D328D232B21F06A
:1014C0000E94E91390E008958FEF9FEF0895CF9366
:1014D000DF93FC012485283018F08FEF9FEF0EC0BA
:1014E000EC010190F081E02D0084F185E02D19954B
:1014F000892B99F38C850E94E91390E0DF91CF91BD
:101500000895CF93DF93FC01218D328D2115310594
:1015100019F48FEF9FEF11C0EC014217530708F049
:10152000A901888D0E9463161816190694F7298D53
:101530003A8D281B390B3A8F298FDF91CF9108956F
:101540000F931F93CF93DF931F92CDB7DEB7FC01AC
:10155000218D328D232B61F08C0141E050E0BE01E2
:101560006F5F7F4F808D0E946316181619061CF05E
:101570008FEF9FEF08C0F801818D928D0197928FB8
:10158000818F898190E00F90DF91CF911F910F9112
:101590000895CF93DF931F92CDB7DEB741E050E0BF
:1015A000BE016F5F7F4FFC0184850E946316181691
:1015B00019061CF4898190E002C08FEF9FEF0F9015
:1015C000DF91CF910895FC018485883010F40C944C
:1015D000631680E090E00895FC018485883010F463
:1015E0000C94131480E090E008950F931F93CF9311
:1015F000DF93CDB7DEB728970FB6F894DEBF0FBEE6
:10160000CDBF8C01D80159964D915C915A974115E7
:10161000510551F0ED91FC91048CF58DE02D60E0C9
:1016200070E0C8011995EECFF801808D0E94131467
:10163000892B51F148E050E0BE016F5F7F4FD80128
:1016400058968C910E94631618161906FCF4D8015E
:10165000509684E0FE01319601900D928A95E1F753
:101660008D8190E0982F88272E81820F911DF8019F
:10167000958B848B8F8190E0982F88272885820F07
:10168000911D928F818F02C080E090E028960FB666
:10169000F894DEBF0FBECDBFDF91CF911F910F91A8
:1016A0000895AF92BF92CF92DF92EF92FF920F9385
:1016B0001F93CF93DF93CDB7DEB7AF970FB6F894F4
:1016C000DEBF0FBECDBF8C015B016A01CE0101966A
:1016D0000E94DE4087E2E82E83E0F82EFBA6EAA611
:1016E0001CA61DA61EA61FA68091A80E9091A90E4D
:1016F000A091AA0EB091AB0E8EA39FA3A8A7B9A7E5
:101700008B839C83AD83BE8318861F82AE01465DAA
:101710005F4FB501CE0101960E94813E8130910557
:10172000B1F4D801ED91FC910488F589E02DFDA27A
:10173000ECA28CA59DA5AEA5BFA58EA39FA3A8A72F
:10174000B9A7A601BE016C5D7F4FC8011995AF9680
:101750000FB6F894DEBF0FBECDBFDF91CF911F91C2
:101760000F91FF90EF90DF90CF90BF90AF900895D2
:101770000F931F93CF93DF93EC018B01888D8830FB
:1017800010F40E946215B80182E00E947E15888FD5
:10179000883030F41D870C871A8E198E81E001C0C5
:1017A00080E0DF91CF911F910F910895CF93DF9348
:1017B000EC018C858830C8F40E943317843181F0A5
:1017C000882371F0883161F08C3161F4E881F9810E
:1017D0000084F185E02DCE01199521E0892B19F4C3
:1017E00020E001C021E0822F01C080E0DF91CF9195
:1017F0000895CF92DF92EF92FF92CF93DF93EC01A7
:101800008C85883020F50E944615DDD56B017C0162
:101810008C850E9433178823C1F061E070E080E07E
:1018200090E099D5D0D5AB01BC014C195D096E098A
:101830007F098D859E85A0E0B0E0481759076A07AB
:101840007B0730F38C850E94621588E08C87DF91DE
:10185000CF91FF90EF90DF90CF900895CF92DF92DD
:10186000EF92FF920F931F93CF93DF93CDB7DEB725
:10187000AF970FB6F894DEBF0FBECDBF8C016B01E2
:101880007A01CE0101960E94DE4087E293E09BA799
:101890008AA71CA61DA61EA61FA6D8011C968C9161
:1018A000883060F40E943317882321F0F801848582
:1018B0000E94461588E0D8011C968C938091A80E52
:1018C0009091A90EA091AA0EB091AB0E8EA39FA3EA
:1018D000A8A7B9A78B839C83AD83BE8318861F827C
:1018E000AE01465D5F4FB601CE0101960E94813E7A
:1018F0000097C1F0D801ED91FC910684F785E02DA9
:1019000087E293E09DA38CA38CA59DA5AEA5BFA562
:101910008EA39FA3A8A7B9A7A701BE016C5D7F4FA7
:10192000C8011995AF960FB6F894DEBF0FBECDBFB4
:10193000DF91CF911F910F91FF90EF90DF90CF90AB
:101940000895CF93DF93EC018C85883060F40E947A
:101950003317873111F08C3131F48C850E943516A4
:101960008115984088F3DF91CF910895FC0184851B
:10197000883010F40C94351680E090E008950895B6
:10198000DA019091DE0BE92FF0E0FE2FEE27E60F53
:10199000F71F90E0982F8827A901BD018E0F9F1F88
:1019A00072C508958CBD9DBD08957F928F929F92C0
:1019B000AF92BF92CF92DF92EF92FF920F931F935D
:1019C000CF93DF931F921F92CDB7DEB77C014B01FF
:1019D000742EC52EFC01A688B788D08CCE01019646
:1019E0000E94334589819A81DDDF8D2DB7D6072D81
:1019F0001C2D8017910708F48C019801A401B501F2
:101A00008D2D56D7F70186899789800F911F978B67
:101A1000868BC8010F900F90DF91CF911F910F918E
:101A2000FF90EF90DF90CF90BF90AF909F908F90FE
:101A30007F9008951F93CF93DF931F921F92CDB78E
:101A4000DEB7FC01108DCE0101960E9433458981DD
:101A50009A81A8DF60E270E0812F0E94381562E071
:101A600070E0812FE8D784FD15C062E070E0812F1F
:101A7000E2D783FF07C048E162E070E0812FBED764
:101A800080E00EC0CE0101960E94334589819A8183
:101A900089DFE5CF40E162E070E0812FAFD781E0E0
:101AA00090E00F900F90DF91CF911F910895DF92FA
:101AB000EF92FF920F931F93CF93DF931F921F928A
:101AC000CDB7DEB7FB01DC0157961C921E925697EC
:101AD0002281211109C02381211106C024812111F5
:101AE00003C025812223E1F041155105C9F07A0197
:101AF0008F01FC01D08CCE0101960E943345898173
:101B00009A8150DFA8014E5F5F4F24E030E06CE027
:101B100070E08D2DBCD6B7018D2D46D781E001C078
:101B200080E090E00F900F90DF91CF911F910F9187
:101B3000FF90EF90DF9008950F931F93CF93DF9363
:101B40001F921F92CDB7DEB7FC0124852830C0F468
:101B50008C01CE0101960E94334589819A8122DF52
:101B600022E030E0AE014F5F5F4F60E170E0F801CE
:101B7000848506DF89819A8198278927982702C062
:101B800080E090E00F900F90DF91CF911F910F9127
:101B90000895EF92FF920F931F93CF93DF9300D09E
:101BA0001F92CDB7DEB78C017B01FB0184858830A5
:101BB00050F087E293E0F8019183808312821382D0
:101BC000148215821EC0CE0101960E943345898180
:101BD0009A81E8DE24E030E0AE014F5F5F4F6CE0B9
:101BE00070E0F7018485CCDE87E293E0F801918311
:101BF000808389819A81AB81BC8182839383A48312
:101C0000B583C8010F900F900F900F90DF91CF9187
:101C10001F910F91FF90EF9008950F931F93CF9313
:101C2000DF931F921F92CDB7DEB7FC0124852830C9
:101C3000C0F48C01CE0101960E94334589819A81BE
:101C4000B1DE22E030E0AE014F5F5F4F64E070E054
:101C5000F801848595DE89819A81982789279827BC
:101C600002C080E090E00F900F90DF91CF911F9124
:101C70000F9108956F927F928F929F92AF92BF9231
:101C8000CF92DF92EF92FF921F93CF93DF931F9239
:101C90001F92CDB7DEB7FC011485183008F057C08D
:101CA0006A014130F8E05F0718F0C12C28E0D22E1D
:101CB0007A013B015C01CE0101960E943345898186
:101CC0009A8170DE812F4AD54C0163E070E0812F4C
:101CD000B2D6873111F08C3121F48C149D0458F365
:101CE00002C0C12CD12CCE0101960E9433458981BE
:101CF0009A8158DE9601A30160E070E0812FD8D56B
:101D000060E270E0812FB4D662E070E0812F93D65C
:101D100084FD14C063E070E0812F8DD6811106C070
:101D200081E090E0F5019383828311C0CE0101969A
:101D30000E94334589819A8135DEE6CF40E162E039
:101D400070E0812F5BD6CD2859F3C70102C080E037
:101D500090E00F900F90DF91CF911F91FF90EF9047
:101D6000DF90CF90BF90AF909F908F907F906F90BB
:101D70000895AF92BF92CF92DF92EF92FF920F93AE
:101D80001F93CF93DF931F921F92CDB7DEB78C01C5
:101D90006B015A01FC018485883050F40E9433178E
:101DA000882319F0F801848571D688E0F8018487CA
:101DB000F60182819381A481B5810097A105B105C7
:101DC00009F452C08F3F9F4FAF4FBF4F09F44CC033
:101DD00060E070E081E292D6F82EF8018487F7E0A7
:101DE000F81708F441C0CE0101960E94334589815D
:101DF0009A81D8DDA6014E5F5F4F24E030E06CE0B1
:101E000070E08F2D44D5B5018F2DCED564E070E004
:101E10008F2D2ED6D8D26B017C01F80184850E94CB
:101E20003317873121F18C3111F18823E9F0CBD2BE
:101E3000AB01BC014C195D096E097F09F80185856C
:101E40009685A0E0B0E084179507A607B70730F0A5
:101E500061E070E080E090E07ED2DFCFF801848521
:101E600031D688E0F801848780E090E002C081E00C
:101E700090E00F900F90DF91CF911F910F91FF9005
:101E8000EF90DF90CF90BF90AF9008950F931F9386
:101E9000CF93DF931F921F92CDB7DEB78C0187E2FD
:101EA00093E0F80191838083128213821482158259
:101EB000CE0101960E94334589819A8173DDB80174
:101EC0006E5F7F4F44E050E08FE090E0DCD2C801CD
:101ED0000F900F90DF91CF911F910F910895DC012A
:101EE00080E0615098F02D91982F9227E92FEF70A4
:101EF000F0E0EE5EFD4F249192959F70E92FF0E0A7
:101F0000EE5DFD4FE491822F8E27EBCF0895DF9297
:101F1000EF92FF920F931F93CF93DF93EC01D62E96
:101F2000E42E08E010E0FF24F39461E08D2D8F2172
:101F300009F460E0CE010E94A12DFF0C01501109AF
:101F4000A1F7E11010C0F894E981FA8191818881AC
:101F5000809589238183E981FA81928188818095A6
:101F6000892382837894DF91CF911F910F91FF9005
:101F7000EF90DF900895EF92FF920F931F93CF930E
:101F8000DF938C017B0140E065E5C1DFE70188E07C
:101F9000E80EF11C699140E0C801B9DFCE15DF05FC
:101FA000C9F7DF91CF911F910F91FF90EF900895A6
:101FB000FC0190810180F281E02DF8948181892BD0
:101FC00081832281892F809528232283A7E0B0E096
:101FD0001197F1F7218182238183A3E2B0E0119769
:101FE000F1F780817894EFECF0E03197F1F79823E6
:101FF00081E009F480E00895FC01918D228D892F04
:1020000090E0805C9F4F821B91098F739927089500
:1020100080E090E0892B21F00E944825811119C0B1
:1020200080E090E0892B21F00E943E25811114C0B0
:1020300080E090E0892B21F00E94342581110FC0AF
:1020400080E090E0892B81F00E942A2581110AC04E
:1020500008950E940000E4CF0E940000E9CF0E9492
:102060000000EECF0C94000008953FB7F8948091E3
:10207000D50B9091D60BA091D70BB091D80B26B56C
:10208000A89B05C02F3F19F00196A11DB11D3FBFB0
:10209000BA2FA92F982F8827820F911DA11DB11D3E
:1020A000BC01CD0142E0660F771F881F991F4A953A
:1020B000D1F70895FC0120812EBD9B0121503109EB
:1020C00041F051810DB407FEFDCF4EB55EBD419389
:1020D000F5CF61507109FC01E60FF71F0DB407FE43
:1020E000FDCF8EB580830895E091DB0BF091DC0B82
:1020F00090818091DA0B80958923808308958EBD2D
:1021000000000DB407FEFDCF8EB508952091DD0BC4
:1021100090E0233311F40C9601C04896982F990F44
:10212000990F990F80E008950E94BB59FF920F9379
:102130001F93CF93DF931F921F92CDB7DEB7F82E78
:1021400022E030E0AE014F5F5F4F66E270E018DCE6
:1021500009811A8110270127102722E030E0AE0103
:102160004F5F5F4F66E270E08F2D0ADC89819A81B4
:102170009827892798270817190711F08C01EDCFA8
:10218000C8010F900F90DF91CF911F910F91FF9099
:102190000895FC01848DDF01A80FB11DA35ABF4F24
:1021A0002C91848D90E001968F739927848FA68956
:1021B000B7892C93A089B1898C91837080648C93AA
:1021C000938D848D981306C00288F389E02D808159
:1021D0008F7D8083089590E0FC013197E231F10515
:1021E00008F04EC08827E658FF4F8F4F0C94BB581D
:1021F000809180008F7703C0809180008F7D8093D5
:102200008000089580918000877FF9CF84B58F7713
:1022100002C084B58F7D84BD08958091B0008F7712
:1022200003C08091B0008F7D8093B00008958091AD
:1022300090008F7707C0809190008F7D03C08091C0
:102240009000877F8093900008958091A0008F7701
:1022500007C08091A0008F7D03C08091A000877F80
:102260008093A0000895809120018F7707C080910E
:1022700020018F7D03C080912001877F8093200102
:1022800008951F93CF93DF93282F30E0F901EE5C80
:10229000FD4F8491F901E455FD4FD491F901EE50C1
:1022A000FD4FC491CC23B9F0162F811194DFEC2F90
:1022B000F0E0EE0FFF1FE858FD4FA591B4919FB7D6
:1022C000F894111104C08C91D095D82302C0EC91E0
:1022D000DE2BDC939FBFDF91CF911F910895CF93A9
:1022E000DF9390E0FC01E455FD4F2491FC01EE509A
:1022F000FD4F8491882361F190E0880F991FFC01C4
:10230000EE56FD4FC591D491FC01E858FD4FA591C3
:10231000B491611109C09FB7F894888120958223F8
:102320008883EC912E230BC0623061F49FB7F89440
:102330008881322F309583238883EC912E2B2C9328
:102340009FBF06C08FB7F894E8812E2B28838FBFDC
:10235000DF91CF9108958F929F92AF92BF92CF92CB
:10236000DF92EF92FF926B017C017FDE4B015C01FB
:10237000C114D104E104F104E9F077DEDC01CB0102
:1023800088199909AA09BB09883E9340A105B1059E
:1023900078F321E0C21AD108E108F10888EE880E2E
:1023A00083E0981EA11CB11CC114D104E104F10406
:1023B00021F7DECFFF90EF90DF90CF90BF90AF90EE
:1023C0009F908F9008952FB7F8946091D10B7091E2
:1023D000D20B8091D30B9091D40B2FBF08951F92F5
:1023E0000F920FB60F9211242F933F938F939F93C9
:1023F000AF93BF938091D10B9091D20BA091D30B4F
:10240000B091D40B3091D00B23E0230F2D3720F463
:102410000196A11DB11D05C026E8230F0296A11D3E
:10242000B11D2093D00B8093D10B9093D20BA0932E
:10243000D30BB093D40B8091D50B9091D60BA09178
:10244000D70BB091D80B0196A11DB11D8093D50B70
:102450009093D60BA093D70BB093D80BBF91AF91AD
:102460009F918F913F912F910F900FBE0F901F90D2
:102470001895E091DB0BF091DC0B90818091DA0BE9
:10248000892B80830895AF92BF92CF92DF92EF9213
:10249000FF920F931F93CF93DF9300D01F92CDB77E
:1024A000DEB78C016B017A018091DD0B8333C1F4BF
:1024B0005B016801C40ED51E0C151D0509F455C03D
:1024C00013DE8FE01CDE812F1ADE802F18DE0F5FF7
:1024D0001F4F80E014DEF50181935F01CADFECCF6E
:1024E0008433D1F401DE19830A838F2D8F778B8398
:1024F000EC8264E070E0CE010196DCDDA70160E0D3
:1025000070E0C6010E94D959E114F10419F0B70135
:10251000C601D0DDAEDF29C0E7DD0F3F110509F0B0
:1025200020F419820A831B821DC017FD0BC019827B
:102530000A8333E0169507953A95E1F7007E086027
:102540000B8310C0C80126E0969587952A95E1F780
:1025500019830A83807E0115104C10F4806101C03C
:1025600088618B8363E070E0C6CFC7010F900F9046
:102570000F900F90DF91CF911F910F91FF90EF90EF
:10258000DF90CF90BF90AF900895AF92BF92CF925F
:10259000DF92EF92FF920F931F93CF93DF93CDB70C
:1025A000DEB728970FB6F894DEBF0FBECDBF8C0103
:1025B0007B016A018091DD0B8333B1F45801A40ED5
:1025C000B51E0A151B0509F47DC08EDD80EF97DD71
:1025D000812F95DD802F93DD0F5F1F4FF7018191D4
:1025E0007F018DDD46DFEDCF8433F9F47DDD198386
:1025F0000A838D2D80688B83CC8264E070E0CE01ED
:10260000019658DD87010C0D1D1DE016F10659F0ED
:10261000F70181917F0173DDF8CFB6016D5F7F4FC8
:10262000CE01019647DD25DF4DC05EDD0F3F110570
:1026300009F020F419820A8384E01CC017FD0BC046
:1026400019820A8333E0169507953A95E1F7007EE3
:102650000C600B8310C0C80126E0969587952A95DB
:10266000E1F719830A83807E0115104C10F4846110
:1026700001C08C618B8326E0C216D10498F420E05F
:10268000822F90E08C159D0540F6E4E0F0E0EC0F21
:10269000FD1FE80FF91FD701A80FB91F8C91808388
:1026A0002F5FEECF63E070E0CE01019603DD87017E
:1026B0000C0D1D1DF70181917F0121DDE016F10652
:1026C000C9F7B1CFC60128960FB6F894DEBF0FBE8A
:1026D000CDBFDF91CF911F910F91FF90EF90DF90D1
:1026E000CF90BF90AF900895CF93DF931F92CDB757
:1026F000DEB741E050E0BE016F5F7F4F80E090E0C9
:10270000C2DE89810F90DF91CF910895CF93DF933F
:102710001F92CDB7DEB7898341E050E0BE016F5F05
:102720007F4F80E090E031DF0F90DF91CF910895EF
:10273000CF93DF9380E8EADFC4E1D0E0D5DF8823E0
:1027400049F061E070E080E090E005DE2197B1F7AC
:1027500080E001C081E0DF91CF910895EF92FF9278
:102760001F93CF93DF931F921F92CDB7DEB7182F21
:1027700022E030E0AE014F5F5F4F60E270E000D9D1
:10278000E980FA80FE24EF24FE2422E030E0AE014E
:102790004F5F5F4F60E270E0812FF2D889819A81AC
:1027A000982789279827E816F90611F07C01EDCFC4
:1027B00087E0189FF0011124E45EFF4EF582E48269
:1027C000C7010F900F90DF91CF911F91FF90EF9075
:1027D00008951F93CF93DF931F921F92CDB7DEB75B
:1027E000182FCE0101960E94334589819A81DAD84B
:1027F000812F8CDC27E0129FF0011124E45EFF4E54
:1028000022813381377041E050E0BE016F5F7F4F1E
:10281000820F931F38DEC5D889810F900F90DF910A
:10282000CF911F910895EF92FF920F931F93CF9333
:10283000DF931F921F92CDB7DEB7482F87E0489FE6
:1028400090011124F901E45EFF4E7F0180819181A6
:102850000097A1F4142FCE0101960E94334589817F
:102860009A81A0D8812F62DC8C019BD8F7018681E8
:102870009801281B3109C901318320830F900F90E3
:10288000DF91CF911F910F91FF90EF900895DA01A2
:102890009091DE0BE92FF0E0FE2FEE27E60FF71FF9
:1028A00090E0982F8827A901BD018E0F9F1F6DCE44
:1028B0007F928F929F92AF92BF92CF92DF92EF92D0
:1028C000FF920F931F93CF93DF931F921F92CDB769
:1028D000DEB7782E8B014A01590122E030E0AE01CB
:1028E0004F5F5F4F64E270E04BD8E980FA80FE24CE
:1028F000EF24FE24E00EF11E970137704091DD0BAE
:10290000072D10E0C801433311F4089601C040962A
:10291000982F8827990F990F990F820F931F47338C
:1029200019F4A501B4011FC0A9014A0D5B1D413076
:102930005840B8F360E078E06B01C21AD30AA601F0
:10294000B40123DEA5014C195D09B4016C0D7D1D98
:102950008091DD0B833329F5085F1F4F902F990F6E
:10296000990F990F80E011DEEA0CFB1CF982EA82D4
:1029700022E030E0AE014F5F5F4F64E270E0872DF0
:1029800086DF0F900F90DF91CF911F910F91FF90F5
:10299000EF90DF90CF90BF90AF909F908F907F90FF
:1029A0000895005F1F4FDACFCF93DF931F921F92DE
:1029B000CDB7DEB779836A8322E030E0AE014F5FA6
:1029C0005F4F60E170E063DF0F900F90DF91CF9178
:1029D0000895CF93DF931F921F92CDB7DEB779830F
:1029E0006A8322E030E0AE014F5F5F4F64E070E049
:1029F0004EDF0F900F90DF91CF910895CF93DF932B
:102A00001F92CDB7DEB79091DE0B292F30E0322F29
:102A10002227260F371F90E0982F8827498341E00F
:102A200050E0BE016F5F7F4F820F931FAEDD0F90AE
:102A3000DF91CF910895CF93DF931F92CDB7DEB78B
:102A40009091DE0B292F30E0322F2227260F371FDF
:102A500090E0982F882741E050E0BE016F5F7F4FE4
:102A6000820F931F10DD89810F90DF91CF91089520
:102A7000CF93C82F462F61E070E0C0DF61E070E0C7
:102A80008C2FD9DF8111FACFCF9108951F93CF9367
:102A9000DF931F921F92CDB7DEB7182FCE0101969C
:102AA0000E94334589819A810E94D20C68E070E0CF
:102AB000812FDEDF0E94D10C0F900F90DF91CF911C
:102AC0001F9108951F93CF93DF931F921F92CDB74D
:102AD000DEB7182FCE0101960E94334589819A8175
:102AE0000E94D20C60E170E0812FC2DF0E94D10C05
:102AF0000F900F90DF91CF911F9108958F929F9229
:102B0000BF92CF92DF92EF92FF920F931F93CF93DA
:102B1000DF93CDB7DEB72A970FB6F894DEBF0FBEAE
:102B2000CDBF9091DD0B992309F48CC0933319F03C
:102B300028E0B22E02C094E0B92E6B01082FCE011E
:102B400001960E94334589819A810E94D20C9E0190
:102B50002F5F3F4F7901490110E063E070E0812F62
:102B60006ADFF40181934F018823C1F01F5FB11226
:102B7000F4CF10E0F70191917F019D3159F0983128
:102B800049F09A51923030F01F5FB112F3CF0E949A
:102B9000D10C58C060E170E0812F6ADFE12EF12C8A
:102BA00083EE93E00197F1F7402F60E070E0812F12
:102BB00025DF4FEF62E070E0812F20DFC114D104E8
:102BC00011F0B60113C080910002909101020196AC
:102BD0008115F0EC9F0710F480E090EC90930102D7
:102BE000809300026091000270910102812FF1DE5A
:102BF00061E070E0812F3CDF27E02E9DC0012F9D1A
:102C0000900D11249C01245E3F4E7901F90111823F
:102C1000108222E030E0AE01475F5F4F68E270E073
:102C2000812F0E94C00C89859A859827892798272B
:102C3000F701938382831682158214820E94D10C3D
:102C4000812F01C088E02A960FB6F894DEBF0FBE30
:102C5000CDBFDF91CF911F910F91FF90EF90DF904B
:102C6000CF90BF909F908F900895FF920F931F93E6
:102C7000CF93DF931F921F92CDB7DEB7F82ECE0110
:102C800001960E94334589819A810E94D20C8F2D32
:102C900065DD8C0163E070E08F2DCDDEF82E0E94A3
:102CA000D10C87E1F81631F08CE1F81619F080E0CC
:102CB00090E001C0C8010F900F90DF91CF911F915C
:102CC0000F91FF9008954F925F927F928F929F9203
:102CD000AF92BF92CF92DF92EF92FF920F931F932A
:102CE000CF93DF931F921F92CDB7DEB7782E6B0183
:102CF0004A01A82EB12C27E0829FC0011124AC010B
:102D0000445E5F4E7A01FA0100811181CE01019685
:102D10000E94334589819A810E94D20C08151905B9
:102D20004CF4872D03DAF70126818C01021B11096F
:102D30001183008301151105A1F463E070E0872D74
:102D40007ADE843109F47AC0882309F477C001E07F
:102D500010E08C3111F400E010E01195019511099B
:102D60006DC0801691060CF4840187E08A9DF00105
:102D70008B9DF00D1124E45EFF4EE280F380C114C0
:102D8000D10439F12701F7E05F22872DBFD9840DE7
:102D9000951D2091DD0B273319F4A801B60118C049
:102DA0009801240D351D21303840B8F320E038E07B
:102DB000490184189508A401B60165DB2601480C79
:102DC000591C6801C818D908872DA0D9A601B201DD
:102DD0005ADBE00EF11E87E08A9DF0018B9DF00D1D
:102DE0001124E45EFF4EF382E28280819181801B98
:102DF000910B918380832681A801420F511D4A3F88
:102E0000510510F4892BC9F487E08A9DF0018B9D50
:102E1000F00D1124E45EFF4E1682F982EA8222E070
:102E200030E0AE014F5F5F4F68E270E0872D2FDD2D
:102E300060E470E0872D1CDE01C046830E94D10C47
:102E4000C8010F900F90DF91CF911F910F91FF90CC
:102E5000EF90DF90CF90BF90AF909F908F907F903A
:102E60005F904F9008951F93CF93DF931F921F920F
:102E7000CDB7DEB7182FCE0101960E943345898168
:102E80009A810E94D20C63E070E0812FD4DD182F6C
:102E90000E94D10C812F0F900F90DF91CF911F9145
:102EA0000895A091800FB091810F1097B9F02091F3
:102EB0007C0F222399F04091840F5091850F20E0E0
:102EC00030E02417350754F4ED91FD916281738150
:102ED0006817790729F02F5F3F4FF3CFE0E0F0E06C
:102EE000CF0108958F929F92AF92BF92CF92DF92BF
:102EF000EF92FF920F931F93CF93DF9300D000D0F8
:102F0000CDB7DEB78C015B016C0182E0C80ED11C2D
:102F1000C6010E944305D8011296ED91FC911397CA
:102F200080818B3521F08B3709F487C01DC1F801F2
:102F30008681882309F46CC081508683E080F1800B
:102F4000B70184E090E00E946907009709F430C15E
:102F5000FC01F182E082138212827C016BE5C601E2
:102F60000E948505882309F453C06DE5C6010E94BF
:102F70008505811145C01A821982BE016F5F7F4F9E
:102F8000C801B0DF882309F443C0D7016D917C915B
:102F900088E090E00E946907DC01892B39F01196E6
:102FA0001C921E9213961C921E921297F701228178
:102FB00033812115310551F0F9018081918100970C
:102FC00011F09C01F9CFB183A08303C0F701B38353
:102FD000A2831097E9F086E0FE01319612960190E7
:102FE0000D928A95E1F76DE5C6010E948505811174
:102FF00007C06CE2C6010E9485058111BCCF08C0E4
:10300000D80116968C9116978F5F16968C9303C0F5
:103010000E9457077C01F70180819181892B11F46F
:10302000F12CCCC086E090E0D50111969C938E9354
:103030001396FC92EE921297B8C0F801868188230D
:1030400009F481C081508683E080F180B70184E07B
:1030500090E00E946907009709F4ADC0FC01F1827D
:10306000E082138212827C016BE7C6010E94850513
:10307000882309F468C06DE7C6010E9485058111A7
:103080005DC0C8010E949A054C01892B09F45BC000
:103090006AE3C6010E948505882309F454C01A8298
:1030A0001982BE016F5F7F4FC8011CDF882309F4BE
:1030B0004AC0B401C7010E944A06009749F5D701EA
:1030C0006D917C918AE090E00E946907009729F059
:1030D000FC011182108215821482D7011296ED91A3
:1030E000FC911397309751F02081318121153105E2
:1030F00011F0F901F9CF9183808303C0F701938325
:103100008283009701F1DC0113969C928E921297B4
:1031100026E0FE013196DC01149601900D922A956D
:10312000E1F76DE7C6010E948505811107C06CE2D9
:10313000C6010E9485058111A4CF05C0F8018681D2
:103140008F5F868303C00E9445077C01D7018D9164
:103150009C91892B09F464CF87E090E0F50191837D
:103160008083F382E28221C0FF24F394873219F036
:10317000823209F0F12CC8010E949A05009709F4E7
:103180004FCFFF2059F022E030E0D50111963C935B
:103190002E9313969C938E93129710C021E030E0EB
:1031A000F5013183208393838283FF24F39406C047
:1031B0000E945707D2CE0E94450755CF8F2D2696E5
:1031C0000FB6F894DEBF0FBECDBFDF91CF911F9138
:1031D0000F91FF90EF90DF90CF90BF90AF909F90B6
:1031E0008F900895EF92FF920F931F93CF93DF93E9
:1031F000CDB7DEB7CE5CD1090FB6F894DEBF0FBEF7
:10320000CDBF8C01FC018185882331F18091680F4D
:10321000882309F488C08481803521F4C8010E9484
:10322000613081C0823509F44BC040F4813371F0C4
:10323000823409F078C024EE34E044C0843549F08B
:10324000823609F070C022E934E03CC02DEB34E056
:1032500039C02CEA34E036C0F801628173814AE05B
:10326000CE018B599F4F0E94EA4266EF74E0CE0177
:1032700087539F4F0E948C43BE016B597F4FCE01F5
:1032800087539F4F0E949C4264E075E00E948542F4
:10329000BC01CE0101960E948443CE0101960E949A
:1032A000FB47CE0101960E94E542CE0187539F4F16
:1032B0000E94E542CE018B599F4F0E94E54233C0E8
:1032C00023ED34E0F80193819F9392819F931F92A5
:1032D0008F9388E195E09F938F933F932F938AE19B
:1032E00095E09F938F937E01F5E6EF0EF11CFF9220
:1032F000EF920E94FE59F80180858F9387818F930A
:1033000085E295E09F938F938E010F5F1F4F1F9370
:103310000F930E94FE59B801C70182D70FB6F894E7
:10332000DEBF0FBECDBFC253DF4F0FB6F894DEBF76
:103330000FBECDBFDF91CF911F910F91FF90EF9006
:103340000895CF92DF92EF92FF920F931F93CF9346
:10335000DF93CDB7DEB7AE970FB6F894DEBF0FBEE2
:10336000CDBF8C016B01DC018D919C91009719F010
:103370000E940F5303C060E070E0CB011CA21BA2AF
:103380001EA21DA218A61FA22AE0AE014F5F5F4F2A
:103390000E945153BE016F5F7F4FCE0183960E9402
:1033A000BB4268E275E0CE0189960E948C43B80169
:1033B000CE0189960E949C4266E375E00E94854298
:1033C000BE016D5D7F4F0E949C4268E375E00E94E4
:1033D0008542BC01CE0101960E948443CE01019634
:1033E0000E94FB47CE0101960E94E542CE018996DC
:1033F0000E94E542CE0183960E94E542F801808159
:103400009181009719F00E940F5303C060E070E0B3
:10341000CB01CB0146DD8C01009709F442C0DC01F1
:1034200012966D917C9113974AE0CE0183960E948B
:10343000EA426AE375E0CE0189960E948C43BE01A0
:103440006D5D7F4FCE0189960E949C42BC01CE01EA
:1034500001960E948443CE0101960E94FB47CE0153
:1034600001960E94E542CE0189960E94E542CE0176
:1034700083960E94E54281E0F80181870190F08106
:10348000E02DE284F384D6018D919C91009719F090
:103490000E940F5303C060E070E0CB01C801F70148
:1034A0001995AE960FB6F894DEBF0FBECDBFDF9173
:1034B000CF911F910F91FF90EF90DF90CF900895E3
:1034C0004F925F926F927F928F929F92AF92BF9234
:1034D000CF92DF92EF92FF920F931F93CF93DF93E0
:1034E000CDB7DEB762970FB6F894DEBF0FBECDBF83
:1034F0005C01562EC12CD12C9EE5692E92E0792ECE
:10350000442443948091860F9091870FC816D90662
:103510000CF0C1C18601000F111FE091820FF091E4
:10352000830FE00FF11FE080F180D70112968D919B
:103530009C9113978A159B0509F0A9C115968C914A
:103540008511A5C165EF73E0CE0107960E948C43FB
:1035500066E475E0CE0107960E94BB4268E078E021
:10356000CE0107960E94AD42F701608171814AE069
:10357000CE0101960E94EA42BE016F5F7F4FCE01ED
:10358000079636D6CE0101960E94E5426EE475E0BC
:10359000CE0107960E94AD424AE0D70115966C9184
:1035A000CE0101960E944043BE016F5F7F4FCE0166
:1035B00007961ED6CE0101960E94E54266E575E0AB
:1035C000CE0107960E94AD42F701628173814AE005
:1035D000CE0101960E94EA42BE016F5F7F4FCE018D
:1035E000079606D6CE0101960E94E54261E675E097
:1035F000CE0107960E94AD42D70114966C91CE0180
:1036000001960E946C43BE016F5F7F4FCE0107960B
:10361000EFD5CE0101960E94E5426EE675E0CE013F
:1036200007960E94AD42F701608571854AE0CE01A0
:1036300001960E941543BE016F5F7F4FCE01079632
:10364000D7D5CE0101960E94E5426DE775E0CE0127
:1036500007960E94AD42D70116966D917C911797FF
:103660004AE0CE0101960E94EA42BE016F5F7F4FA1
:10367000CE010796BDD5CE0101960E94E54268E8CD
:1036800075E0CE0107960E94AD42F7016285CE013A
:1036900001960E946C43BE016F5F7F4FCE0107967B
:1036A000A7D5CE0101960E94E54265E975E0CE01FD
:1036B00007960E94AD42BE01695F7F4FCE01019621
:1036C0000E948443BE016F5F7F4F85E090E00E94BF
:1036D000A047CE0101960E94E542CE0107960E94C6
:1036E000E542C501DEDB009709F49AC0DC01ED91EB
:1036F000FC910088F189E02D45E050E069E975E032
:103700001995E091820FF091830FE00FF11F8080F7
:103710009180F40186819781C4DB7C01009721F1BF
:10372000DC01ED91FC910088F189E02D45E050E04D
:1037300061EA75E019958091820F9091830FFC01E9
:10374000E00FF11F0190F081E02D8285823509F0B4
:103750009EC060857185D701ED91FC910284F3854F
:10376000E02DC701199593C0F401608171814AE091
:10377000CE0107960E94EA4265E775E0CE010D96FC
:103780000E948C43BE01695F7F4FCE010D960E945F
:103790009C426AEA75E00E948542BC01CE01019616
:1037A0000E948443CE0101960E941748CE010196E3
:1037B0000E94E542CE010D960E94E542CE01079699
:1037C0000E94E5428AE090E00E944850FC018AE0B5
:1037D000DF011D928A95E9F7118671826082A091BE
:1037E000820FB091830F0A0F1B1FD8018D919C91FE
:1037F000DC0116962D913C911797338322831A96FC
:103800008C918483D8018D919C91DC0118968D91C7
:103810009C911997908787834186CF01E3DC37C05D
:103820008091820F9091830FFC01E00FF11F0190B6
:10383000F081E02D608171814AE0CE0107960E94FF
:10384000EA4265E775E0CE010D960E948C43BE0109
:10385000695F7F4FCE010D960E949C426DEB75E033
:103860000E948542BC01CE0101960E948443CE0194
:1038700001960E941748CE0101960E94E542CE01B2
:103880000D960E94E542CE0107960E94E542BFEFE9
:10389000CB1ADB0A37CE62960FB6F894DEBF0FBEA6
:1038A000CDBFDF91CF911F910F91FF90EF90DF90EF
:1038B000CF90BF90AF909F908F907F906F905F90D0
:1038C0004F9008951F93CF93DF93EC01162F6F83D2
:1038D000788788DC612F8A819B81DF91CF911F914E
:1038E000EFCDEF92FF920F931F93CF93DF93CDB75E
:1038F000DEB7C55FD1090FB6F894DEBF0FBECDBFEE
:103900009E01275F3F4F3C832B8328EC30E03E83B2
:103910002D8318861F8228E532E03A832983FC0133
:1039200080819181009711F485EF93E09E012F5FD4
:103930003F4FCF52DF4F39832883C15DD040CD52F6
:10394000DF4F99838883C35DD040CB52DF4F3983EB
:103950002883C55DD0408AE0C952DF4F8883C75DA8
:10396000D040C852DF4F19821882C85DD040BE01D6
:1039700068527F4FCE018F529F4FB4DA86E0FE012E
:10398000E852FF4FDE01AC51BF4F01900D928A9576
:10399000E1F786E0FE01EC51FF4FDE01A651BF4F7B
:1039A00001900D928A95E1F786E0FE01E651FF4F06
:1039B000DE01A051BF4F01900D928A95E1F7C051F1
:1039C000DF4F88819981C05FD040079739F4CE508E
:1039D000DF4F08811981C25FD04003C00E944507B4
:1039E0008C0160ED75E0C8010E941207882309F47C
:1039F000B0C060ED75E0C8010E940A074AE0BC0152
:103A0000CE0188529F4F0E94154367ED75E0CE01AD
:103A10008F529F4F0E948C43BE0168527F4FCE0150
:103A20008F529F4F0E949C42BC01CE0182529F4FF9
:103A30000E948443CE0182529F4F0E94FB47CE01D9
:103A400082529F4F0E94E542CE018F529F4F0E94AB
:103A5000E542CE0188529F4F0E94E54260ED75E03D
:103A6000C8010E940A079093870F8093860F1092D7
:103A7000930F1092920F8091820F9091830F892B58
:103A8000F1F000E010E02091860F3091870F8091D7
:103A9000820F9091830F021713077CF49801220F75
:103AA000331FFC01E20FF31F80819181009711F019
:103AB0000E94E0500F5F1F4FE6CF0E94E0506091E0
:103AC000860F7091870F4AE0CE0188529F4F0E9467
:103AD00015436FED75E0CE018F529F4F0E948C43CE
:103AE000BE0168527F4FCE018F529F4F0E949C4271
:103AF000BC01CE0182529F4F0E948443CE0182526C
:103B00009F4F0E94FB47CE0182529F4F0E94E54289
:103B1000CE018F529F4F0E94E542CE0188529F4FA7
:103B20000E94E5428091860F9091870F8138FFE3D4
:103B30009F0718F4880F991F02C08FEF9FEF0E9414
:103B400048509093830F8093820F81E08093D90B2C
:103B500021C18091D90B882309F41CC16FEE75E057
:103B6000C8010E941207882309F414C18BE090E079
:103B70000E9448502BE0FC0111922A95E9F7209110
:103B8000920F3091930F220F331FE091820FF0912B
:103B9000830FE20FF31F918380838091820F9091B6
:103BA000830FFC01E20FF31F80819181892B09F4BF
:103BB000CDC06FEE75E0C8010E9412078823B1F0F6
:103BC000E091920FF091930FEE0FFF1F8091820F03
:103BD0009091830FE80FF91FE080F1806FEE75E0A0
:103BE000C8010E94B506F7019183808362EF75E0FA
:103BF000C8010E9412078823B1F0E091920FF09162
:103C0000930FEE0FFF1F8091820F9091830FE80FAB
:103C1000F91FE080F18062EF75E0C8010E94B506EF
:103C2000F701938382836BEF75E0C8010E9412074E
:103C30008823B9F0E091920FF091930FEE0FFF1FE0
:103C40008091820F9091830FE80FF91FE080F1803F
:103C50006BEF75E0C8010E943D07FC018081F70110
:103C6000848366E076E0C8010E9412078823A9F0E9
:103C7000E091920FF091930FEE0FFF1F8091820F52
:103C80009091830FE80FF91FE080F18066E076E005
:103C9000C8010E947106F70185836CE076E0C801D7
:103CA0000E9412078823B1F0E091920FF091930FD8
:103CB000EE0FFF1F8091820F9091830FE80FF91F85
:103CC000E080F1806CE076E0C8010E94B506F70163
:103CD0009783868365E176E0C8010E9412078823F6
:103CE000B9F0E091920FF091930FEE0FFF1F8091CA
:103CF000820F9091830FE80FF91FE080F18065E15A
:103D000076E0C8010E94710690E0F70191878087F4
:103D100062E276E0C8010E9412078823B9F0E091C0
:103D2000920FF091930FEE0FFF1F8091820F9091F1
:103D3000830FE80FF91FE080F18062E276E0C801AE
:103D40000E943D07FC018081F70182878091920FDC
:103D50009091930F01969093930F8093920F2091DF
:103D6000860F3091870F82179307A1F46DE276E0FA
:103D7000CE018F529F4F0E948C43CE018F529F4F96
:103D80000E94FB47CE018F529F4F0E94E54281E087
:103D900080937D0FCB50DF4F0FB6F894DEBF0FBE80
:103DA000CDBFDF91CF911F910F91FF90EF900895BC
:103DB000CF92DF92EF92FF920F931F93CF93DF93F7
:103DC000CDB7DEB7C654D1090FB6F894DEBF0FBE2B
:103DD000CDBFFC0182819381A481B58123968CAFF4
:103DE0009DAFAEAFBFAF239721E023962FAF2397B0
:103DF00023964CAD5DAD6EAD7FAD23974BAB5CAB09
:103E00006DAB7EAB89AF9AAFABAFBCAF8DA79EA7B2
:103E1000AFA7B8AB28AB4DA55EA56FA578A94FA3FA
:103E200058A769A77AA72EAB4BA95CA96DA97EA953
:103E300049A35AA36BA37CA38B8F9C8FAD8FBE8F9E
:103E400047E253E05C8B4B8B3FEF3D8B3E8B3F8BD0
:103E5000188E5E874D872AA7CFA0D8A4E9A4FAA41C
:103E6000CF86D88AE98AFA8A2CA309A11AA12BA1A4
:103E70003CA109871A872B873C875A8349838B8308
:103E80009C83AD83BE838091E00B81110DC160E303
:103E900072E080E090E00E94AB111FB7F89480912F
:103EA000DF0B811127C0E7E2F3E08491E1EEF2E05D
:103EB0009491E82FF0E0EE0FFF1FEE56FD4FA59115
:103EC000B491EC91E92321F461E085E30E94411172
:103ED00061E085E30E946F118CB580618CBD8CB56B
:103EE00080648CBD61E084E30E946F1161E083E334
:103EF0000E946F118091DF0B8F5F8093DF0B1FBFDC
:103F0000ECEFF2E0E491F0E0EE0FFF1FE858FD4F18
:103F1000859194919093DC0B8093DB0BE6EBF2E0C0
:103F2000E491E093DA0B61E08AE00E946F110E9455
:103F30003912CE018D5B9F4F0E94334525968EAD81
:103F40009FAD25970E94D20C84E38093DD0B0E94E5
:103F50009813882319F188E00E9486130E94741335
:103F60008830E1F480E10E9486130E94741380314E
:103F7000A9F480E00E9486130E94741381110EC080
:103F800041E050E0BE016D5B7F4F8FE190E00E9409
:103F9000431224968FAD24978330A1F187E3809359
:103FA000DD0B0E949813882309F440C088E00E942A
:103FB00086130E9474138830C9F580E10E9486132D
:103FC0000E947413182F803189F580E00E948613B7
:103FD0000E94741381112AC041E050E0BE016D5B64
:103FE0007F4F89E390E00E94431224968FAD24977F
:103FF0008430E1F41093DE0B0E94D10C81E08093B9
:10400000E00B52C080E48093DE0B10E042E06EE1F2
:1040100070E0812F0E94FE1442E06FE170E0812F7A
:104020000E94FE141F5F183089F7E6CF83E3809368
:10403000DD0B0E949813882391F180E10E94861382
:104040000E947413803159F582E10E9486130E9408
:104050007413823121F580E00E9486130E9474134C
:1040600081111DC084E08093DE0B15E527961FAFFC
:10407000279741E050E0BE016A5B7F4F8BE190E003
:104080000E94C51226961FAF269741E050E0BE0160
:104090006B5B7F4F8AE190E00E94C512ADCF10921A
:1040A000DD0B0E94D10C3EC0CE018D5B9F4F0E9464
:1040B000334525968EAD9FAD25970E94D20C46E0E4
:1040C00050E060E77FE089E090E00E94C51244E0A4
:1040D00050E0BE016D5F7F4F8FE090E00E94C512FF
:1040E00044E050E0BE01615F7F4F81E090E00E94BC
:1040F000C51244E050E0BE016B5E7F4F85E090E06A
:104100000E94C5120E94D10C81E08C8789859A8516
:10411000AB85BC858093A80E9093A90EA093AA0EA0
:10412000B093AB0ECA5BDF4F0FB6F894DEBF0FBE85
:10413000CDBFDF91CF911F910F91FF90EF90DF9056
:10414000CF900895EF92FF920F931F93CF93DF9339
:10415000CDB7DEB727970FB6F894DEBF0FBECDBF41
:104160008C01FB01498382818A8383818B838481D3
:104170008C8385818D831E82FE0131969E01295F8D
:104180003F4F80E090E07F014191840F911DE21745
:10419000F307D1F78F83D8018D919C91DC01ED91CC
:1041A000FC910084F185E02D1995F801A081B18181
:1041B000ED91FC911197892B31F00284F385E02D6C
:1041C000CD011995E8CF0280F381E02D47E050E062
:1041D000B701CD01199527960FB6F894DEBF0FBE33
:1041E000CDBFDF91CF911F910F91FF90EF90089578
:1041F000FB0144815581608171810C94584260E7D4
:1042000077E180E090E00E94AB1198E288E10FB680
:10421000F894A895809360000FBE90936000089575
:10422000EF92FF920F931F93CF93DF93CDB7DEB73B
:1042300068970FB6F894DEBF0FBECDBF8C017B012F
:10424000CE0107960E948C43B801CE010D960E94C4
:104250008C4361E576E0CE0143960E948C43BE011B
:10426000635F7F4FCE0143960E949C4266E274E0FA
:104270000E948542BE01695F7F4F0E949C42BC0143
:10428000CE0101960E948443CE0101960E94FB4715
:10429000CE0101960E94E542CE0143960E94E5427E
:1042A000CE010D960E94E542CE0107960E94E5429E
:1042B000B701C8010E94A74468960FB6F894DEBF04
:1042C0000FBECDBFDF91CF911F910F91FF90EF9067
:1042D00008958F929F92AF92BF92CF92DF92EF920A
:1042E000FF920F931F93CF93DF93CDB7DEB7CC57D9
:1042F000D1090FB6F894DEBF0FBECDBF82EB9EE0B2
:104300000E94ED388111A7C18091670F811133C0E0
:104310004091E10B5091E20B6091E30B7091E40B43
:10432000CE018B599F4F0E9474476BE576E0CE011A
:1043300085599F4F0E948C43BE016B597F4FCE0120
:1043400085599F4F0E949C42BC01CE0101960E945C
:104350008443CE0101960E941748CE0101960E9427
:10436000E542CE0185599F4F0E94E542CE018B590F
:104370009F4F0E94E542C090E10BD090E20BE0908D
:10438000E30BF090E40BC114D104E104F104A1F0BB
:104390008091530F9091540FA091550FB091560FEB
:1043A000C80ED91EEA1EFB1E0E94E311C616D706D0
:1043B000E806F90608F04FC10E94E311AB01BC0109
:1043C000CE018B599F4F0E9474474091530F5091DB
:1043D000540F6091550F7091560F8091E10B9091A1
:1043E000E20BA091E30BB091E40B480F591F6A1F39
:1043F0007B1FCE0185599F4F0E9474474091E10B6E
:104400005091E20B6091E30B7091E40BCE018F5859
:104410009F4F0E94744761EA76E0CE0189589F4F12
:104420000E948C43BE016F587F4FCE0189589F4F29
:104430000E949C4266E674E00E948542BE01655976
:104440007F4F0E949C4266E674E00E948542BE0156
:104450006B597F4F0E949C42BC018E010F5F1F4F22
:10446000C8010E948443C8010E94FB47C8010E9402
:10447000E542CE0189589F4F0E94E542CE018F58F8
:104480009F4F0E94E542CE0185599F4F0E94E54211
:10449000CE018B599F4F0E94E542E0906A0FF09049
:1044A0006B0F82EB9EE00E94ED38811190C060910D
:1044B0004B0F70914C0F8091B60E9091B70E4091BA
:1044C0004D0F50914E0FDC01ED91FC91611571057E
:1044D00009F4D1C00088F189E02D1995813091054A
:1044E00009F008C19093390F8093380F87E0E6E810
:1044F000F2E0D80101900D928A95E1F7F801ADEB59
:10450000BEE0CE01089621912D938E179F07D9F713
:1045100082E08093C40E1092C50E8FE08093C60E89
:10452000F70101900020E9F7CF018E199F0940960D
:104530008138910508F0D2C04FE050E068EB7EE092
:10454000C7010E941E44AC014550510968EB7EE052
:1045500080E10E943E440E94E31160933A0F709301
:104560003B0F80933C0F90933D0F60933E0F7093F1
:104570003F0F8093400F9093410F8091B60E909122
:10458000B70EDC01ED91FC910084F185E02D1995C9
:10459000892B09F485C0CE018B599F4F0E94394564
:1045A000049709F09BC08091BB0E811192C00E94BC
:1045B000E31160933E0F70933F0F8093400F9093F1
:1045C000410F1092420F1092520F1092510F80E142
:1045D00097E2A0E0B0E08093530F9093540FA09324
:1045E000550FB093560F1092E10B1092E20B109200
:1045F000E30B1092E40B8091690F1F928F9388E672
:1046000096E09F938F931F930F930E94FE59C801CA
:104610000E9433488091690F1F928F9388E896E03B
:104620009F938F931F930F930E94FE59C8010E947E
:1046300033481092670F0FB6F894DEBF0FBECDBFA0
:1046400080917C0F8111EED082EB9EE00E94ED38CC
:1046500081110E942A4681E04091E10B5091E20BCA
:104660006091E30B7091E40B452B462B472B09F42B
:1046700093C080E091C00684F785E02D27E233E007
:104680003A8329838090470F9090480FA090490F5C
:10469000B0904A0F8B829C82AD82BE82B8011DCF42
:1046A0000E94E311C0903E0FD0903F0FE090400F6A
:1046B000F090410FDC01CB018C199D09AE09BF09B7
:1046C00088399A43A105B10508F457CF8CEF9FEFC5
:1046D00001C090E09093520F8093510F8091B60EDD
:1046E0009091B70EDC01ED91FC910488F589E02DE5
:1046F000199506C08EEF9FEF9093520F8093510F44
:104700008091530F9091540FA091550FB091560F77
:10471000880F991FAA1FBB1F8093530F9093540FAC
:10472000A093550FB093560F6091510F7091520F97
:104730004AE0CE018B599F4F0E94154360EB76E013
:10474000CE0185599F4F0E948C43BE016B597F4F0C
:10475000CE0185599F4F0E949C42BC01C8010E9416
:104760008443C8010E941748C8010E94E542CE0157
:1047700085599F4F0E94E542CE018B599F4F0E9461
:10478000E5420E94E3116093E10B7093E20B80938A
:10479000E30B9093E40B5FCFC458DF4F0FB6F89450
:1047A000DEBF0FBECDBFDF91CF911F910F91FF9064
:1047B000EF90DF90CF90BF90AF909F908F90089533
:1047C000CF93DF9300D000D0CDB7DEB78091680FD4
:1047D0008823F9F07EDD882371F082EB9EE00E9451
:1047E000ED38811103C06CEB76E007C00E942A46C9
:1047F00081110FC0F8CF68EC76E0CE0101960E94DF
:104800008C43CE0101960E941748CE0101960E946A
:10481000E54226960FB6F894DEBF0FBECDBFDF91FE
:10482000CF910895BF92CF92DF92EF92FF920F93B4
:104830001F93CF93DF9300D000D0CDB7DEB76DEDDF
:1048400076E0CE0101960E948C43CE0101960E9433
:10485000FB47CE0101960E94E54200E010E0809106
:10486000840F9091850F081719073CF4C8010E9426
:10487000A748A6DF0F5F1F4FF2CF62E370E080E032
:1048800090E00E94AB1100E010E0BB24B394809153
:10489000840F9091850F081719079CF591DF680127
:1048A000CC0CDD1C95E0E92EF12CE091800FF0910D
:1048B000810FEC0DFD1D0190F081E02D8185882395
:1048C00071F0E091800FF091810FEC0DFD1D0190D2
:1048D000F081E02D8185811111C0B12C0FC0C8017C
:1048E0000E94A74862E370E080E090E00E94AB1174
:1048F00067DF81E0E81AF108C1F6E3CF0F5F1F4FD1
:10490000C6CFB1100EC062EF76E0CE0101960E94D4
:104910008C43CE0101960E941748CE0101960E9459
:10492000E54260E177E0CE0101960E948C43CE0122
:1049300001960E94FB47CE0101960E94E542269611
:104940000FB6F894DEBF0FBECDBFDF91CF911F91A0
:104950000F91FF90EF90DF90CF90BF900895FC01F2
:10496000538D448D252F30E0842F90E0821B930BD4
:10497000541710F0CF96089501970895FC01918D7A
:10498000828D981761F0828DDF01A80FB11D5D96B1
:104990008C91928D9F5F9F73928F90E008958FEF1F
:1049A0009FEF0895FC01918D828D981731F0828DD3
:1049B000E80FF11D858D90E008958FEF9FEF08952A
:1049C0008F929F92AF92BF92CF92DF92EF92FF921F
:1049D0000F931F93CF93DF937C01EB016C0182E077
:1049E000C80ED11C4701E5E08E0E911C00E010E0DE
:1049F000F60141916F0150E060E070E02AE0CE01E5
:104A00000E94FC415C01E881F9810190F081E02D78
:104A10006EE2CE0119958A0D9B1D080F191F8C148B
:104A20009D0431F7F701458150E060E070E02AE035
:104A3000CE010E94FC41800F911FDF91CF911F9109
:104A40000F91FF90EF90DF90CF90BF90AF909F902D
:104A50008F90089582E39CE00E94FC0F21E0892B57
:104A600009F420E0822F08958FEC9CE00E94FC0F57
:104A700021E0892B09F420E0822F08958CE69DE047
:104A80000E94FC0F21E0892B09F420E0822F089579
:104A900089E09EE00E94FC0F21E0892B09F420E0D0
:104AA000822F0895EF92FF920F931F93CF93DF937E
:104AB000EC0181E0888F9B8D8C8D981305C0E8896F
:104AC000F989808185FD26C0F62E0B8D10E00F5FE1
:104AD0001F4F0F731127E02E8C8DE8120CC00FB6FC
:104AE00007FCFACFE889F989808185FFF5CFCE01EF
:104AF0000E94C910F1CF8B8DFE01E80FF11DE35A22
:104B0000FF4FF0829FB7F8940B8FEA89FB89808171
:104B100080620AC09FB7F894EE89FF896083E889B4
:104B2000F98980818370806480839FBF81E090E0F9
:104B3000DF91CF911F910F91FF90EF900895CF9348
:104B4000DF93EC01888D8823C9F0EA89FB89808195
:104B500085FD05C0A889B9898C9186FD0FC00FB667
:104B600007FCF5CF808185FFF2CFA889B9898C91A8
:104B700085FFEDCFCE010E94C910E7CFDF91CF9125
:104B800008951F920F920FB60F9211240BB60F9239
:104B90002F933F934F935F936F937F938F939F9345
:104BA000AF93BF93EF93FF9382E39CE00E94C91001
:104BB000FF91EF91BF91AF919F918F917F916F91F5
:104BC0005F914F913F912F910F900BBE0F900FBEB1
:104BD0000F901F9018951F920F920FB60F921124ED
:104BE0000BB60F922F933F934F935F936F937F93E7
:104BF0008F939F93AF93BF93EF93FF9382E39CE0D8
:104C00000E94E341FF91EF91BF91AF919F918F91EE
:104C10007F916F915F914F913F912F910F900BBEBC
:104C20000F900FBE0F901F9018951F920F920FB606
:104C30000F9211240BB60F922F933F934F935F93D4
:104C40006F937F938F939F93AF93BF93EF93FF9354
:104C50008FEC9CE00E94C910FF91EF91BF91AF9142
:104C60009F918F917F916F915F914F913F912F9184
:104C70000F900BBE0F900FBE0F901F9018951F92B4
:104C80000F920FB60F9211240BB60F922F933F93F2
:104C90004F935F936F937F938F939F93AF93BF9344
:104CA000EF93FF938FEC9CE00E94E341FF91EF9123
:104CB000BF91AF919F918F917F916F915F914F9134
:104CC0003F912F910F900BBE0F900FBE0F901F9032
:104CD00018951F920F920FB60F9211240BB60F92D8
:104CE0002F933F934F935F936F937F938F939F93F4
:104CF000AF93BF93EF93FF938CE69DE00E94C910A2
:104D0000FF91EF91BF91AF919F918F917F916F91A3
:104D10005F914F913F912F910F900BBE0F900FBE5F
:104D20000F901F9018951F920F920FB60F9211249B
:104D30000BB60F922F933F934F935F936F937F9395
:104D40008F939F93AF93BF93EF93FF938CE69DE078
:104D50000E94E341FF91EF91BF91AF919F918F919D
:104D60007F916F915F914F913F912F910F900BBE6B
:104D70000F900FBE0F901F9018951F920F920FB6B5
:104D80000F9211240BB60F922F933F934F935F9383
:104D90006F937F938F939F93AF93BF93EF93FF9303
:104DA00089E09EE00E94C910FF91EF91BF91AF9101
:104DB0009F918F917F916F915F914F913F912F9133
:104DC0000F900BBE0F900FBE0F901F9018951F9263
:104DD0000F920FB60F9211240BB60F922F933F93A1
:104DE0004F935F936F937F938F939F93AF93BF93F3
:104DF000EF93FF9389E09EE00E94E341FF91EF91E2
:104E0000BF91AF919F918F917F916F915F914F91E2
:104E10003F912F910F900BBE0F900FBE0F901F90E0
:104E200018950C94E0500C94E0501F93CF93DF93AF
:104E3000EC01162F6F8378870E94F218612F8A8108
:104E40009B81DF91CF911F910C94601A0895089572
:104E50000F931F93CF93DF931F921F92CDB7DEB7AF
:104E60008C01DC01ED91FC918081918169831A8232
:104E700041E050E0BE016F5F7F4F0E945842F80151
:104E8000828193810196938382830F900F90DF91AB
:104E9000CF911F910F910895EF92FF920F931F935F
:104EA000CF93DF93EC0108811981D8018D919C91FA
:104EB000FC01E480F5800E94AD42D801ED91FC91A7
:104EC000248135818A819B81820F931F8E199F09CE
:104ED0009B838A83DF91CF911F910F91FF90EF9079
:104EE00008950F931F93CF93DF93CDB7DEB76697E7
:104EF0000FB6F894DEBF0FBECDBF9C01CB011E8A5A
:104F0000FE0176960AE010E0B8010E94A858805D84
:104F10008293CB010097C1F7BF01C901BDDF66963F
:104F20000FB6F894DEBF0FBECDBFDF91CF911F91BA
:104F30000F9108958F929F92AF92BF92CF92DF927E
:104F4000EF92FF920F931F93CF93DF93CDB7DEB70E
:104F500028970FB6F894DEBF0FBECDBF6C016EEA86
:104F600078E0CE0101960E948C43CE0101960E940A
:104F7000FB47CE0101960E94E5428EE090E00E9440
:104F800048507C01D60115961C9160E0812F0E944B
:104F90006F11812F90E0FC01E455FD4FE491D701A2
:104FA000EC93FC01EE50FD4FE491F0E0EE0FFF1F9B
:104FB000E85CFC4F85919491F7019283818313867D
:104FC000158614865701FBE0AF0EB11C470183E044
:104FD000880E911CF50112928E169F06E1F7D601FC
:104FE0001B96FC92EE921A9784E190E00E94485042
:104FF0008C01FC01F782E68214821582108289E01E
:10500000818381E082838383138A128AD6011F966B
:105010001C930E931E97F50112925F018E169F0648
:10502000D1F7FF24F394BE016F5F7F4FD80116962E
:105030008D919C9117970E944739882309F45BC092
:1050400067E0CE0101960E946F0F98858913EBCF20
:10505000F8018081811123C086819781A1D5BE018D
:105060006F5F7F4FD80116968D919C9117970E9484
:10507000BB0F40E064EBF801868197810E94870FA7
:10508000D80116968D919C9117970E94D80FE82E03
:10509000F8018681978184D5EE2009F448C0D801B3
:1050A0001196EC90BE016F5F7F4FC8010CD68E1534
:1050B00018F4F801818105C0BE016F5F7F4FC80100
:1050C00002D6D80111968C93119714968C9114974F
:1050D0008F5F14968C938981883261F130F480312E
:1050E00049F1823209F09FCF25C08B3319F1823408
:1050F00009F099CF1FC0C6010E94F218F60167811E
:10510000828193810E94601A28960FB6F894DEBFC0
:105110000FBECDBFDF91CF911F910F91FF90EF9008
:10512000DF90CF90BF90AF909F908F900895D8015F
:10513000FC92B5CFF80185818F5F858374CFCF92C4
:10514000DF92EF92FF920F931F93CF93DF93CDB730
:10515000DEB7C858D1090FB6F894DEBF0FBECDBF79
:105160007C018B016A01BC01CE0183589F4F0E94D4
:105170008C43B8018E010F5F1F4FC8010E948C4302
:10518000960140E050E0B801CE018D579F4F0E943C
:10519000A043C8010E94E54266EB7BE0CE018B593B
:1051A0009F4F0E948C43BE0163587F4FCE018B59A5
:1051B0009F4F0E949C426AEB78E00E948542BE01AC
:1051C0006D577F4F0E949C426DEB78E00E948542B4
:1051D000BC01C8010E948443C8010E94FB47C8016A
:1051E0000E94E542CE018B599F4F0E94E54280917B
:1051F000690F1F928F9388E696E09F938F931F937A
:105200000F930E94FE59B801C7010E94E0590F9008
:105210000F900F900F900F900F90892B71F4BE019B
:105220006D577F4FCE018B599F4F0E948443CE0113
:105230008B599F4F0E94FA3D25C08091690F1F92A4
:105240008F9388E896E09F938F931F930F930E940C
:10525000FE59B801C7010E94E0590F900F900F90BE
:105260000F900F900F90892B99F4BE016D577F4FCF
:10527000CE018B599F4F0E948443CE018B599F4F83
:105280000E942639CE018B599F4F0E94E54259C199
:1052900064EE74E0CE018B599F4F0E948C43BE0197
:1052A0006B597F4FCE0183589F4F0E942C39F82EA7
:1052B000CE018B599F4F0E94E542FF2089F0BE012D
:1052C0006D577F4FCE018F589F4F0E948443CF5719
:1052D000DF4F28813981C158D04043E150E08FC071
:1052E00063ED74E0CE018B599F4F0E948C43BE0149
:1052F0006B597F4FCE0183589F4F0E942C39F82E57
:10530000CE018B599F4F0E94E542F1103FC06DEBDB
:1053100074E0CE018B599F4F0E948C43BE016B59A4
:105320007F4FCE0183589F4F0E942C39F82ECE011B
:105330008B599F4F0E94E542FF2089F0BE016D57B7
:105340007F4FCE018F589F4F0E948443CF57DF4F2E
:1053500028813981C158D04047E150E050C06CEA03
:1053600074E0CE018B599F4F0E948C43BE016B5954
:105370007F4FCE0183589F4F0E942C39F82ECE01CB
:105380008B599F4F0E94E542FF2089F0BE016D5767
:105390007F4FCE018F589F4F0E948443CF57DF4FDE
:1053A00028813981C158D04042E150E028C06FEBDC
:1053B00078E0CE018B599F4F0E948C43BE016B5900
:1053C0007F4FCE0183589F4F0E942C39F82ECE017B
:1053D0008B599F4F0E94E542FF2009F443C0BE0154
:1053E0006D577F4FCE018F589F4F0E948443CF57F8
:1053F000DF4F28813981C158D04046E150E0BE01DD
:1054000063587F4FCE0189589F4F0E94A043BE0131
:105410006F587F4FCE0185599F4F0E948443BE0134
:1054200069587F4FCE018B599F4F0E948443BE0124
:1054300065597F4FCE018B599F4F0E94A119CE0114
:105440008B599F4F0E94E542CE0185599F4F0E9484
:10545000E542CE0189589F4F0E94E542CE018F5808
:105460009F4F13CF64ED78E0CE018B599F4F0E9480
:105470008C43BE016B597F4FCE0183589F4F0E94D2
:105480002C39F82ECE018B599F4F0E94E542FF2008
:1054900009F457C08091690F1F928F9384ED98E0B3
:1054A0009F938F931F930F930E94FE5966EE78E0AF
:1054B000CE018B599F4F0E948C43CE018B599F4F39
:1054C0000E94FB47CE018B599F4F0E94E542B801D5
:1054D000CE018B599F4F0E948C43BE016B597F4F69
:1054E000CE0183589F4F0E942C390F900F900F9040
:1054F0000F900F900F908823D9F0C957DF4F888104
:105500009981C758D040892B99F0CD57DF4FE8815A
:10551000F981C358D0408081882351F0309721F41D
:105520001092ED0BEDEEFBE011E0808180330CF486
:1055300010E0CE018B599F4F0E94E54211110E944D
:10554000FF20CE018D579F4F0E94E542CE01835828
:105550009F4F0E94E542C857DF4F0FB6F894DEBF59
:105560000FBECDBFDF91CF911F910F91FF90EF90B4
:10557000DF90CF9008954115510509F0E0CD0895D1
:10558000AF92BF92CF92DF92EF92FF920F931F9351
:10559000CF93DF93CDB7DEB767970FB6F894DEBF32
:1055A0000FBECDBF7C016CEE78E0CE0101960E946B
:1055B0008C43CE0101960E94FB47CE0101960E94CA
:1055C000E5424AE0D70115966C91CE010A960E94F9
:1055D00040436DE874E0CE0101960E948C43BE0109
:1055E000665F7F4FCE0101960E949C42BC01CE01B6
:1055F00042960E948443CE0142960E94FB47CE0110
:1056000042960E94E542CE0101960E94E542CE01FB
:105610000A960E94E542F7012581A091800FB09182
:10562000810F109799F04091840F5091850F80E081
:1056300090E08417950754F4ED91FD913481313356
:1056400019F43581231721F00196F3CFE0E0F0E063
:10565000D7015496FC93EE935397309761F51296C9
:105660006D917C9113974AE0CE010A960E94EA421E
:1056700061E079E0CE0101960E948C43BE01665F35
:105680007F4FCE0101960E949C42BC01CE01429602
:105690000E948443CE0142960E941748CE01429652
:1056A0000E94E542CE0101960E94E542CE010A9693
:1056B0000E94E542E5C06701BAE0CB0ED11CAE0105
:1056C0004F5F5F4FB60186859785A1D2811132C0A9
:1056D000F701628173814AE0CE010A960E94EA4294
:1056E0006EEF74E0CE0101960E948C43BE01665FAE
:1056F0007F4FCE0101960E949C426BE179E00E94AF
:105700008542BC01CE0142960E948443CE0142965E
:105710000E941748CE0142960E94E542CE010196B2
:105720000E94E542CE010A960E94E542D7015296B8
:105730001C92A6C081E0F701828B0388F489E02DDA
:1057400006851785B601C801BED2893009F498C014
:10575000AE014F5F5F4FB601C80159D2882309F4EB
:105760008FC0D7011A968C91803109F489C08FE1DE
:105770008D83F8018681978113D2B601D8011696E0
:105780008D919C9117970E94BB0F40E06EE4F80149
:10579000868197810E94870F40E06B81D801169621
:1057A0008D919C9117970E94870F40E06C81F801C2
:1057B000868197810E94870FD7011A968C9180313C
:1057C00039F040E06D81F801868197810E94870F52
:1057D000D80116968D919C911797E2D1B601F801E8
:1057E000868197810E94BB0FD8014C9168E4169680
:1057F0008D919C9117970E94870F64E170E080E083
:1058000090E00E94AB11F8018081882331F06AE0BA
:1058100070E080E090E00E94AB11D80116968D9167
:105820009C911797BDD1F80181818A3018F489E0E5
:10583000818326C089E08183C12CD12CF801848129
:1058400090E0C816D906E4F4AC2C0680F781E02D70
:10585000138615861486DF011B9633961E92AE17AB
:10586000BF07E1F7B12CBE01665F7F4FD8011696E6
:105870008D919C9117970E944739811117C020C0C4
:10588000F701158A168A178A108E67960FB6F89454
:10589000DEBF0FBECDBFDF91CF911F910F91FF9063
:1058A000EF90DF90CF90BF90AF900895BA1021C0D5
:1058B00067E0CE010A960E946F0F9989891319C07B
:1058C000D8011196BC90BE01665F7F4FC801FBD125
:1058D0008B1518F4F801818105C0BE01665F7F4F0A
:1058E000C801F1D1D80111968C93BFEFCB1ADB0A16
:1058F000A5CFB394AB1420F3B6CF2091300C3091E8
:10590000310C2817390771F490912F0C80912E0CCF
:10591000981741F0E0912F0CF0E0E251F44F8081B4
:1059200090E008958FEF9FEF08951F93CF93DF933B
:10593000DC015C968D919C915D97009739F421E094
:1059400030E013963C932E9312973BC05196ED9105
:10595000FC91529750962C915097322F30951FB74B
:105960005E964C915E97742F727041FD6095F8942D
:105970004081772311F0422B01C043234083EC0187
:105980002197F1F748E0508160FF02C0522B01C01F
:1059900053235083EC012197F1F76695415099F715
:1059A0008081772319F08323808302C0282B2083F2
:1059B0001FBF5C968D919C915D970197F1F781E0F7
:1059C00090E0DF91CF911F9108952091300C30919C
:1059D000310C2817390769F480912E0C20912F0C77
:1059E00090E0805C9F4F821B910960E470E00C9412
:1059F000A85880E090E008952091300C3091310C4F
:105A000028173907B9F490912F0C80912E0C981714
:105A100089F0E0912F0CF0E0E251F44F8081209169
:105A20002F0C30E02F5F3F4F2F73332720932F0C25
:105A300090E008958FEF9FEF0895FC01DB0112962F
:105A40008D919C9113979383828314968C911497D4
:105A5000848315968C911597858316968C918683F1
:105A60000895FC011086178208950895EF92FF9221
:105A70000F931F93CF93DF93EC018B017A010E9468
:105A8000E311FE01E857FF4F6083718382839383A4
:105A90008C819D81DC01ED91FC910280F381E02DF0
:105AA000A701B801DF91CF911F910F91FF90EF9067
:105AB00019941F93CF93DF93EC01162F0E94E311EB
:105AC000FE01E857FF4F60837183828393838C814B
:105AD0009D81DC01ED91FC910190F081E02D612F21
