:100000001AC2000049C2000047C2000045C20000F9
:1000100043C2000041C200003FC200003DC20000D8
:100020003BC200000C945D150C945D150C945D159D
:1000300033C2000031C200002FC200002DC20000F8
:100040002BC2000029C2000027C2000025C2000008
:1000500023C2000021C200001FC200000C94E14E28
:100060001BC200000C94B34D0C948A4D15C20000C5
:1000700013C2000011C200000FC200000DC2000038
:100080000BC2000009C2000007C2000005C2000048
:100090000C94604D0C94374DFFC10000FDC1000071
:1000A000FBC10000F9C10000F7C10000F5C100006C
:1000B000F3C10000F1C10000EFC10000EDC100007C
:1000C000EBC10000E9C10000E7C100000C940E4D37
:1000D0000C94E54CE1C100000C94BC4C0C94934C86
:1000E000DBC10000442F3E2F6C2F4C2F492FF92EDF
:1000F000162FC02EF84DFB4DEA4DEE4DF44D324E0D
:10010000FF4D034E094E0D4E114E174E1B4E1F4E06
:10011000324E254E294E2D4E00407A10F35A00A043
:10012000724E18090010A5D4E80000E876481700C0
:1001300000E40B54020000CA9A3B000000E1F50500
:10014000000080969800000040420F000000A0864A
:1001500001000000102700000000E803000000007C
:100160006400000000000A00000000000100000020
:1001700000002C76D888DC674F0823DFC1DFAE593A
:10018000E1B1B796E5E3E453C63AE651997696E8CD
:10019000E6C28426EB898C9B62ED407C6FFCEFBC51
:1001A0009C9F40F2BAA56FA5F490055A2AF75C937C
:1001B0006B6CF9676DC11BFCE0E40D47FEF520E6B2
:1001C000B500D0ED902E0300943577050080841E95
:1001D000080000204E0A000000C80C333333330FF0
:1001E000986E12831141EF8D2114893BE65516CF8D
:1001F000FEE6DB18D1844B381BF77C1D901DA4BB99
:10020000E424203284725E228100C9F124ECA1E54D
:100210003D27005EBCE2613FDD83C29C7E20A3FDE2
:100220001F419DC3217FFCA2401E5F01E3BD3E60D4
:1002300082DC237D9FC1421CFEA0E1BF5D0380DE06
:100240003C62BEE0025CDF81633D7C22C09E1D43B8
:10025000A1FF4618FAA427799BC584DA3866E5BB66
:100260005907DB856739BAE406581947A5FB782694
:10027000C49A653BD987045AB8E6A7F91B45C698C6
:100280007A24F8A6441A99C7257B3A6486D85B0578
:10029000E7B98CD2306EEDB3510F4E10F2AC2F7126
:1002A00093CD114FADF3702ECC92D38D6F31B2EC54
:1002B0000E50AFF1134DCE90722C6D33D18F0C5286
:1002C000B0EE326C8ED0530DEFB1F0AE4C1291CF38
:1002D0002D73CA947628ABF517490856B4EA6937E6
:1002E000D58B5709EBB536688AD495CB2977F4AA14
:1002F0004816E9B7550B88D6346A2B7597C94A1446
:10030000F6A8742AC896154BA9F7B6E80A54D789F7
:100310006B3500002200250028002B002E00310044
:10032000340002010000050108010B01000021005A
:10033000240027002A002D003000330001010000B6
:10034000040107010A0101021020200808102040C2
:100350001020408002010201080402010102040889
:100360001020408080402010080402018004020117
:100370008040201008040201080402010102040860
:10038000102040800102040810204080050505056A
:10039000070508080808020202020A0A08080404FD
:1003A000040401010101010101010303030303032B
:1003B0000303040707070C0C0C0C0C0C0C0C0202BA
:1003C000020206060606060606060B0B0B0B0B0BB7
:1003D0000B0B000020002300260029002C002F001A
:1003E00032000001000003010601090100000A0BB0
:1003F00002090C0D0E0807030401000000000000B4
:1004000000000000000000000000000000000000EC
:1004100000000000000000001211100000000000A9
:1004200000000000000000000000000000000000CC
:1004300000009C5B985B11241FBECFEFD1E2DEBFB2
:10044000CDBF00E00CBF1EE0A0E0B2E0EAE9F4EDB1
:1004500000E00BBF02C007900D92A837B107D9F793
:1004600023E1A8E7BEE001C01D92A732B207E1F781
:1004700012E0CAE1D2E000E006C021970109802F16
:10048000FE010E942F66C931D10780E00807A9F755
:100490000E9480500C943C6AB3CD8BE0089583E0B9
:1004A000089585E00895089580E0089508950895D9
:1004B00080E00895FC0126813781620F731F8481DB
:1004C00095818617970738F08281938177836683B9
:1004D000820F931F089580E090E00895FC01148638
:1004E000158616861786118615820895FC01768773
:1004F00065870895DC01ED91FC91068CF78DE02D68
:10050000199591E089270895862F089581E086271F
:10051000089521E0FC018485883008F020E0822FD6
:10052000089580E090E008950C94465E0C94465E39
:100530000F931F93CF93DF938C01EB01FC0162813A
:10054000CE010E94AF16F8016481CE0101960E948F
:10055000AF16F8016781CE0102960E94AF16F8012E
:100560006085CE0103960E94AF16F8016581CE0129
:100570000496DF91CF911F910F910C94AF160F93BA
:100580001F93CF93DF93EC018B01CB010E94D31615
:1005900090E09B838A83C80101960E94D3168C83C6
:1005A000C80102960E94D3168F83C80103960E9449
:1005B000D31691E0811101C090E09887C80104969C
:1005C0000E94D3168D83DF91CF911F910F910895D3
:1005D000CF93DF93EC018A819B810E94931F1D8240
:1005E000CE01DF91CF910C94E51E0895FC01A0810E
:1005F000B1818C918D3051F024F489508230B8F55E
:1006000005C0803219F08F3219F0089511962CC070
:1006100011968C9111978A3219F08F32D1F008958A
:100620001196B183A083A081B181CD010196918300
:10063000808311968C9111978823C9F08A3299F79B
:1006400012968C9112978F3271F713960DC08A30E3
:1006500071F2A081B181CD010196918380831196C1
:100660008C918111F4CF03C0B183A083C0CF0895D2
:100670001F93CF93DF93EC01162FB8DFE881F98148
:100680008081181305C03196F983E88381E001C0A9
:1006900080E0DF91CF911F910895EF92FF920F9329
:1006A0001F93CF93DF938C01DC011496CD91DC91E5
:1006B0001597EA80FB808E819F81E80EF91EC801A4
:1006C000029694DFD8011296ED91FC9113978081E8
:1006D000873291F1823281F190ED980F9A3060F07B
:1006E000982F9F7D91549A3138F08B3229F093EDF9
:1006F000980F923008F061C0F801228133812F5F9A
:100700003F4F338322832E813F81A9014F5F5F4F8B
:100710006C817D816417750740F06A817B81FB01E4
:10072000E20FF31F5F834E838083D8011296ED9111
:10073000FC9113978081D0CF3196D8011396FC930A
:10074000EE931297D8011296ED91FC911397908138
:10075000992399F19F012F5F3F4F13963C932E935E
:100760001297891751F19C35A9F49181A8E2B8E05C
:100770002C91222339F0921303C011969C9102C050
:100780001296F6CF9923C9F03296D8011396FC93AE
:10079000EE9312972E813F81A9014F5F5F4F6C81CD
:1007A0007D816417750770F26A817B81FB01E20F1E
:1007B000F31F5F834E839083C5CF8E819F819C0101
:1007C0002F5F3F4F4C815D814217530750F04A81A4
:1007D0005B81FA01E80FF91F3F832E831082C70166
:1007E00002C080E090E0DF91CF911F910F91FF90C8
:1007F000EF9008950F931F93CF93DF938C01FC012B
:10080000C081D181C130D10559F4628173816115F4
:10081000710531F083E398E00E944367892B39F03A
:100820002197229720F4F8018281938102C080E011
:1008300090E0DF91CF911F910F9108958091840EE8
:1008400081110BC01092810E1092800E1092830EB7
:100850001092820E81E08093840E80E89EE00895DD
:10086000DB01109749F0ED91FC9111970190F08117
:10087000E02DBC01CD01199480E090E00895089529
:10088000FC01808191818330910520F4019708F467
:1008900040C00BC08530910528F0059799F562811D
:1008A00073812BC08281938108950280F381E02DB2
:1008B000309779F18081843779F18B3229F08D324C
:1008C00021F4319691E002C0319690E060E070E052
:1008D0004AE0819120ED280F2A3068F4469F90016C
:1008E000479F300D1124682F880F770B60537109D3
:1008F000620F731FEECF992391F088279927861BEB
:10090000970B089562817381848195810E94E765C8
:1009100006C080E090E0089581E090E00895CB016A
:1009200008950F931F93CF93DF938B01FC01C28136
:10093000D381209759F06A817B81C8010E94436767
:10094000892B21F00990D881C02DF3CFCE01DF9102
:10095000CF911F910F910895E4CF0895FDDFFC0121
:10096000892B09F448C0848195818330910520F456
:10097000019708F440C00BC08530910528F0059719
:1009800099F5668177812BC08681978108950680CD
:10099000F781E02D309779F18081843779F18B32BE
:1009A00029F08D3221F4319691E002C0319690E029
:1009B00060E070E04AE0819120ED280F2A3068F471
:1009C000469F9001479F300D1124B9016053710972
:1009D000680F711D87FD7A95EECF992391F08827D6
:1009E0009927861B970B089566817781808591856D
:1009F0000E94EC6506C080E090E0089581E090E000
:100A00000895CB010895A8DF009711F00496F2CE67
:100A100080E090E00895A0DFFC01892BD9F184816A
:100A200095818330910518F40197A0F109C08530B4
:100A3000910520F0059739F5668123C066812DC0A8
:100A40000680F781E02D309729F18081843721F1EC
:100A50008B3229F08D3221F4319691E002C031962B
:100A600090E060E0219180ED820F8A3040F4660FC3
:100A7000862F880F880F680F6053620FF3CF99237A
:100A800061F061950AC066817781808591850E94B9
:100A9000EC6503C060E001C061E0862F08955CDF73
:100AA00021E0892B09F420E0822F08950F931F93F2
:100AB000CF93DF938C01EB0168E378E0CE01EFDFA9
:100AC000882331F068E378E0CE01A5DFF801878361
:100AD0006CE378E0CE01E3DF882371F06CE378E02B
:100AE000CE013ADF009729F00496CADE21E0892B77
:100AF00009F420E0F801208761E478E0CE01CFDF3F
:100B0000882331F061E478E0CE0185DFF801858348
:100B1000DF91CF911F910F9108950F931F93CF9362
:100B2000DF93EC018B01CB010E94D31690E09983F7
:100B30008883C80101960E94D31690E09B838A8324
:100B4000C80102960E94D31690E09D838C83C80151
:100B500003960E94D3168E83C80104960E94D31672
:100B600090E098878F83C80105960E94D31690E085
:100B70009A878987C80106960E94D31690E09C87C1
:100B80008B87DF91CF911F910F910895CF92DF92C4
:100B9000EF92FF920F931F93CF93DF93CDB7DEB702
:100BA000C858D1090FB6F894DEBF0FBECDBF7C0187
:100BB0008B016A01BC01CE0183589F4F0E94D94628
:100BC000B8018E010F5F1F4FC8010E94D9469601E0
:100BD00040E050E0B801CE018D579F4F0E94ED4696
:100BE000C8010E94324668E57DE0CE018B599F4FD7
:100BF0000E94D946BE0163587F4FCE018B599F4F4B
:100C00000E94E94568E478E00E94D245BE016D5734
:100C10007F4F0E94E9456BE478E00E94D245BC0119
:100C2000C8010E94D146C8010E947136C8010E94C5
:100C30003246CE018B599F4F0E9432468091181246
:100C40001F928F9387E994E09F938F931F930F9345
:100C50000E946167B801C7010E9443670F900F901F
:100C60000F900F900F900F90892B99F480912D1277
:100C7000882309F497C1BE016D577F4FCE018B5970
:100C80009F4F0E94D146CE018B599F4F0E94DB2B74
:100C90002AC0809118121F928F9387EB94E09F9344
:100CA0008F931F930F930E946167B801C7010E9441
:100CB00043670F900F900F900F900F900F90892B1C
:100CC000C1F480912E12882309F46CC1BE016D57C6
:100CD0007F4FCE018B599F4F0E94D146CE018B5939
:100CE0009F4F0E94EB2DCE018B599F4F0E943246A1
:100CF00059C16DE478E0CE018B599F4F0E94D946CF
:100D0000BE016B597F4FCE0183589F4F0E945B29D4
:100D1000F82ECE018B599F4F0E943246FF2089F05A
:100D2000BE016D577F4FCE018F589F4F0E94D14615
:100D3000CF57DF4F28813981C158D04043E150E07F
:100D40008FC06FE578E0CE018B599F4F0E94D94646
:100D5000BE016B597F4FCE0183589F4F0E945B2984
:100D6000F82ECE018B599F4F0E943246F1103FC0A2
:100D700060E778E0CE018B599F4F0E94D946BE01B3
:100D80006B597F4FCE0183589F4F0E945B29F82EED
:100D9000CE018B599F4F0E943246FF2089F0BE0141
:100DA0006D577F4FCE018F589F4F0E94D146CF572E
:100DB000DF4F28813981C158D04047E150E050C011
:100DC00066E878E0CE018B599F4F0E94D946BE015C
:100DD0006B597F4FCE0183589F4F0E945B29F82E9D
:100DE000CE018B599F4F0E943246FF2089F0BE01F1
:100DF0006D577F4FCE018F589F4F0E94D146CF57DE
:100E0000DF4F28813981C158D04042E150E028C0ED
:100E100067E978E0CE018B599F4F0E94D946BE0109
:100E20006B597F4FCE0183589F4F0E945B29F82E4C
:100E3000CE018B599F4F0E943246FF2009F443C0D8
:100E4000BE016D577F4FCE018F589F4F0E94D146F4
:100E5000CF57DF4F28813981C158D04046E150E05B
:100E6000BE0163587F4FCE0189589F4F0E94ED46C7
:100E7000BE016F587F4FCE0185599F4F0E94D146CA
:100E8000BE0169587F4FCE018B599F4F0E94D146BA
:100E9000BE0165597F4FCE018B599F4F0E94CE29CD
:100EA000CE018B599F4F0E943246CE0185599F4FEC
:100EB0000E943246CE0189589F4F0E943246CE0191
:100EC0008F589F4F13CF6CEA78E0CE018B599F4F1C
:100ED0000E94D946BE016B597F4FCE0183589F4F68
:100EE0000E945B29F82ECE018B599F4F0E943246FB
:100EF000FF2009F457C0809118121F928F938CEA3B
:100F000098E09F938F931F930F930E9461676EEBFE
:100F100078E0CE018B599F4F0E94D946CE018B5964
:100F20009F4F0E947136CE018B599F4F0E943246CF
:100F3000B801CE018B599F4F0E94D946BE016B5913
:100F40007F4FCE0183589F4F0E945B290F900F90D7
:100F50000F900F900F900F908823D9F0C957DF4F53
:100F600088819981C758D040892B99F0CD57DF4FA0
:100F7000E881F981C358D0408081882351F03097AF
:100F800021F410928C0EECE8FEE011E080818033B9
:100F90000CF410E0CE018B599F4F0E943246111184
:100FA0000E94FD1CCE018D579F4F0E943246CE01FC
:100FB00083589F4F0E943246C857DF4F0FB6F894B0
:100FC000DEBF0FBECDBFDF91CF911F910F91FF907C
:100FD000EF90DF90CF9008954115510509F0D6CDDF
:100FE0000895AF92BF92CF92DF92EF92FF920F934C
:100FF0001F93CF93DF93CDB7DEB768970FB6F89402
:10100000DEBF0FBECDBF8C010E94D54E6B017C01AF
:10101000F801278130E0F901E451FC4F8491F90196
:10102000EA5BFC4FB490F901E457FC4FA490AA206E
:1010300079F081110E94DD4DEA2DF0E0EE0FFF1FE7
:10104000EE52FC4FA591B491EC91BE2221E009F43F
:1010500020E0F801308584859585A685B785321313
:10106000FCC00097A105B10591F5C486D586E6863A
:10107000F786628173814AE0CE0107960E94374667
:1010800064EC78E0CE0101960E94D946BE01695F0A
:101090007F4FCE0101960E94E94564ED78E00E9401
:1010A000D245BC01CE010D960E94D146CE010D96CF
:1010B0000E947136CE010D960E943246CE010196F5
:1010C0000E943246CE0107960E9432464AC1AC01C8
:1010D000BD014053584F6F4F7F4FC416D506E606EB
:1010E000F706D8F1F8018285811132C062817381DF
:1010F0004AE0CE0107960E94374666ED78E0CE01C1
:1011000001960E94D946BE01695F7F4FCE010196CC
:101110000E94E94564ED78E00E94D245BC01CE0111
:101120000D960E94D146CE010D960E947136CE01D9
:101130000D960E943246CE0101960E943246CE01A3
:1011400007960E94324664E070E0C8010E944B2975
:1011500081E0F8018287118604C1AC01BD014454CD
:101160005D4F6F4F7F4FC416D506E606F706B0F108
:10117000F801818581112DC0628173814AE0CE0121
:1011800007960E9437466CED78E0CE0101960E94EA
:10119000D946BE01695F7F4FCE0101960E94E945A5
:1011A00064ED78E00E94D245BC01CE010D960E940C
:1011B000D146CE010D960E947136CE010D960E9449
:1011C0003246CE0101960E943246CE0107960E9419
:1011D0003246F801138681E08187C3C088589F4F4B
:1011E000AF4FBF4FC816D906EA06FB0608F4B9C0D0
:1011F000F801838581112DC0628173814AE0CE019F
:1012000007960E9437466BEE78E0CE0101960E9469
:10121000D946BE01695F7F4FCE0101960E94E94524
:1012200064ED78E00E94D245BC01CE010D960E948B
:10123000D146CE010D960E947136CE010D960E94C8
:101240003246CE0101960E943246CE0107960E9498
:10125000324681E0F801838784C00097A105B1057B
:1012600009F47FC0B701A601481B590B6A0B7B0B21
:10127000CE010D960E94591CF801628173814AE0EB
:10128000CE0107960E9437466EEF78E0CE010196B8
:101290000E94D946BE01695F7F4FCE0101960E9430
:1012A000E94567E079E00E94D245BE01635F7F4F68
:1012B0000E94E945BC01CE0143960E94D146CE0171
:1012C00043960E947136CE0143960E943246CE016B
:1012D00001960E943246CE0107960E943246CE0108
:1012E0000D960E943246F80184859585A685B785BE
:1012F0008C599F4FAF4FBF4FC816D906EA06FB0661
:1013000078F466E179E0CE0101960E94D946CE01DB
:1013100001960E947136CE0101960E9432461CC091
:10132000F801828581110BC08185882319F062E064
:1013300070E002C061E070E0C8010E944B29F80132
:10134000148615861686178611861386128660E027
:1013500070E0C8010E944B29F80114861586168694
:10136000178668960FB6F894DEBF0FBECDBFDF912B
:10137000CF911F910F91FF90EF90DF90CF90BF9092
:10138000AF900895CF92DF92EF92FF920F931F9349
:10139000CF93DF93CDB7DEB72C970FB6F894DEBFAF
:1013A0000FBECDBF8C016B017A0162E378E0CE0104
:1013B00007960E94D946C114D10429F0B601CE0186
:1013C00007960E9408466FEB77E0CE0107960E94D1
:1013D000FA45F801628173814AE0CE0101960E94CC
:1013E0003746BE016F5F7F4FCE0107960E940B36D6
:1013F000CE0101960E94324664E379E0CE01079661
:101400000E94FA45F8016481CE0101960E94B94616
:10141000BE016F5F7F4FCE0107960E940B36CE0153
:1014200001960E9432466BE379E0CE0107960E9456
:10143000FA45F801678170E04AE0CE0101960E940A
:101440003746BE016F5F7F4FCE0107960E940B3675
:10145000CE0101960E94324661E479E0CE01079602
:101460000E94FA45F801608570E04AE0CE010196DD
:101470000E943746BE016F5F7F4FCE0107960E94E4
:101480000B36CE0101960E94324668E479E0CE0127
:1014900007960E94FA45F8018681811103C06EE229
:1014A00079E002C069E279E0CE0107960E94FA4530
:1014B00067E579E0CE0107960E94FA45BE01695FB3
:1014C0007F4FCE0101960E94D146BE016F5F7F4FD4
:1014D000C7010E941236CE0101960E943246CE010B
:1014E00007960E9432462C960FB6F894DEBF0FBEC8
:1014F000CDBFDF91CF911F910F91FF90EF90DF90C3
:10150000CF900895EF92FF920F931F93CF93DF93A5
:10151000CDB7DEB7AA970FB6F894DEBF0FBECDBF2A
:10152000FB01309709F4D5C02481223409F0D1C0E1
:1015300061E070E0DC0115963C912581321711F0D5
:1015400060E070E08F017C014AE0CE0107960E94C6
:10155000624661E070E0F7019085D80118968C91A1
:10156000981711F060E070E04AE0CE010D960E94FD
:10157000624661E070E0F7019781D80117968C917F
:10158000981711F060E070E04AE0CE0143960E94A7
:10159000624661E070E0F7019481D80114968C9165
:1015A000981711F060E070E04AE0CE0149960E9481
:1015B000624661E070E0F70122813381D801129622
:1015C0008D919C9113972817390711F060E070E016
:1015D0004AE0CE014F960E9462466AE579E0CE016C
:1015E00085960E94D946BE01615E7F4FCE018596E9
:1015F0000E94E94564E179E00E94D245BE01675E40
:101600007F4F0E94E94564E179E00E94D245BE0126
:101610006D5E7F4F0E94E94564E179E00E94D2450A
:10162000BE01635F7F4F0E94E94564E179E00E945B
:10163000D245BE01695F7F4F0E94E9456BE478E0C7
:101640000E94D245BC01CE0101960E94D146CE0136
:1016500001960E947136CE0101960E943246CE015B
:1016600085960E943246CE014F960E943246CE01A8
:1016700049960E943246CE0143960E943246CE01E0
:101680000D960E943246CE0107960E943246F7011F
:1016900022813381D80112968D919C91139728173E
:1016A0003907B9F4948114968C911497981311C04A
:1016B000978117968C91179798130BC09085189661
:1016C0008C911897981305C0958115968C91981751
:1016D00011F080E001C081E0AA960FB6F894DEBF59
:1016E0000FBECDBFDF91CF911F910F91FF90EF9073
:1016F00008950F931F93CF93DF93CDB7DEB768970D
:101700000FB6F894DEBF0FBECDBF8C014AE0FC01DE
:101710006781CE010D960E948D46F801628173812A
:101720004AE0CE0107960E9437466BE679E0CE018B
:1017300001960E94D946BE01695F7F4FCE01019696
:101740000E94E9456BE779E00E94D245BE01635FE4
:101750007F4F0E94E945BC01CE0143960E94D146CD
:10176000CE0143960E947136CE0143960E943246C6
:10177000CE0101960E943246CE0107960E94324663
:10178000CE010D960E94324660E0F80187810E94EA
:10179000614EF801608581E0682787810E94334EA1
:1017A000C8010E94E51E68960FB6F894DEBF0FBE12
:1017B000CDBFDF91CF911F910F9108952091D40E4D
:1017C00090E0233311F40C9601C04896982F990F9E
:1017D000990F990F80E00895CF93DF931F92CDB7B3
:1017E000DEB76983DC01ED91FC910280F381E02D8D
:1017F00041E050E0BE016F5F7F4F19950F90DF9180
:10180000CF910895FC01818D928D0895FC019485FE
:10181000FB018485981303C081E0983008F080E0D4
:101820000895FF920F931F93CF93DF931F921F9200
:10183000CDB7DEB7F82E22E030E0AE014F5F5F4F4C
:1018400066E270E00E94944809811A8110270127FE
:10185000102722E030E0AE014F5F5F4F66E270E09C
:101860008F2D0E94944889819A81982789279827EB
:101870000817190711F08C01ECCFC8010F900F90D9
:10188000DF91CF911F910F91FF9008950F931F93B8
:10189000CF93DF931F921F92CDB7DEB7FC01248553
:1018A0002830E0F48C01CE0101960E942735898111
:1018B0009A810E94A64822E030E0AE014F5F5F4F60
:1018C00060E170E0F80184850E94944809811A81E2
:1018D0001027012710270E94A54802C000E010E051
:1018E000C8010F900F90DF91CF911F910F91089534
:1018F0000F931F93CF93DF931F921F92CDB7DEB745
:10190000FC0124852830E0F48C01CE0101960E9470
:10191000273589819A810E94A64822E030E0AE01F5
:101920004F5F5F4F64E070E0F80184850E94944847
:1019300009811A811027012710270E94A54802C09B
:1019400000E010E0C8010F900F90DF91CF911F9140
:101950000F910895EF92FF920F931F93CF93DF9310
:1019600000D01F92CDB7DEB78C017B01FB018485CF
:10197000883050F08DEE93E0F801918380831282DD
:1019800013821482158222C0CE0101960E9427354F
:1019900089819A810E94A64824E030E0AE014F5F21
:1019A0005F4F6CE070E0F70184850E9494480E94CC
:1019B000A5488DEE93E0F8019183808389819A8117
:1019C000AB81BC8182839383A483B583C8010F90CC
:1019D0000F900F900F90DF91CF911F910F91FF907B
:1019E000EF900895AF92BF92CF92DF92EF92FF9265
:1019F0000F931F93CF93DF93CDB7DEB7AF970FB69B
:101A0000F894DEBF0FBECDBF8C015B016A01CE0131
:101A100001960E942E448DEEE82E83E0F82EFBA660
:101A2000EAA61CA61DA61EA61FA680915C11909179
:101A30005D11A0915E11B0915F118EA39FA3A8A725
:101A4000B9A78B839C83AD83BE8318861F82AE01AA
:101A5000465D5F4FB501CE0101960E94D1418130B4
:101A60009105B1F4D801ED91FC910488F589E02D40
:101A7000FDA2ECA28CA59DA5AEA5BFA58EA39FA39C
:101A8000A8A7B9A7A601BE016C5D7F4FC801199533
:101A9000AF960FB6F894DEBF0FBECDBFDF91CF91EA
:101AA0001F910F91FF90EF90DF90CF90BF90AF907C
:101AB0000895E091D20EF091D30E90818091D10ED5
:101AC000892B80830895E091D20EF091D30E9081FE
:101AD0008091D10E8095892380830895CF93DF93E1
:101AE0001F92CDB7DEB741E050E0BE016F5F7F4F80
:101AF00080E090E00E943B4F89810F90DF91CF9171
:101B00000895CF93DF931F92CDB7DEB7898341E06D
:101B100050E0BE016F5F7F4F80E090E00E94C64FB3
:101B20000F90DF91CF910895CF93DF9380E8E9DFA5
:101B3000C4E1D0E0D3DF882351F061E070E080E0C1
:101B400090E00E949D4E2197A9F780E001C081E0BE
:101B5000DF91CF9108958EBD00000DB407FEFDCF3B
:101B60008EB50895EF92FF921F93CF93DF931F924C
:101B70001F92CDB7DEB7182F22E030E0AE014F5FE5
:101B80005F4F60E270E00E949448E980FA80FE2492
:101B9000EF24FE2422E030E0AE014F5F5F4F60E2B1
:101BA00070E0812F0E94944889819A819827892723
:101BB0009827E816F90611F07C01ECCF87E0189F12
:101BC000F0011124E053FD4EF582E482C7010F902D
:101BD0000F90DF91CF911F91FF90EF9008951F9389
:101BE000CF93DF931F921F92CDB7DEB7182FCE0190
:101BF00001960E94273589819A810E94A648812FEB
:101C0000DDDD27E0129FF0011124E053FD4E22811B
:101C10003381377041E050E0BE016F5F7F4F820F2C
:101C2000931F0E943B4F0E94A54889810F900F90FF
:101C3000DF91CF911F910895FC01808D883038F499
:101C4000218D328D232B19F0CADF90E008958FEF9C
:101C50009FEF0895EF92FF920F931F93CF93DF931F
:101C60001F921F92CDB7DEB7482F87E0489F9001A3
:101C70001124F901E053FD4E7F018081918100978D
:101C8000B1F4142FCE0101960E94273589819A81E3
:101C90000E94A648812FC5DD8C010E94A548F7014E
:101CA00086819801281B3109C901318320830F9057
:101CB0000F90DF91CF911F910F91FF90EF900895BA
:101CC0001F93CF93DF931F921F92CDB7DEB7182FCC
:101CD000CE0101960E94273589819A810E94A648EB
:101CE00068E070E0812F0E942B4F0E94A5480F9062
:101CF0000F90DF91CF911F9108951F93CF93DF93A2
:101D00001F921F92CDB7DEB7182FCE0101960E9409
:101D1000273589819A810E94A64860E170E0812F71
:101D20000E942B4F0E94A5480F900F90DF91CF91FA
:101D30001F910895CF92DF92EF92FF920F931F931E
:101D4000CF93DF9300D000D0CDB7DEB78C016B010D
:101D50007A01FC01808D883008F4CFDF8DEE93E0AE
:101D60009A838983F60182819381A481B5818B83D3
:101D70009C83AD83BE83B701CE0101960E944E4481
:101D8000F801808F883030F4F586E486128E118E4B
:101D900081E001C080E026960FB6F894DEBF0FBE4A
:101DA000CDBFDF91CF911F910F91FF90EF90DF900A
:101DB000CF900895CF93DF93FC01808D883020F47D
:101DC000EF019BDF88E0888FDF91CF910895DA01E2
:101DD0009091D50EE92FF0E0FE2FEE27E60FF71FCA
:101DE00090E0982F8827A901BD018E0F9F1F0C94AA
:101DF000C64F7F928F929F92AF92BF92CF92DF9207
:101E0000EF92FF920F931F93CF93DF931F921F9236
:101E1000CDB7DEB7782E8B014A01590122E030E0C0
:101E2000AE014F5F5F4F64E270E00E949448E9802A
:101E3000FA80FE24EF24FE24E00EF11E9701377095
:101E40004091D40E072D10E0C801433311F40896D9
:101E500001C04096982F8827990F990F990F820FEC
:101E6000931F473319F4A501B40120C0A9014A0DFD
:101E70005B1D41305840B8F360E078E06B01C21A56
:101E8000D30AA601B4010E94C64FA5014C195D09F1
:101E9000B4016C0D7D1D8091D40E833331F5085F44
:101EA0001F4F902F990F990F990F80E00E94C64FF6
:101EB000EA0CFB1CF982EA8222E030E0AE014F5FBF
:101EC0005F4F64E270E0872D82DF0F900F90DF910B
:101ED000CF911F910F91FF90EF90DF90CF90BF9027
:101EE000AF909F908F907F900895005F1F4FD9CF44
:101EF0007F928F929F92AF92BF92CF92DF92EF929A
:101F0000FF920F931F93CF93DF931F921F92CDB732
:101F1000DEB77C014B01742EC52EFC01A688B78864
:101F2000D08CCE0101960E94273589819A810E942A
:101F3000A6488D2D17DE072D1C2D8017910708F45C
:101F40008C019801A401B5018D2D53DF0E94A54895
:101F5000F70186899789800F911F978B868BC8011F
:101F60000F900F90DF91CF911F910F91FF90EF9005
:101F7000DF90CF90BF90AF909F908F907F9008950B
:101F8000CF93DF931F921F92CDB7DEB779836A8319
:101F900022E030E0AE014F5F5F4F60E170E017DF9D
:101FA0000F900F90DF91CF910895CF93DF931F9201
:101FB0001F92CDB7DEB779836A8322E030E0AE01AD
:101FC0004F5F5F4F64E070E002DF0F900F90DF9192
:101FD000CF910895DF92EF92FF920F931F93CF93CB
:101FE000DF931F921F92CDB7DEB7FB01DC0157963E
:101FF0001C921E9256972281211109C02381211122
:1020000006C02481211103C025812223F9F0411546
:102010005105E1F07A018F01FC01D08CCE010196CF
:102020000E94273589819A810E94A648A8014E5FA7
:102030005F4F24E030E06CE070E08D2DC8DEB7012A
:102040008D2D9EDF0E94A54881E001C080E090E0D8
:102050000F900F90DF91CF911F910F91FF90EF9014
:10206000DF900895CF93DF931F92CDB7DEB79091A5
:10207000D50E292F30E0322F2227260F371F90E070
:10208000982F8827498341E050E0BE016F5F7F4F62
:10209000820F931F0E94C64F0F90DF91CF9108953A
:1020A000CF93DF931F92CDB7DEB79091D50E292F36
:1020B00030E0322F2227260F371F90E0982F8827F5
:1020C00041E050E0BE016F5F7F4F820F931F0E947F
:1020D0003B4F89810F90DF91CF9108958F929F920E
:1020E000BF92CF92DF92EF92FF920F931F93CF9305
:1020F000DF93CDB7DEB72A970FB6F894DEBF0FBED9
:10210000CDBF9091D40E992309F48EC0933319F06A
:1021100028E0B22E02C094E0B92E6B01082FCE0148
:1021200001960E94273589819A810E94A6489E01C6
:102130002F5F3F4F7901490110E063E070E0812F8C
:10214000AFDFF40181934F018823C9F01F5FB11203
:10215000F4CF10E0F70191917F019D3159F0983152
:1021600049F09A51923030F01F5FB112F3CF0E94C4
:10217000A5485AC060E170E0812F0E942B4FE12EEC
:10218000F12C83EE93E00197F1F7402F60E070E0CF
:10219000812F68DF4FEF62E070E0812F63DFC114B1
:1021A000D10411F0B60113C0809100029091010298
:1021B00001968115F0EC9F0710F480E090EC90936D
:1021C0000102809300026091000270910102812F50
:1021D000ECDE61E070E0812F0E942B4F27E02E9D06
:1021E000C0012F9D900D11249C0120533D4E79017B
:1021F000F9011182108222E030E0AE01475F5F4FAB
:1022000068E270E0812F0E94944889859A8598271A
:1022100089279827F7019383828316821582148277
:102220000E94A548812F01C088E02A960FB6F89435
:10223000DEBF0FBECDBFDF91CF911F910F91FF90F9
:10224000EF90DF90CF90BF909F908F9008950F9365
:102250001F93CF93DF93EC018B01888D883008F4B6
:102260004CDDB80182E03ADF888F883030F41D877A
:102270000C871A8E198E81E001C080E0DF91CF912A
:102280001F910F910895FF920F931F93CF93DF93A8
:102290001F921F92CDB7DEB7F82ECE0101960E9495
:1022A000273589819A810E94A6488F2D5BDC8C019D
:1022B00063E070E08F2DF4DEF82E0E94A54887E1E0
:1022C000F81631F08CE1F81619F080E090E001C0CA
:1022D000C8010F900F90DF91CF911F910F91FF9048
:1022E00008954F925F927F928F929F92AF92BF928A
:1022F000CF92DF92EF92FF920F931F93CF93DF93D2
:102300001F921F92CDB7DEB7782E6B014A01A82E1F
:10231000B12C27E0829FC0011124AC0140535D4ED7
:102320007A01FA0100811181CE0101960E942735C0
:1023300089819A810E94A648081519054CF4872DB9
:1023400070DAF70126818C01021B110911830083C9
:1023500001151105A1F463E070E0872DA1DE843141
:1023600009F47DC0882309F47AC001E010E08C31C3
:1023700011F400E010E011950195110970C080166C
:1023800091060CF4840187E08A9DF0018B9DF00D8D
:102390001124E053FD4EE280F380C114D10449F1D1
:1023A0002701F7E05F22872D09DA840D951D209122
:1023B000D40E273319F4A801B60119C09801240DD1
:1023C000351D21303840B8F320E038E04901841849
:1023D0009508A401B6010E943B4F2601480C591CE8
:1023E0006801C818D908872DE9D9A601B2010E9451
:1023F0003B4FE00EF11E87E08A9DF0018B9DF00DB2
:102400001124E053FD4EF382E28280819181801B92
:10241000910B918380832681A801420F511D4A3F71
:10242000510510F4892BD1F487E08A9DF0018B9D32
:10243000F00D1124E053FD4E1682F982EA8222E06B
:1024400030E0AE014F5F5F4F68E270E0872DBFDC88
:1024500060E470E0872D0E942B4F01C046830E94EC
:10246000A548C8010F900F90DF91CF911F910F9158
:10247000FF90EF90DF90CF90BF90AF909F908F90A4
:102480007F905F904F900895CF93DF93FC01218D53
:10249000328D2115310519F48FEF9FEF10C0EC013B
:1024A0004217530708F0A901888D1BDF181619067B
:1024B0009CF7298D3A8D281B390B3A8F298FDF9194
:1024C000CF9108950F931F93CF93DF931F92CDB7B2
:1024D000DEB7FC01218D328D232B59F08C0141E0B8
:1024E00050E0BE016F5F7F4F808DFBDE181619062E
:1024F0001CF08FEF9FEF08C0F801818D928D01973E
:10250000928F818F898190E00F90DF91CF911F9101
:102510000F9108950F931F93CF93DF93CDB7DEB73D
:1025200028970FB6F894DEBF0FBECDBF8C01D8013F
:1025300059964D915C915A974115510551F0ED9185
:10254000FC91048CF58DE02D60E070E0C8011995D8
:10255000EECFF801808D7EDB892B49F148E050E019
:10256000BE016F5F7F4FD80158968C91BADE181666
:102570001906FCF4D801509684E0FE0131960190D2
:102580000D928A95E1F78D8190E0982F88272E8112
:10259000820F911DF801958B848B8F8190E0982F8D
:1025A00088272885820F911D928F818F02C080E03D
:1025B00090E028960FB6F894DEBF0FBECDBFDF9136
:1025C000CF911F910F9108951F93CF93DF931F9287
:1025D0001F92CDB7DEB7182FCE0101960E94273586
:1025E00089819A810E94A64863E070E0812F58DDBE
:1025F000182F0E94A548812F0F900F90DF91CF9147
:102600001F9108951F93CF93DF931F921F92CDB711
:10261000DEB7FC01108DCE0101960E94273589811D
:102620009A810E94A64860E270E0812F0E942B4FA1
:1026300062E070E0812F34DD84FD1AC062E070E05A
:10264000812F2EDD83FF09C048E162E070E0812F19
:1026500009DD0E94A54880E013C00E94A548CE0174
:1026600001960E94273589819A810E94A648E0CF71
:1026700040E162E070E0812FF5DC0E94A54881E036
:1026800090E00F900F90DF91CF911F9108950895E2
:102690002091CF0E3091D00E2817390771F4909108
:1026A000CE0E8091CD0E981741F0E091CE0EF0E065
:1026B000E357F14F808190E008958FEF9FEF0895E9
:1026C0001F93CF93DF93DC015C968D919C915D9776
:1026D000009739F421E030E013963C932E93129743
:1026E0003BC05196ED91FC91529750962C9150978A
:1026F000322F30951FB75E964C915E97742F727093
:1027000041FD6095F8944081772311F0422B01C080
:1027100043234083EC012197F1F748E0508160FFAB
:1027200002C0522B01C053235083EC012197F1F7D3
:102730006695415099F78081772319F08323808330
:1027400002C0282B20831FBF5C968D919C915D97C2
:102750000197F1F781E090E0DF91CF911F9108950B
:102760002091CF0E3091D00E2817390769F480914F
:10277000CD0E2091CE0E90E0805C9F4F821B910980
:1027800060E470E00C941C6680E090E00895209175
:10279000CF0E3091D00E28173907B9F49091CE0E94
:1027A0008091CD0E981789F0E091CE0EF0E0E357BE
:1027B000F14F80812091CE0E30E02F5F3F4F2F737D
:1027C00033272093CE0E90E008958FEF9FEF08956A
:1027D000FB0122813381FC0133832283FB012481AD
:1027E000FC0124830895FC01158208950C94465E33
:1027F0000F931F93CF93DF938C01EB0168E378E095
:10280000CE010E944F05882339F068E378E0CE01BD
:102810000E940B05F80187836CE378E0CE010E94EB
:102820004F05882381F06CE378E0CE010E94AC0470
:10283000009731F004960E94400421E0892B09F4AE
:1028400020E0F801208761E478E0CE010E944F0586
:10285000882339F061E478E0CE010E940B05F8018D
:102860008583DF91CF911F910F9108950F931F934F
:10287000CF93DF938C01EB0162E879E0CE010E94F7
:102880004F05882339F062E879E0CE010E940B05FC
:10289000F801878369E879E0CE010E944F0588231B
:1028A00039F069E879E0CE010E940B05F8018087D4
:1028B00062E979E0CE010E944F05882339F062E990
:1028C00079E0CE010E940B05F80181876BE979E080
:1028D000CE010E944F05882381F06BE979E0CE019B
:1028E0000E94AC04009721F004960E94400402C0AC
:1028F00080E090E0F80193878287DF91CF911F916C
:102900000F9108956130710529F050F06330710521
:1029100019F0089561E005C061E0FC0125812111F5
:1029200060E00C947629CF93DF93EC0161E08F8116
:102930000E94614E61E070E08D81813011F060E0B5
:1029400070E0E881F9810288F389E02DCE01DF9102
:10295000CF9119948F929F92AF92BF92CF92DF92B4
:10296000EF92FF920F931F93CF93DF938C017A0125
:10297000FC01858196810E946F4A40E06EEBF80170
:10298000858196810E943C4AE7015701F9E0AF0E2C
:10299000B11CF8018580968088E0C82ED12CF12CDE
:1029A000EE24E394C4010E94E9498111FE28EE0C53
:1029B000F1E0CF1AD108B1F7F992AC16BD0649F78C
:1029C000F801858196810E948C4A91E0813009F05E
:1029D00090E0892FDF91CF911F910F91FF90EF90A1
:1029E000DF90CF90BF90AF909F908F900895EF921F
:1029F000FF920F931F93CF93DF938C017B01EA012A
:102A0000FC01858196810E948C4A8823A9F0AE0141
:102A1000B701C8019FDF882379F0DE0189E0E0E09B
:102A2000815039F09D91E927F0E0EE5EFD4FE49191
:102A3000F7CF81E098859E1380E0DF91CF911F91C1
:102A40000F91FF90EF9008951F93CF93DF93FC01B8
:102A5000A081B181109759F1EC01ED91FC91119792
:102A60000688F789E02DCD01199511E0811120C06C
:102A700010E0FE01E556FF4F80819181892BC1F462
:102A80008DEF9FEF9183808388819981DC01ED91A7
:102A9000FC910680F781E02D199588819981DC01F0
:102AA000ED91FC910488F589E02D199501C010E0A5
:102AB000812FDF91CF911F9108951F920F920FB632
:102AC0000F9211240BB60F922F933F934F935F9366
:102AD0006F937F938F939F93AF93BF93EF93FF93E6
:102AE000E091CF0EF091D00E309709F451C0968D41
:102AF000A685B785858591FF04C09C91892329F41B
:102B000047C09C91892309F043C0A389B4899C9153
:102B10008589809589238C93868997890197F1F718
:102B2000608D718DA685B785558538E020E0CB0195
:102B30000197F1F7822F90E095958795282F4C917A
:102B4000452309F02068315091F7868D81FD20954D
:102B50008091CD0E90E001968F7399273091CE0E23
:102B6000381749F0A091CD0EB0E0A357B14F2C9388
:102B70008093CD0E03C0868D8160868F828D938D6C
:102B80000197F1F7A389B4899C918589892B8C934E
:102B9000FF91EF91BF91AF919F918F917F916F9135
:102BA0005F914F913F912F910F900BBE0F900FBEF1
:102BB0000F901F901895CF93DF93FC01828D938D1A
:102BC000892B31F1A091CF0EB091D00EEA17FB07FF
:102BD000F9F0109751F05396CD91DC91549798816C
:102BE00055968C91809589238883868D8E7F868FDC
:102BF0001092CD0E1092CE0EF093D00EE093CF0E29
:102C0000A389B4899C918589892B8C9381E001C02B
:102C100080E0DF91CF9108954F925F926F927F9203
:102C20008F929F92AF92BF92CF92DF92EF92FF92DC
:102C30000F931F93CF93DF93CDB7DEB727970FB6D0
:102C4000F894DEBF0FBECDBF7C01062F6A01DC0108
:102C500012968C911297882319F08D919C91ABDF7D
:102C60000E94D54E4B015C0110E0173098F40E9491
:102C7000D54EDC01CB0188199909AA09BB09F701D6
:102C8000438054806580768084159505A605B70538
:102C900048F112C0173081F42F81FE013196AE0148
:102CA000495F5F4F80E090E03191830F911DE41701
:102CB000F507D1F7281711F080E03AC08981801319
:102CC000FBCFC114D10411F481E032C0DE011296B1
:102CD000F60196012B5F3F4FE217F307A9F38D91A1
:102CE0008193FACFF70180819181DC01ED91FC9114
:102CF0000084F185E02D1995181619060CF0B5CF52
:102D0000D7018D919C91DC01ED91FC910284F385BA
:102D1000E02D1995811103C0112309F4A8CFE1E03A
:102D2000F0E0EC0FFD1FE10FF11D80831F5F9DCFD1
:102D300027960FB6F894DEBF0FBECDBFDF91CF91BF
:102D40001F910F91FF90EF90DF90CF90BF90AF90C9
:102D50009F908F907F906F905F904F9008950C940C
:102D6000A0640F931F93CF93DF938C01EB01FC01C1
:102D70006281CE01F4DFF8016481CE010196EFDFBC
:102D8000F8016781CE010296EADFF8016085CE0185
:102D90000396E5DFF8016581CE010496DF91CF91BE
:102DA0001F910F91DCCF0C9498640F931F93CF93D6
:102DB000DF93EC018B01CB01F6DF90E09B838A83EC
:102DC000C8010196F0DF8C83C8010296ECDF8F8387
:102DD000C8010396E8DF91E0811101C090E0988777
:102DE000C8010496E0DF8D83DF91CF911F910F9191
:102DF00008950895CF92DF92EF92FF920F931F9361
:102E0000CF93DF93CDB7DEB72C970FB6F894DEBF24
:102E10000FBECDBF8C016B017A0162E378E0CE0179
:102E200007960E94D946C114D10429F0B601CE01FB
:102E300007960E9408466FEB77E0CE0107960E9446
:102E4000FA45F801628173814AE0CE0101960E9441
:102E50003746BE016F5F7F4FCE0107960E940B364B
:102E6000CE0101960E94324664E379E0CE010796D6
:102E70000E94FA45F8016481CE0101960E94B9468C
:102E8000BE016F5F7F4FCE0107960E940B36CE01C9
:102E900001960E94324662EA79E0CE0107960E94CE
:102EA000FA45F801658170E04AE0CE0101960E9482
:102EB0003746BE016F5F7F4FCE0107960E940B36EB
:102EC000CE0101960E94324668E479E0CE01079671
:102ED0000E94FA45F8018681811103C06EE279E013
:102EE00002C069E279E0CE0107960E94FA4567E5E3
:102EF00079E0CE0107960E94FA45BE01695F7F4FD7
:102F0000CE0101960E94D146BE016F5F7F4FC7017F
:102F10000E941236CE0101960E943246CE010796DB
:102F20000E9432462C960FB6F894DEBF0FBECDBF7E
:102F3000DF91CF911F910F91FF90EF90DF90CF9095
:102F40000895CF92DF92EF92FF920F931F93CF934A
:102F5000DF93CDB7DEB72C970FB6F894DEBF0FBE68
:102F6000CDBF8C016B017A0162E378E0CE01079658
:102F70000E94D946C114D10429F0B601CE010796AA
:102F80000E9408466FEB77E0CE0107960E94FA4553
:102F9000F801628173814AE0CE0101960E943746B2
:102FA000BE016F5F7F4FCE0107960E940B36CE01A8
:102FB00001960E94324664E379E0CE0107960E94B2
:102FC000FA45F8016481CE0101960E94B946BE011E
:102FD0006F5F7F4FCE0107960E940B36CE010196A0
:102FE0000E9432466BE379E0CE0107960E94FA45D3
:102FF000F801678170E04AE0CE0101960E943746F1
:10300000BE016F5F7F4FCE0107960E940B36CE0147
:1030100001960E94324661E479E0CE0107960E9453
:10302000FA45F801608570E04AE0CE0101960E9401
:103030003746BE016F5F7F4FCE0107960E940B3669
:10304000CE0101960E94324662EA79E0CE010796EF
:103050000E94FA45F801658170E04AE0CE010196D0
:103060000E943746BE016F5F7F4FCE0107960E94D8
:103070000B36CE0101960E94324668E479E0CE011B
:1030800007960E94FA45F8018681811103C06EE21D
:1030900079E002C069E279E0CE0107960E94FA4524
:1030A00067E579E0CE0107960E94FA45BE01695FA7
:1030B0007F4FCE0101960E94D146BE016F5F7F4FC8
:1030C000C7010E941236CE0101960E943246CE01FF
:1030D00007960E9432462C960FB6F894DEBF0FBEBC
:1030E000CDBFDF91CF911F910F91FF90EF90DF90B7
:1030F000CF900895CF92DF92EF92FF920F931F939C
:10310000CF93DF93CDB7DEB72C970FB6F894DEBF21
:103110000FBECDBF8C016B017A0162E378E0CE0176
:1031200007960E94D946C114D10429F0B601CE01F8
:1031300007960E9408466FEB77E0CE0107960E9443
:10314000FA45F801628173814AE0CE0101960E943E
:103150003746BE016F5F7F4FCE0107960E940B3648
:10316000CE0101960E94324664E379E0CE010796D3
:103170000E94FA45F8016481CE0101960E94B94689
:10318000BE016F5F7F4FCE0107960E940B36CE01C6
:1031900001960E9432466BEA79E0CE0107960E94C2
:1031A000FA454AE061E070E0CE0101960E943746A0
:1031B000BE016F5F7F4FCE0107960E940B36CE0196
:1031C00001960E94324664EB79E0CE0107960E9498
:1031D000FA45F801608570E04AE0CE0101960E9450
:1031E0003746BE016F5F7F4FCE0107960E940B36B8
:1031F000CE0101960E9432466FEB79E0CE01079630
:103200000E94FA45F801618570E04AE0CE0101961E
:103210000E943746BE016F5F7F4FCE0107960E9426
:103220000B36CE0101960E9432466AEC79E0CE015F
:1032300007960E94FA45F801628573854AE0CE013F
:1032400001960E943746BE016F5F7F4FCE01079601
:103250000E940B36CE0101960E94324668E479E066
:10326000CE0107960E94FA45F8018681811103C0BC
:103270006EE279E002C069E279E0CE0107960E9431
:10328000FA4567E579E0CE0107960E94FA45BE014E
:10329000695F7F4FCE0101960E94D146BE016F5FEC
:1032A0007F4FC7010E941236CE0101960E9432461E
:1032B000CE0107960E9432462C960FB6F894DEBFD8
:1032C0000FBECDBFDF91CF911F910F91FF90EF9077
:1032D000DF90CF900895EF92FF920F931F93CF93BB
:1032E000DF93CDB7DEB7AA970FB6F894DEBF0FBE57
:1032F000CDBFFB01309709F4D5C02481223509F0F8
:10330000D1C061E070E0DC0115963C912581321757
:1033100011F060E070E08F017C014AE0CE01079679
:103320000E94624661E070E0F7019085D80118962E
:103330008C91981711F060E070E04AE0CE010D9694
:103340000E94624661E070E0F7019781D80117960C
:103350008C91981711F060E070E04AE0CE0143963E
:103360000E94624661E070E0F7019481D8011496F2
:103370008C91981711F060E070E04AE0CE01499618
:103380000E94624661E070E0F70122813381D8013A
:1033900012968D919C9113972817390711F060E0D0
:1033A00070E04AE0CE014F960E94624663ED79E0FC
:1033B000CE0185960E94D946BE01615E7F4FCE0147
:1033C00085960E94E94564E179E00E94D245BE01FC
:1033D000675E7F4F0E94E94564E179E00E94D24533
:1033E000BE016D5E7F4F0E94E94564E179E00E9475
:1033F000D245BE01635F7F4F0E94E94564E179E0F9
:103400000E94D245BE01695F7F4F0E94E9456BE48F
:1034100078E00E94D245BC01CE0101960E94D146BF
:10342000CE0101960E947136CE0101960E9432466D
:10343000CE0185960E943246CE014F960E943246BA
:10344000CE0149960E943246CE0143960E943246F2
:10345000CE010D960E943246CE0107960E9432465A
:10346000F70122813381D80112968D919C91139797
:1034700028173907B9F4948114968C9114979813EE
:1034800011C0978117968C91179798130BC0908550
:1034900018968C911897981305C0958115968C9164
:1034A000981711F080E001C081E0AA960FB6F89459
:1034B000DEBF0FBECDBFDF91CF911F910F91FF9067
:1034C000EF9008950F931F93CF93DF93CDB7DEB79F
:1034D000A2970FB6F894DEBF0FBECDBF8C01CB0113
:1034E000BA01F801118210821382128215821482AD
:1034F0002AE0AE014F5F5F4F0E94B760BE016F5F71
:103500007F4FC8010E940846A2960FB6F894DEBF0E
:103510000FBECDBFDF91CF911F910F910895CF9234
:10352000DF92EF92FF920F931F93CF93DF93CDB76C
:10353000DEB7C654D1090FB6F894DEBF0FBECDBFBB
:10354000FC0182819381A481B58123968CAF9DAFCC
:10355000AEAFBFAF239721E023962FAF23972396DB
:103560004CAD5DAD6EAD7FAD23974BAB5CAB6DAB42
:103570007EAB89AF9AAFABAFBCAF8DA79EA7AFA70D
:10358000B8AB28AB4DA55EA56FA578A94FA358A7EA
:1035900069A77AA72EAB4BA95CA96DA97EA949A3FF
:1035A0005AA36BA37CA38B8F9C8FAD8FBE8F4DEEE8
:1035B00053E05C8B4B8B3FEF3D8B3E8B3F8B188EEC
:1035C0005E874D872AA7CFA0D8A4E9A4FAA4CF8606
:1035D000D88AE98AFA8A2CA309A11AA12BA13CA1B5
:1035E00009871A872B873C875A8349838B839C835F
:1035F000AD83BE838091D70E81110DC160E372E06F
:1036000080E090E00E949D4E1FB7F8948091D60E06
:10361000811127C0E1ECF3E08491EBE7F3E09491B2
:10362000E82FF0E0EE0FFF1FE45DFC4FA591B49191
:10363000EC91E92321F461E085E30E94334E61E0DF
:1036400085E30E94614E8CB580618CBD8CB5806431
:103650008CBD61E084E30E94614E61E083E30E94DF
:10366000614E8091D60E8F5F8093D60E1FBFE6E924
:10367000F3E0E491F0E0EE0FFF1FEE5EFC4F85916A
:1036800094919093D30E8093D20EE0E5F3E0E49111
:10369000E093D10E61E08AE00E94614E0E94590DD4
:1036A000CE018D5B9F4F0E94273525968EAD9FAD35
:1036B00025970E94A64884E38093D40E0E94940D1F
:1036C000882319F188E00E94810D0E946E0D8830D8
:1036D000E1F480E10E94810D0E946E0D8031A9F419
:1036E00080E00E94810D0E946E0D81110EC041E0AC
:1036F00050E0BE016D5B7F4F8FE190E00E943B4F39
:1037000024968FAD24978330A1F187E38093D40E64
:103710000E94940D882309F440C088E00E94810D26
:103720000E946E0D8830C9F580E10E94810D0E94D3
:103730006E0D182F803189F580E00E94810D0E9466
:103740006E0D81112AC041E050E0BE016D5B7F4FDC
:1037500089E390E00E943B4F24968FAD24978430FC
:10376000E1F41093D50E0E94A54881E08093D70E16
:1037700052C080E48093D50E10E042E06EE170E02C
:10378000812F0E94321042E06FE170E0812F0E9491
:1037900032101F5F183089F7E6CF83E38093D40E91
:1037A0000E94940D882391F180E10E94810D0E9476
:1037B0006E0D803159F582E10E94810D0E946E0DDF
:1037C000823121F580E00E94810D0E946E0D8111F1
:1037D0001DC084E08093D50E15E527961FAF27976F
:1037E00041E050E0BE016A5B7F4F8BE190E00E94B8
:1037F000C64F26961FAF269741E050E0BE016B5B97
:103800007F4F8AE190E00E94C64FADCF1092D40E58
:103810000E94A5483EC0CE018D5B9F4F0E94273578
:1038200025968EAD9FAD25970E94A64846E050E0B4
:103830006FE172E189E090E00E94C64F44E050E001
:10384000BE016D5F7F4F8FE090E00E94C64F44E065
:1038500050E0BE01615F7F4F81E090E00E94C64F63
:1038600044E050E0BE016B5E7F4F85E090E00E9437
:10387000C64F0E94A54881E08C8789859A85AB85D3
:10388000BC8580935C1190935D11A0935E11B09301
:103890005F11CA5BDF4F0FB6F894DEBF0FBECDBF1E
:1038A000DF91CF911F910F91FF90EF90DF90CF901C
:1038B00008950F931F93CF93DF93CDB7DEB7A197F2
:1038C0000FB6F894DEBF0FBECDBF8C01CB01BA019D
:1038D000F8011182108213821282158214822AE06A
:1038E000AE014F5F5F4F0E94DA60BE016F5F7F4F96
:1038F000C8010E940846A1960FB6F894DEBF0FBE1D
:10390000CDBFDF91CF911F910F910895EF92FF925C
:103910000F931F93CF93DF93CDB7DEB727970FB6E3
:10392000F894DEBF0FBECDBF8C01FB0149838281BD
:103930008A8383818B8384818C8385818D831E829E
:10394000FE0131969E01295F3F4F80E090E07F01AC
:103950004191840F911DE217F307D1F78F83D801AE
:103960008D919C91DC01ED91FC910084F185E02D1D
:103970001995F801A081B181ED91FC911197892BE6
:1039800031F00284F385E02DCD011995E8CF028056
:10399000F381E02D47E050E0B701CD01199527965E
:1039A0000FB6F894DEBF0FBECDBFDF91CF911F9150
:1039B0000F91FF90EF900895A0912F12B0913012C7
:1039C0001097B9F020912B12222399F040913312D5
:1039D0005091341220E030E02417350754F4ED9173
:1039E000FD91628173816817790729F02F5F3F4F3E
:1039F000F3CFE0E0F0E0CF010895CF93DF9300D064
:103A000000D0CDB7DEB762EE79E0CE0101960E941C
:103A1000D946CE0101960E947136CE0101960E94D0
:103A2000324660E777E180E090E00E949D4E98E2A8
:103A300088E10FB6F894A895809360000FBE90932C
:103A4000600026960FB6F894DEBF0FBECDBFDF91A3
:103A5000CF910895FF920F931F93CF93DF93CDB72C
:103A6000DEB762970FB6F894DEBF0FBECDBFF82E5B
:103A700082E4F81224C080E190E00E94AE5D8C01E7
:103A800080E1F80111928A95E9F7F80116828BEB33
:103A900092E0918380830115110579F46CEE79E051
:103AA000CE0101960E94D946CE0101960E948F3622
:103AB000CE0101960E943246A0DF82E4D7C0F2E533
:103AC000FF1224C089E090E00E94AE5D8C0189E085
:103AD000F80111928A95E9F7F80116828BED92E0D0
:103AE000918380830115110579F465E07AE0CE01B8
:103AF00001960E94D946CE0101960E948F36CE01D2
:103B000001960E94324679DF82E5B0C0F1E3FF12F0
:103B100024C082E190E00E94AE5D8C0182E1F80158
:103B200011928A95E9F7F80116828BE992E0918368
:103B300080830115110579F46DE17AE0CE010196DB
:103B40000E94D946CE0101960E948F36CE01019681
:103B50000E94324652DF81E389C0F4E5FF1229C09A
:103B600087E190E00E94AE5D8C0187E1F80111923F
:103B70008A95E9F7F8011682108A138A148A158A41
:103B8000168A89E792E0918380830115110579F403
:103B90006BE37AE0CE0101960E94D946CE010196F0
:103BA0000E948F36CE0101960E94324626DF84E5C0
:103BB0005DC0F0E5FF1651F16F2DCE0107960E9412
:103BC000B94661E67AE0CE010D960E94D946BE0163
:103BD000695F7F4FCE010D960E94E945BC01CE0181
:103BE00001960E94D146CE0101960E947136CE0107
:103BF00001960E943246CE010D960E943246CE01B9
:103C000007960E94324600E010E036C084E190E062
:103C10000E94AE5D8C01FC01168287E392E09183E5
:103C2000808317821086118681E090E093878287D7
:103C3000158614868DEE93E0978786878AE0808BC1
:103C4000818B828B838B0115110579F46CE77AE007
:103C5000CE0101960E94D946CE0101960E948F3670
:103C6000CE0101960E943246C8DE80E5F8018483C9
:103C70000115110509F4A0CFC80162960FB6F8949A
:103C8000DEBF0FBECDBFDF91CF911F910F91FF908F
:103C90000895EF92FF920F931F93CF93DF93CDB7C9
:103CA000DEB762970FB6F894DEBF0FBECDBF082F08
:103CB00080912F1290913012892B09F443C06AE948
:103CC0007AE0CE0101960E94D946CE0101960E946B
:103CD0007136CE0101960E943246E12CF12C809182
:103CE000331290913412E816F90634F563EA7AE05B
:103CF000CE0101960E94D946CE0101960E947136EE
:103D0000CE0101960E943246E0912F12F0913012BE
:103D1000C701880F991FE80FF91F808191810097D3
:103D200039F0DC01ED91FC910688F789E02D1995B9
:103D3000BFEFEB1AFB0AD3CF80912F129091301274
:103D40000E94465E4AE0602FCE0107960E948D4693
:103D50006CEA7AE0CE010D960E94D946BE01695FF9
:103D60007F4FCE010D960E94E945BC01CE01019620
:103D70000E94D146CE0101960E947136CE01019675
:103D80000E943246CE010D960E943246CE01079621
:103D90000E94324610E0C801880F991F0E94AE5D54
:103DA0009093301280932F12109334120093331299
:103DB00062960FB6F894DEBF0FBECDBFDF91CF91F4
:103DC0001F910F91FF90EF900895EF92FF920F9344
:103DD0001F93CF93DF93CDB7DEB7CE5CD1090FB67B
:103DE000F894DEBF0FBECDBF8C01FC018681882315
:103DF00029F180911712882309F487C084818035C6
:103E000019F4C8012BD381C0823509F44BC040F4AA
:103E1000813371F0823409F078C02DE438E044C079
:103E2000843549F0823609F070C02AEB3AE03CC094
:103E300020E738E039C026E838E036C0F801628172
:103E400073814AE0CE018B599F4F0E94374664ED43
:103E50007AE0CE0187539F4F0E94D946BE016B592D
:103E60007F4FCE0187539F4F0E94E94562EE7AE073
:103E70000E94D245BC01CE0101960E94D146CE01DE
:103E800001960E947136CE0101960E943246CE0103
:103E900087539F4F0E943246CE018B599F4F0E94FD
:103EA000324633C02FE538E0F80193819F93928129
:103EB0009F931F928F9386EF9AE09F938F933F93E8
:103EC0002F9388EF9AE09F938F937E01F5E6EF0E94
:103ED000F11CFF92EF920E946167F80185811F92A9
:103EE0008F9383E09BE09F938F938E010F5F1F4F13
:103EF0001F930F930E946167B801C7010E94603948
:103F00000FB6F894DEBF0FBECDBFC253DF4F0FB662
:103F1000F894DEBF0FBECDBFDF91CF911F910F91FF
:103F2000FF90EF9008953F924F925F926F927F9231
:103F30008F929F92AF92BF92CF92DF92EF92FF92B9
:103F40000F931F93CF93DF93CDB7DEB762970FB672
:103F5000F894DEBF0FBECDBF5C01562EC12CD12C14
:103F600097E0392E27E1622E22E0722E44244394FA
:103F70008091351290913612C816D9060CF000C106
:103F80008601000F111FE0913112F0913212E00F03
:103F9000F11F80819181DC0112962D913C91139744
:103FA0002A153B0509F0E8C016962C912511E4C0AE
:103FB00066E07BE00E94A13AC501FEDC009709F4AF
:103FC000A4C0DC01ED91FC91008CF18DE02D45E069
:103FD00050E06EE07BE01995E0913112F0913212E1
:103FE000E00FF11F80809180F40187819085E4DCEF
:103FF0007C01009731F1DC01ED91FC91008CF18D99
:10400000E02D45E050E066E17BE0199580913112AA
:1040100090913212FC01E00FF11F0190F081E02D30
:10402000838594858235910509F0A6C061857285E6
:10403000D701ED91FC910288F389E02DC701199514
:104040009BC0F401608171814AE0CE0107960E9415
:1040500037466BE97DE0CE010D960E94D946BE0140
:10406000695F7F4FCE010D960E94E9456FE17BE0CD
:104070000E94D245BC01CE0101960E94D146CE01DC
:1040800001960E948F36CE0101960E943246CE01E3
:104090000D960E943246CE0107960E94324687E076
:1040A00090E00E94AE5D7C01DC01E32D1D92EA955B
:1040B000E9F7DC016D927C92E0913112F0913212BD
:1040C0000E0F1F1FF801A081B18117968D919C9151
:1040D0001897F701938382831B968C918483D80170
:1040E000ED91FC918185F70185834682C7016DDEE4
:1040F000E114F10409F440C0D701ED91FC91068868
:10410000F789E02DC701199537C080913112909140
:104110003212FC01E00FF11F0190F081E02D60816F
:1041200071814AE0CE0107960E9437466BE97DE037
:10413000CE010D960E94D946BE01695F7F4FCE0128
:104140000D960E94E94562E37BE00E94D245BC01E6
:10415000CE0101960E94D146CE0101960E948F3673
:10416000CE0101960E943246CE010D960E94324643
:10417000CE0107960E943246BFEFCB1ADB0AF8CE7B
:1041800062960FB6F894DEBF0FBECDBFDF91CF9120
:104190001F910F91FF90EF90DF90CF90BF90AF9065
:1041A0009F908F907F906F905F904F903F90089579
:1041B000089587E00895FF920F931F93CF93DF93A5
:1041C0008C01EB01FC016281CE010E94AF16F80167
:1041D0006481CE0101960E94AF16F8016781CE017D
:1041E00002960E94AF16F8016085CE0103960E94E8
:1041F000AF16F8016185CE0104960E94AF16F80152
:10420000F2846385CE0105960E94AF166F2DCE0114
:104210000696DF91CF911F910F91FF900C94AF16EE
:10422000EF92FF920F931F93CF93DF938C01EB01DB
:10423000FC016281CE010E94AF16F8016481CE01BB
:1042400001960E94AF16F8016781CE0102960E9486
:10425000AF16085F1F4F7E01F3E0EF0EF11C2B96A7
:10426000F80161918F01C7010E94AF16FFEFEF1AAD
:10427000FF0AEC16FD06A1F7DF91CF911F910F9178
:10428000FF90EF900895FF920F931F93CF93DF93CA
:10429000EC018B01CB010E94D31690E09B838A83B3
:1042A000C80101960E94D3168C83C80102960E9411
:1042B000D3168F83C80103960E94D3168887C8013E
:1042C00004960E94D3168987C80105960E94D316CA
:1042D000F82EC80106960E94D3162F2D30E0322FFB
:1042E0002227280F311D3B872A87DF91CF911F910D
:1042F0000F91FF900895EF92FF920F931F93CF932A
:10430000DF938C01EB01CB010E94D31690E0F80102
:1043100093838283CE0101960E94D316F801848391
:10432000CE0102960E94D316F80187837E01F3E046
:10433000EF0EF11C085F1F4F2B96C7010E94D3168A
:10434000F80181938F01FFEFEF1AFF0AEC16FD06CB
:10435000A1F7DF91CF911F910F91FF90EF900895FA
:104360000C94465E0C94465EAF92BF92CF92DF9261
:10437000EF92FF920F931F93CF93DF93CDB7DEB7EA
:10438000C456D1090FB6F894DEBF0FBECDBF7B0176
:104390005A019F938F931F9280E58F9306EF1AE047
:1043A0001F930F9387E998E09F938F9388EF9AE08C
:1043B0009F938F93CE0101966C019F938F930E94E0
:1043C00061670FB6F894DEBF0FBECDBFF1E0AF1648
:1043D000B104B9F078F092E0A916B104C9F0E3E0B5
:1043E000AE16B10439F51F930F93DF92CF9287E693
:1043F0009BE014C01F930F93DF92CF9285E49BE064
:104400000DC01F930F93DF92CF9281E59BE006C012
:104410001F930F93DF92CF928DE59BE09F938F9335
:10442000FF92EF920E9461670FB6F894DEBF0FBE55
:10443000CDBF02C0F7011082CC59DF4F0FB6F89400
:10444000DEBF0FBECDBFDF91CF911F910F91FF90C7
:10445000EF90DF90CF90BF90AF9008954F925F9212
:104460006F927F928F929F92AF92BF92EF92FF9244
:104470000F931F93CF93DF93CDB7DEB7CD5CD109F8
:104480000FB6F894DEBF0FBECDBF7C01FC010485E2
:1044900015850115110509F442C040EBBC01625FAE
:1044A0007F4FC80133DAAE014F5F5F4F60EAC8014A
:1044B0000E940C16882321F1698170E0762F66270F
:1044C0008A81680F711D072E000C880B990B0E94C2
:1044D00085634B015C016B8170E080E090E00E949D
:1044E000856320E030E040E251E40E947F659B015B
:1044F000AC01C501B4010E941B654B015C0106C003
:10450000812C912CF0E8AF2EFFEBBF2E20E030E0A5
:10451000A901C501B4010E947F6318161CF0812C0B
:10452000912C54018E010B591F4F22E046E0C5012A
:10453000B4010E948F5D40E050E0BE016F5F7F4F8D
:10454000F7018281938110DFB801CE0101960E94AC
:104550006039F701048515850115110509F45AC064
:1045600062857385072E000C880B990B0E9485636A
:104570004B015C0141EBB701625F7F4FC801C6D9B7
:10458000AE0147535F4F61EAC8010E940C168823B1
:1045900081F1C753DF4F6881C95CD04070E0762F4E
:1045A0006627C653DF4F8881CA5CD040680F711DF3
:1045B000072E000C880B990B0E9485632B013C0190
:1045C000C553DF4F6881CB5CD04070E080E090E065
:1045D0000E94856320E030E048EC52E40E947F6551
:1045E0009B01AC01C301B2010E941B659B01AC01A0
:1045F00004C020E030E040E85FEBC501B4010E9458
:10460000E4634B015C0120E030E0A9010E947F637C
:1046100018161CF0812C912C54018E010B591F4F40
:1046200022E046E0C501B4010E948F5D41E050E008
:10463000BE016F5F7F4FF7018281938195DEB801E4
:10464000CE0101960E946039F70104851585011598
:10465000110509F442C062857385072E000C880B92
:10466000990B0E9485634B015C0142EBB701625FCD
:104670007F4FC8014BD9AE0147535F4F62EAC80173
:104680000E940C168823C1F0C753DF4F6881C95CB4
:10469000D04070E0762F6627C653DF4F8881CA5C12
:1046A000D040680F711D072E000C880B990B0E94DB
:1046B00085639B01AC0104C020E030E040E85FEB83
:1046C000C501B4010E94E4634B015C0120E030E0CD
:1046D000A9010E947F6318161CF0812C912C5401B3
:1046E0008E010B591F4F22E046E0C501B4010E9424
:1046F0008F5D42E050E0BE016F5F7F4FF701828126
:10470000938132DEB801CE0101960E946039F70133
:10471000048515850115110509F469C06285738545
:10472000072E000C880B990B0E9485634B015C01DE
:1047300043EBB701625F7F4FC801E8D8AE01475332
:104740005F4F63EAC8010E940C16882341F1C753EA
:10475000DF4F6881C95CD040862F90E0A0E0B0E0D8
:10476000DC0199278827C553DF4F2881CB5CD040D7
:10477000820F911DA11DB11DC653DF4F2881CA5C58
:10478000D04030E0322F2227BC01CD01620F731FD1
:10479000811D911D0E9483639B01AC0104C020E038
:1047A00030E040E85FEBC501B4010E94E4634B01D7
:1047B0005C0120E030E0A9010E9418661816BCF4E4
:1047C0008E010B591F4F22E046E0C501B4010E9443
:1047D0008F5D43E050E0BE016F5F7F4FF701828144
:1047E0009381C2DDB801CE0101960E946039C353A6
:1047F000DF4F0FB6F894DEBF0FBECDBFDF91CF9174
:104800001F910F91FF90EF90BF90AF909F908F906E
:104810007F906F905F904F900895089508954F9204
:104820005F926F927F92AF92BF92CF92DF92EF92A0
:10483000FF920F931F93CF93DF9300D000D0CDB79B
:10484000DEB77C01DC0117968C91882309F47DC0CA
:10485000823099F08330B9F0813091F062E77BE0EB
:10486000CE0101960E94D946CE0101960E94713672
:10487000CE0101960E9432467AC103E81FE005C0CE
:1048800000E210E102C006EE1EE00115110509F478
:104890006EC187E090E00E94AE5DFC0188EE93E07F
:1048A000A0E0B0E083839483A583B683D8015096BB
:1048B0002D913C91519782E0D9018C93D8011C969F
:1048C0008D919C911D97DC011C92D8011E962D9113
:1048D0003C911F978FECD9018C93D80158961C926C
:1048E000589754962D913C91559786E0D9018C9319
:1048F000D80152962D913C915397D9018C918061AA
:104900008C93D80152962D913C915397D9018C915B
:1049100088608C93D80152962D913C915397D90180
:104920008C9180688C93D80152962D913C9153972D
:10493000D9018C918F7D8C93118300831282D701D2
:104940001D96FC93EE931C9712C1F701A184AA2037
:1049500009F40DC1B084BB2009F409C187E090E0DF
:104960000E94AE5D6C0138EE432E33E0532E612C75
:10497000712CDC0113964D925D926D927C9216978C
:104980008FE190E00E94AE5D8C01FC0113821282E7
:1049900044825582668277828BE193E091838083A3
:1049A000178A168A118E108E138E128E158E148E03
:1049B000668D6E7F6D7F668F6695617081E068277A
:1049C0008A2D0E94334E61E08A2D0E94614E8A2D0D
:1049D00090E0FC01EA5BFC4FE491D8015096EC9327
:1049E000FC01E457FC4FE491F0E0EE0FFF1FEE5E98
:1049F000FC4F85919491F801928B818B60E08B2D17
:104A00000E94614ED8015E968C9181FD04C061E0E8
:104A10008B2D0E94334EF801B4868B2D90E0FC0163
:104A2000EA5BFC4FE491D8011D96EC93FC01E4573E
:104A3000FC4FE491F0E0EE0FFF1FEE52FC4F25918A
:104A40003491F80137872687138E128E118E108EBF
:104A5000178A168A2DE931E0358F248F26EF2B0D2A
:104A6000243048F03EEC3B0D343028F032EC3B0D66
:104A7000383008F06FC04DEB50E0D80157965C938A
:104A80004E9356974BE951E059965C934E93589745
:104A90004CE251E05B965C934E935A97243060F061
:104AA0003EEC3B0D343040F032EC3B0D383008F03A
:104AB00074C0A8E6B0E073C0A8E6B0E0E8E6F0E0B5
:104AC0004081243020F032EC3B0D383010F031E0E2
:104AD00001C034E0342B3C93243058F03EEC3B0DC5
:104AE000343038F032EC3B0D383030F040E050E0FC
:104AF00005C04BE650E002C04DE650E0F801548B93
:104B0000438B243020F49C012650310910C0F2E37D
:104B1000BF1699F023E3B21691F0A4E3BA1689F018
:104B200022EC2B0D283078F49C012E53310981E0C2
:104B300001C0880F2A95EAF707C088E005C084E025
:104B400003C082E001C081E0F801858B8DE991E02E
:104B50000197F1F7C8010E94DB15D60111961C934D
:104B60000E9381E012968C93F701D586C486D70107
:104B70001C960D911C911D9701151105B1F0B701FF
:104B8000625F7F4F44EBC8010E94861C40E050E00A
:104B900064EAC8010E940C1608C0A0E0B0E03830FA
:104BA00008F48CCFE0E0F0E08BCF26960FB6F894B7
:104BB000DEBF0FBECDBFDF91CF911F910F91FF9050
:104BC000EF90DF90CF90BF90AF907F906F905F900D
:104BD0004F900895EF92FF920F931F93CF93DF931F
:104BE000CDB7DEB7E0970FB6F894DEBF0FBECDBFEE
:104BF000FB01309709F400C12481203509F0FCC085
:104C000061E070E0DC011A964D915C911B97228562
:104C100033854217530711F060E070E08F017C018B
:104C20004AE0CE0107960E94624661E070E0F7011B
:104C30009781D80117968C91981711F060E070E079
:104C40004AE0CE010D960E94624661E070E0F701F5
:104C50009185D80119968C91981711F060E070E059
:104C60004AE0CE0143960E94624661E070E0F7019F
:104C70009085D80118968C91981711F060E070E03B
:104C80004AE0CE0149960E94624661E070E0F70179
:104C90009481D80114968C91981711F060E070E01F
:104CA0004AE0CE014F960E94624661E070E0F70153
:104CB00022813381D80112968D919C9113972817E8
:104CC000390711F060E070E04AE0CE0185960E945D
:104CD000624661E87BE0CE018B960E94D946BE0118
:104CE0006B5D7F4FCE018B960E94E94564E179E0D0
:104CF0000E94D245BE01615E7F4F0E94E94564E19A
:104D000079E00E94D245BE01675E7F4F0E94E9456F
:104D100064E179E00E94D245BE016D5E7F4F0E9442
:104D2000E94564E179E00E94D245BE01635F7F4FAF
:104D30000E94E94564E179E00E94D245BE01695FC5
:104D40007F4F0E94E9456BE478E00E94D245BC01A8
:104D5000CE0101960E94D146CE0101960E94713685
:104D6000CE0101960E943246CE018B960E943246B9
:104D7000CE0185960E943246CE014F960E94324661
:104D8000CE0149960E943246CE0143960E94324699
:104D9000CE010D960E943246CE0107960E94324601
:104DA000F70122813381D80112968D919C9113973E
:104DB0002817390709F5948114968C911497981344
:104DC0001BC0908518968C911897981315C09185E3
:104DD00019968C91199798130FC0978117968C91FB
:104DE0001797981309C0228533851A968D919C9147
:104DF0001B972817390711F080E001C081E0E09689
:104E00000FB6F894DEBF0FBECDBFDF91CF911F91DB
:104E10000F91FF90EF900895EF92FF920F931F93E1
:104E2000CF93DF93CDB7DEB7A4970FB6F894DEBF6C
:104E30000FBECDBF6115710509F48BC0FB01248144
:104E4000243509F086C08B017C014AE060E070E007
:104E5000CE0107960E94624661E070E0F7019781FB
:104E6000F8018781981711F060E070E04AE0CE0108
:104E70000D960E94624661E070E0F7019481F801AE
:104E80008481981711F060E070E04AE0CE0143960B
:104E90000E94624661E070E0F70122813381F801EF
:104EA000828193812817390711F060E070E04AE0B1
:104EB000CE0149960E94624665E97BE0CE014F969D
:104EC0000E94D946BE01675E7F4FCE014F960E9479
:104ED000E94564E179E00E94D245BE016D5E7F4FF5
:104EE0000E94E94564E179E00E94D245BE01635F1A
:104EF0007F4F0E94E94564E179E00E94D245BE01FE
:104F0000695F7F4F0E94E9456BE478E00E94D245DB
:104F1000BC01CE0101960E94D146CE0101960E94AD
:104F20007136CE0101960E943246CE014F960E9404
:104F30003246CE0149960E943246CE0143960E94E7
:104F40003246CE010D960E943246CE0107960E944F
:104F5000324680E0A4960FB6F894DEBF0FBECDBFF8
:104F6000DF91CF911F910F91FF90EF9008958F9255
:104F70009F92AF92BF92CF92DF92EF92FF920F93E8
:104F80001F93CF93DF9300D000D0CDB7DEB7FC01E5
:104F90009681992309F466C15B018F019150968334
:104FA0006F0182E0C80ED11CC6010E94F602D80132
:104FB0001296ED91FC91139780818B3521F08B3700
:104FC00009F49AC027C1F801E080F180B70184E0BC
:104FD00090E00E943004009751F0DC011196FC92A1
:104FE000EE9213961C921E9212977C0113C0809130
:104FF000DE0E81110BC01092DB0E1092DA0E1092B1
:10500000DD0E1092DC0E81E08093DE0E9AEDE92E2B
:105010009EE0F92E6BE5C6010E943803882309F44F
:1050200049C06DE5C6010E943803811156C01A823D
:105030001982BE016F5F7F4FC80199DF8823D1F1CC
:10504000F7016081718188E090E00E943004DC010A
:10505000892B39F011961C921E9213961C921E9267
:105060001297F701228133812115310551F0F901A1
:1050700080819181009711F09C01F9CFB183A083C9
:1050800003C0F701B383A2831097A1F086E0FE016D
:105090003196129601900D928A95E1F76DE5C60161
:1050A0000E943803811119C06CE2C6010E943803C6
:1050B0008111BDCF8091DE0E81110BC01092DB0EED
:1050C0001092DA0E1092DD0E1092DC0E81E08093C9
:1050D000DE0E8AEDE82E8EE0F82ED7018D919C91A0
:1050E000892B11F4F12CB9C086E090E0F501918391
:1050F0008083F382E282AFC0D801ED90FC90B701CB
:1051000084E090E00E943004009709F4ADC0FC01F7
:10511000F182E082138212827C016BE7C6010E9459
:105120003803882309F462C06DE7C6010E94380382
:1051300081115FC0C8010E944D034C01892B09F405
:1051400055C06AE3C6010E943803882309F44EC0A3
:105150001A821982BE016F5F7F4FC80108DF882362
:1051600009F444C0B401C7010E949104009749F5B5
:10517000D7016D917C918AE090E00E943004009705
:1051800029F0FC011182108215821482D701129637
:10519000ED91FC911397309751F0208131812115C9
:1051A000310511F0F901F9CF9183808303C0F70134
:1051B000938382830097D1F0DC0113969C928E92A8
:1051C000129726E0FE013196DC01149601900D92B3
:1051D0002A95E1F76DE7C6010E943803811109C0E5
:1051E0006CE2C6010E9438038111A4CF0E941E0404
:1051F0007C01F70180819181892B09F473CF87E0CD
:1052000090E0D50111969C938E931396FC92EE92AA
:10521000129721C0FF24F394873219F0823209F0EB
:10522000F12CC8010E944D03009709F45BCFFF20C9
:1052300041F022E030E0F5013183208393838283C3
:105240000CC021E030E0D50111963C932E931396CB
:105250009C938E931297FF24F394F80186818F5FBD
:10526000868305C0F12C03C00E941E0455CF8F2DEC
:1052700026960FB6F894DEBF0FBECDBFDF91CF915B
:105280001F910F91FF90EF90DF90CF90BF90AF9064
:105290009F908F9008951F93CF93DF93EC01162F6B
:1052A0006D830E94E51E612F8A819B81DF91CF91E2
:1052B0001F910C94931FFB0144815581FC012481B3
:1052C00035812417350778F080819181009759F056
:1052D000FB01608171816115710529F00E9453679E
:1052E00021E0892B09F020E0822F08951F93CF93AE
:1052F000DF93EC01162F6885111102C081E0682749
:105300008F810E94334E1D83CE010E94E51E612FC6
:105310008A819B81DF91CF911F910C94931FAF9253
:10532000BF92DF92EF92FF920F931F93CF93DF9381
:1053300000D000D0CDB7DEB75B017C0100E010E00B
:105340000E5F1F4FA801425051099801B501CE01CF
:1053500001960E94ED4640E150E060E070E08981F6
:105360009A810E946B5FD62ECE0101960E94324632
:10537000F701D1927F010031110511F726960FB682
:10538000F894DEBF0FBECDBFDF91CF911F910F917B
:10539000FF90EF90DF90BF90AF900895CF92DF9293
:1053A000EF92FF920F931F93CF93DF93CDB7DEB7AA
:1053B00062970FB6F894DEBF0FBECDBF8C016B01B4
:1053C000DC018D919C91009729F00E947560AB01E2
:1053D000BC0103C040E050E0BA01CE0107960E9434
:1053E000621A6CEA7BE0CE010D960E94D946B801A4
:1053F000CE010D960E94E9456AEB7BE00E94D24502
:10540000BE01695F7F4F0E94E9456CEB7BE00E9423
:10541000D245BC01CE0101960E94D146CE01019633
:105420000E947136CE0101960E943246CE010D9641
:105430000E943246CE0107960E943246F8018081D2
:105440009181009719F00E94756003C060E070E0E0
:10545000CB01CB010E94DC1C8C01009709F442C0F7
:10546000DC0112966D917C9113974AE0CE0107966C
:105470000E9437466EEB7BE0CE010D960E94D94626
:10548000BE01695F7F4FCE010D960E94E945BC01C8
:10549000CE0101960E94D146CE0101960E9471363E
:1054A000CE0101960E943246CE010D960E943246F0
:1054B000CE0107960E94324681E0F8018683019072
:1054C000F081E02DE288F388D6018D919C910097C0
:1054D00019F00E94756003C060E070E0CB01C80164
:1054E000F701199562960FB6F894DEBF0FBECDBFD7
:1054F000DF91CF911F910F91FF90EF90DF90CF90B0
:105500000895EF92FF920F931F93CF93DF93CDB740
:10551000DEB7C55FD1090FB6F894DEBF0FBECDBFB1
:105520009E01275F3F4F3C832B8328EC30E03E8376
:105530002D8318861F822DE233E03A832983DC0114
:105540008D919C91009711F482E398E09E012F5F6A
:105550003F4FCF52DF4F39832883C15DD040CD52BA
:10556000DF4F99838883C35DD040CB52DF4F3983AF
:105570002883C55DD0408AE0C952DF4F8883C75D6C
:10558000D040C252DF4F19821882CE5DD040BE019A
:1055900062527F4FCE018F529F4FE9DC86E0FE01C1
:1055A000E252FF4FDE01A852BF4F01900D928A9543
:1055B000E1F786E0FE01E852FF4FDE01A252BF4F45
:1055C00001900D928A95E1F786E0FE01E252FF4FCD
:1055D000DE01AF52BF4F01900D928A95E1F7CF5295
:1055E000DF4F88819981C15DD040079739F4CD5252
:1055F000DF4F08811981C35DD04003C00E941E04A3
:105600008C016AEC7BE0C8010E944F05882309F4F5
:1056100044C06AEC7BE0C8010E940B05182F609122
:105620003312709134124AE0CE0186519F4F0E948E
:10563000624661ED7BE0CE018C519F4F0E94D946BE
:10564000BE0166517F4FCE018C519F4F0E94E945AC
:10565000BC01CE0180519F4F0E94D146CE018051A6
:105660009F4F0E947136CE0180519F4F0E9432465B
:10567000CE018C519F4F0E943246CE0186519F4FE2
:105680000E9432461092401210923F12812F0E94C7
:10569000491E81E08093D90E80C08091D90E882365
:1056A00009F47BC068ED75E0C8010E944F058823AE
:1056B00009F473C069EE7BE0C8010E944F0588239E
:1056C00009F46BC0E0903F12F0904012EE0CFF1C0A
:1056D00080912F1290913012E80EF91E68ED75E05E
:1056E000C8010E940305FC0180810E942A1DD70188
:1056F0008D939C93E0913F12F0914012EE0FFF1FAB
:1057000080912F1290913012E80FF91FE080F18004
:10571000E114F104F1F069EE7BE0C8010E94AE04EF
:10572000F70193838283E0913F12F0914012EE0FD4
:10573000FF1F80912F1290913012E80FF91F808186
:105740009181DC01ED91FC91028CF38DE02DB8018B
:10575000199580913F1290914012019690934012BA
:1057600080933F12209133123091341282179307A5
:10577000A1F46CEE7BE0CE018C519F4F0E94D94684
:10578000CE018C519F4F0E947136CE018C519F4F9C
:105790000E94324681E080932B12CB50DF4F0FB630
:1057A000F894DEBF0FBECDBFDF91CF911F910F9157
:1057B000FF90EF90089520912D122111A2CE08950F
:1057C000EF92FF920F931F93CF93DF93CDB7DEB786
:1057D000C55FD1090FB6F894DEBF0FBECDBF9E01E5
:1057E000275F3F4F3C832B8328EC30E03E832D83A3
:1057F00018861F822DE233E03A832983FC018081E1
:105800009181009711F482E398E09E012F5F3F4F52
:10581000CF52DF4F39832883C15DD040CD52DF4F57
:1058200099838883C35DD040CB52DF4F398328836F
:10583000C55DD0408AE0C952DF4F8883C75DD04044
:10584000C252DF4F19821882CE5DD040BE01625233
:105850007F4FCE018F529F4F8ADB86E0FE01E252DE
:10586000FF4FDE01A852BF4F01900D928A95E1F7DC
:1058700086E0FE01E852FF4FDE01A252BF4F0190C9
:105880000D928A95E1F786E0FE01E252FF4FDE01BC
:10589000AF52BF4F01900D928A95E1F7CF52DF4F83
:1058A00088819981C15DD040079739F4CD52DF4F8F
:1058B00008811981C35DD04003C00E941E048C0181
:1058C0006AEC7BE0C8010E944F05882309F44CC0B4
:1058D0006AEC7BE0C8010E94AC04009721F00496BA
:1058E0000E94400402C080E090E04AE0BC01CE018A
:1058F00086519F4F0E94624668E07CE0CE018C5149
:105900009F4F0E94D946BE0166517F4FCE018C51F8
:105910009F4F0E94E945BC01CE0180519F4F0E94DC
:10592000D146CE0180519F4F0E947136CE018051E9
:105930009F4F0E943246CE018C519F4F0E943246AB
:10594000CE0186519F4F0E9432466AEC7BE0C8012F
:105950000E940B0510924212109241120E942D3AA1
:1059600081E08093D80E29C18091D80E882309F454
:1059700024C169EE7BE0C8010E944F05882309F429
:105980001CC18DE090E00E94AE5D2DE0FC01119203
:105990002A95E9F72091411230914212220F331FCC
:1059A000E0913112F0913212E20FF31F9183808364
:1059B0008091311290913212FC01E20FF31F80812D
:1059C0009181892B09F4D5C069EE7BE0C8010E9462
:1059D0004F058823B1F0E0914112F0914212EE0F91
:1059E000FF1F8091311290913212E80FF91FE08071
:1059F000F18069EE7BE0C8010E94AE04F70191835B
:105A0000808360E17CE0C8010E944F058823B1F0EB
:105A1000E0914112F0914212EE0FFF1F809131127E
:105A200090913212E80FF91FE080F18060E17CE094
:105A3000C8010E94AE04F7019383828369E17CE090
:105A4000C8010E944F058823D9F0E0914112F091DE
:105A50004212EE0FFF1F8091311290913212E80F27
:105A6000F91FE080F18069E17CE0C8010E94030534
:105A7000FC018081082E000C990BF701958384832B
:105A800064E27CE0C8010E944F058823A9F0E09100
:105A90004112F0914212EE0FFF1F8091311290914E
:105AA0003212E80FF91FE080F18064E27CE0C80167
:105AB0000E940B05F70186836AE27CE0C8010E9420
:105AC0004F058823B1F0E0914112F0914212EE0FA0
:105AD000FF1F8091311290913212E80FF91FE08080
