:100000001AC2000049C2000047C2000045C20000F9
:1000100043C2000041C200003FC200003DC20000D8
:100020003BC200000C946C470C946C470C946C47DA
:1000300033C2000031C200002FC200002DC20000F8
:100040002BC2000029C2000027C2000025C2000008
:1000500023C2000021C200001FC200000C949D3F7B
:100060001BC200000C94FD370C94D43715C200005D
:1000700013C2000011C200000FC200000DC2000038
:100080000BC2000009C2000007C2000005C2000048
:100090000C94AA370C948137FFC10000FDC1000009
:1000A000FBC10000F9C10000F7C10000F5C100006C
:1000B000F3C10000F1C10000EFC10000EDC100007C
:1000C000EBC10000E9C10000E7C100000C94573704
:1000D0000C942E37E1C100000C9404370C94DB36ED
:1000E000DBC10000D719D119001AE019DC198619F3
:1000F000A5194C195A355D354C3550355635943562
:10010000613565356B356F35733579357D358135BD
:10011000943587358B358F3500407A10F35A00A01F
:10012000724E18090010A5D4E80000E876481700C0
:1001300000E40B54020000CA9A3B000000E1F50500
:10014000000080969800000040420F000000A0864A
:1001500001000000102700000000E803000000007C
:100160006400000000000A00000000000100000020
:1001700000002C76D888DC674F0823DFC1DFAE593A
:10018000E1B1B796E5E3E453C63AE651997696E8CD
:10019000E6C28426EB898C9B62ED407C6FFCEFBC51
:1001A0009C9F40F2BAA56FA5F490055A2AF75C937C
:1001B0006B6CF9676DC11BFCE0E40D47FEF520E6B2
:1001C000B500D0ED902E0300943577050080841E95
:1001D000080000204E0A000000C80C333333330FF0
:1001E000986E12831141EF8D2114893BE65516CF8D
:1001F000FEE6DB18D1844B381BF77C1D901DA4BB99
:10020000E424203284725E228100C9F124ECA1E54D
:100210003D27000020002300260029002C002F008D
:1002200032000001000003010601090100000A0B71
:1002300002090C0D0E080703040100000000000075
:1002400000000000000000000000000000000000AE
:10025000000000000000000012111000000000006B
:10026000000000000000000000000000000000008E
:10027000000000002200250028002B002E00310085
:10028000340002010000050108010B0100002100FB
:10029000240027002A002D00300033000101000057
:1002A000040107010A010102102020080810204063
:1002B000102040800201020108040201010204082A
:1002C00010204080804020100804020180040201B8
:1002D0008040201008040201080402010102040801
:1002E000102040800102040810204080050505050B
:1002F000070508080808020202020A0A080804049E
:1003000004040101010101010101030303030303CB
:100310000303040707070C0C0C0C0C0C0C0C02025A
:10032000020206060606060606060B0B0B0B0B0B57
:100330000B0B005EBCE2613FDD83C29C7E20A3FD0F
:100340001F419DC3217FFCA2401E5F01E3BD3E60B3
:1003500082DC237D9FC1421CFEA0E1BF5D0380DEE5
:100360003C62BEE0025CDF81633D7C22C09E1D4397
:10037000A1FF4618FAA427799BC584DA3866E5BB45
:100380005907DB856739BAE406581947A5FB782673
:10039000C49A653BD987045AB8E6A7F91B45C698A5
:1003A0007A24F8A6441A99C7257B3A6486D85B0557
:1003B000E7B98CD2306EEDB3510F4E10F2AC2F7105
:1003C00093CD114FADF3702ECC92D38D6F31B2EC33
:1003D0000E50AFF1134DCE90722C6D33D18F0C5265
:1003E000B0EE326C8ED0530DEFB1F0AE4C1291CF17
:1003F0002D73CA947628ABF517490856B4EA6937C5
:10040000D58B5709EBB536688AD495CB2977F4AAF2
:100410004816E9B7550B88D6346A2B7597C94A1424
:10042000F6A8742AC896154BA9F7B6E80A54D789D6
:100430006B35E15E9A5C11241FBECFEFD1E2DEBFC7
:10044000CDBF00E00CBF1FE0A0E0B2E0E4E3FBEDB5
:1004500000E00BBF02C007900D92A036B107D9F79C
:1004600024E1A0E6BFE001C01D92A931B207E1F787
:1004700012E0CAE1D2E000E006C021970109802F16
:10048000FE010E947C69C931D10780E00807A9F705
:100490000E949E5C0C94896DB3CDFC01118612867E
:1004A000138614861582089584E0089508958BE0DC
:1004B000089583E0089585E0089580E00895089503
:1004C000089580E00895FC0126813781620F731F33
:1004D000848195818617970738F08281938177838D
:1004E0006683820F931F089580E090E00895FC01D9
:1004F0001486158616861786118615820895FC01C6
:10050000768765870895DC01ED91FC91068CF78D67
:10051000E02D199591E089270895862F089581E0AF
:100520008627089521E0FC018485883008F020E0CA
:10053000822F089580E090E00895CF92DF92EF92AD
:10054000FF920F931F93CF93DF93EC018F810E9453
:100550002738082F8D81081749F1C984DA84EB8484
:10056000FC84C114D104E104F10439F40E94913FE8
:1005700069877A878B879C871DC00E94913F24E6FC
:10058000C20ED11CE11CF11C6C157D058E059F056A
:1005900088F011E08885801310E01D83CE010E9451
:1005A0000352612F8A819B810E94235419861A86E7
:1005B0001B861C86DF91CF911F910F91FF90EF90CA
:1005C000DF90CF900895CF93DF93EC018A819B81D8
:1005D0000E942354CE01DF91CF910C940352CF930C
:1005E000DF93EC018A819B810E9423541D82CE01FE
:1005F000DF91CF910C9403521F93CF93DF93EC01C3
:1006000060E08F810E947D38688511E061278F81CD
:100610000E944F3819861A861B861C8688851827E3
:100620001D83CE01DF91CF911F910C940352CF9384
:10063000DF93EC0160E08F810E947D38688581E066
:1006400068278F810E944F38CE01DF91CF910C94A3
:1006500003520C9493610C9493610F931F93CF9367
:10066000DF938C01EB01FC016281CE010E94B74A4D
:10067000F8016481CE0101960E94B74AF8016781B2
:10068000CE0102960E94B74AF8016085CE0103961A
:10069000DF91CF911F910F910C94B74A0F931F9345
:1006A000CF93DF93EC018B01CB010E94BE4890E019
:1006B0009B838A83C80101960E94BE488C83C8012F
:1006C00002960E94BE488F83C80103960E94BE48CE
:1006D00091E0811101C090E09887DF91CF911F9147
:1006E0000F9108950895FC01A081B1818C918D3006
:1006F00051F024F489508230B8F505C0803219F0E9
:100700008F3219F0089511962CC011968C91119783
:100710008A3219F08F32D1F008951196B183A083F7
:10072000A081B181CD0101969183808311968C9136
:1007300011978823C9F08A3299F712968C911297F3
:100740008F3271F713960DC08A3071F2A081B1819A
:10075000CD0101969183808311968C918111F4CF04
:1007600003C0B183A083C0CF08951F93CF93DF93BD
:10077000EC01162FB8DFE881F9818081181305C0DC
:100780003196F983E88381E001C080E0DF91CF9169
:100790001F910895EF92FF920F931F93CF93DF93D2
:1007A0008C01DC011496CD91DC911597EA80FB80D9
:1007B0008E819F81E80EF91EC801029694DFD80150
:1007C0001296ED91FC9113978081873291F18232DC
:1007D00081F190ED980F9A3060F0982F9F7D9154A1
:1007E0009A3138F08B3229F093ED980F923008F05F
:1007F00061C0F801228133812F5F3F4F3383228311
:100800002E813F81A9014F5F5F4F6C817D8164170D
:10081000750740F06A817B81FB01E20FF31F5F8364
:100820004E838083D8011296ED91FC9113978081BD
:10083000D0CF3196D8011396FC93EE931297D8013E
:100840001296ED91FC9113979081992399F19F0154
:100850002F5F3F4F13963C932E931297891751F1B8
:100860009C35A9F49181A7E9B4E02C91222339F0B9
:10087000921303C011969C9102C01296F6CF992351
:10088000C9F03296D8011396FC93EE9312972E81FD
:100890003F81A9014F5F5F4F6C817D8164177507B0
:1008A00070F26A817B81FB01E20FF31F5F834E834D
:1008B0009083C5CF8E819F819C012F5F3F4F4C81DC
:1008C0005D814217530750F04A815B81FA01E80FBE
:1008D000F91F3F832E831082C70102C080E090E0A1
:1008E000DF91CF911F910F91FF90EF9008950F939B
:1008F0001F93CF93DF938C01FC01C081D181C13064
:10090000D10559F4628173816115710531F082EA74
:1009100094E00E94906A892B39F02197229720F465
:10092000F8018281938102C080E090E0DF91CF9155
:100930001F910F9108958091640F81110BC0109247
:10094000610F1092600F1092630F1092620F81E09E
:100950008093640F80E69FE00895DB01109749F0D3
:10096000ED91FC9111970190F081E02DBC01CD013A
:10097000199480E090E008950895FC0180819181B0
:100980008330910520F4019708F440C00BC08530F6
:10099000910528F0059799F5628173812BC08281BA
:1009A000938108950280F381E02D309779F1808161
:1009B000843779F18B3229F08D3221F4319691E030
:1009C00002C0319690E060E070E04AE0819120ED55
:1009D000280F2A3068F4469F9001479F300D11245C
:1009E000682F880F770B60537109620F731FEECF6A
:1009F000992391F088279927861B970B0895628188
:100A00007381848195810E94346906C080E090E002
:100A1000089581E090E00895CB0108950F931F930E
:100A2000CF93DF938B01FC01C281D381209759F0D2
:100A30006A817B81C8010E94906A892B21F009900C
:100A4000D881C02DF3CFCE01DF91CF911F910F91AF
:100A50000895E4CF0895FDDFFC01892B09F448C017
:100A6000848195818330910520F4019708F440C07A
:100A70000BC08530910528F0059799F5668177813F
:100A80002BC08681978108950680F781E02D3097ED
:100A900079F18081843779F18B3229F08D3221F41C
:100AA000319691E002C0319690E060E070E04AE05B
:100AB000819120ED280F2A3068F4469F9001479FCE
:100AC000300D1124B90160537109680F711D87FD44
:100AD0007A95EECF992391F088279927861B970B5B
:100AE000089566817781808591850E94396906C065
:100AF00080E090E0089581E090E00895CB010895B2
:100B0000A8DF009711F00496F2CE80E090E00895FF
:100B1000A0DFFC01892BD9F1848195818330910577
:100B200018F40197A0F109C08530910520F00597D0
:100B300039F5668123C066812DC00680F781E02DDE
:100B4000309729F18081843721F18B3229F08D3261
:100B500021F4319691E002C0319690E060E021915D
:100B600080ED820F8A3040F4660F862F880F880F41
:100B7000680F6053620FF3CF992361F061950AC04B
:100B800066817781808591850E94396903C060E024
:100B900001C061E0862F08955CDF21E0892B09F414
:100BA00020E0822F08950F931F93CF93DF938C0142
:100BB000EB0167EA74E0CE01EFDF882331F067EAEA
:100BC00074E0CE01A5DFF80187836BEA74E0CE0103
:100BD000E3DF882329F0CE010E948052F80180874C
:100BE00060EB74E0CE01D8DF882331F060EB74E075
:100BF000CE018EDFF8018583DF91CF911F910F9198
:100C000008950F931F93CF93DF93EC018B01CB01DA
:100C10000E94BE4890E099838883C80101960E9493
:100C2000BE4890E09B838A83C80102960E94BE481A
:100C300090E09D838C83C80103960E94BE488E83FA
:100C4000C80104960E94BE4890E098878F83C8012F
:100C500005960E94BE4890E09A878987C80106964B
:100C60000E94BE4890E09C878B87DF91CF911F91B7
:100C70000F910895EF92FF920F931F93CF93DF93FD
:100C8000CDB7DEB7AA970FB6F894DEBF0FBECDBFC3
:100C9000DC01FB01309709F4CAC08481833409F078
:100CA000C6C012962D913C9113978281938128178B
:100CB000390799F414968C911497833471F417962C
:100CC0009C9117978781981308C018969C91189744
:100CD0008085981302C081E0ABC061E070E015969A
:100CE0009C9115978581981711F060E070E08F0155
:100CF0007D014AE0CE014F960E944B3661E070E0E4
:100D0000F7019085F8018085981711F060E070E098
:100D10004AE0CE0149960E944B3661E070E0F7014F
:100D20009781F8018781981711F060E070E04AE040
:100D3000CE0143960E944B3661E070E0F70194814A
:100D4000F8018481981711F060E070E04AE0CE016C
:100D50000D960E944B3661E070E0F70122813381ED
:100D6000F801828193812817390711F060E070E063
:100D70004AE0CE0107960E944B3667EB74E0CE0145
:100D800001960E94C636BE01695F7F4FCE01019673
:100D90000E94372A6DE275E00E941F2ABE01635F40
:100DA0007F4F0E94372A6DE275E00E941F2ABE0124
:100DB0006D5E7F4F0E94372A6DE275E00E941F2A08
:100DC000BE01675E7F4F0E94372A6DE275E00E9488
:100DD0001F2ABE01615E7F4F0E94372A6AEC74E0D1
:100DE0000E941F2ABC01CE0185960E94BD36CE010D
:100DF00085960E943F2FCE0185960E941A36CE011D
:100E000001960E941A36CE0107960E941A36CE012C
:100E10000D960E941A36CE0143960E941A36CE01D4
:100E200049960E941A36CE014F960E941A3680E0EB
:100E3000AA960FB6F894DEBF0FBECDBFDF91CF915B
:100E40001F910F91FF90EF900895EF92FF920F93F3
:100E50001F93CF93DF93CDB7DEB7AA970FB6F89461
:100E6000DEBF0FBECDBFDC01FB01309709F4CAC065
:100E70008481823409F0C6C012962D913C9113975B
:100E8000828193812817390799F414968C911497CD
:100E9000823471F417969C9117978781981308C034
:100EA00018969C9118978085981302C081E0ABC07A
:100EB00061E070E015969C9115978581981711F067
:100EC00060E070E08F017D014AE0CE014F960E9404
:100ED0004B3661E070E0F7019085F8018085981746
:100EE00011F060E070E04AE0CE0149960E944B3676
:100EF00061E070E0F7019781F8018781981711F0A0
:100F000060E070E04AE0CE0143960E944B3661E01B
:100F100070E0F7019481F8018481981711F060E086
:100F200070E04AE0CE010D960E944B3661E070E021
:100F3000F70122813381F8018281938128173907D3
:100F400011F060E070E04AE0CE0107960E944B3657
:100F50006CEC74E0CE0101960E94C636BE01695F5A
:100F60007F4FCE0101960E94372A6DE275E00E9404
:100F70001F2ABE01635F7F4F0E94372A6DE275E032
:100F80000E941F2ABE016D5E7F4F0E94372A6DE2CC
:100F900075E00E941F2ABE01675E7F4F0E94372ABC
:100FA0006DE275E00E941F2ABE01615E7F4F0E94C4
:100FB000372A6AEC74E00E941F2ABC01CE01859694
:100FC0000E94BD36CE0185960E943F2FCE018596A8
:100FD0000E941A36CE0101960E941A36CE0107965B
:100FE0000E941A36CE010D960E941A36CE01439603
:100FF0000E941A36CE0149960E941A36CE014F96AB
:101000000E941A3680E0AA960FB6F894DEBF0FBE93
:10101000CDBFDF91CF911F910F91FF90EF90089579
:10102000CF92DF92EF92FF920F931F93CF93DF93B4
:10103000CDB7DEB768970FB6F894DEBF0FBECDBF51
:101040008C010E94913F6B017C01D80117968C9115
:101050000E942738F80190854485558566857785F7
:10106000981304C1411551056105710591F5C486B8
:10107000D586E686F786628173814AE0CE010796BF
:101080000E941F366DED74E0CE0101960E94C636B7
:10109000BE01695F7F4FCE0101960E94372A6DEE37
:1010A00074E00E941F2ABC01CE010D960E94BD363D
:1010B000CE010D960E943F2FCE010D960E941A364A
:1010C000CE0101960E941A36CE0107960E941A366A
:1010D00057C1DB01CA018053984FAF4FBF4FC816AD
:1010E000D906EA06FB06F0F1F8018285811132C0CB
:1010F000628173814AE0CE0107960E941F366FEE2F
:1011000074E0CE0101960E94C636BE01695F7F4F32
:10111000CE0101960E94372A6DEE74E00E941F2ACC
:10112000BC01CE010D960E94BD36CE010D960E94E7
:101130003F2FCE010D960E941A36CE0101960E94D5
:101140001A36CE0107960E941A3664E070E0C80194
:101150000E94685581E0D8011A968C931A971996C7
:101160001C920EC1DB01CA0184549D4FAF4FBF4F8B
:10117000C816D906EA06FB06C8F1F8018185811177
:101180002DC0628173814AE0CE0107960E941F360E
:1011900065EF74E0CE0101960E94C636BE01695F1C
:1011A0007F4FCE0101960E94372A6DEE74E00E94B7
:1011B0001F2ABC01CE010D960E94BD36CE010D96B0
:1011C0000E943F2FCE010D960E941A36CE01019645
:1011D0000E941A36CE0107960E941A36D8011B9635
:1011E0001C921B9781E019968C93CAC048585F4F98
:1011F0006F4F7F4FC416D506E606F70608F4C0C049
:10120000F801838581112DC0628173814AE0CE018E
:1012100007960E941F3664E075E0CE0101960E9499
:10122000C636BE01695F7F4FCE0101960E94372A04
:101230006DEE74E00E941F2ABC01CE010D960E9443
:10124000BD36CE010D960E943F2FCE010D960E9415
:101250001A36CE0101960E941A36CE0107960E94D8
:101260001A3681E0D8011B968C938AC0411551052E
:101270006105710509F484C0D701C601841B950B73
:10128000A60BB70BAC01BD01CE010D960E9480519B
:10129000D80112966D917C9113974AE0CE01079682
:1012A0000E941F3667E175E0CE0101960E94C636A6
:1012B000BE01695F7F4FCE0101960E94372A60E22E
:1012C00075E00E941F2ABE01635F7F4F0E94372A8C
:1012D000BC01CE0143960E94BD36CE0143960E94CA
:1012E0003F2FCE0143960E941A36CE0101960E94EE
:1012F0001A36CE0107960E941A36CE010D960E942C
:101300001A36F80184859585A685B7858C599F4F37
:10131000AF4FBF4FC816D906EA06FB0678F46FE256
:1013200075E0CE0101960E94C636CE0101960E945C
:101330003F2FCE0101960E941A361BC08285811173
:101340000BC08185882319F062E070E002C061E083
:1013500070E0C8010E946855F8011486158616864B
:10136000178611861386128660E070E0C8010E941D
:101370006855D8011C961D921D921D921C921F97B4
:1013800068960FB6F894DEBF0FBECDBFDF91CF9148
:101390001F910F91FF90EF90DF90CF900895CF9223
:1013A000DF92EF92FF920F931F93CF93DF93CDB70E
:1013B000DEB72C970FB6F894DEBF0FBECDBF8C0101
:1013C0006B017A0161EA74E0CE0107960E94C6368D
:1013D000C114D10429F0B601CE0107960E94782AE3
:1013E00069ED7BE0CE0107960E94492AF8016281EF
:1013F00073814AE0CE0101960E941F36BE016F5FE5
:101400007F4FCE0107960E94E72ECE0101960E94E3
:101410001A366DE475E0CE0107960E94492AF8015C
:101420006481CE0101960E94A436BE016F5F7F4F9A
:10143000CE0107960E94E72ECE0101960E941A3631
:1014400064E575E0CE0107960E94492AF80167819C
:1014500070E04AE0CE0101960E941F36BE016F5F28
:101460007F4FCE0107960E94E72ECE0101960E9483
:101470001A366AE575E0CE0107960E94492AF801FE
:10148000608570E04AE0CE0101960E941F36BE01E1
:101490006F5F7F4FCE0107960E94E72ECE01019627
:1014A0000E941A3661E675E0CE0107960E94492A2D
:1014B000F8018681811103C067E475E002C062E42F
:1014C00075E0CE0107960E94492A60E775E0CE01DB
:1014D00007960E94492ABE01695F7F4FCE0101969F
:1014E0000E94BD36BE016F5F7F4FC7010E94ED2E87
:1014F000CE0101960E941A36CE0107960E941A3636
:101500002C960FB6F894DEBF0FBECDBFDF91CF9102
:101510001F910F91FF90EF90DF90CF9008952F9241
:101520003F924F925F926F927F928F929F92AF9273
:10153000BF92CF92DF92EF92FF920F931F93CF93C0
:10154000DF93CDB7DEB7CE57D1090FB6F894DEBF23
:101550000FBECDBF80E090E00E94BE488093FB129A
:101560004AE0682FCE0181599F4F0E9477368091C3
:10157000FB128A3018F061EA74E002C063E775E09C
:101580007E0125E6E20EF11CC7010E94C63665E722
:1015900075E08E010F5F1F4FC8010E94C636B7016C
:1015A000C8010E94372ABE0161597F4F0E94372A25
:1015B000BC018CEF92E10E948E2AC8010E941A366B
:1015C000C7010E941A36CE0181599F4F0E941A36D8
:1015D0004AE06091FB12C7010E9477366CE775E024
:1015E000C8010E94C636B701C8010E94372ABC0153
:1015F000CE0181599F4F0E94BD36CE0181599F4F28
:101600000E943F2FCE0181599F4F0E941A36C80178
:101610000E941A36C7010E941A368091FB128093ED
:10162000071390910D13890F80930D138091FA1277
:10163000882309F4AFC065E875E0C8010E94C6368A
:10164000C8010E943F2FC8010E941A3683E594E02A
:101650009A83898380910A1390910B13A0910C13A4
:10166000B0910D138B839C83AD83BE83C8010E9410
:101670001E39C7010E946225B701CE0181599F4FD3
:101680000E94E93063E975E0C8010E94C636BE01D8
:1016900061597F4FC8010E94372ABC01CE018B5887
:1016A0009F4F0E94BD36CE018B589F4F0E94232F23
:1016B000CE018B589F4F0E941A36C8010E941A36DD
:1016C000CE0181599F4F0E941A3661EA75E0C80128
:1016D0000E94C636C8010E943F2FC8010E941A36D8
:1016E00061EB75E0C8010E94C636C8010E943F2F19
:1016F000C8010E941A36812C912C5401B501A40115
:10170000C7010E94F1386BEB75E0C8010E94C63634
:10171000B701C8010E94372ABC01CE0181599F4FF1
:101720000E94BD36CE0181599F4F0E943F2FCE01AE
:1017300081599F4F0E941A36C8010E941A36C7016C
:101740000E941A368091FA12882321F00E94BB3140
:10175000D82E01C0D12C68EE73E080E090E00E94AA
:10176000B9388FEF881A980AA80AB80AD11012C09F
:1017700036E083169104A104B10409F0BFCF6BECED
:1017800078E0C8010E94C636C8010E943F2FC801F8
:101790000E941A3610920E1389E492E10E94334798
:1017A000811106C080910E13882309F453C048C1EB
:1017B0000E9464624B015C0110920E1389E492E175
:1017C0000E943347882359F18091FB121F928F9317
:1017D00081ED95E09F938F931F930F930E94AE6AC4
:1017E000C501B40128EE33E040E050E00E942C68CF
:1017F0004AE0C7010E947736D7016D917C91C801FC
:101800000E949630C7010E941A3681E0809310131F
:101810000F900F900F900F900F900F9002C01092AA
:1018200010130E94913F4B015C0180910E138111B6
:1018300007C10E94913FDC01CB0188199909AA09CF
:10184000BB0980319742A105B10508F0ABCF0E94DA
:10185000EE3AEBCF68EF75E0C8010E94C636C801CA
:101860000E943F2FC8010E941A3681E090E00E943A
:10187000BE48482E0E94E13D3C016FE076E0C80181
:101880000E94C636C8010E943F2FC8010E941A3626
:1018900061E070E06114710411F060E070E04AE012
:1018A000C7010E944B3663E276E0CE0181599F4F1B
:1018B0000E94C636B701CE0181599F4F0E94372A38
:1018C000BC01C8010E94BD36C8010E943F2FC8015B
:1018D0000E941A36CE0181599F4F0E941A36C701C5
:1018E0000E941A36812C912C6AE0A62EB12C512C24
:1018F000841495040CF098C0C50101960E94BE485E
:10190000D82E4AE0682FC7010E94773662E376E05E
:10191000CE0181599F4F0E94C636B701CE01815931
:101920009F4F0E94372ABC01C8010E94BD36C801E2
:101930000E943F2FC8010E941A36CE0181599F4F45
:101940000E941A36C7010E941A368D2D0E94AD3CA6
:101950006C01009741F0DC01ED91FC910484F58568
:10196000E02DB50119956EE376E0C8010E94C636F8
:10197000C8010E943F2FC8010E941A36F301D1828C
:10198000C08261E070E0CD2811F060E070E04AE0D4
:10199000C7010E944B366BE476E0CE0181599F4F20
:1019A0000E94C636B701CE0181599F4F0E94372A47
:1019B000BC01C8010E94BD36C8010E943F2FC8016A
:1019C0000E941A36CE0181599F4F0E941A36C701D4
:1019D0000E941A366AE576E0C8010E94C636C80140
:1019E0000E943F2FC8010E941A36D3018D919C910D
:1019F000DC01ED91FC91008CF18DE02D45E050E093
:101A000064E676E01995F301819191913F01DC0143
:101A1000ED91FC910284F385E02D1995A80EB11C7F
:101A2000BFEF8B1A9B0A64CF60E776E0C8010E9483
:101A3000C636C8010E943F2FC8010E941A3682C1D3
:101A4000E0911213EE96EFAFEE97F0911313EF962D
:101A5000FFAFEF97409016135090171381E090E07E
:101A60000E94BE4892013327ED963FAF2EAFED970F
:101A7000481619F14AE0682FC7010E94773661E8DD
:101A800076E0CE0181599F4F0E94C636B701CE0144
:101A900081599F4F0E94372ABC01C8010E94BD3660
:101AA000C8010E943F2FC8010E941A36CE018159F9
:101AB0009F4F0E941A36C70133C0EE96AFACEE9727
:101AC000EF96BFACEF9766246394712C5AE0852E95
:101AD000912CC3010197ED96AEADBFADED978A177E
:101AE0009B070CF02FC1C4010E94BE48282EC401E0
:101AF00001960E94BE48312CD501ED91FC912281C6
:101B000033812216330619F49481891761F060E954
:101B100076E0C8010E94C636C8010E943F2FC80166
:101B20000E941A3625C50E94AD3C6C01FC0133822F
:101B300022820190F081E02D0484F585E02DB4012E
:101B40001995D5016D917C91D601ED91FC91019093
:101B5000F081E02DC6011995811112C063EA76E08B
:101B6000C8010E94C636C8010E943F2FC8010E94CA
:101B70001A36C114D10409F4FBC43324339415C0BC
:101B8000D601ED91FC910284F385E02DC6011995F3
:101B9000880E911CC114D10439F43FEF631A730A03
:101BA00082E0A80EB11C95CF312CD601ED91FC91AD
:101BB0000688F789E02DC6011995332071F3D8C442
:101BC0004AE0B401C7010E941F3662EB76E0CE0105
:101BD00081599F4F0E94C636B701CE0181599F4F50
:101BE0000E94372ABC01C8010E94BD36C8010E946C
:101BF0003F2FC8010E941A36CE0181599F4F0E9483
:101C00001A36C7010E941A36D601ED91FC914AE0BE
:101C10006481C7010E947736D601ED91FC91628103
:101C200073814AE0CE0181599F4F0E941F3669EBB4
:101C300076E0CE018B589F4F0E94C636BE01615997
:101C40007F4FCE018B589F4F0E94372A68EC76E079
:101C50000E941F2AB7010E94372ABC01C8010E94B6
:101C6000BD36C8010E943F2FC8010E941A36CE011E
:101C70008B589F4F0E941A36CE0181599F4F0E9468
:101C80001A36C7010E941A36F60180819181DC0163
:101C9000ED91FC910684F785E02DB40119956FEC68
:101CA00076E0C8010E94C636C8010E943F2FC801D5
:101CB0000E941A36D601ED91FC9184810E94AD3CC0
:101CC0005C01DC01ED91FC910484F585E02DB4010B
:101CD0001995D501ED91FC91008CF18DE02D45E039
:101CE00050E066EE76E0C5011995A114B10441F00B
:101CF000D501ED91FC910688F789E02DC501199574
:101D0000F601819191916F01DC01ED91FC910284CA
:101D1000F385E02D1995880E911CBFEF6B1A7B0A95
:101D2000ED96EEADFFADED976E167F060CF448CF45
:101D3000642D81E090E00E94B74AB40184E090E015
:101D40000E94D64881E080930E136DEF76E0C801C3
:101D50000E94C636C8010E943F2FC8010E941A3651
:101D6000C12CD12C8091161390911713C816D90647
:101D7000B4F4C601880F991FE0911213F091131368
:101D8000E80FF91F80819181DC01ED91FC910084C5
:101D9000F185E02D1995BFEFCB1ADB0AE3CF64EF95
:101DA00076E0C8010E94C636C8010E943F2FC801D4
:101DB0000E941A36C12CD12C8091161390911713C2
:101DC000C816D906B4F4C601880F991FE091121302
:101DD000F0911313E80FF91F80819181DC01ED91DF
:101DE000FC910088F189E02D1995BFEFCB1ADB0A31
:101DF000E3CF60910E1370E04AE0C7010E944B36BA
:101E000068E077E0C8010E94C636B701C8010E94A9
:101E1000372ABC01CE0181599F4F0E94BD36CE01A9
:101E200081599F4F0E943F2FCE0181599F4F0E94A1
:101E30001A36C8010E941A36C7010E941A366091EC
:101E40001613709117134AE0C7010E944B3667E1E1
:101E500077E0C8010E94C636B701C8010E94372A40
:101E6000BC01CE0181599F4F0E94BD36CE018159E0
:101E70009F4F0E943F2FCE0181599F4F0E941A36DB
:101E8000C8010E941A36C7010E941A3610920F1319
:101E900089E492E10E943347811106C080910F13BB
:101EA000882309F45AC01CC10E94646228EE33E002
:101EB00040E050E00E942C689F938F937F936F9334
:101EC00086E297E09F938F93FF92EF920E94AE6A13
:101ED00010920E1310920F1389E492E10E9433477F
:101EE0000FB6F894DEBF0FBECDBF8823D1F080912E
:101EF000FB121F928F938AE297E09F938F931F9319
:101F00000F930E94AE6A81E080931113B701C8015C
:101F10000E9496300F900F900F900F900F900F909F
:101F200003C081E0809311130E94913F4B015C013B
:101F300080910F138111D4C00E94913FDC01CB012D
:101F400088199909AA09BB0980319742A105B105F1
:101F500008F0A4CF0E94EE3AEBCF6AE477E0C80124
:101F60000E94C636C8010E943F2FC8010E941A363F
:101F700082E090E00E94BE48482E0E944E316C01E3
:101F800084E090E00E94C0484C0163E677E0C8011D
:101F90000E94C636C8010E943F2FC8010E941A360F
:101FA00061E070E0C114D10411F060E070E04AE03B
:101FB000C7010E944B3669E777E0CE0181599F4FF8
:101FC0000E94C636B701CE0181599F4F0E94372A21
:101FD000BC01C8010E94BD36C8010E943F2FC80144
:101FE0000E941A36CE0181599F4F0E941A36C701AE
:101FF0000E941A36612C712C512C641475040CF05B
:1020000063C06AE877E0C8010E94C636C8010E9432
:102010003F2FC8010E941A368DE090E00E94FB60BD
:102020005C01DC01EDE01D92EA95E9F7009719F0FB
:10203000B4010E94010666E977E0C8010E94C63635
:10204000C8010E943F2FC8010E941A361601D6010E
:10205000AD92BC9261E070E0AB2811F060E070E0FE
:102060004AE0C7010E944B3665EA77E0CE0181590C
:102070009F4F0E94C636B701CE0181599F4F0E94E3
:10208000372ABC01C8010E94BD36C8010E943F2FFB
:10209000C8010E941A36CE0181599F4F0E941A36FC
:1020A000C7010E941A36B2E0CB0ED11C66EB77E076
:1020B000F101808191810E940F33F7E08F0E911C16
:1020C0002FEF621A720A99CF64EC77E0C8010E9480
:1020D000C636C8010E943F2FC8010E941A3656C159
:1020E00067ED77E0C8010E94C636C8010E943F2F05
:1020F000C8010E941A3630911413EE963FAFEE9746
:1021000080911513EF968FAFEF9740901813509072
:10211000191382E090E00E94BE48D82E65EF77E068
:10212000C8010E94C636C8010E943F2FC8010E9404
:102130001A364D1439F14AE06D2DC7010E947736E9
:1021400061E876E0CE0181599F4F0E94C636B70103
:10215000CE0181599F4F0E94372ABC01C8010E94BD
:10216000BD36C8010E943F2FC8010E941A36CE0119
:1021700081599F4F0E941A36C7010E941A36332494
:10218000339484C084E090E00E94C0485C01EE96E5
:102190009FADEE97EC969FAFEC97EF96AFADEF97B4
:1021A000ED96AFAFED97812C912C320177248614F8
:1021B00097040CF06AC08DE090E00E94FB606C0117
:1021C000B5010E94010664E078E0C6010E940F3369
:1021D000ED96AEADBFADED97ED91FD91ED96BFAF34
:1021E000AEAFED97309709F4DAC1D6012D913C914D
:1021F0001197808191812817390709F0D0C116966F
:102200009C91169786819813CAC112962D913C9184
:102210001397828193812817390709F0C0C114965A
:102220002D913C911597848195812817390709F0E4
:10223000B6C119962D913C911A97818592852817E0
:10224000390709F0ACC117962D913C9118978781F9
:1022500090852817390709F0A2C11B962D913C9152
:102260001C97838594852817390709F098C137E0B2
:10227000A30EB11C312CC6010E949361BFEF8B1AD3
:102280009B0A332009F493CF01C0312C61E178E03F
:10229000C8010E94C636C8010E943F2FC8010E9493
:1022A0001A36332009F472C084E090E00E94C048DE
:1022B0003C014AE0BC01C7010E941F366CE178E096
:1022C000CE0181599F4F0E94C636B701CE01815978
:1022D0009F4F0E94372ABC01C8010E94BD36C80129
:1022E0000E943F2FC8010E941A36CE0181599F4F8C
:1022F0000E941A36C7010E941A36EE962FACEE974E
:10230000EF963FACEF97A12CB12C42019924A81471
:10231000B904BCF5F101C190D1901F01D6016C91B7
:10232000C3010E94B74AF6016281C30101960E946F
:10233000B74AD60114966C91C30102960E94B74A1F
:10234000F6016681C30103960E94B74AD60117962B
:102350006C91C30104960E94B74AF6016185C301DE
:1023600005960E94B74AD6011B966C91C30106964A
:102370000E94B74AB7E06B0E711CEFEFAE1ABE0AAF
:10238000C6CF642D82E090E00E94B74A65E378E012
:10239000C8010E94C636C8010E943F2FC8010E9492
:1023A0001A3681E080930F1362E478E0C8010E943E
:1023B000C636C8010E943F2FC8010E941A3664E544
:1023C00078E0C8010E94C636C8010E943F2FC801AC
:1023D0000E941A3689E492E10E943347882309F467
:1023E000A2C064E678E0C8010E94C636C8010E9417
:1023F0003F2FC8010E941A36C12CD12C8091161390
:1024000090911713C816D9068CF54AE0B601C7019A
:102410000E944B3669E778E0CE0181599F4F0E94B8
:10242000C636B701CE0181599F4F0E94372ABC01A1
:10243000C8010E94BD36C8010E943F2FC8010E94FA
:102440001A36CE0181599F4F0E941A36C7010E9449
:102450001A3689E492E10E943347882319F0C601B5
:102460000E94EF2FFFEFCF1ADF0AC8CF62E370E0C0
:1024700080E090E00E94B938E12CF12CBB24B394A9
:102480008091161390911713E816F906A4F50E948F
:10249000EE3A6701CC0CDD1CE0911213F09113139E
:1024A000EC0DFD1D0190F081E02D8681811111C0A0
:1024B00089E492E10E943347882319F0C7010E9402
:1024C000EF2F62E370E080E090E00E94B9380E9454
:1024D000EE3A8091121390911313FC01EC0DFD1D47
:1024E0000190F081E02D8681811101C0B12C2FEF88
:1024F000E21AF20AC5CFB1100BC064E878E0C80157
:102500000E94C636C8010E945B2FC8010E941A367D
:1025100062EA78E0C8010E94C636C8010E943F2FD7
:10252000C8010E941A3663EB78E0C8010E94C636E3
:10253000C8010E943F2FC8010E941A36C258DF4FBF
:102540000FB6F894DEBF0FBECDBFDF91CF911F91C4
:102550000F91FF90EF90DF90CF90BF90AF909F9042
:102560008F907F906F905F904F903F902F90089545
:102570006EEE78E0C8010E94C636C8010E943F2F67
:10258000C8010E941A36EE96CFACEE97EF96DFACFC
:10259000EF97612C712C8AE0882E912CC1CB63EAD5
:1025A00076E0C8010E94C636C8010E943F2FC801CC
:1025B0000E941A36332433945ECE0F931F93CF9329
:1025C000DF938C01EB01FC016281CE010E94B74ACE
:1025D000F8016481CE0101960E94B74AF801678133
:1025E000CE010296DF91CF911F910F910C94B74AC3
:1025F0000F931F93CF93DF938C01EB01FC0162815A
:10260000CE010E94B74AF8016481CE0101960E9472
:10261000B74AF8016781CE0102960E94B74AF801D5
:102620006085CE010396DF91CF911F910F910C949D
:10263000B74A0F931F93CF93DF93EC018B01CB012C
:102640000E94BE4890E09B838A83C80101960E9445
:10265000BE488C83C80102960E94BE488F83DF91DA
:10266000CF911F910F9108950F931F93CF93DF93F5
:10267000EC018B01CB010E94BE4890E09B838A83D2
:10268000C80101960E94BE488C83C80102960E9430
:10269000BE488F83C80103960E94BE4891E0811115
:1026A00001C090E09887DF91CF911F910F9108951D
:1026B0001F93CF93DF93EC01162F6D830E9403527B
:1026C000612F8A819B81DF91CF911F910C942354BC
:1026D0000C9493610F931F93CF93DF938C01EB01C5
:1026E00067EA74E0CE010E94CC05882339F067EADE
:1026F00074E0CE010E948805F80187836BEA74E0DC
:10270000CE010E94CC05882329F0CE010E94805280
:10271000F8018087DF91CF911F910F91089508955F
:102720006F927F928F929F92AF92BF92CF92DF92E1
:10273000EF92FF920F931F93CF93DF93CDB7DEB746
:1027400061970FB6F894DEBF0FBECDBF6C0164E099
:1027500079E0CE0101960E94C636CE0101960E9414
:102760003F2FCE0101960E941A368EE090E00E9423
:10277000FB607C01D60117961C9160E0812F0E94BE
:102780007D38812F90E0FC01EA55FD4FE491D7019F
:10279000EC93FC01E451FD4FE491F0E0EE0FFF1FDC
:1027A000EE5EFD4F85919491F701928381831386AC
:1027B000158614865701FBE0AF0EB11C470183E07C
:1027C000880E911CF50112928E169F06E1F7D60134
:1027D0001996FC92EE92189783E190E00E94FB60BC
:1027E0008C0187E495E4F801928B818BF682E58277
:1027F0001482108289E0818381E082838383D60101
:102800001D961C930E931C97F50112925F01E8151B
:10281000F905D1F788248394D8011596ED90FC90A2
:102820001697F701858581116BC0C7010E94574635
:1028300081110AC0D7011B961C921B971D961C92F2
:102840001D971C961C92E7C040E060EFC7010E94F4
:102850008C25AA24A394712C612CBB24B394C701AA
:102860000E94DD25982EC7010E94DD25B1E09B1254
:1028700003C08130C9F438C0272D30E098121EC043
:10288000F7018385B81630F4E20FF31F83818A21A4
:1028900059F402C08B1541F0912CF8E0FB1568F05B
:1028A000D7011C96BC9209C0F701E70DF11D838189
:1028B0008A2983839924939409C06B2CF701E20F32
:1028C000F31F93818A2D809589238383692DC70106
:1028D0000E942846B394AA0C19F47394AA24A394D2
:1028E000B7E0B71508F0BBCFE0E4EB1548F4D7012B
:1028F0001B966C921B97611008C01D968C9205C0A8
:10290000F70113861586148686C0D70113968C911D
:102910008823B1F3B7016D5F7F4FDE011A969701EF
:10292000255F3F4FCD01FA2EBB2EFB014191BF0128
:10293000FC014193CF0162177307B9F788E0E0E02B
:10294000815039F09D91E927F0E0EE5CFC4FE49175
:10295000F7CF89898E1360CFD8018C91811126C061
:1029600015968D919C9116970E9457466F2D7B2D41
:10297000F801858196810E94C02540E064EBD80172
:1029800015968D919C9116970E948C25F801858152
:1029900096810E94DD25E82ED80115968D919C9197
:1029A00016970E945746EE2009F453C0F80185811E
:1029B00096810E945746882341F0AE014F5F5F4FDA
:1029C0006F2D7B2DC8010E948E46D8011196EC9088
:1029D0008A85803109F440C06F2D7B2DC8010E948B
:1029E00006478E1518F4F80181810AC08A85803166
:1029F00011F48CE005C06F2D7B2DC8010E940647A5
:102A0000D80111968C93119714968C9114978F5F1F
:102A100014968C9301CFC6010E940352F601658182
:102A2000828193810E94235461960FB6F894DEBF91
:102A30000FBECDBFDF91CF911F910F91FF90EF900F
:102A4000DF90CF90BF90AF909F908F907F906F90CE
:102A50000895D8018C92AACFBCE0BE1520F2C9CF50
:102A6000CF92DF92EF92FF920F931F93CF93DF935A
:102A7000CDB7DEB7C858D1090FB6F894DEBF0FBE88
:102A8000CDBF7C018B016A01BC01CE0183589F4FF1
:102A90000E94C636B8018E010F5F1F4FC8010E9409
:102AA000C636960140E050E0B801CE018D579F4FE9
:102AB0000E94A42AC8010E941A366AE27BE0CE0175
:102AC0008B599F4F0E94C636BE0163587F4FCE017F
:102AD0008B599F4F0E94372A60E179E00E941F2A9C
:102AE000BE016D577F4F0E94372A6AEC74E00E9446
:102AF0001F2ABC01C8010E94BD36C8010E943F2F99
:102B0000C8010E941A36CE018B599F4F0E941A3677
:102B10008091FB121F928F9383E199E09F938F9393
:102B20001F930F930E94AE6AB801C7010E94906A7A
:102B30000F900F900F900F900F900F90892B99F49A
:102B400080911013882309F4BFC1BE016D577F4FD8
:102B5000CE018B599F4F0E94BD36CE018B599F4F9E
:102B60000E9401262AC08091FB121F928F9383E35B
:102B700099E09F938F931F930F930E94AE6AB801C1
:102B8000C7010E94906A0F900F900F900F900F90C6
:102B90000F90892BC1F480911113882309F494C1FB
:102BA000BE016D577F4FCE018B599F4F0E94BD369E
:102BB000CE018B599F4F0E942E2DCE018B599F4FD6
:102BC0000E941A3681C16CE479E0CE018B599F4F87
:102BD0000E94C636BE016B597F4FCE0183589F4F6E
:102BE0000E940726F82ECE018B599F4F0E941A365D
:102BF000FF2011F16EE579E0CE018B599F4F0E94C5
:102C0000C636CE018B599F4F0E943F2FCE018B5964
:102C10009F4F0E941A36BE016D577F4FCE018F58CD
:102C20009F4F0E94BD36CF57DF4F28813981C15851
:102C3000D04043E150E0A6C06CE679E0CE018B596C
:102C40009F4F0E94C636BE016B597F4FCE018358FD
:102C50009F4F0E940726F82ECE018B599F4F0E944E
:102C60001A36F1103FC06DE779E0CE018B599F4FC6
:102C70000E94C636BE016B597F4FCE0183589F4FCD
:102C80000E940726F82ECE018B599F4F0E941A36BC
:102C9000FF2089F0BE016D577F4FCE018F589F4FA7
:102CA0000E94BD36CF57DF4F28813981C158D040AF
:102CB00047E150E067C063E979E0CE018B599F4F4F
:102CC0000E94C636BE016B597F4FCE0183589F4F7D
:102CD0000E940726F82ECE018B599F4F0E941A366C
:102CE000FF2089F0BE016D577F4FCE018F589F4F57
:102CF0000E94BD36CF57DF4F28813981C158D0405F
:102D000042E150E03FC064EA79E0CE018B599F4F29
:102D10000E94C636BE016B597F4FCE0183589F4F2C
:102D20000E940726F82ECE018B599F4F0E941A361B
:102D3000F11018C069EB79E0CE018B599F4F0E94CA
:102D4000C636BE016B597F4FCE0183589F4F0E94FC
:102D50000726F82ECE018B599F4F0E941A36FF206E
:102D600009F443C0BE016D577F4FCE018F589F4F6E
:102D70000E94BD36CF57DF4F28813981C158D040DE
:102D800046E150E0BE0163587F4FCE0189589F4F06
:102D90000E94A42ABE016F587F4FCE0185599F4FD4
:102DA0000E94BD36BE0169587F4FCE018B599F4F9F
:102DB0000E94BD36BE0165597F4FCE018B599F4F92
:102DC0000E947655CE018B599F4F0E941A36CE0134
:102DD00085599F4F0E941A36CE0189589F4F0E94F5
:102DE0001A36CE018F589F4FEBCE6EEC79E0CE01B4
:102DF0008B599F4F0E94C636BE016B597F4FCE0143
:102E000083589F4F0E940726F82ECE018B599F4F63
:102E10000E941A36FF2009F457C08091FB121F92BE
:102E20008F938EEC99E09F938F931F930F930E9443
:102E3000AE6A60EE79E0CE018B599F4F0E94C63694
:102E4000CE018B599F4F0E943F2FCE018B599F4F30
:102E50000E941A36B801CE018B599F4F0E94C63688
:102E6000BE016B597F4FCE0183589F4F0E940726AA
:102E70000F900F900F900F900F900F908823D9F024
:102E8000C957DF4F88819981C758D040892B99F065
:102E9000CD57DF4FE881F981C358D0408081882326
:102EA00051F0309721F410926C0FECE6FFE011E046
:102EB000808180330CF410E0CE018B599F4F0E942B
:102EC0001A3611110E94C43ACE018D579F4F0E94AD
:102ED0001A36CE0183589F4F0E941A36C857DF4FCB
:102EE0000FB6F894DEBF0FBECDBFDF91CF911F911B
:102EF0000F91FF90EF90DF90CF900895411551050D
:102F000009F0AECD0895EF92FF920F931F93CF93E8
:102F1000DF93CDB7DEB76E970FB6F894DEBF0FBE66
:102F2000CDBFDC01FB01309709F488C08481813377
:102F300009F084C012964D915C91139722813381E0
:102F400017969C91179787814217530749F4149657
:102F50002C911497213321F4981302C081E06FC0A3
:102F600061E070E0981711F060E070E08F017D0182
:102F70004AE0CE0143960E944B3661E070E0F701D3
:102F80009481F8018481981711F060E070E04AE0C4
:102F9000CE010D960E944B3661E070E0F701228170
:102FA0003381F801828193812817390711F060E09D
:102FB00070E04AE0CE0107960E944B3666EE79E05B
:102FC000CE0101960E94C636BE01695F7F4FCE01D9
:102FD00001960E94372A6DE275E00E941F2ABE0109
:102FE000635F7F4F0E94372A6DE275E00E941F2ABF
:102FF000BE016D5E7F4F0E94372A6AEC74E00E942A
:103000001F2ABC01CE0149960E94BD36CE014996C9
:103010000E943F2FCE0149960E941A36CE0101969A
:103020000E941A36CE0107960E941A36CE010D96DE
:103030000E941A36CE0143960E941A3680E06E96A0
:103040000FB6F894DEBF0FBECDBFDF91CF911F91B9
:103050000F91FF90EF900895CF92DF92EF92FF9241
:103060000F931F93CF93DF93CDB7DEB72C970FB697
:10307000F894DEBF0FBECDBF8C016B017A0161EA0F
:1030800074E0CE0107960E94C636C114D10429F01F
:10309000B601CE0107960E94782A69ED7BE0CE0149
:1030A00007960E94492AF801628173814AE0CE01A5
:1030B00001960E941F36BE016F5F7F4FCE010796BB
:1030C0000E94E72ECE0101960E941A366DE475E04B
:1030D000CE0107960E94492AF8016481CE0101962B
:1030E0000E94A436BE016F5F7F4FCE0107960E94FB
:1030F000E72ECE0101960E941A3664E575E0CE01F6
:1031000007960E94492AF801678170E04AE0CE01E3
:1031100001960E941F36BE016F5F7F4FCE0107965A
:103120000E94E72ECE0101960E941A366AE575E0EC
:10313000CE0107960E94492AF801608570E04AE0B6
:10314000CE0101960E941F36BE016F5F7F4FCE01F8
:1031500007960E94E72ECE0101960E941A3661E67C
:1031600075E0CE0107960E94492AF80186818111F7
:1031700003C067E475E002C062E475E0CE01079623
:103180000E94492A60E775E0CE0107960E94492A0D
:10319000BE01695F7F4FCE0101960E94BD36BE0120
:1031A0006F5F7F4FC7010E94ED2ECE0101960E94F6
:1031B0001A36CE0107960E941A362C960FB6F8944E
:1031C000DEBF0FBECDBFDF91CF911F910F91FF905A
:1031D000EF90DF90CF900895FF920F931F93CF93BE
:1031E000DF936115710549F462EA74E0DF91CF91D4
:1031F0001F910F91FF900C94EC578B01EC0162E250
:10320000CE010E94C857F80161918F01662351F0E9
:10321000E3E9F4E0F080FF2099F38181681759F029
:103220003296F8CF62E2CE01DF91CF911F910F91DC
:10323000FF900C94C8576CE5CE010E94C8576F2DC3
:10324000DFCF2F923F924F925F926F927F928F9239
:103250009F92AF92BF92CF92DF92EF92FF920F9325
:103260001F93CF93DF93CDB7DEB769970FB6F8946E
:10327000DEBF0FBECDBFDC01ED91FC911197319700
:10328000E830F10508F03FC28B017C018827EE5839
:10329000FF4F8F4F0C947C69FD01C280D380E48086
:1032A000F580A7019601C701B6010E94CC6688236C
:1032B00019F06AEF79E0B2C020E030E0A901C7015F
:1032C000B6010E94CC6687FF08C06DE2C8010E946B
:1032D000C857F7FAF094F7F8F09420E030E0A9012D
:1032E000C701B6010E94CC66882309F49BC0A701E0
:1032F0009601C701B6010E946868A70196010E9465
:10330000CC6681118FC061E07AE088C01296ED90A2
:10331000FC9013976BE5C8010E94C857F701E28043
:10332000F380E114F10479F0B801C701029689DF56
:10333000D701ED90FC90E114F10429F06CE2C80192
:103340000E94C857EECF6DE528C0FD01E280F380F2
:103350006BE7C8010E94C857D7011296ED90FC9008
:103360001397E114F104C1F0F70162817381C80180
:1033700033DF6AE3C8010E94C857B801C701049649
:1033800060DFD701ED90FC90E114F10429F06CE2CC
:10339000C8010E94C857E5CF6DE7C8010E94C85711
:1033A000B2C1FD0162817381C80116DFACC1129602
:1033B0006D917C91139732C06DE2C8010E94C8578D
:1033C000F70162817381848195811E8A7E01F6E115
:1033D000EF0EF11C3AE0832E912CA12CB12CA5010B
:1033E00094010E940A68605DD7016E937D01B90166
:1033F000CA01611571058105910589F7BD010EC0EE
:10340000FD0182819381A481B581892B8A2B8B2B2D
:1034100019F467E475E002C062E475E0C8010E9437
:10342000EC5771C120E836E948E15BE4C701B60119
:103430000E94656987FF34C1F0E26F2E712CA5E010
:103440009A2E212C312C20E030E0A901C701B601D1
:103450000E946569181694F52CEA35EC47E257E3AB
:10346000C701B6010E94CC66181644F18FEF98167A
:1034700029F1992DA4E09A0250011124F501EE5E84
:10348000FD4FA701960160817181828193810E9425
:10349000656918167CF4F501EE5BFD4F20813181E2
:1034A00042815381C701B6010E9431676B017C01E3
:1034B00026183708759467949A94D8CFC701B60137
:1034C0000E9439694B015C010E94D0669B01AC01EE
:1034D000C701B6010E94676820E034E244E759E47E
:1034E0000E9431672B013C010E9439696B017C010C
:1034F0000E94D0669B01AC01C301B2010E946768C3
:103500009B01AC010E9468680E943969C60ED71EF3
:10351000E81EF91EB0E4CB16B2E4DB06BFE0EB0612
:10352000F104C8F0EFEF8E1A9E0AAE0ABE0A21140B
:10353000310471F0FAE08F169104A104B10478F11E
:103540002FEF221A320A812C912C5401839427C028
:10355000C12CD12C76012401350186E08F8B9F8907
:10356000998FA92FA150AF8BBAE04B16510461047B
:103570007104D0F0C701B6012AE030E040E050E02D
:103580000E940A6869017A01C301B2012AE030E0B1
:1035900040E050E00E940A6829013A01E0CFC12CC6
:1035A000D12C7601F6E0F98F6AE0462E512C612C81
:1035B000712CC701B601A30192010E940A68672B12
:1035C000682B692B41F4E98D1E162CF469017A01F0
:1035D000E150E98FEECF1E8ACE014696988F8F8BF1
:1035E0005AE0452E512C612C712CC501B401A30168
:1035F00092010E940A68605DAF89B88D6E93B88FA2
:10360000AF8B49015A0181149104A104B10469F7F7
:10361000BD01C8010E94EC57B98DBB2349F1188A3E
:10362000BF8B5E01E0E1AE0EB11C45014AE0442EC5
:10363000512C612C712CFF89F150FF8BFF3F69F0F9
:10364000C701B601A30192010E940A68605DD5011D
:103650006E935D0169017A01EECFB401B98D6B1BE8
:1036600071098EE2FB018293BF01C8010E94EC57F1
:1036700037FE0AC06EEF79E0C8010E94EC5766275A
:1036800077276219730908C021143104E1F165E656
:10369000C8010E94C857B101C8010E94115833C027
:1036A0008AE5882E82E0982E9AE2A92E92E0B92E21
:1036B00020E2622E712C212C312CA7019601D4011D
:1036C0009E918E917E916E914D010E94CC6618164E
:1036D0006CF0F5012489358946895789C701B601FF
:1036E0000E9431676B017C01260C371C759467942E
:1036F000F4E0AF1AB10822E4821622E09206E9F65D
:1037000099249A94A0CE69960FB6F894DEBF0FBEA6
:10371000CDBFDF91CF911F910F91FF90EF90DF9080
:10372000CF90BF90AF909F908F907F906F905F9061
:103730004F903F902F9008950F931F93CF93DF9357
:103740008C01EB0167EA74E0CE010E94CC0588236E
:1037500039F067EA74E0CE010E948805F80187839A
:10376000DF91CF911F910F9108950C94936108956B
:10377000CF92DF92EF92FF920F931F93CF93DF933D
:10378000CDB7DEB72E970FB6F894DEBF0FBECDBF14
:103790006C018B0167EA74E0C8010E94CC058823A4
:1037A00039F067EA74E0C8010E948805F601878352
:1037B0006AE07AE0C8010E94CC05882309F44CC075
:1037C0006AE07AE0C8010E9429050097A1F18C0106
:1037D0000C5F1F4FC8010E947704009711F0BC01D5
:1037E0002CC061EA74E0CE0101967C010E94C636CD
:1037F000FE86ED86CE010D9698878F831A861986F0
:10380000BE01695F7F4FC8011CDD89819A8198875D
:103810008F838B819C819A8789878D819E819C87EC
:103820008B871A8219821C821B821E821D82C7010D
:103830000E941A3606C061EA74E0CE0107960E9423
:10384000C636BE01695F7F4FC60108960E94E82A0E
:10385000CE0107960E941A362E960FB6F894DEBF58
:103860000FBECDBFDF91CF911F910F91FF90EF90D1
:10387000DF90CF900895CF92DF92EF92FF920F9357
:103880001F93CF93DF93CDB7DEB762970FB6F8944F
:10389000DEBF0FBECDBF8C01DC015396CD90DD9015
:1038A000ED90FC905697B0EDCB0EB7E0DB1EE11C1F
:1038B000F11C0E94913FC616D706E806F90608F0EB
:1038C00071C0F8014389548965897689CE010796CC
:1038D0000E94805162E17AE0CE010D960E94C636C8
:1038E000BE01695F7F4FCE010D960E94372ABC0151
:1038F000CE0101960E94BD36CE0101960E943F2F57
:10390000CE0101960E941A36CE010D960E941A36FB
:10391000CE0107960E941A36D8015196ED91FC917E
:103920005297E484F584F701858196810E94574679
:1039300040E06CECD70115968D919C9116970E94F2
:103940008C25F701408164E4858196810E948C2555
:10395000D70112968C9112978823A9F01196EC91B9
:10396000E950E33040F4F0E0EE0FFF1FE45FFD4F5D
:103970006081718102C06EEE72E0072E000C880B30
:10398000990B0E94B938D801ED91FC91048CF58D0A
:10399000E02DC80119950E94913FF801638B748B4B
:1039A000858B968B62960FB6F894DEBF0FBECDBFA7
:1039B000DF91CF911F910F91FF90EF90DF90CF900B
:1039C0000895CF92DF92EF92FF920F931F93CF93C0
:1039D000DF93CDB7DEB72C970FB6F894DEBF0FBEDE
:1039E000CDBF8C017B016A0161EA74E0CE010796CC
:1039F0000E94C636E114F10429F0B701CE01079602
:103A00000E94782A69ED7BE0CE0107960E94492A40
:103A1000F8016281738140E1CE0101960E941F3658
:103A2000BE016F5F7F4FCE0107960E94E72ECE0149
:103A300001960E941A366DE475E0CE0107960E9449
:103A4000492A40E1F8016481CE0101960E9477364F
:103A5000BE016F5F7F4FCE0107960E94E72ECE0119
:103A600001960E941A3664E575E0CE0107960E9421
:103A7000492A4AE0F8016781CE0101960E94773613
:103A8000BE016F5F7F4FCE0107960E94E72ECE01E9
:103A900001960E941A366DE17AE0CE0107960E94E7
:103AA000492A7801F8E0EF0EF11C005F1F4FF70183
:103AB00061917F0140E1CE0101960E947736BE01FF
:103AC0006F5F7F4FCE0107960E94E72ECE010196D1
:103AD0000E941A36E016F10651F767E27AE0CE014D
:103AE00007960E94492ABE01695F7F4FCE01019669
:103AF0000E94BD36BE016F5F7F4FC6010E94ED2E52
:103B0000CE0101960E941A36CE0107960E941A36FF
:103B10002C960FB6F894DEBF0FBECDBFDF91CF91CC
:103B20001F910F91FF90EF90DF90CF900895CF936A
:103B3000DF93CDB7DEB762970FB6F894DEBF0FBE46
:103B4000CDBFFB0162817381DC0113967C936E9380
:103B50001297248114962C9314972481243579F498
:103B60009F01285F3F4F1896AF01405F5F4FF901FB
:103B700081919F018D93E417F507C9F727C04AE0AB
:103B8000CE0107960E941F366BE27AE0CE010196C5
:103B90000E94C636BE01695F7F4FCE0101960E942A
:103BA000372ABC01CE010D960E94BD36CE010D967E
:103BB0000E945B2FCE010D960E941A36CE0101960F
:103BC0000E941A36CE0107960E941A3662960FB6E8
:103BD000F894DEBF0FBECDBFDF91CF910895CF9295
:103BE000DF92EF92FF920F931F93CF93DF93CDB7A6
:103BF000DEB765970FB6F894DEBF0FBECDBF7C0170
:103C000069E47AE0CE0101960E94C636CE010196A3
:103C10000E943F2FCE0101960E941A364AE0D7013A
:103C200017966C91CE010A960E9477366EE57AE07F
:103C3000CE0101960E94C636BE01665F7F4FCE015F
:103C400001960E94372ABC01CE0140960E94BD36E3
:103C5000CE0140960E943F2FCE0140960E941A3618
:103C6000CE0101960E941A36CE010A960E941A369B
:103C7000F7012781A0911213B0911313109799F0B7
:103C8000409116135091171380E090E08417950728
:103C900054F4ED91FD913481313319F437812317B8
:103CA00021F00196F3CFE0E0F0E0D7015296FC93CB
:103CB000EE935197309761F512966D917C91139721
:103CC0004AE0CE010A960E941F3663E67AE0CE01F2
:103CD00001960E94C636BE01665F7F4FCE010196F7
:103CE0000E94372ABC01CE0140960E94BD36CE010B
:103CF00040960E945B2FCE0140960E941A36CE015C
:103D000001960E941A36CE010A960E941A36B0C059
:103D10006701B8E0CB0ED11CAE014F5F5F4FB6011B
:103D2000848595850E94DA46811132C0F70162814F
:103D300073814AE0CE010A960E941F366DE77AE051
:103D4000CE0101960E94C636BE01665F7F4FCE014E
:103D500001960E94372A63E87AE00E941F2ABC017C
:103D6000CE0140960E94BD36CE0140960E945B2F48
:103D7000CE0140960E941A36CE0101960E941A3654
:103D8000CE010A960E941A36D70150961C9270C036
:103D900081E0F701808B0188F289E02D048515858B
:103DA000AE014F5F5F4FB601C8010E94DA4688231B
:103DB00009F45EC0D70118968C91803109F458C07F
:103DC0008FE18D83F801858196810E945746B60167
:103DD000D80115968D919C911697D2D640E06EE44D
:103DE000F8018581968198D640E06B81D8011596BF
:103DF0008D919C91169790D640E06C81F801858159
:103E000096818AD6D70118968C91803131F040E0A6
:103E10006D81F801858196817FD6D80115968D91A7
:103E20009C9116970E945746B601F80185819681AC
:103E3000A7D6D8014C9168E415968D919C91169760
:103E40006BD664E170E080E090E00E94B938F80140
:103E50008081882331F06AE070E080E090E00E9489
:103E6000B938D80115968D919C9116970E945746A6
:103E7000F701138A148A158A168A65960FB6F89484
:103E8000DEBF0FBECDBFDF91CF911F910F91FF908D
:103E9000EF90DF90CF900895CF92DF92EF92FF9254
:103EA0000F931F93CF93DF93CDB7DEB72C970FB649
:103EB000F894DEBF0FBECDBF8C016B017A0161EAC1
:103EC00074E0CE0107960E94C636C114D10429F0D1
:103ED000B601CE0107960E94782A69ED7BE0CE01FB
:103EE00007960E94492AF801628173814AE0CE0157
:103EF00001960E941F36BE016F5F7F4FCE0107966D
:103F00000E94E72ECE0101960E941A366DE475E0FC
:103F1000CE0107960E94492AF8016481CE010196DC
:103F20000E94A436BE016F5F7F4FCE0107960E94AC
:103F3000E72ECE0101960E941A3664E575E0CE01A7
:103F400007960E94492AF801678170E04AE0CE0195
:103F500001960E941F36BE016F5F7F4FCE0107960C
:103F60000E94E72ECE0101960E941A3661E675E0A6
:103F7000CE0107960E94492AF8018681811103C06B
:103F800067E475E002C062E475E0CE0107960E9426
:103F9000492A60E775E0CE0107960E94492ABE01D2
:103FA000695F7F4FCE0101960E94BD36BE016F5FF3
:103FB0007F4FC7010E94ED2ECE0101960E941A3656
:103FC000CE0107960E941A362C960FB6F894DEBFE3
:103FD0000FBECDBFDF91CF911F910F91FF90EF905A
:103FE000DF90CF900895CF93DF931F92CDB7DEB7C8
:103FF0006983DC01ED91FC910280F381E02D41E0C9
:1040000050E0BE016F5F7F4F19950F90DF91CF9108
:104010000895FC01818D928D0895FC019485FB012A
:104020008485981303C081E0983008F080E00895FB
:10403000CF93DF931F92CDB7DEB76983DC01ED919B
:10404000FC910280F381E02D41E050E0BE016F5F02
:104050007F4F19950F90DF91CF910895FC018485D2
:1040600095850895FC0184899589089523E534E0B8
:10407000FC0131832083FB01408951896289738966
:10408000FC0142835383648375830895DC01ED91C1
:10409000FC91048CF58DE02D199480E00895FC01CD
:1040A000808D883040F4218D328D232B21F00E94A9
:1040B0009A4190E008958FEF9FEF0895CF93DF939B
:1040C000FC012485283018F08FEF9FEF0EC0EC0123
:1040D0000190F081E02D0084F185E02D1995892B68
:1040E00099F38C850E949A4190E0DF91CF910895D9
:1040F000CF93DF93FC01218D328D2115310519F409
:104100008FEF9FEF11C0EC014217530708F0A90190
:10411000888D0E9459441816190694F7298D3A8DF6
:10412000281B390B3A8F298FDF91CF9108950F9378
:104130001F93CF93DF931F92CDB7DEB7FC01218D84
:10414000328D232B61F08C0141E050E0BE016F5FA6
:104150007F4F808D0E945944181619061CF08FEF6E
:104160009FEF08C0F801818D928D0197928F818F0A
:10417000898190E00F90DF91CF911F910F91089569
:10418000CF93DF931F92CDB7DEB741E050E0BE0181
:104190006F5F7F4FFC0184850E94594418161906F1
:1041A0001CF4898190E002C08FEF9FEF0F90DF91A8
:1041B000CF910895FC018485883010F40C94594403
:1041C00080E090E00895FC018485883010F40C9420
:1041D000C64180E090E008950F931F93CF93DF9343
:1041E000CDB7DEB728970FB6F894DEBF0FBECDBFB0
:1041F0008C01D80159964D915C915A974115510502
:1042000051F0ED91FC91048CF58DE02D60E070E0B3
:10421000C8011995EECFF801808D0E94C641892B07
:1042200051F148E050E0BE016F5F7F4FD8015896D2
:104230008C910E94594418161906FCF4D801509626
:1042400084E0FE01319601900D928A95E1F78D810F
:1042500090E0982F88272E81820F911DF801958B71
:10426000848B8F8190E0982F88272885820F911D5D
:10427000928F818F02C080E090E028960FB6F8946C
:10428000DEBF0FBECDBFDF91CF911F910F9108957B
:10429000AF92BF92CF92DF92EF92FF920F931F9354
:1042A000CF93DF93CDB7DEB7AF970FB6F894DEBFED
:1042B0000FBECDBF8C015B016A01CE0101961BD7F9
:1042C00083E5E82E84E0F82EFBA6EAA61CA61DA630
:1042D0001EA61FA680913F1290914012A0914112FC
:1042E000B09142128EA39FA3A8A7B9A78B839C83EA
:1042F000AD83BE8318861F82AE01465D5F4FB50158
:10430000CE010196B8D481309105B1F4D801ED9178
:10431000FC910488F589E02DFDA2ECA28CA59DA559
:10432000AEA5BFA58EA39FA3A8A7B9A7A601BE014E
:104330006C5D7F4FC8011995AF960FB6F894DEBF3C
:104340000FBECDBFDF91CF911F910F91FF90EF90E6
:10435000DF90CF90BF90AF900895CF93DF93FC0193
:10436000808D883028F4EF010E94184388E0888F00
:10437000DF91CF9108950F931F93CF93DF93EC01BB
:104380008B01888D883010F40E941843B80182E0B8
:104390000E947443888F883030F41D870C871A8EF2
:1043A000198E81E001C080E0DF91CF911F910F91C4
:1043B0000895CF93DF93EC018C858830C8F40E9478
:1043C0002945843181F0882371F0883161F08C3186
:1043D00061F4E881F9810084F185E02DCE01199521
:1043E00021E0892B19F420E001C021E0822F01C0D7
:1043F00080E0DF91CF910895CF92DF92EF92FF920C
:10440000CF93DF93EC018C85883038F50E94FC4215
:104410000E94913F6B017C018C850E942945882375
:10442000D1F061E070E080E090E00E94B9380E9435
:10443000913FAB01BC014C195D096E097F098D8567
:104440009E85A0E0B0E0481759076A077B0720F374
:104450008C850E94184388E08C87DF91CF91FF9074
:10446000EF90DF90CF900895CF92DF92EF92FF927E
:104470000F931F93CF93DF93CDB7DEB7AF970FB6F0
:10448000F894DEBF0FBECDBF8C016B017A01CE0167
:10449000019631D683E594E09BA78AA71CA61DA6AA
:1044A0001EA61FA6D8011C968C91883060F40E942D
:1044B0002945882321F0F80184850E94FC4288E088
:1044C000D8011C968C9380913F1290914012A0913C
:1044D0004112B09142128EA39FA3A8A7B9A78B83C4
:1044E0009C83AD83BE8318861F82AE01465D5F4FFD
:1044F000B601CE010196BFD30097C1F0D801ED916E
:10450000FC910684F785E02D83E594E09DA38CA3C0
:104510008CA59DA5AEA5BFA58EA39FA3A8A7B9A74F
:10452000A701BE016C5D7F4FC8011995AF960FB60C
:10453000F894DEBF0FBECDBFDF91CF911F910F91D9
:10454000FF90EF90DF90CF900895CF93DF93EC0131
:104550008C85883060F40E942945873111F08C31B8
:1045600031F48C850E942B448115984088F3DF91AB
:10457000CF910895FC018485883010F40C942B446D
:1045800080E090E00895DA019091C20FE92FF0E009
:10459000FE2FEE27E60FF71F90E0982F8827A9013E
:1045A000BD018E0F9F1F0C94F13F08958CBD9DBDE2
:1045B00008957F928F929F92AF92BF92CF92DF9297
:1045C000EF92FF920F931F93CF93DF931F921F924F
:1045D000CDB7DEB77C014B01742EC52EFC01A68839
:1045E000B788D08CCE0101960E94032E89819A81D2
:1045F000DDDF8D2D0E945D41072D1C2D8017910759
:1046000008F48C019801A401B5018D2D0E940D4282
:10461000F70186899789800F911F978B868BC80138
:104620000F900F90DF91CF911F910F91FF90EF901E
:10463000DF90CF90BF90AF909F908F907F90089524
:104640001F93CF93DF931F921F92CDB7DEB7FC016C
:10465000108DCE0101960E94032E89819A81A6DFDA
:1046600060E270E0812F0E94EE4262E070E0812FF4
:104670000E94D14284FD17C062E070E0812F0E9449
:10468000D14283FF08C048E162E070E0812F0E94C0
:10469000B44280E00FC0CE0101960E94032E8981B2
:1046A0009A8184DFE2CF40E162E070E0812F0E94D6
:1046B000B44281E090E00F900F90DF91CF911F9175
:1046C0000895DF92EF92FF920F931F93CF93DF93A2
:1046D0001F921F92CDB7DEB7FB01DC0157961C92EB
:1046E0001E9256972281211109C02381211106C0F3
:1046F0002481211103C025812223F1F041155105A8
:10470000D9F07A018F01FC01D08CCE0101960E9474
:10471000032E89819A814ADFA8014E5F5F4F24E012
:1047200030E06CE070E08D2D0E94FC41B7018D2DD2
:104730000E948A4281E001C080E090E00F900F90DB
:10474000DF91CF911F910F91FF90EF90DF9008952F
:104750000F931F93CF93DF931F921F92CDB7DEB7B6
:10476000FC0124852830C0F48C01CE0101960E9402
:10477000032E89819A811ADF22E030E0AE014F5F7B
:104780005F4F60E170E0F8018485FDDE89819A81E8
:1047900098278927982702C080E090E00F900F901B
:1047A000DF91CF911F910F910895EF92FF920F9398
:1047B0001F93CF93DF9300D01F92CDB7DEB78C014C
:1047C0007B01FB018485883050F083E594E0F8019B
:1047D0009183808312821382148215821EC0CE01BF
:1047E00001960E94032E89819A81E0DE24E030E068
:1047F000AE014F5F5F4F6CE070E0F7018485C3DE70
:1048000083E594E0F8019183808389819A81AB816B
:10481000BC8182839383A483B583C8010F900F90DA
:104820000F900F90DF91CF911F910F91FF90EF901C
:1048300008950F931F93CF93DF931F921F92CDB7CD
:10484000DEB7FC0124852830C0F48C01CE0101962E
:104850000E94032E89819A81A9DE22E030E0AE0118
:104860004F5F5F4F64E070E0F80184858CDE8981E2
:104870009A8198278927982702C080E090E00F90BE
:104880000F90DF91CF911F910F9108956F927F92BA
:104890008F929F92AF92BF92CF92DF92EF92FF9250
:1048A0001F93CF93DF931F921F92CDB7DEB7FC010A
:1048B0001485183008F05EC06A014130F8E05F07E7
:1048C00018F0C12C28E0D22E7A013B015C01CE0108
:1048D00001960E94032E89819A8168DE812F0E94B1
:1048E0005D414C0163E070E0812F0E94D14287312D
:1048F00011F08C3121F48C149D0448F302C0C12CBA
:10490000D12CCE0101960E94032E89819A814EDE20
:104910009601A30160E070E0812F0E940D4260E2E9
:1049200070E0812F0E94EE4262E070E0812F0E94D1
:10493000D14284FD15C063E070E0812F0E94D14216
:10494000811106C081E090E0F5019383828312C05B
:10495000CE0101960E94032E89819A8127DEE4CF41
:1049600040E162E070E0812F0E94B442CD2851F313
:10497000C70102C080E090E00F900F90DF91CF91CF
:104980001F91FF90EF90DF90CF90BF90AF909F90DE
:104990008F907F906F900895AF92BF92CF92DF92E9
:1049A000EF92FF920F931F93CF93DF931F921F926B
:1049B000CDB7DEB78C016B015A01FC0184858830CC
:1049C00058F40E942945882321F0F80184850E942B
:1049D000FC4288E0F8018487F60182819381A481FA
:1049E000B5810097A105B10509F45AC08F3F9F4FCB
:1049F000AF4FBF4F09F454C060E070E081E20E9405
:104A00007443F82EF8018487F7E0F81708F448C0DB
:104A1000CE0101960E94032E89819A81C7DDA601ED
:104A20004E5F5F4F24E030E06CE070E08F2D0E941D
:104A3000FC41B5018F2D0E948A4264E070E08F2D09
:104A40000E94EE420E94913F6B017C01F801848537
:104A50000E942945873139F18C3129F1882301F1F0
:104A60000E94913FAB01BC014C195D096E097F09A1
:104A7000F80185859685A0E0B0E084179507A60724
:104A8000B70738F061E070E080E090E00E94B9384C
:104A9000DDCFF80184850E94184388E0F8018487FF
:104AA00080E090E002C081E090E00F900F90DF91F5
:104AB000CF911F910F91FF90EF90DF90CF90BF901B
:104AC000AF9008950F931F93CF93DF931F921F9280
:104AD000CDB7DEB78C0183E594E0F8019183808344
:104AE0001282138214821582CE0101960E94032E37
:104AF00089819A815BDDB8016E5F7F4F44E050E0B1
:104B00008FE090E00E94F13FC8010F900F90DF917D
:104B1000CF911F910F910895DF92EF92FF920F9323
:104B20001F93CF93DF93EC01D62EE42E08E010E024
:104B3000FF24F39461E08D2D8F2109F460E0CE0114
:104B40000E942846FF0C01501109A1F7E11010C086
:104B5000F894E981FA819181888180958923818304
:104B6000E981FA8192818881809589238283789472
:104B7000DF91CF911F910F91FF90EF90DF900895FB
:104B8000EF92FF920F931F93CF93DF938C017B01E2
:104B900040E065E5C1DFE70188E0E80EF11C6991BE
:104BA00040E0C801B9DFCE15DF05C9F7DF91CF912D
:104BB0001F910F91FF90EF900895FC01908101806B
:104BC000F281E02DF8948181892B81832281892FC4
:104BD000809528232283A7E0B0E01197F1F7218187
:104BE00082238183A3E2B0E01197F1F7808178946A
:104BF000EFECF0E03197F1F7982381E009F480E0E1
:104C000008952091101321110C94FC550895FB0177
:104C100044815581FC01248135812417350778F0C2
:104C200080819181009759F0FB016081718161154C
:104C3000710529F00E94A06A21E0892B09F020E08B
:104C4000822F08951F93CF93DF93EC01162F688571
:104C5000111102C081E068278F810E944F381D83A7
:104C6000CE010E940352612F8A819B81DF91CF91F7
:104C70001F910C9423544F925F926F927F928F9268
:104C80009F92AF92BF92CF92DF92EF92FF920F93DB
:104C90001F93CF93DF93CDB7DEB763970FB6F8942A
:104CA000DEBF0FBECDBF7C015B013A01FB0120E0FE
:104CB00080E090E06AE03191332309F140ED430F49
:104CC0004A3080F4689FA001699F500D1124CA01E9
:104CD000C097830F911D37FD9A958F3F910559F32A
:104CE00050F313C03E3289F4233079F0D301A20F80
:104CF000B11D12968C932F5F80E090E0DCCF2330C3
:104D000021F4F301858381E020C0F70142815381C2
:104D1000648175818091451290914612A09147124D
:104D2000B0914812481759076A077B0709F479C1FF
:104D30000E94913F8701085F1F4F6F7077277C5F4C
:104D4000C80119DB813019F080E090E0BDC183E536
:104D500094E09A838983F70182819381A481B5814C
:104D60008B839C83AD83BE8345E350E0BE016F5FC0
:104D70007F4FC801A6DC892B19F4C12CD12C4DC161
:104D80000E94913FF7017783668342E050E0B701CC
:104D90006A5F7F4FC8010DDC81E090E09A838983D0
:104DA00042E050E0BE016F5F7F4FC80102DC80E04F
:104DB00091E09A83898342E050E0BE016F5F7F4FAC
:104DC000C801F7DB1A82198242E050E0BE016F5F32
:104DD0007F4FC801EEDB42E050E0BE016F5F7F4FC6
:104DE000C801E7DB42E050E0BE016F5F7F4FC801C2
:104DF000E0DB4501F50180818823F1F06401560173
:104E0000F60181912F01882321F08E3211F0620189
:104E1000F6CFC818D9081C141D0464F4CD8641E0EF
:104E200050E0BE01635F7F4FC801C3DBA601B40140
:104E3000C801BFDB4201DECF1D8641E050E0BE016C
:104E4000635F7F4FC801B5DBC12CDD24D394DA82C8
:104E5000C98242E050E0BE016F5F7F4FC801A9DB0D
:104E6000DA82C98242E050E0BE016F5F7F4FC80125
:104E7000A0DBC801E5DB892B09F47FCFE3E0AE2E90
:104E8000B12C230122E0420E511C0E94913F3B01B4
:104E90004C01C801A1D918161906A4F00E94913F2F
:104EA000DC01CB0186199709A809B9098938934112
:104EB000A105B105D0F462E370E080E090E00E94CB
:104EC000B938E7CFF7014281538164817581808DC4
:104ED000918DA28DB38D481759076A077B0749F456
:104EE000848D958DC59729F409C0CC24CA94DC2CF7
:104EF0008BC05EEFC52EDD24DA9486C0F70181A158
:104F000092A10C970CF4DBC04CE050E0BE016F5F47
:104F10007F4FC801EDD88B819C81982789279827DE
:104F20009A8B898BF7014681578129813A814217F3
:104F3000530709F0B5C097FFB3C08F709270892BEB
:104F400009F0B3C06F8078847624672476246114D6
:104F5000710409F4AFC0C12CD12C8D819E8198279A
:104F600089279827C816D90608F45EC0812C912C91
:104F700041E050E0BE016D5E7F4FC801B9D84B895A
:104F8000842F807C09F06CC0442329F050E060E05D
:104F900070E0C801ADD88B898111EACF42E050E0C2
:104FA000BE01615F7F4FC801A3D842E050E0BE015F
:104FB000635F7F4FC8019CD844E050E060E070E040
:104FC000C80196D842E050E0BE016F5E7F4FC80135
:104FD0008FD88F85988949895A898115914009F020
:104FE00047C0CD84DE84DC24CD24DC2481E0C816D7
:104FF000D10409F03DC04115544009F04CC044E0D3
:1050000050E0B201C80174D821E0A21AB10829F019
:10501000FFEFCF16DF0609F438CFC8019ED9C601CD
:1050200053C08EEF9FEF50C041E050E0BE01635F80
:105030007F4FC8015DD84D85442329F050E060E0E2
:1050400070E0C80155D88D858111EECF44E050E065
:1050500060E070E0C8014CD8FFEFCF1ADF0A7DCFC7
:1050600041E050E060E070E0C80142D81B8A93CF75
:1050700054274527542760E070E0C80139D8FFEF76
:105080008F1A9F0A6814790409F072CF96EFC92E1F
:10509000DD24DA94B9CF77EFC72EDD24DA94B4CFCC
:1050A0004CEFC42EDD24DA94AFCF3BEFC32EDD24CA
:1050B000DA94AACF2AEFC22EDD24DA94A5CF8DEFA1
:1050C000C82EDD24DA94A0CF63960FB6F894DEBF25
:1050D0000FBECDBFDF91CF911F910F91FF90EF9049
:1050E000DF90CF90BF90AF909F908F907F906F9008
:1050F0005F904F900895FC0183E594E09183808355
:1051000012821382148215821386128648EE53E0AF
:1051100060E070E0448755876687778724E632E051
:1051200031872087978B868B108E118E128E138E6F
:1051300088E080A308958F929F92AF92BF92CF9202
:10514000DF92EF92FF920F931F93CF93DF93CDB730
:10515000DEB760970FB6F894DEBF0FBECDBF7C01FF
:105160009091C10F992309F4B3C0933311F008E073
:1051700001C004E05B01CE01019645D589819A8189
:1051800015DA9E012F5F3F4F6901490110E063E08E
:1051900070E0812F0E94D142F40181934F01882356
:1051A000C1F01F5F0113F3CF10E0F60181916F0191
:1051B0008D3151F0883141F08A51823028F01F5FE3
:1051C0000113F3CFF2D984C060E170E0812F0E9417
:1051D000EE42C12ED12C83EE93E00197F1F742E825
:1051E00060E070E0812F0E94B4424FEF62E070E017
:1051F000812F0E94B442A114B10411F0B50113C073
:10520000809100029091010201968115F0EC9F07B8
:1052100010F480E090EC9093010280930002609182
:10522000000270910102812F0E949F4286E0EAE510
:10523000F2E0DE01199601900D928A95E1F7F701EF
:1052400083818F778C8784818D8785818E87A70165
:105250004E5F5F4F24E030E06CE070E0812F0E94F1
:10526000FC41B501812F0E948A4226E030E0AE0168
:10527000475F5F4F66E070E0812F0E94FC4161E074
:1052800070E0812F0E94EE4227E02C9DC0012D9DF1
:10529000900D11249C012359304F7901F90111829D
:1052A000108222E030E0AE01415F5F4F68E270E0C3
:1052B000812F69D98F859889982789279827F701A1
:1052C000938382831682158214826FD9812F01C045
:1052D00088E060960FB6F894DEBF0FBECDBFDF91B9
:1052E000CF911F910F91FF90EF90DF90CF90BF90E3
:1052F000AF909F908F900895FC01A089B1898C9107
:10530000A689B78982FD0FC09C91818D8F5F8F73B5
:10531000228D821749F0218DDF01A20FB11D5D960C
:105320009C93818F08958C9108958F929F92AF9254
:10533000BF92EF92FF920F931F93CF93DF93CDB75E
:10534000DEB7A1970FB6F894DEBF0FBECDBF7C01CC
:10535000FA01CB0119A2223008F42AE08E010F5D78
:105360001F4F822E912CA12CB12CBF01A5019401BD
:105370000E940A68F901CA01015011096A3014F447
:10538000605D01C0695CD8016C93232B242B252B15
:1053900061F70115110591F0F80101900020E9F77E
:1053A0003197AF01401B510BD701ED91FC91028069
:1053B000F381E02DB801C701199502C080E090E0AB
:1053C000A1960FB6F894DEBF0FBECDBFDF91CF918F
:1053D0001F910F91FF90EF90BF90AF909F908F9093
:1053E0000895EF92FF920F931F93CF93DF93611570
:1053F000710511F480E01CC041155105C1F07B011D
:10540000EC018C819D818A01080F191FB801CE0122
:105410000E94E135882371F3288139818C819D8137
:10542000B701820F931F0E94996A1D830C8381E04C
:10543000DF91CF911F910F91FF90EF900895CF933F
:10544000DF93EC016115710559F0FB01019000201B
:10545000E9F73197AF01461B570BC3DF811103C03A
:10546000CE010E940836CE01DF91CF910895CF93EF
:10547000DF93EC01FB014481558160817181B1DFD3
:10548000811103C0CE010E940836CE01DF91CF9179
:1054900008956115710549F0FB0101900020E9F7BD
:1054A0003197AF01461B570B9CCF80E00895EF92D8
:1054B000FF920F931F93CF93DF93EC017B018A013F
:1054C000BA010E94E135811104C0CE010E94083664
:1054D00007C01D830C83B701888199810E94996A56
:1054E000CE01DF91CF911F910F91FF90EF90089522
:1054F000CF93DF93EC016115710551F0FB01019031
:105500000020E9F73197AF01461B570BD0DF02C0EF
:105510000E940836CE01DF91CF910895CF93DF939B
:10552000EC01FB018617970759F0608171816115C5
:10553000710521F044815581BADF02C00E9408360E
:10554000CE01DF91CF910895BF92CF92DF92EF927B
:10555000FF920F931F93CF93DF937C016B018A011E
:10556000E9012417350720F4812F8901C42FD82F92
:1055700061EA74E0C7010E94C636D60114968D9187
:105580009C91159708171907C0F48C179D0708F40C
:10559000EC01D601ED91FC911197EC0FFD1FB0804D
:1055A00010826D917C91600F711FC701A1DFD60140
:1055B000ED91FC91EC0FFD1FB082C701DF91CF91FF
:1055C0001F910F91FF90EF90DF90CF90BF900895C3
:1055D000AF92BF92DF92EF92FF920F931F93CF9300
:1055E000DF9300D000D0CDB7DEB75B017C0100E0D7
:1055F00010E00E5F1F4FA801425051099801B501FC
:10560000CE010196A1DF40E150E060E070E08981C9
:105610009A810E94B862D62ECE0101960E941A3657
:10562000F701D1927F010031110519F726960FB6C7
:10563000F894DEBF0FBECDBFDF91CF911F910F91C8
:10564000FF90EF90DF90BF90AF900895EF92FF92A0
:105650000F931F93CF93DF93CDB7DEB7C55FD1090B
:105660000FB6F894DEBF0FBECDBF9E01275F3F4F40
:105670003C832B8328EC30E03E832D8318861F82E9
:105680002FE534E03A832983FC01808191810097E2
:1056900011F481EA94E09E012F5F3F4FCF52DF4F1C
:1056A00039832883C15DD040CD52DF4F99838883F1
:1056B000C35DD040CB52DF4F39832883C55DD040D6
:1056C0008AE0C952DF4F8883C75DD040C252DF4FA6
:1056D00019821882CE5DD040BE0162527F4FCE014A
:1056E0008F529F4F0E948F5286E0FE01E252FF4F81
:1056F000DE01A852BF4F01900D928A95E1F786E036
:10570000FE01E852FF4FDE01A252BF4F01900D9201
:105710008A95E1F786E0FE01E252FF4FDE01AF52CB
:10572000BF4F01900D928A95E1F7CF52DF4F8881EC
:105730009981C15DD040079739F4CD52DF4F088180
:105740001981C35DD04003C00E949B048C0169E9AC
:105750007AE0C8010E94CC05882309F449C069E9B0
:105760007AE0C8010E942905009721F004960E9462
:10577000BD0402C080E090E04AE0BC01CE01865149
:105780009F4F0E944B3660EA7AE0CE018C519F4FCA
:105790000E94C636BE0166517F4FCE018C519F4F8D
:1057A00066DEBC01CE0180519F4F0E94BD36CE0106
:1057B00080519F4F64D3CE0180519F4F0E941A3673
:1057C000CE018C519F4F0E941A36CE0186519F4FB9
:1057D0000E941A3669E97AE0C8010E948805109291
:1057E0002513109224135AD581E08093B50F28C158
:1057F0008091B50F882309F423C168EA7AE0C801D3
:105800000E94CC05882309F41BC18DE090E00E9422
:10581000FB602DE0FC0111922A95E9F720912413F9
:1058200030912513220F331FE0911413F0911513BB
:10583000E20FF31F918380838091141390911513CD
:10584000FC01E20FF31F80819181892B09F4D5C0FF
:1058500068EA7AE0C8010E94CC058823B1F0E091A3
:105860002413F0912513EE0FFF1F809114139091D4
:105870001513E80FF91FE080F18068EA7AE0C801AB
:105880000E942B05F701918380836BEA7AE0C801BF
:105890000E94CC058823B1F0E0912413F0912513E8
:1058A000EE0FFF1F8091141390911513E80FF91F4D
:1058B000E080F1806BEA7AE0C8010E942B05F701D5
:1058C0009383828364EB7AE0C8010E94CC0588232D
:1058D000D9F0E0912413F0912513EE0FFF1F809172
:1058E000141390911513E80FF91FE080F18064EB19
:1058F0007AE0C8010E948005FC018081082E000C1E
:10590000990BF701958384836FEB7AE0C8010E94BD
:10591000CC058823A9F0E0912413F0912513EE0F14
:10592000FF1F8091141390911513E80FF91FE08069
:10593000F1806FEB7AE0C8010E948805F701868349
:1059400065EC7AE0C8010E94CC058823B1F0E091B3
:105950002413F0912513EE0FFF1F809114139091E3
:105960001513E80FF91FE080F18065EC7AE0C801BB
:105970000E942B05F701908787836EEC7AE0C801BF
:105980000E94CC058823B9F0E0912413F0912513EF
:10599000EE0FFF1F8091141390911513E80FF91F5C
:1059A000E080F1806EEC7AE0C8010E94880590E00A
:1059B000F701928781876BED7AE0C8010E94CC05E0
:1059C0008823D9F0E0912413F0912513EE0FFF1FE7
:1059D0008091141390911513E80FF91FE080F18066
:1059E0006BED7AE0C8010E948005FC018081082EE1
:1059F000000C990BF7019487838780912413909171
:105A00002513019690932513809324132091181346
:105A1000309119138217930799F466EE7AE0CE015C
:105A20008C519F4F0E94C636CE018C519F4F27D27A
:105A3000CE018C519F4F0E941A3681E080930F1344
:105A4000CB50DF4F0FB6F894DEBF0FBECDBFDF9156
:105A5000CF911F910F91FF90EF9008952091111316
:105A60002111F4CD0895EF92FF920F931F93CF93DE
:105A7000DF937C018B01EB0109900020E9F721976E
:105A8000C61BD70B89E492E10E943347882389F132
:105A9000F70101900020E9F73197EE19FF09CE01D7
:105AA0000796E80FF91FE138F10518F545E050E0D9
:105AB0006BE472E1C7010E94763EF801DC01A55B50
:105AC000BD4EA8014C0F5D1FE417F50719F0219199
:105AD0002D93FACF2597AE01480F591F6BE472E161
