:100000001AC2000049C2000047C2000045C20000F9
:1000100043C2000041C200003FC200003DC20000D8
:100020003BC200000C942E480C942E480C942E4891
:1000300033C2000031C200002FC200002DC20000F8
:100040002BC2000029C2000027C2000025C2000008
:1000500023C2000021C200001FC200000C945F40B8
:100060001BC200000C94BF380C94963815C20000D7
:1000700013C2000011C200000FC200000DC2000038
:100080000BC2000009C2000007C2000005C2000048
:100090000C946C380C944338FFC10000FDC1000083
:1000A000FBC10000F9C10000F7C10000F5C100006C
:1000B000F3C10000F1C10000EFC10000EDC100007C
:1000C000EBC10000E9C10000E7C100000C94193841
:1000D0000C94F037E1C100000C94C6370C949D37A6
:1000E000DBC10000991A931AC21AA21A9E1A481A62
:1000F000671A0E1A1C361F360E361236183656364A
:10010000233627362D36313635363B363F364336A5
:10011000563649364D36513600407A10F35A00A013
:10012000724E18090010A5D4E80000E876481700C0
:1001300000E40B54020000CA9A3B000000E1F50500
:10014000000080969800000040420F000000A0864A
:1001500001000000102700000000E803000000007C
:100160006400000000000A00000000000100000020
:1001700000002C76D888DC674F0823DFC1DFAE593A
:10018000E1B1B796E5E3E453C63AE651997696E8CD
:10019000E6C28426EB898C9B62ED407C6FFCEFBC51
:1001A0009C9F40F2BAA56FA5F490055A2AF75C937C
:1001B0006B6CF9676DC11BFCE0E40D47FEF520E6B2
:1001C000B500D0ED902E0300943577050080841E95
:1001D000080000204E0A000000C80C333333330FF0
:1001E000986E12831141EF8D2114893BE65516CF8D
:1001F000FEE6DB18D1844B381BF77C1D901DA4BB99
:10020000E424203284725E228100C9F124ECA1E54D
:100210003D27000020002300260029002C002F008D
:1002200032000001000003010601090100000A0B71
:1002300002090C0D0E080703040100000000000075
:1002400000000000000000000000000000000000AE
:10025000000000000000000012111000000000006B
:10026000000000000000000000000000000000008E
:10027000000000002200250028002B002E00310085
:10028000340002010000050108010B0100002100FB
:10029000240027002A002D00300033000101000057
:1002A000040107010A010102102020080810204063
:1002B000102040800201020108040201010204082A
:1002C00010204080804020100804020180040201B8
:1002D0008040201008040201080402010102040801
:1002E000102040800102040810204080050505050B
:1002F000070508080808020202020A0A080804049E
:1003000004040101010101010101030303030303CB
:100310000303040707070C0C0C0C0C0C0C0C02025A
:10032000020206060606060606060B0B0B0B0B0B57
:100330000B0B005EBCE2613FDD83C29C7E20A3FD0F
:100340001F419DC3217FFCA2401E5F01E3BD3E60B3
:1003500082DC237D9FC1421CFEA0E1BF5D0380DEE5
:100360003C62BEE0025CDF81633D7C22C09E1D4397
:10037000A1FF4618FAA427799BC584DA3866E5BB45
:100380005907DB856739BAE406581947A5FB782673
:10039000C49A653BD987045AB8E6A7F91B45C698A5
:1003A0007A24F8A6441A99C7257B3A6486D85B0557
:1003B000E7B98CD2306EEDB3510F4E10F2AC2F7105
:1003C00093CD114FADF3702ECC92D38D6F31B2EC33
:1003D0000E50AFF1134DCE90722C6D33D18F0C5265
:1003E000B0EE326C8ED0530DEFB1F0AE4C1291CF17
:1003F0002D73CA947628ABF517490856B4EA6937C5
:10040000D58B5709EBB536688AD495CB2977F4AAF2
:100410004816E9B7550B88D6346A2B7597C94A1424
:10042000F6A8742AC896154BA9F7B6E80A54D789D6
:100430006B35A35F5C5D11241FBECFEFD1E2DEBF41
:10044000CDBF00E00CBF1FE0A0E0B2E0E8EBFCEDA8
:1004500000E00BBF02C007900D92A639B107D9F793
:1004600024E1A6E9BFE001C01D92AF34B207E1F775
:1004700012E0CAE1D2E000E006C021970109802F16
:10048000FE010E943E6AC931D10780E00807A9F742
:100490000E94605D0C944B6EB3CDFC0111861286F8
:1004A000138614861582089584E0089508958BE0DC
:1004B000089583E0089585E0089580E00895089503
:1004C000089580E00895FC0126813781620F731F33
:1004D000848195818617970738F08281938177838D
:1004E0006683820F931F089580E090E00895FC01D9
:1004F0001486158616861786118615820895FC01C6
:10050000768765870895DC01ED91FC91068CF78D67
:10051000E02D199591E089270895862F089581E0AF
:100520008627089521E0FC018485883008F020E0CA
:10053000822F089580E090E00895CF93DF93EC013F
:100540008A819B810E94E554CE01DF91CF910C946A
:10055000C552CF93DF93EC018A819B810E94E554C1
:100560001D82CE01DF91CF910C94C552CF93DF93C2
:10057000EC0160E08F810E943F39688581E0682747
:100580008F810E941139CE01DF91CF910C94C55219
:100590000C9455620C9455620F931F93CF93DF9385
:1005A0008C01EB01FC016281CE010E94794BF801C4
:1005B0006481CE0101960E94794BF8016781CE01DA
:1005C00002960E94794BF8016085CE010396DF9177
:1005D000CF911F910F910C94794B0F931F93CF9351
:1005E000DF93EC018B01CB010E94804990E09B835B
:1005F0008A83C80101960E9480498C83C8010296B3
:100600000E9480498F83C80103960E94804991E02F
:10061000811101C090E09887DF91CF911F910F91D8
:1006200008950895FC01A081B1818C918D3051F025
:1006300024F489508230B8F505C0803219F08F3229
:1006400019F0089511962CC011968C9111978A3249
:1006500019F08F32D1F008951196B183A083A08153
:10066000B181CD0101969183808311968C91119770
:100670008823C9F08A3299F712968C9112978F329B
:1006800071F713960DC08A3071F2A081B181CD014E
:1006900001969183808311968C918111F4CF03C0D0
:1006A000B183A083C0CF08951F93CF93DF93EC0154
:1006B000162FB8DFE881F9818081181305C03196C3
:1006C000F983E88381E001C080E0DF91CF911F9141
:1006D0000895EF92FF920F931F93CF93DF938C01B6
:1006E000DC011496CD91DC911597EA80FB808E8118
:1006F0009F81E80EF91EC801029694DFD801129678
:10070000ED91FC9113978081873291F1823281F1D2
:1007100090ED980F9A3060F0982F9F7D91549A3108
:1007200038F08B3229F093ED980F923008F061C0C9
:10073000F801228133812F5F3F4F338322832E8143
:100740003F81A9014F5F5F4F6C817D816417750701
:1007500040F06A817B81FB01E20FF31F5F834E83D0
:100760008083D8011296ED91FC9113978081D0CFB0
:100770003196D8011396FC93EE931297D8011296F6
:10078000ED91FC9113979081992399F19F012F5F2F
:100790003F4F13963C932E931297891751F19C3536
:1007A000A9F49181A7E9B4E02C91222339F09213A6
:1007B00003C011969C9102C01296F6CF9923C9F0FE
:1007C0003296D8011396FC93EE9312972E813F81B7
:1007D000A9014F5F5F4F6C817D816417750770F2CF
:1007E0006A817B81FB01E20FF31F5F834E8390835D
:1007F000C5CF8E819F819C012F5F3F4F4C815D81D2
:100800004217530750F04A815B81FA01E80FF91F44
:100810003F832E831082C70102C080E090E0DF9109
:10082000CF911F910F91FF90EF9008950F931F9319
:10083000CF93DF938C01FC01C081D181C130D10500
:1008400059F4628173816115710531F082EA94E097
:100850000E94526B892B39F02197229720F4F801DE
:100860008281938102C080E090E0DF91CF911F915F
:100870000F91089580919A0F81110BC01092970FDC
:100880001092960F1092990F1092980F81E080931A
:100890009A0F86E99FE00895DB01109749F0ED91EA
:1008A000FC9111970190F081E02DBC01CD011994CC
:1008B00080E090E008950895FC018081918183306B
:1008C000910520F4019708F440C00BC085309105D4
:1008D00028F0059799F5628173812BC082819381FD
:1008E00008950280F381E02D309779F1808184377B
:1008F00079F18B3229F08D3221F4319691E002C0EA
:10090000319690E060E070E04AE0819120ED280FA0
:100910002A3068F4469F9001479F300D1124682FBC
:10092000880F770B60537109620F731FEECF992305
:1009300091F088279927861B970B08956281738110
:10094000848195810E94F66906C080E090E0089558
:1009500081E090E00895CB0108950F931F93CF930A
:10096000DF938B01FC01C281D381209759F06A810A
:100970007B81C8010E94526B892B21F00990D8819C
:10098000C02DF3CFCE01DF91CF911F910F9108952C
:10099000E4CF0895FDDFFC01892B09F448C0848170
:1009A00095818330910520F4019708F440C00BC075
:1009B0008530910528F0059799F5668177812BC0E0
:1009C0008681978108950680F781E02D309779F12F
:1009D0008081843779F18B3229F08D3221F4319680
:1009E00091E002C0319690E060E070E04AE08191D1
:1009F00020ED280F2A3068F4469F9001479F300D64
:100A00001124B90160537109680F711D87FD7A9532
:100A1000EECF992391F088279927861B970B08958D
:100A200066817781808591850E94FB6906C080E0A0
:100A300090E0089581E090E00895CB010895A8DF4B
:100A4000009711F00496F2CE80E090E00895A0DFC8
:100A5000FC01892BD9F1848195818330910518F4AB
:100A60000197A0F109C08530910520F0059739F56F
:100A7000668123C066812DC00680F781E02D309706
:100A800029F18081843721F18B3229F08D3221F4D4
:100A9000319691E002C0319690E060E0219180EDC6
:100AA000820F8A3040F4660F862F880F880F680FF8
:100AB0006053620FF3CF992361F061950AC066819C
:100AC0007781808591850E94FB6903C060E001C049
:100AD00061E0862F08955CDF21E0892B09F420E096
:100AE000822F08950F931F93CF93DF938C01EB0117
:100AF00067EA74E0CE01EFDF882331F067EA74E043
:100B0000CE01A5DFF80187836BEA74E0CE01E3DF55
:100B1000882329F0CE010E944253F801808760EBC0
:100B200074E0CE01D8DF882331F060EB74E0CE01B1
:100B30008EDFF8018583DF91CF911F910F9108958A
:100B40000F931F93CF93DF93EC018B01CB010E9496
:100B5000804990E099838883C80101960E9480496A
:100B600090E09B838A83C80102960E94804990E0AE
:100B70009D838C83C80103960E9480498E83C8019F
:100B800004960E94804990E098878F83C80105965B
:100B90000E94804990E09A878987C80106960E9442
:100BA000804990E09C878B87DF91CF911F910F91B7
:100BB0000895EF92FF920F931F93CF93DF93CDB7DA
:100BC000DEB7AA970FB6F894DEBF0FBECDBFDC012B
:100BD000FB01309709F4CAC08481833409F0C6C090
:100BE00012962D913C911397828193812817390792
:100BF00099F414968C911497833471F417969C9100
:100C000017978781981308C018969C91189780852C
:100C1000981302C081E0ABC061E070E015969C9132
:100C200015978581981711F060E070E08F017D01C4
:100C30004AE0CE014F960E940D3761E070E0F70167
:100C40009085F8018085981711F060E070E04AE027
:100C5000CE0149960E940D3761E070E0F70197815F
:100C6000F8018781981711F060E070E04AE0CE014A
:100C700043960E940D3761E070E0F7019481F8011E
:100C80008481981711F060E070E04AE0CE010D9683
:100C90000E940D3761E070E0F70122813381F80195
:100CA000828193812817390711F060E070E04AE0F3
:100CB000CE0107960E940D3767EB74E0CE010196D6
:100CC0000E948837BE01695F7F4FCE0101960E9466
:100CD000F92A65E775E00E94E12ABE01635F7F4F54
:100CE0000E94F92A65E775E00E94E12ABE016D5E67
:100CF0007F4F0E94F92A65E775E00E94E12ABE0154
:100D0000675E7F4F0E94F92A65E775E00E94E12A3D
:100D1000BE01615E7F4F0E94F92A6AEC74E00E9476
:100D2000E12ABC01CE0185960E947F37CE018596CF
:100D30000E940130CE0185960E94DC36CE010196DC
:100D40000E94DC36CE0107960E94DC36CE010D965D
:100D50000E94DC36CE0143960E94DC36CE014996D5
:100D60000E94DC36CE014F960E94DC3680E0AA96C7
:100D70000FB6F894DEBF0FBECDBFDF91CF911F91AC
:100D80000F91FF90EF900895EF92FF920F931F93B2
:100D9000CF93DF93CDB7DEB7AA970FB6F894DEBF37
:100DA0000FBECDBFDC01FB01309709F4CAC08481BE
:100DB000823409F0C6C012962D913C91139782811E
:100DC00093812817390799F414968C9114978234DB
:100DD00071F417969C9117978781981308C01896FD
:100DE0009C9118978085981302C081E0ABC061E0A8
:100DF00070E015969C9115978581981711F060E029
:100E000070E08F017D014AE0CE014F960E940D37C0
:100E100061E070E0F7019085F8018085981711F086
:100E200060E070E04AE0CE0149960E940D3761E033
:100E300070E0F7019781F8018781981711F060E061
:100E400070E04AE0CE0143960E940D3761E070E009
:100E5000F7019481F8018481981711F060E070E047
:100E60004AE0CE010D960E940D3761E070E0F70177
:100E700022813381F801828193812817390711F08B
:100E800060E070E04AE0CE0107960E940D376CECFE
:100E900074E0CE0101960E948837BE01695F7F4FE2
:100EA000CE0101960E94F92A65E775E00E94E12AC9
:100EB000BE01635F7F4F0E94F92A65E775E00E94DB
:100EC000E12ABE016D5E7F4F0E94F92A65E775E059
:100ED0000E94E12ABE01675E7F4F0E94F92A65E702
:100EE00075E00E94E12ABE01615E7F4F0E94F92AEF
:100EF0006AEC74E00E94E12ABC01CE0185960E9452
:100F00007F37CE0185960E940130CE0185960E94E2
:100F1000DC36CE0101960E94DC36CE0107960E9497
:100F2000DC36CE010D960E94DC36CE0143960E943F
:100F3000DC36CE0149960E94DC36CE014F960E94E7
:100F4000DC3680E0AA960FB6F894DEBF0FBECDBFA8
:100F5000DF91CF911F910F91FF90EF9008958F92A5
:100F60009F92AF92BF92FF920F931F93CF93DF9305
:100F7000CDB7DEB7A4970FB6F894DEBF0FBECDBFD6
:100F80008C01FC0187810E94E938F82EF801658503
:100F9000861709F4AEC081859285A385B485892B17
:100FA0008A2B8B2B41F40E945340F8016187728792
:100FB000838794879EC04AE0CE0149960E943937C4
:100FC0004AE06F2DCE0143960E9439370E9453406C
:100FD000AB01BC01CE010D960E944252F801418541
:100FE000528563857485CE0107960E9442526DED4D
:100FF00074E0CE0101960E948837BE01695F7F4F81
:10100000CE0101960E94F92A65E775E00E94E12A67
:10101000BE01635F7F4F0E94F92A67EE74E00E9471
:10102000E12ABE016D5E7F4F0E94F92A6CEE74E0EA
:101030000E94E12ABE01675E7F4F0E94F92A6BE39E
:1010400078E00E94E12ABC01CE014F960E947F37D2
:10105000CE014F960E940130CE014F960E94DC36A1
:10106000CE0101960E94DC36CE0107960E94DC3646
:10107000CE010D960E94DC36CE0143960E94DC36EE
:10108000CE0149960E94DC36F80181849284A384C3
:10109000B484F4E68F0E911CA11CB11C0E94534035
:1010A000681579058A059B0520F16EEE74E0CE0186
:1010B00001960E948837CE0101960E940130CE0130
:1010C00001960E94DC3681E0F80190859F1180E056
:1010D000F8018583C8010E94C552F80165818281AB
:1010E00093810E94E554F8011186128613861486B6
:1010F000F586A4960FB6F894DEBF0FBECDBFDF9184
:10110000CF911F910F91FF90BF90AF909F908F90C4
:101110000895FF920F931F93CF93DF93CDB7DEB760
:1011200068970FB6F894DEBF0FBECDBF8C014AE0C2
:10113000FC016781CE010D960E943937F80162816A
:1011400073814AE0CE0107960E94E1366BE075E0BC
:10115000CE0101960E948837BE01695F7F4FCE01A4
:1011600001960E94F92A6EE175E00E94E12ABE0113
:10117000635F7F4F0E94F92ABC01CE0143960E9413
:101180007F37CE0143960E940130CE0143960E94E4
:10119000DC36CE0101960E94DC36CE0107960E9415
:1011A000DC36CE010D960E94DC3660E0F8018781C6
:1011B0000E943F39F8016085FF24F3946F258781F1
:1011C0000E941139F80111861286138614868781D0
:1011D0000E94E938F80185878085F826F582C801E4
:1011E0000E94C55268960FB6F894DEBF0FBECDBF01
:1011F000DF91CF911F910F91FF900895CF92DF92D1
:10120000EF92FF920F931F93CF93DF93CDB7DEB78B
:1012100068970FB6F894DEBF0FBECDBF8C010E9459
:1012200053406B017C01D80117968C910E94E938DC
:10123000F80190854485558566857785981304C1A6
:10124000411551056105710591F5C486D586E6867F
:10125000F786628173814AE0CE0107960E94E136EB
:1012600065E275E0CE0101960E948837BE01695F94
:101270007F4FCE0101960E94F92A65E375E00E9436
:10128000E12ABC01CE010D960E947F37CE010D965A
:101290000E940130CE010D960E94DC36CE010196EF
:1012A0000E94DC36CE0107960E94DC3657C1DB0176
:1012B000CA018053984FAF4FBF4FC816D906EA06F0
:1012C000FB06F0F1F8018285811132C062817381E1
:1012D0004AE0CE0107960E94E13667E375E0CE0151
:1012E00001960E948837BE01695F7F4FCE0101964B
:1012F0000E94F92A65E375E00E94E12ABC01CE0153
:101300000D960E947F37CE010D960E940130CE01CE
:101310000D960E94DC36CE0101960E94DC36CE018D
:1013200007960E94DC3664E070E0C8010E942A56ED
:1013300081E0D8011A968C931A9719961C920EC1C7
:10134000DB01CA0184549D4FAF4FBF4FC816D90669
:10135000EA06FB06C8F1F801818581112DC0628182
:1013600073814AE0CE0107960E94E1366DE375E095
:10137000CE0101960E948837BE01695F7F4FCE0182
:1013800001960E94F92A65E375E00E94E12ABC01FA
:10139000CE010D960E947F37CE010D960E9401303E
:1013A000CE010D960E94DC36CE0101960E94DC36FD
:1013B000CE0107960E94DC36D8011B961C921B9723
:1013C00081E019968C93CAC048585F4F6F4F7F4F8A
:1013D000C416D506E606F70608F4C0C0F8018385F2
:1013E00081112DC0628173814AE0CE0107960E946F
:1013F000E1366CE475E0CE0101960E948837BE01AB
:10140000695F7F4FCE0101960E94F92A65E375E07E
:101410000E94E12ABC01CE010D960E947F37CE01C9
:101420000D960E940130CE010D960E94DC36CE0151
:1014300001960E94DC36CE0107960E94DC3681E0E0
:10144000D8011B968C938AC0411551056105710521
:1014500009F484C0D701C601841B950BA60BB70BFA
:10146000AC01BD01CE010D960E944252D8011296E8
:101470006D917C9113974AE0CE0107960E94E13668
:101480006FE575E0CE0101960E948837BE01695F65
:101490007F4FCE0101960E94F92A68E675E00E940E
:1014A000E12ABE01635F7F4F0E94F92ABC01CE0191
:1014B00043960E947F37CE0143960E940130CE01B1
:1014C00043960E94DC36CE0101960E94DC36CE01A6
:1014D00007960E94DC36CE010D960E94DC36F8019C
:1014E00084859585A685B7858C599F4FAF4FBF4F93
:1014F000C816D906EA06FB0678F467E775E0CE0160
:1015000001960E948837CE0101960E940130CE01DB
:1015100001960E94DC361BC0828581110BC081853B
:10152000882319F062E070E002C061E070E0C80159
:101530000E942A56F801148615861686178611868B
:101540001386128660E070E0C8010E942A56D80116
:101550001C961D921D921D921C921F9768960FB6A5
:10156000F894DEBF0FBECDBFDF91CF911F910F91D9
:10157000FF90EF90DF90CF900895CF92DF92EF929F
:10158000FF920F931F93CF93DF93CDB7DEB72C97C6
:101590000FB6F894DEBF0FBECDBF8C016B017A0190
:1015A00061EA74E0CE0107960E948837C114D10425
:1015B00029F0B601CE0107960E943A2B61E17CE04A
:1015C000CE0107960E940B2BF801628173814AE0DD
:1015D000CE0101960E94E136BE016F5F7F4FCE01C2
:1015E00007960E94A92FCE0101960E94DC3665E97C
:1015F00075E0CE0107960E940B2BF8016481CE01A5
:1016000001960E946637BE016F5F7F4FCE0107963D
:101610000E94A92FCE0101960E94DC366CE975E08C
:10162000CE0107960E940B2BF801678170E04AE01B
:10163000CE0101960E94E136BE016F5F7F4FCE0161
:1016400007960E94A92FCE0101960E94DC3662EA1D
:1016500075E0CE0107960E940B2BF801608570E0C3
:101660004AE0CE0101960E94E136BE016F5F7F4FD6
:10167000CE0107960E94A92FCE0101960E94DC366A
:1016800069EA75E0CE0107960E940B2BF80186816E
:10169000811103C06FE875E002C06AE875E0CE0111
:1016A00007960E940B2B68EB75E0CE0107960E940F
:1016B0000B2BBE01695F7F4FCE0101960E947F37E1
:1016C000BE016F5F7F4FC7010E94AF2FCE01019611
:1016D0000E94DC36CE0107960E94DC362C960FB6AF
:1016E000F894DEBF0FBECDBFDF91CF911F910F9158
:1016F000FF90EF90DF90CF9008952F923F924F92FE
:101700005F926F927F928F929F92AF92BF92CF9291
:10171000DF92EF92FF920F931F93CF93DF93CDB79A
:10172000DEB7CE57D1090FB6F894DEBF0FBECDBFDE
:1017300080E090E00E948049809331134AE0682F56
:10174000CE0181599F4F0E943937809131138A30E1
:1017500018F061EA74E002C06BEB75E06E0125E6FB
:10176000C20ED11CC6010E9488376DEB75E08E0158
:101770000F5F1F4FC8010E948837B601C8010E9441
:10178000F92ABE0161597F4F0E94F92ABC0182E308
:1017900093E10E94502BC8010E94DC36C6010E94D2
:1017A000DC36CE0181599F4F0E94DC364AE06091C1
:1017B0003113C6010E94393764EC75E0C8010E94FC
:1017C0008837B601C8010E94F92ABC01CE018159AF
:1017D0009F4F0E947F37CE0181599F4F0E94013059
:1017E000CE0181599F4F0E94DC36C8010E94DC3631
:1017F000C6010E94DC368091311380933D13909195
:101800004313890F8093431380913013882309F485
:10181000AFC06DEC75E0C8010E948837C8010E9416
:101820000130C8010E94DC3683E594E09A83898305
:101830008091401390914113A0914213B0914313B2
:101840008B839C83AD83BE83C8010E94E039C601AF
:101850000E942426B601CE0181599F4F0E94AB31D0
:101860006BED75E0C8010E948837BE0161597F4F5A
:10187000C8010E94F92ABC01CE018B589F4F0E94DB
:101880007F37CE018B589F4F0E94E52FCE018B589A
:101890009F4F0E94DC36C8010E94DC36CE01815980
:1018A0009F4F0E94DC3669EE75E0C8010E948837C0
:1018B000C8010E940130C8010E94DC3669EF75E062
:1018C000C8010E948837C8010E940130C8010E94E7
:1018D000DC36812C912C5401B501A401C6010E9473
:1018E000B33963E076E0C8010E948837B601C801C9
:1018F0000E94F92ABC01CE0181599F4F0E947F3777
:10190000CE0181599F4F0E940130CE0181599F4FD6
:101910000E94DC36C8010E94DC36C6010E94DC361B
:1019200080913013882321F00E947D32F82E01C06F
:10193000F12C68EE73E080E090E00E947B398FEF3D
:10194000881A980AA80AB80AF11012C036E083165D
:101950009104A104B10409F0BFCF68E079E0C801A7
:101960000E948837C8010E940130C8010E94DC36FD
:10197000109244138FE792E10E94F547811106C04F
:1019800080914413882309F453C048C10E94266300
:101990004B015C01109244138FE792E10E94F547DE
:1019A000882359F1809131131F928F9389E196E03A
:1019B0009F938F931F930F930E94706BC501B40187
:1019C00028EE33E040E050E00E94EE684AE0C601B5
:1019D0000E943937D6016D917C91C8010E9458311F
:1019E000C6010E94DC3681E0809346130F900F9071
:1019F0000F900F900F900F9002C0109246130E940C
:101A000053404B015C0180914413811107C10E9436
:101A10005340DC01CB0188199909AA09BB0980311F
:101A20009742A105B10508F0ABCF0E94B03BEBCFC8
:101A300060E476E0C8010E948837C8010E94013046
:101A4000C8010E94DC3681E090E00E948049482E67
:101A50000E94A33E3C0167E576E0C8010E948837FA
:101A6000C8010E940130C8010E94DC3661E070E0CC
:101A70006114710411F060E070E04AE0C6010E9458
:101A80000D376BE676E0CE0181599F4F0E94883773
:101A9000B601CE0181599F4F0E94F92ABC01C801AD
:101AA0000E947F37C8010E940130C8010E94DC36C5
:101AB000CE0181599F4F0E94DC36C6010E94DC3660
:101AC000812C912C6AE0A62EB12C512C8414950403
:101AD0000CF098C0C50101960E948049F82E4AE09A
:101AE000682FC6010E9439376AE776E0CE01815936
:101AF0009F4F0E948837B601CE0181599F4F0E94A7
:101B0000F92ABC01C8010E947F37C8010E94013038
:101B1000C8010E94DC36CE0181599F4F0E94DC36FD
:101B2000C6010E94DC368F2D0E946F3D7C0100971C
:101B300041F0DC01ED91FC910484F585E02DB501C7
:101B4000199566E876E0C8010E948837C8010E94AE
:101B50000130C8010E94DC36F301F182E08261E0CD
:101B600070E0EF2811F060E070E04AE0C6010E94EA
:101B70000D3763E976E0CE0181599F4F0E94883787
:101B8000B601CE0181599F4F0E94F92ABC01C801BC
:101B90000E947F37C8010E940130C8010E94DC36D4
:101BA000CE0181599F4F0E94DC36C6010E94DC366F
:101BB00062EA76E0C8010E948837C8010E940130BD
:101BC000C8010E94DC36D3018D919C91DC01ED911E
:101BD000FC91008CF18DE02D45E050E06CEA76E060
:101BE0001995F301819191913F01DC01ED91FC91F7
:101BF0000284F385E02D1995A80EB11CBFEF8B1A56
:101C00009B0A64CF68EB76E0C8010E948837C80160
:101C10000E940130C8010E94DC3682C1E091481365
:101C2000EE96EFAFEE97F0914913EF96FFAFEF9777
:101C300040904C1350904D1381E090E00E948049F9
:101C400092013327ED963FAF2EAFED97481619F16D
:101C50004AE0682FC6010E94393769EC76E0CE0170
:101C600081599F4F0E948837B601CE0181599F4FFD
:101C70000E94F92ABC01C8010E947F37C8010E9456
:101C80000130C8010E94DC36CE0181599F4F0E946D
:101C9000DC36C60133C0EE96AFACEE97EF96BFAC24
:101CA000EF9766246394712C5AE0852E912CC30122
:101CB0000197ED96AEADBFADED978A179B070CF07F
:101CC0002FC1C4010E948049282EC40101960E94A0
:101CD0008049312CD501ED91FC912281338122166E
:101CE000330619F49481891761F068ED76E0C80134
:101CF0000E948837C8010E940130C8010E94DC366A
:101D0000F9C40E946F3D7C01FC0133822282019064
:101D1000F081E02D0484F585E02DB4011995D501FD
:101D20006D917C91D701ED91FC910190F081E02DB6
:101D3000C7011995811112C06BEE76E0C8010E94AF
:101D40008837C8010E940130C8010E94DC36E114C6
:101D5000F10409F4CFC43324339415C0D701ED91B5
:101D6000FC910284F385E02DC7011995880E911C22
:101D7000E114F10439F43FEF631A730A82E0A80E0C
:101D8000B11C95CF312CD701ED91FC910688F789D4
:101D9000E02DC7011995332071F3ACC44AE0B401BA
:101DA000C6010E94E1366AEF76E0CE0181599F4F6D
:101DB0000E948837B601CE0181599F4F0E94F92AAF
:101DC000BC01C8010E947F37C8010E940130C801D0
:101DD0000E94DC36CE0181599F4F0E94DC36C6013D
:101DE0000E94DC36D701ED91FC914AE06481C60186
:101DF0000E943937D701ED91FC91628173814AE0ED
:101E0000CE0181599F4F0E94E13661E077E0CE011B
:101E10008B589F4F0E948837BE0161597F4FCE017A
:101E20008B589F4F0E94F92A60E177E00E94E12AD7
:101E3000B6010E94F92ABC01C8010E947F37C8017F
:101E40000E940130C8010E94DC36CE018B589F4FA2
:101E50000E94DC36CE0181599F4F0E94DC36C601BC
:101E60000E94DC36F70180819181DC01ED91FC91CB
:101E70000684F785E02DB401199567E177E0C80184
:101E80000E948837C8010E940130C8010E94DC36D8
:101E9000D701ED91FC9184810E946F3D5C01DC01D2
:101EA000ED91FC910484F585E02DB4011995D501DF
:101EB000ED91FC91008CF18DE02D45E050E06EE25B
:101EC00077E0C5011995A114B10441F0D501ED9158
:101ED000FC910688F789E02DC5011995F7018191DC
:101EE00091917F01DC01ED91FC910284F385E02D5D
:101EF0001995880E911CBFEF6B1A7B0AED96EEAD1B
:101F0000FFADED976E167F060CF448CF642D81E08F
:101F100090E00E94794BB40184E090E00E949849DF
:101F200081E08093441365E477E0C8010E9488371C
:101F3000C8010E940130C8010E94DC36E12CF12C5E
:101F400080914C1390914D13E816F906B4F4C70133
:101F5000880F991FE0914813F0914913E80FF91F7A
:101F600080819181DC01ED91FC910084F185E02D6F
:101F70001995BFEFEB1AFB0AE3CF6CE377E0C801DA
:101F80000E948837C8010E940130C8010E94DC36D7
:101F9000E12CF12C80914C1390914D13E816F90629
:101FA000B4F4C701880F991FE0914813F0914913C9
:101FB000E80FF91F80819181DC01ED91FC9100888F
:101FC000F189E02D1995BFEFEB1AFB0AE3CF609181
:101FD000441370E04AE0C6010E940D3760E577E0E7
:101FE000C8010E948837B601C8010E94F92ABC01C5
:101FF000CE0181599F4F0E947F37CE0181599F4F5B
:102000000E940130CE0181599F4F0E94DC36C801E9
:102010000E94DC36C6010E94DC3660914C13709140
:102020004D134AE0C6010E940D376FE577E0C80105
:102030000E948837B601C8010E94F92ABC01CE016E
:1020400081599F4F0E947F37CE0181599F4F0E9437
:102050000130CE0181599F4F0E94DC36C8010E9499
:10206000DC36C6010E94DC36109245138FE792E100
:102070000E94F547811106C080914513882309F419
:102080005AC01CC10E94266328EE33E040E050E0B5
:102090000E94EE689F938F937F936F938EE697E0F5
:1020A0009F938F93DF92CF920E94706B1092441394
:1020B000109245138FE792E10E94F5470FB6F8940E
:1020C000DEBF0FBECDBF8823D1F0809131131F92A8
:1020D0008F9382E797E09F938F931F930F930E94B4
:1020E000706B81E080934713B601C8010E9458319C
:1020F0000F900F900F900F900F900F9003C081E002
:10210000809347130E9453404B015C01809145131B
:102110008111D4C00E945340DC01CB018819990978
:10212000AA09BB0980319742A105B10508F0A4CFE7
:102130000E94B03BEBCF62E977E0C8010E9488378C
:10214000C8010E940130C8010E94DC3682E090E0A4
:102150000E948049482E0E9410327C0184E090E069
:102160000E9482494C016BEA77E0C8010E948837DF
:10217000C8010E940130C8010E94DC3661E070E0B5
:10218000E114F10411F060E070E04AE0C6010E9441
:102190000D3761EC77E0CE0181599F4F0E9488375F
:1021A000B601CE0181599F4F0E94F92ABC01C80196
:1021B0000E947F37C8010E940130C8010E94DC36AE
:1021C000CE0181599F4F0E94DC36C6010E94DC3649
:1021D000612C712C512C641475040CF063C062EDF9
:1021E00077E0C8010E948837C8010E940130C80109
:1021F0000E94DC368DE090E00E94BD615C01DC0154
:10220000EDE01D92EA95E9F7009719F0B4010E94FC
:10221000A0056EED77E0C8010E948837C8010E94D2
:102220000130C8010E94DC361701D701AD92BC9283
:1022300061E070E0AB2811F060E070E04AE0C601B8
:102240000E940D376DEE77E0CE0181599F4F0E94BD
:102250008837B601CE0181599F4F0E94F92ABC01EF
:10226000C8010E947F37C8010E940130C8010E9446
:10227000DC36CE0181599F4F0E94DC36C6010E9498
:10228000DC36B2E0EB0EF11C6EEF77E0F1018081FD
:1022900091810E94D133F7E08F0E911C2FEF621ACB
:1022A000720A99CF6CE078E0C8010E948837C801B3
:1022B0000E940130C8010E94DC364EC16FE178E017
:1022C000C8010E948837C8010E940130C8010E94DD
:1022D000DC3630914A13EE963FAFEE9720904B13C9
:1022E00060904E1370904F1382E090E00E948049FE
:1022F000F82E6DE378E0C8010E948837C8010E947B
:102300000130C8010E94DC366F1439F14AE06F2DAC
:10231000C6010E94393769EC76E0CE0181599F4FA2
:102320000E948837B601CE0181599F4F0E94F92A39
:10233000BC01C8010E947F37C8010E940130C8015A
:102340000E94DC36CE0181599F4F0E94DC36C601C7
:102350000E94DC363324339481C084E090E00E94F4
:1023600082495C01EE968FADEE97EC968FAFEC97BD
:10237000ED962FAEED97812C912C230155248414DA
:1023800095040CF06AC08DE090E00E94BD617C0174
:10239000B5010E94A0056CE478E0C7010E94D1332A
:1023A000ED96AEADBFADED97ED91FD91ED96BFAF62
:1023B000AEAFED97309709F4B4C1D7012D913C91A0
:1023C0001197808191812817390709F0AAC11696C3
:1023D0009C91169786819813A4C112962D913C91D9
:1023E0001397828193812817390709F09AC11496AF
:1023F0002D913C911597848195812817390709F013
:1024000090C119962D913C911A9781859285281734
:10241000390709F086C117962D913C91189787814D
:1024200090852817390709F07CC11B962D913C91A6
:102430001C97838594852817390709F072C137E006
:10244000A30EB11C312CC7010E945562BFEF8B1A3D
:102450009B0A332009F493CF01C0312C69E578E061
:10246000C8010E948837C8010E940130C8010E943B
:10247000DC36332009F470C084E090E00E94824989
:102480007C014AE0BC01C6010E94E13664E678E0C6
:10249000CE0181599F4F0E948837B601CE018159E4
:1024A0009F4F0E94F92ABC01C8010E947F37C801D2
:1024B0000E940130C8010E94DC36CE0181599F4F35
:1024C0000E94DC36C6010E94DC36EE964FACEE97D9
:1024D000522CA12CB12C43019924A814B904BCF5A9
:1024E000F201C190D1902F01D6016C91C7010E94D9
:1024F000794BF6016281C70101960E94794BD601A2
:1025000014966C91C70102960E94794BF601668180
:10251000C70103960E94794BD60117966C91C701AB
:1025200004960E94794BF6016185C70105960E94C9
:10253000794BD6011B966C91C70106960E94794B88
:10254000B7E0EB0EF11CEFEFAE1ABE0AC6CF662D58
:1025500082E090E00E94794B6DE778E0C8010E942C
:102560008837C8010E940130C8010E94DC3681E032
:10257000809345136AE878E0C8010E948837C80153
:102580000E940130C8010E94DC366CE978E0C80185
:102590000E948837C8010E940130C8010E94DC36C1
:1025A0008FE792E10E94F547882309F47EC06CEA28
:1025B00078E0C8010E948837C8010E940130C80134
:1025C0000E94DC36E12CF12C80914C1390914D133C
:1025D000E816F9066CF48FE792E10E94F54788232C
:1025E00019F0C7010E94B130FFEFEF1AFF0AECCFDC
:1025F00062E370E080E090E00E947B39E12CF12CF6
:10260000BB24B39480914C1390914D13E816F906B6
:10261000A4F50E94B03B6701CC0CDD1CE09148138F
:10262000F0914913EC0DFD1D0190F081E02D8681A4
:10263000811111C08FE792E10E94F547882319F0BC
:10264000C7010E94B13062E370E080E090E00E9438
:102650007B390E94B03B8091481390914913FC0153
:10266000EC0DFD1D0190F081E02D8681811101C0EE
:10267000B12C2FEFE21AF20AC5CFB1100BC061ECFA
:1026800078E0C8010E948837C8010E941D30C80147
:102690000E94DC366FED78E0C8010E948837C801DF
:1026A0000E940130C8010E94DC3660EF78E0C8016A
:1026B0000E948837C8010E940130C8010E94DC36A0
:1026C000C258DF4F0FB6F894DEBF0FBECDBFDF910B
:1026D000CF911F910F91FF90EF90DF90CF90BF901F
:1026E000AF909F908F907F906F905F904F903F90B2
:1026F0002F9008956BE279E0C8010E948837C801E5
:102700000E940130C8010E94DC36EE96EFACEE97D5
:10271000EF96FFACEF97612C712C8AE0882E912CFC
:10272000EDCB6BEE76E0C8010E948837C8010E94AD
:102730000130C8010E94DC363324339484CE0F93D9
:102740001F93CF93DF938C01EB01FC016281CE01DB
:102750000E94794BF8016481CE0101960E94794B69
:10276000F8016781CE010296DF91CF911F910F9101
:102770000C94794B0F931F93CF93DF938C01EB0154
:10278000FC016281CE010E94794BF8016481CE0187
:1027900001960E94794BF8016781CE0102960E9452
:1027A000794BF8016085CE010396DF91CF911F919F
:1027B0000F910C94794B0F931F93CF93DF93EC0100
:1027C0008B01CB010E94804990E09B838A83C801E2
:1027D00001960E9480498C83C80102960E9480491C
:1027E0008F83DF91CF911F910F9108950F931F93C6
:1027F000CF93DF93EC018B01CB010E94804990E0E5
:102800009B838A83C80101960E9480498C83C801FA
:1028100002960E9480498F83C80103960E948049D6
:1028200091E0811101C090E09887DF91CF911F91D5
:102830000F9108951F93CF93DF93EC01162F6D83B3
:102840000E94C552612F8A819B81DF91CF911F9198
:102850000C94E5540C9455620F931F93CF93DF9320
:102860008C01EB0167EA74E0CE010E946B058823BE
:1028700039F067EA74E0CE010E942705F8018783EA
:102880006BEA74E0CE010E946B05882329F0CE012B
:102890000E944253F8018087DF91CF911F910F91E1
:1028A000089508956F927F928F929F92AF92BF92F8
:1028B000CF92DF92EF92FF920F931F93CF93DF930C
:1028C000CDB7DEB761970FB6F894DEBF0FBECDBFB0
:1028D0006C0161E479E0CE0101960E948837CE0157
:1028E00001960E940130CE0101960E94DC368EE0F6
:1028F00090E00E94BD617C01D60117961C9160E0BA
:10290000812F0E943F39812F90E0FC01EA55FD4F55
:10291000E491D701EC93FC01E451FD4FE491F0E028
:10292000EE0FFF1FEE5EFD4F85919491F7019283AC
:1029300081831386158614865701FBE0AF0EB11C08
:10294000470183E0880E911CF50112928E169F06B6
:10295000E1F7D6011996FC92EE92189783E190E088
:102960000E94BD618C0189E096E4F801928B818B15
:10297000F682E5821482108289E0818381E082837D
:102980008383D6011D961C930E931C97F50112921A
:102990005F01E815F905D1F788248394D8011596CD
:1029A000ED90FC901697F701858581116BC0C701EA
:1029B0000E94194781110AC0D7011B961C921B97D0
:1029C0001D961C921D971C961C92E7C040E060EF7C
:1029D000C7010E944E26AA24A394712C612CBB240B
:1029E000B394C7010E949F26982EC7010E949F267C
:1029F000B1E09B1203C08130C9F438C0272D30E00C
:102A000098121EC0F7018385B81630F4E20FF31F49
:102A100083818A2159F402C08B1541F0912CF8E092
:102A2000FB1568F0D7011C96BC9209C0F701E70DB1
:102A3000F11D83818A2983839924939409C06B2C87
:102A4000F701E20FF31F93818A2D809589238383F9
:102A5000692DC7010E94EA46B394AA0C19F4739435
:102A6000AA24A394B7E0B71508F0BBCFE0E4EB15B8
:102A700048F4D7011B966C921B97611008C01D96F5
:102A80008C9205C0F70113861586148686C0D7017F
:102A900013968C918823B1F3B7016D5F7F4FDE01F0
:102AA0001A969701255F3F4FCD01FA2EBB2EFB01F1
:102AB0004191BF01FC014193CF0162177307B9F740
:102AC00088E0E0E0815039F09D91E927F0E0EE5C8C
:102AD000FC4FE491F7CF89898E1360CFD8018C9198
:102AE000811126C015968D919C9116970E941947C9
:102AF0006F2D7B2DF801858196810E94822640E012
:102B000064EBD80115968D919C9116970E944E26E4
:102B1000F801858196810E949F26E82ED80115969E
:102B20008D919C9116970E941947EE2009F453C08D
:102B3000F801858196810E941947882341F0AE01F2
:102B40004F5F5F4F6F2D7B2DC8010E945047D8010A
:102B50001196EC908A85803109F440C06F2D7B2D51
:102B6000C8010E94C8478E1518F4F80181810AC077
:102B70008A85803111F48CE005C06F2D7B2DC80152
:102B80000E94C847D80111968C93119714968C9186
:102B900014978F5F14968C9301CFC6010E94C55283
:102BA000F6016581828193810E94E55461960FB69A
:102BB000F894DEBF0FBECDBFDF91CF911F910F9173
:102BC000FF90EF90DF90CF90BF90AF909F908F904D
:102BD0007F906F900895D8018C92AACFBCE0BE156B
:102BE00020F2C9CFCF92DF92EF92FF920F931F9303
:102BF000CF93DF93CDB7DEB7C858D1090FB6F8949D
:102C0000DEBF0FBECDBF7C018B016A01BC01CE01CE
:102C100083589F4F0E948837B8018E010F5F1F4F66
:102C2000C8010E948837960140E050E0B801CE010B
:102C30008D579F4F0E94662BC8010E94DC3662E6CA
:102C40007BE0CE018B599F4F0E948837BE016358AD
:102C50007F4FCE018B599F4F0E94F92A6DE479E096
:102C60000E94E12ABE016D577F4F0E94F92A6AEC4B
:102C700074E00E94E12ABC01C8010E947F37C801AC
:102C80000E940130C8010E94DC36CE018B599F4F53
:102C90000E94DC36809131131F928F9380E599E07A
:102CA0009F938F931F930F930E94706BB801C7017E
:102CB0000E94526B0F900F900F900F900F900F90FB
:102CC000892B99F480914613882309F4BFC1BE0172
:102CD0006D577F4FCE018B599F4F0E947F37CE019A
:102CE0008B599F4F0E94C3262AC0809131131F9297
:102CF0008F9380E799E09F938F931F930F930E9488
:102D0000706BB801C7010E94526B0F900F900F902B
:102D10000F900F900F90892BC1F480914713882357
:102D200009F494C1BE016D577F4FCE018B599F4F5F
:102D30000E947F37CE018B599F4F0E94F02DCE010C
:102D40008B599F4F0E94DC3681C169E879E0CE0142
:102D50008B599F4F0E948837BE016B597F4FCE0120
:102D600083589F4F0E94C926F82ECE018B599F4F42
:102D70000E94DC36FF2011F16BE979E0CE018B591E
:102D80009F4F0E948837CE018B599F4F0E94013080
:102D9000CE018B599F4F0E94DC36BE016D577F4F8D
:102DA000CE018F589F4F0E947F37CF57DF4F28812A
:102DB0003981C158D04043E150E0A6C069EA79E0CA
:102DC000CE018B599F4F0E948837BE016B597F4FB0
:102DD000CE0183589F4F0E94C926F82ECE018B59F1
:102DE0009F4F0E94DC36F1103FC06AEB79E0CE01C4
:102DF0008B599F4F0E948837BE016B597F4FCE0180
:102E000083589F4F0E94C926F82ECE018B599F4FA1
:102E10000E94DC36FF2089F0BE016D577F4FCE0146
:102E20008F589F4F0E947F37CF57DF4F28813981BE
:102E3000C158D04047E150E067C060ED79E0CE0175
:102E40008B599F4F0E948837BE016B597F4FCE012F
:102E500083589F4F0E94C926F82ECE018B599F4F51
:102E60000E94DC36FF2089F0BE016D577F4FCE01F6
:102E70008F589F4F0E947F37CF57DF4F288139816E
:102E8000C158D04042E150E03FC061EE79E0CE0150
:102E90008B599F4F0E948837BE016B597F4FCE01DF
:102EA00083589F4F0E94C926F82ECE018B599F4F01
:102EB0000E94DC36F11018C066EF79E0CE018B5924
:102EC0009F4F0E948837BE016B597F4FCE018358B8
:102ED0009F4F0E94C926F82ECE018B599F4F0E940A
:102EE000DC36FF2009F443C0BE016D577F4FCE0191
:102EF0008F589F4F0E947F37CF57DF4F28813981EE
:102F0000C158D04046E150E0BE0163587F4FCE012A
:102F100089589F4F0E94662BBE016F587F4FCE018C
:102F200085599F4F0E947F37BE0169587F4FCE0160
:102F30008B599F4F0E947F37BE0165597F4FCE014D
:102F40008B599F4F0E943856CE018B599F4F0E943C
:102F5000DC36CE0185599F4F0E94DC36CE01895860
:102F60009F4F0E94DC36CE018F589F4FEBCE6BE017
:102F70007AE0CE018B599F4F0E948837BE016B5972
:102F80007F4FCE0183589F4F0E94C926F82ECE0155
:102F90008B599F4F0E94DC36FF2009F457C0809167
:102FA00031131F928F938BE09AE09F938F931F931F
:102FB0000F930E94706B6DE17AE0CE018B599F4FA9
:102FC0000E948837CE018B599F4F0E940130CE015D
:102FD0008B599F4F0E94DC36B801CE018B599F4F11
:102FE0000E948837BE016B597F4FCE0183589F4F97
:102FF0000E94C9260F900F900F900F900F900F9086
:103000008823D9F0C957DF4F88819981C758D040AC
:10301000892B99F0CD57DF4FE881F981C358D04013
:103020008081882351F0309721F41092A20FE2EAB8
:10303000FFE011E0808180330CF410E0CE018B5969
:103040009F4F0E94DC3611110E94863BCE018D57A6
:103050009F4F0E94DC36CE0183589F4F0E94DC3682
:10306000C857DF4F0FB6F894DEBF0FBECDBFDF915C
:10307000CF911F910F91FF90EF90DF90CF90089527
:103080004115510509F0AECD0895EF92FF920F93CF
:103090001F93CF93DF93CDB7DEB76E970FB6F8943B
:1030A000DEBF0FBECDBFDC01FB01309709F488C045
:1030B0008481813309F084C012964D915C911397FD
:1030C0002281338117969C91179787814217530766
:1030D00049F414962C911497213321F4981302C0CB
:1030E00081E06FC061E070E0981711F060E070E07F
:1030F0008F017D014AE0CE0143960E940D3761E0C9
:1031000070E0F7019481F8018481981711F060E074
:1031100070E04AE0CE010D960E940D3761E070E04C
:10312000F70122813381F8018281938128173907C1
:1031300011F060E070E04AE0CE0107960E940D3782
:1031400063E27AE0CE0101960E948837BE01695F92
:103150007F4FCE0101960E94F92A65E775E00E9433
:10316000E12ABE01635F7F4F0E94F92A65E775E09F
:103170000E94E12ABE016D5E7F4F0E94F92A6AEC2F
:1031800074E00E94E12ABC01CE0149960E947F377B
:10319000CE0149960E940130CE0149960E94DC364C
:1031A000CE0101960E94DC36CE0107960E94DC36E5
:1031B000CE010D960E94DC36CE0143960E94DC368D
:1031C00080E06E960FB6F894DEBF0FBECDBFDF91E4
:1031D000CF911F910F91FF90EF900895CF92DF92C2
:1031E000EF92FF920F931F93CF93DF93CDB7DEB78C
:1031F0002C970FB6F894DEBF0FBECDBF8C016B01CC
:103200007A0161EA74E0CE0107960E948837C11402
:10321000D10429F0B601CE0107960E943A2B61E154
:103220007CE0CE0107960E940B2BF801628173812E
:103230004AE0CE0101960E94E136BE016F5F7F4FEA
:10324000CE0107960E94A92FCE0101960E94DC367E
:1032500065E975E0CE0107960E940B2BF8016481A9
:10326000CE0101960E946637BE016F5F7F4FCE018F
:1032700007960E94A92FCE0101960E94DC366CE9C8
:1032800075E0CE0107960E940B2BF801678170E074
:103290004AE0CE0101960E94E136BE016F5F7F4F8A
:1032A000CE0107960E94A92FCE0101960E94DC361E
:1032B00062EA75E0CE0107960E940B2BF80160854B
:1032C00070E04AE0CE0101960E94E136BE016F5FD8
:1032D0007F4FCE0107960E94A92FCE0101960E9432
:1032E000DC3669EA75E0CE0107960E940B2BF801E7
:1032F0008681811103C06FE875E002C06AE875E05D
:10330000CE0107960E940B2B68EB75E0CE01079665
:103310000E940B2BBE01695F7F4FCE0101960E9478
:103320007F37BE016F5F7F4FC7010E94AF2FCE0175
:1033300001960E94DC36CE0107960E94DC362C9660
:103340000FB6F894DEBF0FBECDBFDF91CF911F91B6
:103350000F91FF90EF90DF90CF900895FF920F9321
:103360001F93CF93DF936115710549F462EA74E00E
:10337000DF91CF911F910F91FF900C94AE588B016C
:10338000EC0162E2CE010E948A58F80161918F013E
:10339000662351F0E3E9F4E0F080FF2099F38181A6
:1033A000681759F03296F8CF62E2CE01DF91CF91E3
:1033B0001F910F91FF900C948A586CE5CE010E94EA
:1033C0008A586F2DDFCF2F923F924F925F926F926C
:1033D0007F928F929F92AF92BF92CF92DF92EF92A5
:1033E000FF920F931F93CF93DF93CDB7DEB769970B
:1033F0000FB6F894DEBF0FBECDBFDC01ED91FC919E
:1034000011973197E830F10508F03FC28B017C013C
:103410008827EE58FF4F8F4F0C943E6AFD01C28003
:10342000D380E480F580A7019601C701B6010E9410
:103430008E67882319F067E37AE0B2C020E030E0BD
:10344000A901C701B6010E948E6787FF08C06DE21F
:10345000C8010E948A58F7FAF094F7F8F09420E037
:1034600030E0A901C701B6010E948E67882309F4E4
:103470009BC0A7019601C701B6010E942A69A70156
:1034800096010E948E6781118FC06EE37AE088C03A
:103490001296ED90FC9013976BE5C8010E948A5834
:1034A000F701E280F380E114F10479F0B801C7017B
:1034B000029689DFD701ED90FC90E114F10429F028
:1034C0006CE2C8010E948A58EECF6DE528C0FD016C
:1034D000E280F3806BE7C8010E948A58D7011296F8
:1034E000ED90FC901397E114F104C1F0F7016281B3
:1034F0007381C80133DF6AE3C8010E948A58B801AA
:10350000C701049660DFD701ED90FC90E114F1044F
:1035100029F06CE2C8010E948A58E5CF6DE7C80126
:103520000E948A58B2C1FD0162817381C80116DF11
:10353000ACC112966D917C91139732C06DE2C801B7
:103540000E948A58F70162817381848195811E8A65
:103550007E01F6E1EF0EF11C3AE0832E912CA12CB6
:10356000B12CA50194010E94CC68605DD7016E93D7
:103570007D01B901CA01611571058105910589F7C0
:10358000BD010EC0FD0182819381A481B581892B8B
:103590008A2B8B2B19F46FE875E002C06AE875E09E
:1035A000C8010E94AE5871C120E836E948E15BE4E9
:1035B000C701B6010E94276A87FF34C1F0E26F2E6F
:1035C000712CA5E09A2E212C312C20E030E0A901AD
:1035D000C701B6010E94276A181694F52CEA35EC4B
:1035E00047E257E3C701B6010E948E67181644F1FF
:1035F0008FEF981629F1992DA4E09A025001112419
:10360000F501EE5EFD4FA701960160817181828117
:1036100093810E94276A18167CF4F501EE5BFD4F3A
:103620002081318142815381C701B6010E94F36735
:103630006B017C0126183708759467949A94D8CF4B
:10364000C701B6010E94FB694B015C010E949267B1
:103650009B01AC01C701B6010E94296920E034E258
:1036600044E759E40E94F3672B013C010E94FB6987
:103670006B017C010E9492679B01AC01C301B20106
:103680000E9429699B01AC010E942A690E94FB6982
:10369000C60ED71EE81EF91EB0E4CB16B2E4DB0658
:1036A000BFE0EB06F104C8F0EFEF8E1A9E0AAE0AF7
:1036B000BE0A2114310471F0FAE08F169104A104BE
:1036C000B10478F12FEF221A320A812C912C540187
:1036D000839427C0C12CD12C76012401350186E0CA
:1036E0008F8B9F89998FA92FA150AF8BBAE04B1672
:1036F000510461047104D0F0C701B6012AE030E042
:1037000040E050E00E94CC6869017A01C301B20137
:103710002AE030E040E050E00E94CC6829013A0104
:10372000E0CFC12CD12C7601F6E0F98F6AE0462E6D
:10373000512C612C712CC701B601A30192010E948A
:10374000CC68672B682B692B41F4E98D1E162CF48D
:1037500069017A01E150E98FEECF1E8ACE014696CB
:10376000988F8F8B5AE0452E512C612C712CC501FE
:10377000B401A30192010E94CC68605DAF89B88D4D
:103780006E93B88FAF8B49015A0181149104A10443
:10379000B10469F7BD01C8010E94AE58B98DBB23C1
:1037A00049F1188ABF8B5E01E0E1AE0EB11C450104
:1037B0004AE0442E512C612C712CFF89F150FF8B73
:1037C000FF3F69F0C701B601A30192010E94CC68D6
:1037D000605DD5016E935D0169017A01EECFB401A0
:1037E000B98D6B1B71098EE2FB018293BF01C80189
:1037F0000E94AE5837FE0AC06BE37AE0C8010E940F
:10380000AE58662777276219730908C0211431045E
:10381000E1F165E6C8010E948A58B101C8010E9421
:10382000D35833C08AE5882E82E0982E9AE2A92EDA
:1038300092E0B92E20E2622E712C212C312CA701AE
:103840009601D4019E918E917E916E914D010E94C0
:103850008E6718166CF0F5012489358946895789D9
:10386000C701B6010E94F3676B017C01260C371C6F
:1038700075946794F4E0AF1AB10822E4821622E04E
:103880009206E9F699249A94A0CE69960FB6F89418
:10389000DEBF0FBECDBFDF91CF911F910F91FF9083
:1038A000EF90DF90CF90BF90AF909F908F907F90E0
:1038B0006F905F904F903F902F9008950F931F93BC
:1038C000CF93DF938C01EB0167EA74E0CE010E9495
:1038D0006B05882339F067EA74E0CE010E94270562
:1038E000F8018783DF91CF911F910F9108950C9478
:1038F00055620895CF92DF92EF92FF920F931F933C
:10390000CF93DF93CDB7DEB72E970FB6F894DEBF17
:103910000FBECDBF6C018B0167EA74E0C8010E9445
:103920006B05882339F067EA74E0C8010E94270517
:10393000F601878367E47AE0C8010E946B0588235B
:1039400009F44CC067E47AE0C8010E94C8040097FB
:10395000A1F18C010C5F1F4FC8010E941604009753
:1039600011F0BC012CC061EA74E0CE0101967C012B
:103970000E948837FE86ED86CE010D9698878F834C
:103980001A861986BE01695F7F4FC8011CDD8981D7
:103990009A8198878F838B819C819A8789878D8173
:1039A0009E819C878B871A8219821C821B821E82B1
:1039B0001D82C7010E94DC3606C061EA74E0CE01B8
:1039C00007960E948837BE01695F7F4FC60108963F
:1039D0000E94AA2BCE0107960E94DC362E960FB6C7
:1039E000F894DEBF0FBECDBFDF91CF911F910F9135
:1039F000FF90EF90DF90CF900895CF92DF92EF92FB
:103A0000FF920F931F93CF93DF93CDB7DEB76297EB
:103A10000FB6F894DEBF0FBECDBF8C01DC0153960C
:103A2000CD90DD90ED90FC905697B0EDCB0EB7E0C9
:103A3000DB1EE11CF11C0E945340C616D706E806A7
:103A4000F90608F071C0F8014389548965897689BF
:103A5000CE0107960E9442526FE47AE0CE010D96A5
:103A60000E948837BE01695F7F4FCE010D960E948C
:103A7000F92ABC01CE0101960E947F37CE01019642
:103A80000E940130CE0101960E94DC36CE010D96D7
:103A90000E94DC36CE0107960E94DC36D801519692
:103AA000ED91FC915297E484F584F701858196812C
:103AB0000E94194740E06CECD70115968D919C91BE
:103AC00016970E944E26F701408164E48581968115
:103AD0000E944E26D70112968C9112978823A9F046
:103AE0001196EC91E950E33040F4F0E0EE0FFF1F47
:103AF000E45FFD4F6081718102C06EEE72E0072EBF
:103B0000000C880B990B0E947B39D801ED91FC9138
:103B1000048CF58DE02DC80119950E945340F801E1
:103B2000638B748B858B968B62960FB6F894DEBF91
:103B30000FBECDBFDF91CF911F910F91FF90EF90FE
:103B4000DF90CF900895CF92DF92EF92FF920F9384
:103B50001F93CF93DF93CDB7DEB72C970FB6F894B2
:103B6000DEBF0FBECDBF8C017B016A0161EA74E04C
:103B7000CE0107960E948837E114F10429F0B701BD
:103B8000CE0107960E943A2B61E17CE0CE010796B8
:103B90000E940B2BF8016281738140E1CE010196F6
:103BA0000E94E136BE016F5F7F4FCE0107960E94F3
:103BB000A92FCE0101960E94DC3665E975E0CE01A1
:103BC00007960E940B2B40E1F8016481CE0101961B
:103BD0000E943937BE016F5F7F4FCE0107960E946A
:103BE000A92FCE0101960E94DC366CE975E0CE016A
:103BF00007960E940B2B4AE0F8016781CE010196DF
:103C00000E943937BE016F5F7F4FCE0107960E9439
:103C1000A92FCE0101960E94DC366AE57AE0CE013A
:103C200007960E940B2B7801F8E0EF0EF11C005F65
:103C30001F4FF70161917F0140E1CE0101960E9483
:103C40003937BE016F5F7F4FCE0107960E94A92FC3
:103C5000CE0101960E94DC36E016F10651F764E6CB
:103C60007AE0CE0107960E940B2BBE01695F7F4F61
:103C7000CE0101960E947F37BE016F5F7F4FC60164
:103C80000E94AF2FCE0101960E94DC36CE0107962E
:103C90000E94DC362C960FB6F894DEBF0FBECDBF67
:103CA000DF91CF911F910F91FF90EF90DF90CF9018
:103CB0000895CF93DF93CDB7DEB762970FB6F89430
:103CC000DEBF0FBECDBFFB0162817381DC011396A5
:103CD0007C936E931297248114962C9314972481CD
:103CE000243579F49F01285F3F4F1896AF01405F5C
:103CF0005F4FF90181919F018D93E417F507C9F793
:103D000027C04AE0CE0107960E94E13668E67AE0D5
:103D1000CE0101960E948837BE01695F7F4FCE01B8
:103D200001960E94F92ABC01CE010D960E947F37B0
:103D3000CE010D960E941D30CE010D960E94DC36FC
:103D4000CE0101960E94DC36CE0107960E94DC3639
:103D500062960FB6F894DEBF0FBECDBFDF91CF9154
:103D60000895CF92DF92EF92FF920F931F93CF931C
:103D7000DF93CDB7DEB765970FB6F894DEBF0FBE01
:103D8000CDBF7C0166E87AE0CE0101960E948837BB
:103D9000CE0101960E940130CE0101960E94DC36D0
:103DA0004AE0D70117966C91CE010A960E943937E6
:103DB00060E275E0CE0101960E948837BE01665F21
:103DC0007F4FCE0101960E94F92ABC01CE01409698
:103DD0000E947F37CE0140960E940130CE0140966E
:103DE0000E94DC36CE0101960E94DC36CE010A9696
:103DF0000E94DC36F7012781A0914813B091491346
:103E0000109799F040914C1350914D1380E090E041
:103E10008417950754F4ED91FD913481313319F4F1
:103E20003781231721F00196F3CFE0E0F0E0D701CE
:103E30005296FC93EE935197309761F512966D91DF
:103E40007C9113974AE0CE010A960E94E1366BE915
:103E50007AE0CE0101960E948837BE01665F7F4FEF
:103E6000CE0101960E94F92ABC01CE0140960E9423
:103E70007F37CE0140960E941D30CE0140960E94B1
:103E8000DC36CE0101960E94DC36CE010A960E94F5
:103E9000DC36B0C06701B8E0CB0ED11CAE014F5F7D
:103EA0005F4FB601848595850E949C47811132C081
:103EB000F701628173814AE0CE010A960E94E136E1
:103EC00065EB7AE0CE0101960E948837BE01665FFD
:103ED0007F4FCE0101960E94F92A6BEB7AE00E9497
:103EE000E12ABC01CE0140960E947F37CE01409668
:103EF0000E941D30CE0140960E94DC36CE01019614
:103F00000E94DC36CE010A960E94DC36D70150961C
:103F10001C9270C081E0F701808B0188F289E02D4E
:103F200004851585AE014F5F5F4FB601C8010E9441
:103F30009C47882309F45EC0D70118968C91803184
:103F400009F458C08FE18D83F801858196810E9424
:103F50001947B601D80115968D919C911697D2D626
:103F600040E06EE4F8018581968198D640E06B814F
:103F7000D80115968D919C91169790D640E06C8152
:103F8000F801858196818AD6D70118968C91803167
:103F900031F040E06D81F801858196817FD6D801AE
:103FA00015968D919C9116970E941947B601F801BC
:103FB00085819681A7D6D8014C9168E415968D919C
:103FC0009C9116976BD664E170E080E090E00E94CF
:103FD0007B39F8018081882331F06AE070E080E06D
:103FE00090E00E947B39D80115968D919C9116978F
:103FF0000E941947F701138A148A158A168A659652
:104000000FB6F894DEBF0FBECDBFDF91CF911F91E9
:104010000F91FF90EF90DF90CF900895CF92DF92B5
:10402000EF92FF920F931F93CF93DF93CDB7DEB73D
:104030002C970FB6F894DEBF0FBECDBF8C016B017D
:104040007A0161EA74E0CE0107960E948837C114B4
:10405000D10429F0B601CE0107960E943A2B61E106
:104060007CE0CE0107960E940B2BF80162817381E0
:104070004AE0CE0101960E94E136BE016F5F7F4F9C
:10408000CE0107960E94A92FCE0101960E94DC3630
:1040900065E975E0CE0107960E940B2BF80164815B
:1040A000CE0101960E946637BE016F5F7F4FCE0141
:1040B00007960E94A92FCE0101960E94DC366CE97A
:1040C00075E0CE0107960E940B2BF801678170E026
:1040D0004AE0CE0101960E94E136BE016F5F7F4F3C
:1040E000CE0107960E94A92FCE0101960E94DC36D0
:1040F00069EA75E0CE0107960E940B2BF8018681D4
:10410000811103C06FE875E002C06AE875E0CE0176
:1041100007960E940B2B68EB75E0CE0107960E9474
:104120000B2BBE01695F7F4FCE0101960E947F3746
:10413000BE016F5F7F4FC7010E94AF2FCE01019676
:104140000E94DC36CE0107960E94DC362C960FB614
:10415000F894DEBF0FBECDBFDF91CF911F910F91BD
:10416000FF90EF90DF90CF900895CF93DF931F9251
:10417000CDB7DEB76983DC01ED91FC910280F3815C
:10418000E02D41E050E0BE016F5F7F4F19950F9029
:10419000DF91CF910895FC01818D928D0895FC01EE
:1041A0009485FB018485981303C081E0983008F062
:1041B00080E00895CF93DF931F92CDB7DEB7698378
:1041C000DC01ED91FC910280F381E02D41E050E0B3
:1041D000BE016F5F7F4F19950F90DF91CF910895CA
:1041E000FC01848595850895FC018489958908954D
:1041F00023E534E0FC0131832083FB0140895189B0
:1042000062897389FC0142835383648375830895B3
:10421000DC01ED91FC91048CF58DE02D199480E08A
:104220000895FC01808D883040F4218D328D232B40
:1042300021F00E945C4290E008958FEF9FEF089577
:10424000CF93DF93FC012485283018F08FEF9FEF88
:104250000EC0EC010190F081E02D0084F185E02D8D
:104260001995892B99F38C850E945C4290E0DF912F
:10427000CF910895CF93DF93FC01218D328D2115CD
:10428000310519F48FEF9FEF11C0EC01421753076E
:1042900008F0A901888D0E941B451816190694F78D
:1042A000298D3A8D281B390B3A8F298FDF91CF91B9
:1042B00008950F931F93CF93DF931F92CDB7DEB76F
:1042C000FC01218D328D232B61F08C0141E050E007
:1042D000BE016F5F7F4F808D0E941B451816190627
:1042E0001CF08FEF9FEF08C0F801818D928D019730
:1042F000928F818F898190E00F90DF91CF911F91F4
:104300000F910895CF93DF931F92CDB7DEB741E0B1
:1043100050E0BE016F5F7F4FFC0184850E941B450A
:10432000181619061CF4898190E002C08FEF9FEFE8
:104330000F90DF91CF910895FC018485883010F4AF
:104340000C941B4580E090E00895FC018485883042
:1043500010F40C94884280E090E008950F931F932E
:10436000CF93DF93CDB7DEB728970FB6F894DEBFB3
:104370000FBECDBF8C01D80159964D915C915A97D3
:104380004115510551F0ED91FC91048CF58DE02D16
:1043900060E070E0C8011995EECFF801808D0E94B1
:1043A0008842892B51F148E050E0BE016F5F7F4F9A
:1043B000D80158968C910E941B4518161906FCF4DA
:1043C000D801509684E0FE01319601900D928A95B5
:1043D000E1F78D8190E0982F88272E81820F911D23
:1043E000F801958B848B8F8190E0982F8827288502
:1043F000820F911D928F818F02C080E090E02896FD
:104400000FB6F894DEBF0FBECDBFDF91CF911F91E5
:104410000F910895AF92BF92CF92DF92EF92FF92E9
:104420000F931F93CF93DF93CDB7DEB7AF970FB640
:10443000F894DEBF0FBECDBF8C015B016A01CE01D7
:1044400001961BD783E5E82E84E0F82EFBA6EAA6AA
:104450001CA61DA61EA61FA680917512909176120D
:10446000A0917712B09178128EA39FA3A8A7B9A7A5
:104470008B839C83AD83BE8318861F82AE01465D0D
:104480005F4FB501CE010196B8D481309105B1F4EA
:10449000D801ED91FC910488F589E02DFDA2ECA2F4
:1044A0008CA59DA5AEA5BFA58EA39FA3A8A7B9A7C0
:1044B000A601BE016C5D7F4FC8011995AF960FB67E
:1044C000F894DEBF0FBECDBFDF91CF911F910F914A
:1044D000FF90EF90DF90CF90BF90AF900895CF9373
:1044E000DF93FC01808D883028F4EF010E94DA43CD
:1044F00088E0888FDF91CF9108950F931F93CF931A
:10450000DF93EC018B01888D883010F40E94DA4330
:10451000B80182E00E943644888F883030F41D87CD
:104520000C871A8E198E81E001C080E0DF91CF9157
:104530001F910F910895CF93DF93EC018C85883004
:10454000C8F40E94EB45843181F0882371F08831F2
:1045500061F08C3161F4E881F9810084F185E02D0E
:10456000CE01199521E0892B19F420E001C021E04A
:10457000822F01C080E0DF91CF910895CF92DF922A
:10458000EF92FF92CF93DF93EC018C85883038F562
:104590000E94BE430E9453406B017C018C850E94A7
:1045A000EB458823D1F061E070E080E090E00E946C
:1045B0007B390E945340AB01BC014C195D096E0967
:1045C0007F098D859E85A0E0B0E0481759076A07EE
:1045D0007B0720F38C850E94DA4388E08C87DF918B
:1045E000CF91FF90EF90DF90CF900895CF92DF9220
:1045F000EF92FF920F931F93CF93DF93CDB7DEB768
:10460000AF970FB6F894DEBF0FBECDBF8C016B0124
:104610007A01CE01019631D683E594E09BA78AA763
:104620001CA61DA61EA61FA6D8011C968C9188301C
:1046300060F40E94EB45882321F0F80184850E94F4
:10464000BE4388E0D8011C968C938091751290919E
:104650007612A0917712B09178128EA39FA3A8A78B
:10466000B9A78B839C83AD83BE8318861F82AE015E
:10467000465D5F4FB601CE010196BFD30097C1F0F2
:10468000D801ED91FC910684F785E02D83E594E057
:104690009DA38CA38CA59DA5AEA5BFA58EA39FA30E
:1046A000A8A7B9A7A701BE016C5D7F4FC8011995E6
:1046B000AF960FB6F894DEBF0FBECDBFDF91CF919E
:1046C0001F910F91FF90EF90DF90CF900895CF93BF
:1046D000DF93EC018C85883060F40E94EB458731D4
:1046E00011F08C3131F48C850E94ED448115984095
:1046F00088F3DF91CF910895FC018485883010F410
:104700000C94ED4480E090E00895DA019091F80F68
:10471000E92FF0E0FE2FEE27E60FF71F90E0982F2D
:104720008827A901BD018E0F9F1F0C94B3400895E7
:104730008CBD9DBD08957F928F929F92AF92BF9244
:10474000CF92DF92EF92FF920F931F93CF93DF935D
:104750001F921F92CDB7DEB77C014B01742EC52E80
:10476000FC01A688B788D08CCE0101960E94C52E88
:1047700089819A81DDDF8D2D0E941F42072D1C2D1E
:104780008017910708F48C019801A401B5018D2DC3
:104790000E94CF42F70186899789800F911F978BDE
:1047A000868BC8010F900F90DF91CF911F910F91D1
:1047B000FF90EF90DF90CF90BF90AF909F908F9041
:1047C0007F9008951F93CF93DF931F921F92CDB7D1
:1047D000DEB7FC01108DCE0101960E94C52E8981A5
:1047E0009A81A6DF60E270E0812F0E94B04362E010
:1047F00070E0812F0E94934384FD17C062E070E057
:10480000812F0E94934383FF08C048E162E070E07B
:10481000812F0E94764380E00FC0CE0101960E9456
:10482000C52E89819A8184DFE2CF40E162E070E0A9
:10483000812F0E94764381E090E00F900F90DF91EE
:10484000CF911F910895DF92EF92FF920F931F93E4
:10485000CF93DF931F921F92CDB7DEB7FB01DC0130
:1048600057961C921E9256972281211109C02381CE
:10487000211106C02481211103C025812223F1F0DA
:1048800041155105D9F07A018F01FC01D08CCE0180
:1048900001960E94C52E89819A814ADFA8014E5F48
:1048A0005F4F24E030E06CE070E08D2D0E94BE424E
:1048B000B7018D2D0E944C4381E001C080E090E063
:1048C0000F900F90DF91CF911F910F91FF90EF907C
:1048D000DF9008950F931F93CF93DF931F921F9242
:1048E000CDB7DEB7FC0124852830C0F48C01CE01A1
:1048F00001960E94C52E89819A811ADF22E030E05C
:10490000AE014F5F5F4F60E170E0F8018485FDDE2E
:1049100089819A8198278927982702C080E090E0B2
:104920000F900F90DF91CF911F910F910895EF920B
:10493000FF920F931F93CF93DF9300D01F92CDB7B9
:10494000DEB78C017B01FB018485883050F083E564
:1049500094E0F8019183808312821382148215827D
:104960001EC0CE0101960E94C52E89819A81E0DE8B
:1049700024E030E0AE014F5F5F4F6CE070E0F70184
:104980008485C3DE83E594E0F80191838083898187
:104990009A81AB81BC8182839383A483B583C80150
:1049A0000F900F900F900F90DF91CF911F910F916B
:1049B000FF90EF9008950F931F93CF93DF931F9273
:1049C0001F92CDB7DEB7FC0124852830C0F48C01DE
:1049D000CE0101960E94C52E89819A81A9DE22E02E
:1049E00030E0AE014F5F5F4F64E070E0F801848516
:1049F0008CDE89819A8198278927982702C080E0D8
:104A000090E00F900F90DF91CF911F910F9108953B
:104A10006F927F928F929F92AF92BF92CF92DF92CE
:104A2000EF92FF921F93CF93DF931F921F92CDB708
:104A3000DEB7FC011485183008F05EC06A01413011
:104A4000F8E05F0718F0C12C28E0D22E7A013B0174
:104A50005C01CE0101960E94C52E89819A8168DE93
:104A6000812F0E941F424C0163E070E0812F0E9461
:104A70009343873111F08C3121F48C149D0448F359
:104A800002C0C12CD12CCE0101960E94C52E898175
:104A90009A814EDE9601A30160E070E0812F0E94B2
:104AA000CF4260E270E0812F0E94B04362E070E08C
:104AB000812F0E94934384FD15C063E070E0812F35
:104AC0000E949343811106C081E090E0F501938339
:104AD000828312C0CE0101960E94C52E89819A81DF
:104AE00027DEE4CF40E162E070E0812F0E94764350
:104AF000CD2851F3C70102C080E090E00F900F90E5
:104B0000DF91CF911F91FF90EF90DF90CF90BF90FA
:104B1000AF909F908F907F906F900895AF92BF92CB
:104B2000CF92DF92EF92FF920F931F93CF93DF9379
:104B30001F921F92CDB7DEB78C016B015A01FC01A9
:104B40008485883058F40E94EB45882321F0F801D1
:104B500084850E94BE4388E0F8018487F601828143
:104B60009381A481B5810097A105B10509F45AC0CC
:104B70008F3F9F4FAF4FBF4F09F454C060E070E0CC
:104B800081E20E943644F82EF8018487F7E0F81796
:104B900008F448C0CE0101960E94C52E89819A81F1
:104BA000C7DDA6014E5F5F4F24E030E06CE070E0AF
:104BB0008F2D0E94BE42B5018F2D0E944C4364E0B0
:104BC00070E08F2D0E94B0430E9453406B017C0126
:104BD000F80184850E94EB45873139F18C3129F148
:104BE000882301F10E945340AB01BC014C195D09BF
:104BF0006E097F09F80185859685A0E0B0E08417ED
:104C00009507A607B70738F061E070E080E090E014
:104C10000E947B39DDCFF80184850E94DA4388E069
:104C2000F801848780E090E002C081E090E00F907E
:104C30000F90DF91CF911F910F91FF90EF90DF9038
:104C4000CF90BF90AF9008950F931F93CF93DF93B2
:104C50001F921F92CDB7DEB78C0183E594E0F80177
:104C6000918380831282138214821582CE01019671
:104C70000E94C52E89819A815BDDB8016E5F7F4FEE
:104C800044E050E08FE090E00E94B340C8010F90F4
:104C90000F90DF91CF911F910F910895DF92EF92C6
:104CA000FF920F931F93CF93DF93EC01D62EE42E48
:104CB00008E010E0FF24F39461E08D2D8F2109F4CA
:104CC00060E0CE010E94EA46FF0C01501109A1F7F5
:104CD000E11010C0F894E981FA8191818881809572
:104CE00089238183E981FA81928188818095892352
:104CF00082837894DF91CF911F910F91FF90EF9075
:104D0000DF900895EF92FF920F931F93CF93DF935D
:104D10008C017B0140E065E5C1DFE70188E0E80E3A
:104D2000F11C699140E0C801B9DFCE15DF05C9F774
:104D3000DF91CF911F910F91FF90EF900895FC01AB
:104D400090810180F281E02DF8948181892B81830B
:104D50002281892F809528232283A7E0B0E0119734
:104D6000F1F7218182238183A3E2B0E01197F1F76B
:104D700080817894EFECF0E03197F1F7982381E0AF
:104D800009F480E008952091461321110C94BE5639
:104D90000895FB0144815581FC012481358124174C
:104DA000350778F080819181009759F0FB0160818F
:104DB00071816115710529F00E94626B21E0892BD8
:104DC00009F020E0822F08951F93CF93DF93EC0129
:104DD000162F6885111102C081E068278F810E941B
:104DE00011391D83CE010E94C552612F8A819B819A
:104DF000DF91CF911F910C94E5544F925F926F9287
:104E00007F928F929F92AF92BF92CF92DF92EF925A
:104E1000FF920F931F93CF93DF93CDB7DEB76397C6
:104E20000FB6F894DEBF0FBECDBF7C015B013A0127
:104E3000FB0120E080E090E06AE03191332309F14A
:104E400040ED430F4A3080F4689FA001699F500DE8
:104E50001124CA01C097830F911D37FD9A958F3F8A
:104E6000910559F350F313C03E3289F4233079F0A1
:104E7000D301A20FB11D12968C932F5F80E090E0BA
:104E8000DCCF233021F4F301858381E020C0F701DA
:104E9000428153816481758180917B1290917C1253
:104EA000A0917D12B0917E12481759076A077B07BF
:104EB00009F479C10E9453408701085F1F4F6F704A
:104EC00077277C5FC80119DB813019F080E090E022
:104ED000BDC183E594E09A838983F7018281938140
:104EE000A481B5818B839C83AD83BE8345E350E071
:104EF000BE016F5F7F4FC801A6DC892B19F4C12C5E
:104F0000D12C4DC10E945340F7017783668342E064
:104F100050E0B7016A5F7F4FC8010DDC81E090E08F
:104F20009A83898342E050E0BE016F5F7F4FC801E2
:104F300002DC80E091E09A83898342E050E0BE0188
:104F40006F5F7F4FC801F7DB1A82198242E050E0A1
:104F5000BE016F5F7F4FC801EEDB42E050E0BE0153
:104F60006F5F7F4FC801E7DB42E050E0BE016F5F3B
:104F70007F4FC801E0DB4501F50180818823F1F016
:104F800064015601F60181912F01882321F08E32B0
:104F900011F06201F6CFC818D9081C141D0464F47E
:104FA000CD8641E050E0BE01635F7F4FC801C3DBA7
:104FB000A601B401C801BFDB4201DECF1D8641E07E
:104FC00050E0BE01635F7F4FC801B5DBC12CDD241B
:104FD000D394DA82C98242E050E0BE016F5F7F4F16
:104FE000C801A9DBDA82C98242E050E0BE016F5FEE
:104FF0007F4FC801A0DBC801E5DB892B09F47FCF17
:10500000E3E0AE2EB12C230122E0420E511C0E949F
:1050100053403B014C01C801A1D918161906A4F050
:105020000E945340DC01CB0186199709A809B909F0
:1050300089389341A105B105D0F462E370E080E0C6
:1050400090E00E947B39E7CFF70142815381648170
:105050007581808D918DA28DB38D481759076A0790
:105060007B0749F4848D958DC59729F409C0CC241C
:10507000CA94DC2C8BC05EEFC52EDD24DA9486C08A
:10508000F70181A192A10C970CF4DBC04CE050E039
:10509000BE016F5F7F4FC801EDD88B819C8198273F
:1050A000892798279A8B898BF70146815781298117
:1050B0003A814217530709F0B5C097FFB3C08F700C
:1050C0009270892B09F0B3C06F80788476246724AE
:1050D00076246114710409F4AFC0C12CD12C8D81E8
:1050E0009E81982789279827C816D90608F45EC09C
:1050F000812C912C41E050E0BE016D5E7F4FC801D4
:10510000B9D84B89842F807C09F06CC0442329F0E6
:1051100050E060E070E0C801ADD88B898111EACF22
:1051200042E050E0BE01615F7F4FC801A3D842E07A
:1051300050E0BE01635F7F4FC8019CD844E050E05F
:1051400060E070E0C80196D842E050E0BE016F5EBA
:105150007F4FC8018FD88F85988949895A898115D1
:10516000914009F047C0CD84DE84DC24CD24DC24CA
:1051700081E0C816D10409F03DC04115544009F042
:105180004CC044E050E0B201C80174D821E0A21A3A
:10519000B10829F0FFEFCF16DF0609F438CFC801B8
:1051A0009ED9C60153C08EEF9FEF50C041E050E042
:1051B000BE01635F7F4FC8015DD84D85442329F050
:1051C00050E060E070E0C80155D88D858111EECFC8
:1051D00044E050E060E070E0C8014CD8FFEFCF1A27
:1051E000DF0A7DCF41E050E060E070E0C80142D8C6
:1051F0001B8A93CF54274527542760E070E0C801ED
:1052000039D8FFEF8F1A9F0A6814790409F072CF1A
:1052100096EFC92EDD24DA94B9CF77EFC72EDD24BF
:10522000DA94B4CF4CEFC42EDD24DA94AFCF3BEF49
:10523000C32EDD24DA94AACF2AEFC22EDD24DA941D
:10524000A5CF8DEFC82EDD24DA94A0CF63960FB6DC
:10525000F894DEBF0FBECDBFDF91CF911F910F91AC
:10526000FF90EF90DF90CF90BF90AF909F908F9086
:105270007F906F905F904F900895FC0183E594E0DC
:105280009183808312821382148215821386128680
:1052900048EE53E060E070E0448755876687778783
:1052A00024E632E031872087978B868B108E118E13
:1052B000128E138E88E080A308958F929F92AF92F2
:1052C000BF92CF92DF92EF92FF920F931F93CF93F3
:1052D000DF93CDB7DEB760970FB6F894DEBF0FBE91
:1052E000CDBF7C019091F70F992309F4B3C093339C
:1052F00011F008E001C004E05B01CE01019645D544
:1053000089819A8115DA9E012F5F3F4F690149011A
:1053100010E063E070E0812F0E949343F4018193D9
:105320004F018823C1F01F5F0113F3CF10E0F60196
:1053300081916F018D3151F0883141F08A51823075
:1053400028F01F5F0113F3CFF2D984C060E170E051
:10535000812F0E94B043C12ED12C83EE93E00197A0
:10536000F1F742E860E070E0812F0E9476434FEF52
:1053700062E070E0812F0E947643A114B10411F025
:10538000B50113C080910002909101020196811530
:10539000F0EC9F0710F480E090EC90930102809372
:1053A00000026091000270910102812F0E9461430E
:1053B00086E0EAE5F2E0DE01199601900D928A9509
:1053C000E1F7F70183818F778C8784818D878581D1
:1053D0008E87A7014E5F5F4F24E030E06CE070E005
:1053E000812F0E94BE42B501812F0E944C4326E0CE
:1053F00030E0AE01475F5F4F66E070E0812F0E94B2
:10540000BE4261E070E0812F0E94B04327E02C9DF6
:10541000C0012D9D900D11249C012D55304F790117
:10542000F9011182108222E030E0AE01415F5F4F4E
:1054300068E270E0812F69D98F859889982789273C
:105440009827F701938382831682158214826FD97D
:10545000812F01C088E060960FB6F894DEBF0FBEC2
:10546000CDBFDF91CF911F910F91FF90EF90DF9013
:10547000CF90BF90AF909F908F900895FC01A0892E
:10548000B1898C91A689B78982FD0FC09C91818DCD
:105490008F5F8F73228D821749F0218DDF01A20F5C
:1054A000B11D5D969C93818F08958C9108958F9284
:1054B0009F92AF92BF92EF92FF920F931F93CF9361
:1054C000DF93CDB7DEB7A1970FB6F894DEBF0FBE5E
:1054D000CDBF7C01FA01CB0119A2223008F42AE0E9
:1054E0008E010F5D1F4F822E912CA12CB12CBF017C
:1054F000A50194010E94CC68F901CA01015011096B
:105500006A3014F4605D01C0695CD8016C93232B90
:10551000242B252B61F70115110591F0F80101905D
:105520000020E9F73197AF01401B510BD701ED91F6
:10553000FC910280F381E02DB801C701199502C0EA
:1055400080E090E0A1960FB6F894DEBF0FBECDBF0D
:10555000DF91CF911F910F91FF90EF90BF90AF908F
:105560009F908F900895EF92FF920F931F93CF9388
:10557000DF936115710511F480E01CC041155105E0
:10558000C1F07B01EC018C819D818A01080F191FFC
:10559000B801CE010E94A336882371F32881398196
:1055A0008C819D81B701820F931F0E945B6B1D83CD
:1055B0000C8381E0DF91CF911F910F91FF90EF90CD
:1055C0000895CF93DF93EC016115710559F0FB014C
:1055D00001900020E9F73197AF01461B570BC3DF5D
:1055E000811103C0CE010E94CA36CE01DF91CF9156
:1055F0000895CF93DF93EC01FB01448155816081D5
:105600007181B1DF811103C0CE010E94CA36CE0183
:10561000DF91CF9108956115710549F0FB0101906B
:105620000020E9F73197AF01461B570B9CCF80E074
:105630000895EF92FF920F931F93CF93DF93EC01A6
:105640007B018A01BA010E94A336811104C0CE01F8
:105650000E94CA3607C01D830C83B70188819981D7
:105660000E945B6BCE01DF91CF911F910F91FF9054
:10567000EF900895CF93DF93EC016115710551F020
:10568000FB0101900020E9F73197AF01461B570B52
:10569000D0DF02C00E94CA36CE01DF91CF910895BB
:1056A000CF93DF93EC01FB018617970759F06081D8
:1056B00071816115710521F044815581BADF02C005
:1056C0000E94CA36CE01DF91CF910895BF92CF924A
:1056D000DF92EF92FF920F931F93CF93DF937C01A2
:1056E0006B018A01E9012417350720F4812F890114
:1056F000C42FD82F61EA74E0C7010E948837D60111
:1057000014968D919C91159708171907C0F48C1762
:105710009D0708F4EC01D601ED91FC911197EC0F77
:10572000FD1FB08010826D917C91600F711FC701C9
:10573000A1DFD601ED91FC91EC0FFD1FB082C701F6
:10574000DF91CF911F910F91FF90EF90DF90CF905D
:10575000BF900895AF92BF92DF92EF92FF920F93A6
:105760001F93CF93DF9300D000D0CDB7DEB75B019E
:105770007C0100E010E00E5F1F4FA801425051096C
:105780009801B501CE010196A1DF40E150E060E053
:1057900070E089819A810E947A63D62ECE010196AB
:1057A0000E94DC36F701D1927F010031110519F713
:1057B00026960FB6F894DEBF0FBECDBFDF91CF9116
:1057C0001F910F91FF90EF90DF90BF90AF900895E1
:1057D000EF92FF920F931F93CF93DF93CDB7DEB776
:1057E000C55FD1090FB6F894DEBF0FBECDBF9E01D5
:1057F000275F3F4F3C832B8328EC30E03E832D8393
:1058000018861F822FE534E03A832983FC018081CA
:105810009181009711F481EA94E09E012F5F3F4F40
:10582000CF52DF4F39832883C15DD040CD52DF4F47
:1058300099838883C35DD040CB52DF4F398328835F
:10584000C55DD0408AE0C952DF4F8883C75DD04034
:10585000C252DF4F19821882CE5DD040BE01625223
:105860007F4FCE018F529F4F0E94515386E0FE0121
:10587000E252FF4FDE01A852BF4F01900D928A9570
:10588000E1F786E0FE01E852FF4FDE01A252BF4F72
:1058900001900D928A95E1F786E0FE01E252FF4FFA
:1058A000DE01AF52BF4F01900D928A95E1F7CF52C2
:1058B000DF4F88819981C15DD040079739F4CD527F
:1058C000DF4F08811981C35DD04003C00E943A04B4
:1058D0008C0161ED7AE0C8010E946B05882309F410
:1058E00049C061ED7AE0C8010E94C804009721F028
:1058F00004960E945C0402C080E090E04AE0BC0193
:10590000CE0186519F4F0E940D3768ED7AE0CE019F
:105910008C519F4F0E948837BE0166517F4FCE0148
:105920008C519F4F66DEBC01CE0180519F4F0E947B
:105930007F37CE0180519F4F64D3CE0180519F4F5E
:105940000E94DC36CE018C519F4F0E94DC36CE0186
:1059500086519F4F0E94DC3661ED7AE0C8010E94BB
:10596000270510925B1310925A135AD581E0809349
:10597000EB0F28C18091EB0F882309F423C160EE5F
:105980007AE0C8010E946B05882309F41BC18DE0F1
:1059900090E00E94BD612DE0FC0111922A95E9F78B
:1059A00020915A1330915B13220F331FE0914A1359
:1059B000F0914B13E20FF31F9183808380914A1380
:1059C00090914B13FC01E20FF31F80819181892B91
:1059D00009F4D5C060EE7AE0C8010E946B05882307
:1059E000B1F0E0915A13F0915B13EE0FFF1F80911D
:1059F0004A1390914B13E80FF91FE080F18060EE9D
:105A00007AE0C8010E94CA04F7019183808363EEA3
:105A10007AE0C8010E946B058823B1F0E0915A1327
:105A2000F0915B13EE0FFF1F80914A1390914B137F
:105A3000E80FF91FE080F18063EE7AE0C8010E9470
:105A4000CA04F701938382836CEE7AE0C8010E9456
:105A50006B058823D9F0E0915A13F0915B13EE0F98
:105A6000FF1F80914A1390914B13E80FF91FE080BC
:105A7000F1806CEE7AE0C8010E941F05FC01808174
:105A8000082E000C990BF7019583848367EF7AE069
:105A9000C8010E946B058823A9F0E0915A13F09188
:105AA0005B13EE0FFF1F80914A1390914B13E80F89
:105AB000F91FE080F18067EF7AE0C8010E942705B6
:105AC000F70186836DEF7AE0C8010E946B05882399
:105AD000B1F0E0915A13F0915B13EE0FFF1F80912C
