:100000000C944B040C947C040C947C040C947C04A1
:100010000C947C040C947C040C947C040C947C0460
:100020000C947C040C949D500C949D500C949D5009
:100030000C947C040C947C040C947C040C947C0440
:100040000C947C040C947C040C947C040C947C0430
:100050000C947C040C947C040C947C040C945350FD
:100060000C947C040C9429500C94FF4F0C947C0449
:100070000C947C040C947C040C947C040C947C0400
:100080000C947C040C947C040C947C040C947C04F0
:100090000C94D54F0C94AB4F0C947C040C947C04C2
:1000A0000C947C040C947C040C947C040C947C04D0
:1000B0000C947C040C947C040C947C040C947C04C0
:1000C0000C947C040C947C040C947C040C94814F60
:1000D0000C94574F0C947C040C942D4F0C94034FAC
:1000E0000C947C040C94CE2A0C94200F0C9407469C
:1000F0000C9406070C94A80F0C94104D0C948A389D
:100100000C94270B0C94310F0C9419110C94D036CD
:100110000C941B110C94AA0F0C94A3040C94FD06D0
:100120000C949B1D0C9415110C94260F0C94182301
:100130000C94580D0C949D120C94D7050C94880BBC
:100140000C942C070C94951D0C9410070C94800BA8
:100150000C94BA340C9412280C9417110C94195165
:100160000C942E390C945C4B0C94DD220C945A0F99
:100170000C943E170C94EC2A0C94E2370C94122A3F
:100180000C94E5050C9485100C94D5280C947A34C5
:100190000C945B100C94D7170C94A60F0C945C1065
:1001A0000C94AE0D0C9418440C9454330C94931D81
:1001B0000C94B4050C94FD4B0C9413390C94782FCB
:1001C0000C94B3380C943C450C94A70F0C94AA26BD
:1001D0000C9474510C943C100C9451380C943007CE
:1001E0000C9489150C9484450C94682B0C94C305CD
:1001F0000C94ED2E0C94C5160C94ED120C94305109
:100200000C94F5060C9459360C94F9060C94320FA4
:100210000C9408340C941A110C94AD370C94771A82
:100220000C9413110C945B430C948E150C9488065B
:100230000C94CB120C9415380C94A04B0C94BA2748
:100240000C94490B0C94F7440C941E070C94EB0689
:100250000C94840B0C94874D0C94434D0C942B07F9
:100260000C9477510C9418070C947E100C946E0526
:100270000C9467450C94991D0C9422070C942A3712
:100280000C94AB0F0C94710F0C94D8270C94DE389F
:100290000C94AF290C940A0E0C947F150C947B15CA
:1002A0000C947B0D0C94F6220C9433510C94CF27B4
:1002B0000C94CE290C9482360C943B060C94110BB2
:1002C0000C94F1060C9449430C9452390C94581038
:1002D0000C9400070C94960D0C9430380C94B55186
:1002E0000C94911D0C9411110C94932B0C940844B4
:1002F0000C94980B0C94B2510C940F110C94512344
:100300000C94320B0C941F0F0C9486370C9492258E
:100310000C94BE2B0C94740F0C94971D0C943F05F9
:100320000C94230F0C94A1250C943B100C942607DD
:100330000C94220E0C94A2330C947A2E0C94484503
:100340000C9439100C948B150C940A070C94140718
:100350000C94F8290C94F34C00407A10F35A00A046
:10036000724E18090010A5D4E80000E8764817007E
:1003700000E40B54020000CA9A3B000000E1F505BE
:10038000000080969800000040420F000000A08608
:1003900001000000102700000000E803000000003A
:1003A0006400000000000A000000000001000000DE
:1003B00000002C76D888DC674F0823DFC1DFAE59F8
:1003C000E1B1B796E5E3E453C63AE651997696E88B
:1003D000E6C28426EB898C9B62ED407C6FFCEFBC0F
:1003E0009C9F40F2BAA56FA5F490055A2AF75C933A
:1003F0006B6CF9676DC11BFCE0E40D47FEF520E670
:10040000B500D0ED902E0300943577050080841E52
:10041000080000204E0A000000C80C333333330FAD
:10042000986E12831141EF8D2114893BE65516CF4A
:10043000FEE6DB18D1844B381BF77C1D901DA4BB56
:10044000E424203284725E228100C9F124ECA1E50B
:100450003D272040003B7375627363726970746955
:100460006F6E3A003B6C684F6E3A003B50696E3AD3
:10047000003B547970653A0049643A002040003BE3
:10048000737562736372697074696F6E3A003B6C66
:10049000684F6E3A003B50696E3A003B5479706584
:1004A0003A0049643A0023005D3A005B00204000B6
:1004B0003B737562736372697074696F6E3A003B67
:1004C00050696E3A003B547970653A0049643A00CD
:1004D00020697320616273656E74206F6E2074688A
:1004E000652062757300556E69743A0043616E272A
:1004F000742066696E642062757320666F72207561
:100500006E69743A200042616420636F6E76657292
:1005100073696F6E207479706520666F7220756ED6
:1005200069742000204020003B50696E3A003B5423
:100530007970653A0049643A00CDCCCC3D0AD723A6
:100540003C17B7D13877CC2B329595E6241FB14FA5
:100550000A0000803FCDCCCC3D6F12833A95BFD6C8
:10056000337D1D9026B3CE010C000020410000C851
:100570004200401C4620BCBE4CCA1B0E5AAEC59D54
:100580007420497320756E617661696C61626C6577
:10059000206F6E207468652062757300556E6974F3
:1005A0003A200054656D70206973206661696C653E
:1005B000643A20002040003B737562736372697077
:1005C00074696F6E3A003B466163746F723A003B28
:1005D00053657269616C54583A003B5365726961A6
:1005E0006C52583A003B53657269616C3A003B5457
:1005F0007970653A0049643A002040003B737562A7
:10060000736372697074696F6E3A003B73746174DE
:1006100075733A003B6C684F6E3A003B50696E3A16
:10062000003B547970653A0049643A002040003B31
:10063000737562736372697074696F6E3A003B73AD
:1006400074617475733A003B547970653A0049647B
:100650003A00005EBCE2613FDD83C29C7E20A3FDC8
:100660001F41009D23BE46DB65F88C11AF32CA578F
:10067000E974000020002300260029002C002F0030
:1006800032000001000003010601090100000A0B0D
:1006900002090C0D0E080703040100000000000011
:1006A000000000000000000000000000000000004A
:1006B0000000000000000000121110000000000007
:1006C000000000000000000000000000000000002A
:1006D0000000495020416464726573732069733A65
:1006E00000426F617264204964233A004E756D6266
:1006F0006572206F6620636F6E66696720556E694C
:1007000074733D00204020003B746172676574542F
:100710007970653A003B74617267657449643A00A8
:100720003B746172676574416374696F6E3A003B34
:100730006F726967696E547970653A003B6F7269D0
:1007400067696E49643A003B6576656E743A0049A4
:10075000643A002E204F726967696E206E6F7420B4
:10076000666F756E6400416374696F6E3A002E2087
:10077000546172676574206E6F7420666F756E6465
:1007800000416374696F6E3A004D71747420636F39
:100790006E6E65637420617474656D70743D0000E5
:1007A000002200250028002B002E0031003400021A
:1007B000010000050108010B0100002100240027B1
:1007C000002A002D00300033000101000004010761
:1007D000010A0101021020200808102040102040CA
:1007E00080020102010804020101020408102040F5
:1007F0008080402010080402018004020180402013
:10080000100804020108040201010204081020403B
:100810008001020408102040800505050507050831
:10082000080808020202020A0A0808040404040173
:100830000101010101010103030303030303030495
:100840000707070C0C0C0C0C0C0C0C020202020625
:10085000060606060606060B0B0B0B0B0B0B0B43D3
:10086000616E2774206372656174652061207479FC
:1008700070656420756E69743A005D005075626C35
:100880006973683A5B005D005375627363726962F5
:1008900065205B00B55111241FBECFEFD1E2DEBF52
:1008A000CDBF00E00CBF16E0A0E0B2E0E8ECF7EC52
:1008B00000E00BBF02C007900D92A639B107D9F72F
:1008C0002BE0A6E9B6E001C01D92AD3BB207E1F70F
:1008D00014E0CBE4D4E000E006C021970109802FAA
:1008E000FE010E94CA5FCA34D10780E00807A9F759
:1008F0000E941A540C94E2630C940000CF93DF938F
:10090000EC01FA013296E60FF71FDC019D012C1B6A
:100910003D0BCF01861B970B4D91442311F0419362
:10092000F5CFAC01421B530B640F751FFB013297CF
:10093000308361507109FB012083DF91CF910895CD
:100940008CBD9DBD089508950F931F93CF93DF93A2
:1009500000D000D01F92CDB7DEB78C01FB01342F41
:10096000498342814A8393819B8324812C8385819F
:100970008D831E82430F5527551F490F511D240F8C
:10098000352F311D820F932F911D8F83D8018D91AB
:100990009C91DC01ED91FC910084F185E02D19958D
:1009A000F801A081B181ED91FC911197892B31F073
:1009B0000284F385E02DCD011995E8CF0280F38103
:1009C000E02D47E050E0BE016F5F7F4FCD011995EC
:1009D00027960FB6F894DEBF0FBECDBFDF91CF9143
:1009E0001F910F910895E0916C0BF0916D0B309772
:1009F000A9F04091700B5091710B30E020E024176A
:100A0000350764F4A191B19112966D917C91139781
:100A10006817790729F02F5F3F4FF1CFB0E0A0E0D2
:100A2000CD010895CF93DF93EB010E94F30400976B
:100A300071F021E0DC0116962C931697ED91FC9154
:100A40000288F389E02DBE01DF91CF911994DF91E7
:100A5000CF910895FC01E60FF71F2081022E000CB4
:100A6000330B205331094AE0429FC001439F900D50
:100A700011242181820F911D27FD9A950895FC0173
:100A8000818D928D0895DC01ED91FC910190F081B2
:100A9000E02D1994EF92FF920F931F93CF93DF9362
:100AA0008C017B01D0E0C0E0F701EC0FFD1F6491E9
:100AB000662361F0D801ED91FC910190F081E02D69
:100AC000C8011995892B11F02196EECFCE01DF9147
:100AD000CF911F910F91FF90EF900895AF92BF9229
:100AE000CF92DF92EF92FF920F931F93CF93DF93FA
:100AF0006C017B018B01040F151FEB015E01AE1829
:100B0000BF08C017D10759F06991D601ED91FC914A
:100B10000190F081E02DC6011995892B79F7C50167
:100B2000DF91CF911F910F91FF90EF90DF90CF90C9
:100B3000BF90AF900895FC01A089B1898C91A689DE
:100B4000B78982FD0FC09C91818D8F5F8F73228D3D
:100B5000821749F0A18DAE0FBF2FB11D5D969C93FA
:100B6000818F08958C910895FC01538D448D252F1C
:100B700030E0842F90E0821B930B541710F0CF9637
:100B8000089501970895FC01918D828D981761F069
:100B9000A28DAE0FBF2FB11D5D968C91928D9F5F80
:100BA0009F73928F90E008958FEF9FEF0895FC015F
:100BB000918D828D981731F0828DE80FF11D858D12
:100BC00090E008958FEF9FEF0895FC01918D228DA5
:100BD000892F90E0805C9F4F821B91098F7399272A
:100BE000089582E397E00E94E50521E0892B09F44E
:100BF00020E0822F08958FEC97E00E94E50521E028
:100C0000892B09F420E0822F08958CE698E00E9459
:100C1000E50521E0892B09F420E0822F089589E081
:100C200099E00E94E50521E0892B09F420E0822F5C
:100C30000895FC01A48DA80FB92FB11DA35ABF4F71
:100C40002C91848D90E001968F739927848FA689CB
:100C5000B7892C93A089B1898C91837080648C931F
:100C6000938D848D981306C00288F389E02D8081CE
:100C70008F7D80830895EF92FF920F931F93CF9300
:100C8000DF93EC0181E0888F9B8D8C8D98131AC0C7
:100C9000E889F989808185FF15C09FB7F894EE89AE
:100CA000FF896083E889F98980818370806480830B
:100CB0009FBF81E090E0DF91CF911F910F91FF9056
:100CC000EF900895F62E0B8D10E00F5F1F4F0F73FE
:100CD0001127E02E8C8D8E110CC00FB607FCFACFB9
:100CE000E889F989808185FFF5CFCE010E94190638
:100CF000F1CFEB8DEC0FFD2FF11DE35AFF4FF0828A
:100D00009FB7F8940B8FEA89FB8980818062CFCFEF
:100D1000CF93DF93EC01888D8823B9F0AA89BB8932
:100D2000E889F9898C9185FD03C0808186FD0DC01D
:100D30000FB607FCF7CF8C9185FFF2CF808185FF3E
:100D4000EDCFCE010E941906E9CFDF91CF91089532
:100D500080E090E0892B29F00E940F0681110E940B
:100D6000000080E090E0892B29F00E9405068111A7
:100D70000E94000080E090E0892B29F00E94FB0592
:100D800081110E94000080E090E0892B29F00E94F0
:100D9000F10581110C94000008958150823108F012
:100DA0005AC0E82FF0E08827E752F94F8F4F0C9494
:100DB000CA5FF906FD06EB06F106F5062B070007EC
:100DC00006070A071007140718071E0722072B0734
:100DD00026072C073007809180008F778093800052
:100DE0000895809180008F7DF9CF80918000877F6A
:100DF000F5CF84B58F7784BD089584B58F7DFBCF03
:100E00008091B0008F778093B00008958091B000FA
:100E10008F7DF9CF809190008F7780939000089517
:100E2000809190008F7DF9CF80919000877FF5CFE2
:100E30008091A0008F778093A00008958091A000FA
:100E40008F7DF9CF8091A000877FF5CF8091200121
:100E50008F77809320010895809120018F7DF9CFB5
:100E600080912001877FF5CFCF93DF93282F30E04B
:100E7000F901E457F94F8491F901ED52F84FD491FB
:100E8000F901E75EF74FC491CC23A1F081110E94D4
:100E9000CD06EC2FF0E0EE0FFF1FEE58F94FA591B5
:100EA000B491EC91ED2381E090E009F480E0DF91D2
:100EB000CF91089580E090E0FACF1F93CF93DF9316
:100EC000282F30E0F901E457F94F8491F901ED52F0
:100ED000F84FD491F901E75EF74FC491CC23A9F004
:100EE000162F81110E94CD06EC2FF0E0EE0FFF1FB0
:100EF000E156F84FA591B4918FB7F894EC91111188
:100F000008C0D095DE23DC938FBFDF91CF911F9176
:100F10000895DE2BF8CFCF93DF9390E0FC01ED52E4
:100F2000F84F2491875E974FFC0184918823D1F07C
:100F300090E0880F991FFC01E754F84FA591B491F8
:100F4000FC01E156F84FC591D49161110EC09FB7D5
:100F5000F8948C91E22FE0958E238C932881E223E4
:100F6000E8839FBFDF91CF9108958FB7F894EC91FC
:100F7000E22BEC938FBFF6CF3FB7F8948091E10658
:100F80009091E206A091E306B091E40626B5A89BF5
:100F900005C02F3F19F00196A11DB11D3FBFBA2F0B
:100FA000A92F982F8827BC01CD01620F711D811DCB
:100FB000911D42E0660F771F881F991F4A95D1F750
:100FC00008958F929F92AF92BF92CF92DF92EF924D
:100FD000FF926B017C010E94BC074B015C01C114B4
:100FE000D104E104F104B9F00E94BC076819790941
:100FF0008A099B09683E73408105910580F321E0D1
:10100000C21AD108E108F10888EE880E83E0981E24
:10101000A11CB11CE4CFFF90EF90DF90CF90BF9068
:10102000AF909F908F9008952FB7F8946091DD0650
:101030007091DE068091DF069091E0062FBF089543
:10104000EF92FF920F931F93CF93DF9300D01F92E5
:10105000CDB7DEB7FA0120E08E010F5F1F4F9E2F44
:101060009F77EE0FEF2FEE1FFF0BF195309709F0F2
:101070009068D801A20FB11D9C932F5F309779F72C
:1010800030E0FB01E21BF30B8483FB01E21BF30B5B
:101090003596D801CD01801B910B821793071CF464
:1010A0008D918193F7CF2F5F3F4F8091810A90916F
:1010B000820A8901040F151F621B730B6B5F7F4F40
:1010C000DC01ED91FC910280F381E02DA8011995DE
:1010D0007C010E9414086093050B7093060B8093AB
:1010E000070B9093080B81E00E151F0509F080E0B7
:1010F0000F900F900F900F90DF91CF911F910F9154
:10110000FF90EF900895CF92DF92EF92FF92CF93EE
:10111000DF93EC010E9414086B017C018091810A2D
:101120009091820ADC01ED91FC910084F185E02D23
:101130001995892B69F40E9414086C197D098E0990
:101140009F0968397A438105910540F380E00DC01D
:101150008091810A9091820ADC01ED91FC910284D8
:10116000F385E02D1995888381E0DF91CF91FF9081
:10117000EF90DF90CF9008953F924F925F926F92E1
:101180007F928F929F92AF92BF92CF92DF92EF9217
:10119000FF920F931F93CF93DF931F92CDB7DEB7CC
:1011A0005C0183E89AE00E948308811116C010E078
:1011B00000E0C8010F90DF91CF911F910F91FF9038
:1011C000EF90DF90CF90BF90AF909F908F907F90E7
:1011D0006F905F904F903F9008953090830A1982EE
:1011E00034E8832E3AE0932EEE24E394F12CD12CB4
:1011F000C12C412C512C32014394CE0101960E9406
:1012000083088823A1F287010F5F1F4F8981F401B2
:1012100081934F01282F2F7730E0249DA001259D39
:10122000500D349D500D1124C40ED51E27E0440CE2
:10123000551C661C771C2A95D1F787FD31C0F32D0C
:10124000F07F3F2E8FEF800FD5018C93B0E3FB131F
:101250003EC0C8018D57954F0E948308882309F42A
:10126000A6CFC7018B57954F0E948308882309F4A6
:101270009ECF0E5F1F4FD501EC91F0E0E358F54F84
:10128000E780F12CFE2CEE248085E80EF11C809185
:10129000830A81FF03C0B2E0EB0EF11C92E01AC09A
:1012A00078010530110509F0A8CF8FEF9FEF9093DB
:1012B0001D0B80931C0B8091810A9091820ADC01A6
:1012C000ED91FC910488F589E02D199570CF90E09F
:1012D000F12CE12C692E712C601A710A8EEF882E88
:1012E00099249A94C301800F911F8C159D0570F568
:1012F000CE0101960E948308882309F458CF80917B
:101300001A0B90911B0B0097B1F0E0E33E1213C053
:10131000D5012C91F401E21BF1099F01200F311F2F
:10132000E216F30640F4DC01ED91FC910190F081AE
:10133000E02D698119950038110528F48981F8019B
:10134000E358F54F86830F5F1F4FCCCF80911A0B68
:1013500090911B0B892B09F02CCF0138110508F057
:1013600026CF27CFFC0120812EBD9B0121503109C2
:1013700041F051810DB407FEFDCF4EB55EBD4193E6
:10138000F5CF61507109860F971F0DB407FEFDCF91
:101390002EB5FC0120830895E0912C07F0912D07D4
:1013A000808190912B07892B80830895E0912C07F1
:1013B000F0912D07908180912B0780958923808360
:1013C00008958EBD00000DB407FEFDCF8EB50895C3
:1013D000AF92BF92CF92DF92EF92FF920F931F9343
:1013E000CF93DF9300D000D01F921F92CDB7DEB70E
:1013F0008C017B016A0180912F078333E1F458014E
:10140000A40EB51EA016B10609F46FC00E94D6093D
:1014100080EF0E94E109812F0E94E109802F0E9444
:10142000E1090F5F1F4FF70181917F010E94E109E0
:101430000E94CC09E7CF5B01A40EB51E8433C1F432
:101440000E94D60919830A838D2D80688B83CC82F4
:1014500064E070E0CE0101960E94B209AE14BF04B0
:1014600009F441C0F70181917F010E94E109F6CFA3
:101470000E94D6090F3F110509F028F419820A834A
:1014800084E08B830CC017FD17C019820A8333E0F8
:10149000169507953A95E1F7007E0C600B8386E080
:1014A000C816D104A0F5F701DE011496EA15FB0574
:1014B00099F081918D93FACFC80126E09695879592
:1014C0002A95E1F7807E19830A830115104C10F4E8
:1014D0008461D7CF8C61D5CFB6016D5F7F4FCE01D0
:1014E00001960E94B2090E94CC09C60128960FB647
:1014F000F894DEBF0FBECDBFDF91CF911F910F914A
:10150000FF90EF90DF90CF90BF90AF90089563E091
:1015100070E0CE0101960E94B209F70181917F012E
:101520000E94E109AE14BF04C1F7DDCFCF93DF9372
:101530001F92CDB7DEB7898341E050E0BE016F5FF7
:101540007F4F90E080E00E94E8090F90DF91CF91FB
:10155000089590E020912F07233339F40C96982FAB
:10156000990F990F990F80E008954896F8CFDA0106
:10157000E0913007F0E0FE2FEE27E60FF71F90E036
:10158000982F8827A901BD018E0F9F1F0C94E80991
:10159000CF93DF931F921F92CDB7DEB779836A8313
:1015A00022E030E0AE014F5F5F4F60E170E00E94EB
:1015B000B70A0F900F90DF91CF910895CF93DF93EB
:1015C0001F921F92CDB7DEB779836A8322E030E0A5
:1015D000AE014F5F5F4F64E070E00E94B70A0F906A
:1015E0000F90DF91CF910895CF93DF931F92CDB7E6
:1015F000DEB72091300730E0322F2227260F371F29
:1016000090E0982F8827498341E050E0BE016F5F4A
:101610007F4F820F931F0E94E8090F90DF91CF91B7
:101620000895CF93DF931F92CDB7DEB76983DC01B6
:10163000ED91FC910280F381E02D41E050E0BE018C
:101640006F5F7F4F19950F90DF91CF910895FC0147
:101650009485FB018485981303C081E0983008F0DD
:1016600080E00895CF93DF931F92CDB7DEB76983F3
:10167000DC01ED91FC910280F381E02D41E050E02E
:10168000BE016F5F7F4F19950F90DF91CF91089545
:101690000895FF920F931F93CF93DF93EB01FC010B
:1016A000178A168A2A81211109C02B81211106C0AF
:1016B0002C81211103C02D81222301F141155105F7
:1016C000E9F08A01FC01F08C80E591E00E94A00421
:1016D000AE014E5F5F4F24E030E06CE070E08F2D94
:1016E0000E94B70AB8018F2D0E94C80A81E090E0DD
:1016F000DF91CF911F910F91FF90089580E0F7CF78
:10170000FC01848595850895FC0184899589089557
:1017100025EC33E0FC0131832083FB0140895189B2
:1017200062897389FC0142835383648375830895BE
:10173000DC01ED91FC91048CF58DE02D1994DC0118
:1017400080E0615090F09D919827E92FEF70F0E0D4
:10175000EE5AF94F2491E92FE295EF70F0E0EE593F
:10176000F94FE491822F8E27ECCF0895DC012C9164
:101770001196ED91FC91F8948181822B8183928165
:10178000322F30959323928387E090E00197F1F711
:1017900081818323818383E290E00197F1F7908137
:1017A0007894EFECF0E03197F1F7922381E009F4BF
:1017B00080E00895FC0190810180F281E02D292FC5
:1017C000209560FF14C0F8948281822382838181F6
:1017D000892B8183A3E2B0E01197F1F78281982BE6
:1017E0009283789487ED90E00197F1F70895F8944B
:1017F0008281822382838181892B8183AFEFB0E054
:101800001197F1F78281982B928378948FE090E082
:10181000EBCFDF92EF92FF920F931F93CF93DF9363
:10182000EC01D62EE42E08E010E0FF24F39461E0F2
:101830008D2D8F2109F460E0CE010E94DA0BFF0CA0
:1018400001501109A1F7E11010C0F894E981FA8163
:1018500091818881809589238183E981FA819281B0
:1018600088818095892382837894DF91CF911F911D
:101870000F91FF90EF90DF900895EF92FF920F93FA
:101880001F93CF93DF938C017B0140E065E50E94BD
:10189000090CE70188E0E80EF11C699140E0C801FD
:1018A0000E94090CCE15DF05C1F7DF91CF911F9182
:1018B0000F91FF90EF900895FC0190810180F281DB
:1018C000E02DF8948181292F2095822381837894BB
:1018D0003DE743E050E0315029F1DA011197F1F78B
:1018E00080818923C1F3F89482818223828381815C
:1018F000892B81837894ABE7B7E01197F1F7F894DF
:10190000818182238183A3E1B1E01197F1F7808186
:10191000982381E009F080E07894E3E6F6E03197DF
:10192000F1F7089580E008956F927F928F929F92D1
:10193000AF92BF92CF92DF92EF92FF920F931F93DD
:10194000CF93DF93EC017B018A018E819F810E94FE
:101950005C0C811102C090E037C0B7018E819F817D
:101960000E943D0C40E06EEB8E819F810E94090C2D
:101970007801680189E0C80ED11CAE80BF8088E084
:10198000882E912C712C66246394C5010E94B60B9D
:1019900081117628660CE1E08E1A9108B1F7F70103
:1019A00071927F01EC15FD0541F78E819F810E94A8
:1019B0005C0C813081F668E0C8010E949F0B91E0C9
:1019C000F80120852813C7CF892FDF91CF911F9170
:1019D0000F91FF90EF90DF90CF90BF90AF909F90CE
:1019E0008F907F906F900895CF93DF9300D000D0B9
:1019F00000D0CDB7DEB7FB012081203199F0AE01D8
:101A00004F5F5F4F0E94940C882331F08D818F339C
:101A1000A9F020F48F31A1F080E007C08F3521F0CC
:101A20008F37D1F78CE001C08BE029960FB6F89480
:101A3000DEBF0FBECDBFDF91CF9108958AE0F5CF15
:101A400089E0F3CFCF93DF93FC01A481B581109798
:101A500021F480E0DF91CF910895EC01ED91FC91AC
:101A600011970688F789E02DCD01199581111EC0C7
:101A7000FE01E156FF4F80819181892B51F78DEF57
:101A80009FEF918380838C819D81DC01ED91FC919E
:101A90000680F781E02D19958C819D81DC01ED9107
:101AA000FC910488F589E02D1995D3CF81E0D2CF40
:101AB000EF92FF920F931F93CF93DF93EC018B0173
:101AC0007A010E941408FE01E857FF4F608371837A
:101AD000828393838C819D81DC01ED91FC91028056
:101AE000F381E02DA701B801DF91CF911F910F91F4
:101AF000FF90EF9019941F93CF93DF93EC01162F73
:101B00000E941408FE01E857FF4F608371838283AF
:101B100093838C819D81DC01ED91FC910190F0819A
:101B2000E02D612FDF91CF911F9119942091DA065A
:101B30003091DB062817390771F49091D90680910E
:101B4000D806981741F0E091D906F0E0E856F94F31
:101B5000808190E008958FEF9FEF0895EF92FF92BC
:101B60000F931F93CF93DF93DC015C96ED90FC9075
:101B70005D97E114F10479F481E090E013969C9371
:101B80008E93129790E080E0DF91CF911F910F919B
:101B9000FF90EF9008955196ED91FC9152975096D9
:101BA0008C915097982F90950FB75E962C915E97D9
:101BB000122F127021FD6095F8942081112319F1E4
:101BC000282B2083E7012197F1F728E0462F50E0EA
:101BD000308160FF1AC0382B3083E7012197F1F77D
:101BE000BA0175956795215089F7112381F080819D
:101BF000892380830FBF5C968D919C910197F1F7AB
:101C000081E090E0C1CF2923DCCF3923E5CF90815B
:101C1000892BEFCF2091DA063091DB0628173907A0
:101C200071F48091D8062091D90690E0805C9F4F96
:101C3000821B910960E470E00E94B65F089590E015
:101C400080E008952091DA063091DB0628173907E5
:101C5000B9F49091D9068091D806981789F0E0914F
:101C6000D906F0E0E856F94F80812091D90630E09E
:101C70002F5F3F4F2F7333272093D90690E00895AD
:101C80008FEF9FEF0895CF93DF93FC01828D938DAB
:101C9000892B41F1A091DA06B091DB06AE17BF07A0
:101CA00009F1109751F05396CD91DC91549798819A
:101CB00055968C91809589238883868D8E7F868F1B
:101CC0001092D8061092D906F093DB06E093DA065C
:101CD000A389B4898C919589892B8C9381E0DF91BC
:101CE000CF91089580E0FBCF4F925F926F927F92E9
:101CF0008F929F92AF92BF92CF92DF92EF92FF921C
:101D00000F931F93CF93DF9300D000D01F92CDB7D6
:101D1000DEB76C01E62E8A01DC0112968C911297D7
:101D2000882321F08D919C910E94430E0E941408FB
:101D30004B015C01F12CB6E0BF1598F10E9414082C
:101D4000681979098A099B09F601438054806580E6
:101D50007680641575058605970530F5808191813B
:101D6000DC01ED91FC910084F185E02D19951816A8
:101D700019060CF7F60180819181DC01ED91FC914F
:101D80000284F385E02D1995811102C0FF20B1F284
:101D9000E1E0F0E0EC0FFD1FEF0DF11D8083F39407
:101DA000CACFB7E0FB1611F080E01CC049818A81E0
:101DB000840F9927991F2B81820F911D2C81280F49
:101DC000392F311D8D81280F311D8E81820F932F68
:101DD000911D9F819813E8CFE412E6CF01151105FC
:101DE000C1F481E027960FB6F894DEBF0FBECDBFD9
:101DF000DF91CF911F910F91FF90EF90DF90CF90E7
:101E0000BF90AF909F908F907F906F905F904F901A
:101E10000895DE011196F80198012B5F3F4F11964E
:101E2000E217F307F1F28C918193F9CF089588EED0
:101E300099E00C94200F88EE99E00C94230F0895FC
:101E400090E080E0089590E080E00895FB01228119
:101E50003381FC0133832283FB012481FC01248331
:101E600008950895DC01FB01309711F184818235DA
:101E7000F9F412962D913C91139782819381281742
:101E80003907B1F414968C911497823589F417961A
:101E90009C911797878198130BC018969C9118975F
:101EA0008085981305C081E015962C9195812913A2
:101EB00080E00895CF93DF93EC0161E08F810E9471
:101EC0008B0761E070E08D81813011F070E060E09F
:101ED000E881F9810288F389E02DCE01DF91CF916D
:101EE0001994FC0115820895DC01FB01309761F122
:101EF0008481803549F512962D913C91139782810A
:101F000093812817390701F514968C911497803521
:101F1000D9F418969C9118978085981315C0199636
:101F20009C911997818598130FC017969C911797CC
:101F30008781981309C081E01A964D915C912285A2
:101F400033854217530709F080E0089508950895F6
:101F500087E00895089580E008958F929F92AF9250
:101F6000BF92CF92DF92EF92FF920F931F93CF9386
:101F7000DF938C01DC015396CD90DD90ED90FC90C9
:101F80005697B0EDCB0EB7E0DB1EE11CF11C0E94B2
:101F90001408C616D706E806F90608F056C0D80198
:101FA0005196ED91FC91C485D5858E819F810E94CB
:101FB0005C0C40E06CEC8E819F810E94090C488192
:101FC00064E48E819F810E94090C8A81882371F1CB
:101FD000E981E9508EEEC82E82E0D82EE33038F445
:101FE000F0E0EE0FFF1FE35DFD4FC080D1808B81DD
:101FF0008823C1F18881811135C00E9414084B01EA
:102000005C010D2C000CEE08FF088E819F810E9460
:10201000B60B813059F00E9414086C197D098E09A5
:102020009F09681579058A059B0578F3D801ED911C
:10203000FC91048CF58DE02DC80119950E941408BF
:10204000F801638B748B858B968BDF91CF911F91F9
:102050000F91FF90EF90DF90CF90BF90AF909F9047
:102060008F900895B601DD0C880B990B0E94E10753
:10207000DDCF0C94AD0F0895DC01FB013097B1F07A
:102080008481813399F412962D913C91139782812A
:1020900093812817390751F414968C911497813342
:1020A00029F481E017962C919781291380E00895F7
:1020B00090E080E008950895DC01FB013097E1F0A5
:1020C00084818334C9F412962D913C9113978281B7
:1020D00093812817390781F414968C9114978334CF
:1020E00059F417969C9117978781981305C081E042
:1020F00018962C919085291380E00895FC01118693
:1021000012861386148615820895089580339CF0F4
:102110008A3324F08F3524F08B3724F481E008953E
:1021200081344CF08B35D4F393ED980F81E09230ED
:10213000B0F380E008958B32B9F7F0CFFC018485CD
:1021400081110AC0A185B285CD0101969287818750
:102150008C91838781E08487838508951F93CF9333
:10216000DF93EC01162F0E949E10811306C01C867F
:1021700081E0DF91CF911F91089580E0FACFCF9356
:10218000DF93EC01CE010E949E108B303CF489302D
:102190004CF4882349F081E0888710C08D3011F01D
:1021A0008032C9F71C86EECF888581110AC081E094
:1021B00090E0C15BDF4F9983888380E0DF91CF910E
:1021C000089582E090E0F5CFFC01892B41F09481E5
:1021D0009F779450923018F480819181089590E017
:1021E00080E00895FC0185859F01275F3F4F85FDB5
:1021F00002C030E020E0B901CF010895FC010E9645
:102200009183808393838283805C994F95838483B9
:10221000978386831086858580788587089584E0F6
:1022200008958BE0089583E0089585E0089580E0A7
:1022300008950895089580E00895FC0182819381B6
:102240000097C1F0248135814681578124173507D5
:1022500040F0138212820190F081E02D81E08087AE
:102260000895A9014F5F5F4F55834483820F931FE9
:10227000FC01608308959F92AF92BF92CF92DF924C
:10228000EF92FF920F931F93CF93DF9300D01F9293
:102290001F92CDB7DEB78C010E949E10D82EF80198
:1022A0001486F12CE12C70EFC72EC8010E949E10FD
:1022B000F8011486D81609F4C1C0811119C0F801BB
:1022C000E15BFF4F82E090E09183808380E00F909C
:1022D0000F900F900F900F90DF91CF911F910F9162
:1022E000FF90EF90DF90CF90BF90AF909F900895B8
:1022F0008C3509F09EC0C8010E949E108823F9F217
:10230000E7ECF3E0853709F088C0F801148664E053
:10231000962EB12CA12CC8010E949E10882379F220
:1023200081344CF48053803148F0F801E15BFF4F79
:1023300083E090E0C9CF8F7D8753F5CF54E0AA0C9E
:10234000BB1C5A95E1F7A82AF80114869A949110BB
:10235000E2CFC501985D8115944020F4750123E01A
:10236000F222A3CFC5019C5D8115944008F5F3E0EE
:10237000BF22C701982F8827990F990F8A299B2977
:10238000B0E0A0E01196198280389105A105B10551
:1023900098F48A835E0123E0A20EB11CF5016291DC
:1023A0005F01662309F481CFC8010E941D11F6CF99
:1023B000C501B0E0A0E0E7CF282F2F7320682A8363
:1023C00036E0B695A795979587953A95D1F78032DF
:1023D000910538F4806C8B835E0184E0A80EB11CFB
:1023E000DDCF282F2F7320682B8326E096958795C5
:1023F0002A95E1F78031910538F4806E8C835E0177
:10240000E5E0AE0EB11CCACF80688C83CD825E0140
:10241000F6E0AF0EB11CC2CF32969081992309F439
:1024200084CF8913F9CF8181882309F47ECFF80105
:102430001486682FC8010E941D1137CF60E0C801C3
:102440000E941D11F80182819381892B29F4E15B9F
:10245000FF4F84E090E038CF81E039CFEF92FF92D8
:102460000F931F93CF93DF93DC01ED90FC90E70176
:102470002A813B81E881F981E217F30780F4B901F1
:10248000DF01EB014991BE018D010F5F1F4F5C9190
:10249000451318C0D8014111F4CF309759F4FC010D
:1024A00084819581820F931FD70113969C938E93FD
:1024B0001297F901CF01DF91CF911F910F91FF90FA
:1024C000EF900895FD014191DF014111FBCFD4CF81
:1024D000CF93DF93DC01EB01EC81FD818A819B814D
:1024E0000896E817F90740F481E08887F0E0E0E01B
:1024F000CF01DF91CF9108953897FD83EC8330971A
:10250000B9F31296CD91DC911397209791F0CF01FA
:102510008C1B9D0B23E0959587952A95E1F78D837C
:102520001396FC93EE9312971582148217821682EB
:10253000DFCF1196FC93EE93F3CF0895CF93FC0178
:10254000892B91F094819F77983029F078F4992322
:1025500059F0963079F4C1E080819181A281B381F4
:10256000892B8A2B8B2B39F4C0E005C09A3099F364
:102570009C3021F0C1E08C2FCF910895C1E020E084
:1025800030E0A90160817181828193810E948B5A20
:102590008111F1CFE9CFDC01FB013097E1F08481BB
:1025A0008234C9F412962D913C91139782819381C4
:1025B0002817390781F414968C911497823459F4B2
:1025C00017969C9117978781981305C081E01896FC
:1025D0002C919085291380E00895FC0114861586BE
:1025E000168617861186158208954F925F926F9214
:1025F0007F928F929F92AF92BF92CF92DF92EF9293
:10260000FF920F931F93CF93DF93EC017B0188819F
:102610008B32C1F18D32B9F5219611E0888190EDB0
:10262000980F9A3018F08E3209F03AC160E070E0ED
:10263000CB01FE01219100ED020F0A3030F56A391D
:1026400029E97207820729E1920708F045C0AAE04C
:10265000B0E09B01AC010E947A5E802E912CB12CDF
:10266000A12C240135014094509460947094461636
:1026700057066806790680F1680D791D8A1D9B1D35
:10268000EF01D7CF219610E0C9CF211125C0F70166
:10269000248120781123C1F02A6024836083718310
:1026A00082839383812FDF91CF911F910F91FF90B0
:1026B000EF90DF90CF90BF90AF909F908F907F90E2
:1026C0006F905F904F90089528602483608371839A
:1026D0008283938311E0E6CF00E0EAE08E2E912C16
:1026E000A12CB12C61157105F0E88F07910540F020
:1026F000A50194010E94395ECA01B9010F5FF2CFB2
:10270000FE01299130ED320F3A3010F40F5FF8CF0F
:102710002E32F1F4EF012196FE012196208150ED39
:10272000D52ED20E29E02D1598F06C3CECEC7E07EE
:10273000ECE08E07910580F7AAE0B0E09B01AC01C8
:102740000E947A5E6D0D711D811D911D0150E4CFB7
:1027500020812F7DD0E0C0E0253409F05DC02181CB
:102760002D32D9F53296CC24C394DF01D0E0C0E0FD
:10277000202F002E000C330B4AE0B42EFD01DD901B
:1027800040ED4D0D4A3008F042C0BC9EA001BD9EF8
:10279000500D1124CD2DDD0CDD0BE097C40FD51F9E
:1027A000AE01420F531F4732510544F3F7018481B4
:1027B000CC20D1F040E050E060E070E8111103C09F
:1027C00040E050E0BA0180788C60F7018483408358
:1027D0005183628373831C2D65CF2B3219F03196A0
:1027E000C12CC3CF3296FCCF40E050E060E87FEFD1
:1027F000111104C040E050E060E87FE780788C6011
:10280000F7018483408351836283738363CFCC2039
:1028100019F0D195C195D1092081211141C0C00F76
:10282000D11D07FDDA950E94905A1C161D0604F56D
:1028300000E0C0FF0CC024E0029FF0011124E75922
:10284000FA4F25913591459154910E94F15AD595B1
:10285000C7950F5F209769F711119058F7012481F0
:1028600020782C602483608371838283938332CFAA
:10287000D195C195D10900E0209771F3C0FF0CC03C
:1028800024E0029FF0011124E75CFA4F2591359175
:10289000459154910E94F15AD595C7950F5FECCFA1
:1028A00010E000CFCF92DF92EF92FF92CF93DF93B1
:1028B00000D01F921F92CDB7DEB7DC0114969C9119
:1028C00014979F77963071F0FD01973028F494307B
:1028D00070F590E080E011C09A30D9F09C30A1F101
:1028E0009830B9F78D919D910D90BC91A02D8115D7
:1028F00020E89207A105B10560F70F900F900F90A7
:102900000F900F90DF91CF91FF90EF90DF90CF90DD
:10291000089580819181A281B381813020E892075E
:10292000A105B105B0F6919581959109E6CF808119
:1029300091811D82BE016F5F7F4F0E94F512CE0113
:1029400001960E945214D9CFC080D180E280F380DA
:1029500020E030E040E057ECC701B6010E94B15FD3
:1029600087FDB7CF20E03EEF4FEF56E4C701B60139
:102970000E948B5A18160CF4ACCFC701B6010E9406
:102980007B5FCB01BACFCF92DF92EF92FF92CF93D2
:10299000DF9300D01F921F92CDB7DEB7FC01948168
:1029A0009F77963039F128F49430C8F590E080E0B4
:1029B0002AC09830F9F09C30C9F7C080D180E280FD
:1029C000F38020E030E0A901C701B6010E94B15FA9
:1029D00087FDECCF20E03FEF4FE757E4C701B6019A
:1029E0000E948B5A181614F3C701B6010E94825F29
:1029F000CB0109C080819181A281B381009721E040
:102A0000A207B10598F60F900F900F900F900F90BE
:102A1000DF91CF91FF90EF90DF90CF90089580816C
:102A200091811D82BE016F5F7F4F0E94F512CE0122
:102A300001960E94C314E7CFCF92DF92EF92FF92EC
:102A4000CF93DF9300D01F921F92CDB7DEB7FC016A
:102A500094819F77963031F120F49430C8F580E06E
:102A60002BC09830F9F09C30D1F7C080D180E28043
:102A7000F38020E030E0A901C701B6010E94B15FF8
:102A800087FDEDCF20E030E04FE753E4C701B6010A
:102A90000E948B5A18161CF3C701B6010E94825F70
:102AA000862F0AC080819181A281B3818F3F9105D9
:102AB000A105B10509F098F60F900F900F900F90B7
:102AC0000F90DF91CF91FF90EF90DF90CF9008951E
:102AD000808191811D82BE016F5F7F4F0E94F51240
:102AE000CE0101960E941C15E7CF009711F00C94BF
:102AF0001C1580E00895FC01768765870895DC0148
:102B0000ED91FC91068CF78DE02D199591E08927C8
:102B10000895862F089581E08627089521E0FC011D
:102B20008485883008F020E0822F0895BF92CF92EC
:102B3000DF92EF92FF920F931F93CF93DF93EC01FD
:102B4000B62EC72E8D85811105C0CE010E945C0C6A
:102B500081110EC01B861D861C8680E0DF91CF91FF
:102B60001F910F91FF90EF90DF90CF90BF9008954D
:102B700040E060EFCE010E94090C01E0E12CD12C75
:102B800011E0CE010E94B60BF82ECE010E94B60BCA
:102B900091E0F91218C0813099F51134D8F2DB8632
:102BA000D11002C081E08D878B81882399F2239612
:102BB000EB2DFC2DCF01089629912193E817F907F9
:102BC000D9F781E0CBCFEE2DF0E0F8120FC08B8566
:102BD0001817A0F4DE01AE0FBF1F13968C9180234F
:102BE00079F4F12C193008F41C87D12EEC0FFD1F5D
:102BF0008381902F9095892383830AC08113F1CF1D
:102C0000FE01EE0DF11D8381802B8383FF24F3945D
:102C10006F2DCE010E94DA0B1F5F000F11F4E394B9
:102C200001E087E08E1508F0ACCFB7CFEF92FF92AE
:102C30000F931F93CF93DF937C018B01EB010990DE
:102C40000020E9F72197C61BD70B8DE79AE00E9479
:102C5000220D882389F1F70101900020E9F73197CF
:102C6000EE19FF09CE010796E80FF91FE138F105CB
:102C700018F545E050E063E87AE0C7010E947E0461
:102C8000F801DC01AD57B54FA8014C0F5D1FE417EB
:102C9000F50719F021912D93FACF2597AE01480F32
:102CA000591F63E87AE080E3DF91CF911F910F9184
:102CB000FF90EF900C94200880E0DF91CF911F915E
:102CC0000F91FF90EF900895FB0101900020E9F72C
:102CD0003197AF01461B570BDC01ED91FC9102804F
:102CE000F381E02D19948F929F92AF92BF92EF9251
:102CF000FF920F931F93CF93DF93CDB7DEB7A197CA
:102D00000FB6F894DEBF0FBECDBF7C01FA01CB0138
:102D100019A2223008F42AE08E010F5D1F4F822E87
:102D2000912CB12CA12CBF01A50194010E94395E08
:102D3000F901CA016A300CF5605DD8016E938D010E
:102D4000232B242B252B79F790E080E0109721F09E
:102D5000BD01C7010E946416A1960FB6F894DEBFAC
:102D60000FBECDBFDF91CF911F910F91FF90EF90DC
:102D7000BF90AF909F908F900895695CDECFAB01BC
:102D800070E060E02AE00C9473168F929F92AF92ED
:102D9000BF92CF92DF92EF92FF920F931F93CF9348
:102DA000DF937C018B016C0182E0C80ED11C4701CE
:102DB000E5E08E0E911CD0E0C0E0F60141916F017C
:102DC00050E070E060E02AE0C8010E9473165C01E8
:102DD0006EE2C8010E9443058A0D9B1DC80FD91FD2
:102DE000C814D90451F7F701458150E070E060E064
:102DF0002AE0C8010E9473168C0F9D1FDF91CF91AE
:102E00001F910F91FF90EF90DF90CF90BF90AF9008
:102E10009F908F90089568ED73E00C94641661158F
:102E2000710511F00C94641690E080E00895089507
:102E30000895089508950895CF93DF93FC01848544
:102E40008823C9F080859185A681B781A80FB91F15
:102E5000892B29F08C91882311F081E085871C92C1
:102E6000C681D781DE010D900020E9F71197AC1BD8
:102E7000BD0BB387A287DF91CF9108950F931F9366
:102E8000CF93DF93EC018B010E941C176E817F8131
:102E90006115710539F0C801DF91CF911F910F9134
:102EA0000C94641690E080E0DF91CF911F910F9118
:102EB0000895EF92FF920F931F93CF93DF93CDB7B7
:102EC000DEB7C456D1090FB6F894DEBF0FBECDBF32
:102ED000863091050CF04BC08C01E090790AF0909F
:102EE0007A0AC7010E941C1781E0F7018487E680F7
:102EF000F7808DE79AE00E94220D882309F1F801FE
:102F0000EE0FFF1FEC5DF44F81818F9380818F93D3
:102F10008091420B1F928F938BED93E09F938F9341
:102F20008E010F5F1F4F1F930F930E940C61B7011B
:102F3000C8010E9416160FB6F894DEBF0FBECDBFB3
:102F40000091790A10917A0AC8010E941C1781E049
:102F5000F8018487668177816115710521F089E028
:102F600099E00E94641689E099E00E940B17E091B5
:102F7000790AF0917A0A138612860680F781E02D8D
:102F80001082CC59DF4F0FB6F894DEBF0FBECDBF15
:102F9000DF91CF911F910F91FF90EF90089585E001
:102FA00090E00C94591782E090E00C9459178F929E
:102FB0009F92AF92BF92CF92DF92EF92FF920F93C8
:102FC0001F93CF93DF937C01DC0117968C918823AC
:102FD00009F468C0823009F468C1833031F081306F
:102FE00009F03FC0CCE6D8E002C0C2E3D7E087E0FA
:102FF00090E00E945456FC0188EE93E0A0E0B0E01F
:1030000083839483A583B683A889B98982E08C934E
:10301000AC85BD851C92AE85BF858FEC8C93188ED8
:10302000AC89BD8986E08C93AA89BB898C9180612B
:103030008C93AA89BB898C9188608C93AA89BB895F
:103040008C9180688C93AA89BB898C918F7D8C939D
:10305000D183C0831282D7011D96FC93EE931C97F7
:1030600002C00E94D317F701C485D585209709F4C3
:103070001FC1B701625F7F4F44EBCE010E94A404E1
:1030800050E040E064EACE01DF91CF911F910F91B3
:10309000FF90EF90DF90CF90BF90AF909F908F9078
:1030A0000C94740EF70101850023E9F210851123B9
:1030B000D1F287E090E00E9454566C0138EE832EE6
:1030C00033E0932EA12CB12CDC0113968D929D92AE
:1030D000AD92BC9216978FE190E00E945456EC019D
:1030E0001B821A828C829D82AE82BF8287E392E02D
:1030F000998388831F8A1E8A198E188E1B8E1A8EBA
:103100001D8E1C8E6E8D6E7F6D7F6E8F66956170CD
:1031100081E06827802F0E945D0761E0802F0E9478
:103120008B07802F90E0FC01ED52F84FE491E88B83
:10313000FC01E75EF74FE491F0E0EE0FFF1FE15670
:10314000F84F859194919A8B898B60E0812F0E9432
:103150008B078E8D81FD04C061E0812F0E945D0789
:103160001C87812F90E0FC01ED52F84FE491ED8730
:10317000FC01E75EF74FE491F0E0EE0FFF1FEE5821
:10318000F94F259134913F872E871B8E1A8E198E09
:10319000188E1F8A1E8A2DE931E03D8F2C8F26EF75
:1031A000210F243048F03EEC310F343028F032EC5F
:1031B000310F383008F056C04DEB50E05F8B4E8B2E
:1031C0004BE951E0598F488F4CE251E05B8F4A8FB9
:1031D000243050F03EEC310F343030F032EC310F0F
:1031E000F0E0E0E0383010F4E8E6F0E03081243040
:1031F00020F042EC410F483000F141E0342B243004
:1032000050F04EEC410F443030F042EC410FF0E012
:10321000E0E0483010F4E8E6F0E03083243078F065
:103220003EEC310F343058F032EC310F50E040E0DA
:10323000383038F44DE650E004C044E0DFCF4BE6D0
:1032400050E05C8B4B8B2430D8F49C012650310924
:1032500081E001C0880F2A95EAF78D8B8DE991E016
:103260000197F1F7CE010E94430EF601D183C0838E
:1032700081E08283D7011D96DC92CE921C97F3CE1B
:10328000123359F0133359F0143359F01E531830D8
:1032900050F49C012E533109DBCF88E0DECF84E06F
:1032A000DCCF82E0DACF81E0D8CFCFECD7E09FCE81
:1032B000DF91CF911F910F91FF90EF90DF90CF9012
:1032C000BF90AF909F908F90089584E090E00E940F
:1032D000591760E777E180E090E00E94E10788E11C
:1032E00098E20FB6F894A895809360000FBE909373
:1032F00060000895AF92BF92CF92DF92EF92FF925B
:103300000F931F93CF93DF93CDB7DEB7C456D10988
:103310000FB6F894DEBF0FBECDBFD62EC72E5A0112
:103320009F938F931F9280E58F930EEE13E01F9370
:103330000F9380EF93E09F938F9385E094E09F93AA
:103340008F93CE0101967C019F938F930E940C6115
:103350000FB6F894DEBF0FBECDBF92E0A916B10440
:1033600089F183E0A816B104A1F1AA94AB2819F160
:103370001F930F93FF92EF9280E194E09F938F93BE
:10338000CF92DF920E940C610FB6F894DEBF0FBEA1
:10339000CDBFCC59DF4F0FB6F894DEBF0FBECDBF07
:1033A000DF91CF911F910F91FF90EF90DF90CF9021
:1033B000BF90AF9008951F930F93FF92EF928CE10F
:1033C00094E0DCCF1F930F93FF92EF9288E294E09A
:1033D000D5CF1F930F93FF92EF9282E394E0CECF6D
:1033E000CF92DF92EF92FF920F931F93CF93DF93D1
:1033F000EC016B018A010E941C17C114D10461F415
:1034000081E08D87CE01DF91CF911F910F91FF90C9
:10341000EF90DF90CF9008950115110599F3F60113
:1034200090E080E02191222321F0019608171907EE
:10343000C8F78017910720F38A859B857C01E00EF1
:10344000F11E288539852E153F05D0F22E813F814A
:10345000A801B601820F931F0E94D560FB86EA8601
:10346000EE81FF81EE0DFF1D1082CCCF0F931F93D5
:10347000CF93DF938C01EB01CB010E941C174A858F
:103480005B856E817F81C801DF91CF911F910F9184
:103490000C94F0190F931F93CF93DF93EC018B01E2
:1034A0000E941C170115110581F0F8010190002000
:1034B000E9F73197AF01401B510BB801CE01DF9105
:1034C000CF911F910F910C94F01981E08D87CE015F
:1034D000DF91CF911F910F910895BC018091790ADE
:1034E00090917A0A0E944A1A87E79AE008950C940C
:1034F000F056FF920F931F93CF93DF93F82E809196
:103500006E0B90916F0B0F2D10E0892BC9F0D0E05E
:10351000C0E080916E0B90916F0BC017D10774F4CF
:103520009E01220F331F820F931FFC018081918126
:10353000009711F00E94F0562196EBCF0E94F056B2
:10354000F11012C010926F0B10926E0B1093730B50
:103550000093720B80916E0B90916F0BDF91CF9166
:103560001F910F91FF900895C801880F991F0E9425
:10357000545690936F0B80936E0BE8CF1F93CF93AD
:10358000DF93182F80916C0B90916D0B892B11F1AB
:10359000D0E0C0E080916C0B90916D0B2091700B8E
:1035A0003091710BC217D3079CF49E01220F331F79
:1035B000820F931FDC018D919C91009739F0DC0103
:1035C000ED91FC910688F789E02D19952196E2CFBF
:1035D0000E94F056C12FD0E0111110C010926D0B57
:1035E00010926C0BD093710BC093700B80916C0B8D
:1035F00090916D0BDF91CF911F910895CE01880FAF
:10360000991F0E94545690936D0B80936C0BEACFD8
:10361000FC0180819181009711F00C94F05608957F
:10362000AF92BF92CF92DF92EF92FF920F931F93D0
:10363000CF93DF93EC011D821C8289E492E0998391
:10364000888385E592E09B838A831D861F870E878A
:10365000EC861C8A4115510509F4A4C021153105D9
:1036600029F0FF24F3944217530709F0F12CEE20C0
:1036700009F1C1101FC062307105C9F487E996E0F5
:103680009F838E8382E090E0998788871B861A86C5
:103690001092970681E08D87DF91CF911F910F9156
:1036A000FF90EF90DF90CF90BF90AF9008954115BD
:1036B000510569F05F834E83CB0101978E3F9F4F89
:1036C000B8F1EE2021F0CC2011F0672B39F487E916
:1036D00096E09F838E8319861886D8CFDA010D90E5
:1036E0000020E9F71197A41BB50BB987A887F11043
:1036F00004C01B861A86FA0110825901232B51F24D
:10370000C884D984C6010E9454568C010E94F05688
:10371000012BC9F481E08D871B861A86EE81FF811B
:10372000108287E996E09F838E8319861886B4CF2E
:103730006F3FFFE77F0710F06EEF7FE76150710981
:1037400079876887D4CFF50110E000E08191882364
:1037500089F00F5F1F4FC016D106C0F7FF2009F494
:1037600099CFDB86CA868E819F81C80ED91EF6014D
:10377000108290CFF11006C0A801B5018E819F8103
:103780000E94D5601B870A878E819F81080F191FB1
:10379000F8011082EE81FF8188859985E80FF91F75
:1037A00010827ACFEE2009F492CFC11090CF623010
:1037B000710509F463CF8BCF4F925F926F927F9226
:1037C000AF92BF92CF92EF92FF920F931F93CF933E
:1037D000DF93CDB7DEB7EC970FB6F894DEBF0FBE20
:1037E000CDBF5C012A013B010E941C17CC24C3946D
:1037F000E12C0DE314E027ED33E0AE014F5F5F4FA6
:1038000065E270E0CE0186960E94101B2AE0B301AB
:10381000A201CE0188960E9473167C01F5010285F3
:103820001385CE0186960E941C1788A999A9080FB6
:10383000191FF5018085918580179107C8F481E0F3
:103840008587F12CE12CC701EC960FB6F894DEBF0A
:103850000FBECDBFDF91CF911F910F91FF90EF90E1
:10386000CF90BF90AF907F906F905F904F900895F2
:10387000BE016A5D7F4FC5010E94361AE4CF4F92A8
:103880005F926F927F92AF92BF92CF92EF920F931F
:103890001F93CF93DF93CDB7DEB7EC970FB6F894B5
:1038A000DEBF0FBECDBF5C012A013B010E941C1789
:1038B000CC24C394E12C0DE314E027ED33E0AE01FA
:1038C0004F5F5F4F65E270E0CE0186960E94101B4D
:1038D00077FE3DC06DE2CE0188960E9443058C01C3
:1038E00044275527BA0144195509660977092AE082
:1038F000CE0188960E947316080F191FF501628485
:103900007384CE0186960E941C1788A999A9680E17
:10391000791EF501808591858615970508F581E06A
:10392000858710E000E0C801EC960FB6F894DEBF82
:103930000FBECDBFDF91CF911F910F91EF90CF9030
:10394000BF90AF907F906F905F904F9008952AE066
:10395000B301A201CE0188960E9473168C01CECFCE
:10396000BE016A5D7F4FC5010E94361ADCCF8F927F
:103970009F92AF92BF92CF92EF920F931F93CF93EC
:10398000DF93CDB7DEB7A0970FB6F894DEBF0FBEBA
:10399000CDBF5C014B01CC24C394E12C0DE314E0BA
:1039A00027ED33E0AE01485E5F4F69E070E0CE0185
:1039B00001960E94101BA40170E060E0CE01019608
:1039C0000E94DC1BBE016F5F7F4FC5010E94361A4B
:1039D000A0960FB6F894DEBF0FBECDBFDF91CF919A
:1039E0001F910F91EF90CF90BF90AF909F908F90CD
:1039F0000895BC018091790A90917A0A0E94B71CBF
:103A000087E79AE008958F929F92AF92BF92CF92EC
:103A1000EF920F931F93CF93DF93CDB7DEB7A097AD
:103A20000FB6F894DEBF0FBECDBF5C014B01CC24B6
:103A3000C394E12C0DE314E027ED33E0AE01485EC2
:103A40005F4F69E070E0CE0101960E94101BA40157
:103A5000990C660B770BCE0101960E943F1CBE01AC
:103A60006F5F7F4FC5010E94361AA0960FB6F8947B
:103A7000DEBF0FBECDBFDF91CF911F910F91EF90B1
:103A8000CF90BF90AF909F908F900895BC01809190
:103A9000790A90917A0A0E94031D87E79AE00895B7
:103AA000AF92BF92CF92EF92FF920F931F93CF935B
:103AB000DF93CDB7DEB76D970FB6F894DEBF0FBEBC
:103AC000CDBF5C01F62ECC24C394E12C0DE314E0B1
:103AD00027ED33E0AE01485E5F4F66E070E0CE0157
:103AE00001960E94101B4F2D50E070E060E0CE0167
:103AF00001960E94DC1BBE016F5F7F4FC5010E94D3
:103B0000361A6D960FB6F894DEBF0FBECDBFDF91AB
:103B1000CF911F910F91FF90EF90CF90BF90AF90FA
:103B200008950C94F0560C94F0560C94F0560C94A6
:103B3000F0560C94F0560C94F0560F931F93CF93BD
:103B4000DF93EC018B010E941C17F801019000200B
:103B5000E9F7AF0141505109401B510B8A859B8504
:103B60008417950730F04115510551F421E0892B58
:103B700009F020E0822FDF91CF911F910F910895DE
:103B8000B8018E819F810E94FE60F0CF0F931F933A
:103B9000CF93DF93EC0188819981009759F02A81B6
:103BA0003B812617370730F081E0DF91CF911F91DD
:103BB0000F9108958B016F5F7F4F0E94E65F009722
:103BC00059F0998388831B830A832C813D81232BA1
:103BD00059F7FC011082E8CF80E0E7CFEF92FF9227
:103BE0000F931F93CF93DF93EC017B018A01BA01FE
:103BF0000E94C61D28813981811114C0211531050B
:103C000019F0C9010E94F056198218821D821C8287
:103C10001B821A82CE01DF91CF911F910F91FF90ED
:103C2000EF9008951D830C83B701C9010E94F760CE
:103C3000F1CFCF92DF92EF92FF920F931F93CF932A
:103C4000DF938C01DC019296ED91FC91E80FF91F56
:103C500012826C01B2E0CB0ED11CC114D10431F13F
:103C6000F60101900020E9F73197EC19FD09F1F018
:103C7000DC01ED90FC90D7011496CD91DC91CE0F34
:103C8000DF1FBE01C7010E94C61D882379F0F7011E
:103C90002081318184819581B601820F931F0E941A
:103CA000F760D7011596DC93CE931497F80113A211
:103CB00012A2DF91CF911F910F91FF90EF90DF90B3
:103CC000CF900895CF93DF93EC018AA19BA19C0133
:103CD0002F5F3F4F3BA32AA3FE01E80FF91F62832A
:103CE0000296809718F0CE010E94191E8CA19DA10A
:103CF00001969DA38CA3DF91CF910895EF92FF923F
:103D00000F931F93CF93DF93EC017B0162E20E943C
:103D1000621E8701F80161918F01662391F0E7EC43
:103D2000F3E0F280FF2049F0329681816813F9CFE9
:103D30006CE5CE010E94621E6F2DCE010E94621EB4
:103D4000E9CF62E2CE01DF91CF911F910F91FF90F9
:103D5000EF900C94621ECF92DF92EF92FF920F933E
:103D60001F93CF93DF93EC016A018B017B01E40E7B
:103D7000F51E0E151F05A9F0F80121918F018AA1EA
:103D80009BA1AC014F5F5F4F5BA34AA3FE01E80F0D
:103D9000F91F22830296809760F3CE010E94191EBC
:103DA000E8CF4CA15DA14C0D5D1D5DA34CA3DF913F
:103DB000CF911F910F91FF90EF90DF90CF900895DA
:103DC000EF92FF920F931F93CF93DF93CDB7DEB7A0
:103DD00066970FB6F894DEBF0FBECDBF8C01CB0146
:103DE000FE0177969F014AE0E42EF12CB7010E9474
:103DF000B65F805D8293CB010097C1F7A9014E1B8E
:103E00005F0BBF01C8010E94AB1E66960FB6F89407
:103E1000DEBF0FBECDBFDF91CF911F910F91FF90FD
:103E2000EF9008958F929F92AF92BF92CF92DF92C0
:103E3000EF92FF920F931F93CF93DF93CDB7DEB72F
:103E400066970FB6F894DEBF0FBECDBF6C018E0132
:103E5000095E1F4F78018AE0882E912CA12CB12C8D
:103E6000CB01BA01A50194010E94395E942F852FE0
:103E7000605DF80162938F01A901692F782F4115C8
:103E800051056105710561F7A7014E1B5F0BBF016D
:103E9000C6010E94AB1E66960FB6F894DEBF0FBE39
:103EA000CDBFDF91CF911F910F91FF90EF90DF90E9
:103EB000CF90BF90AF909F908F900895FB0101909D
:103EC0000020E9F73197AF01461B570B0C94AB1E4E
:103ED0002F923F924F925F926F927F928F929F921A
:103EE000AF92BF92CF92DF92EF92FF920F931F9308
:103EF000CF93DF93CDB7DEB766970FB6F894DEBFEA
:103F00000FBECDBF8C011B01DC0114968C91149760
:103F10008F77863009F470C278F48230B0F0843044
:103F200008F051C212964D915C9113976D917C915E
:103F3000C1010E94AB1E16C28C30B1F160F4883012
:103F400009F455C28A3009F444C262E474E0C10144
:103F50000E945E1F07C2803209F408C28034A9F7AC
:103F60006BE5C1010E94621EF801008111810115FB
:103F7000110509F4F3C1B101C8010E94681FD801FD
:103F800015968C91882309F4E9C1B8E08B02C00131
:103F90001124080F191F0115110509F4DFC16CE286
:103FA000C1010E94621EE3CFF801C080D180E2808F
:103FB000F380A7019601C701B6010E948B5A88239E
:103FC00031F062E474E0C1010E945E1F9FC120E0F5
:103FD00030E0A901C701B6010E948B5A882371F015
:103FE000A7019601C701B6010E949D5E9B01AC012D
:103FF000C701B6010E948B5A882319F320E030E0F4
:10400000A901C701B6010E948B5A87FF08C06DE263
:10401000C1010E94621EF7FAF094F7F8F09420E8CC
:1040200036E948E15BE4C701B6010E94B15F87FD54
:1040300081C064E1A62EB12C00E210E01A8A198A30
:10404000F501E759FA4F2591359145915491C701F2
:10405000B6010E94B15F87FD13C0F501E75CFA4F1E
:104060002591359145915491C701B6010E94F15AAD
:104070006B017C0129893A89200F311F3A8B298BEA
:104080001595079534E0A31AB1088CEFA8168FEFA9
:10409000B806B1F655245A9420E030E0A901C701D2
:1040A000B6010E94B15F18160CF04BC02CEA35EC3B
:1040B00047E257E3C701B6010E948B5A18160CF469
:1040C00040C0A52DB4E0AB02C0011124B12CA12C3D
:1040D000FC01EF5AFA4F3F019C0127593A4F490121
:1040E0003FEF531671F1F301EA0DFB1D65917591D8
:1040F00085919491A70196010E94B15F18169CF4D6
:10410000F401EA0DFB1D2591359145915491C701AC
:10411000B6010E94F15A6B017C0189899A89801B42
:10412000910B9A8B898B159507955A9494E0A91A4F
:10413000B108D6CF00E210E045E0542E1A8A198A61
:10414000ABCFC701B6010E94825F4B015C012B011E
:104150003C0106E080E492E4AFE0B0E08B8B9C8B06
:10416000AD8BBE8B102F01509AE0491651046104AB
:104170007104C8F06B897C898D899E892AE030E0C2
:1041800040E050E00E94395E2B8B3C8B4D8B5E8B68
:10419000C301B2012AE030E040E050E00E94395E05
:1041A00029013A01DFCFC501B4010E94905A9B0159
:1041B000AC01C701B6010E949C5E6B017C016B895A
:1041C0007C898D899E890E94905A9B01AC01C70110
:1041D000B6010E94F15A2B013C010E94825F6B01E3
:1041E0007C010E94905A9B01AC01C301B2010E9464
:1041F0009C5E9B01AC010E949D5E0E94825FC60E88
:10420000D71EE81EF91E8B899C89AD89BE89C81608
:10421000D906EA06FB06D8F09FEF891A990AA90A7F
:10422000B90AA989BA89AB2B39F1BAE08B16910486
:10423000A104B10408F1E989FA893196FA8BE98B76
:10424000C12CD12C7601812C912C540183949AE0BD
:10425000492E512C612C712CC701B601A30192018A
:104260000E94395E672B682B692B51F4111644F4B8
:1042700069017A011150F0CFC12CD12C7601E7CF22
:10428000B501A401C1010E94121F112371F14E0159
:10429000F1E18F0E911C012F54018AE0482E512C20
:1042A000612C712C015068F0C701B601A301920185
:1042B0000E94395E605DD4016E934D0169017A01FF
:1042C000F1CF812F90E0BC0160957095F501E81B5E
:1042D000F90B31978EE2808344275527461B570BF5
:1042E0006A0D7B1DC1010E94AB1EE989FA89F7FFA7
:1042F0002AC067E474E0C1010E945E1F69897A895F
:10430000719561957109C1010E94E01ED1019496D9
:104310008D919C9166960FB6F894DEBF0FBECDBF0F
:10432000DF91CF911F910F91FF90EF90DF90CF9091
:10433000BF90AF909F908F907F906F905F904F90C5
:104340003F902F90089529893A89232BF9F265E649
:10435000C1010E94621E69897A89D5CF6DE5C101CC
:104360000E94621EF10184A195A1D4CF6BE7C10127
:104370000E94621ED8010D911C910115110509F1D1
:10438000F80166817781C1010E947E1E6AE3C10146
:104390000E94621EB101C8010E94681FD8011596D3
:1043A0008C91882371F0B8E08B02C0011124080FB2
:1043B000191F0115110529F06CE2C1010E94621E4E
:1043C000DCCF6DE7CCCF6D917C91C1010E947E1E48
:1043D000C9CFCD90DD90ED90FC906DE2C1010E94BF
:1043E000621EB701A601C1010E94121FBBCF4D91F1
:1043F0005D916D917C91F7CFF80180819181A281CF
:10440000B3816AE474E0892B8A2B8B2B09F0DBCD16
:104410006FE474E0D8CD0E94C760AF92BF92CF9294
:10442000DF92EF92FF920F931F93CF93DF9300D011
:104430001F92CDB7DEB78C016B017A0180912F07F7
:104440008333E9F45B016801C40ED51EC016D106A2
:10445000A9F10E94D6098FE00E94E109812F0E94F4
:10446000E109802F0E94E1090F5F1F4F80E00E9449
:10447000E109F50181935F010E94CC09E7CF843304
:1044800069F50E94D60919830A838F2D8F778B8354
:10449000EC8264E070E0CE0101960E94B209A701AF
:1044A00070E060E0C6010E94E760E114F10421F0D1
:1044B000B701C6010E94B2090E94CC09C7010F9042
:1044C0000F900F900F90DF91CF911F910F91FF9060
:1044D000EF90DF90CF90BF90AF9008950E94D609E3
:1044E0000F3F110509F030F419820A831B8263E043
:1044F00070E0D1CF17FD0BC019820A8333E0169507
:1045000007953A95E1F7007E08600B83F0CFC8016C
:1045100026E0969587952A95E1F7807E19830A8390
:104520000115104C18F480618B83E1CF8861FCCFBA
:10453000CF93DF931F92CDB7DEB72091300730E0E5
:10454000322F2227260F371F90E0982F882741E02F
:1045500050E0BE016F5F7F4F820F931F0E940D22BC
:1045600089810F90DF91CF910895CF93C82F462F67
:1045700061E070E00E94F40A61E070E08C2F0E941C
:1045800098228111F9CFCF910895CF93C82F80E55C
:1045900091E00E94A00468E070E08C2FCF910C9411
:1045A000B522CF93C82F80E591E00E94A00460E17E
:1045B00070E08C2FCF910C94B522CF93DF93EC0158
:1045C000888D883020F40E94D12288E0888FDF9186
:1045D000CF910895CF93C82F80E591E00E94A00469
:1045E00063E070E08C2FCF910C949822CF93DF93EF
:1045F000EC018C858830D0F40E94EA22843189F065
:10460000882379F0883169F021E08C3159F4E88110
:10461000F9810084F185E02DCE01199521E0892BE7
:1046200009F420E0822FDF91CF91089580E0FBCF45
:10463000CF92DF92EF92FF92CF93DF93EC018C85C4
:10464000883068F40E94C5220E9414086B017C0126
:104650008C850E94EA22811109C088E08C87DF9155
:10466000CF91FF90EF90DF90CF90089561E070E0E0
:1046700080E090E00E94E1070E941408AB01BC01B9
:104680004C195D096E097F098D859E85B0E0A0E01B
:10469000481759076A077B07D8F28C850E94D122F8
:1046A000DCCFCF93FC01C08D80E591E00E94A00497
:1046B00060E270E08C2F0E94B52262E070E08C2FE7
:1046C0000E94982284FD16C062E070E08C2F0E9448
:1046D000982283FF0AC048E162E070E08C2F0E94BC
:1046E000F40A80E090E0CF91089580E591E00E9487
:1046F000A004E3CF40E162E070E08C2F0E94F40A56
:1047000081E0F0CFCF93DF931F92CDB7DEB741E0CA
:1047100050E0BE016F5F7F4F90E080E00E940D226D
:1047200089810F90DF91CF910895CF93DF93C4E1FA
:10473000D0E00E948223882361F061E070E080E095
:1047400090E00E94E1072197A1F780E0DF91CF91EF
:10475000089581E0FBCFCF92DF92EF92FF920F930B
:104760001F93CF93DF93CDB7DEB7C454D1090FB6F3
:10477000F894DEBF0FBECDBFFC0182819381A4817E
:10478000B58123968CAF9DAFAEAFBFAF239721E02D
:1047900023962FAF239723964CAD5DAD6EAD7FADC5
:1047A00023974BAB5CAB6DAB7EAB89AF9AAFABAF36
:1047B000BCAF8DA79EA7AFA7B8AB28AB4DA55EA594
:1047C0006FA578A94FA358A769A77AA72EAB4BA9C5
:1047D0005CA96DA97EA949A35AA36BA37CA38B8F67
:1047E0009C8FAD8FBE8F45EC53E05C8B4B8B3FEFC6
:1047F0003D8B3E8B3F8B188E5E874D872AA7CFA0BF
:10480000D8A4E9A4FAA4CF86D88AE98AFA8A2CA384
:1048100009A11AA12BA13CA109871A872B873C87E4
:104820005A8349838B839C83AD83BE8380913107F8
:1048300081119DC060E372E080E090E00E94E1079A
:104840001FB7F89480912E07811127C0EEE4F8E09D
:104850008491E8E0F8E09491E82FF0E0EE0FFF1F7C
:10486000E754F84FA591B491EC91E92321F461E06C
:1048700085E30E945D0761E085E30E948B078CB5AC
:1048800080618CBD8CB580648CBD61E084E30E9446
:104890008B0761E083E30E948B0780912E078F5F77
:1048A00080932E071FBFE3E2F8E0E491F0E0EE0F03
:1048B000FF1FE156F84F8591949190932D078093B7
:1048C0002C07EDEDF7E0E491E0932B0761E08AE03F
:1048D0000E948B070E94CC0980E591E00E94A00411
:1048E00084E380932F0780E80E94960A0E94952314
:1048F000882309F472C088E00E94960A0E948223ED
:10490000883009F06AC080E10E94960A0E948223E2
:10491000803109F062C080E00E94960A0E948223E2
:10492000182F81115AC041E050E0BE016D5B7F4FEE
:104930008FE190E00E940D2224968FAD2497833062
:1049400009F04BC080E48093300742E06EE170E0F4
:10495000812F0E94F40A42E06FE170E0812F0E94F3
:10496000F40A1F5F183089F781E08093310780E5F2
:1049700091E00E94A00446E050E06DE47BE089E015
:1049800090E00E94E80944E050E0BE016D5F7F4F77
:104990008FE090E00E94E80944E050E0BE01615FD2
:1049A0007F4F81E090E00E94E80944E050E0BE01C2
:1049B0006B5E7F4F85E090E00E94E80981E08C8784
:1049C00089859A85AB85BC858093C6099093C70974
:1049D000A093C809B093C9096FC087E380932F07DC
:1049E00080E80E94960A0E949523882339F188E086
:1049F0000E94960A0E948223883001F580E10E947D
:104A0000960A0E948223182F8031C1F480E00E9410
:104A1000960A0E948223811111C041E050E0BE013C
:104A20006D5B7F4F89E390E00E940D2224968FAD4D
:104A30002497843019F41093300796CF83E3809342
:104A40002F0780E80E94960A0E949523882391F1FF
:104A500080E10E94960A0E948223803159F582E10A
:104A60000E94960A0E948223823121F580E00E94F2
:104A7000960A0E94822381111DC084E08093300732
:104A800015E525961FAF259741E050E0BE016C5B10
:104A90007F4F8BE190E00E94E80924961FAF249796
:104AA00041E050E0BE016D5B7F4F8AE190E00E94E3
:104AB000E8095ACF10922F07CC5BDF4F0FB6F8945E
:104AC000DEBF0FBECDBFDF91CF911F910F91FF9041
:104AD000EF90DF90CF9008951F93CF93DF931F92B5
:104AE000CDB7DEB7182F80E591E00E94A004812F9A
:104AF0000E94A90A27E0129FF0011124E351F94F07
:104B000022813381377041E050E0BE016F5F7F4FFB
:104B1000820F931F0E940D2289810F90DF91CF9108
:104B20001F910895FC01808D883040F4218D328DD5
:104B3000232B21F00E946C2590E008958FEF9FEFCA
:104B40000895CF93DF93FC012485283028F08FEF60
:104B50009FEFDF91CF910895EC010190F081E02D5E
:104B60000084F185E02D1995892B89F38C850E94AD
:104B70006C2590E0EECFDA01E0913007F0E0FE2FF7
:104B8000EE27E60FF71F90E0982F8827A901BD01B7
:104B90008E0F9F1F0C940D228F929F92AF92BF9207
:104BA000CF92DF92EF92FF920F931F93CF93DF93F9
:104BB000CDB7DEB760970FB6F894DEBF0FBECDBF9E
:104BC0007C0190912F07911115C018E0812F6096FC
:104BD0000FB6F894DEBF0FBECDBFDF91CF911F910E
:104BE0000F91FF90EF90DF90CF90BF90AF909F908C
:104BF0008F90089508E0933309F404E06B0180E599
:104C000091E00E94A0049E012F5F3F4F590149018E
:104C100010E063E070E0812F0E949822F4018193FC
:104C20004F018823C1F01F5F0113F3CF00E0F501AE
:104C300081915F018D3149F0883139F08A5182309C
:104C400020F00F5F1013F3CFC0CF60E170E0802F32
:104C50000E94B522102FA12EB12C83EE93E0019774
:104C6000F1F742E870E060E0812F0E94F40A4FEF14
:104C700062E070E0812F0E94F40AB601C114D104F1
:104C800091F4809100029091010201968115F0EC5F
:104C90009F0708F45CC0909301028093000260912A
:104CA000000270910102812F0E94DE0A86E0ECE092
:104CB000F2E0DE01199601900D928A95E1F7F70175
:104CC00083818F778C8784818D8785818E87A701EB
:104CD0004E5F5F4F24E030E06CE070E0812F0E9477
:104CE000B70AB601812F0E94C80A26E030E0AE0163
:104CF000475F5F4F66E070E0812F0E94B70A61E076
:104D000070E0812F0E94B52227E02A9DC0012B9DD3
:104D1000900D11249C012351394F7901F901118221
:104D2000108222E030E0AE01415F5F4F68E270E048
:104D3000812F0E94BB258F859889982789279827DE
:104D4000F701938382831682158214823FCF80E01D
:104D500090ECA1CFCF92DF92EF92FF920F931F932F
:104D6000CF93DF9300D000D0CDB7DEB78C016B01BD
:104D70007A01FC01808D883010F40E94D12285ECEC
:104D800093E09A838983F60182819381A481B5811E
:104D90008B839C83AD83BE83B701CE0101960E94B5
:104DA000CC25F801808F8830A0F4F586E486128E39
:104DB000118E81E026960FB6F894DEBF0FBECDBFF0
:104DC000DF91CF911F910F91FF90EF90DF90CF90E7
:104DD000089580E0EFCF7F928F929F92AF92BF9223
:104DE000CF92DF92EF92FF920F931F93CF93DF93B7
:104DF0001F921F92CDB7DEB7782E8B014A01590161
:104E000022E030E0AE014F5F5F4F64E270E00E944D
:104E1000BB25E980FA80FE24EF24FE24E00EF11E7B
:104E20009701377040912F07072D10E0433309F0A9
:104E300042C0085F1F4F102F0027110F110F110FD5
:104E4000C901800F911F4733C9F1A9014A0D5B1DAC
:104E50004130584098F160E078E06B01C21AD30A03
:104E6000A601B4010E94E809A5014C195D09B4012D
:104E70006C0D7D1DC8010E94E809EA0CFB1CF9823B
:104E8000EA8222E030E0AE014F5F5F4F64E270E003
:104E9000872D0E94B70A0F900F90DF91CF911F913D
:104EA0000F91FF90EF90DF90CF90BF90AF909F90C9
:104EB0008F907F900895005F1F4FBDCFA501B40173
:104EC000DACFEF92FF921F93CF93DF931F921F923F
:104ED000CDB7DEB7182F22E030E0AE014F5F5F4F55
:104EE00060E270E00E94BB25E980FA80FE24EF2496
:104EF000FE2422E030E0AE014F5F5F4F60E270E0E1
:104F0000812F0E94BB2589819A819827892798271C
:104F1000E816F90689F487E0189FF0011124E3519F
:104F2000F94FF582E482C7010F900F90DF91CF9186
:104F30001F91FF90EF9008957C01DBCF1F93CF93DB
:104F4000DF93182F80E591E00E94A004812F0E943A
:104F50006127EC0163E070E0812F0E949822873185
:104F600021F08C3111F0D0E0C0E0CE01DF91CF9183
:104F70001F910895CF93DF93EC018C85883060F406
:104F80000E94EA22873111F08C3131F48C850E9425
:104F90009E278115984088F3DF91CF910895FC01F9
:104FA0008485883010F40C949E2790E080E008956A
:104FB0009F92AF92BF92CF92DF92EF92FF920F93A8
:104FC0001F93CF93DF938C015B01942EE52EFC01A0
:104FD000C688D788F08C80E591E00E94A0048F2DD0
:104FE0000E946127C92DDE2D8C179D0708F4EC0166
:104FF0009E01A501B6018F2D0E94EB26F80186893E
:1050000097898C0F9D1F978B868BCE01DF91CF9157
:105010001F910F91FF90EF90DF90CF90BF90AF90D6
:105020009F9008958F929F92AF92BF92CF92DF92FE
:10503000EF92FF920F931F93CF936C015B018A0154
:10504000FC01C485C830F0F57A014130584018F0B1
:10505000E12C88E0F82E80E591E00E94A0048C2FDE
:105060000E9461274C0163E070E08C2F0E9498221F
:10507000873111F08C3149F58E149F0460F380E57F
:1050800091E00E94A0049701A50170E060E08C2FE0
:105090000E94EB2660E270E08C2F0E94B52262E055
:1050A00070E08C2F0E94982284FD17C063E070E0AE
:1050B0008C2F0E94982281110BC081E090E0F601B4
:1050C0009383828310E000E010C0F12CE12CD7CF55
:1050D00080E591E00E94A004E2CF40E162E070E050
:1050E0008C2F0E94F40AEF2841F3C801CF911F9141
:1050F0000F91FF90EF90DF90CF90BF90AF909F9077
:105100008F900895FF920F931F93CF93DF931F9279
:105110001F92CDB7DEB7F82E22E030E0AE014F5F30
:105120005F4F66E270E00E94BB2509811A8110275B
:105130000127102722E030E0AE014F5F5F4F66E2AB
:1051400070E08F2D0E94BB2589819A81982789273D
:1051500098270817190749F4C8010F900F90DF919D
:10516000CF911F910F91FF9008958C01E3CF1F9372
:10517000CF93DF93182F87E0189FE0011124C351CC
:10518000D94F88819981009761F480E591E00E9470
:10519000A004812F0E9482282E81821B910999836D
:1051A0008883DF91CF911F910895FC018485883019
:1051B00010F40C94B72890E080E008954F925F922D
:1051C0007F928F929F92AF92BF92CF92DF92EF9297
:1051D000FF920F931F93CF93DF931F921F92CDB730
:1051E000DEB7782E6B014A01A82EB12C27E0829FF2
:1051F000C0011124FC01E351F94F7F0100811181AD
:1052000080E591E00E94A0040815190554F4872D4B
:105210000E948228F70126818C01021B110911834B
:1052200000830115110529F563E070E0872D0E94C8
:105230009822843159F0882349F001E010E08C3144
:1052400011F410E000E0119501951109C8010F90CB
:105250000F90DF91CF911F910F91FF90EF90DF9012
:10526000CF90BF90AF909F908F907F905F904F9026
:105270000895801691060CF4840187E08A9DF00160
:105280008B9DF00D1124E351F94FE280F380C1149E
:10529000D10451F12701F7E05F22872D0E94A90A6E
:1052A000840D951D20912F07273309F453C09801D1
:1052B000240D351D2130384008F44CC020E038E082
:1052C000490184189508A401B6010E940D22260107
:1052D000480C591C6801C818D908872D0E94A90AD2
:1052E000A601B2010E940D22E00EF11E87E08A9D08
:1052F000F0018B9DF00D1124E351F94FF382E2820E
:1053000020813181201B310B318320838681800FE6
:10531000912F911D8A3F910510F4232BF1F487E022
:105320008A9DF0018B9DF00D1124E351F94F1682F7
:10533000F982EA8222E030E0AE014F5F5F4F68E21F
:1053400070E0872D0E94B70A60E470E0872D0E940C
:10535000B5227CCFA801B601C5CF868377CFCF9386
:10536000DF93FC01218D328D2115310529F48FEF5A
:105370009FEFDF91CF910895EC01808D4217530785
:1053800008F0A9010E94DE281816190684F7298D55
:105390003A8D281B390B3A8F298FEBCF0F931F9330
:1053A000CF93DF931F92CDB7DEB7FC01218D328DF5
:1053B000232B41F48FEF9FEF0F90DF91CF911F913F
:1053C0000F9108958C0141E050E0BE016F5F7F4F67
:1053D000FC01808D0E94DE28181619065CF7F80182
:1053E000818D928D0197928F818F898190E0E4CF9A
:1053F000CF93DF931F92CDB7DEB741E050E0BE01FF
:105400006F5F7F4FFC0184850E94DE281816190605
:1054100034F4898190E00F90DF91CF9108958FEF60
:105420009FEFF9CFFC018485883010F40C94DE28BE
:1054300090E080E008958F929F92AF92BF92CF92BA
:10544000DF92EF92FF920F931F93CF93DF9300D0E1
:1054500000D000D01F92CDB7DEB790912F079111E9
:1054600015C018E0812F2A960FB6F894DEBF0FBE44
:10547000CDBFDF91CF911F910F91FF90EF90DF9003
:10548000CF90BF90AF909F908F90089528E0F22E1C
:10549000933311F494E0F92E6B01082F80E591E02D
:1054A0000E94A0049E012F5F3F4F5901490110E067
:1054B00063E070E0812F0E949822F40181934F01F4
:1054C0008823C1F01F5FF112F3CFF12CF501919108
:1054D0005F019D3149F0983139F09A51923020F0B6
:1054E000F3941F11F3CFBDCF60E170E08F2D0E94C8
:1054F000B5221F2DE12EF12C83EE93E00197F1F7F9
:10550000402F70E060E0812F0E94F40A4FEF62E0CC
:1055100070E0812F0E94F40AB601CD2889F48091B1
:1055200000029091010201968115F0EC9F0798F11D
:105530009093010280930002609100027091010239
:10554000812F0E94DE0A61E070E0812F0E94B52267
:1055500027E02E9DC0012F9D900D11249C01235109
:10556000394F7901F9011182108222E030E0AE0159
:10557000475F5F4F68E270E0812F0E94BB258985FD
:105580009A85982789279827F70193838283168223
:105590001582148267CF80E090ECCACF0F931F93DF
:1055A000CF93DF93EC018B01888D883010F40E943B
:1055B000D122B80182E00E941B2A888F883050F4E3
:1055C0001D870C871A8E198E81E0DF91CF911F9174
:1055D0000F91089580E0F9CFCF92DF92EF92FF9282
:1055E0001F93CF93DF93EC017B016A018C85883098
:1055F00048F40E94EA22882319F08C850E94C52273
:1056000088E08C87F70182819381A481B58100971E
:10561000A105B10551F490E080E0DF91CF911F9199
:10562000FF90EF90DF90CF9008958F3F9F4FAF4F47
:10563000BF4F89F370E060E081E20E941B2A182FBF
:105640008C87883040F780E591E00E94A004A70194
:105650004E5F5F4F24E030E06CE070E0812F0E94ED
:10566000B70AB601812F0E94C80A64E070E0812F5A
:105670000E94B5220E9414086B017C018C850E9457
:10568000EA22873111F18C3101F1882321F20E9445
:105690001408AB01BC014C195D096E097F098D85A9
:1056A0009E85B0E0A0E084179507A607B70738F0FD
:1056B00061E070E080E090E00E94E107DFCF8C8540
:1056C0000E94D12288E08C87A6CF81E090E0A5CF10
:1056D0000F931F93CF93DF931F921F92CDB7DEB727
:1056E000FC0124852830E0F48C0180E591E00E94E3
:1056F000A00422E030E0AE014F5F5F4F60E170E058
:10570000F80184850E94BB2589819A819827892781
:1057100098270F900F90DF91CF911F910F910895CF
:1057200090E080E0F6CF0F931F93CF93DF931F920B
:105730001F92CDB7DEB7FC0124852830E0F48C0140
:1057400080E591E00E94A00422E030E0AE014F5FCE
:105750005F4F64E070E0F80184850E94BB25898179
:105760009A819827892798270F900F90DF91CF91E2
:105770001F910F91089590E080E0F6CF0F931F9353
:10578000CF93DF9300D000D01F921F92CDB7DEB72A
:105790008C01D80159964D915C915A97411551054C
:1057A00051F0ED91FC91048CF58DE02D70E060E0FE
:1057B000C8011995EECFF801808D0E94B728892B7A
:1057C000B1F148E050E0BE016F5F7F4FD8015896BD
:1057D0008C910E94DE2818161906F4F4D801509610
:1057E00084E0FE01319601900D928A95E1F78D815A
:1057F00090E0982F88272E81820F911DF801958BBC
:10580000848B8F81282F30E0322F22278885820FCA
:10581000932F911D928F818F28960FB6F894DEBF3B
:105820000FBECDBFDF91CF911F910F91089590E0F2
:1058300080E0F2CF4F925F926F927F928F929F9211
:10584000AF92BF92CF92DF92EF92FF920F931F938E
:10585000CF93DF93CDB7DEB763970FB6F894DEBF73
:105860000FBECDBF7C016B013A01FB0120E090E04F
:1058700080E06AE03191332309F461C040ED430FC9
:105880004A3008F04DC0689FA001699F500D112457
:10589000CA01C097830F911D37FD9A958F3F9105DF
:1058A00049F340F3F701428153816481758180910E
:1058B000D2099091D309A091D409B091D509481784
:1058C00059076A077B0709F40DC28701085F1F4F5C
:1058D0000E9414086F7077277C5FC8010E94CE2A4F
:1058E000813009F004C285EC93E09A838983F70143
:1058F00082819381A481B5818B839C83AD83BE8398
:1059000045E350E0BE016F5F7F4FC8010E94490B25
:10591000892BA9F5D12CC12CC8010E94DD2217C00A
:105920003E3209F0BFCF233009F4BCCFD301A20F20
:10593000B11D12968C932F5F90E080E09BCF2330B7
:1059400009F0B0CFF3018583CC24C394D12CC601D8
:1059500063960FB6F894DEBF0FBECDBFDF91CF9137
:105960001F910F91FF90EF90DF90CF90BF90AF907D
:105970009F908F907F906F905F904F9008950E94BE
:105980001408F7017783668342E050E0B7016A5F4D
:105990007F4FC8010E94D82781E090E09A838983D5
:1059A00042E050E0BE016F5F7F4FC8010E94D827E0
:1059B00080E091E09A83898342E050E0BE016F5F0E
:1059C0007F4FC8010E94D8271A82198242E050E016
:1059D000BE016F5F7F4FC8010E94D82742E050E0B0
:1059E000BE016F5F7F4FC8010E94D82742E050E0A0
:1059F000BE016F5F7F4FC8010E94D8275601F60194
:105A00008081882301F16501F60181912F018823AE
:105A100011F08E32B1F446018A189B08181419044B
:105A200074F48D8641E050E0BE01635F7F4FC80192
:105A30000E94D827A401B501C8010E94D8275201AD
:105A4000DECF6201E1CF1D8641E050E0BE01635F21
:105A50007F4FC8010E94D827C12CDD24D394DA825D
:105A6000C98242E050E0BE016F5F7F4FC8010E94D3
:105A7000D827DA82C98242E050E0BE016F5F7F4FD3
:105A8000C8010E94D827C8010E945123892B09F41C
:105A900041CFF3E0AF2EB12C230122E0420E511C86
:105AA000D4C0F7014281538164817581808D918DCD
:105AB000A28DB38D481759076A077B0709F008C103
:105AC000848D958DC59709F003C181A192A15DEFE9
:105AD000C52EDD24DA940C970CF4ADC04CE050E0F8
