:100000000C94F4070C9425080C9425080C942508EE
:100010000C9425080C9425080C9425080C942508AC
:100020000C9425080C94855C0C94855C0C94855C80
:100030000C9425080C9425080C9425080C9425088C
:100040000C9425080C9425080C9425080C9425087C
:100050000C9425080C9425080C9425080C943B5C02
:100060000C9425080C94115C0C94E75B0C94250807
:100070000C9425080C9425080C9425080C9425084C
:100080000C9425080C9425080C9425080C9425083C
:100090000C94BD5B0C94935B0C9425080C94250880
:1000A0000C9425080C9425080C9425080C9425081C
:1000B0000C9425080C9425080C9425080C9425080C
:1000C0000C9425080C9425080C9425080C94695B65
:1000D0000C943F5B0C9425080C94155B0C94EB5A24
:1000E0000C9425080C94D0490C94CB140C94551303
:1000F0000C94A00A0C940D2F0C94015D0C94FE4FEF
:100100000C9474410C94F02B0C94DB2B0C941A146B
:100110000C94B60A0C94900A0C9451130C94CF08CA
:100120000C94A7410C94E01A0C94890A0C94960D37
:100130000C94DE1A0C9457390C941D170C94FA2861
:100140000C94BB0A0C94470D0C94CC130C945F34A4
:100150000C94EB410C9471520C94EF2D0C946709A4
:100160000C948B150C947E0D0C9494480C94B20A4C
:100170000C947F480C9446410C94AE0A0C942017C2
:100180000C94BC0A0C9452130C94731B0C941D1CFD
:100190000C94EA3D0C949A3E0C94E8420C94B42FD3
:1001A0000C94CA3C0C94325E0C9424120C94A81447
:1001B0000C9464130C94C2410C9494130C94495EF7
:1001C0000C94F92B0C9456170C949A0A0C94A80AC8
:1001D0000C94892F0C9455420C9433290C9419518A
:1001E0000C9403430C943C120C940F0D0C94860D4C
:1001F0000C9428170C9455500C94123F0C946A38A8
:100200000C94DB0F0C9411170C9463130C94C45DC5
:100210000C944C5E0C94D8280C94192E0C94300D30
:100220000C9488150C948A150C942C430C94CC1ABD
:100230000C94723C0C945D350C94F3490C94332E61
:100240000C94DA1A0C9495130C94B9470C94530936
:100250000C94C00A0C948D0A0C94C7140C94750964
:100260000C94CB090C949C4A0C94B3290C94C75D54
:100270000C94180A0C94D02D0C94960A0C94E3401C
:100280000C94810A0C943D200C94820D0C94CB4765
:100290000C94BF280C9482150C940F520C944409B2
:1002A0000C94F81C0C94423E0C94332C0C94B0111A
:1002B0000C9415140C94D61A0C94CA140C94FE08C1
:1002C0000C94BE360C94BB0F0C94E3130C947B0A75
:1002D0000C94A40A0C9417140C94BC500C94623D1A
:1002E0000C942F5E0C9419140C94AB140C94F7140A
:1002F0000C9411410C9486150C94D2340C94EF2E6E
:100300000C942C520C9488420C9484150C94194A29
:100310000C94D81A0C94250D0C94C2290C94E21A52
:100320000C94C0490C94850A0C94C8110C94811546
:100330000C9477490C94DC1A0C94F62C0C942C42F7
:100340000C94CB2A0C941B170C94B3420C94A3313D
:100350000C9458130C9416140C940D170C94AA14A6
:100360000C947F0800407A10F35A00A0724E1809CE
:100370000010A5D4E80000E87648170000E40B540C
:10038000020000CA9A3B000000E1F50500008096DB
:100390009800000040420F000000A086010000000D
:1003A000102700000000E8030000000064000000C7
:1003B00000000A00000000000100000000002C7690
:1003C000D888DC674F0823DFC1DFAE59E1B1B796AB
:1003D000E5E3E453C63AE651997696E8E6C2842608
:1003E000EB898C9B62ED407C6FFCEFBC9C9F40F2E4
:1003F000BAA56FA5F490055A2AF75C936B6CF96760
:100400006DC11BFCE0E40D47FEF520E6B500D0ED24
:10041000902E0300943577050080841E080000208C
:100420004E0A000000C80C333333330F986E12832A
:100430001141EF8D2114893BE65516CFFEE6DB18FE
:10044000D1844B381BF77C1D901DA4BBE4242032C3
:1004500084725E228100C9F124ECA1E53D27204091
:10046000003B506172656E7449643A003B6C684FA2
:100470006E3A003B50696E3A003B547970653A0021
:1004800049643A002040003B506172656E744964D3
:100490003A003B6C684F6E3A003B50696E3A003B45
:1004A000547970653A0049643A004D5154542063C0
:1004B0006F6E6E656374696F6E204661696C65640A
:1004C000004D7174745265636F6E6E656374005293
:1004D000657365740023005D3A005B0054727969AE
:1004E0006E6720746F207265636F6E6E6563742033
:1004F0004D515454004661696C6564206C6F6F7097
:10050000005D3A005075626C697368205B0053753A
:1005100062736372697074696F6E3A002040003BC9
:1005200050696E3A003B547970653A0049643A006C
:1005300020697320616273656E74206F6E20746829
:10054000652062757300556E69743A0043616E27C9
:10055000742066696E642062757320666F72207500
:100560006E69743A200042616420636F6E76657232
:1005700073696F6E207479706520666F7220756E76
:1005800069742000204020003B50696E3A003B54C3
:100590007970653A0049643A00CDCCCC3D0AD72346
:1005A0003C17B7D13877CC2B329595E6241FB14F45
:1005B0000A0000803FCDCCCC3D6F12833A95BFD668
:1005C000337D1D9026B3CE010C000020410000C8F1
:1005D0004200401C4620BCBE4CCA1B0E5AAEC59DF4
:1005E0007420497320756E617661696C61626C6517
:1005F000206F6E207468652062757300556E697493
:100600003A200054656D70206973206661696C65DD
:10061000643A2000506F7274206E6F7420666F759C
:100620006E64002040003B466163746F723A003B89
:1006300053657269616C54583A003B536572696145
:100640006C52583A003B53657269616C3A003B54F6
:100650007970653A0049643A002040003B5061726D
:10066000656E7450696E3A003B506172656E7449F4
:10067000643A003B7374617475733A003B6C684F65
:100680006E3A003B50696E3A003B547970653A000F
:1006900049643A002040003B7374617475733A00FA
:1006A0003B547970653A0049643A00205472756E83
:1006B00063617465642076616C756520736176652D
:1006C0006420697320270020202020202020002C77
:1006D000202E2E2E292070617373656420756E7430
:1006E00065726D696E6174656420627566666572B7
:1006F000206F66207374726C656E203E3D004572FB
:10070000726F723A206372656174655361666553F6
:100710007472696E6746726F6D436861724172727E
:10072000617928004572726F723A20637265617454
:100730006553616665537472696E6746726F6D4387
:100740006861725074725769746853697A652800D9
:1007500020496E697469616C2076616C75652061F1
:10076000726720776173202700202020202020201E
:100770000020666F7220696E697469616C20766111
:100780006C75652E002C202E2E2E29206E6565643A
:1007900073206361706163697479206F662000451E
:1007A00072726F723A2053616665537472696E6734
:1007B0002800206578636565647320617661696CE3
:1007C00061626C65206D656D6F72792E2052657463
:1007D00075726E696E67207A65726F2063617061F1
:1007E000636974792053616665537472696E672E0C
:1007F000002C202E2E2E29207265717565737420B1
:1008000073697A653A004572726F723A2053616675
:1008100065537472696E6728002C202E2E2E2920B5
:10082000776173207061737365642061204E554C4D
:100830004C20706F696E74657220666F7220696EED
:10084000697469616C2076616C75652E0045727201
:100850006F723A2053616665537472696E6728003F
:100860002C202E2E2E2920776173207061737365E2
:10087000642061204E554C4C20706F696E74657217
:1008800020666F72206974732063686172206172E0
:10089000726179004572726F723A205361666553D6
:1008A0007472696E6728002C202E2E2E292070610C
:1008B000737365642061207A65726F206C656E6762
:1008C0007468206172726179004572726F723A20A9
:1008D00063726561746553616665537472696E67AE
:1008E00046726F6D43686172417272617928002CA3
:1008F000202E2E2E2C2030292077617320706173DA
:10090000736564207A65726F20706173736564200B
:10091000666F722061727261792073697A65004531
:1009200072726F723A2063726561746553616665B5
:10093000537472696E6746726F6D4368617241727B
:100940007261795769746853697A6528002C202E82
:100950002E2E292073697A656F662863686172415B
:100960007272617929203D3D2073697A656F66282E
:10097000636861722A292E200A436865636B2079B7
:100980006F75206172652070617373696E67206195
:1009900020636861725B5D20746F206372656174AF
:1009A0006553616665537472696E6746726F6D4315
:1009B0006861724172726179204F522075736520AF
:1009C000636861725B355D206F72206C6172676570
:1009D0007220636C6561722074686973204572725D
:1009E0006F720A2020546F2077726170206120633B
:1009F0006861722A20757365206569746865722064
:100A000063726561746553616665537472696E677C
:100A100046726F6D43686172507472282E2E292CB5
:100A20002063534650282E2E29206F722063726552
:100A300061746553616665537472696E6746726F5F
:100A40006D436861725074725769746853697A654E
:100A5000282E2E292C206353465053282E2E202931
:100A6000004572726F723A2063534641202F206313
:100A7000726561746553616665537472696E674629
:100A8000726F6D43686172417272617928005361BF
:100A90006665537472696E6720636C65616E55702C
:100AA000206465746563746564206275666665724A
:100AB000206F76657272756E206279206578746534
:100AC000726E616C20636F64652E00206F6620304B
:100AD000007772697465007772697465007D200023
:100AE000207B200020496E7075742061726720772A
:100AF000617320002020202020202000203E20752F
:100B0000696E74385F742A20617267207374726C26
:100B1000656E2E00206C656E6774682000777269C0
:100B20007465007772697465002077617320706165
:100B3000737365642061204E554C4C20706F696E54
:100B4000746572007072696E7400636F6E636174B5
:100B500000202700206C656E3A00206361703A0027
:100B6000202D2D2D2000202020202020200053612A
:100B70006665537472696E67002829004572726F4A
:100B8000723A00636F6E63617400005EBCE2613FA5
:100B9000DD83C29C7E20A3FD1F41009D23BE46DB5A
:100BA00065F88C11AF32CA57E974000021002400A7
:100BB00027002A002D00300033000101000004014D
:100BC00007010A0100002200250028002B002E004A
:100BD0003100340002010000050108010B01000092
:100BE00020002300260029002C002F0032000001E5
:100BF00000000301060109010505050507050808B0
:100C00000808020202020A0A080804040404010196
:100C100001010101010103030303030303030407AB
:100C200007070C0C0C0C0C0C0C0C02020202060642
:100C30000606060606060B0B0B0B0B0B0B0B010235
:100C400010202008081020401020408002010201DE
:100C50000804020101020408102040808040201096
:100C600008040201800402018040201008040201EF
:100C70000804020101020408102040800102040857
:100C80001020408000000A0B02090C0D0E0807031B
:100C9000040100000000000000000000000000004F
:100CA0000000000000000000000000000000000044
:100CB0001211100000000000000000000000000001
:100CC0000000000000000000000049502041646462
:100CD000726573732069733A00426F6172642049D0
:100CE00064233A00426F6172642069732072656107
:100CF000647900204020003B746172676574547908
:100D000070653A003B74617267657449643A003BF0
:100D1000746172676574416374696F6E3A003B6F0A
:100D2000726967696E547970653A003B6F726967E2
:100D3000696E49643A003B6576656E743A004964B1
:100D40003A002E204F726967696E206E6F742066BC
:100D50006F756E6400416374696F6E3A002E2054A3
:100D60006172676574206E6F7420666F756E6400C3
:100D7000416374696F6E3A00456E642073756273E7
:100D80006372697074696F6E3A005375627363724F
:100D90006962696E6720556E6974732E2E2E00523B
:100DA00065616420556E6974732066726F6D2045AD
:100DB0004550524F4D00546F6F206D616E79206128
:100DC0007474656D7074206F66204D515454207298
:100DD00065636F6E6E65637400436F6E666967204E
:100DE000696E69742069732066696E6973686564E9
:100DF0000053756273637269626520556E6974731E
:100E00000046696E6973682075706461746520635B
:100E10006F6E66696775726174696F6E28004E75D2
:100E20006D626572206F6620636F6E66696720551C
:100E30006E6974733D0043616E277420637265614F
:100E40007465206120747970656420756E69743AE8
:100E50000043616E27742063726561746520536876
:100E600069667452656769737465724F757400437F
:100E7000616E27742063726561746520436F6E74C0
:100E80006163746F720043616E27742063726561E1
:100E9000746520506F776572204D657465722055BA
:100EA0006E69740043616E277420637265617465B6
:100EB000204F6E655769726520546865726D6F6D5D
:100EC0006574657220556E69740043616E277420E5
:100ED000637265617465204F6E6557697265206243
:100EE000757320556E69740043616E2774206372B8
:100EF000656174652052656C617920556E69740076
:100F000043616E2774206372656174652042757455
:100F1000746F6E20556E69740052455345542121FB
:100F200021007072696E7400636F6E6361740020DB
:100F3000496E707574206172672077617320270095
:100F40002020202020202000203E20636861722A7B
:100F500020617267207374726C656E2E00206C6560
:100F60006E67746820002077617320706173736509
:100F7000642061204E554C4C20706F696E74657210
:100F8000004628220020496E707574206172672027
:100F9000776173200020202020202020002063681B
:100FA000617273206F662074686520696E70757455
:100FB0002E0020666F7220746865206669727374F3
:100FC00020005D290028692E652E20636861725B10
:100FD00000206E6565647320636170616369747974
:100FE000206F662000004C5E11241FBECFEFD1E2BF
:100FF000DEBFCDBF00E00CBF16E0A0E0B2E0EAEE3D
:10100000FEED00E00BBF02C007900D92A23DB107BC
:10101000D9F72BE0A2EDB6E001C01D92AC34B207C7
:10102000E1F717E0C4EFD7E000E006C0219701091F
:10103000802FFE010E94666BC33FD10780E0080746
:10104000A9F70E9436600C94736F0C940000CF9344
:10105000DF93EC01FA013296E60FF71FDC019D01E8
:101060002C1B3D0BCF01861B970B4D91442311F098
:101070004193F5CFAC01421B530B640F751FFB016D
:101080003297308361507109FB012083DF91CF914A
:101090000895E091F30AF091F40A3097A9F0409195
:1010A000F70A5091F80A30E020E02417350764F47D
:1010B000A191B19112966D917C9113976817790760
:1010C00029F02F5F3F4FF1CFB0E0A0E0CD010895B0
:1010D000CF93DF93EB010E944908009751F0DC01A8
:1010E000ED91FC910088F189E02DBE01DF91CF9157
:1010F0001994DF91CF9108958CBD9DBD08950895F9
:101100000F931F93CF93DF9300D000D01F92CDB7E2
:10111000DEB78C01FB01342F498342814A839381DE
:101120009B8324812C8385818D831E82430F5527C9
:10113000551F490F511D240F352F311D820F932F3D
:10114000911D8F83D8018D919C91DC01ED91FC91D3
:101150000084F185E02D1995F801A081B181ED9110
:10116000FC911197892B31F00284F385E02DCD019C
:101170001995E8CF0280F381E02D47E050E0BE01F1
:101180006F5F7F4FCD01199527960FB6F894DEBF9C
:101190000FBECDBFDF91CF911F910F910895FC013C
:1011A000818D928D0895DC01ED91FC910190F0818B
:1011B000E02D1994EF92FF920F931F93CF93DF933B
:1011C0008C017B01D0E0C0E0F701EC0FFD1F6491C2
:1011D000662361F0D801ED91FC910190F081E02D42
:1011E000C8011995892B11F02196EECFCE01DF9120
:1011F000CF911F910F91FF90EF900895AF92BF9202
:10120000CF92DF92EF92FF920F931F93CF93DF93D2
:101210006C017B018B01040F151FEB015E01AE1801
:10122000BF08C017D10759F06991D601ED91FC9123
:101230000190F081E02DC6011995892B79F7C50140
:10124000DF91CF911F910F91FF90EF90DF90CF90A2
:10125000BF90AF900895FC01A089B1898C91A689B7
:10126000B78982FD0FC09C91818D8F5F8F73228D16
:10127000821749F0A18DAE0FBF2FB11D5D969C93D3
:10128000818F08958C910895FC01538D448D252FF5
:1012900030E0842F90E0821B930B541710F0CF9610
:1012A000089501970895FC01918D828D981761F042
:1012B000A28DAE0FBF2FB11D5D968C91928D9F5F59
:1012C0009F73928F90E008958FEF9FEF0895FC0138
:1012D000918D828D981731F0828DE80FF11D858DEB
:1012E00090E008958FEF9FEF0895FC01918D228D7E
:1012F000892F90E0805C9F4F821B91098F73992703
:10130000089588E797E00E94750921E0892B09F488
:1013100020E0822F089585E198E00E94750921E080
:10132000892B09F420E0822F089582EB98E00E9437
:10133000750921E0892B09F420E0822F08958FE4BC
:1013400099E00E94750921E0892B09F420E0822FA1
:101350000895FC01A48DA80FB92FB11DA35ABF4F4A
:101360002C91848D90E001968F739927848FA689A4
:10137000B7892C93A089B1898C91837080648C93F8
:10138000938D848D981306C00288F389E02D8081A7
:101390008F7D80830895EF92FF920F931F93CF93D9
:1013A000DF93EC0181E0888F9B8D8C8D98131AC0A0
:1013B000E889F989808185FF15C09FB7F894EE8987
:1013C000FF896083E889F9898081837080648083E4
:1013D0009FBF81E090E0DF91CF911F910F91FF902F
:1013E000EF900895F62E0B8D10E00F5F1F4F0F73D7
:1013F0001127E02E8C8D8E110CC00FB607FCFACF92
:10140000E889F989808185FFF5CFCE010E94A9097D
:10141000F1CFEB8DEC0FFD2FF11DE35AFF4FF08262
:101420009FB7F8940B8FEA89FB8980818062CFCFC8
:10143000CF93DF93EC01888D8823B9F0AA89BB890B
:10144000E889F9898C9185FD03C0808186FD0DC0F6
:101450000FB607FCF7CF8C9185FFF2CF808185FF17
:10146000EDCFCE010E94A909E9CFDF91CF91089578
:1014700080E090E0892B29F00E949F0981110E9451
:10148000000080E090E0892B29F00E9495098111ED
:101490000E94000080E090E0892B29F00E948B09D7
:1014A00081110E94000080E090E0892B29F00E94C9
:1014B000810981110C94000008958150823108F057
:1014C0005AC0E82FF0E08827E759F54F8F4F0C946A
:1014D000666B890A8D0A7B0A810A850ABB0A900A13
:1014E000960A9A0AA00AA40AA80AAE0AB20ABB0A75
:1014F000B60ABC0AC00A809180008F778093800072
:101500000895809180008F7DF9CF80918000877F42
:10151000F5CF84B58F7784BD089584B58F7DFBCFDB
:101520008091B0008F778093B00008958091B000D3
:101530008F7DF9CF809190008F77809390000895F0
:10154000809190008F7DF9CF80919000877FF5CFBB
:101550008091A0008F778093A00008958091A000D3
:101560008F7DF9CF8091A000877FF5CF80912001FA
:101570008F77809320010895809120018F7DF9CF8E
:1015800080912001877FF5CFCF93DF93282F30E024
:10159000F901EC57F34F8491F901E25CF34FD491D8
:1015A000F901E850F44FC491CC23A1F081110E94BD
:1015B0005D0AEC2FF0E0EE0FFF1FE252F44FA59111
:1015C000B491EC91ED2381E090E009F480E0DF91AB
:1015D000CF91089580E090E0FACF1F93CF93DF93EF
:1015E000282F30E0F901EC57F34F8491F901E25CC8
:1015F000F34FD491F901E850F44FC491CC23A9F0F2
:10160000162F81110E945D0AEC2FF0E0EE0FFF1FF4
:10161000EC53F44FA591B4918FB7F894EC9111115C
:1016200008C0D095DE23DC938FBFDF91CF911F914F
:101630000895DE2BF8CFCF93DF9390E0FC01E25CBE
:10164000F34F24918850944FFC0184918823D1F06A
:1016500090E0880F991FFC01E655F44FA591B491D5
:10166000FC01EC53F44FC591D49161110EC09FB7AA
:10167000F8948C91E22FE0958E238C932881E223BD
:10168000E8839FBFDF91CF9108958FB7F894EC91D5
:10169000E22BEC938FBFF6CF3FB7F89480912707EA
:1016A00090912807A0912907B0912A0726B5A89BF9
:1016B00005C02F3F19F00196A11DB11D3FBFBA2FE4
:1016C000A92F982F8827BC01CD01620F711D811DA4
:1016D000911D42E0660F771F881F991F4A95D1F729
:1016E00008958F929F92AF92BF92CF92DF92EF9226
:1016F000FF926B017C010E944C0B4B015C01C114F9
:10170000D104E104F104B9F00E944C0B6819790985
:101710008A099B09683E73408105910580F321E0A9
:10172000C21AD108E108F10888EE880E83E0981EFD
:10173000A11CB11CE4CFFF90EF90DF90CF90BF9041
:10174000AF909F908F9008952FB7F89460912307E2
:101750007091240780912507909126072FBF089547
:10176000FC0120812EBD9B012150310941F05181A6
:101770000DB407FEFDCF4EB55EBD4193F5CF615070
:101780007109860F971F0DB407FEFDCF2EB5FC0122
:1017900020830895E0912007F091210780819091A6
:1017A0001F07892B80830895E0912007F09121077E
:1017B000908180911F0780958923808308958EBD35
:1017C00000000DB407FEFDCF8EB50895AF92BF9215
:1017D000CF92DF92EF92FF920F931F93CF93DF93FD
:1017E00000D000D01F921F92CDB7DEB78C017B01D5
:1017F0006A01809173078333E1F45801A40EB51E8A
:10180000A016B10609F46FC00E94D40B80EF0E94AD
:10181000DF0B812F0E94DF0B802F0E94DF0B0F5FF9
:101820001F4FF70181917F010E94DF0B0E94CA0BBD
:10183000E7CF5B01A40EB51E8433C1F40E94D40B24
:1018400019830A838D2D80688B83CC8264E070E0DD
:10185000CE0101960E94B00BAE14BF0409F441C042
:10186000F70181917F010E94DF0BF6CF0E94D40B1C
:101870000F3F110509F028F419820A8384E08B8355
:101880000CC017FD17C019820A8333E0169507951F
:101890003A95E1F7007E0C600B8386E0C816D10410
:1018A000A0F5F701DE011496EA15FB0599F0819188
:1018B0008D93FACFC80126E0969587952A95E1F792
:1018C000807E19830A830115104C10F48461D7CFF0
:1018D0008C61D5CFB6016D5F7F4FCE0101960E941E
:1018E000B00B0E94CA0BC60128960FB6F894DEBF53
:1018F0000FBECDBFDF91CF911F910F91FF90EF9061
:10190000DF90CF90BF90AF90089563E070E0CE017C
:1019100001960E94B00BF70181917F010E94DF0BBD
:10192000AE14BF04C1F7DDCFCF93DF931F92CDB7C5
:10193000DEB7898341E050E0BE016F5F7F4F90E0EA
:1019400080E00E94E60B0F90DF91CF91089590E028
:1019500020917307233339F40C96982F990F990F20
:10196000990F80E008954896F8CFDA01E0911E07BC
:10197000F0E0FE2FEE27E60FF71F90E0982F882764
:10198000A901BD018E0F9F1F0C94E60BCF93DF932F
:101990001F921F92CDB7DEB779836A8322E030E0D1
:1019A000AE014F5F5F4F60E170E00E94B50C0F9099
:1019B0000F90DF91CF910895CF93DF931F921F92E5
:1019C000CDB7DEB779836A8322E030E0AE014F5FA6
:1019D0005F4F64E070E00E94B50C0F900F90DF91B4
:1019E000CF910895CF93DF931F92CDB7DEB72091AB
:1019F0001E0730E0322F2227260F371F90E0982F46
:101A00008827498341E050E0BE016F5F7F4F820F1E
:101A1000931F0E94E60B0F90DF91CF910895CF9313
:101A2000DF931F92CDB7DEB76983DC01ED91FC91A6
:101A30000280F381E02D41E050E0BE016F5F7F4FF7
:101A400019950F90DF91CF910895FC019485FB01CA
:101A50008485981303C081E0983008F080E00895F1
:101A6000CF93DF931F92CDB7DEB76983DC01ED9191
:101A7000FC910280F381E02D41E050E0BE016F5FF8
:101A80007F4F19950F90DF91CF9108950895FF92A0
:101A90000F931F93CF93DF93EB01FC01178A168AF4
:101AA0002A81211109C02B81211106C02C8121110D
:101AB00003C02D81222301F141155105E9F08A016E
:101AC000FC01F08C80E591E00E947C08AE014E5F45
:101AD0005F4F24E030E06CE070E08F2D0E94B50C89
:101AE000B8018F2D0E94C60C81E090E0DF91CF916C
:101AF0001F910F91FF90089580E0F7CFFC0184853E
:101B000095850895FC0184899589089520EE33E038
:101B1000FC0131832083FB014089518962897389EB
:101B2000FC0142835383648375830895DC01ED9146
:101B3000FC91048CF58DE02D1994DC0180E061505E
:101B400090F09D919827E92FEF70F0E0E657F44F61
:101B50002491E92FE295EF70F0E0E656F44FE4911E
:101B6000822F8E27ECCF0895DC012C911196ED91F8
:101B7000FC91F8948181822B81839281322F309560
:101B80009323928387E090E00197F1F7818183238B
:101B9000818383E290E00197F1F790817894EFECF4
:101BA000F0E03197F1F7922381E009F480E00895A5
:101BB000FC0190810180F281E02D292F209560FFAA
:101BC00014C0F8948281822382838181892B81834E
:101BD000A3E2B0E01197F1F78281982B9283789479
:101BE00087ED90E00197F1F70895F89482818223C0
:101BF00082838181892B8183AFEFB0E01197F1F768
:101C00008281982B928378948FE090E0EBCFDF92E3
:101C1000EF92FF920F931F93CF93DF93EC01D62E99
:101C2000E42E08E010E0FF24F39461E08D2D8F2175
:101C300009F460E0CE010E94D80DFF0C015011099B
:101C4000A1F7E11010C0F894E981FA8191818881AF
:101C5000809589238183E981FA81928188818095A9
:101C6000892382837894DF91CF911F910F91FF9008
:101C7000EF90DF900895EF92FF920F931F93CF9311
:101C8000DF938C017B0140E065E50E94070EE701D0
:101C900088E0E80EF11C699140E0C8010E94070E3F
:101CA000CE15DF05C1F7DF91CF911F910F91FF9006
:101CB000EF900895FC0190810180F281E02DF8946D
:101CC0008181292F20958223818378943DE743E009
:101CD00050E0315029F1DA011197F1F78081892321
:101CE000C1F3F8948281822382838181892B81834D
:101CF0007894ABE7B7E01197F1F7F89481818223EC
:101D00008183A3E1B1E01197F1F78081982381E00D
:101D100009F080E07894E3E6F6E03197F1F7089572
:101D200080E008956F927F928F929F92AF92BF92C0
:101D3000CF92DF92EF92FF920F931F93CF93DF9397
:101D4000EC017B018A018E819F810E945A0E8111D4
:101D500002C090E037C0B7018E819F810E943B0E88
:101D600040E06EEB8E819F810E94070E7801680132
:101D700089E0C80ED11CAE80BF8088E0882E912CEF
:101D8000712C66246394C5010E94B40D81117628DC
:101D9000660CE1E08E1A9108B1F7F70171927F01AC
:101DA000EC15FD0541F78E819F810E945A0E81300E
:101DB00081F668E0C8010E949D0D91E0F801208540
:101DC0002813C7CF892FDF91CF911F910F91FF90DB
:101DD000EF90DF90CF90BF90AF909F908F907F90CB
:101DE0006F900895CF93DF9300D000D000D0CDB78F
:101DF000DEB7FB012081203199F0AE014F5F5F4FCC
:101E00000E94920E882331F08D818F33A9F020F447
:101E10008F31A1F080E007C08F3521F08F37D1F7E7
:101E20008CE001C08BE029960FB6F894DEBF0FBEA0
:101E3000CDBFDF91CF9108958AE0F5CF89E0F3CF50
:101E4000CF93DF93FC01A481B581109711F480E05A
:101E500029C0EC01ED91FC9111970688F789E02DDE
:101E6000CD0119952FA138A5811119C0232B79F720
:101E70008DEF9FEF98A78FA38C819D81DC01ED9161
:101E8000FC910680F781E02D19958C819D81DC0104
:101E9000ED91FC910488F589E02D1995D8CF81E06A
:101EA000232BA9F6DF91CF910895CF92DF92EF9285
:101EB000FF920F931F93CF93DF9300D01F92CDB764
:101EC000DEB78C01F90180E0DE0111967D019E2FC5
:101ED0009F77EE0FEF2FEE1FFF0BF195309709F074
:101EE0009068D701A80FB11D9C938F5F309779F749
:101EF00090E0FA01E81BF90B6483FA01E81BF90B87
:101F00003596D701BD016E197F09681779071CF452
:101F10006D916193F7CFFC013196D80114968D91A4
:101F20009C917F01E20EF31EBA016E1B7F0B6B5F6B
:101F30007F4FDC01ED91FC910280F381E02DA70140
:101F400019956C010E94A40BF801608B718B828B38
:101F5000938B81E0EC14FD0409F080E00F900F906A
:101F60000F900F90DF91CF911F910F91FF90EF9005
:101F7000DF90CF900895EF92FF920F931F93CF932E
:101F8000DF93EC018B017A010E94A40B688B798BA3
:101F90008A8B9B8B8C819D81DC01ED91FC91028071
:101FA000F381E02DA701B801DF91CF911F910F912F
:101FB000FF90EF9019941F93CF93DF93EC01162FAE
:101FC0000E94A40B688B798B8A8B9B8B8C819D8163
:101FD000DC01ED91FC910190F081E02D612FDF910A
:101FE000CF911F9119948F929F92AF92BF92CF92EF
:101FF000DF92EF92FF920F931F93CF93DF93EC0149
:102000008B010E94A40B4B015C018C819D81DC0142
:10201000ED91FC910084F185E02D1995892BA9F4AF
:102020000E94A40B6B017C01C818D908EA08FB08C0
:102030002C853D85A8EEB3E00E94296AC616D70616
:10204000E806F90610F380E00CC08C819D81DC016C
:10205000ED91FC910284F385E02D1995F8018083C0
:1020600081E0DF91CF911F910F91FF90EF90DF9072
:10207000CF90BF90AF909F908F9008953F924F92D6
:102080005F926F927F928F929F92AF92BF92CF9208
:10209000DF92EF92FF920F931F93CF93DF93CDB711
:1020A000DEB764970FB6F894DEBF0FBECDBF8C01CC
:1020B0006B01DC0116966D917C910E94F30F8111EA
:1020C0001BC060E070E0CB0164960FB6F894DEBFF1
:1020D0000FBECDBFDF91CF911F910F91FF90EF9079
:1020E000DF90CF90BF90AF909F908F907F906F9038
:1020F0005F904F903F900895D8011696ED91FC9116
:1021000030801982E1E0F0E0FB83EA83412C512C1E
:102110003201812C912C54018394BE016F5F7F4F5B
:10212000C8010E94F30F882361F2EA80FB80BFEFB1
:10213000EB1AFB0A8981D8011696ED91FC912A8150
:102140003B81E20FF31F8083E981AE2FAF77B0E0D0
:10215000A50194010E94166A460E571E681E791E3C
:1021600037E0880C991CAA1CBB1C3A95D1F7E7FDF7
:1021700044C0332D307F332E8FEF8E0DD6018C93DC
:10218000B0E33B1353C0F801668177816E0D7F1D6C
:10219000C8010E94F30F882309F493CFD801169643
:1021A0006D917C918A819B810296680F791FC8018D
:1021B0000E94F30F882309F484CFEA80FB80B3E008
:1021C000EB0EF11CD8011696ED91FC91D6018C9185
:1021D000DF01A80FB11D11968C91119790E0982FF7
:1021E000882712962C91820F911D208121FD029645
:1021F000F2E0E0E030E020E01FC0FB82EA829701DD
:102200002530310509F089CF8FEF9FEFD8019896DF
:102210009C938E93979714968D919C91DC01ED91F0
:10222000FC910488F589E02D19954BCFF0E0E0E0B2
:1022300030E020E090E080E0A70170E060E08F2EC9
:102240009E2EA32EB22E481959096A097B094E8386
:102250005F83688779879C0150E040E02B873C874B
:102260004D875E874E815F8168857985480D591D50
:102270006A1D7B1D4A835B836C837D838414950474
:10228000A604B70408F051C0BE016F5F7F4FC801BC
:102290000E94F30F882309F414CFD80195960D906E
:1022A000BC91A02DBC8BAB8BAB2B49F1B0E33B12A7
:1022B00026C0F60120814EEF5FEF6FEF7FEF421BEC
:1022C0005109610971098A819B81AC81BD81480FE7
:1022D000591F6A1F7B1F8B859C85AD85BE85841722
:1022E0009507A607B70758F4AB89BC89ED91FC9117
:1022F00011970190F081E02D6981CD011995F801C8
:1023000080859185E816F90650F489810680F78169
:10231000E02DEE0DFF1D8083FFEFEF1AFF0A2FEF78
:10232000821A920AA20AB20A9DCFD80195968D917F
:102330009C919697892B81F418968D919C91B0E091
:10234000A0E02A813B814C815D8182179307A4071D
:10235000B50710F4F12CE12CB70190E080E0B4CE89
:1023600020911A0730911B072817390771F49091B3
:10237000190780911807981741F0E0911907F0E0CC
:10238000E852F94F808190E008958FEF9FEF089514
:10239000EF92FF920F931F93CF93DF93DC015C9634
:1023A000ED90FC905D97E114F10479F481E090E008
:1023B00013969C938E93129790E080E0DF91CF91DB
:1023C0001F910F91FF90EF9008955196ED91FC9120
:1023D000529750968C915097982F90950FB75E9684
:1023E0002C915E97122F127021FD6095F894208138
:1023F000112319F1282B2083E7012197F1F728E019
:10240000462F50E0308160FF1AC0382B3083E7013F
:102410002197F1F7BA0175956795215089F7112336
:1024200081F08081892380830FBF5C968D919C9180
:102430000197F1F781E090E0C1CF2923DCCF392368
:10244000E5CF9081892BEFCF20911A0730911B07A0
:102450002817390771F4809118072091190790E027
:10246000805C9F4F821B910960E470E00E94526B78
:10247000089590E080E0089520911A0730911B079D
:1024800028173907B9F49091190780911807981700
:1024900089F0E0911907F0E0E852F94F808120912E
:1024A000190730E02F5F3F4F2F7333272093190711
:1024B00090E008958FEF9FEF0895CF93DF93FC0195
:1024C000828D938D892B41F1A0911A07B0911B0742
:1024D000AE17BF0709F1109751F05396CD91DC91DB
:1024E0005497988155968C91809589238883868D01
:1024F0008E7F868F1092180710921907F0931B0792
:10250000E0931A07A389B4898C919589892B8C93C0
:1025100081E0DF91CF91089580E0FBCF4F925F92F1
:102520006F927F928F929F92AF92BF92CF92DF92E3
:10253000EF92FF920F931F93CF93DF9300D000D0C1
:102540001F92CDB7DEB76C01E62E8A01DC01129630
:102550008C911297882321F08D919C910E945D129D
:102560000E94A40B4B015C01F12CB6E0BF1598F161
:102570000E94A40B681979098A099B09F601438016
:10258000548065807680641575058605970530F55D
:1025900080819181DC01ED91FC910084F185E02D39
:1025A0001995181619060CF7F60180819181DC0146
:1025B000ED91FC910284F385E02D1995811102C003
:1025C000FF20B1F2E1E0F0E0EC0FFD1FEF0DF11D97
:1025D0008083F394CACFB7E0FB1611F080E01CC0F3
:1025E00049818A81840F9927991F2B81820F911D20
:1025F0002C81280F392F311D8D81280F311D8E819F
:10260000820F932F911D9F819813E8CFE412E6CF9C
:1026100001151105C1F481E027960FB6F894DEBFCD
:102620000FBECDBFDF91CF911F910F91FF90EF9023
:10263000DF90CF90BF90AF909F908F907F906F90E2
:102640005F904F900895DE011196F80198012B5F7D
:102650003F4F1196E217F307F1F28C918193F9CF76
:102660008091000290910102DC01ED91FC910680C5
:10267000F781E02D19948091000290910102DC0114
:10268000ED91FC910280F381E02D1994809100027C
:1026900090910102DC01ED91FC910190F081E02D1F
:1026A0001994089590E080E0089590E080E0089506
:1026B000FB0122813381FC0133832283FB012481CE
:1026C000FC01248308950895DC01FB01309751F14A
:1026D0008481982F9F7D933529F512964D915C91B9
:1026E00013972281338142175307E1F414969C918A
:1026F0001497891317C018969C9118978085981382
:1027000011C019969C911997818598130BC01A9640
:102710009C911A978285981305C081E01B962C9195
:102720009385291380E008950895DC01FB0130971B
:1027300089F18481823571F512962D913C91139720
:10274000828193812817390729F514968C91149763
:10275000823501F518969C911897808598131AC0B8
:102760001A969C911A978285981314C015969C917D
:102770001597858198130EC016962D913C91179749
:10278000868197812817390729F481E019962C91C1
:102790009185291380E00895CF93DF93EC0161E0E8
:1027A00088850E941B0B61E070E08D81813011F003
:1027B00070E060E0E881F9810088F189E02DCE01C8
:1027C000DF91CF911994DC01FB01309761F1848195
:1027D000803549F512962D913C9113978281938112
:1027E0002817390701F514968C9114978035D9F480
:1027F00019969C9119978185981315C01A969C91EA
:102800001A97828598130FC018969C911897808507
:10281000981309C081E01B964D915C912385348506
:102820004217530709F080E008950895089587E05E
:102830000895089580E008958F929F92AF92BF927D
:10284000CF92DF92EF92FF920F931F93CF93DF937C
:102850008C01DC015496CD90DD90ED90FC90579763
:10286000B0EDCB0EB7E0DB1EE11CF11C0E94A40B07
:10287000C616D706E806F90608F056C0D8015296E3
:10288000ED91FC91C585D6858E819F810E945A0E5F
:1028900040E06CEC8E819F810E94070E488164E4C9
:1028A0008E819F810E94070E8A81882371F1E981C0
:1028B000E9508EEEC82E82E0D82EE33038F4F0E0F6
:1028C000EE0FFF1FE85CFD4FC080D1808B81882315
:1028D000C1F18881811135C00E94A40B4B015C01BC
:1028E0000D2C000CEE08FF088E819F810E94B40D14
:1028F000813059F00E94A40B6C197D098E099F0943
:10290000681579058A059B0578F3D801ED91FC914E
:10291000028CF38DE02DC80119950E94A40BF801DB
:10292000648B758B868B978BDF91CF911F910F9165
:10293000FF90EF90DF90CF90BF90AF909F908F90DF
:102940000895B601DD0C880B990B0E94710BDDCF49
:102950000C941C140895DC01FB013097B1F08481C4
:10296000813399F412962D913C9113978281938132
:102970002817390751F414968C911497813329F450
:1029800081E018962C919085291380E0089590E0BD
:1029900080E008950895DC01FB01309731F18481D6
:1029A000833419F512962D913C911397828193816E
:1029B00028173907D1F414968C9114978334A9F40D
:1029C00018969C911897808598130FC019969C9122
:1029D00019978185981309C081E016964D915C91F5
:1029E000268137814217530709F080E00895089542
:1029F00080339CF08A3324F08F3524F08B3724F415
:102A000081E0089581344CF08B35D4F393ED980F29
:102A100081E09230B0F380E008958B32B9F7F0CFC7
:102A2000FC01848581110AC0A185B285CD01019682
:102A3000928781878C91838781E08487838508953D
:102A40001F93CF93DF93EC01162F0E941015811373
:102A500006C01C8681E0DF91CF911F91089580E030
:102A6000FACFCF93DF93EC01CE010E9410158B308B
:102A70003CF489304CF4882349F081E0888710C009
:102A80008D3011F08032C9F71C86EECF8885811118
:102A90000AC081E090E0C15BDF4F9983888380E0CA
:102AA000DF91CF91089582E090E0F5CFFC01892B72
:102AB00041F094819F779450923018F480819181F5
:102AC000089590E080E00895FC0185859F01275FCF
:102AD0003F4F85FD02C030E020E0B901CF010895ED
:102AE000FC010E969183808393838283805C994F4F
:102AF00095838483978386831086858580788587F0
:102B0000089508958BE0089583E0089589E008957D
:102B100080E00895089580E00895FC01828193810A
:102B20000097C1F0248135814681578124173507EC
:102B300040F0138212820190F081E02D81E08087C5
:102B40000895A9014F5F5F4F55834483820F931F00
:102B5000FC01608308959F92AF92BF92CF92DF9263
:102B6000EF92FF920F931F93CF93DF9300D01F92AA
:102B70001F92CDB7DEB78C010E941015D82EF80138
:102B80001486F12CE12C70EFC72EC8010E9410159D
:102B9000F8011486D81609F4C1C0811119C0F801D2
:102BA000E15BFF4F82E090E09183808380E00F90B3
:102BB0000F900F900F900F90DF91CF911F910F9179
:102BC000FF90EF90DF90CF90BF90AF909F900895CF
:102BD0008C3509F09EC0C8010E9410158823F9F2B7
:102BE000E2EEF3E0853709F088C0F801148664E06E
:102BF000962EB12CA12CC8010E941015882379F2C1
:102C000081344CF48053803148F0F801E15BFF4F90
:102C100083E090E0C9CF8F7D8753F5CF54E0AA0CB5
:102C2000BB1C5A95E1F7A82AF80114869A949110D2
:102C3000E2CFC501985D8115944020F4750123E031
:102C4000F222A3CFC5019C5D8115944008F5F3E005
:102C5000BF22C701982F8827990F990F8A299B298E
:102C6000B0E0A0E01196198280389105A105B10568
:102C700098F48A835E0123E0A20EB11CF5016291F3
:102C80005F01662309F481CFC8010E948D15F6CF3C
:102C9000C501B0E0A0E0E7CF282F2F7320682A837A
:102CA00036E0B695A795979587953A95D1F78032F6
:102CB000910538F4806C8B835E0184E0A80EB11C12
:102CC000DDCF282F2F7320682B8326E096958795DC
:102CD0002A95E1F78031910538F4806E8C835E018E
:102CE000E5E0AE0EB11CCACF80688C83CD825E0158
:102CF000F6E0AF0EB11CC2CF32969081992309F451
:102D000084CF8913F9CF8181882309F47ECFF8011C
:102D10001486682FC8010E948D1537CF60E0C80166
:102D20000E948D15F80182819381892B29F4E15B42
:102D3000FF4F84E090E038CF81E039CFEF92FF92EF
:102D40000F931F93CF93DF93DC01ED90FC90E7018D
:102D50002A813B81E881F981E217F30780F4B90108
:102D6000DF01EB014991BE018D010F5F1F4F5C91A7
:102D7000451318C0D8014111F4CF309759F4FC0124
:102D800084819581820F931FD70113969C938E9314
:102D90001297F901CF01DF91CF911F910F91FF9011
:102DA000EF900895FD014191DF014111FBCFD4CF98
:102DB000CF93DF93DC01EB01EC81FD818A819B8164
:102DC0000896E817F90740F481E08887F0E0E0E032
:102DD000CF01DF91CF9108953897FD83EC83309731
:102DE000B9F31296CD91DC911397209791F0CF0112
:102DF0008C1B9D0B23E0959587952A95E1F78D8394
:102E00001396FC93EE931297158214821782168202
:102E1000DFCF1196FC93EE93F3CFFC0176876587A5
:102E20000895DC01ED91FC91068CF78DE02D19954C
:102E300091E089270895862F089581E086270895D7
:102E400021E0FC018485883008F020E0822F08957D
:102E50000895CF93FC01892B91F094819F7798304E
:102E600029F078F4992359F0963079F4C1E0808103
:102E70009181A281B381892B8A2B8B2B39F4C0E0FD
:102E800005C09A3099F39C3021F0C1E08C2FCF918E
:102E90000895C1E020E030E0A90160817181828164
:102EA00093810E9427668111F1CFE9CFDC01FB01FC
:102EB000309731F18481823419F512962D913C912D
:102EC00013978281938128173907D1F414968C9136
:102ED00014978234A9F418969C91189780859813BA
:102EE0000FC019969C9119978185981309C081E0AC
:102EF00016964D915C91268137814217530709F050
:102F000080E008954F925F926F927F928F929F928E
:102F1000AF92BF92CF92DF92EF92FF920F931F93E7
:102F2000CF93DF93EC017B0188818B32C1F18D322D
:102F3000B9F5219611E0888190ED980F9A3018F03C
:102F40008E3209F03AC160E070E0CB01FE012191C0
:102F500000ED020F0A3030F56A3929E9720782075D
:102F600029E1920708F045C0AAE0B0E09B01AC015E
:102F70000E94166A802E912CB12CA12C24013501BF
:102F800040945094609470944616570668067906EB
:102F900080F1680D791D8A1D9B1DEF01D7CF219609
:102FA00010E0C9CF211125C0F70124812078112319
:102FB000C1F02A6024836083718382839383812F8D
:102FC000DF91CF911F910F91FF90EF90DF90CF9005
:102FD000BF90AF909F908F907F906F905F904F9039
:102FE000089528602483608371838283938311E032
:102FF000E6CF00E0EAE08E2E912CA12CB12C6115D9
:103000007105F0E88F07910540F0A50194010E9439
:10301000D569CA01B9010F5FF2CFFE01299130EDE8
:10302000320F3A3010F40F5FF8CF2E32F1F4EF0187
:103030002196FE012196208150EDD52ED20E29E059
:103040002D1598F06C3CECEC7E07ECE08E079105BA
:1030500080F7AAE0B0E09B01AC010E94166A6D0DFA
:10306000711D811D911D0150E4CF20812F7DD0E085
:10307000C0E0253409F05DC021812D32D9F53296AA
:10308000CC24C394DF01D0E0C0E0202F002E000C40
:10309000330B4AE0B42EFD01DD9040ED4D0D4A307A
:1030A00008F042C0BC9EA001BD9E500D1124CD2D44
:1030B000DD0CDD0BE097C40FD51FAE01420F531F8F
:1030C0004732510544F3F7018481CC20D1F040E030
:1030D00050E060E070E8111103C040E050E0BA0138
:1030E00080788C60F701848340835183628373838B
:1030F0001C2D65CF2B3219F03196C12CC3CF3296DF
:10310000FCCF40E050E060E87FEF111104C040E0E8
:1031100050E060E87FE780788C60F701848340832B
:1031200051836283738363CFCC2019F0D195C1950D
:10313000D1092081211141C0C00FD11D07FDDA95B1
:103140000E942C661C161D0604F500E0C0FF0CC092
:1031500024E0029FF0011124E753FA4F25913591A5
:10316000459154910E948D66D595C7950F5F209724
:1031700069F711119058F701248120782C6024837D
:10318000608371838283938332CFD195C195D109B6
:1031900000E0209771F3C0FF0CC024E0029FF00113
:1031A0001124E756FA4F25913591459154910E948B
:1031B0008D66D595C7950F5FECCF10E000CFCF920D
:1031C000DF92EF92FF92CF93DF9300D01F921F9276
:1031D000CDB7DEB7DC0114969C9114979F7796309B
:1031E00071F0FD01973028F4943070F590E080E0A4
:1031F00011C09A30D9F09C30A1F19830B9F78D9177
:103200009D910D90BC91A02D811520E89207A105FC
:10321000B10560F70F900F900F900F900F90DF9116
:10322000CF91FF90EF90DF90CF90089580819181B2
:10323000A281B381813020E89207A105B105B0F6E3
:10324000919581959109E6CF808191811D82BE0182
:103250006F5F7F4F0E948217CE0101960E94DF1898
:10326000D9CFC080D180E280F38020E030E040E020
:1032700057ECC701B6010E944D6B87FDB7CF20E028
:103280003EEF4FEF56E4C701B6010E9427661816BD
:103290000CF4ACCFC701B6010E94176BCB01BACFBB
:1032A000CF92DF92EF92FF92CF93DF9300D01F92E5
:1032B0001F92CDB7DEB7FC0194819F77963039F12C
:1032C00028F49430C8F590E080E02AC09830F9F0F6
:1032D0009C30C9F7C080D180E280F38020E030E0EC
:1032E000A901C701B6010E944D6B87FDECCF20E01C
:1032F0003FEF4FE757E4C701B6010E942766181653
:1033000014F3C701B6010E941E6BCB0109C0808176
:103310009181A281B381009721E0A207B10598F6BF
:103320000F900F900F900F900F90DF91CF91FF9023
:10333000EF90DF90CF900895808191811D82BE0132
:103340006F5F7F4F0E948217CE0101960E94501935
:10335000E7CF009711F00C94501990E080E00895A9
:10336000CF92DF92EF92FF92CF93DF9300D01F9224
:103370001F92CDB7DEB7FC0194819F77963031F173
:1033800020F49430C8F580E02BC09830F9F09C30E0
:10339000D1F7C080D180E280F38020E030E0A90145
:1033A000C701B6010E944D6B87FDEDCF20E030E0F4
:1033B0004FE753E4C701B6010E94276618161CF3B5
:1033C000C701B6010E941E6B862F0AC080819181C1
:1033D000A281B3818F3F9105A105B10509F098F64F
:1033E0000F900F900F900F900F90DF91CF91FF9063
:1033F000EF90DF90CF900895808191811D82BE0172
:103400006F5F7F4F0E948217CE0101960E94B01914
:10341000E7CF009711F00C94B01980E00895BF92A7
:10342000CF92DF92EF92FF920F931F93CF93DF9390
:10343000EC01B62EC72E8D85811105C0CE010E94EC
:103440005A0E81110EC01B861D861C8680E0DF91FE
:10345000CF911F910F91FF90EF90DF90CF90BF9091
:10346000089540E060EFCE010E94070E01E0E12CDC
:10347000D12C11E0CE010E94B40DF82ECE010E9495
:10348000B40D91E0F91218C0813099F51134D8F2D9
:10349000DB86D11002C081E08D878B81882399F271
:1034A0002396EB2DFC2DCF01089629912193E81747
:1034B000F907D9F781E0CBCFEE2DF0E0F8120FC07D
:1034C0008B851817A0F4DE01AE0FBF1F13968C91E9
:1034D000802379F4F12C193008F41C87D12EEC0FDD
:1034E000FD1F8381902F9095892383830AC08113C8
:1034F000F1CFFE01EE0DF11D8381802B8383FF242C
:10350000F3946F2DCE010E94D80D1F5F000F11F4B0
:10351000E39401E087E08E1508F0ACCFB7CFCF92EF
:10352000DF92EF92FF920F931F93CF93DF93EC0103
:1035300060E089850E94ED0A10E000E08C899D8999
:1035400008171907ECF4EE89FF89E00FF11FE080FE
:10355000DA84C88488E0F82E6E2D61708C2D0E946C
:10356000ED0AE69461E08D2D0E94ED0A60E08D2D5C
:103570000E94ED0AFA94F110EFCF0F5F1F4FDECFDC
:1035800061E08985DF91CF911F910F91FF90EF90BE
:10359000DF90CF900C94ED0A0C948963FC0180813C
:1035A0009181009711F00C94896308950C948963BC
:1035B0000C9489630C9489630C9489630C948963DB
:1035C0000C9489630C948963FF920F931F93CF939C
:1035D000DF93F82E8091F50A9091F60A0F2D10E0F6
:1035E000892BC9F0D0E0C0E08091F50A9091F60AED
:1035F000C017D10774F49E01220F331F820F931F4F
:10360000FC0180819181009711F00E9489632196CD
:10361000EBCF0E948963F11012C01092F60A10924B
:10362000F50A1093FA0A0093F90A8091F50A90912D
:10363000F60ADF91CF911F910F91FF900895C80175
:10364000880F991F0E94ED629093F60A8093F50A05
:10365000E8CF1F93CF93DF93182F8091F30A9091B7
:10366000F40A892B11F1D0E0C0E08091F30A909127
:10367000F40A2091F70A3091F80AC217D3079CF494
:103680009E01220F331F820F931FDC018D919C91AD
:10369000009739F0DC01ED91FC910488F589E02D6B
:1036A00019952196E2CF0E948963C12FD0E01111B4
:1036B00010C01092F40A1092F30AD093F80AC09343
:1036C000F70A8091F30A9091F40ADF91CF911F914C
:1036D0000895CE01880F991F0E94ED629093F40A1D
:1036E0008093F30AEACF1F93CF93DF93EC0161E05D
:1036F00089850E941B0B61E08A850E941B0B61E09B
:1037000088850E941B0B1B85169516951695812F93
:1037100090E09D8B8C8B81E090E00E94ED62FC013B
:1037200010839F8B8E8B90E080E02C893D898217DF
:1037300093073CF4EE89FF89E80FF91F1082019688
:10374000F4CFCE01DF91CF911F910C948F1AAF92DD
:10375000BF92CF92DF92EF92FF920F931F93CF937E
:10376000DF93CDB7DEB7C456D1090FB6F894DEBFEC
:103770000FBECDBFD62EC72E5A019F938F931F9297
:1037800080E58F9303EF13E01F930F9385EF93E092
:103790009F938F938AE094E09F938F93CE0101963D
:1037A0007C019F938F930E94A86C0FB6F894DEBFA4
:1037B0000FBECDBF92E0A916B10489F183E0A8162F
:1037C000B104A1F1AA94AB2819F11F930F93FF92B2
:1037D000EF9285E194E09F938F93CF92DF920E94C6
:1037E000A86C0FB6F894DEBF0FBECDBFCC59DF4F2B
:1037F0000FB6F894DEBF0FBECDBFDF91CF911F9102
:103800000F91FF90EF90DF90CF90BF90AF90089511
:103810001F930F93FF92EF9281E294E0DCCF1F930E
:103820000F93FF92EF928DE294E0D5CF1F930F9309
:10383000FF92EF9287E394E0CECFEF92FF920F9347
:103840001F93CF93DF937B018A01FB01E40FF51FE8
:103850001082C091BD0AD091BE0ABC01CE018B5F1F
:103860009E4F0E94936CB701CE0187599E4F0E94D4
:10387000936CCF5CDD4F19830883DF91CF911F914B
:103880000F91FF90EF9008950F931F93CF93DF93C5
:10389000EC0188819981009759F02A813B81261794
:1038A000370730F081E0DF91CF911F910F9108959C
:1038B0008B016F5F7F4F0E94826B009759F0998355
:1038C00088831B830A832C813D81232B59F7FC01BC
:1038D0001082E8CF80E0E7CFEF92FF920F931F9323
:1038E000CF93DF93EC017B018A01BA010E94441C53
:1038F00028813981811114C02115310519F0C901C0
:103900000E948963198218821D821C821B821A827E
:10391000CE01DF91CF911F910F91FF90EF9008950D
:103920001D830C83B701C9010E94936CF1CFFB0189
:1039300001900020E9F73197AF01461B570BDC01DE
:10394000ED91FC910280F381E02D19948F929F926A
:10395000AF92BF92EF92FF920F931F93CF93DF939B
:10396000CDB7DEB7A1970FB6F894DEBF0FBECDBFBF
:103970007C01FA01CB0119A2223008F42AE08E0161
:103980000F5D1F4F822E912CB12CA12CBF01A501E0
:1039900094010E94D569F901CA016A300CF5605D95
:1039A000D8016E938D01232B242B252B79F790E0E2
:1039B00080E0109721F0BD01C7010E94971CA196DD
:1039C0000FB6F894DEBF0FBECDBFDF91CF911F9130
:1039D0000F91FF90EF90BF90AF909F908F900895C0
:1039E000695CDECFAB0170E060E02AE00C94A61CBD
:1039F0008F929F92AF92BF92CF92DF92EF92FF92FF
:103A00000F931F93CF93DF937C018B016C0182E0B6
:103A1000C80ED11C4701E5E08E0E911CD0E0C0E03D
:103A2000F60141916F0150E070E060E02AE0C801CA
:103A30000E94A61C5C016EE2C8010E94D3088A0D98
:103A40009B1DC80FD91FC814D90451F7F701458130
:103A500050E070E060E02AE0C8010E94A61C8C0FD4
:103A60009D1FDF91CF911F910F91FF90EF90DF90FD
:103A7000CF90BF90AF909F908F90089562E474E0D4
:103A80000C94971CCF93DF93D0E0C0E0009731F007
:103A9000BC018FE499E00E94971CEC018FE499E04F
:103AA0000E943E1D8C0F9D1FDF91CF9108956115DF
:103AB000710511F00C94971C90E080E00895CF936D
:103AC000DF93EC0180917607909177070097B1F032
:103AD00060E20E94D3086E857F8580917607909181
:103AE00077076115710521F0DF91CF910C94571D77
:103AF0006EE67BE0DF91CF910C94DA08DF91CF91F5
:103B000008950F931F93CF93DF938C0180917607D5
:103B100090917707009711F1EB016CE77BE00E9431
:103B2000DA08C8010E945F1D6EE2809176079091CD
:103B300077070E94D308BE0180917607909177079E
:103B40000E94DA0869E77BE0809176079091770719
:103B5000DF91CF911F910F910C94DA08DF91CF91F3
:103B60001F910F91089563E87BE00C94811D1F93D2
:103B7000CF93DF93EC0180917607909177070097C0
:103B800009F464C0162F60E67BE0112341F00E9427
:103B90003E1D66E67BE080917607909177070E9454
:103BA000DA088E859F85892B79F060E2809176070F
:103BB000909177070E94D3086E857F858091760764
:103BC000909177070E94571D6AE57BE08091760708
:103BD000909177070E94DA08688579858091760749
:103BE000909177070E94F21C64E57BE08091760754
:103BF000909177070E94DA086A857B858091760725
:103C0000909177070E94F21C1123B9F061E57BE0E7
:103C100080917607909177070E94DA086E817F8104
:103C200080917607909177070E94571D67E28091F7
:103C30007607909177070E94D3088091760790913C
:103C40007707DF91CF911F910C943E1DDF91CF91AB
:103C50001F910895AF92BF92CF92DF92EF92FF92A1
:103C60000F931F93CF93DF93E0917607F09177073F
:103C7000EF2B09F4ADC059016A01EC010E94811DCE
:103C800061ED7FE080917607909177070E94DA08D6
:103C9000B60180917607909177070E94F21C8C857F
:103CA0008823C9F065EC7FE08091760790917707D3
:103CB0000E94DA08B6016F5F7F4F8091760790917E
:103CC00077070E94F21C62EC7FE08091760790916A
:103CD00077070E94DA08E114F104B9F062EB7FE0A3
:103CE00080917607909177070E94DA08B70180915A
:103CF0007607909177070E94F21C6DE97FE0809132
:103D00007607909177070E94DA088091040260E0BC
:103D10008823B1F180917607909177070E943E1D2C
:103D200065E97FE080917607909177070E94DA0835
:103D3000A114B10419F40115110501F165E87FE042
:103D400080917607909177070E94DA08A114B10458
:103D500021F167E280917607909177070E94D3085E
:103D6000B50180917607909177070E94571D67E211
:103D700080917607909177070E94D30860910402A2
:103D8000CE01DF91CF911F910F91FF90EF90DF90C7
:103D9000CF90BF90AF900C94B71D0115110571F332
:103DA00061E87FE080917607909177070E94DA08BA
:103DB000B80180917607909177070E94DA0865E450
:103DC00074E080917607909177070E94571DD6CFB7
:103DD000DF91CF911F910F91FF90EF90DF90CF90E7
:103DE000BF90AF900895CF93DF93FC018485882323
:103DF00079F120853185A681B781A20FB31F232BCE
:103E000029F19C91992311F191E095871C92C6812B
:103E1000D781DE010D900020E9F71197AC1BBD0B97
:103E2000B387A2878823A1F08091760790917707C6
:103E3000009771F0EF016EE87AE00E94DA08609175
:103E40000402CE01DF91CF910C94B71D80E0DECF4C
:103E5000DF91CF910895AF92BF92CF92DF92EF9210
:103E6000FF920F931F93CF93DF93EC016B017A01C5
:103E70000E94F31EC114D10421F581E08D87809149
:103E8000760790917707892B81F0CE010E94B31DB0
:103E900066E67FE080917607909177070E94DA08C6
:103EA00060910402CE010E94B71DCE01DF91CF9137
:103EB0001F910F91FF90EF90DF90CF90BF90AF9048
:103EC0000895E114F10489F3F60190E080E0219176
:103ED000222321F00196E816F906C8F78E159F05F2
:103EE00008F04CC081E08D8780917607909177072C
:103EF000892BD9F2CE010E94B31D6DE57FE0809140
:103F00007607909177070E94DA08B70180917607CB
:103F1000909177070E94F21C68E47FE08091760719
:103F2000909177070E94DA0880910402882309F4AF
:103F3000B7CF80917607909177070E943E1D60E48D
:103F40007FE080917607909177070E94DA086FE210
:103F50007FE080917607909177070E94DA08B6019A
:103F600080917607909177070E94571D67E28091B4
:103F70007607909177070E94D30892CF8A859B8518
:103F80005C01AE0CBF1C288539852A153B0560F401
:103F900081E08D8710E000E09601A50168E27FE0F6
:103FA000CE010E942A1E81CF2E813F81A701B6013A
:103FB000820F931F0E94716CBB86AA868E819F819F
:103FC000A80EB91EF501108270CF0F931F93CF93E7
:103FD000DF938C01EB01CB010E94F31E4A855B85C8
:103FE0006E817F81C801DF91CF911F910F910C9459
:103FF0002B1F0F931F93CF93DF93EC018B010E9434
:10400000F31E01151105F1F481E08D87809176078B
:1040100090917707892B81F0CE010E94B31D69E250
:104020007BE080917607909177070E94DA08609193
:104030000402CE010E94B71DCE01DF91CF911F91E6
:104040000F910895F80101900020E9F73197AF0131
:10405000401B510BB801CE01DF91CF911F910F9101
:104060000C942B1FCF93DF93EC018A819B810E94DC
:10407000F91FCE01DF91CF9108950F931F93CF9336
:10408000DF93EC018B010E94F31E6E817F8161152D
:10409000710539F0C801DF91CF911F910F910C94F8
:1040A000971C90E080E0DF91CF911F910F910895D0
:1040B0008F929F92AF92BF92CF92EF92FF920F9307
:1040C0001F93CF93DF93EC0159011D821C8284E57D
:1040D00092E09983888380E692E09B838A831D86A1
:1040E0001F870E87EC861C8A4115510509F4C2C151
:1040F0002115310529F0FF24F3944217530709F0E5
:10410000F12CEE20E9F1C1103BC062307105A1F540
:1041100087ED96E09F838E8382E090E09987888781
:104120001B861A861092D70681E08D8780917607CC
:1041300090917707009709F4E1C061E67AE00E9468
:10414000DA08CE010E945F1D6DE479E08091760768
:10415000909177070E94DA0860910402CE01DF9106
:10416000CF911F910F91FF90EF90CF90BF90AF90A4
:104170009F908F900C94B71D4115510509F47CC197
:104180005F834E83CB0101978E3F9F4F08F467C03A
:10419000EE2009F447C0CC2009F444C0672BE9F4B1
:1041A00087ED96E09F838E83198618861B861A8674
:1041B0001092D70681E08D878091760790917707DE
:1041C000009709F49BC06FE179E00E94DA08CE0104
:1041D0000E945F1D6FEE78E0B9CFFA0101900020D8
:1041E000E9F73197E41BF50BF987E887F11004C074
:1041F0001B861A86FA011082A114B104D9F581E058
:104200008D878091760790917707009709F476C0A3
:104210006DE478E00E94DA08CE010E945F1D69E13A
:1042200078E094CF87ED96E09F838E831986188679
:104230001B861A861092D70681E08D8780917607BB
:1042400090917707009709F459C069EC78E00E94D3
:10425000DA08CE010E945F1D67EA78E077CF6F3FF2
:104260008FE7780710F06EEF7FE76150710979876B
:104270006887BCCF88849984C4010E94ED628C0158
:104280000E948963012B09F045C081E08D871B8660
:104290001A86EE81FF8110828091760790917707D0
:1042A000009731F166E078E00E94DA08CE010E94C2
:1042B0005F1D61EF77E080917607909177070E940C
:1042C000DA086885798580917607909177070E9452
:1042D000F21C62EB77E080917607909177070E945D
:1042E000DA081986188660910402CE010E94B71D73
:1042F00087ED96E09F838E8319861886DF91CF9194
:104300001F910F91FF90EF90CF90BF90AF909F9033
:104310008F900895F50110E000E08191882309F461
:1043200091C00F5F1F4F80169106B8F7FF2041F034
:104330009B868A868E819F81880E991EF401108249
:1043400081E08D8780917607909177070097B1F291
:10435000F11048C06FE977E00E94DA08CE010E94B0
:104360005F1D65E877E080917607909177070E945E
:10437000DA08B80180917607909177070E94F21CC5
:1043800061E777E080917607909177070E94DA08DD
:1043900080910402882309F4DFCE80917607909102
:1043A00077070E943E1D69E677E08091760790913D
:1043B00077070E94DA0860E577E0809176079091B0
:1043C00077070E94DA08B501809176079091770708
:1043D0000E94571D67E280917607909177070E94AF
:1043E000D308BACE64E277E0C11002C06EEF76E087
:1043F0000E94DA08CE010E945F1D6FEC76E080918A
:104400007607909177070E94DA08B80180917607C5
:10441000909177070E94F21C80910402882309F48E
:104420009BCE80917607909177070E943E1D67ECA6
:1044300076E080917607909177070E94DA086BEA20
:1044400076E0BBCFF11006C0A801B5018E819F8137
:104450000E94716C1B870A878E819F81080F191F2C
:10446000F8011082EE81FF8188859985E80FF91F98
:10447000108244CFE1101DC087ED96E09F838E83AC
:10448000198618861B861A861092D70681E08D87BA
:104490008091760790917707009709F42FCF64E910
:1044A00078E00E94DA08CE010E945F1D60E678E0A5
:1044B0004DCEC110E1CF62307105F1F629CE4F9299
:1044C0005F926F927F92AF92BF92CF92EF92FF92E4
:1044D0000F931F93CF93DF93CDB7DEB7EC970FB653
:1044E000F894DEBF0FBECDBF5C012A013B010E94E4
:1044F000F31ECC24C394E12C08E414E022EF33E053
:10450000AE014F5F5F4F65E270E0CE0186960E947C
:1045100058202AE0B301A201CE0188960E94A61C71
:104520007C01F50102851385CE0186960E94F31E5B
:1045300048A959A9400F511FF5018085918584171D
:10454000950710F581E085872CA53DA5F12CE12C80
:1045500010E000E062E27FE0C5010E942A1EC70170
:10456000EC960FB6F894DEBF0FBECDBFDF91CF91B2
:104570001F910F91FF90EF90CF90BF90AF907F90E1
:104580006F905F904F900895BE016A5D7F4FC501A7
:104590000E94E51FE4CF8F929F92AF92BF92CF927D
:1045A000EF920F931F93CF93DF93CDB7DEB7A09712
:1045B0000FB6F894DEBF0FBECDBF5C014B01CC241B
:1045C000C394E12C08E414E022EF33E0AE01485E2E
:1045D0005F4F69E070E0CE0101960E945820A4016F
:1045E00070E060E0CE0101960E945F22BE016F5F25
:1045F0007F4FC5010E94E51FA0960FB6F894DEBF5D
:104600000FBECDBFDF91CF911F910F91EF90CF9053
:10461000BF90AF909F908F900895CF93DF93EC0160
:104620008A819B810E94CB22CE01DF91CF91089598
:104630006F927F928F929F92AF92BF92CF92EF92A2
:10464000FF920F931F93CF93DF93CDB7DEB7CC5577
:10465000D1090FB6F894DEBF0FBECDBF3C014B01B0
:10466000CC24C394E12C08E414E022EF33E0AE0143
:104670004C5A5F4F69E070E0CE01CD960E94582001
:10468000092C000CAA08BB08CE01CD960E94F31E8F
:1046900022EF33E0AE014F5F5F4F65E270E0CE0185
:1046A00086960E9458202AE0B501A401B7FE0DC0ED
:1046B0006DE2CE0188960E94D30844275527BA019F
:1046C000481959096A097B092AE0CE0188960E9497
:1046D000A61C2996AEACBFAC2997CE0186960E9447
:1046E000F31E48A959A94A0D5B1D27968EAD9FADB3
:1046F00027978417950758F581E02B968FAF2B9756
:104700002CA53DA5F12CE12C10E000E064E47BE059
:10471000CE01CD960E942A1EBE01635C7F4FC3016D
:104720000E94E51FC45ADF4F0FB6F894DEBF0FBEDC
:10473000CDBFDF91CF911F910F91FF90EF90CF9060
:10474000BF90AF909F908F907F906F900895BE0123
:104750006A5D7F4FCE01CD960E94E51FDDCFCF93DE
:10476000DF93EC018A819B810E941823CE01DF91A7
:10477000CF910895AF92BF92CF92EF92FF920F9395
:104780001F93CF93DF93CDB7DEB76D970FB6F89435
:10479000DEBF0FBECDBF5C01F62ECC24C394E12C4E
:1047A00008E414E022EF33E0AE01485E5F4F66E0BC
:1047B00070E0CE0101960E9458204F2D50E070E02D
:1047C00060E0CE0101960E945F22BE016F5F7F4FC5
:1047D000C5010E94E51F6D960FB6F894DEBF0FBEAF
:1047E000CDBFDF91CF911F910F91FF90EF90CF90B0
:1047F000BF90AF900895CF92DF92EF92FF920F9308
:104800001F93CF93DF938C01DC019296ED91FC9185
:10481000E80FF91F12826C01B2E0CB0ED11CC1145B
:10482000D10431F1F60101900020E9F73197EC193C
:10483000FD09F1F0DC01ED90FC90D7011496CD91CB
:10484000DC91CE0FDF1FBE01C7010E94441C8823EC
:1048500079F0F7012081318184819581B601820F41
:10486000931F0E94936CD7011596DC93CE931497F7
:10487000F80113A212A2DF91CF911F910F91FF9027
:10488000EF90DF90CF900895CF93DF93EC018AA152
:104890009BA19C012F5F3F4F3BA32AA3FE01E80F82
:1048A000F91F62830296809718F0CE010E94FB23C5
:1048B0008CA19DA101969DA38CA3DF91CF9108951A
:1048C000EF92FF920F931F93CF93DF93EC017B0145
:1048D00062E20E9444248701F80161918F016623FE
:1048E00091F0E2EEF3E0F280FF2049F03296818110
:1048F0006813F9CF6CE5CE010E9444246F2DCE01E0
:104900000E944424E9CF62E2CE01DF91CF911F9152
:104910000F91FF90EF900C944424CF92DF92EF928E
:10492000FF920F931F93CF93DF93EC016A018B01EA
:104930007B01E40EF51E0E151F05A9F0F80121916B
:104940008F018AA19BA1AC014F5F5F4F5BA34AA37C
:10495000FE01E80FF91F22830296809760F3CE01D3
:104960000E94FB23E8CF4CA15DA14C0D5D1D5DA312
:104970004CA3DF91CF911F910F91FF90EF90DF90AB
:10498000CF900895EF92FF920F931F93CF93DF93F1
:10499000CDB7DEB766970FB6F894DEBF0FBECDBFBA
:1049A0008C01CB01FE0177969F014AE0E42EF12CA9
:1049B000B7010E94526B805D8293CB010097C1F7D3
:1049C000A9014E1B5F0BBF01C8010E948D24669692
:1049D0000FB6F894DEBF0FBECDBFDF91CF911F9110
:1049E0000F91FF90EF9008958F929F92AF92BF9298
:1049F000CF92DF92EF92FF920F931F93CF93DF93AB
:104A0000CDB7DEB766970FB6F894DEBF0FBECDBF49
:104A10006C018E01095E1F4F78018AE0882E912C6F
:104A2000A12CB12CCB01BA01A50194010E94D5693A
:104A3000942F852F605DF80162938F01A901692F82
:104A4000782F411551056105710561F7A7014E1BCE
:104A50005F0BBF01C6010E948D2466960FB6F894C5
:104A6000DEBF0FBECDBFDF91CF911F910F91FF90A1
:104A7000EF90DF90CF90BF90AF909F908F90089570
:104A8000FB0101900020E9F73197AF01461B570B5E
:104A90000C948D242F923F924F925F926F927F924F
:104AA0008F929F92AF92BF92CF92DF92EF92FF923E
:104AB0000F931F93CF93DF93CDB7DEB766970FB6F3
:104AC000F894DEBF0FBECDBF8C011B01DC01149634
:104AD0008C9114978F77863009F470C278F4823005
:104AE000B0F0843008F051C212964D915C9113974A
:104AF0006D917C91C1010E948D2416C28C30B1F160
:104B000060F4883009F455C28A3009F444C26DE477
:104B100074E0C1010E94402507C2803209F408C236
:104B20008034A9F76BE5C1010E944424F80100819B
:104B300011810115110509F4F3C1B101C8010E94E9
:104B40004A25D80115968C91882309F4E9C1B8E06B
:104B50008B02C0011124080F191F0115110509F45A
:104B6000DFC16CE2C1010E944424E3CFF801C080A0
:104B7000D180E280F380A7019601C701B6010E94AF
:104B80002766882331F06DE474E0C1010E9440255E
:104B90009FC120E030E0A901C701B6010E9427664D
:104BA000882371F0A7019601C701B6010E94396AF6
:104BB0009B01AC01C701B6010E942766882319F347
:104BC00020E030E0A901C701B6010E94276687FFF7
:104BD00008C06DE2C1010E944424F7FAF094F7F88E
:104BE000F09420E836E948E15BE4C701B6010E9491
:104BF0004D6B87FD81C064E1A62EB12C00E210E070
:104C00001A8A198AF501E753FA4F25913591459192
:104C10005491C701B6010E944D6B87FD13C0F50189
:104C2000E756FA4F2591359145915491C701B60148
:104C30000E948D666B017C0129893A89200F311F02
:104C40003A8B298B1595079534E0A31AB1088CEFA0
:104C5000A8168FEFB806B1F655245A9420E030E03C
:104C6000A901C701B6010E944D6B18160CF04BC08C
:104C70002CEA35EC47E257E3C701B6010E942766EC
:104C800018160CF440C0A52DB4E0AB02C0011124ED
:104C9000B12CA12CFC01EF54FA4F3F019C0127538A
:104CA0003A4F49013FEF531671F1F301EA0DFB1D35
:104CB0006591759185919491A70196010E944D6B24
:104CC00018169CF4F401EA0DFB1D259135914591D0
:104CD0005491C701B6010E948D666B017C018989E0
:104CE0009A89801B910B9A8B898B159507955A94FD
:104CF00094E0A91AB108D6CF00E210E045E0542EA6
:104D00001A8A198AABCFC701B6010E941E6B4B01EC
:104D10005C012B013C0106E080E492E4AFE0B0E0EE
:104D20008B8B9C8BAD8BBE8B102F01509AE049165C
:104D3000510461047104C8F06B897C898D899E8956
:104D40002AE030E040E050E00E94D5692B8B3C8B9C
:104D50004D8B5E8BC301B2012AE030E040E050E0B1
:104D60000E94D56929013A01DFCFC501B4010E9433
:104D70002C669B01AC01C701B6010E94386A6B0129
:104D80007C016B897C898D899E890E942C669B01A0
:104D9000AC01C701B6010E948D662B013C010E9447
:104DA0001E6B6B017C010E942C669B01AC01C30150
:104DB000B2010E94386A9B01AC010E94396A0E94CC
:104DC0001E6BC60ED71EE81EF91E8B899C89AD8905
:104DD000BE89C816D906EA06FB06D8F09FEF891AE5
:104DE000990AA90AB90AA989BA89AB2B39F1BAE09B
:104DF0008B169104A104B10408F1E989FA8931966E
:104E0000FA8BE98BC12CD12C7601812C912C540189
:104E100083949AE0492E512C612C712CC701B60164
:104E2000A30192010E94D569672B682B692B51F46D
:104E3000111644F469017A011150F0CFC12CD12C24
:104E40007601E7CFB501A401C1010E94F42411232A
:104E500071F14E01F1E18F0E911C012F54018AE096
:104E6000482E512C612C712C015068F0C701B601FD
:104E7000A30192010E94D569605DD4016E934D013A
:104E800069017A01F1CF812F90E0BC0160957095A6
:104E9000F501E81BF90B31978EE2808344275527F3
:104EA000461B570B6A0D7B1DC1010E948D24E989A9
:104EB000FA89F7FF2AC062E574E0C1010E9440252B
:104EC00069897A89719561957109C1010E94C2242D
:104ED000D10194968D919C9166960FB6F894DEBFA1
:104EE0000FBECDBFDF91CF911F910F91FF90EF903B
:104EF000DF90CF90BF90AF909F908F907F906F90FA
:104F00005F904F903F902F90089529893A89232BE5
:104F1000F9F265E6C1010E94442469897A89D5CFF6
:104F20006DE5C1010E944424F10184A195A1D4CF73
:104F30006BE7C1010E944424D8010D911C91011519
:104F4000110509F1F80166817781C1010E94602491
:104F50006AE3C1010E944424B101C8010E944A25AC
:104F6000D80115968C91882371F0B8E08B02C001AE
:104F70001124080F191F0115110529F06CE2C10158
:104F80000E944424DCCF6DE7CCCF6D917C91C101B0
:104F90000E946024C9CFCD90DD90ED90FC906DE231
:104FA000C1010E944424B701A601C1010E94F4245A
:104FB000BBCF4D915D916D917C91F7CFF8018081D0
:104FC0009181A281B38165E574E0892B8A2B8B2BBB
:104FD00009F0DBCD6AE574E0D8CD0E94636CAF9236
:104FE000BF92CF92DF92EF92FF920F931F93CF93D6
:104FF000DF9300D01F92CDB7DEB78C016B017A0131
:10500000809173078333E9F45B016801C40ED51EF8
:10501000C016D106A9F10E94D40B8FE00E94DF0BCD
:10502000812F0E94DF0B802F0E94DF0B0F5F1F4F2D
:1050300080E00E94DF0BF50181935F010E94CA0BA3
:10504000E7CF843369F50E94D40B19830A838F2D2F
:105050008F778B83EC8264E070E0CE0101960E9432
:10506000B00BA70170E060E0C6010E94836CE11400
:10507000F10421F0B701C6010E94B00B0E94CA0BD7
:10508000C7010F900F900F900F90DF91CF911F915C
:105090000F91FF90EF90DF90CF90BF90AF90089569
:1050A0000E94D40B0F3F110509F030F419820A83D6
:1050B0001B8263E070E0D1CF17FD0BC019820A8319
:1050C00033E0169507953A95E1F7007E08600B836B
:1050D000F0CFC80126E0969587952A95E1F7807E66
:1050E00019830A830115104C18F480618B83E1CF7A
:1050F0008861FCCFCF93DF931F92CDB7DEB72091AD
:105100001E0730E0322F2227260F371F90E0982FFE
:10511000882741E050E0BE016F5F7F4F820F931FF1
:105120000E94EF2789810F90DF91CF910895CF934F
:10513000C82F462F61E070E00E94F20C61E070E041
:105140008C2F0E947A288111F9CFCF910895CF93A7
:10515000C82F80E591E00E947C0868E070E08C2F09
:10516000CF910C949728CF93C82F80E591E00E94AF
:105170007C0860E170E08C2FCF910C949728CF933E
:10518000DF93EC01888D883020F40E94B32888E0FA
:10519000888FDF91CF910895CF93C82F80E591E05C
:1051A0000E947C0863E070E08C2FCF910C947A28E9
:1051B000CF93DF93EC018C858830D0F40E94CC280B
:1051C000843189F0882379F0883169F021E08C31CD
:1051D00059F4E881F9810084F185E02DCE0119951B
:1051E00021E0892B09F420E0822FDF91CF910895EF
:1051F00080E0FBCFCF92DF92EF92FF92CF93DF93CD
:10520000EC018C85883068F40E94A7280E94A40BCA
:105210006B017C018C850E94CC28811109C088E03B
:105220008C87DF91CF91FF90EF90DF90CF90089522
:1052300061E070E080E090E00E94710B0E94A40B9E
:10524000AB01BC014C195D096E097F098D859E85F6
:10525000B0E0A0E0481759076A077B07D8F28C85B1
:105260000E94B328DCCFCF93FC01C08D80E591E094
:105270000E947C0860E270E08C2F0E94972862E018
:1052800070E08C2F0E947A2884FD16C062E070E0E6
:105290008C2F0E947A2883FF0AC048E162E070E008
:1052A0008C2F0E94F20C80E090E0CF91089580E571
:1052B00091E00E947C08E3CF40E162E070E08C2F37
:1052C0000E94F20C81E0F0CFCF93DF931F92CDB715
:1052D000DEB741E050E0BE016F5F7F4F90E080E0BD
:1052E0000E94EF2789810F90DF91CF910895CF938E
:1052F000DF93C4E1D0E00E946429882361F061E07B
:1053000070E080E090E00E94710B2197A1F780E0AF
:10531000DF91CF91089581E0FBCF1F93CF93DF936F
:105320001F92CDB7DEB7182F80E591E00E947C0870
:10533000812F0E94A70C27E0129FF0011124E55C49
:10534000F84F22813381377041E050E0BE016F5F3A
:105350007F4F820F931F0E94EF2789810F90DF916B
:10536000CF911F910895FC01808D883040F4218DEC
:10537000328D232B21F00E948D2990E008958FEF2C
:105380009FEF0895CF93DF93FC012485283028F008
:105390008FEF9FEFDF91CF910895EC010190F081A5
:1053A000E02D0084F185E02D1995892B89F38C85FA
:1053B0000E948D2990E0EECFDA01E0911E07F0E027
:1053C000FE2FEE27E60FF71F90E0982F8827A90100
:1053D000BD018E0F9F1F0C94EF278F929F92AF926B
:1053E000BF92CF92DF92EF92FF920F931F93CF93D2
:1053F000DF93CDB7DEB760970FB6F894DEBF0FBE70
:10540000CDBF7C0190917307911115C018E0812FD9
:1054100060960FB6F894DEBF0FBECDBFDF91CF917F
:105420001F910F91FF90EF90DF90CF90BF90AF90C2
:105430009F908F90089508E0933309F404E06B0186
:1054400080E591E00E947C089E012F5F3F4F59014B
:10545000490110E063E070E0812F0E947A28F40196
:1054600081934F018823C1F01F5F0113F3CF00E048
:10547000F50181915F018D3149F0883139F08A5110
:10548000823020F00F5F1013F3CFC0CF60E170E0E7
:10549000802F0E949728102FA12EB12C83EE93E02D
:1054A0000197F1F742E870E060E0812F0E94F20C72
:1054B0004FEF62E070E0812F0E94F20CB601C11440
:1054C000D10491F48091020290910302019681151A
:1054D000F0EC9F0708F45CC09093030280930202F3
:1054E0006091020270910302812F0E94DC0C86E021
:1054F000EFE0F2E0DE01199601900D928A95E1F756
:10550000F70183818F778C8784818D8785818E8752
:10551000A7014E5F5F4F24E030E06CE070E0812F28
:105520000E94B50CB601812F0E94C60C26E030E027
:10553000AE01475F5F4F66E070E0812F0E94B50CBF
:1055400061E070E0812F0E94972827E02A9DC0012A
:105550002B9D900D11249C01255C384F7901F90198
:105560001182108222E030E0AE01415F5F4F68E2BD
:1055700070E0812F0E94DC298F85988998278927E0
:105580009827F701938382831682158214823FCF76
:1055900080E090ECA1CFCF92DF92EF92FF920F9339
:1055A0001F93CF93DF9300D000D0CDB7DEB78C012F
:1055B0006B017A01FC01808D883010F40E94B328C1
:1055C00080EE93E09A838983F60182819381A4819E
:1055D000B5818B839C83AD83BE83B701CE010196D9
:1055E0000E94ED29F801808F8830A0F4F586E486CA
:1055F000128E118E81E026960FB6F894DEBF0FBE94
:10560000CDBFDF91CF911F910F91FF90EF90DF9071
:10561000CF90089580E0EFCF7F928F929F92AF92CC
:10562000BF92CF92DF92EF92FF920F931F93CF938F
:10563000DF931F921F92CDB7DEB7782E8B014A0100
:10564000590122E030E0AE014F5F5F4F64E270E04D
:105650000E94DC29E980FA80FE24EF24FE24E00E7B
:10566000F11E9701377040917307072D10E0433307
:1056700009F042C0085F1F4F102F0027110F110FB4
:10568000110FC901800F911F4733C9F1A9014A0DBC
:105690005B1D4130584098F160E078E06B01C21A20
:1056A000D30AA601B4010E94E60BA5014C195D09BD
:1056B000B4016C0D7D1DC8010E94E60BEA0CFB1CB9
:1056C000F982EA8222E030E0AE014F5F5F4F64E290
:1056D00070E0872D0E94B50C0F900F90DF91CF9155
:1056E0001F910F91FF90EF90DF90CF90BF90AF9000
:1056F0009F908F907F900895005F1F4FBDCFA501B1
:10570000B401DACFEF92FF921F93CF93DF931F92F2
:105710001F92CDB7DEB7182F22E030E0AE014F5F09
:105720005F4F60E270E00E94DC29E980FA80FE248D
:10573000EF24FE2422E030E0AE014F5F5F4F60E2D5
:1057400070E0812F0E94DC2989819A81982789271E
:105750009827E816F90689F487E0189FF0011124CC
:10576000E55CF84FF582E482C7010F900F90DF915E
:10577000CF911F91FF90EF9008957C01DBCF1F9395
:10578000CF93DF93182F80E591E00E947C08812F52
:105790000E94822BEC0163E070E0812F0E947A2846
:1057A000873121F08C3111F0D0E0C0E0CE01DF91E3
:1057B000CF911F910895CF93DF93EC018C858830B2
:1057C00060F40E94CC28873111F08C3131F48C8543
:1057D0000E94BF2B8115984088F3DF91CF910895E7
:1057E000FC018485883010F40C94BF2B90E080E09D
:1057F00008959F92AF92BF92CF92DF92EF92FF9265
:105800000F931F93CF93DF938C015B01942EE52EB2
:10581000FC01C688D788F08C80E591E00E947C0866
:105820008F2D0E94822BC92DDE2D8C179D0708F429
:10583000EC019E01A501B6018F2D0E940C2BF801F1
:10584000868997898C0F9D1F978B868BCE01DF9160
:10585000CF911F910F91FF90EF90DF90CF90BF906D
:10586000AF909F9008958F929F92AF92BF92CF92E8
:10587000DF92EF92FF920F931F93CF936C015B0126
:105880008A01FC01C485C830F0F57A0141305840E6
:1058900018F0E12C88E0F82E80E591E00E947C0869
:1058A0008C2F0E94822B4C0163E070E08C2F0E94B1
:1058B0007A28873111F08C3149F58E149F0460F3FA
:1058C00080E591E00E947C089701A50170E060E00E
:1058D0008C2F0E940C2B60E270E08C2F0E94972886
:1058E00062E070E08C2F0E947A2884FD17C063E08C
:1058F00070E08C2F0E947A2881110BC081E090E02B
:10590000F6019383828310E000E010C0F12CE12CBB
:10591000D7CF80E591E00E947C08E2CF40E162E0D1
:1059200070E08C2F0E94F20CEF2841F3C801CF9158
:105930001F910F91FF90EF90DF90CF90BF90AF90AD
:105940009F908F900895FF920F931F93CF93DF93B3
:105950001F921F92CDB7DEB7F82E22E030E0AE01E5
:105960004F5F5F4F66E270E00E94DC2909811A8177
:1059700010270127102722E030E0AE014F5F5F4F74
:1059800066E270E08F2D0E94DC2989819A81982738
:10599000892798270817190749F4C8010F900F9015
:1059A000DF91CF911F910F91FF9008958C01E3CF6C
:1059B0001F93CF93DF93182F87E0189FE0011124E6
:1059C000C55CD84F88819981009761F480E591E0AA
:1059D0000E947C08812F0E94A32C2E81821B91099A
:1059E00099838883DF91CF911F910895FC0184856D
:1059F000883010F40C94D82C90E080E008954F92F9
:105A00005F927F928F929F92AF92BF92CF92DF92DE
:105A1000EF92FF920F931F93CF93DF931F921F92EA
:105A2000CDB7DEB7782E6B014A01A82EB12C27E046
:105A3000829FC0011124FC01E55CF84F7F010081C9
:105A4000118180E591E00E947C080815190554F445
:105A5000872D0E94A32CF70126818C01021B1109BE
:105A6000118300830115110529F563E070E0872D8E
:105A70000E947A28843159F0882349F001E010E02F
:105A80008C3111F410E000E0119501951109C80165
:105A90000F900F90DF91CF911F910F91FF90EF909A
:105AA000DF90CF90BF90AF909F908F907F905F904E
:105AB0004F900895801691060CF4840187E08A9D2A
:105AC000F0018B9DF00D1124E55CF84FE280F3802E
:105AD000C114D10451F12701F7E05F22872D0E9404
